{
	"contracts/9-Time_Stamped_Withdraw/timestamp.sol": {
		"Withdrawable": {
			"abi": [
				{
					"inputs": [
						{
							"internalType": "uint256",
							"name": "_releaseTime",
							"type": "uint256"
						}
					],
					"stateMutability": "payable",
					"type": "constructor"
				},
				{
					"inputs": [],
					"name": "blocktime",
					"outputs": [
						{
							"internalType": "uint256",
							"name": "",
							"type": "uint256"
						}
					],
					"stateMutability": "view",
					"type": "function"
				},
				{
					"inputs": [],
					"name": "getBalance",
					"outputs": [
						{
							"internalType": "uint256",
							"name": "",
							"type": "uint256"
						}
					],
					"stateMutability": "view",
					"type": "function"
				},
				{
					"inputs": [],
					"name": "owner",
					"outputs": [
						{
							"internalType": "address payable",
							"name": "",
							"type": "address"
						}
					],
					"stateMutability": "view",
					"type": "function"
				},
				{
					"inputs": [],
					"name": "releaseTime",
					"outputs": [
						{
							"internalType": "uint256",
							"name": "",
							"type": "uint256"
						}
					],
					"stateMutability": "view",
					"type": "function"
				},
				{
					"inputs": [
						{
							"internalType": "address payable",
							"name": "recipient",
							"type": "address"
						},
						{
							"internalType": "uint256",
							"name": "amount",
							"type": "uint256"
						}
					],
					"name": "withdraw",
					"outputs": [],
					"stateMutability": "nonpayable",
					"type": "function"
				}
			],
			"devdoc": {
				"kind": "dev",
				"methods": {},
				"version": 1
			},
			"evm": {
				"assembly": "    /* \"contracts/9-Time_Stamped_Withdraw/timestamp.sol\":78:1208  contract Withdrawable {... */\n  mstore(0x40, 0x80)\n    /* \"contracts/9-Time_Stamped_Withdraw/timestamp.sol\":199:214  block.timestamp */\n  timestamp\n    /* \"contracts/9-Time_Stamped_Withdraw/timestamp.sol\":172:214  uint256 public blocktime = block.timestamp */\n  0x02\n  sstore\n    /* \"contracts/9-Time_Stamped_Withdraw/timestamp.sol\":221:534  constructor(uint256 _releaseTime) payable {... */\n  mload(0x40)\n  sub(codesize, bytecodeSize)\n  dup1\n  bytecodeSize\n  dup4\n  codecopy\n  dup2\n  dup2\n  add\n  0x40\n  mstore\n  dup2\n  add\n  swap1\n  tag_1\n  swap2\n  swap1\n  tag_2\n  jump\t// in\ntag_1:\n    /* \"contracts/9-Time_Stamped_Withdraw/timestamp.sol\":307:316  0.1 ether */\n  0x016345785d8a0000\n    /* \"contracts/9-Time_Stamped_Withdraw/timestamp.sol\":294:303  msg.value */\n  callvalue\n    /* \"contracts/9-Time_Stamped_Withdraw/timestamp.sol\":294:316  msg.value >= 0.1 ether */\n  lt\n  iszero\n    /* \"contracts/9-Time_Stamped_Withdraw/timestamp.sol\":273:394  require(... */\n  tag_5\n  jumpi\n  mload(0x40)\n  0x08c379a000000000000000000000000000000000000000000000000000000000\n  dup2\n  mstore\n  0x04\n  add\n  tag_6\n  swap1\n  tag_7\n  jump\t// in\ntag_6:\n  mload(0x40)\n  dup1\n  swap2\n  sub\n  swap1\n  revert\ntag_5:\n    /* \"contracts/9-Time_Stamped_Withdraw/timestamp.sol\":480:490  msg.sender */\n  caller\n    /* \"contracts/9-Time_Stamped_Withdraw/timestamp.sol\":464:469  owner */\n  0x00\n  dup1\n    /* \"contracts/9-Time_Stamped_Withdraw/timestamp.sol\":464:491  owner = payable(msg.sender) */\n  0x0100\n  exp\n  dup2\n  sload\n  dup2\n  0xffffffffffffffffffffffffffffffffffffffff\n  mul\n  not\n  and\n  swap1\n  dup4\n  0xffffffffffffffffffffffffffffffffffffffff\n  and\n  mul\n  or\n  swap1\n  sstore\n  pop\n    /* \"contracts/9-Time_Stamped_Withdraw/timestamp.sol\":515:527  _releaseTime */\n  dup1\n    /* \"contracts/9-Time_Stamped_Withdraw/timestamp.sol\":501:512  releaseTime */\n  0x01\n    /* \"contracts/9-Time_Stamped_Withdraw/timestamp.sol\":501:527  releaseTime = _releaseTime */\n  dup2\n  swap1\n  sstore\n  pop\n    /* \"contracts/9-Time_Stamped_Withdraw/timestamp.sol\":221:534  constructor(uint256 _releaseTime) payable {... */\n  pop\n    /* \"contracts/9-Time_Stamped_Withdraw/timestamp.sol\":78:1208  contract Withdrawable {... */\n  jump(tag_8)\n    /* \"#utility.yul\":88:205   */\ntag_10:\n    /* \"#utility.yul\":197:198   */\n  0x00\n    /* \"#utility.yul\":194:195   */\n  dup1\n    /* \"#utility.yul\":187:199   */\n  revert\n    /* \"#utility.yul\":334:411   */\ntag_12:\n    /* \"#utility.yul\":371:378   */\n  0x00\n    /* \"#utility.yul\":400:405   */\n  dup2\n    /* \"#utility.yul\":389:405   */\n  swap1\n  pop\n    /* \"#utility.yul\":334:411   */\n  swap2\n  swap1\n  pop\n  jump\t// out\n    /* \"#utility.yul\":417:539   */\ntag_13:\n    /* \"#utility.yul\":490:514   */\n  tag_24\n    /* \"#utility.yul\":508:513   */\n  dup2\n    /* \"#utility.yul\":490:514   */\n  tag_12\n  jump\t// in\ntag_24:\n    /* \"#utility.yul\":483:488   */\n  dup2\n    /* \"#utility.yul\":480:515   */\n  eq\n    /* \"#utility.yul\":470:533   */\n  tag_25\n  jumpi\n    /* \"#utility.yul\":529:530   */\n  0x00\n    /* \"#utility.yul\":526:527   */\n  dup1\n    /* \"#utility.yul\":519:531   */\n  revert\n    /* \"#utility.yul\":470:533   */\ntag_25:\n    /* \"#utility.yul\":417:539   */\n  pop\n  jump\t// out\n    /* \"#utility.yul\":545:688   */\ntag_14:\n    /* \"#utility.yul\":602:607   */\n  0x00\n    /* \"#utility.yul\":633:639   */\n  dup2\n    /* \"#utility.yul\":627:640   */\n  mload\n    /* \"#utility.yul\":618:640   */\n  swap1\n  pop\n    /* \"#utility.yul\":649:682   */\n  tag_27\n    /* \"#utility.yul\":676:681   */\n  dup2\n    /* \"#utility.yul\":649:682   */\n  tag_13\n  jump\t// in\ntag_27:\n    /* \"#utility.yul\":545:688   */\n  swap3\n  swap2\n  pop\n  pop\n  jump\t// out\n    /* \"#utility.yul\":694:1045   */\ntag_2:\n    /* \"#utility.yul\":764:770   */\n  0x00\n    /* \"#utility.yul\":813:815   */\n  0x20\n    /* \"#utility.yul\":801:810   */\n  dup3\n    /* \"#utility.yul\":792:799   */\n  dup5\n    /* \"#utility.yul\":788:811   */\n  sub\n    /* \"#utility.yul\":784:816   */\n  slt\n    /* \"#utility.yul\":781:900   */\n  iszero\n  tag_29\n  jumpi\n    /* \"#utility.yul\":819:898   */\n  tag_30\n  tag_10\n  jump\t// in\ntag_30:\n    /* \"#utility.yul\":781:900   */\ntag_29:\n    /* \"#utility.yul\":939:940   */\n  0x00\n    /* \"#utility.yul\":964:1028   */\n  tag_31\n    /* \"#utility.yul\":1020:1027   */\n  dup5\n    /* \"#utility.yul\":1011:1017   */\n  dup3\n    /* \"#utility.yul\":1000:1009   */\n  dup6\n    /* \"#utility.yul\":996:1018   */\n  add\n    /* \"#utility.yul\":964:1028   */\n  tag_14\n  jump\t// in\ntag_31:\n    /* \"#utility.yul\":954:1028   */\n  swap2\n  pop\n    /* \"#utility.yul\":910:1038   */\n  pop\n    /* \"#utility.yul\":694:1045   */\n  swap3\n  swap2\n  pop\n  pop\n  jump\t// out\n    /* \"#utility.yul\":1051:1220   */\ntag_15:\n    /* \"#utility.yul\":1135:1146   */\n  0x00\n    /* \"#utility.yul\":1169:1175   */\n  dup3\n    /* \"#utility.yul\":1164:1167   */\n  dup3\n    /* \"#utility.yul\":1157:1176   */\n  mstore\n    /* \"#utility.yul\":1209:1213   */\n  0x20\n    /* \"#utility.yul\":1204:1207   */\n  dup3\n    /* \"#utility.yul\":1200:1214   */\n  add\n    /* \"#utility.yul\":1185:1214   */\n  swap1\n  pop\n    /* \"#utility.yul\":1051:1220   */\n  swap3\n  swap2\n  pop\n  pop\n  jump\t// out\n    /* \"#utility.yul\":1226:1465   */\ntag_16:\n    /* \"#utility.yul\":1366:1400   */\n  0x436f6e7472616374207265717569726573206174206c6561737420302e312065\n    /* \"#utility.yul\":1362:1363   */\n  0x00\n    /* \"#utility.yul\":1354:1360   */\n  dup3\n    /* \"#utility.yul\":1350:1364   */\n  add\n    /* \"#utility.yul\":1343:1401   */\n  mstore\n    /* \"#utility.yul\":1435:1457   */\n  0x7468657220746f206265206465706c6f7965642e000000000000000000000000\n    /* \"#utility.yul\":1430:1432   */\n  0x20\n    /* \"#utility.yul\":1422:1428   */\n  dup3\n    /* \"#utility.yul\":1418:1433   */\n  add\n    /* \"#utility.yul\":1411:1458   */\n  mstore\n    /* \"#utility.yul\":1226:1465   */\n  pop\n  jump\t// out\n    /* \"#utility.yul\":1471:1837   */\ntag_17:\n    /* \"#utility.yul\":1613:1616   */\n  0x00\n    /* \"#utility.yul\":1634:1701   */\n  tag_35\n    /* \"#utility.yul\":1698:1700   */\n  0x34\n    /* \"#utility.yul\":1693:1696   */\n  dup4\n    /* \"#utility.yul\":1634:1701   */\n  tag_15\n  jump\t// in\ntag_35:\n    /* \"#utility.yul\":1627:1701   */\n  swap2\n  pop\n    /* \"#utility.yul\":1710:1803   */\n  tag_36\n    /* \"#utility.yul\":1799:1802   */\n  dup3\n    /* \"#utility.yul\":1710:1803   */\n  tag_16\n  jump\t// in\ntag_36:\n    /* \"#utility.yul\":1828:1830   */\n  0x40\n    /* \"#utility.yul\":1823:1826   */\n  dup3\n    /* \"#utility.yul\":1819:1831   */\n  add\n    /* \"#utility.yul\":1812:1831   */\n  swap1\n  pop\n    /* \"#utility.yul\":1471:1837   */\n  swap2\n  swap1\n  pop\n  jump\t// out\n    /* \"#utility.yul\":1843:2262   */\ntag_7:\n    /* \"#utility.yul\":2009:2013   */\n  0x00\n    /* \"#utility.yul\":2047:2049   */\n  0x20\n    /* \"#utility.yul\":2036:2045   */\n  dup3\n    /* \"#utility.yul\":2032:2050   */\n  add\n    /* \"#utility.yul\":2024:2050   */\n  swap1\n  pop\n    /* \"#utility.yul\":2096:2105   */\n  dup2\n    /* \"#utility.yul\":2090:2094   */\n  dup2\n    /* \"#utility.yul\":2086:2106   */\n  sub\n    /* \"#utility.yul\":2082:2083   */\n  0x00\n    /* \"#utility.yul\":2071:2080   */\n  dup4\n    /* \"#utility.yul\":2067:2084   */\n  add\n    /* \"#utility.yul\":2060:2107   */\n  mstore\n    /* \"#utility.yul\":2124:2255   */\n  tag_38\n    /* \"#utility.yul\":2250:2254   */\n  dup2\n    /* \"#utility.yul\":2124:2255   */\n  tag_17\n  jump\t// in\ntag_38:\n    /* \"#utility.yul\":2116:2255   */\n  swap1\n  pop\n    /* \"#utility.yul\":1843:2262   */\n  swap2\n  swap1\n  pop\n  jump\t// out\n    /* \"contracts/9-Time_Stamped_Withdraw/timestamp.sol\":78:1208  contract Withdrawable {... */\ntag_8:\n  dataSize(sub_0)\n  dup1\n  dataOffset(sub_0)\n  0x00\n  codecopy\n  0x00\n  return\nstop\n\nsub_0: assembly {\n        /* \"contracts/9-Time_Stamped_Withdraw/timestamp.sol\":78:1208  contract Withdrawable {... */\n      mstore(0x40, 0x80)\n      callvalue\n      dup1\n      iszero\n      tag_1\n      jumpi\n      0x00\n      dup1\n      revert\n    tag_1:\n      pop\n      jumpi(tag_2, lt(calldatasize, 0x04))\n      shr(0xe0, calldataload(0x00))\n      dup1\n      0x12065fe0\n      eq\n      tag_3\n      jumpi\n      dup1\n      0x8da5cb5b\n      eq\n      tag_4\n      jumpi\n      dup1\n      0xa9b12c4c\n      eq\n      tag_5\n      jumpi\n      dup1\n      0xb91d4001\n      eq\n      tag_6\n      jumpi\n      dup1\n      0xf3fef3a3\n      eq\n      tag_7\n      jumpi\n    tag_2:\n      0x00\n      dup1\n      revert\n        /* \"contracts/9-Time_Stamped_Withdraw/timestamp.sol\":540:637  function getBalance() public view returns (uint256) {... */\n    tag_3:\n      tag_8\n      tag_9\n      jump\t// in\n    tag_8:\n      mload(0x40)\n      tag_10\n      swap2\n      swap1\n      tag_11\n      jump\t// in\n    tag_10:\n      mload(0x40)\n      dup1\n      swap2\n      sub\n      swap1\n      return\n        /* \"contracts/9-Time_Stamped_Withdraw/timestamp.sol\":106:134  address payable public owner */\n    tag_4:\n      tag_12\n      tag_13\n      jump\t// in\n    tag_12:\n      mload(0x40)\n      tag_14\n      swap2\n      swap1\n      tag_15\n      jump\t// in\n    tag_14:\n      mload(0x40)\n      dup1\n      swap2\n      sub\n      swap1\n      return\n        /* \"contracts/9-Time_Stamped_Withdraw/timestamp.sol\":172:214  uint256 public blocktime = block.timestamp */\n    tag_5:\n      tag_16\n      tag_17\n      jump\t// in\n    tag_16:\n      mload(0x40)\n      tag_18\n      swap2\n      swap1\n      tag_11\n      jump\t// in\n    tag_18:\n      mload(0x40)\n      dup1\n      swap2\n      sub\n      swap1\n      return\n        /* \"contracts/9-Time_Stamped_Withdraw/timestamp.sol\":140:166  uint256 public releaseTime */\n    tag_6:\n      tag_19\n      tag_20\n      jump\t// in\n    tag_19:\n      mload(0x40)\n      tag_21\n      swap2\n      swap1\n      tag_11\n      jump\t// in\n    tag_21:\n      mload(0x40)\n      dup1\n      swap2\n      sub\n      swap1\n      return\n        /* \"contracts/9-Time_Stamped_Withdraw/timestamp.sol\":643:1039  function withdraw(address payable recipient, uint256 amount) public onlyOwner... */\n    tag_7:\n      tag_22\n      0x04\n      dup1\n      calldatasize\n      sub\n      dup2\n      add\n      swap1\n      tag_23\n      swap2\n      swap1\n      tag_24\n      jump\t// in\n    tag_23:\n      tag_25\n      jump\t// in\n    tag_22:\n      stop\n        /* \"contracts/9-Time_Stamped_Withdraw/timestamp.sol\":540:637  function getBalance() public view returns (uint256) {... */\n    tag_9:\n        /* \"contracts/9-Time_Stamped_Withdraw/timestamp.sol\":583:590  uint256 */\n      0x00\n        /* \"contracts/9-Time_Stamped_Withdraw/timestamp.sol\":609:630  address(this).balance */\n      selfbalance\n        /* \"contracts/9-Time_Stamped_Withdraw/timestamp.sol\":602:630  return address(this).balance */\n      swap1\n      pop\n        /* \"contracts/9-Time_Stamped_Withdraw/timestamp.sol\":540:637  function getBalance() public view returns (uint256) {... */\n      swap1\n      jump\t// out\n        /* \"contracts/9-Time_Stamped_Withdraw/timestamp.sol\":106:134  address payable public owner */\n    tag_13:\n      0x00\n      dup1\n      sload\n      swap1\n      0x0100\n      exp\n      swap1\n      div\n      0xffffffffffffffffffffffffffffffffffffffff\n      and\n      dup2\n      jump\t// out\n        /* \"contracts/9-Time_Stamped_Withdraw/timestamp.sol\":172:214  uint256 public blocktime = block.timestamp */\n    tag_17:\n      sload(0x02)\n      dup2\n      jump\t// out\n        /* \"contracts/9-Time_Stamped_Withdraw/timestamp.sol\":140:166  uint256 public releaseTime */\n    tag_20:\n      sload(0x01)\n      dup2\n      jump\t// out\n        /* \"contracts/9-Time_Stamped_Withdraw/timestamp.sol\":643:1039  function withdraw(address payable recipient, uint256 amount) public onlyOwner... */\n    tag_25:\n        /* \"contracts/9-Time_Stamped_Withdraw/timestamp.sol\":1111:1116  owner */\n      0x00\n      dup1\n      sload\n      swap1\n      0x0100\n      exp\n      swap1\n      div\n      0xffffffffffffffffffffffffffffffffffffffff\n      and\n        /* \"contracts/9-Time_Stamped_Withdraw/timestamp.sol\":1097:1116  msg.sender == owner */\n      0xffffffffffffffffffffffffffffffffffffffff\n      and\n        /* \"contracts/9-Time_Stamped_Withdraw/timestamp.sol\":1097:1107  msg.sender */\n      caller\n        /* \"contracts/9-Time_Stamped_Withdraw/timestamp.sol\":1097:1116  msg.sender == owner */\n      0xffffffffffffffffffffffffffffffffffffffff\n      and\n      eq\n        /* \"contracts/9-Time_Stamped_Withdraw/timestamp.sol\":1076:1188  require(... */\n      tag_28\n      jumpi\n      mload(0x40)\n      0x08c379a000000000000000000000000000000000000000000000000000000000\n      dup2\n      mstore\n      0x04\n      add\n      tag_29\n      swap1\n      tag_30\n      jump\t// in\n    tag_29:\n      mload(0x40)\n      dup1\n      swap2\n      sub\n      swap1\n      revert\n    tag_28:\n        /* \"contracts/9-Time_Stamped_Withdraw/timestamp.sol\":762:773  releaseTime */\n      sload(0x01)\n        /* \"contracts/9-Time_Stamped_Withdraw/timestamp.sol\":743:758  block.timestamp */\n      timestamp\n        /* \"contracts/9-Time_Stamped_Withdraw/timestamp.sol\":743:773  block.timestamp >= releaseTime */\n      lt\n      iszero\n        /* \"contracts/9-Time_Stamped_Withdraw/timestamp.sol\":735:805  require(block.timestamp >= releaseTime, \"Withdrawals not yet allowed\") */\n      tag_32\n      jumpi\n      mload(0x40)\n      0x08c379a000000000000000000000000000000000000000000000000000000000\n      dup2\n      mstore\n      0x04\n      add\n      tag_33\n      swap1\n      tag_34\n      jump\t// in\n    tag_33:\n      mload(0x40)\n      dup1\n      swap2\n      sub\n      swap1\n      revert\n    tag_32:\n        /* \"contracts/9-Time_Stamped_Withdraw/timestamp.sol\":861:867  amount */\n      dup1\n        /* \"contracts/9-Time_Stamped_Withdraw/timestamp.sol\":836:857  address(this).balance */\n      selfbalance\n        /* \"contracts/9-Time_Stamped_Withdraw/timestamp.sol\":836:867  address(this).balance >= amount */\n      lt\n      iszero\n        /* \"contracts/9-Time_Stamped_Withdraw/timestamp.sol\":815:925  require(... */\n      tag_35\n      jumpi\n      mload(0x40)\n      0x08c379a000000000000000000000000000000000000000000000000000000000\n      dup2\n      mstore\n      0x04\n      add\n      tag_36\n      swap1\n      tag_37\n      jump\t// in\n    tag_36:\n      mload(0x40)\n      dup1\n      swap2\n      sub\n      swap1\n      revert\n    tag_35:\n        /* \"contracts/9-Time_Stamped_Withdraw/timestamp.sol\":964:965  0 */\n      0x00\n        /* \"contracts/9-Time_Stamped_Withdraw/timestamp.sol\":943:966  recipient != address(0) */\n      0xffffffffffffffffffffffffffffffffffffffff\n      and\n        /* \"contracts/9-Time_Stamped_Withdraw/timestamp.sol\":943:952  recipient */\n      dup3\n        /* \"contracts/9-Time_Stamped_Withdraw/timestamp.sol\":943:966  recipient != address(0) */\n      0xffffffffffffffffffffffffffffffffffffffff\n      and\n      sub\n        /* \"contracts/9-Time_Stamped_Withdraw/timestamp.sol\":935:996  require(recipient != address(0), \"Invalid recipient address\") */\n      tag_38\n      jumpi\n      mload(0x40)\n      0x08c379a000000000000000000000000000000000000000000000000000000000\n      dup2\n      mstore\n      0x04\n      add\n      tag_39\n      swap1\n      tag_40\n      jump\t// in\n    tag_39:\n      mload(0x40)\n      dup1\n      swap2\n      sub\n      swap1\n      revert\n    tag_38:\n        /* \"contracts/9-Time_Stamped_Withdraw/timestamp.sol\":1006:1015  recipient */\n      dup2\n        /* \"contracts/9-Time_Stamped_Withdraw/timestamp.sol\":1006:1024  recipient.transfer */\n      0xffffffffffffffffffffffffffffffffffffffff\n      and\n        /* \"contracts/9-Time_Stamped_Withdraw/timestamp.sol\":1006:1032  recipient.transfer(amount) */\n      0x08fc\n        /* \"contracts/9-Time_Stamped_Withdraw/timestamp.sol\":1025:1031  amount */\n      dup3\n        /* \"contracts/9-Time_Stamped_Withdraw/timestamp.sol\":1006:1032  recipient.transfer(amount) */\n      swap1\n      dup2\n      iszero\n      mul\n      swap1\n      mload(0x40)\n      0x00\n      mload(0x40)\n      dup1\n      dup4\n      sub\n      dup2\n      dup6\n      dup9\n      dup9\n      call\n      swap4\n      pop\n      pop\n      pop\n      pop\n      iszero\n      dup1\n      iszero\n      tag_42\n      jumpi\n      returndatasize\n      0x00\n      dup1\n      returndatacopy\n      revert(0x00, returndatasize)\n    tag_42:\n      pop\n        /* \"contracts/9-Time_Stamped_Withdraw/timestamp.sol\":643:1039  function withdraw(address payable recipient, uint256 amount) public onlyOwner... */\n      pop\n      pop\n      jump\t// out\n        /* \"#utility.yul\":7:84   */\n    tag_43:\n        /* \"#utility.yul\":44:51   */\n      0x00\n        /* \"#utility.yul\":73:78   */\n      dup2\n        /* \"#utility.yul\":62:78   */\n      swap1\n      pop\n        /* \"#utility.yul\":7:84   */\n      swap2\n      swap1\n      pop\n      jump\t// out\n        /* \"#utility.yul\":90:208   */\n    tag_44:\n        /* \"#utility.yul\":177:201   */\n      tag_67\n        /* \"#utility.yul\":195:200   */\n      dup2\n        /* \"#utility.yul\":177:201   */\n      tag_43\n      jump\t// in\n    tag_67:\n        /* \"#utility.yul\":172:175   */\n      dup3\n        /* \"#utility.yul\":165:202   */\n      mstore\n        /* \"#utility.yul\":90:208   */\n      pop\n      pop\n      jump\t// out\n        /* \"#utility.yul\":214:436   */\n    tag_11:\n        /* \"#utility.yul\":307:311   */\n      0x00\n        /* \"#utility.yul\":345:347   */\n      0x20\n        /* \"#utility.yul\":334:343   */\n      dup3\n        /* \"#utility.yul\":330:348   */\n      add\n        /* \"#utility.yul\":322:348   */\n      swap1\n      pop\n        /* \"#utility.yul\":358:429   */\n      tag_69\n        /* \"#utility.yul\":426:427   */\n      0x00\n        /* \"#utility.yul\":415:424   */\n      dup4\n        /* \"#utility.yul\":411:428   */\n      add\n        /* \"#utility.yul\":402:408   */\n      dup5\n        /* \"#utility.yul\":358:429   */\n      tag_44\n      jump\t// in\n    tag_69:\n        /* \"#utility.yul\":214:436   */\n      swap3\n      swap2\n      pop\n      pop\n      jump\t// out\n        /* \"#utility.yul\":442:568   */\n    tag_45:\n        /* \"#utility.yul\":479:486   */\n      0x00\n        /* \"#utility.yul\":519:561   */\n      0xffffffffffffffffffffffffffffffffffffffff\n        /* \"#utility.yul\":512:517   */\n      dup3\n        /* \"#utility.yul\":508:562   */\n      and\n        /* \"#utility.yul\":497:562   */\n      swap1\n      pop\n        /* \"#utility.yul\":442:568   */\n      swap2\n      swap1\n      pop\n      jump\t// out\n        /* \"#utility.yul\":574:678   */\n    tag_46:\n        /* \"#utility.yul\":619:626   */\n      0x00\n        /* \"#utility.yul\":648:672   */\n      tag_72\n        /* \"#utility.yul\":666:671   */\n      dup3\n        /* \"#utility.yul\":648:672   */\n      tag_45\n      jump\t// in\n    tag_72:\n        /* \"#utility.yul\":637:672   */\n      swap1\n      pop\n        /* \"#utility.yul\":574:678   */\n      swap2\n      swap1\n      pop\n      jump\t// out\n        /* \"#utility.yul\":684:826   */\n    tag_47:\n        /* \"#utility.yul\":787:819   */\n      tag_74\n        /* \"#utility.yul\":813:818   */\n      dup2\n        /* \"#utility.yul\":787:819   */\n      tag_46\n      jump\t// in\n    tag_74:\n        /* \"#utility.yul\":782:785   */\n      dup3\n        /* \"#utility.yul\":775:820   */\n      mstore\n        /* \"#utility.yul\":684:826   */\n      pop\n      pop\n      jump\t// out\n        /* \"#utility.yul\":832:1086   */\n    tag_15:\n        /* \"#utility.yul\":941:945   */\n      0x00\n        /* \"#utility.yul\":979:981   */\n      0x20\n        /* \"#utility.yul\":968:977   */\n      dup3\n        /* \"#utility.yul\":964:982   */\n      add\n        /* \"#utility.yul\":956:982   */\n      swap1\n      pop\n        /* \"#utility.yul\":992:1079   */\n      tag_76\n        /* \"#utility.yul\":1076:1077   */\n      0x00\n        /* \"#utility.yul\":1065:1074   */\n      dup4\n        /* \"#utility.yul\":1061:1078   */\n      add\n        /* \"#utility.yul\":1052:1058   */\n      dup5\n        /* \"#utility.yul\":992:1079   */\n      tag_47\n      jump\t// in\n    tag_76:\n        /* \"#utility.yul\":832:1086   */\n      swap3\n      swap2\n      pop\n      pop\n      jump\t// out\n        /* \"#utility.yul\":1173:1290   */\n    tag_49:\n        /* \"#utility.yul\":1282:1283   */\n      0x00\n        /* \"#utility.yul\":1279:1280   */\n      dup1\n        /* \"#utility.yul\":1272:1284   */\n      revert\n        /* \"#utility.yul\":1419:1557   */\n    tag_51:\n        /* \"#utility.yul\":1500:1532   */\n      tag_81\n        /* \"#utility.yul\":1526:1531   */\n      dup2\n        /* \"#utility.yul\":1500:1532   */\n      tag_46\n      jump\t// in\n    tag_81:\n        /* \"#utility.yul\":1493:1498   */\n      dup2\n        /* \"#utility.yul\":1490:1533   */\n      eq\n        /* \"#utility.yul\":1480:1551   */\n      tag_82\n      jumpi\n        /* \"#utility.yul\":1547:1548   */\n      0x00\n        /* \"#utility.yul\":1544:1545   */\n      dup1\n        /* \"#utility.yul\":1537:1549   */\n      revert\n        /* \"#utility.yul\":1480:1551   */\n    tag_82:\n        /* \"#utility.yul\":1419:1557   */\n      pop\n      jump\t// out\n        /* \"#utility.yul\":1563:1718   */\n    tag_52:\n        /* \"#utility.yul\":1617:1622   */\n      0x00\n        /* \"#utility.yul\":1655:1661   */\n      dup2\n        /* \"#utility.yul\":1642:1662   */\n      calldataload\n        /* \"#utility.yul\":1633:1662   */\n      swap1\n      pop\n        /* \"#utility.yul\":1671:1712   */\n      tag_84\n        /* \"#utility.yul\":1706:1711   */\n      dup2\n        /* \"#utility.yul\":1671:1712   */\n      tag_51\n      jump\t// in\n    tag_84:\n        /* \"#utility.yul\":1563:1718   */\n      swap3\n      swap2\n      pop\n      pop\n      jump\t// out\n        /* \"#utility.yul\":1724:1846   */\n    tag_53:\n        /* \"#utility.yul\":1797:1821   */\n      tag_86\n        /* \"#utility.yul\":1815:1820   */\n      dup2\n        /* \"#utility.yul\":1797:1821   */\n      tag_43\n      jump\t// in\n    tag_86:\n        /* \"#utility.yul\":1790:1795   */\n      dup2\n        /* \"#utility.yul\":1787:1822   */\n      eq\n        /* \"#utility.yul\":1777:1840   */\n      tag_87\n      jumpi\n        /* \"#utility.yul\":1836:1837   */\n      0x00\n        /* \"#utility.yul\":1833:1834   */\n      dup1\n        /* \"#utility.yul\":1826:1838   */\n      revert\n        /* \"#utility.yul\":1777:1840   */\n    tag_87:\n        /* \"#utility.yul\":1724:1846   */\n      pop\n      jump\t// out\n        /* \"#utility.yul\":1852:1991   */\n    tag_54:\n        /* \"#utility.yul\":1898:1903   */\n      0x00\n        /* \"#utility.yul\":1936:1942   */\n      dup2\n        /* \"#utility.yul\":1923:1943   */\n      calldataload\n        /* \"#utility.yul\":1914:1943   */\n      swap1\n      pop\n        /* \"#utility.yul\":1952:1985   */\n      tag_89\n        /* \"#utility.yul\":1979:1984   */\n      dup2\n        /* \"#utility.yul\":1952:1985   */\n      tag_53\n      jump\t// in\n    tag_89:\n        /* \"#utility.yul\":1852:1991   */\n      swap3\n      swap2\n      pop\n      pop\n      jump\t// out\n        /* \"#utility.yul\":1997:2487   */\n    tag_24:\n        /* \"#utility.yul\":2073:2079   */\n      0x00\n        /* \"#utility.yul\":2081:2087   */\n      dup1\n        /* \"#utility.yul\":2130:2132   */\n      0x40\n        /* \"#utility.yul\":2118:2127   */\n      dup4\n        /* \"#utility.yul\":2109:2116   */\n      dup6\n        /* \"#utility.yul\":2105:2128   */\n      sub\n        /* \"#utility.yul\":2101:2133   */\n      slt\n        /* \"#utility.yul\":2098:2217   */\n      iszero\n      tag_91\n      jumpi\n        /* \"#utility.yul\":2136:2215   */\n      tag_92\n      tag_49\n      jump\t// in\n    tag_92:\n        /* \"#utility.yul\":2098:2217   */\n    tag_91:\n        /* \"#utility.yul\":2256:2257   */\n      0x00\n        /* \"#utility.yul\":2281:2342   */\n      tag_93\n        /* \"#utility.yul\":2334:2341   */\n      dup6\n        /* \"#utility.yul\":2325:2331   */\n      dup3\n        /* \"#utility.yul\":2314:2323   */\n      dup7\n        /* \"#utility.yul\":2310:2332   */\n      add\n        /* \"#utility.yul\":2281:2342   */\n      tag_52\n      jump\t// in\n    tag_93:\n        /* \"#utility.yul\":2271:2342   */\n      swap3\n      pop\n        /* \"#utility.yul\":2227:2352   */\n      pop\n        /* \"#utility.yul\":2391:2393   */\n      0x20\n        /* \"#utility.yul\":2417:2470   */\n      tag_94\n        /* \"#utility.yul\":2462:2469   */\n      dup6\n        /* \"#utility.yul\":2453:2459   */\n      dup3\n        /* \"#utility.yul\":2442:2451   */\n      dup7\n        /* \"#utility.yul\":2438:2460   */\n      add\n        /* \"#utility.yul\":2417:2470   */\n      tag_54\n      jump\t// in\n    tag_94:\n        /* \"#utility.yul\":2407:2470   */\n      swap2\n      pop\n        /* \"#utility.yul\":2362:2480   */\n      pop\n        /* \"#utility.yul\":1997:2487   */\n      swap3\n      pop\n      swap3\n      swap1\n      pop\n      jump\t// out\n        /* \"#utility.yul\":2493:2662   */\n    tag_55:\n        /* \"#utility.yul\":2577:2588   */\n      0x00\n        /* \"#utility.yul\":2611:2617   */\n      dup3\n        /* \"#utility.yul\":2606:2609   */\n      dup3\n        /* \"#utility.yul\":2599:2618   */\n      mstore\n        /* \"#utility.yul\":2651:2655   */\n      0x20\n        /* \"#utility.yul\":2646:2649   */\n      dup3\n        /* \"#utility.yul\":2642:2656   */\n      add\n        /* \"#utility.yul\":2627:2656   */\n      swap1\n      pop\n        /* \"#utility.yul\":2493:2662   */\n      swap3\n      swap2\n      pop\n      pop\n      jump\t// out\n        /* \"#utility.yul\":2668:2901   */\n    tag_56:\n        /* \"#utility.yul\":2808:2842   */\n      0x4f6e6c792074686520636f6e7472616374206f776e65722063616e2063616c6c\n        /* \"#utility.yul\":2804:2805   */\n      0x00\n        /* \"#utility.yul\":2796:2802   */\n      dup3\n        /* \"#utility.yul\":2792:2806   */\n      add\n        /* \"#utility.yul\":2785:2843   */\n      mstore\n        /* \"#utility.yul\":2877:2893   */\n      0x20746869732066756e6374696f6e000000000000000000000000000000000000\n        /* \"#utility.yul\":2872:2874   */\n      0x20\n        /* \"#utility.yul\":2864:2870   */\n      dup3\n        /* \"#utility.yul\":2860:2875   */\n      add\n        /* \"#utility.yul\":2853:2894   */\n      mstore\n        /* \"#utility.yul\":2668:2901   */\n      pop\n      jump\t// out\n        /* \"#utility.yul\":2907:3273   */\n    tag_57:\n        /* \"#utility.yul\":3049:3052   */\n      0x00\n        /* \"#utility.yul\":3070:3137   */\n      tag_98\n        /* \"#utility.yul\":3134:3136   */\n      0x2e\n        /* \"#utility.yul\":3129:3132   */\n      dup4\n        /* \"#utility.yul\":3070:3137   */\n      tag_55\n      jump\t// in\n    tag_98:\n        /* \"#utility.yul\":3063:3137   */\n      swap2\n      pop\n        /* \"#utility.yul\":3146:3239   */\n      tag_99\n        /* \"#utility.yul\":3235:3238   */\n      dup3\n        /* \"#utility.yul\":3146:3239   */\n      tag_56\n      jump\t// in\n    tag_99:\n        /* \"#utility.yul\":3264:3266   */\n      0x40\n        /* \"#utility.yul\":3259:3262   */\n      dup3\n        /* \"#utility.yul\":3255:3267   */\n      add\n        /* \"#utility.yul\":3248:3267   */\n      swap1\n      pop\n        /* \"#utility.yul\":2907:3273   */\n      swap2\n      swap1\n      pop\n      jump\t// out\n        /* \"#utility.yul\":3279:3698   */\n    tag_30:\n        /* \"#utility.yul\":3445:3449   */\n      0x00\n        /* \"#utility.yul\":3483:3485   */\n      0x20\n        /* \"#utility.yul\":3472:3481   */\n      dup3\n        /* \"#utility.yul\":3468:3486   */\n      add\n        /* \"#utility.yul\":3460:3486   */\n      swap1\n      pop\n        /* \"#utility.yul\":3532:3541   */\n      dup2\n        /* \"#utility.yul\":3526:3530   */\n      dup2\n        /* \"#utility.yul\":3522:3542   */\n      sub\n        /* \"#utility.yul\":3518:3519   */\n      0x00\n        /* \"#utility.yul\":3507:3516   */\n      dup4\n        /* \"#utility.yul\":3503:3520   */\n      add\n        /* \"#utility.yul\":3496:3543   */\n      mstore\n        /* \"#utility.yul\":3560:3691   */\n      tag_101\n        /* \"#utility.yul\":3686:3690   */\n      dup2\n        /* \"#utility.yul\":3560:3691   */\n      tag_57\n      jump\t// in\n    tag_101:\n        /* \"#utility.yul\":3552:3691   */\n      swap1\n      pop\n        /* \"#utility.yul\":3279:3698   */\n      swap2\n      swap1\n      pop\n      jump\t// out\n        /* \"#utility.yul\":3704:3881   */\n    tag_58:\n        /* \"#utility.yul\":3844:3873   */\n      0x5769746864726177616c73206e6f742079657420616c6c6f7765640000000000\n        /* \"#utility.yul\":3840:3841   */\n      0x00\n        /* \"#utility.yul\":3832:3838   */\n      dup3\n        /* \"#utility.yul\":3828:3842   */\n      add\n        /* \"#utility.yul\":3821:3874   */\n      mstore\n        /* \"#utility.yul\":3704:3881   */\n      pop\n      jump\t// out\n        /* \"#utility.yul\":3887:4253   */\n    tag_59:\n        /* \"#utility.yul\":4029:4032   */\n      0x00\n        /* \"#utility.yul\":4050:4117   */\n      tag_104\n        /* \"#utility.yul\":4114:4116   */\n      0x1b\n        /* \"#utility.yul\":4109:4112   */\n      dup4\n        /* \"#utility.yul\":4050:4117   */\n      tag_55\n      jump\t// in\n    tag_104:\n        /* \"#utility.yul\":4043:4117   */\n      swap2\n      pop\n        /* \"#utility.yul\":4126:4219   */\n      tag_105\n        /* \"#utility.yul\":4215:4218   */\n      dup3\n        /* \"#utility.yul\":4126:4219   */\n      tag_58\n      jump\t// in\n    tag_105:\n        /* \"#utility.yul\":4244:4246   */\n      0x20\n        /* \"#utility.yul\":4239:4242   */\n      dup3\n        /* \"#utility.yul\":4235:4247   */\n      add\n        /* \"#utility.yul\":4228:4247   */\n      swap1\n      pop\n        /* \"#utility.yul\":3887:4253   */\n      swap2\n      swap1\n      pop\n      jump\t// out\n        /* \"#utility.yul\":4259:4678   */\n    tag_34:\n        /* \"#utility.yul\":4425:4429   */\n      0x00\n        /* \"#utility.yul\":4463:4465   */\n      0x20\n        /* \"#utility.yul\":4452:4461   */\n      dup3\n        /* \"#utility.yul\":4448:4466   */\n      add\n        /* \"#utility.yul\":4440:4466   */\n      swap1\n      pop\n        /* \"#utility.yul\":4512:4521   */\n      dup2\n        /* \"#utility.yul\":4506:4510   */\n      dup2\n        /* \"#utility.yul\":4502:4522   */\n      sub\n        /* \"#utility.yul\":4498:4499   */\n      0x00\n        /* \"#utility.yul\":4487:4496   */\n      dup4\n        /* \"#utility.yul\":4483:4500   */\n      add\n        /* \"#utility.yul\":4476:4523   */\n      mstore\n        /* \"#utility.yul\":4540:4671   */\n      tag_107\n        /* \"#utility.yul\":4666:4670   */\n      dup2\n        /* \"#utility.yul\":4540:4671   */\n      tag_59\n      jump\t// in\n    tag_107:\n        /* \"#utility.yul\":4532:4671   */\n      swap1\n      pop\n        /* \"#utility.yul\":4259:4678   */\n      swap2\n      swap1\n      pop\n      jump\t// out\n        /* \"#utility.yul\":4684:4866   */\n    tag_60:\n        /* \"#utility.yul\":4824:4858   */\n      0x4e6f7420656e6f7567682066756e647320696e2074686520636f6e7472616374\n        /* \"#utility.yul\":4820:4821   */\n      0x00\n        /* \"#utility.yul\":4812:4818   */\n      dup3\n        /* \"#utility.yul\":4808:4822   */\n      add\n        /* \"#utility.yul\":4801:4859   */\n      mstore\n        /* \"#utility.yul\":4684:4866   */\n      pop\n      jump\t// out\n        /* \"#utility.yul\":4872:5238   */\n    tag_61:\n        /* \"#utility.yul\":5014:5017   */\n      0x00\n        /* \"#utility.yul\":5035:5102   */\n      tag_110\n        /* \"#utility.yul\":5099:5101   */\n      0x20\n        /* \"#utility.yul\":5094:5097   */\n      dup4\n        /* \"#utility.yul\":5035:5102   */\n      tag_55\n      jump\t// in\n    tag_110:\n        /* \"#utility.yul\":5028:5102   */\n      swap2\n      pop\n        /* \"#utility.yul\":5111:5204   */\n      tag_111\n        /* \"#utility.yul\":5200:5203   */\n      dup3\n        /* \"#utility.yul\":5111:5204   */\n      tag_60\n      jump\t// in\n    tag_111:\n        /* \"#utility.yul\":5229:5231   */\n      0x20\n        /* \"#utility.yul\":5224:5227   */\n      dup3\n        /* \"#utility.yul\":5220:5232   */\n      add\n        /* \"#utility.yul\":5213:5232   */\n      swap1\n      pop\n        /* \"#utility.yul\":4872:5238   */\n      swap2\n      swap1\n      pop\n      jump\t// out\n        /* \"#utility.yul\":5244:5663   */\n    tag_37:\n        /* \"#utility.yul\":5410:5414   */\n      0x00\n        /* \"#utility.yul\":5448:5450   */\n      0x20\n        /* \"#utility.yul\":5437:5446   */\n      dup3\n        /* \"#utility.yul\":5433:5451   */\n      add\n        /* \"#utility.yul\":5425:5451   */\n      swap1\n      pop\n        /* \"#utility.yul\":5497:5506   */\n      dup2\n        /* \"#utility.yul\":5491:5495   */\n      dup2\n        /* \"#utility.yul\":5487:5507   */\n      sub\n        /* \"#utility.yul\":5483:5484   */\n      0x00\n        /* \"#utility.yul\":5472:5481   */\n      dup4\n        /* \"#utility.yul\":5468:5485   */\n      add\n        /* \"#utility.yul\":5461:5508   */\n      mstore\n        /* \"#utility.yul\":5525:5656   */\n      tag_113\n        /* \"#utility.yul\":5651:5655   */\n      dup2\n        /* \"#utility.yul\":5525:5656   */\n      tag_61\n      jump\t// in\n    tag_113:\n        /* \"#utility.yul\":5517:5656   */\n      swap1\n      pop\n        /* \"#utility.yul\":5244:5663   */\n      swap2\n      swap1\n      pop\n      jump\t// out\n        /* \"#utility.yul\":5669:5844   */\n    tag_62:\n        /* \"#utility.yul\":5809:5836   */\n      0x496e76616c696420726563697069656e74206164647265737300000000000000\n        /* \"#utility.yul\":5805:5806   */\n      0x00\n        /* \"#utility.yul\":5797:5803   */\n      dup3\n        /* \"#utility.yul\":5793:5807   */\n      add\n        /* \"#utility.yul\":5786:5837   */\n      mstore\n        /* \"#utility.yul\":5669:5844   */\n      pop\n      jump\t// out\n        /* \"#utility.yul\":5850:6216   */\n    tag_63:\n        /* \"#utility.yul\":5992:5995   */\n      0x00\n        /* \"#utility.yul\":6013:6080   */\n      tag_116\n        /* \"#utility.yul\":6077:6079   */\n      0x19\n        /* \"#utility.yul\":6072:6075   */\n      dup4\n        /* \"#utility.yul\":6013:6080   */\n      tag_55\n      jump\t// in\n    tag_116:\n        /* \"#utility.yul\":6006:6080   */\n      swap2\n      pop\n        /* \"#utility.yul\":6089:6182   */\n      tag_117\n        /* \"#utility.yul\":6178:6181   */\n      dup3\n        /* \"#utility.yul\":6089:6182   */\n      tag_62\n      jump\t// in\n    tag_117:\n        /* \"#utility.yul\":6207:6209   */\n      0x20\n        /* \"#utility.yul\":6202:6205   */\n      dup3\n        /* \"#utility.yul\":6198:6210   */\n      add\n        /* \"#utility.yul\":6191:6210   */\n      swap1\n      pop\n        /* \"#utility.yul\":5850:6216   */\n      swap2\n      swap1\n      pop\n      jump\t// out\n        /* \"#utility.yul\":6222:6641   */\n    tag_40:\n        /* \"#utility.yul\":6388:6392   */\n      0x00\n        /* \"#utility.yul\":6426:6428   */\n      0x20\n        /* \"#utility.yul\":6415:6424   */\n      dup3\n        /* \"#utility.yul\":6411:6429   */\n      add\n        /* \"#utility.yul\":6403:6429   */\n      swap1\n      pop\n        /* \"#utility.yul\":6475:6484   */\n      dup2\n        /* \"#utility.yul\":6469:6473   */\n      dup2\n        /* \"#utility.yul\":6465:6485   */\n      sub\n        /* \"#utility.yul\":6461:6462   */\n      0x00\n        /* \"#utility.yul\":6450:6459   */\n      dup4\n        /* \"#utility.yul\":6446:6463   */\n      add\n        /* \"#utility.yul\":6439:6486   */\n      mstore\n        /* \"#utility.yul\":6503:6634   */\n      tag_119\n        /* \"#utility.yul\":6629:6633   */\n      dup2\n        /* \"#utility.yul\":6503:6634   */\n      tag_63\n      jump\t// in\n    tag_119:\n        /* \"#utility.yul\":6495:6634   */\n      swap1\n      pop\n        /* \"#utility.yul\":6222:6641   */\n      swap2\n      swap1\n      pop\n      jump\t// out\n\n    auxdata: 0xa2646970667358221220721fcf02ff1465d82ca7a29155add32123f70cfe99c0d83585fc9ad9e0d8600964736f6c63430008120033\n}\n",
				"bytecode": {
					"linkReferences": {},
					"object": "60806040524260025560405161081d38038061081d833981810160405281019061002991906100fc565b67016345785d8a0000341015610074576040517f08c379a000000000000000000000000000000000000000000000000000000000815260040161006b906101ac565b60405180910390fd5b336000806101000a81548173ffffffffffffffffffffffffffffffffffffffff021916908373ffffffffffffffffffffffffffffffffffffffff16021790555080600181905550506101cc565b600080fd5b6000819050919050565b6100d9816100c6565b81146100e457600080fd5b50565b6000815190506100f6816100d0565b92915050565b600060208284031215610112576101116100c1565b5b6000610120848285016100e7565b91505092915050565b600082825260208201905092915050565b7f436f6e7472616374207265717569726573206174206c6561737420302e31206560008201527f7468657220746f206265206465706c6f7965642e000000000000000000000000602082015250565b6000610196603483610129565b91506101a18261013a565b604082019050919050565b600060208201905081810360008301526101c581610189565b9050919050565b610642806101db6000396000f3fe608060405234801561001057600080fd5b50600436106100575760003560e01c806312065fe01461005c5780638da5cb5b1461007a578063a9b12c4c14610098578063b91d4001146100b6578063f3fef3a3146100d4575b600080fd5b6100646100f0565b6040516100719190610311565b60405180910390f35b6100826100f8565b60405161008f919061036d565b60405180910390f35b6100a061011c565b6040516100ad9190610311565b60405180910390f35b6100be610122565b6040516100cb9190610311565b60405180910390f35b6100ee60048036038101906100e991906103e5565b610128565b005b600047905090565b60008054906101000a900473ffffffffffffffffffffffffffffffffffffffff1681565b60025481565b60015481565b60008054906101000a900473ffffffffffffffffffffffffffffffffffffffff1673ffffffffffffffffffffffffffffffffffffffff163373ffffffffffffffffffffffffffffffffffffffff16146101b6576040517f08c379a00000000000000000000000000000000000000000000000000000000081526004016101ad906104a8565b60405180910390fd5b6001544210156101fb576040517f08c379a00000000000000000000000000000000000000000000000000000000081526004016101f290610514565b60405180910390fd5b8047101561023e576040517f08c379a000000000000000000000000000000000000000000000000000000000815260040161023590610580565b60405180910390fd5b600073ffffffffffffffffffffffffffffffffffffffff168273ffffffffffffffffffffffffffffffffffffffff16036102ad576040517f08c379a00000000000000000000000000000000000000000000000000000000081526004016102a4906105ec565b60405180910390fd5b8173ffffffffffffffffffffffffffffffffffffffff166108fc829081150290604051600060405180830381858888f193505050501580156102f3573d6000803e3d6000fd5b505050565b6000819050919050565b61030b816102f8565b82525050565b60006020820190506103266000830184610302565b92915050565b600073ffffffffffffffffffffffffffffffffffffffff82169050919050565b60006103578261032c565b9050919050565b6103678161034c565b82525050565b6000602082019050610382600083018461035e565b92915050565b600080fd5b6103968161034c565b81146103a157600080fd5b50565b6000813590506103b38161038d565b92915050565b6103c2816102f8565b81146103cd57600080fd5b50565b6000813590506103df816103b9565b92915050565b600080604083850312156103fc576103fb610388565b5b600061040a858286016103a4565b925050602061041b858286016103d0565b9150509250929050565b600082825260208201905092915050565b7f4f6e6c792074686520636f6e7472616374206f776e65722063616e2063616c6c60008201527f20746869732066756e6374696f6e000000000000000000000000000000000000602082015250565b6000610492602e83610425565b915061049d82610436565b604082019050919050565b600060208201905081810360008301526104c181610485565b9050919050565b7f5769746864726177616c73206e6f742079657420616c6c6f7765640000000000600082015250565b60006104fe601b83610425565b9150610509826104c8565b602082019050919050565b6000602082019050818103600083015261052d816104f1565b9050919050565b7f4e6f7420656e6f7567682066756e647320696e2074686520636f6e7472616374600082015250565b600061056a602083610425565b915061057582610534565b602082019050919050565b600060208201905081810360008301526105998161055d565b9050919050565b7f496e76616c696420726563697069656e74206164647265737300000000000000600082015250565b60006105d6601983610425565b91506105e1826105a0565b602082019050919050565b60006020820190508181036000830152610605816105c9565b905091905056fea2646970667358221220721fcf02ff1465d82ca7a29155add32123f70cfe99c0d83585fc9ad9e0d8600964736f6c63430008120033",
					"opcodes": "PUSH1 0x80 PUSH1 0x40 MSTORE TIMESTAMP PUSH1 0x2 SSTORE PUSH1 0x40 MLOAD PUSH2 0x81D CODESIZE SUB DUP1 PUSH2 0x81D DUP4 CODECOPY DUP2 DUP2 ADD PUSH1 0x40 MSTORE DUP2 ADD SWAP1 PUSH2 0x29 SWAP2 SWAP1 PUSH2 0xFC JUMP JUMPDEST PUSH8 0x16345785D8A0000 CALLVALUE LT ISZERO PUSH2 0x74 JUMPI PUSH1 0x40 MLOAD PUSH32 0x8C379A000000000000000000000000000000000000000000000000000000000 DUP2 MSTORE PUSH1 0x4 ADD PUSH2 0x6B SWAP1 PUSH2 0x1AC JUMP JUMPDEST PUSH1 0x40 MLOAD DUP1 SWAP2 SUB SWAP1 REVERT JUMPDEST CALLER PUSH1 0x0 DUP1 PUSH2 0x100 EXP DUP2 SLOAD DUP2 PUSH20 0xFFFFFFFFFFFFFFFFFFFFFFFFFFFFFFFFFFFFFFFF MUL NOT AND SWAP1 DUP4 PUSH20 0xFFFFFFFFFFFFFFFFFFFFFFFFFFFFFFFFFFFFFFFF AND MUL OR SWAP1 SSTORE POP DUP1 PUSH1 0x1 DUP2 SWAP1 SSTORE POP POP PUSH2 0x1CC JUMP JUMPDEST PUSH1 0x0 DUP1 REVERT JUMPDEST PUSH1 0x0 DUP2 SWAP1 POP SWAP2 SWAP1 POP JUMP JUMPDEST PUSH2 0xD9 DUP2 PUSH2 0xC6 JUMP JUMPDEST DUP2 EQ PUSH2 0xE4 JUMPI PUSH1 0x0 DUP1 REVERT JUMPDEST POP JUMP JUMPDEST PUSH1 0x0 DUP2 MLOAD SWAP1 POP PUSH2 0xF6 DUP2 PUSH2 0xD0 JUMP JUMPDEST SWAP3 SWAP2 POP POP JUMP JUMPDEST PUSH1 0x0 PUSH1 0x20 DUP3 DUP5 SUB SLT ISZERO PUSH2 0x112 JUMPI PUSH2 0x111 PUSH2 0xC1 JUMP JUMPDEST JUMPDEST PUSH1 0x0 PUSH2 0x120 DUP5 DUP3 DUP6 ADD PUSH2 0xE7 JUMP JUMPDEST SWAP2 POP POP SWAP3 SWAP2 POP POP JUMP JUMPDEST PUSH1 0x0 DUP3 DUP3 MSTORE PUSH1 0x20 DUP3 ADD SWAP1 POP SWAP3 SWAP2 POP POP JUMP JUMPDEST PUSH32 0x436F6E7472616374207265717569726573206174206C6561737420302E312065 PUSH1 0x0 DUP3 ADD MSTORE PUSH32 0x7468657220746F206265206465706C6F7965642E000000000000000000000000 PUSH1 0x20 DUP3 ADD MSTORE POP JUMP JUMPDEST PUSH1 0x0 PUSH2 0x196 PUSH1 0x34 DUP4 PUSH2 0x129 JUMP JUMPDEST SWAP2 POP PUSH2 0x1A1 DUP3 PUSH2 0x13A JUMP JUMPDEST PUSH1 0x40 DUP3 ADD SWAP1 POP SWAP2 SWAP1 POP JUMP JUMPDEST PUSH1 0x0 PUSH1 0x20 DUP3 ADD SWAP1 POP DUP2 DUP2 SUB PUSH1 0x0 DUP4 ADD MSTORE PUSH2 0x1C5 DUP2 PUSH2 0x189 JUMP JUMPDEST SWAP1 POP SWAP2 SWAP1 POP JUMP JUMPDEST PUSH2 0x642 DUP1 PUSH2 0x1DB PUSH1 0x0 CODECOPY PUSH1 0x0 RETURN INVALID PUSH1 0x80 PUSH1 0x40 MSTORE CALLVALUE DUP1 ISZERO PUSH2 0x10 JUMPI PUSH1 0x0 DUP1 REVERT JUMPDEST POP PUSH1 0x4 CALLDATASIZE LT PUSH2 0x57 JUMPI PUSH1 0x0 CALLDATALOAD PUSH1 0xE0 SHR DUP1 PUSH4 0x12065FE0 EQ PUSH2 0x5C JUMPI DUP1 PUSH4 0x8DA5CB5B EQ PUSH2 0x7A JUMPI DUP1 PUSH4 0xA9B12C4C EQ PUSH2 0x98 JUMPI DUP1 PUSH4 0xB91D4001 EQ PUSH2 0xB6 JUMPI DUP1 PUSH4 0xF3FEF3A3 EQ PUSH2 0xD4 JUMPI JUMPDEST PUSH1 0x0 DUP1 REVERT JUMPDEST PUSH2 0x64 PUSH2 0xF0 JUMP JUMPDEST PUSH1 0x40 MLOAD PUSH2 0x71 SWAP2 SWAP1 PUSH2 0x311 JUMP JUMPDEST PUSH1 0x40 MLOAD DUP1 SWAP2 SUB SWAP1 RETURN JUMPDEST PUSH2 0x82 PUSH2 0xF8 JUMP JUMPDEST PUSH1 0x40 MLOAD PUSH2 0x8F SWAP2 SWAP1 PUSH2 0x36D JUMP JUMPDEST PUSH1 0x40 MLOAD DUP1 SWAP2 SUB SWAP1 RETURN JUMPDEST PUSH2 0xA0 PUSH2 0x11C JUMP JUMPDEST PUSH1 0x40 MLOAD PUSH2 0xAD SWAP2 SWAP1 PUSH2 0x311 JUMP JUMPDEST PUSH1 0x40 MLOAD DUP1 SWAP2 SUB SWAP1 RETURN JUMPDEST PUSH2 0xBE PUSH2 0x122 JUMP JUMPDEST PUSH1 0x40 MLOAD PUSH2 0xCB SWAP2 SWAP1 PUSH2 0x311 JUMP JUMPDEST PUSH1 0x40 MLOAD DUP1 SWAP2 SUB SWAP1 RETURN JUMPDEST PUSH2 0xEE PUSH1 0x4 DUP1 CALLDATASIZE SUB DUP2 ADD SWAP1 PUSH2 0xE9 SWAP2 SWAP1 PUSH2 0x3E5 JUMP JUMPDEST PUSH2 0x128 JUMP JUMPDEST STOP JUMPDEST PUSH1 0x0 SELFBALANCE SWAP1 POP SWAP1 JUMP JUMPDEST PUSH1 0x0 DUP1 SLOAD SWAP1 PUSH2 0x100 EXP SWAP1 DIV PUSH20 0xFFFFFFFFFFFFFFFFFFFFFFFFFFFFFFFFFFFFFFFF AND DUP2 JUMP JUMPDEST PUSH1 0x2 SLOAD DUP2 JUMP JUMPDEST PUSH1 0x1 SLOAD DUP2 JUMP JUMPDEST PUSH1 0x0 DUP1 SLOAD SWAP1 PUSH2 0x100 EXP SWAP1 DIV PUSH20 0xFFFFFFFFFFFFFFFFFFFFFFFFFFFFFFFFFFFFFFFF AND PUSH20 0xFFFFFFFFFFFFFFFFFFFFFFFFFFFFFFFFFFFFFFFF AND CALLER PUSH20 0xFFFFFFFFFFFFFFFFFFFFFFFFFFFFFFFFFFFFFFFF AND EQ PUSH2 0x1B6 JUMPI PUSH1 0x40 MLOAD PUSH32 0x8C379A000000000000000000000000000000000000000000000000000000000 DUP2 MSTORE PUSH1 0x4 ADD PUSH2 0x1AD SWAP1 PUSH2 0x4A8 JUMP JUMPDEST PUSH1 0x40 MLOAD DUP1 SWAP2 SUB SWAP1 REVERT JUMPDEST PUSH1 0x1 SLOAD TIMESTAMP LT ISZERO PUSH2 0x1FB JUMPI PUSH1 0x40 MLOAD PUSH32 0x8C379A000000000000000000000000000000000000000000000000000000000 DUP2 MSTORE PUSH1 0x4 ADD PUSH2 0x1F2 SWAP1 PUSH2 0x514 JUMP JUMPDEST PUSH1 0x40 MLOAD DUP1 SWAP2 SUB SWAP1 REVERT JUMPDEST DUP1 SELFBALANCE LT ISZERO PUSH2 0x23E JUMPI PUSH1 0x40 MLOAD PUSH32 0x8C379A000000000000000000000000000000000000000000000000000000000 DUP2 MSTORE PUSH1 0x4 ADD PUSH2 0x235 SWAP1 PUSH2 0x580 JUMP JUMPDEST PUSH1 0x40 MLOAD DUP1 SWAP2 SUB SWAP1 REVERT JUMPDEST PUSH1 0x0 PUSH20 0xFFFFFFFFFFFFFFFFFFFFFFFFFFFFFFFFFFFFFFFF AND DUP3 PUSH20 0xFFFFFFFFFFFFFFFFFFFFFFFFFFFFFFFFFFFFFFFF AND SUB PUSH2 0x2AD JUMPI PUSH1 0x40 MLOAD PUSH32 0x8C379A000000000000000000000000000000000000000000000000000000000 DUP2 MSTORE PUSH1 0x4 ADD PUSH2 0x2A4 SWAP1 PUSH2 0x5EC JUMP JUMPDEST PUSH1 0x40 MLOAD DUP1 SWAP2 SUB SWAP1 REVERT JUMPDEST DUP2 PUSH20 0xFFFFFFFFFFFFFFFFFFFFFFFFFFFFFFFFFFFFFFFF AND PUSH2 0x8FC DUP3 SWAP1 DUP2 ISZERO MUL SWAP1 PUSH1 0x40 MLOAD PUSH1 0x0 PUSH1 0x40 MLOAD DUP1 DUP4 SUB DUP2 DUP6 DUP9 DUP9 CALL SWAP4 POP POP POP POP ISZERO DUP1 ISZERO PUSH2 0x2F3 JUMPI RETURNDATASIZE PUSH1 0x0 DUP1 RETURNDATACOPY RETURNDATASIZE PUSH1 0x0 REVERT JUMPDEST POP POP POP JUMP JUMPDEST PUSH1 0x0 DUP2 SWAP1 POP SWAP2 SWAP1 POP JUMP JUMPDEST PUSH2 0x30B DUP2 PUSH2 0x2F8 JUMP JUMPDEST DUP3 MSTORE POP POP JUMP JUMPDEST PUSH1 0x0 PUSH1 0x20 DUP3 ADD SWAP1 POP PUSH2 0x326 PUSH1 0x0 DUP4 ADD DUP5 PUSH2 0x302 JUMP JUMPDEST SWAP3 SWAP2 POP POP JUMP JUMPDEST PUSH1 0x0 PUSH20 0xFFFFFFFFFFFFFFFFFFFFFFFFFFFFFFFFFFFFFFFF DUP3 AND SWAP1 POP SWAP2 SWAP1 POP JUMP JUMPDEST PUSH1 0x0 PUSH2 0x357 DUP3 PUSH2 0x32C JUMP JUMPDEST SWAP1 POP SWAP2 SWAP1 POP JUMP JUMPDEST PUSH2 0x367 DUP2 PUSH2 0x34C JUMP JUMPDEST DUP3 MSTORE POP POP JUMP JUMPDEST PUSH1 0x0 PUSH1 0x20 DUP3 ADD SWAP1 POP PUSH2 0x382 PUSH1 0x0 DUP4 ADD DUP5 PUSH2 0x35E JUMP JUMPDEST SWAP3 SWAP2 POP POP JUMP JUMPDEST PUSH1 0x0 DUP1 REVERT JUMPDEST PUSH2 0x396 DUP2 PUSH2 0x34C JUMP JUMPDEST DUP2 EQ PUSH2 0x3A1 JUMPI PUSH1 0x0 DUP1 REVERT JUMPDEST POP JUMP JUMPDEST PUSH1 0x0 DUP2 CALLDATALOAD SWAP1 POP PUSH2 0x3B3 DUP2 PUSH2 0x38D JUMP JUMPDEST SWAP3 SWAP2 POP POP JUMP JUMPDEST PUSH2 0x3C2 DUP2 PUSH2 0x2F8 JUMP JUMPDEST DUP2 EQ PUSH2 0x3CD JUMPI PUSH1 0x0 DUP1 REVERT JUMPDEST POP JUMP JUMPDEST PUSH1 0x0 DUP2 CALLDATALOAD SWAP1 POP PUSH2 0x3DF DUP2 PUSH2 0x3B9 JUMP JUMPDEST SWAP3 SWAP2 POP POP JUMP JUMPDEST PUSH1 0x0 DUP1 PUSH1 0x40 DUP4 DUP6 SUB SLT ISZERO PUSH2 0x3FC JUMPI PUSH2 0x3FB PUSH2 0x388 JUMP JUMPDEST JUMPDEST PUSH1 0x0 PUSH2 0x40A DUP6 DUP3 DUP7 ADD PUSH2 0x3A4 JUMP JUMPDEST SWAP3 POP POP PUSH1 0x20 PUSH2 0x41B DUP6 DUP3 DUP7 ADD PUSH2 0x3D0 JUMP JUMPDEST SWAP2 POP POP SWAP3 POP SWAP3 SWAP1 POP JUMP JUMPDEST PUSH1 0x0 DUP3 DUP3 MSTORE PUSH1 0x20 DUP3 ADD SWAP1 POP SWAP3 SWAP2 POP POP JUMP JUMPDEST PUSH32 0x4F6E6C792074686520636F6E7472616374206F776E65722063616E2063616C6C PUSH1 0x0 DUP3 ADD MSTORE PUSH32 0x20746869732066756E6374696F6E000000000000000000000000000000000000 PUSH1 0x20 DUP3 ADD MSTORE POP JUMP JUMPDEST PUSH1 0x0 PUSH2 0x492 PUSH1 0x2E DUP4 PUSH2 0x425 JUMP JUMPDEST SWAP2 POP PUSH2 0x49D DUP3 PUSH2 0x436 JUMP JUMPDEST PUSH1 0x40 DUP3 ADD SWAP1 POP SWAP2 SWAP1 POP JUMP JUMPDEST PUSH1 0x0 PUSH1 0x20 DUP3 ADD SWAP1 POP DUP2 DUP2 SUB PUSH1 0x0 DUP4 ADD MSTORE PUSH2 0x4C1 DUP2 PUSH2 0x485 JUMP JUMPDEST SWAP1 POP SWAP2 SWAP1 POP JUMP JUMPDEST PUSH32 0x5769746864726177616C73206E6F742079657420616C6C6F7765640000000000 PUSH1 0x0 DUP3 ADD MSTORE POP JUMP JUMPDEST PUSH1 0x0 PUSH2 0x4FE PUSH1 0x1B DUP4 PUSH2 0x425 JUMP JUMPDEST SWAP2 POP PUSH2 0x509 DUP3 PUSH2 0x4C8 JUMP JUMPDEST PUSH1 0x20 DUP3 ADD SWAP1 POP SWAP2 SWAP1 POP JUMP JUMPDEST PUSH1 0x0 PUSH1 0x20 DUP3 ADD SWAP1 POP DUP2 DUP2 SUB PUSH1 0x0 DUP4 ADD MSTORE PUSH2 0x52D DUP2 PUSH2 0x4F1 JUMP JUMPDEST SWAP1 POP SWAP2 SWAP1 POP JUMP JUMPDEST PUSH32 0x4E6F7420656E6F7567682066756E647320696E2074686520636F6E7472616374 PUSH1 0x0 DUP3 ADD MSTORE POP JUMP JUMPDEST PUSH1 0x0 PUSH2 0x56A PUSH1 0x20 DUP4 PUSH2 0x425 JUMP JUMPDEST SWAP2 POP PUSH2 0x575 DUP3 PUSH2 0x534 JUMP JUMPDEST PUSH1 0x20 DUP3 ADD SWAP1 POP SWAP2 SWAP1 POP JUMP JUMPDEST PUSH1 0x0 PUSH1 0x20 DUP3 ADD SWAP1 POP DUP2 DUP2 SUB PUSH1 0x0 DUP4 ADD MSTORE PUSH2 0x599 DUP2 PUSH2 0x55D JUMP JUMPDEST SWAP1 POP SWAP2 SWAP1 POP JUMP JUMPDEST PUSH32 0x496E76616C696420726563697069656E74206164647265737300000000000000 PUSH1 0x0 DUP3 ADD MSTORE POP JUMP JUMPDEST PUSH1 0x0 PUSH2 0x5D6 PUSH1 0x19 DUP4 PUSH2 0x425 JUMP JUMPDEST SWAP2 POP PUSH2 0x5E1 DUP3 PUSH2 0x5A0 JUMP JUMPDEST PUSH1 0x20 DUP3 ADD SWAP1 POP SWAP2 SWAP1 POP JUMP JUMPDEST PUSH1 0x0 PUSH1 0x20 DUP3 ADD SWAP1 POP DUP2 DUP2 SUB PUSH1 0x0 DUP4 ADD MSTORE PUSH2 0x605 DUP2 PUSH2 0x5C9 JUMP JUMPDEST SWAP1 POP SWAP2 SWAP1 POP JUMP INVALID LOG2 PUSH5 0x6970667358 0x22 SLT KECCAK256 PUSH19 0x1FCF02FF1465D82CA7A29155ADD32123F70CFE SWAP10 0xC0 0xD8 CALLDATALOAD DUP6 0xFC SWAP11 0xD9 0xE0 0xD8 PUSH1 0x9 PUSH5 0x736F6C6343 STOP ADDMOD SLT STOP CALLER "
				},
				"gasEstimates": {
					"creation": {
						"codeDepositCost": "320400",
						"executionCost": "infinite",
						"totalCost": "infinite"
					},
					"external": {
						"blocktime()": "2451",
						"getBalance()": "317",
						"owner()": "2511",
						"releaseTime()": "2473",
						"withdraw(address,uint256)": "infinite"
					}
				},
				"methodIdentifiers": {
					"blocktime()": "a9b12c4c",
					"getBalance()": "12065fe0",
					"owner()": "8da5cb5b",
					"releaseTime()": "b91d4001",
					"withdraw(address,uint256)": "f3fef3a3"
				}
			},
			"storageLayout": {
				"storage": [
					{
						"astId": 3,
						"contract": "contracts/9-Time_Stamped_Withdraw/timestamp.sol:Withdrawable",
						"label": "owner",
						"offset": 0,
						"slot": "0",
						"type": "t_address_payable"
					},
					{
						"astId": 5,
						"contract": "contracts/9-Time_Stamped_Withdraw/timestamp.sol:Withdrawable",
						"label": "releaseTime",
						"offset": 0,
						"slot": "1",
						"type": "t_uint256"
					},
					{
						"astId": 9,
						"contract": "contracts/9-Time_Stamped_Withdraw/timestamp.sol:Withdrawable",
						"label": "blocktime",
						"offset": 0,
						"slot": "2",
						"type": "t_uint256"
					}
				],
				"types": {
					"t_address_payable": {
						"encoding": "inplace",
						"label": "address payable",
						"numberOfBytes": "20"
					},
					"t_uint256": {
						"encoding": "inplace",
						"label": "uint256",
						"numberOfBytes": "32"
					}
				}
			},
			"userdoc": {
				"kind": "user",
				"methods": {},
				"version": 1
			}
		}
	}
}