{
	"contracts/15-D_Identity/d_identity.sol": {
		"DID": {
			"abi": [
				{
					"anonymous": false,
					"inputs": [
						{
							"indexed": true,
							"internalType": "uint256",
							"name": "cnic_",
							"type": "uint256"
						},
						{
							"indexed": true,
							"internalType": "address",
							"name": "owner",
							"type": "address"
						},
						{
							"indexed": false,
							"internalType": "string",
							"name": "Name",
							"type": "string"
						},
						{
							"indexed": false,
							"internalType": "string",
							"name": "Email",
							"type": "string"
						}
					],
					"name": "IdCreated",
					"type": "event"
				},
				{
					"anonymous": false,
					"inputs": [
						{
							"indexed": true,
							"internalType": "uint256",
							"name": "cnic_",
							"type": "uint256"
						}
					],
					"name": "IdVerfied",
					"type": "event"
				},
				{
					"inputs": [
						{
							"internalType": "string",
							"name": "name_",
							"type": "string"
						},
						{
							"internalType": "string",
							"name": "email_",
							"type": "string"
						}
					],
					"name": "createIdentity",
					"outputs": [
						{
							"internalType": "uint256",
							"name": "",
							"type": "uint256"
						}
					],
					"stateMutability": "nonpayable",
					"type": "function"
				},
				{
					"inputs": [
						{
							"internalType": "uint256",
							"name": "input",
							"type": "uint256"
						}
					],
					"name": "getIdentity",
					"outputs": [
						{
							"internalType": "string",
							"name": "",
							"type": "string"
						},
						{
							"internalType": "string",
							"name": "",
							"type": "string"
						},
						{
							"internalType": "bool",
							"name": "",
							"type": "bool"
						}
					],
					"stateMutability": "view",
					"type": "function"
				},
				{
					"inputs": [
						{
							"internalType": "uint256",
							"name": "",
							"type": "uint256"
						}
					],
					"name": "identities",
					"outputs": [
						{
							"internalType": "uint256",
							"name": "cnic",
							"type": "uint256"
						},
						{
							"internalType": "string",
							"name": "user_name",
							"type": "string"
						},
						{
							"internalType": "string",
							"name": "user_email",
							"type": "string"
						},
						{
							"internalType": "bool",
							"name": "verified",
							"type": "bool"
						},
						{
							"internalType": "bool",
							"name": "exists",
							"type": "bool"
						},
						{
							"internalType": "address",
							"name": "owner",
							"type": "address"
						}
					],
					"stateMutability": "view",
					"type": "function"
				},
				{
					"inputs": [],
					"name": "peopleCount",
					"outputs": [
						{
							"internalType": "uint256",
							"name": "",
							"type": "uint256"
						}
					],
					"stateMutability": "view",
					"type": "function"
				},
				{
					"inputs": [
						{
							"internalType": "uint256",
							"name": "input",
							"type": "uint256"
						}
					],
					"name": "verifyIdentity",
					"outputs": [],
					"stateMutability": "nonpayable",
					"type": "function"
				}
			],
			"devdoc": {
				"kind": "dev",
				"methods": {},
				"version": 1
			},
			"evm": {
				"assembly": "    /* \"contracts/15-D_Identity/d_identity.sol\":90:1743  contract DID... */\n  mstore(0x40, 0x80)\n  callvalue\n  dup1\n  iszero\n  tag_1\n  jumpi\n  0x00\n  dup1\n  revert\ntag_1:\n  pop\n  dataSize(sub_0)\n  dup1\n  dataOffset(sub_0)\n  0x00\n  codecopy\n  0x00\n  return\nstop\n\nsub_0: assembly {\n        /* \"contracts/15-D_Identity/d_identity.sol\":90:1743  contract DID... */\n      mstore(0x40, 0x80)\n      callvalue\n      dup1\n      iszero\n      tag_1\n      jumpi\n      0x00\n      dup1\n      revert\n    tag_1:\n      pop\n      jumpi(tag_2, lt(calldatasize, 0x04))\n      shr(0xe0, calldataload(0x00))\n      dup1\n      0x267c68e0\n      eq\n      tag_3\n      jumpi\n      dup1\n      0x85e3f058\n      eq\n      tag_4\n      jumpi\n      dup1\n      0xa309e6e1\n      eq\n      tag_5\n      jumpi\n      dup1\n      0xbabb55c5\n      eq\n      tag_6\n      jumpi\n      dup1\n      0xeaaf77e6\n      eq\n      tag_7\n      jumpi\n    tag_2:\n      0x00\n      dup1\n      revert\n        /* \"contracts/15-D_Identity/d_identity.sol\":498:521  uint public peopleCount */\n    tag_3:\n      tag_8\n      tag_9\n      jump\t// in\n    tag_8:\n      mload(0x40)\n      tag_10\n      swap2\n      swap1\n      tag_11\n      jump\t// in\n    tag_10:\n      mload(0x40)\n      dup1\n      swap2\n      sub\n      swap1\n      return\n        /* \"contracts/15-D_Identity/d_identity.sol\":1462:1739  function getIdentity (uint input) public view returns (string memory,string memory,bool )... */\n    tag_4:\n      tag_12\n      0x04\n      dup1\n      calldatasize\n      sub\n      dup2\n      add\n      swap1\n      tag_13\n      swap2\n      swap1\n      tag_14\n      jump\t// in\n    tag_13:\n      tag_15\n      jump\t// in\n    tag_12:\n      mload(0x40)\n      tag_16\n      swap4\n      swap3\n      swap2\n      swap1\n      tag_17\n      jump\t// in\n    tag_16:\n      mload(0x40)\n      dup1\n      swap2\n      sub\n      swap1\n      return\n        /* \"contracts/15-D_Identity/d_identity.sol\":661:1097  function createIdentity ( string memory name_ ,string memory email_ ) public returns (uint)... */\n    tag_5:\n      tag_18\n      0x04\n      dup1\n      calldatasize\n      sub\n      dup2\n      add\n      swap1\n      tag_19\n      swap2\n      swap1\n      tag_20\n      jump\t// in\n    tag_19:\n      tag_21\n      jump\t// in\n    tag_18:\n      mload(0x40)\n      tag_22\n      swap2\n      swap1\n      tag_11\n      jump\t// in\n    tag_22:\n      mload(0x40)\n      dup1\n      swap2\n      sub\n      swap1\n      return\n        /* \"contracts/15-D_Identity/d_identity.sol\":1107:1456  function verifyIdentity (uint input) public... */\n    tag_6:\n      tag_23\n      0x04\n      dup1\n      calldatasize\n      sub\n      dup2\n      add\n      swap1\n      tag_24\n      swap2\n      swap1\n      tag_14\n      jump\t// in\n    tag_24:\n      tag_25\n      jump\t// in\n    tag_23:\n      stop\n        /* \"contracts/15-D_Identity/d_identity.sol\":454:492  mapping (uint => Id) public identities */\n    tag_7:\n      tag_26\n      0x04\n      dup1\n      calldatasize\n      sub\n      dup2\n      add\n      swap1\n      tag_27\n      swap2\n      swap1\n      tag_14\n      jump\t// in\n    tag_27:\n      tag_28\n      jump\t// in\n    tag_26:\n      mload(0x40)\n      tag_29\n      swap7\n      swap6\n      swap5\n      swap4\n      swap3\n      swap2\n      swap1\n      tag_30\n      jump\t// in\n    tag_29:\n      mload(0x40)\n      dup1\n      swap2\n      sub\n      swap1\n      return\n        /* \"contracts/15-D_Identity/d_identity.sol\":498:521  uint public peopleCount */\n    tag_9:\n      sload(0x01)\n      dup2\n      jump\t// out\n        /* \"contracts/15-D_Identity/d_identity.sol\":1462:1739  function getIdentity (uint input) public view returns (string memory,string memory,bool )... */\n    tag_15:\n        /* \"contracts/15-D_Identity/d_identity.sol\":1517:1530  string memory */\n      0x60\n        /* \"contracts/15-D_Identity/d_identity.sol\":1531:1544  string memory */\n      dup1\n        /* \"contracts/15-D_Identity/d_identity.sol\":1545:1549  bool */\n      0x00\n        /* \"contracts/15-D_Identity/d_identity.sol\":1575:1585  identities */\n      dup1\n        /* \"contracts/15-D_Identity/d_identity.sol\":1575:1592  identities[input] */\n      0x00\n        /* \"contracts/15-D_Identity/d_identity.sol\":1586:1591  input */\n      dup6\n        /* \"contracts/15-D_Identity/d_identity.sol\":1575:1592  identities[input] */\n      dup2\n      mstore\n      0x20\n      add\n      swap1\n      dup2\n      mstore\n      0x20\n      add\n      0x00\n      keccak256\n        /* \"contracts/15-D_Identity/d_identity.sol\":1575:1599  identities[input].exists */\n      0x03\n      add\n      0x01\n      swap1\n      sload\n      swap1\n      0x0100\n      exp\n      swap1\n      div\n      0xff\n      and\n        /* \"contracts/15-D_Identity/d_identity.sol\":1567:1626  require(identities[input].exists,\"Identity doesnot Exists\") */\n      tag_32\n      jumpi\n      mload(0x40)\n      0x08c379a000000000000000000000000000000000000000000000000000000000\n      dup2\n      mstore\n      0x04\n      add\n      tag_33\n      swap1\n      tag_34\n      jump\t// in\n    tag_33:\n      mload(0x40)\n      dup1\n      swap2\n      sub\n      swap1\n      revert\n    tag_32:\n        /* \"contracts/15-D_Identity/d_identity.sol\":1645:1655  identities */\n      0x00\n        /* \"contracts/15-D_Identity/d_identity.sol\":1645:1662  identities[input] */\n      dup1\n        /* \"contracts/15-D_Identity/d_identity.sol\":1656:1661  input */\n      dup6\n        /* \"contracts/15-D_Identity/d_identity.sol\":1645:1662  identities[input] */\n      dup2\n      mstore\n      0x20\n      add\n      swap1\n      dup2\n      mstore\n      0x20\n      add\n      0x00\n      keccak256\n        /* \"contracts/15-D_Identity/d_identity.sol\":1645:1672  identities[input].user_name */\n      0x01\n      add\n        /* \"contracts/15-D_Identity/d_identity.sol\":1674:1684  identities */\n      0x00\n        /* \"contracts/15-D_Identity/d_identity.sol\":1674:1691  identities[input] */\n      dup1\n        /* \"contracts/15-D_Identity/d_identity.sol\":1685:1690  input */\n      dup7\n        /* \"contracts/15-D_Identity/d_identity.sol\":1674:1691  identities[input] */\n      dup2\n      mstore\n      0x20\n      add\n      swap1\n      dup2\n      mstore\n      0x20\n      add\n      0x00\n      keccak256\n        /* \"contracts/15-D_Identity/d_identity.sol\":1674:1702  identities[input].user_email */\n      0x02\n      add\n        /* \"contracts/15-D_Identity/d_identity.sol\":1704:1714  identities */\n      0x00\n        /* \"contracts/15-D_Identity/d_identity.sol\":1704:1721  identities[input] */\n      dup1\n        /* \"contracts/15-D_Identity/d_identity.sol\":1715:1720  input */\n      dup8\n        /* \"contracts/15-D_Identity/d_identity.sol\":1704:1721  identities[input] */\n      dup2\n      mstore\n      0x20\n      add\n      swap1\n      dup2\n      mstore\n      0x20\n      add\n      0x00\n      keccak256\n        /* \"contracts/15-D_Identity/d_identity.sol\":1704:1730  identities[input].verified */\n      0x03\n      add\n      0x00\n      swap1\n      sload\n      swap1\n      0x0100\n      exp\n      swap1\n      div\n      0xff\n      and\n        /* \"contracts/15-D_Identity/d_identity.sol\":1637:1731  return (identities[input].user_name, identities[input].user_email, identities[input].verified) */\n      dup3\n      dup1\n      sload\n      tag_35\n      swap1\n      tag_36\n      jump\t// in\n    tag_35:\n      dup1\n      0x1f\n      add\n      0x20\n      dup1\n      swap2\n      div\n      mul\n      0x20\n      add\n      mload(0x40)\n      swap1\n      dup2\n      add\n      0x40\n      mstore\n      dup1\n      swap3\n      swap2\n      swap1\n      dup2\n      dup2\n      mstore\n      0x20\n      add\n      dup3\n      dup1\n      sload\n      tag_37\n      swap1\n      tag_36\n      jump\t// in\n    tag_37:\n      dup1\n      iszero\n      tag_38\n      jumpi\n      dup1\n      0x1f\n      lt\n      tag_39\n      jumpi\n      0x0100\n      dup1\n      dup4\n      sload\n      div\n      mul\n      dup4\n      mstore\n      swap2\n      0x20\n      add\n      swap2\n      jump(tag_38)\n    tag_39:\n      dup3\n      add\n      swap2\n      swap1\n      0x00\n      mstore\n      keccak256(0x00, 0x20)\n      swap1\n    tag_40:\n      dup2\n      sload\n      dup2\n      mstore\n      swap1\n      0x01\n      add\n      swap1\n      0x20\n      add\n      dup1\n      dup4\n      gt\n      tag_40\n      jumpi\n      dup3\n      swap1\n      sub\n      0x1f\n      and\n      dup3\n      add\n      swap2\n    tag_38:\n      pop\n      pop\n      pop\n      pop\n      pop\n      swap3\n      pop\n      dup2\n      dup1\n      sload\n      tag_41\n      swap1\n      tag_36\n      jump\t// in\n    tag_41:\n      dup1\n      0x1f\n      add\n      0x20\n      dup1\n      swap2\n      div\n      mul\n      0x20\n      add\n      mload(0x40)\n      swap1\n      dup2\n      add\n      0x40\n      mstore\n      dup1\n      swap3\n      swap2\n      swap1\n      dup2\n      dup2\n      mstore\n      0x20\n      add\n      dup3\n      dup1\n      sload\n      tag_42\n      swap1\n      tag_36\n      jump\t// in\n    tag_42:\n      dup1\n      iszero\n      tag_43\n      jumpi\n      dup1\n      0x1f\n      lt\n      tag_44\n      jumpi\n      0x0100\n      dup1\n      dup4\n      sload\n      div\n      mul\n      dup4\n      mstore\n      swap2\n      0x20\n      add\n      swap2\n      jump(tag_43)\n    tag_44:\n      dup3\n      add\n      swap2\n      swap1\n      0x00\n      mstore\n      keccak256(0x00, 0x20)\n      swap1\n    tag_45:\n      dup2\n      sload\n      dup2\n      mstore\n      swap1\n      0x01\n      add\n      swap1\n      0x20\n      add\n      dup1\n      dup4\n      gt\n      tag_45\n      jumpi\n      dup3\n      swap1\n      sub\n      0x1f\n      and\n      dup3\n      add\n      swap2\n    tag_43:\n      pop\n      pop\n      pop\n      pop\n      pop\n      swap2\n      pop\n      swap3\n      pop\n      swap3\n      pop\n      swap3\n      pop\n        /* \"contracts/15-D_Identity/d_identity.sol\":1462:1739  function getIdentity (uint input) public view returns (string memory,string memory,bool )... */\n      swap2\n      swap4\n      swap1\n      swap3\n      pop\n      jump\t// out\n        /* \"contracts/15-D_Identity/d_identity.sol\":661:1097  function createIdentity ( string memory name_ ,string memory email_ ) public returns (uint)... */\n    tag_21:\n        /* \"contracts/15-D_Identity/d_identity.sol\":747:751  uint */\n      0x00\n        /* \"contracts/15-D_Identity/d_identity.sol\":798:799  0 */\n      dup1\n        /* \"contracts/15-D_Identity/d_identity.sol\":782:787  name_ */\n      dup4\n        /* \"contracts/15-D_Identity/d_identity.sol\":776:795  bytes(name_).length */\n      mload\n        /* \"contracts/15-D_Identity/d_identity.sol\":776:799  bytes(name_).length > 0 */\n      gt\n        /* \"contracts/15-D_Identity/d_identity.sol\":768:819  require(bytes(name_).length > 0,\"Name is required\") */\n      tag_47\n      jumpi\n      mload(0x40)\n      0x08c379a000000000000000000000000000000000000000000000000000000000\n      dup2\n      mstore\n      0x04\n      add\n      tag_48\n      swap1\n      tag_49\n      jump\t// in\n    tag_48:\n      mload(0x40)\n      dup1\n      swap2\n      sub\n      swap1\n      revert\n    tag_47:\n        /* \"contracts/15-D_Identity/d_identity.sol\":860:861  0 */\n      0x00\n        /* \"contracts/15-D_Identity/d_identity.sol\":843:849  email_ */\n      dup3\n        /* \"contracts/15-D_Identity/d_identity.sol\":837:857  bytes(email_).length */\n      mload\n        /* \"contracts/15-D_Identity/d_identity.sol\":837:861  bytes(email_).length > 0 */\n      gt\n        /* \"contracts/15-D_Identity/d_identity.sol\":829:882  require(bytes(email_).length > 0,\"Email is required\") */\n      tag_50\n      jumpi\n      mload(0x40)\n      0x08c379a000000000000000000000000000000000000000000000000000000000\n      dup2\n      mstore\n      0x04\n      add\n      tag_51\n      swap1\n      tag_52\n      jump\t// in\n    tag_51:\n      mload(0x40)\n      dup1\n      swap2\n      sub\n      swap1\n      revert\n    tag_50:\n        /* \"contracts/15-D_Identity/d_identity.sol\":901:912  uint  newId */\n      0x00\n        /* \"contracts/15-D_Identity/d_identity.sol\":915:926  peopleCount */\n      0x01\n      0x00\n        /* \"contracts/15-D_Identity/d_identity.sol\":915:928  peopleCount++ */\n      dup2\n      sload\n      dup1\n      swap3\n      swap2\n      swap1\n      tag_53\n      swap1\n      tag_54\n      jump\t// in\n    tag_53:\n      swap2\n      swap1\n      pop\n      sstore\n        /* \"contracts/15-D_Identity/d_identity.sol\":901:928  uint  newId = peopleCount++ */\n      swap1\n      pop\n        /* \"contracts/15-D_Identity/d_identity.sol\":958:1004  Id(newId,name_, email_, false,true,msg.sender) */\n      mload(0x40)\n      dup1\n      0xc0\n      add\n      0x40\n      mstore\n      dup1\n        /* \"contracts/15-D_Identity/d_identity.sol\":961:966  newId */\n      dup3\n        /* \"contracts/15-D_Identity/d_identity.sol\":958:1004  Id(newId,name_, email_, false,true,msg.sender) */\n      dup2\n      mstore\n      0x20\n      add\n        /* \"contracts/15-D_Identity/d_identity.sol\":967:972  name_ */\n      dup6\n        /* \"contracts/15-D_Identity/d_identity.sol\":958:1004  Id(newId,name_, email_, false,true,msg.sender) */\n      dup2\n      mstore\n      0x20\n      add\n        /* \"contracts/15-D_Identity/d_identity.sol\":974:980  email_ */\n      dup5\n        /* \"contracts/15-D_Identity/d_identity.sol\":958:1004  Id(newId,name_, email_, false,true,msg.sender) */\n      dup2\n      mstore\n      0x20\n      add\n        /* \"contracts/15-D_Identity/d_identity.sol\":982:987  false */\n      0x00\n        /* \"contracts/15-D_Identity/d_identity.sol\":958:1004  Id(newId,name_, email_, false,true,msg.sender) */\n      iszero\n      iszero\n      dup2\n      mstore\n      0x20\n      add\n        /* \"contracts/15-D_Identity/d_identity.sol\":988:992  true */\n      0x01\n        /* \"contracts/15-D_Identity/d_identity.sol\":958:1004  Id(newId,name_, email_, false,true,msg.sender) */\n      iszero\n      iszero\n      dup2\n      mstore\n      0x20\n      add\n        /* \"contracts/15-D_Identity/d_identity.sol\":993:1003  msg.sender */\n      caller\n        /* \"contracts/15-D_Identity/d_identity.sol\":958:1004  Id(newId,name_, email_, false,true,msg.sender) */\n      0xffffffffffffffffffffffffffffffffffffffff\n      and\n      dup2\n      mstore\n      pop\n        /* \"contracts/15-D_Identity/d_identity.sol\":938:948  identities */\n      0x00\n        /* \"contracts/15-D_Identity/d_identity.sol\":938:955  identities[newId] */\n      dup1\n        /* \"contracts/15-D_Identity/d_identity.sol\":949:954  newId */\n      dup4\n        /* \"contracts/15-D_Identity/d_identity.sol\":938:955  identities[newId] */\n      dup2\n      mstore\n      0x20\n      add\n      swap1\n      dup2\n      mstore\n      0x20\n      add\n      0x00\n      keccak256\n        /* \"contracts/15-D_Identity/d_identity.sol\":938:1004  identities[newId] = Id(newId,name_, email_, false,true,msg.sender) */\n      0x00\n      dup3\n      add\n      mload\n      dup2\n      0x00\n      add\n      sstore\n      0x20\n      dup3\n      add\n      mload\n      dup2\n      0x01\n      add\n      swap1\n      dup2\n      tag_55\n      swap2\n      swap1\n      tag_56\n      jump\t// in\n    tag_55:\n      pop\n      0x40\n      dup3\n      add\n      mload\n      dup2\n      0x02\n      add\n      swap1\n      dup2\n      tag_57\n      swap2\n      swap1\n      tag_56\n      jump\t// in\n    tag_57:\n      pop\n      0x60\n      dup3\n      add\n      mload\n      dup2\n      0x03\n      add\n      exp(0x0100, 0x00)\n      dup2\n      sload\n      dup2\n      0xff\n      mul\n      not\n      and\n      swap1\n      dup4\n      iszero\n      iszero\n      mul\n      or\n      swap1\n      sstore\n      pop\n      0x80\n      dup3\n      add\n      mload\n      dup2\n      0x03\n      add\n      exp(0x0100, 0x01)\n      dup2\n      sload\n      dup2\n      0xff\n      mul\n      not\n      and\n      swap1\n      dup4\n      iszero\n      iszero\n      mul\n      or\n      swap1\n      sstore\n      pop\n      0xa0\n      dup3\n      add\n      mload\n      dup2\n      0x03\n      add\n      exp(0x0100, 0x02)\n      dup2\n      sload\n      dup2\n      0xffffffffffffffffffffffffffffffffffffffff\n      mul\n      not\n      and\n      swap1\n      dup4\n      0xffffffffffffffffffffffffffffffffffffffff\n      and\n      mul\n      or\n      swap1\n      sstore\n      pop\n      swap1\n      pop\n      pop\n        /* \"contracts/15-D_Identity/d_identity.sol\":1044:1054  msg.sender */\n      caller\n        /* \"contracts/15-D_Identity/d_identity.sol\":1028:1068  IdCreated(newId,msg.sender,name_,email_) */\n      0xffffffffffffffffffffffffffffffffffffffff\n      and\n        /* \"contracts/15-D_Identity/d_identity.sol\":1038:1043  newId */\n      dup2\n        /* \"contracts/15-D_Identity/d_identity.sol\":1028:1068  IdCreated(newId,msg.sender,name_,email_) */\n      0x93fd7b271df828339eb5d8db632864a85d51b69b2c7a9108ac04ed17cf5c3ba2\n        /* \"contracts/15-D_Identity/d_identity.sol\":1055:1060  name_ */\n      dup7\n        /* \"contracts/15-D_Identity/d_identity.sol\":1061:1067  email_ */\n      dup7\n        /* \"contracts/15-D_Identity/d_identity.sol\":1028:1068  IdCreated(newId,msg.sender,name_,email_) */\n      mload(0x40)\n      tag_58\n      swap3\n      swap2\n      swap1\n      tag_59\n      jump\t// in\n    tag_58:\n      mload(0x40)\n      dup1\n      swap2\n      sub\n      swap1\n      log3\n        /* \"contracts/15-D_Identity/d_identity.sol\":1085:1090  newId */\n      dup1\n        /* \"contracts/15-D_Identity/d_identity.sol\":1078:1090  return newId */\n      swap2\n      pop\n      pop\n        /* \"contracts/15-D_Identity/d_identity.sol\":661:1097  function createIdentity ( string memory name_ ,string memory email_ ) public returns (uint)... */\n      swap3\n      swap2\n      pop\n      pop\n      jump\t// out\n        /* \"contracts/15-D_Identity/d_identity.sol\":1107:1456  function verifyIdentity (uint input) public... */\n    tag_25:\n        /* \"contracts/15-D_Identity/d_identity.sol\":1174:1184  identities */\n      0x00\n        /* \"contracts/15-D_Identity/d_identity.sol\":1174:1191  identities[input] */\n      dup1\n        /* \"contracts/15-D_Identity/d_identity.sol\":1185:1190  input */\n      dup3\n        /* \"contracts/15-D_Identity/d_identity.sol\":1174:1191  identities[input] */\n      dup2\n      mstore\n      0x20\n      add\n      swap1\n      dup2\n      mstore\n      0x20\n      add\n      0x00\n      keccak256\n        /* \"contracts/15-D_Identity/d_identity.sol\":1174:1198  identities[input].exists */\n      0x03\n      add\n      0x01\n      swap1\n      sload\n      swap1\n      0x0100\n      exp\n      swap1\n      div\n      0xff\n      and\n        /* \"contracts/15-D_Identity/d_identity.sol\":1166:1225  require(identities[input].exists,\"Identity doesnot Exists\") */\n      tag_61\n      jumpi\n      mload(0x40)\n      0x08c379a000000000000000000000000000000000000000000000000000000000\n      dup2\n      mstore\n      0x04\n      add\n      tag_62\n      swap1\n      tag_34\n      jump\t// in\n    tag_62:\n      mload(0x40)\n      dup1\n      swap2\n      sub\n      swap1\n      revert\n    tag_61:\n        /* \"contracts/15-D_Identity/d_identity.sol\":1243:1253  identities */\n      0x00\n        /* \"contracts/15-D_Identity/d_identity.sol\":1243:1260  identities[input] */\n      dup1\n        /* \"contracts/15-D_Identity/d_identity.sol\":1254:1259  input */\n      dup3\n        /* \"contracts/15-D_Identity/d_identity.sol\":1243:1260  identities[input] */\n      dup2\n      mstore\n      0x20\n      add\n      swap1\n      dup2\n      mstore\n      0x20\n      add\n      0x00\n      keccak256\n        /* \"contracts/15-D_Identity/d_identity.sol\":1243:1269  identities[input].verified */\n      0x03\n      add\n      0x00\n      swap1\n      sload\n      swap1\n      0x0100\n      exp\n      swap1\n      div\n      0xff\n      and\n        /* \"contracts/15-D_Identity/d_identity.sol\":1235:1289  require(identities[input].verified,\"Already Verified\") */\n      tag_63\n      jumpi\n      mload(0x40)\n      0x08c379a000000000000000000000000000000000000000000000000000000000\n      dup2\n      mstore\n      0x04\n      add\n      tag_64\n      swap1\n      tag_65\n      jump\t// in\n    tag_64:\n      mload(0x40)\n      dup1\n      swap2\n      sub\n      swap1\n      revert\n    tag_63:\n        /* \"contracts/15-D_Identity/d_identity.sol\":1334:1344  msg.sender */\n      caller\n        /* \"contracts/15-D_Identity/d_identity.sol\":1307:1344  identities[input].owner == msg.sender */\n      0xffffffffffffffffffffffffffffffffffffffff\n      and\n        /* \"contracts/15-D_Identity/d_identity.sol\":1307:1317  identities */\n      0x00\n        /* \"contracts/15-D_Identity/d_identity.sol\":1307:1324  identities[input] */\n      dup1\n        /* \"contracts/15-D_Identity/d_identity.sol\":1318:1323  input */\n      dup4\n        /* \"contracts/15-D_Identity/d_identity.sol\":1307:1324  identities[input] */\n      dup2\n      mstore\n      0x20\n      add\n      swap1\n      dup2\n      mstore\n      0x20\n      add\n      0x00\n      keccak256\n        /* \"contracts/15-D_Identity/d_identity.sol\":1307:1330  identities[input].owner */\n      0x03\n      add\n      0x02\n      swap1\n      sload\n      swap1\n      0x0100\n      exp\n      swap1\n      div\n      0xffffffffffffffffffffffffffffffffffffffff\n      and\n        /* \"contracts/15-D_Identity/d_identity.sol\":1307:1344  identities[input].owner == msg.sender */\n      0xffffffffffffffffffffffffffffffffffffffff\n      and\n      eq\n        /* \"contracts/15-D_Identity/d_identity.sol\":1299:1373  require(identities[input].owner == msg.sender,\"You dont own the identity\") */\n      tag_66\n      jumpi\n      mload(0x40)\n      0x08c379a000000000000000000000000000000000000000000000000000000000\n      dup2\n      mstore\n      0x04\n      add\n      tag_67\n      swap1\n      tag_68\n      jump\t// in\n    tag_67:\n      mload(0x40)\n      dup1\n      swap2\n      sub\n      swap1\n      revert\n    tag_66:\n        /* \"contracts/15-D_Identity/d_identity.sol\":1413:1417  true */\n      0x01\n        /* \"contracts/15-D_Identity/d_identity.sol\":1384:1394  identities */\n      0x00\n        /* \"contracts/15-D_Identity/d_identity.sol\":1384:1401  identities[input] */\n      dup1\n        /* \"contracts/15-D_Identity/d_identity.sol\":1395:1400  input */\n      dup4\n        /* \"contracts/15-D_Identity/d_identity.sol\":1384:1401  identities[input] */\n      dup2\n      mstore\n      0x20\n      add\n      swap1\n      dup2\n      mstore\n      0x20\n      add\n      0x00\n      keccak256\n        /* \"contracts/15-D_Identity/d_identity.sol\":1384:1410  identities[input].verified */\n      0x03\n      add\n      0x00\n        /* \"contracts/15-D_Identity/d_identity.sol\":1384:1417  identities[input].verified = true */\n      0x0100\n      exp\n      dup2\n      sload\n      dup2\n      0xff\n      mul\n      not\n      and\n      swap1\n      dup4\n      iszero\n      iszero\n      mul\n      or\n      swap1\n      sstore\n      pop\n        /* \"contracts/15-D_Identity/d_identity.sol\":1442:1447  input */\n      dup1\n        /* \"contracts/15-D_Identity/d_identity.sol\":1432:1448  IdVerfied(input) */\n      0xd0e15ad158568c0bcb8fbdeff1c6d441585c291a83235b65d40401994e1f5304\n      mload(0x40)\n      mload(0x40)\n      dup1\n      swap2\n      sub\n      swap1\n      log2\n        /* \"contracts/15-D_Identity/d_identity.sol\":1107:1456  function verifyIdentity (uint input) public... */\n      pop\n      jump\t// out\n        /* \"contracts/15-D_Identity/d_identity.sol\":454:492  mapping (uint => Id) public identities */\n    tag_28:\n      mstore(0x20, 0x00)\n      dup1\n      0x00\n      mstore\n      keccak256(0x00, 0x40)\n      0x00\n      swap2\n      pop\n      swap1\n      pop\n      dup1\n      0x00\n      add\n      sload\n      swap1\n      dup1\n      0x01\n      add\n      dup1\n      sload\n      tag_69\n      swap1\n      tag_36\n      jump\t// in\n    tag_69:\n      dup1\n      0x1f\n      add\n      0x20\n      dup1\n      swap2\n      div\n      mul\n      0x20\n      add\n      mload(0x40)\n      swap1\n      dup2\n      add\n      0x40\n      mstore\n      dup1\n      swap3\n      swap2\n      swap1\n      dup2\n      dup2\n      mstore\n      0x20\n      add\n      dup3\n      dup1\n      sload\n      tag_70\n      swap1\n      tag_36\n      jump\t// in\n    tag_70:\n      dup1\n      iszero\n      tag_71\n      jumpi\n      dup1\n      0x1f\n      lt\n      tag_72\n      jumpi\n      0x0100\n      dup1\n      dup4\n      sload\n      div\n      mul\n      dup4\n      mstore\n      swap2\n      0x20\n      add\n      swap2\n      jump(tag_71)\n    tag_72:\n      dup3\n      add\n      swap2\n      swap1\n      0x00\n      mstore\n      keccak256(0x00, 0x20)\n      swap1\n    tag_73:\n      dup2\n      sload\n      dup2\n      mstore\n      swap1\n      0x01\n      add\n      swap1\n      0x20\n      add\n      dup1\n      dup4\n      gt\n      tag_73\n      jumpi\n      dup3\n      swap1\n      sub\n      0x1f\n      and\n      dup3\n      add\n      swap2\n    tag_71:\n      pop\n      pop\n      pop\n      pop\n      pop\n      swap1\n      dup1\n      0x02\n      add\n      dup1\n      sload\n      tag_74\n      swap1\n      tag_36\n      jump\t// in\n    tag_74:\n      dup1\n      0x1f\n      add\n      0x20\n      dup1\n      swap2\n      div\n      mul\n      0x20\n      add\n      mload(0x40)\n      swap1\n      dup2\n      add\n      0x40\n      mstore\n      dup1\n      swap3\n      swap2\n      swap1\n      dup2\n      dup2\n      mstore\n      0x20\n      add\n      dup3\n      dup1\n      sload\n      tag_75\n      swap1\n      tag_36\n      jump\t// in\n    tag_75:\n      dup1\n      iszero\n      tag_76\n      jumpi\n      dup1\n      0x1f\n      lt\n      tag_77\n      jumpi\n      0x0100\n      dup1\n      dup4\n      sload\n      div\n      mul\n      dup4\n      mstore\n      swap2\n      0x20\n      add\n      swap2\n      jump(tag_76)\n    tag_77:\n      dup3\n      add\n      swap2\n      swap1\n      0x00\n      mstore\n      keccak256(0x00, 0x20)\n      swap1\n    tag_78:\n      dup2\n      sload\n      dup2\n      mstore\n      swap1\n      0x01\n      add\n      swap1\n      0x20\n      add\n      dup1\n      dup4\n      gt\n      tag_78\n      jumpi\n      dup3\n      swap1\n      sub\n      0x1f\n      and\n      dup3\n      add\n      swap2\n    tag_76:\n      pop\n      pop\n      pop\n      pop\n      pop\n      swap1\n      dup1\n      0x03\n      add\n      0x00\n      swap1\n      sload\n      swap1\n      0x0100\n      exp\n      swap1\n      div\n      0xff\n      and\n      swap1\n      dup1\n      0x03\n      add\n      0x01\n      swap1\n      sload\n      swap1\n      0x0100\n      exp\n      swap1\n      div\n      0xff\n      and\n      swap1\n      dup1\n      0x03\n      add\n      0x02\n      swap1\n      sload\n      swap1\n      0x0100\n      exp\n      swap1\n      div\n      0xffffffffffffffffffffffffffffffffffffffff\n      and\n      swap1\n      pop\n      dup7\n      jump\t// out\n        /* \"#utility.yul\":7:84   */\n    tag_79:\n        /* \"#utility.yul\":44:51   */\n      0x00\n        /* \"#utility.yul\":73:78   */\n      dup2\n        /* \"#utility.yul\":62:78   */\n      swap1\n      pop\n        /* \"#utility.yul\":7:84   */\n      swap2\n      swap1\n      pop\n      jump\t// out\n        /* \"#utility.yul\":90:208   */\n    tag_80:\n        /* \"#utility.yul\":177:201   */\n      tag_135\n        /* \"#utility.yul\":195:200   */\n      dup2\n        /* \"#utility.yul\":177:201   */\n      tag_79\n      jump\t// in\n    tag_135:\n        /* \"#utility.yul\":172:175   */\n      dup3\n        /* \"#utility.yul\":165:202   */\n      mstore\n        /* \"#utility.yul\":90:208   */\n      pop\n      pop\n      jump\t// out\n        /* \"#utility.yul\":214:436   */\n    tag_11:\n        /* \"#utility.yul\":307:311   */\n      0x00\n        /* \"#utility.yul\":345:347   */\n      0x20\n        /* \"#utility.yul\":334:343   */\n      dup3\n        /* \"#utility.yul\":330:348   */\n      add\n        /* \"#utility.yul\":322:348   */\n      swap1\n      pop\n        /* \"#utility.yul\":358:429   */\n      tag_137\n        /* \"#utility.yul\":426:427   */\n      0x00\n        /* \"#utility.yul\":415:424   */\n      dup4\n        /* \"#utility.yul\":411:428   */\n      add\n        /* \"#utility.yul\":402:408   */\n      dup5\n        /* \"#utility.yul\":358:429   */\n      tag_80\n      jump\t// in\n    tag_137:\n        /* \"#utility.yul\":214:436   */\n      swap3\n      swap2\n      pop\n      pop\n      jump\t// out\n        /* \"#utility.yul\":442:517   */\n    tag_81:\n        /* \"#utility.yul\":475:481   */\n      0x00\n        /* \"#utility.yul\":508:510   */\n      0x40\n        /* \"#utility.yul\":502:511   */\n      mload\n        /* \"#utility.yul\":492:511   */\n      swap1\n      pop\n        /* \"#utility.yul\":442:517   */\n      swap1\n      jump\t// out\n        /* \"#utility.yul\":523:640   */\n    tag_82:\n        /* \"#utility.yul\":632:633   */\n      0x00\n        /* \"#utility.yul\":629:630   */\n      dup1\n        /* \"#utility.yul\":622:634   */\n      revert\n        /* \"#utility.yul\":646:763   */\n    tag_83:\n        /* \"#utility.yul\":755:756   */\n      0x00\n        /* \"#utility.yul\":752:753   */\n      dup1\n        /* \"#utility.yul\":745:757   */\n      revert\n        /* \"#utility.yul\":769:891   */\n    tag_84:\n        /* \"#utility.yul\":842:866   */\n      tag_142\n        /* \"#utility.yul\":860:865   */\n      dup2\n        /* \"#utility.yul\":842:866   */\n      tag_79\n      jump\t// in\n    tag_142:\n        /* \"#utility.yul\":835:840   */\n      dup2\n        /* \"#utility.yul\":832:867   */\n      eq\n        /* \"#utility.yul\":822:885   */\n      tag_143\n      jumpi\n        /* \"#utility.yul\":881:882   */\n      0x00\n        /* \"#utility.yul\":878:879   */\n      dup1\n        /* \"#utility.yul\":871:883   */\n      revert\n        /* \"#utility.yul\":822:885   */\n    tag_143:\n        /* \"#utility.yul\":769:891   */\n      pop\n      jump\t// out\n        /* \"#utility.yul\":897:1036   */\n    tag_85:\n        /* \"#utility.yul\":943:948   */\n      0x00\n        /* \"#utility.yul\":981:987   */\n      dup2\n        /* \"#utility.yul\":968:988   */\n      calldataload\n        /* \"#utility.yul\":959:988   */\n      swap1\n      pop\n        /* \"#utility.yul\":997:1030   */\n      tag_145\n        /* \"#utility.yul\":1024:1029   */\n      dup2\n        /* \"#utility.yul\":997:1030   */\n      tag_84\n      jump\t// in\n    tag_145:\n        /* \"#utility.yul\":897:1036   */\n      swap3\n      swap2\n      pop\n      pop\n      jump\t// out\n        /* \"#utility.yul\":1042:1371   */\n    tag_14:\n        /* \"#utility.yul\":1101:1107   */\n      0x00\n        /* \"#utility.yul\":1150:1152   */\n      0x20\n        /* \"#utility.yul\":1138:1147   */\n      dup3\n        /* \"#utility.yul\":1129:1136   */\n      dup5\n        /* \"#utility.yul\":1125:1148   */\n      sub\n        /* \"#utility.yul\":1121:1153   */\n      slt\n        /* \"#utility.yul\":1118:1237   */\n      iszero\n      tag_147\n      jumpi\n        /* \"#utility.yul\":1156:1235   */\n      tag_148\n      tag_82\n      jump\t// in\n    tag_148:\n        /* \"#utility.yul\":1118:1237   */\n    tag_147:\n        /* \"#utility.yul\":1276:1277   */\n      0x00\n        /* \"#utility.yul\":1301:1354   */\n      tag_149\n        /* \"#utility.yul\":1346:1353   */\n      dup5\n        /* \"#utility.yul\":1337:1343   */\n      dup3\n        /* \"#utility.yul\":1326:1335   */\n      dup6\n        /* \"#utility.yul\":1322:1344   */\n      add\n        /* \"#utility.yul\":1301:1354   */\n      tag_85\n      jump\t// in\n    tag_149:\n        /* \"#utility.yul\":1291:1354   */\n      swap2\n      pop\n        /* \"#utility.yul\":1247:1364   */\n      pop\n        /* \"#utility.yul\":1042:1371   */\n      swap3\n      swap2\n      pop\n      pop\n      jump\t// out\n        /* \"#utility.yul\":1377:1476   */\n    tag_86:\n        /* \"#utility.yul\":1429:1435   */\n      0x00\n        /* \"#utility.yul\":1463:1468   */\n      dup2\n        /* \"#utility.yul\":1457:1469   */\n      mload\n        /* \"#utility.yul\":1447:1469   */\n      swap1\n      pop\n        /* \"#utility.yul\":1377:1476   */\n      swap2\n      swap1\n      pop\n      jump\t// out\n        /* \"#utility.yul\":1482:1651   */\n    tag_87:\n        /* \"#utility.yul\":1566:1577   */\n      0x00\n        /* \"#utility.yul\":1600:1606   */\n      dup3\n        /* \"#utility.yul\":1595:1598   */\n      dup3\n        /* \"#utility.yul\":1588:1607   */\n      mstore\n        /* \"#utility.yul\":1640:1644   */\n      0x20\n        /* \"#utility.yul\":1635:1638   */\n      dup3\n        /* \"#utility.yul\":1631:1645   */\n      add\n        /* \"#utility.yul\":1616:1645   */\n      swap1\n      pop\n        /* \"#utility.yul\":1482:1651   */\n      swap3\n      swap2\n      pop\n      pop\n      jump\t// out\n        /* \"#utility.yul\":1657:1903   */\n    tag_88:\n        /* \"#utility.yul\":1738:1739   */\n      0x00\n        /* \"#utility.yul\":1748:1861   */\n    tag_153:\n        /* \"#utility.yul\":1762:1768   */\n      dup4\n        /* \"#utility.yul\":1759:1760   */\n      dup2\n        /* \"#utility.yul\":1756:1769   */\n      lt\n        /* \"#utility.yul\":1748:1861   */\n      iszero\n      tag_155\n      jumpi\n        /* \"#utility.yul\":1847:1848   */\n      dup1\n        /* \"#utility.yul\":1842:1845   */\n      dup3\n        /* \"#utility.yul\":1838:1849   */\n      add\n        /* \"#utility.yul\":1832:1850   */\n      mload\n        /* \"#utility.yul\":1828:1829   */\n      dup2\n        /* \"#utility.yul\":1823:1826   */\n      dup5\n        /* \"#utility.yul\":1819:1830   */\n      add\n        /* \"#utility.yul\":1812:1851   */\n      mstore\n        /* \"#utility.yul\":1784:1786   */\n      0x20\n        /* \"#utility.yul\":1781:1782   */\n      dup2\n        /* \"#utility.yul\":1777:1787   */\n      add\n        /* \"#utility.yul\":1772:1787   */\n      swap1\n      pop\n        /* \"#utility.yul\":1748:1861   */\n      jump(tag_153)\n    tag_155:\n        /* \"#utility.yul\":1895:1896   */\n      0x00\n        /* \"#utility.yul\":1886:1892   */\n      dup5\n        /* \"#utility.yul\":1881:1884   */\n      dup5\n        /* \"#utility.yul\":1877:1893   */\n      add\n        /* \"#utility.yul\":1870:1897   */\n      mstore\n        /* \"#utility.yul\":1719:1903   */\n      pop\n        /* \"#utility.yul\":1657:1903   */\n      pop\n      pop\n      pop\n      jump\t// out\n        /* \"#utility.yul\":1909:2011   */\n    tag_89:\n        /* \"#utility.yul\":1950:1956   */\n      0x00\n        /* \"#utility.yul\":2001:2003   */\n      0x1f\n        /* \"#utility.yul\":1997:2004   */\n      not\n        /* \"#utility.yul\":1992:1994   */\n      0x1f\n        /* \"#utility.yul\":1985:1990   */\n      dup4\n        /* \"#utility.yul\":1981:1995   */\n      add\n        /* \"#utility.yul\":1977:2005   */\n      and\n        /* \"#utility.yul\":1967:2005   */\n      swap1\n      pop\n        /* \"#utility.yul\":1909:2011   */\n      swap2\n      swap1\n      pop\n      jump\t// out\n        /* \"#utility.yul\":2017:2394   */\n    tag_90:\n        /* \"#utility.yul\":2105:2108   */\n      0x00\n        /* \"#utility.yul\":2133:2172   */\n      tag_158\n        /* \"#utility.yul\":2166:2171   */\n      dup3\n        /* \"#utility.yul\":2133:2172   */\n      tag_86\n      jump\t// in\n    tag_158:\n        /* \"#utility.yul\":2188:2259   */\n      tag_159\n        /* \"#utility.yul\":2252:2258   */\n      dup2\n        /* \"#utility.yul\":2247:2250   */\n      dup6\n        /* \"#utility.yul\":2188:2259   */\n      tag_87\n      jump\t// in\n    tag_159:\n        /* \"#utility.yul\":2181:2259   */\n      swap4\n      pop\n        /* \"#utility.yul\":2268:2333   */\n      tag_160\n        /* \"#utility.yul\":2326:2332   */\n      dup2\n        /* \"#utility.yul\":2321:2324   */\n      dup6\n        /* \"#utility.yul\":2314:2318   */\n      0x20\n        /* \"#utility.yul\":2307:2312   */\n      dup7\n        /* \"#utility.yul\":2303:2319   */\n      add\n        /* \"#utility.yul\":2268:2333   */\n      tag_88\n      jump\t// in\n    tag_160:\n        /* \"#utility.yul\":2358:2387   */\n      tag_161\n        /* \"#utility.yul\":2380:2386   */\n      dup2\n        /* \"#utility.yul\":2358:2387   */\n      tag_89\n      jump\t// in\n    tag_161:\n        /* \"#utility.yul\":2353:2356   */\n      dup5\n        /* \"#utility.yul\":2349:2388   */\n      add\n        /* \"#utility.yul\":2342:2388   */\n      swap2\n      pop\n        /* \"#utility.yul\":2109:2394   */\n      pop\n        /* \"#utility.yul\":2017:2394   */\n      swap3\n      swap2\n      pop\n      pop\n      jump\t// out\n        /* \"#utility.yul\":2400:2490   */\n    tag_91:\n        /* \"#utility.yul\":2434:2441   */\n      0x00\n        /* \"#utility.yul\":2477:2482   */\n      dup2\n        /* \"#utility.yul\":2470:2483   */\n      iszero\n        /* \"#utility.yul\":2463:2484   */\n      iszero\n        /* \"#utility.yul\":2452:2484   */\n      swap1\n      pop\n        /* \"#utility.yul\":2400:2490   */\n      swap2\n      swap1\n      pop\n      jump\t// out\n        /* \"#utility.yul\":2496:2605   */\n    tag_92:\n        /* \"#utility.yul\":2577:2598   */\n      tag_164\n        /* \"#utility.yul\":2592:2597   */\n      dup2\n        /* \"#utility.yul\":2577:2598   */\n      tag_91\n      jump\t// in\n    tag_164:\n        /* \"#utility.yul\":2572:2575   */\n      dup3\n        /* \"#utility.yul\":2565:2599   */\n      mstore\n        /* \"#utility.yul\":2496:2605   */\n      pop\n      pop\n      jump\t// out\n        /* \"#utility.yul\":2611:3223   */\n    tag_17:\n        /* \"#utility.yul\":2794:2798   */\n      0x00\n        /* \"#utility.yul\":2832:2834   */\n      0x60\n        /* \"#utility.yul\":2821:2830   */\n      dup3\n        /* \"#utility.yul\":2817:2835   */\n      add\n        /* \"#utility.yul\":2809:2835   */\n      swap1\n      pop\n        /* \"#utility.yul\":2881:2890   */\n      dup2\n        /* \"#utility.yul\":2875:2879   */\n      dup2\n        /* \"#utility.yul\":2871:2891   */\n      sub\n        /* \"#utility.yul\":2867:2868   */\n      0x00\n        /* \"#utility.yul\":2856:2865   */\n      dup4\n        /* \"#utility.yul\":2852:2869   */\n      add\n        /* \"#utility.yul\":2845:2892   */\n      mstore\n        /* \"#utility.yul\":2909:2987   */\n      tag_166\n        /* \"#utility.yul\":2982:2986   */\n      dup2\n        /* \"#utility.yul\":2973:2979   */\n      dup7\n        /* \"#utility.yul\":2909:2987   */\n      tag_90\n      jump\t// in\n    tag_166:\n        /* \"#utility.yul\":2901:2987   */\n      swap1\n      pop\n        /* \"#utility.yul\":3034:3043   */\n      dup2\n        /* \"#utility.yul\":3028:3032   */\n      dup2\n        /* \"#utility.yul\":3024:3044   */\n      sub\n        /* \"#utility.yul\":3019:3021   */\n      0x20\n        /* \"#utility.yul\":3008:3017   */\n      dup4\n        /* \"#utility.yul\":3004:3022   */\n      add\n        /* \"#utility.yul\":2997:3045   */\n      mstore\n        /* \"#utility.yul\":3062:3140   */\n      tag_167\n        /* \"#utility.yul\":3135:3139   */\n      dup2\n        /* \"#utility.yul\":3126:3132   */\n      dup6\n        /* \"#utility.yul\":3062:3140   */\n      tag_90\n      jump\t// in\n    tag_167:\n        /* \"#utility.yul\":3054:3140   */\n      swap1\n      pop\n        /* \"#utility.yul\":3150:3216   */\n      tag_168\n        /* \"#utility.yul\":3212:3214   */\n      0x40\n        /* \"#utility.yul\":3201:3210   */\n      dup4\n        /* \"#utility.yul\":3197:3215   */\n      add\n        /* \"#utility.yul\":3188:3194   */\n      dup5\n        /* \"#utility.yul\":3150:3216   */\n      tag_92\n      jump\t// in\n    tag_168:\n        /* \"#utility.yul\":2611:3223   */\n      swap5\n      swap4\n      pop\n      pop\n      pop\n      pop\n      jump\t// out\n        /* \"#utility.yul\":3229:3346   */\n    tag_93:\n        /* \"#utility.yul\":3338:3339   */\n      0x00\n        /* \"#utility.yul\":3335:3336   */\n      dup1\n        /* \"#utility.yul\":3328:3340   */\n      revert\n        /* \"#utility.yul\":3352:3469   */\n    tag_94:\n        /* \"#utility.yul\":3461:3462   */\n      0x00\n        /* \"#utility.yul\":3458:3459   */\n      dup1\n        /* \"#utility.yul\":3451:3463   */\n      revert\n        /* \"#utility.yul\":3475:3655   */\n    tag_95:\n        /* \"#utility.yul\":3523:3600   */\n      0x4e487b7100000000000000000000000000000000000000000000000000000000\n        /* \"#utility.yul\":3520:3521   */\n      0x00\n        /* \"#utility.yul\":3513:3601   */\n      mstore\n        /* \"#utility.yul\":3620:3624   */\n      0x41\n        /* \"#utility.yul\":3617:3618   */\n      0x04\n        /* \"#utility.yul\":3610:3625   */\n      mstore\n        /* \"#utility.yul\":3644:3648   */\n      0x24\n        /* \"#utility.yul\":3641:3642   */\n      0x00\n        /* \"#utility.yul\":3634:3649   */\n      revert\n        /* \"#utility.yul\":3661:3942   */\n    tag_96:\n        /* \"#utility.yul\":3744:3771   */\n      tag_173\n        /* \"#utility.yul\":3766:3770   */\n      dup3\n        /* \"#utility.yul\":3744:3771   */\n      tag_89\n      jump\t// in\n    tag_173:\n        /* \"#utility.yul\":3736:3742   */\n      dup2\n        /* \"#utility.yul\":3732:3772   */\n      add\n        /* \"#utility.yul\":3874:3880   */\n      dup2\n        /* \"#utility.yul\":3862:3872   */\n      dup2\n        /* \"#utility.yul\":3859:3881   */\n      lt\n        /* \"#utility.yul\":3838:3856   */\n      0xffffffffffffffff\n        /* \"#utility.yul\":3826:3836   */\n      dup3\n        /* \"#utility.yul\":3823:3857   */\n      gt\n        /* \"#utility.yul\":3820:3882   */\n      or\n        /* \"#utility.yul\":3817:3905   */\n      iszero\n      tag_174\n      jumpi\n        /* \"#utility.yul\":3885:3903   */\n      tag_175\n      tag_95\n      jump\t// in\n    tag_175:\n        /* \"#utility.yul\":3817:3905   */\n    tag_174:\n        /* \"#utility.yul\":3925:3935   */\n      dup1\n        /* \"#utility.yul\":3921:3923   */\n      0x40\n        /* \"#utility.yul\":3914:3936   */\n      mstore\n        /* \"#utility.yul\":3704:3942   */\n      pop\n        /* \"#utility.yul\":3661:3942   */\n      pop\n      pop\n      jump\t// out\n        /* \"#utility.yul\":3948:4077   */\n    tag_97:\n        /* \"#utility.yul\":3982:3988   */\n      0x00\n        /* \"#utility.yul\":4009:4029   */\n      tag_177\n      tag_81\n      jump\t// in\n    tag_177:\n        /* \"#utility.yul\":3999:4029   */\n      swap1\n      pop\n        /* \"#utility.yul\":4038:4071   */\n      tag_178\n        /* \"#utility.yul\":4066:4070   */\n      dup3\n        /* \"#utility.yul\":4058:4064   */\n      dup3\n        /* \"#utility.yul\":4038:4071   */\n      tag_96\n      jump\t// in\n    tag_178:\n        /* \"#utility.yul\":3948:4077   */\n      swap2\n      swap1\n      pop\n      jump\t// out\n        /* \"#utility.yul\":4083:4391   */\n    tag_98:\n        /* \"#utility.yul\":4145:4149   */\n      0x00\n        /* \"#utility.yul\":4235:4253   */\n      0xffffffffffffffff\n        /* \"#utility.yul\":4227:4233   */\n      dup3\n        /* \"#utility.yul\":4224:4254   */\n      gt\n        /* \"#utility.yul\":4221:4277   */\n      iszero\n      tag_180\n      jumpi\n        /* \"#utility.yul\":4257:4275   */\n      tag_181\n      tag_95\n      jump\t// in\n    tag_181:\n        /* \"#utility.yul\":4221:4277   */\n    tag_180:\n        /* \"#utility.yul\":4295:4324   */\n      tag_182\n        /* \"#utility.yul\":4317:4323   */\n      dup3\n        /* \"#utility.yul\":4295:4324   */\n      tag_89\n      jump\t// in\n    tag_182:\n        /* \"#utility.yul\":4287:4324   */\n      swap1\n      pop\n        /* \"#utility.yul\":4379:4383   */\n      0x20\n        /* \"#utility.yul\":4373:4377   */\n      dup2\n        /* \"#utility.yul\":4369:4384   */\n      add\n        /* \"#utility.yul\":4361:4384   */\n      swap1\n      pop\n        /* \"#utility.yul\":4083:4391   */\n      swap2\n      swap1\n      pop\n      jump\t// out\n        /* \"#utility.yul\":4397:4543   */\n    tag_99:\n        /* \"#utility.yul\":4494:4500   */\n      dup3\n        /* \"#utility.yul\":4489:4492   */\n      dup2\n        /* \"#utility.yul\":4484:4487   */\n      dup4\n        /* \"#utility.yul\":4471:4501   */\n      calldatacopy\n        /* \"#utility.yul\":4535:4536   */\n      0x00\n        /* \"#utility.yul\":4526:4532   */\n      dup4\n        /* \"#utility.yul\":4521:4524   */\n      dup4\n        /* \"#utility.yul\":4517:4533   */\n      add\n        /* \"#utility.yul\":4510:4537   */\n      mstore\n        /* \"#utility.yul\":4397:4543   */\n      pop\n      pop\n      pop\n      jump\t// out\n        /* \"#utility.yul\":4549:4974   */\n    tag_100:\n        /* \"#utility.yul\":4627:4632   */\n      0x00\n        /* \"#utility.yul\":4652:4718   */\n      tag_185\n        /* \"#utility.yul\":4668:4717   */\n      tag_186\n        /* \"#utility.yul\":4710:4716   */\n      dup5\n        /* \"#utility.yul\":4668:4717   */\n      tag_98\n      jump\t// in\n    tag_186:\n        /* \"#utility.yul\":4652:4718   */\n      tag_97\n      jump\t// in\n    tag_185:\n        /* \"#utility.yul\":4643:4718   */\n      swap1\n      pop\n        /* \"#utility.yul\":4741:4747   */\n      dup3\n        /* \"#utility.yul\":4734:4739   */\n      dup2\n        /* \"#utility.yul\":4727:4748   */\n      mstore\n        /* \"#utility.yul\":4779:4783   */\n      0x20\n        /* \"#utility.yul\":4772:4777   */\n      dup2\n        /* \"#utility.yul\":4768:4784   */\n      add\n        /* \"#utility.yul\":4817:4820   */\n      dup5\n        /* \"#utility.yul\":4808:4814   */\n      dup5\n        /* \"#utility.yul\":4803:4806   */\n      dup5\n        /* \"#utility.yul\":4799:4815   */\n      add\n        /* \"#utility.yul\":4796:4821   */\n      gt\n        /* \"#utility.yul\":4793:4905   */\n      iszero\n      tag_187\n      jumpi\n        /* \"#utility.yul\":4824:4903   */\n      tag_188\n      tag_94\n      jump\t// in\n    tag_188:\n        /* \"#utility.yul\":4793:4905   */\n    tag_187:\n        /* \"#utility.yul\":4914:4968   */\n      tag_189\n        /* \"#utility.yul\":4961:4967   */\n      dup5\n        /* \"#utility.yul\":4956:4959   */\n      dup3\n        /* \"#utility.yul\":4951:4954   */\n      dup6\n        /* \"#utility.yul\":4914:4968   */\n      tag_99\n      jump\t// in\n    tag_189:\n        /* \"#utility.yul\":4633:4974   */\n      pop\n        /* \"#utility.yul\":4549:4974   */\n      swap4\n      swap3\n      pop\n      pop\n      pop\n      jump\t// out\n        /* \"#utility.yul\":4994:5334   */\n    tag_101:\n        /* \"#utility.yul\":5050:5055   */\n      0x00\n        /* \"#utility.yul\":5099:5102   */\n      dup3\n        /* \"#utility.yul\":5092:5096   */\n      0x1f\n        /* \"#utility.yul\":5084:5090   */\n      dup4\n        /* \"#utility.yul\":5080:5097   */\n      add\n        /* \"#utility.yul\":5076:5103   */\n      slt\n        /* \"#utility.yul\":5066:5188   */\n      tag_191\n      jumpi\n        /* \"#utility.yul\":5107:5186   */\n      tag_192\n      tag_93\n      jump\t// in\n    tag_192:\n        /* \"#utility.yul\":5066:5188   */\n    tag_191:\n        /* \"#utility.yul\":5224:5230   */\n      dup2\n        /* \"#utility.yul\":5211:5231   */\n      calldataload\n        /* \"#utility.yul\":5249:5328   */\n      tag_193\n        /* \"#utility.yul\":5324:5327   */\n      dup5\n        /* \"#utility.yul\":5316:5322   */\n      dup3\n        /* \"#utility.yul\":5309:5313   */\n      0x20\n        /* \"#utility.yul\":5301:5307   */\n      dup7\n        /* \"#utility.yul\":5297:5314   */\n      add\n        /* \"#utility.yul\":5249:5328   */\n      tag_100\n      jump\t// in\n    tag_193:\n        /* \"#utility.yul\":5240:5328   */\n      swap2\n      pop\n        /* \"#utility.yul\":5056:5334   */\n      pop\n        /* \"#utility.yul\":4994:5334   */\n      swap3\n      swap2\n      pop\n      pop\n      jump\t// out\n        /* \"#utility.yul\":5340:6174   */\n    tag_20:\n        /* \"#utility.yul\":5428:5434   */\n      0x00\n        /* \"#utility.yul\":5436:5442   */\n      dup1\n        /* \"#utility.yul\":5485:5487   */\n      0x40\n        /* \"#utility.yul\":5473:5482   */\n      dup4\n        /* \"#utility.yul\":5464:5471   */\n      dup6\n        /* \"#utility.yul\":5460:5483   */\n      sub\n        /* \"#utility.yul\":5456:5488   */\n      slt\n        /* \"#utility.yul\":5453:5572   */\n      iszero\n      tag_195\n      jumpi\n        /* \"#utility.yul\":5491:5570   */\n      tag_196\n      tag_82\n      jump\t// in\n    tag_196:\n        /* \"#utility.yul\":5453:5572   */\n    tag_195:\n        /* \"#utility.yul\":5639:5640   */\n      0x00\n        /* \"#utility.yul\":5628:5637   */\n      dup4\n        /* \"#utility.yul\":5624:5641   */\n      add\n        /* \"#utility.yul\":5611:5642   */\n      calldataload\n        /* \"#utility.yul\":5669:5687   */\n      0xffffffffffffffff\n        /* \"#utility.yul\":5661:5667   */\n      dup2\n        /* \"#utility.yul\":5658:5688   */\n      gt\n        /* \"#utility.yul\":5655:5772   */\n      iszero\n      tag_197\n      jumpi\n        /* \"#utility.yul\":5691:5770   */\n      tag_198\n      tag_83\n      jump\t// in\n    tag_198:\n        /* \"#utility.yul\":5655:5772   */\n    tag_197:\n        /* \"#utility.yul\":5796:5859   */\n      tag_199\n        /* \"#utility.yul\":5851:5858   */\n      dup6\n        /* \"#utility.yul\":5842:5848   */\n      dup3\n        /* \"#utility.yul\":5831:5840   */\n      dup7\n        /* \"#utility.yul\":5827:5849   */\n      add\n        /* \"#utility.yul\":5796:5859   */\n      tag_101\n      jump\t// in\n    tag_199:\n        /* \"#utility.yul\":5786:5859   */\n      swap3\n      pop\n        /* \"#utility.yul\":5582:5869   */\n      pop\n        /* \"#utility.yul\":5936:5938   */\n      0x20\n        /* \"#utility.yul\":5925:5934   */\n      dup4\n        /* \"#utility.yul\":5921:5939   */\n      add\n        /* \"#utility.yul\":5908:5940   */\n      calldataload\n        /* \"#utility.yul\":5967:5985   */\n      0xffffffffffffffff\n        /* \"#utility.yul\":5959:5965   */\n      dup2\n        /* \"#utility.yul\":5956:5986   */\n      gt\n        /* \"#utility.yul\":5953:6070   */\n      iszero\n      tag_200\n      jumpi\n        /* \"#utility.yul\":5989:6068   */\n      tag_201\n      tag_83\n      jump\t// in\n    tag_201:\n        /* \"#utility.yul\":5953:6070   */\n    tag_200:\n        /* \"#utility.yul\":6094:6157   */\n      tag_202\n        /* \"#utility.yul\":6149:6156   */\n      dup6\n        /* \"#utility.yul\":6140:6146   */\n      dup3\n        /* \"#utility.yul\":6129:6138   */\n      dup7\n        /* \"#utility.yul\":6125:6147   */\n      add\n        /* \"#utility.yul\":6094:6157   */\n      tag_101\n      jump\t// in\n    tag_202:\n        /* \"#utility.yul\":6084:6157   */\n      swap2\n      pop\n        /* \"#utility.yul\":5879:6167   */\n      pop\n        /* \"#utility.yul\":5340:6174   */\n      swap3\n      pop\n      swap3\n      swap1\n      pop\n      jump\t// out\n        /* \"#utility.yul\":6180:6306   */\n    tag_102:\n        /* \"#utility.yul\":6217:6224   */\n      0x00\n        /* \"#utility.yul\":6257:6299   */\n      0xffffffffffffffffffffffffffffffffffffffff\n        /* \"#utility.yul\":6250:6255   */\n      dup3\n        /* \"#utility.yul\":6246:6300   */\n      and\n        /* \"#utility.yul\":6235:6300   */\n      swap1\n      pop\n        /* \"#utility.yul\":6180:6306   */\n      swap2\n      swap1\n      pop\n      jump\t// out\n        /* \"#utility.yul\":6312:6408   */\n    tag_103:\n        /* \"#utility.yul\":6349:6356   */\n      0x00\n        /* \"#utility.yul\":6378:6402   */\n      tag_205\n        /* \"#utility.yul\":6396:6401   */\n      dup3\n        /* \"#utility.yul\":6378:6402   */\n      tag_102\n      jump\t// in\n    tag_205:\n        /* \"#utility.yul\":6367:6402   */\n      swap1\n      pop\n        /* \"#utility.yul\":6312:6408   */\n      swap2\n      swap1\n      pop\n      jump\t// out\n        /* \"#utility.yul\":6414:6532   */\n    tag_104:\n        /* \"#utility.yul\":6501:6525   */\n      tag_207\n        /* \"#utility.yul\":6519:6524   */\n      dup2\n        /* \"#utility.yul\":6501:6525   */\n      tag_103\n      jump\t// in\n    tag_207:\n        /* \"#utility.yul\":6496:6499   */\n      dup3\n        /* \"#utility.yul\":6489:6526   */\n      mstore\n        /* \"#utility.yul\":6414:6532   */\n      pop\n      pop\n      jump\t// out\n        /* \"#utility.yul\":6538:7471   */\n    tag_30:\n        /* \"#utility.yul\":6799:6803   */\n      0x00\n        /* \"#utility.yul\":6837:6840   */\n      0xc0\n        /* \"#utility.yul\":6826:6835   */\n      dup3\n        /* \"#utility.yul\":6822:6841   */\n      add\n        /* \"#utility.yul\":6814:6841   */\n      swap1\n      pop\n        /* \"#utility.yul\":6851:6922   */\n      tag_209\n        /* \"#utility.yul\":6919:6920   */\n      0x00\n        /* \"#utility.yul\":6908:6917   */\n      dup4\n        /* \"#utility.yul\":6904:6921   */\n      add\n        /* \"#utility.yul\":6895:6901   */\n      dup10\n        /* \"#utility.yul\":6851:6922   */\n      tag_80\n      jump\t// in\n    tag_209:\n        /* \"#utility.yul\":6969:6978   */\n      dup2\n        /* \"#utility.yul\":6963:6967   */\n      dup2\n        /* \"#utility.yul\":6959:6979   */\n      sub\n        /* \"#utility.yul\":6954:6956   */\n      0x20\n        /* \"#utility.yul\":6943:6952   */\n      dup4\n        /* \"#utility.yul\":6939:6957   */\n      add\n        /* \"#utility.yul\":6932:6980   */\n      mstore\n        /* \"#utility.yul\":6997:7075   */\n      tag_210\n        /* \"#utility.yul\":7070:7074   */\n      dup2\n        /* \"#utility.yul\":7061:7067   */\n      dup9\n        /* \"#utility.yul\":6997:7075   */\n      tag_90\n      jump\t// in\n    tag_210:\n        /* \"#utility.yul\":6989:7075   */\n      swap1\n      pop\n        /* \"#utility.yul\":7122:7131   */\n      dup2\n        /* \"#utility.yul\":7116:7120   */\n      dup2\n        /* \"#utility.yul\":7112:7132   */\n      sub\n        /* \"#utility.yul\":7107:7109   */\n      0x40\n        /* \"#utility.yul\":7096:7105   */\n      dup4\n        /* \"#utility.yul\":7092:7110   */\n      add\n        /* \"#utility.yul\":7085:7133   */\n      mstore\n        /* \"#utility.yul\":7150:7228   */\n      tag_211\n        /* \"#utility.yul\":7223:7227   */\n      dup2\n        /* \"#utility.yul\":7214:7220   */\n      dup8\n        /* \"#utility.yul\":7150:7228   */\n      tag_90\n      jump\t// in\n    tag_211:\n        /* \"#utility.yul\":7142:7228   */\n      swap1\n      pop\n        /* \"#utility.yul\":7238:7304   */\n      tag_212\n        /* \"#utility.yul\":7300:7302   */\n      0x60\n        /* \"#utility.yul\":7289:7298   */\n      dup4\n        /* \"#utility.yul\":7285:7303   */\n      add\n        /* \"#utility.yul\":7276:7282   */\n      dup7\n        /* \"#utility.yul\":7238:7304   */\n      tag_92\n      jump\t// in\n    tag_212:\n        /* \"#utility.yul\":7314:7381   */\n      tag_213\n        /* \"#utility.yul\":7376:7379   */\n      0x80\n        /* \"#utility.yul\":7365:7374   */\n      dup4\n        /* \"#utility.yul\":7361:7380   */\n      add\n        /* \"#utility.yul\":7352:7358   */\n      dup6\n        /* \"#utility.yul\":7314:7381   */\n      tag_92\n      jump\t// in\n    tag_213:\n        /* \"#utility.yul\":7391:7464   */\n      tag_214\n        /* \"#utility.yul\":7459:7462   */\n      0xa0\n        /* \"#utility.yul\":7448:7457   */\n      dup4\n        /* \"#utility.yul\":7444:7463   */\n      add\n        /* \"#utility.yul\":7435:7441   */\n      dup5\n        /* \"#utility.yul\":7391:7464   */\n      tag_104\n      jump\t// in\n    tag_214:\n        /* \"#utility.yul\":6538:7471   */\n      swap8\n      swap7\n      pop\n      pop\n      pop\n      pop\n      pop\n      pop\n      pop\n      jump\t// out\n        /* \"#utility.yul\":7477:7650   */\n    tag_105:\n        /* \"#utility.yul\":7617:7642   */\n      0x4964656e7469747920646f65736e6f7420457869737473000000000000000000\n        /* \"#utility.yul\":7613:7614   */\n      0x00\n        /* \"#utility.yul\":7605:7611   */\n      dup3\n        /* \"#utility.yul\":7601:7615   */\n      add\n        /* \"#utility.yul\":7594:7643   */\n      mstore\n        /* \"#utility.yul\":7477:7650   */\n      pop\n      jump\t// out\n        /* \"#utility.yul\":7656:8022   */\n    tag_106:\n        /* \"#utility.yul\":7798:7801   */\n      0x00\n        /* \"#utility.yul\":7819:7886   */\n      tag_217\n        /* \"#utility.yul\":7883:7885   */\n      0x17\n        /* \"#utility.yul\":7878:7881   */\n      dup4\n        /* \"#utility.yul\":7819:7886   */\n      tag_87\n      jump\t// in\n    tag_217:\n        /* \"#utility.yul\":7812:7886   */\n      swap2\n      pop\n        /* \"#utility.yul\":7895:7988   */\n      tag_218\n        /* \"#utility.yul\":7984:7987   */\n      dup3\n        /* \"#utility.yul\":7895:7988   */\n      tag_105\n      jump\t// in\n    tag_218:\n        /* \"#utility.yul\":8013:8015   */\n      0x20\n        /* \"#utility.yul\":8008:8011   */\n      dup3\n        /* \"#utility.yul\":8004:8016   */\n      add\n        /* \"#utility.yul\":7997:8016   */\n      swap1\n      pop\n        /* \"#utility.yul\":7656:8022   */\n      swap2\n      swap1\n      pop\n      jump\t// out\n        /* \"#utility.yul\":8028:8447   */\n    tag_34:\n        /* \"#utility.yul\":8194:8198   */\n      0x00\n        /* \"#utility.yul\":8232:8234   */\n      0x20\n        /* \"#utility.yul\":8221:8230   */\n      dup3\n        /* \"#utility.yul\":8217:8235   */\n      add\n        /* \"#utility.yul\":8209:8235   */\n      swap1\n      pop\n        /* \"#utility.yul\":8281:8290   */\n      dup2\n        /* \"#utility.yul\":8275:8279   */\n      dup2\n        /* \"#utility.yul\":8271:8291   */\n      sub\n        /* \"#utility.yul\":8267:8268   */\n      0x00\n        /* \"#utility.yul\":8256:8265   */\n      dup4\n        /* \"#utility.yul\":8252:8269   */\n      add\n        /* \"#utility.yul\":8245:8292   */\n      mstore\n        /* \"#utility.yul\":8309:8440   */\n      tag_220\n        /* \"#utility.yul\":8435:8439   */\n      dup2\n        /* \"#utility.yul\":8309:8440   */\n      tag_106\n      jump\t// in\n    tag_220:\n        /* \"#utility.yul\":8301:8440   */\n      swap1\n      pop\n        /* \"#utility.yul\":8028:8447   */\n      swap2\n      swap1\n      pop\n      jump\t// out\n        /* \"#utility.yul\":8453:8633   */\n    tag_107:\n        /* \"#utility.yul\":8501:8578   */\n      0x4e487b7100000000000000000000000000000000000000000000000000000000\n        /* \"#utility.yul\":8498:8499   */\n      0x00\n        /* \"#utility.yul\":8491:8579   */\n      mstore\n        /* \"#utility.yul\":8598:8602   */\n      0x22\n        /* \"#utility.yul\":8595:8596   */\n      0x04\n        /* \"#utility.yul\":8588:8603   */\n      mstore\n        /* \"#utility.yul\":8622:8626   */\n      0x24\n        /* \"#utility.yul\":8619:8620   */\n      0x00\n        /* \"#utility.yul\":8612:8627   */\n      revert\n        /* \"#utility.yul\":8639:8959   */\n    tag_36:\n        /* \"#utility.yul\":8683:8689   */\n      0x00\n        /* \"#utility.yul\":8720:8721   */\n      0x02\n        /* \"#utility.yul\":8714:8718   */\n      dup3\n        /* \"#utility.yul\":8710:8722   */\n      div\n        /* \"#utility.yul\":8700:8722   */\n      swap1\n      pop\n        /* \"#utility.yul\":8767:8768   */\n      0x01\n        /* \"#utility.yul\":8761:8765   */\n      dup3\n        /* \"#utility.yul\":8757:8769   */\n      and\n        /* \"#utility.yul\":8788:8806   */\n      dup1\n        /* \"#utility.yul\":8778:8859   */\n      tag_223\n      jumpi\n        /* \"#utility.yul\":8844:8848   */\n      0x7f\n        /* \"#utility.yul\":8836:8842   */\n      dup3\n        /* \"#utility.yul\":8832:8849   */\n      and\n        /* \"#utility.yul\":8822:8849   */\n      swap2\n      pop\n        /* \"#utility.yul\":8778:8859   */\n    tag_223:\n        /* \"#utility.yul\":8906:8908   */\n      0x20\n        /* \"#utility.yul\":8898:8904   */\n      dup3\n        /* \"#utility.yul\":8895:8909   */\n      lt\n        /* \"#utility.yul\":8875:8893   */\n      dup2\n        /* \"#utility.yul\":8872:8910   */\n      sub\n        /* \"#utility.yul\":8869:8953   */\n      tag_224\n      jumpi\n        /* \"#utility.yul\":8925:8943   */\n      tag_225\n      tag_107\n      jump\t// in\n    tag_225:\n        /* \"#utility.yul\":8869:8953   */\n    tag_224:\n        /* \"#utility.yul\":8690:8959   */\n      pop\n        /* \"#utility.yul\":8639:8959   */\n      swap2\n      swap1\n      pop\n      jump\t// out\n        /* \"#utility.yul\":8965:9131   */\n    tag_108:\n        /* \"#utility.yul\":9105:9123   */\n      0x4e616d6520697320726571756972656400000000000000000000000000000000\n        /* \"#utility.yul\":9101:9102   */\n      0x00\n        /* \"#utility.yul\":9093:9099   */\n      dup3\n        /* \"#utility.yul\":9089:9103   */\n      add\n        /* \"#utility.yul\":9082:9124   */\n      mstore\n        /* \"#utility.yul\":8965:9131   */\n      pop\n      jump\t// out\n        /* \"#utility.yul\":9137:9503   */\n    tag_109:\n        /* \"#utility.yul\":9279:9282   */\n      0x00\n        /* \"#utility.yul\":9300:9367   */\n      tag_228\n        /* \"#utility.yul\":9364:9366   */\n      0x10\n        /* \"#utility.yul\":9359:9362   */\n      dup4\n        /* \"#utility.yul\":9300:9367   */\n      tag_87\n      jump\t// in\n    tag_228:\n        /* \"#utility.yul\":9293:9367   */\n      swap2\n      pop\n        /* \"#utility.yul\":9376:9469   */\n      tag_229\n        /* \"#utility.yul\":9465:9468   */\n      dup3\n        /* \"#utility.yul\":9376:9469   */\n      tag_108\n      jump\t// in\n    tag_229:\n        /* \"#utility.yul\":9494:9496   */\n      0x20\n        /* \"#utility.yul\":9489:9492   */\n      dup3\n        /* \"#utility.yul\":9485:9497   */\n      add\n        /* \"#utility.yul\":9478:9497   */\n      swap1\n      pop\n        /* \"#utility.yul\":9137:9503   */\n      swap2\n      swap1\n      pop\n      jump\t// out\n        /* \"#utility.yul\":9509:9928   */\n    tag_49:\n        /* \"#utility.yul\":9675:9679   */\n      0x00\n        /* \"#utility.yul\":9713:9715   */\n      0x20\n        /* \"#utility.yul\":9702:9711   */\n      dup3\n        /* \"#utility.yul\":9698:9716   */\n      add\n        /* \"#utility.yul\":9690:9716   */\n      swap1\n      pop\n        /* \"#utility.yul\":9762:9771   */\n      dup2\n        /* \"#utility.yul\":9756:9760   */\n      dup2\n        /* \"#utility.yul\":9752:9772   */\n      sub\n        /* \"#utility.yul\":9748:9749   */\n      0x00\n        /* \"#utility.yul\":9737:9746   */\n      dup4\n        /* \"#utility.yul\":9733:9750   */\n      add\n        /* \"#utility.yul\":9726:9773   */\n      mstore\n        /* \"#utility.yul\":9790:9921   */\n      tag_231\n        /* \"#utility.yul\":9916:9920   */\n      dup2\n        /* \"#utility.yul\":9790:9921   */\n      tag_109\n      jump\t// in\n    tag_231:\n        /* \"#utility.yul\":9782:9921   */\n      swap1\n      pop\n        /* \"#utility.yul\":9509:9928   */\n      swap2\n      swap1\n      pop\n      jump\t// out\n        /* \"#utility.yul\":9934:10101   */\n    tag_110:\n        /* \"#utility.yul\":10074:10093   */\n      0x456d61696c206973207265717569726564000000000000000000000000000000\n        /* \"#utility.yul\":10070:10071   */\n      0x00\n        /* \"#utility.yul\":10062:10068   */\n      dup3\n        /* \"#utility.yul\":10058:10072   */\n      add\n        /* \"#utility.yul\":10051:10094   */\n      mstore\n        /* \"#utility.yul\":9934:10101   */\n      pop\n      jump\t// out\n        /* \"#utility.yul\":10107:10473   */\n    tag_111:\n        /* \"#utility.yul\":10249:10252   */\n      0x00\n        /* \"#utility.yul\":10270:10337   */\n      tag_234\n        /* \"#utility.yul\":10334:10336   */\n      0x11\n        /* \"#utility.yul\":10329:10332   */\n      dup4\n        /* \"#utility.yul\":10270:10337   */\n      tag_87\n      jump\t// in\n    tag_234:\n        /* \"#utility.yul\":10263:10337   */\n      swap2\n      pop\n        /* \"#utility.yul\":10346:10439   */\n      tag_235\n        /* \"#utility.yul\":10435:10438   */\n      dup3\n        /* \"#utility.yul\":10346:10439   */\n      tag_110\n      jump\t// in\n    tag_235:\n        /* \"#utility.yul\":10464:10466   */\n      0x20\n        /* \"#utility.yul\":10459:10462   */\n      dup3\n        /* \"#utility.yul\":10455:10467   */\n      add\n        /* \"#utility.yul\":10448:10467   */\n      swap1\n      pop\n        /* \"#utility.yul\":10107:10473   */\n      swap2\n      swap1\n      pop\n      jump\t// out\n        /* \"#utility.yul\":10479:10898   */\n    tag_52:\n        /* \"#utility.yul\":10645:10649   */\n      0x00\n        /* \"#utility.yul\":10683:10685   */\n      0x20\n        /* \"#utility.yul\":10672:10681   */\n      dup3\n        /* \"#utility.yul\":10668:10686   */\n      add\n        /* \"#utility.yul\":10660:10686   */\n      swap1\n      pop\n        /* \"#utility.yul\":10732:10741   */\n      dup2\n        /* \"#utility.yul\":10726:10730   */\n      dup2\n        /* \"#utility.yul\":10722:10742   */\n      sub\n        /* \"#utility.yul\":10718:10719   */\n      0x00\n        /* \"#utility.yul\":10707:10716   */\n      dup4\n        /* \"#utility.yul\":10703:10720   */\n      add\n        /* \"#utility.yul\":10696:10743   */\n      mstore\n        /* \"#utility.yul\":10760:10891   */\n      tag_237\n        /* \"#utility.yul\":10886:10890   */\n      dup2\n        /* \"#utility.yul\":10760:10891   */\n      tag_111\n      jump\t// in\n    tag_237:\n        /* \"#utility.yul\":10752:10891   */\n      swap1\n      pop\n        /* \"#utility.yul\":10479:10898   */\n      swap2\n      swap1\n      pop\n      jump\t// out\n        /* \"#utility.yul\":10904:11084   */\n    tag_112:\n        /* \"#utility.yul\":10952:11029   */\n      0x4e487b7100000000000000000000000000000000000000000000000000000000\n        /* \"#utility.yul\":10949:10950   */\n      0x00\n        /* \"#utility.yul\":10942:11030   */\n      mstore\n        /* \"#utility.yul\":11049:11053   */\n      0x11\n        /* \"#utility.yul\":11046:11047   */\n      0x04\n        /* \"#utility.yul\":11039:11054   */\n      mstore\n        /* \"#utility.yul\":11073:11077   */\n      0x24\n        /* \"#utility.yul\":11070:11071   */\n      0x00\n        /* \"#utility.yul\":11063:11078   */\n      revert\n        /* \"#utility.yul\":11090:11323   */\n    tag_54:\n        /* \"#utility.yul\":11129:11132   */\n      0x00\n        /* \"#utility.yul\":11152:11176   */\n      tag_240\n        /* \"#utility.yul\":11170:11175   */\n      dup3\n        /* \"#utility.yul\":11152:11176   */\n      tag_79\n      jump\t// in\n    tag_240:\n        /* \"#utility.yul\":11143:11176   */\n      swap2\n      pop\n        /* \"#utility.yul\":11198:11264   */\n      0xffffffffffffffffffffffffffffffffffffffffffffffffffffffffffffffff\n        /* \"#utility.yul\":11191:11196   */\n      dup3\n        /* \"#utility.yul\":11188:11265   */\n      sub\n        /* \"#utility.yul\":11185:11288   */\n      tag_241\n      jumpi\n        /* \"#utility.yul\":11268:11286   */\n      tag_242\n      tag_112\n      jump\t// in\n    tag_242:\n        /* \"#utility.yul\":11185:11288   */\n    tag_241:\n        /* \"#utility.yul\":11315:11316   */\n      0x01\n        /* \"#utility.yul\":11308:11313   */\n      dup3\n        /* \"#utility.yul\":11304:11317   */\n      add\n        /* \"#utility.yul\":11297:11317   */\n      swap1\n      pop\n        /* \"#utility.yul\":11090:11323   */\n      swap2\n      swap1\n      pop\n      jump\t// out\n        /* \"#utility.yul\":11329:11470   */\n    tag_113:\n        /* \"#utility.yul\":11378:11382   */\n      0x00\n        /* \"#utility.yul\":11401:11404   */\n      dup2\n        /* \"#utility.yul\":11393:11404   */\n      swap1\n      pop\n        /* \"#utility.yul\":11424:11427   */\n      dup2\n        /* \"#utility.yul\":11421:11422   */\n      0x00\n        /* \"#utility.yul\":11414:11428   */\n      mstore\n        /* \"#utility.yul\":11458:11462   */\n      0x20\n        /* \"#utility.yul\":11455:11456   */\n      0x00\n        /* \"#utility.yul\":11445:11463   */\n      keccak256\n        /* \"#utility.yul\":11437:11463   */\n      swap1\n      pop\n        /* \"#utility.yul\":11329:11470   */\n      swap2\n      swap1\n      pop\n      jump\t// out\n        /* \"#utility.yul\":11476:11569   */\n    tag_114:\n        /* \"#utility.yul\":11513:11519   */\n      0x00\n        /* \"#utility.yul\":11560:11562   */\n      0x20\n        /* \"#utility.yul\":11555:11557   */\n      0x1f\n        /* \"#utility.yul\":11548:11553   */\n      dup4\n        /* \"#utility.yul\":11544:11558   */\n      add\n        /* \"#utility.yul\":11540:11563   */\n      div\n        /* \"#utility.yul\":11530:11563   */\n      swap1\n      pop\n        /* \"#utility.yul\":11476:11569   */\n      swap2\n      swap1\n      pop\n      jump\t// out\n        /* \"#utility.yul\":11575:11682   */\n    tag_115:\n        /* \"#utility.yul\":11619:11627   */\n      0x00\n        /* \"#utility.yul\":11669:11674   */\n      dup3\n        /* \"#utility.yul\":11663:11667   */\n      dup3\n        /* \"#utility.yul\":11659:11675   */\n      shl\n        /* \"#utility.yul\":11638:11675   */\n      swap1\n      pop\n        /* \"#utility.yul\":11575:11682   */\n      swap3\n      swap2\n      pop\n      pop\n      jump\t// out\n        /* \"#utility.yul\":11688:12081   */\n    tag_116:\n        /* \"#utility.yul\":11757:11763   */\n      0x00\n        /* \"#utility.yul\":11807:11808   */\n      0x08\n        /* \"#utility.yul\":11795:11805   */\n      dup4\n        /* \"#utility.yul\":11791:11809   */\n      mul\n        /* \"#utility.yul\":11830:11927   */\n      tag_247\n        /* \"#utility.yul\":11860:11926   */\n      0xffffffffffffffffffffffffffffffffffffffffffffffffffffffffffffffff\n        /* \"#utility.yul\":11849:11858   */\n      dup3\n        /* \"#utility.yul\":11830:11927   */\n      tag_115\n      jump\t// in\n    tag_247:\n        /* \"#utility.yul\":11948:11987   */\n      tag_248\n        /* \"#utility.yul\":11978:11986   */\n      dup7\n        /* \"#utility.yul\":11967:11976   */\n      dup4\n        /* \"#utility.yul\":11948:11987   */\n      tag_115\n      jump\t// in\n    tag_248:\n        /* \"#utility.yul\":11936:11987   */\n      swap6\n      pop\n        /* \"#utility.yul\":12020:12024   */\n      dup1\n        /* \"#utility.yul\":12016:12025   */\n      not\n        /* \"#utility.yul\":12009:12014   */\n      dup5\n        /* \"#utility.yul\":12005:12026   */\n      and\n        /* \"#utility.yul\":11996:12026   */\n      swap4\n      pop\n        /* \"#utility.yul\":12069:12073   */\n      dup1\n        /* \"#utility.yul\":12059:12067   */\n      dup7\n        /* \"#utility.yul\":12055:12074   */\n      and\n        /* \"#utility.yul\":12048:12053   */\n      dup5\n        /* \"#utility.yul\":12045:12075   */\n      or\n        /* \"#utility.yul\":12035:12075   */\n      swap3\n      pop\n        /* \"#utility.yul\":11764:12081   */\n      pop\n      pop\n        /* \"#utility.yul\":11688:12081   */\n      swap4\n      swap3\n      pop\n      pop\n      pop\n      jump\t// out\n        /* \"#utility.yul\":12087:12147   */\n    tag_117:\n        /* \"#utility.yul\":12115:12118   */\n      0x00\n        /* \"#utility.yul\":12136:12141   */\n      dup2\n        /* \"#utility.yul\":12129:12141   */\n      swap1\n      pop\n        /* \"#utility.yul\":12087:12147   */\n      swap2\n      swap1\n      pop\n      jump\t// out\n        /* \"#utility.yul\":12153:12295   */\n    tag_118:\n        /* \"#utility.yul\":12203:12212   */\n      0x00\n        /* \"#utility.yul\":12236:12289   */\n      tag_251\n        /* \"#utility.yul\":12254:12288   */\n      tag_252\n        /* \"#utility.yul\":12263:12287   */\n      tag_253\n        /* \"#utility.yul\":12281:12286   */\n      dup5\n        /* \"#utility.yul\":12263:12287   */\n      tag_79\n      jump\t// in\n    tag_253:\n        /* \"#utility.yul\":12254:12288   */\n      tag_117\n      jump\t// in\n    tag_252:\n        /* \"#utility.yul\":12236:12289   */\n      tag_79\n      jump\t// in\n    tag_251:\n        /* \"#utility.yul\":12223:12289   */\n      swap1\n      pop\n        /* \"#utility.yul\":12153:12295   */\n      swap2\n      swap1\n      pop\n      jump\t// out\n        /* \"#utility.yul\":12301:12376   */\n    tag_119:\n        /* \"#utility.yul\":12344:12347   */\n      0x00\n        /* \"#utility.yul\":12365:12370   */\n      dup2\n        /* \"#utility.yul\":12358:12370   */\n      swap1\n      pop\n        /* \"#utility.yul\":12301:12376   */\n      swap2\n      swap1\n      pop\n      jump\t// out\n        /* \"#utility.yul\":12382:12651   */\n    tag_120:\n        /* \"#utility.yul\":12492:12531   */\n      tag_256\n        /* \"#utility.yul\":12523:12530   */\n      dup4\n        /* \"#utility.yul\":12492:12531   */\n      tag_118\n      jump\t// in\n    tag_256:\n        /* \"#utility.yul\":12553:12644   */\n      tag_257\n        /* \"#utility.yul\":12602:12643   */\n      tag_258\n        /* \"#utility.yul\":12626:12642   */\n      dup3\n        /* \"#utility.yul\":12602:12643   */\n      tag_119\n      jump\t// in\n    tag_258:\n        /* \"#utility.yul\":12594:12600   */\n      dup5\n        /* \"#utility.yul\":12587:12591   */\n      dup5\n        /* \"#utility.yul\":12581:12592   */\n      sload\n        /* \"#utility.yul\":12553:12644   */\n      tag_116\n      jump\t// in\n    tag_257:\n        /* \"#utility.yul\":12547:12551   */\n      dup3\n        /* \"#utility.yul\":12540:12645   */\n      sstore\n        /* \"#utility.yul\":12458:12651   */\n      pop\n        /* \"#utility.yul\":12382:12651   */\n      pop\n      pop\n      pop\n      jump\t// out\n        /* \"#utility.yul\":12657:12730   */\n    tag_121:\n        /* \"#utility.yul\":12702:12705   */\n      0x00\n        /* \"#utility.yul\":12657:12730   */\n      swap1\n      jump\t// out\n        /* \"#utility.yul\":12736:12925   */\n    tag_122:\n        /* \"#utility.yul\":12813:12845   */\n      tag_261\n      tag_121\n      jump\t// in\n    tag_261:\n        /* \"#utility.yul\":12854:12919   */\n      tag_262\n        /* \"#utility.yul\":12912:12918   */\n      dup2\n        /* \"#utility.yul\":12904:12910   */\n      dup5\n        /* \"#utility.yul\":12898:12902   */\n      dup5\n        /* \"#utility.yul\":12854:12919   */\n      tag_120\n      jump\t// in\n    tag_262:\n        /* \"#utility.yul\":12789:12925   */\n      pop\n        /* \"#utility.yul\":12736:12925   */\n      pop\n      pop\n      jump\t// out\n        /* \"#utility.yul\":12931:13117   */\n    tag_123:\n        /* \"#utility.yul\":12991:13111   */\n    tag_264:\n        /* \"#utility.yul\":13008:13011   */\n      dup2\n        /* \"#utility.yul\":13001:13006   */\n      dup2\n        /* \"#utility.yul\":12998:13012   */\n      lt\n        /* \"#utility.yul\":12991:13111   */\n      iszero\n      tag_266\n      jumpi\n        /* \"#utility.yul\":13062:13101   */\n      tag_267\n        /* \"#utility.yul\":13099:13100   */\n      0x00\n        /* \"#utility.yul\":13092:13097   */\n      dup3\n        /* \"#utility.yul\":13062:13101   */\n      tag_122\n      jump\t// in\n    tag_267:\n        /* \"#utility.yul\":13035:13036   */\n      0x01\n        /* \"#utility.yul\":13028:13033   */\n      dup2\n        /* \"#utility.yul\":13024:13037   */\n      add\n        /* \"#utility.yul\":13015:13037   */\n      swap1\n      pop\n        /* \"#utility.yul\":12991:13111   */\n      jump(tag_264)\n    tag_266:\n        /* \"#utility.yul\":12931:13117   */\n      pop\n      pop\n      jump\t// out\n        /* \"#utility.yul\":13123:13666   */\n    tag_124:\n        /* \"#utility.yul\":13224:13226   */\n      0x1f\n        /* \"#utility.yul\":13219:13222   */\n      dup3\n        /* \"#utility.yul\":13216:13227   */\n      gt\n        /* \"#utility.yul\":13213:13659   */\n      iszero\n      tag_269\n      jumpi\n        /* \"#utility.yul\":13258:13296   */\n      tag_270\n        /* \"#utility.yul\":13290:13295   */\n      dup2\n        /* \"#utility.yul\":13258:13296   */\n      tag_113\n      jump\t// in\n    tag_270:\n        /* \"#utility.yul\":13342:13371   */\n      tag_271\n        /* \"#utility.yul\":13360:13370   */\n      dup5\n        /* \"#utility.yul\":13342:13371   */\n      tag_114\n      jump\t// in\n    tag_271:\n        /* \"#utility.yul\":13332:13340   */\n      dup2\n        /* \"#utility.yul\":13328:13372   */\n      add\n        /* \"#utility.yul\":13525:13527   */\n      0x20\n        /* \"#utility.yul\":13513:13523   */\n      dup6\n        /* \"#utility.yul\":13510:13528   */\n      lt\n        /* \"#utility.yul\":13507:13556   */\n      iszero\n      tag_272\n      jumpi\n        /* \"#utility.yul\":13546:13554   */\n      dup2\n        /* \"#utility.yul\":13531:13554   */\n      swap1\n      pop\n        /* \"#utility.yul\":13507:13556   */\n    tag_272:\n        /* \"#utility.yul\":13569:13649   */\n      tag_273\n        /* \"#utility.yul\":13625:13647   */\n      tag_274\n        /* \"#utility.yul\":13643:13646   */\n      dup6\n        /* \"#utility.yul\":13625:13647   */\n      tag_114\n      jump\t// in\n    tag_274:\n        /* \"#utility.yul\":13615:13623   */\n      dup4\n        /* \"#utility.yul\":13611:13648   */\n      add\n        /* \"#utility.yul\":13598:13609   */\n      dup3\n        /* \"#utility.yul\":13569:13649   */\n      tag_123\n      jump\t// in\n    tag_273:\n        /* \"#utility.yul\":13228:13659   */\n      pop\n      pop\n        /* \"#utility.yul\":13213:13659   */\n    tag_269:\n        /* \"#utility.yul\":13123:13666   */\n      pop\n      pop\n      pop\n      jump\t// out\n        /* \"#utility.yul\":13672:13789   */\n    tag_125:\n        /* \"#utility.yul\":13726:13734   */\n      0x00\n        /* \"#utility.yul\":13776:13781   */\n      dup3\n        /* \"#utility.yul\":13770:13774   */\n      dup3\n        /* \"#utility.yul\":13766:13782   */\n      shr\n        /* \"#utility.yul\":13745:13782   */\n      swap1\n      pop\n        /* \"#utility.yul\":13672:13789   */\n      swap3\n      swap2\n      pop\n      pop\n      jump\t// out\n        /* \"#utility.yul\":13795:13964   */\n    tag_126:\n        /* \"#utility.yul\":13839:13845   */\n      0x00\n        /* \"#utility.yul\":13872:13923   */\n      tag_277\n        /* \"#utility.yul\":13920:13921   */\n      0x00\n        /* \"#utility.yul\":13916:13922   */\n      not\n        /* \"#utility.yul\":13908:13913   */\n      dup5\n        /* \"#utility.yul\":13905:13906   */\n      0x08\n        /* \"#utility.yul\":13901:13914   */\n      mul\n        /* \"#utility.yul\":13872:13923   */\n      tag_125\n      jump\t// in\n    tag_277:\n        /* \"#utility.yul\":13868:13924   */\n      not\n        /* \"#utility.yul\":13953:13957   */\n      dup1\n        /* \"#utility.yul\":13947:13951   */\n      dup4\n        /* \"#utility.yul\":13943:13958   */\n      and\n        /* \"#utility.yul\":13933:13958   */\n      swap2\n      pop\n        /* \"#utility.yul\":13846:13964   */\n      pop\n        /* \"#utility.yul\":13795:13964   */\n      swap3\n      swap2\n      pop\n      pop\n      jump\t// out\n        /* \"#utility.yul\":13969:14264   */\n    tag_127:\n        /* \"#utility.yul\":14045:14049   */\n      0x00\n        /* \"#utility.yul\":14191:14220   */\n      tag_279\n        /* \"#utility.yul\":14216:14219   */\n      dup4\n        /* \"#utility.yul\":14210:14214   */\n      dup4\n        /* \"#utility.yul\":14191:14220   */\n      tag_126\n      jump\t// in\n    tag_279:\n        /* \"#utility.yul\":14183:14220   */\n      swap2\n      pop\n        /* \"#utility.yul\":14253:14256   */\n      dup3\n        /* \"#utility.yul\":14250:14251   */\n      0x02\n        /* \"#utility.yul\":14246:14257   */\n      mul\n        /* \"#utility.yul\":14240:14244   */\n      dup3\n        /* \"#utility.yul\":14237:14258   */\n      or\n        /* \"#utility.yul\":14229:14258   */\n      swap1\n      pop\n        /* \"#utility.yul\":13969:14264   */\n      swap3\n      swap2\n      pop\n      pop\n      jump\t// out\n        /* \"#utility.yul\":14269:15664   */\n    tag_56:\n        /* \"#utility.yul\":14386:14423   */\n      tag_281\n        /* \"#utility.yul\":14419:14422   */\n      dup3\n        /* \"#utility.yul\":14386:14423   */\n      tag_86\n      jump\t// in\n    tag_281:\n        /* \"#utility.yul\":14488:14506   */\n      0xffffffffffffffff\n        /* \"#utility.yul\":14480:14486   */\n      dup2\n        /* \"#utility.yul\":14477:14507   */\n      gt\n        /* \"#utility.yul\":14474:14530   */\n      iszero\n      tag_282\n      jumpi\n        /* \"#utility.yul\":14510:14528   */\n      tag_283\n      tag_95\n      jump\t// in\n    tag_283:\n        /* \"#utility.yul\":14474:14530   */\n    tag_282:\n        /* \"#utility.yul\":14554:14592   */\n      tag_284\n        /* \"#utility.yul\":14586:14590   */\n      dup3\n        /* \"#utility.yul\":14580:14591   */\n      sload\n        /* \"#utility.yul\":14554:14592   */\n      tag_36\n      jump\t// in\n    tag_284:\n        /* \"#utility.yul\":14639:14706   */\n      tag_285\n        /* \"#utility.yul\":14699:14705   */\n      dup3\n        /* \"#utility.yul\":14691:14697   */\n      dup3\n        /* \"#utility.yul\":14685:14689   */\n      dup6\n        /* \"#utility.yul\":14639:14706   */\n      tag_124\n      jump\t// in\n    tag_285:\n        /* \"#utility.yul\":14733:14734   */\n      0x00\n        /* \"#utility.yul\":14757:14761   */\n      0x20\n        /* \"#utility.yul\":14744:14761   */\n      swap1\n      pop\n        /* \"#utility.yul\":14789:14791   */\n      0x1f\n        /* \"#utility.yul\":14781:14787   */\n      dup4\n        /* \"#utility.yul\":14778:14792   */\n      gt\n        /* \"#utility.yul\":14806:14807   */\n      0x01\n        /* \"#utility.yul\":14801:15419   */\n      dup2\n      eq\n      tag_287\n      jumpi\n        /* \"#utility.yul\":15463:15464   */\n      0x00\n        /* \"#utility.yul\":15480:15486   */\n      dup5\n        /* \"#utility.yul\":15477:15554   */\n      iszero\n      tag_288\n      jumpi\n        /* \"#utility.yul\":15529:15538   */\n      dup3\n        /* \"#utility.yul\":15524:15527   */\n      dup8\n        /* \"#utility.yul\":15520:15539   */\n      add\n        /* \"#utility.yul\":15514:15540   */\n      mload\n        /* \"#utility.yul\":15505:15540   */\n      swap1\n      pop\n        /* \"#utility.yul\":15477:15554   */\n    tag_288:\n        /* \"#utility.yul\":15580:15647   */\n      tag_289\n        /* \"#utility.yul\":15640:15646   */\n      dup6\n        /* \"#utility.yul\":15633:15638   */\n      dup3\n        /* \"#utility.yul\":15580:15647   */\n      tag_127\n      jump\t// in\n    tag_289:\n        /* \"#utility.yul\":15574:15578   */\n      dup7\n        /* \"#utility.yul\":15567:15648   */\n      sstore\n        /* \"#utility.yul\":15436:15658   */\n      pop\n        /* \"#utility.yul\":14771:15658   */\n      jump(tag_286)\n        /* \"#utility.yul\":14801:15419   */\n    tag_287:\n        /* \"#utility.yul\":14853:14857   */\n      0x1f\n        /* \"#utility.yul\":14849:14858   */\n      not\n        /* \"#utility.yul\":14841:14847   */\n      dup5\n        /* \"#utility.yul\":14837:14859   */\n      and\n        /* \"#utility.yul\":14887:14924   */\n      tag_290\n        /* \"#utility.yul\":14919:14923   */\n      dup7\n        /* \"#utility.yul\":14887:14924   */\n      tag_113\n      jump\t// in\n    tag_290:\n        /* \"#utility.yul\":14946:14947   */\n      0x00\n        /* \"#utility.yul\":14960:15168   */\n    tag_291:\n        /* \"#utility.yul\":14974:14981   */\n      dup3\n        /* \"#utility.yul\":14971:14972   */\n      dup2\n        /* \"#utility.yul\":14968:14982   */\n      lt\n        /* \"#utility.yul\":14960:15168   */\n      iszero\n      tag_293\n      jumpi\n        /* \"#utility.yul\":15053:15062   */\n      dup5\n        /* \"#utility.yul\":15048:15051   */\n      dup10\n        /* \"#utility.yul\":15044:15063   */\n      add\n        /* \"#utility.yul\":15038:15064   */\n      mload\n        /* \"#utility.yul\":15030:15036   */\n      dup3\n        /* \"#utility.yul\":15023:15065   */\n      sstore\n        /* \"#utility.yul\":15104:15105   */\n      0x01\n        /* \"#utility.yul\":15096:15102   */\n      dup3\n        /* \"#utility.yul\":15092:15106   */\n      add\n        /* \"#utility.yul\":15082:15106   */\n      swap2\n      pop\n        /* \"#utility.yul\":15151:15153   */\n      0x20\n        /* \"#utility.yul\":15140:15149   */\n      dup6\n        /* \"#utility.yul\":15136:15154   */\n      add\n        /* \"#utility.yul\":15123:15154   */\n      swap5\n      pop\n        /* \"#utility.yul\":14997:15001   */\n      0x20\n        /* \"#utility.yul\":14994:14995   */\n      dup2\n        /* \"#utility.yul\":14990:15002   */\n      add\n        /* \"#utility.yul\":14985:15002   */\n      swap1\n      pop\n        /* \"#utility.yul\":14960:15168   */\n      jump(tag_291)\n    tag_293:\n        /* \"#utility.yul\":15196:15202   */\n      dup7\n        /* \"#utility.yul\":15187:15194   */\n      dup4\n        /* \"#utility.yul\":15184:15203   */\n      lt\n        /* \"#utility.yul\":15181:15360   */\n      iszero\n      tag_294\n      jumpi\n        /* \"#utility.yul\":15254:15263   */\n      dup5\n        /* \"#utility.yul\":15249:15252   */\n      dup10\n        /* \"#utility.yul\":15245:15264   */\n      add\n        /* \"#utility.yul\":15239:15265   */\n      mload\n        /* \"#utility.yul\":15297:15345   */\n      tag_295\n        /* \"#utility.yul\":15339:15343   */\n      0x1f\n        /* \"#utility.yul\":15331:15337   */\n      dup10\n        /* \"#utility.yul\":15327:15344   */\n      and\n        /* \"#utility.yul\":15316:15325   */\n      dup3\n        /* \"#utility.yul\":15297:15345   */\n      tag_126\n      jump\t// in\n    tag_295:\n        /* \"#utility.yul\":15289:15295   */\n      dup4\n        /* \"#utility.yul\":15282:15346   */\n      sstore\n        /* \"#utility.yul\":15204:15360   */\n      pop\n        /* \"#utility.yul\":15181:15360   */\n    tag_294:\n        /* \"#utility.yul\":15406:15407   */\n      0x01\n        /* \"#utility.yul\":15402:15403   */\n      0x02\n        /* \"#utility.yul\":15394:15400   */\n      dup9\n        /* \"#utility.yul\":15390:15404   */\n      mul\n        /* \"#utility.yul\":15386:15408   */\n      add\n        /* \"#utility.yul\":15380:15384   */\n      dup9\n        /* \"#utility.yul\":15373:15409   */\n      sstore\n        /* \"#utility.yul\":14808:15419   */\n      pop\n      pop\n      pop\n        /* \"#utility.yul\":14771:15658   */\n    tag_286:\n      pop\n        /* \"#utility.yul\":14361:15664   */\n      pop\n      pop\n      pop\n        /* \"#utility.yul\":14269:15664   */\n      pop\n      pop\n      jump\t// out\n        /* \"#utility.yul\":15670:16184   */\n    tag_59:\n        /* \"#utility.yul\":15831:15835   */\n      0x00\n        /* \"#utility.yul\":15869:15871   */\n      0x40\n        /* \"#utility.yul\":15858:15867   */\n      dup3\n        /* \"#utility.yul\":15854:15872   */\n      add\n        /* \"#utility.yul\":15846:15872   */\n      swap1\n      pop\n        /* \"#utility.yul\":15918:15927   */\n      dup2\n        /* \"#utility.yul\":15912:15916   */\n      dup2\n        /* \"#utility.yul\":15908:15928   */\n      sub\n        /* \"#utility.yul\":15904:15905   */\n      0x00\n        /* \"#utility.yul\":15893:15902   */\n      dup4\n        /* \"#utility.yul\":15889:15906   */\n      add\n        /* \"#utility.yul\":15882:15929   */\n      mstore\n        /* \"#utility.yul\":15946:16024   */\n      tag_297\n        /* \"#utility.yul\":16019:16023   */\n      dup2\n        /* \"#utility.yul\":16010:16016   */\n      dup6\n        /* \"#utility.yul\":15946:16024   */\n      tag_90\n      jump\t// in\n    tag_297:\n        /* \"#utility.yul\":15938:16024   */\n      swap1\n      pop\n        /* \"#utility.yul\":16071:16080   */\n      dup2\n        /* \"#utility.yul\":16065:16069   */\n      dup2\n        /* \"#utility.yul\":16061:16081   */\n      sub\n        /* \"#utility.yul\":16056:16058   */\n      0x20\n        /* \"#utility.yul\":16045:16054   */\n      dup4\n        /* \"#utility.yul\":16041:16059   */\n      add\n        /* \"#utility.yul\":16034:16082   */\n      mstore\n        /* \"#utility.yul\":16099:16177   */\n      tag_298\n        /* \"#utility.yul\":16172:16176   */\n      dup2\n        /* \"#utility.yul\":16163:16169   */\n      dup5\n        /* \"#utility.yul\":16099:16177   */\n      tag_90\n      jump\t// in\n    tag_298:\n        /* \"#utility.yul\":16091:16177   */\n      swap1\n      pop\n        /* \"#utility.yul\":15670:16184   */\n      swap4\n      swap3\n      pop\n      pop\n      pop\n      jump\t// out\n        /* \"#utility.yul\":16190:16356   */\n    tag_128:\n        /* \"#utility.yul\":16330:16348   */\n      0x416c726561647920566572696669656400000000000000000000000000000000\n        /* \"#utility.yul\":16326:16327   */\n      0x00\n        /* \"#utility.yul\":16318:16324   */\n      dup3\n        /* \"#utility.yul\":16314:16328   */\n      add\n        /* \"#utility.yul\":16307:16349   */\n      mstore\n        /* \"#utility.yul\":16190:16356   */\n      pop\n      jump\t// out\n        /* \"#utility.yul\":16362:16728   */\n    tag_129:\n        /* \"#utility.yul\":16504:16507   */\n      0x00\n        /* \"#utility.yul\":16525:16592   */\n      tag_301\n        /* \"#utility.yul\":16589:16591   */\n      0x10\n        /* \"#utility.yul\":16584:16587   */\n      dup4\n        /* \"#utility.yul\":16525:16592   */\n      tag_87\n      jump\t// in\n    tag_301:\n        /* \"#utility.yul\":16518:16592   */\n      swap2\n      pop\n        /* \"#utility.yul\":16601:16694   */\n      tag_302\n        /* \"#utility.yul\":16690:16693   */\n      dup3\n        /* \"#utility.yul\":16601:16694   */\n      tag_128\n      jump\t// in\n    tag_302:\n        /* \"#utility.yul\":16719:16721   */\n      0x20\n        /* \"#utility.yul\":16714:16717   */\n      dup3\n        /* \"#utility.yul\":16710:16722   */\n      add\n        /* \"#utility.yul\":16703:16722   */\n      swap1\n      pop\n        /* \"#utility.yul\":16362:16728   */\n      swap2\n      swap1\n      pop\n      jump\t// out\n        /* \"#utility.yul\":16734:17153   */\n    tag_65:\n        /* \"#utility.yul\":16900:16904   */\n      0x00\n        /* \"#utility.yul\":16938:16940   */\n      0x20\n        /* \"#utility.yul\":16927:16936   */\n      dup3\n        /* \"#utility.yul\":16923:16941   */\n      add\n        /* \"#utility.yul\":16915:16941   */\n      swap1\n      pop\n        /* \"#utility.yul\":16987:16996   */\n      dup2\n        /* \"#utility.yul\":16981:16985   */\n      dup2\n        /* \"#utility.yul\":16977:16997   */\n      sub\n        /* \"#utility.yul\":16973:16974   */\n      0x00\n        /* \"#utility.yul\":16962:16971   */\n      dup4\n        /* \"#utility.yul\":16958:16975   */\n      add\n        /* \"#utility.yul\":16951:16998   */\n      mstore\n        /* \"#utility.yul\":17015:17146   */\n      tag_304\n        /* \"#utility.yul\":17141:17145   */\n      dup2\n        /* \"#utility.yul\":17015:17146   */\n      tag_129\n      jump\t// in\n    tag_304:\n        /* \"#utility.yul\":17007:17146   */\n      swap1\n      pop\n        /* \"#utility.yul\":16734:17153   */\n      swap2\n      swap1\n      pop\n      jump\t// out\n        /* \"#utility.yul\":17159:17334   */\n    tag_130:\n        /* \"#utility.yul\":17299:17326   */\n      0x596f7520646f6e74206f776e20746865206964656e7469747900000000000000\n        /* \"#utility.yul\":17295:17296   */\n      0x00\n        /* \"#utility.yul\":17287:17293   */\n      dup3\n        /* \"#utility.yul\":17283:17297   */\n      add\n        /* \"#utility.yul\":17276:17327   */\n      mstore\n        /* \"#utility.yul\":17159:17334   */\n      pop\n      jump\t// out\n        /* \"#utility.yul\":17340:17706   */\n    tag_131:\n        /* \"#utility.yul\":17482:17485   */\n      0x00\n        /* \"#utility.yul\":17503:17570   */\n      tag_307\n        /* \"#utility.yul\":17567:17569   */\n      0x19\n        /* \"#utility.yul\":17562:17565   */\n      dup4\n        /* \"#utility.yul\":17503:17570   */\n      tag_87\n      jump\t// in\n    tag_307:\n        /* \"#utility.yul\":17496:17570   */\n      swap2\n      pop\n        /* \"#utility.yul\":17579:17672   */\n      tag_308\n        /* \"#utility.yul\":17668:17671   */\n      dup3\n        /* \"#utility.yul\":17579:17672   */\n      tag_130\n      jump\t// in\n    tag_308:\n        /* \"#utility.yul\":17697:17699   */\n      0x20\n        /* \"#utility.yul\":17692:17695   */\n      dup3\n        /* \"#utility.yul\":17688:17700   */\n      add\n        /* \"#utility.yul\":17681:17700   */\n      swap1\n      pop\n        /* \"#utility.yul\":17340:17706   */\n      swap2\n      swap1\n      pop\n      jump\t// out\n        /* \"#utility.yul\":17712:18131   */\n    tag_68:\n        /* \"#utility.yul\":17878:17882   */\n      0x00\n        /* \"#utility.yul\":17916:17918   */\n      0x20\n        /* \"#utility.yul\":17905:17914   */\n      dup3\n        /* \"#utility.yul\":17901:17919   */\n      add\n        /* \"#utility.yul\":17893:17919   */\n      swap1\n      pop\n        /* \"#utility.yul\":17965:17974   */\n      dup2\n        /* \"#utility.yul\":17959:17963   */\n      dup2\n        /* \"#utility.yul\":17955:17975   */\n      sub\n        /* \"#utility.yul\":17951:17952   */\n      0x00\n        /* \"#utility.yul\":17940:17949   */\n      dup4\n        /* \"#utility.yul\":17936:17953   */\n      add\n        /* \"#utility.yul\":17929:17976   */\n      mstore\n        /* \"#utility.yul\":17993:18124   */\n      tag_310\n        /* \"#utility.yul\":18119:18123   */\n      dup2\n        /* \"#utility.yul\":17993:18124   */\n      tag_131\n      jump\t// in\n    tag_310:\n        /* \"#utility.yul\":17985:18124   */\n      swap1\n      pop\n        /* \"#utility.yul\":17712:18131   */\n      swap2\n      swap1\n      pop\n      jump\t// out\n\n    auxdata: 0xa26469706673582212202c5ccd6913d117d8de8cd5ee1de699f1bb069cdf4347399cabc31030a7a0499764736f6c63430008120033\n}\n",
				"bytecode": {
					"linkReferences": {},
					"object": "608060405234801561001057600080fd5b5061123d806100206000396000f3fe608060405234801561001057600080fd5b50600436106100575760003560e01c8063267c68e01461005c57806385e3f0581461007a578063a309e6e1146100ac578063babb55c5146100dc578063eaaf77e6146100f8575b600080fd5b61006461012d565b604051610071919061088a565b60405180910390f35b610094600480360381019061008f91906108e5565b610133565b6040516100a3939291906109bd565b60405180910390f35b6100c660048036038101906100c19190610b37565b61030c565b6040516100d3919061088a565b60405180910390f35b6100f660048036038101906100f191906108e5565b610526565b005b610112600480360381019061010d91906108e5565b6106eb565b60405161012496959493929190610bf0565b60405180910390f35b60015481565b606080600080600085815260200190815260200160002060030160019054906101000a900460ff1661019a576040517f08c379a000000000000000000000000000000000000000000000000000000000815260040161019190610cab565b60405180910390fd5b60008085815260200190815260200160002060010160008086815260200190815260200160002060020160008087815260200190815260200160002060030160009054906101000a900460ff168280546101f390610cfa565b80601f016020809104026020016040519081016040528092919081815260200182805461021f90610cfa565b801561026c5780601f106102415761010080835404028352916020019161026c565b820191906000526020600020905b81548152906001019060200180831161024f57829003601f168201915b5050505050925081805461027f90610cfa565b80601f01602080910402602001604051908101604052809291908181526020018280546102ab90610cfa565b80156102f85780601f106102cd576101008083540402835291602001916102f8565b820191906000526020600020905b8154815290600101906020018083116102db57829003601f168201915b505050505091509250925092509193909250565b600080835111610351576040517f08c379a000000000000000000000000000000000000000000000000000000000815260040161034890610d77565b60405180910390fd5b6000825111610395576040517f08c379a000000000000000000000000000000000000000000000000000000000815260040161038c90610de3565b60405180910390fd5b6000600160008154809291906103aa90610e32565b9190505590506040518060c001604052808281526020018581526020018481526020016000151581526020016001151581526020013373ffffffffffffffffffffffffffffffffffffffff1681525060008083815260200190815260200160002060008201518160000155602082015181600101908161042a9190611026565b5060408201518160020190816104409190611026565b5060608201518160030160006101000a81548160ff02191690831515021790555060808201518160030160016101000a81548160ff02191690831515021790555060a08201518160030160026101000a81548173ffffffffffffffffffffffffffffffffffffffff021916908373ffffffffffffffffffffffffffffffffffffffff1602179055509050503373ffffffffffffffffffffffffffffffffffffffff16817f93fd7b271df828339eb5d8db632864a85d51b69b2c7a9108ac04ed17cf5c3ba286866040516105149291906110f8565b60405180910390a38091505092915050565b60008082815260200190815260200160002060030160019054906101000a900460ff16610588576040517f08c379a000000000000000000000000000000000000000000000000000000000815260040161057f90610cab565b60405180910390fd5b60008082815260200190815260200160002060030160009054906101000a900460ff166105ea576040517f08c379a00000000000000000000000000000000000000000000000000000000081526004016105e19061117b565b60405180910390fd5b3373ffffffffffffffffffffffffffffffffffffffff1660008083815260200190815260200160002060030160029054906101000a900473ffffffffffffffffffffffffffffffffffffffff1673ffffffffffffffffffffffffffffffffffffffff161461068d576040517f08c379a0000000000000000000000000000000000000000000000000000000008152600401610684906111e7565b60405180910390fd5b600160008083815260200190815260200160002060030160006101000a81548160ff021916908315150217905550807fd0e15ad158568c0bcb8fbdeff1c6d441585c291a83235b65d40401994e1f530460405160405180910390a250565b600060205280600052604060002060009150905080600001549080600101805461071490610cfa565b80601f016020809104026020016040519081016040528092919081815260200182805461074090610cfa565b801561078d5780601f106107625761010080835404028352916020019161078d565b820191906000526020600020905b81548152906001019060200180831161077057829003601f168201915b5050505050908060020180546107a290610cfa565b80601f01602080910402602001604051908101604052809291908181526020018280546107ce90610cfa565b801561081b5780601f106107f05761010080835404028352916020019161081b565b820191906000526020600020905b8154815290600101906020018083116107fe57829003601f168201915b5050505050908060030160009054906101000a900460ff16908060030160019054906101000a900460ff16908060030160029054906101000a900473ffffffffffffffffffffffffffffffffffffffff16905086565b6000819050919050565b61088481610871565b82525050565b600060208201905061089f600083018461087b565b92915050565b6000604051905090565b600080fd5b600080fd5b6108c281610871565b81146108cd57600080fd5b50565b6000813590506108df816108b9565b92915050565b6000602082840312156108fb576108fa6108af565b5b6000610909848285016108d0565b91505092915050565b600081519050919050565b600082825260208201905092915050565b60005b8381101561094c578082015181840152602081019050610931565b60008484015250505050565b6000601f19601f8301169050919050565b600061097482610912565b61097e818561091d565b935061098e81856020860161092e565b61099781610958565b840191505092915050565b60008115159050919050565b6109b7816109a2565b82525050565b600060608201905081810360008301526109d78186610969565b905081810360208301526109eb8185610969565b90506109fa60408301846109ae565b949350505050565b600080fd5b600080fd5b7f4e487b7100000000000000000000000000000000000000000000000000000000600052604160045260246000fd5b610a4482610958565b810181811067ffffffffffffffff82111715610a6357610a62610a0c565b5b80604052505050565b6000610a766108a5565b9050610a828282610a3b565b919050565b600067ffffffffffffffff821115610aa257610aa1610a0c565b5b610aab82610958565b9050602081019050919050565b82818337600083830152505050565b6000610ada610ad584610a87565b610a6c565b905082815260208101848484011115610af657610af5610a07565b5b610b01848285610ab8565b509392505050565b600082601f830112610b1e57610b1d610a02565b5b8135610b2e848260208601610ac7565b91505092915050565b60008060408385031215610b4e57610b4d6108af565b5b600083013567ffffffffffffffff811115610b6c57610b6b6108b4565b5b610b7885828601610b09565b925050602083013567ffffffffffffffff811115610b9957610b986108b4565b5b610ba585828601610b09565b9150509250929050565b600073ffffffffffffffffffffffffffffffffffffffff82169050919050565b6000610bda82610baf565b9050919050565b610bea81610bcf565b82525050565b600060c082019050610c05600083018961087b565b8181036020830152610c178188610969565b90508181036040830152610c2b8187610969565b9050610c3a60608301866109ae565b610c4760808301856109ae565b610c5460a0830184610be1565b979650505050505050565b7f4964656e7469747920646f65736e6f7420457869737473000000000000000000600082015250565b6000610c9560178361091d565b9150610ca082610c5f565b602082019050919050565b60006020820190508181036000830152610cc481610c88565b9050919050565b7f4e487b7100000000000000000000000000000000000000000000000000000000600052602260045260246000fd5b60006002820490506001821680610d1257607f821691505b602082108103610d2557610d24610ccb565b5b50919050565b7f4e616d6520697320726571756972656400000000000000000000000000000000600082015250565b6000610d6160108361091d565b9150610d6c82610d2b565b602082019050919050565b60006020820190508181036000830152610d9081610d54565b9050919050565b7f456d61696c206973207265717569726564000000000000000000000000000000600082015250565b6000610dcd60118361091d565b9150610dd882610d97565b602082019050919050565b60006020820190508181036000830152610dfc81610dc0565b9050919050565b7f4e487b7100000000000000000000000000000000000000000000000000000000600052601160045260246000fd5b6000610e3d82610871565b91507fffffffffffffffffffffffffffffffffffffffffffffffffffffffffffffffff8203610e6f57610e6e610e03565b5b600182019050919050565b60008190508160005260206000209050919050565b60006020601f8301049050919050565b600082821b905092915050565b600060088302610edc7fffffffffffffffffffffffffffffffffffffffffffffffffffffffffffffffff82610e9f565b610ee68683610e9f565b95508019841693508086168417925050509392505050565b6000819050919050565b6000610f23610f1e610f1984610871565b610efe565b610871565b9050919050565b6000819050919050565b610f3d83610f08565b610f51610f4982610f2a565b848454610eac565b825550505050565b600090565b610f66610f59565b610f71818484610f34565b505050565b5b81811015610f9557610f8a600082610f5e565b600181019050610f77565b5050565b601f821115610fda57610fab81610e7a565b610fb484610e8f565b81016020851015610fc3578190505b610fd7610fcf85610e8f565b830182610f76565b50505b505050565b600082821c905092915050565b6000610ffd60001984600802610fdf565b1980831691505092915050565b60006110168383610fec565b9150826002028217905092915050565b61102f82610912565b67ffffffffffffffff81111561104857611047610a0c565b5b6110528254610cfa565b61105d828285610f99565b600060209050601f831160018114611090576000841561107e578287015190505b611088858261100a565b8655506110f0565b601f19841661109e86610e7a565b60005b828110156110c6578489015182556001820191506020850194506020810190506110a1565b868310156110e357848901516110df601f891682610fec565b8355505b6001600288020188555050505b505050505050565b600060408201905081810360008301526111128185610969565b905081810360208301526111268184610969565b90509392505050565b7f416c726561647920566572696669656400000000000000000000000000000000600082015250565b600061116560108361091d565b91506111708261112f565b602082019050919050565b6000602082019050818103600083015261119481611158565b9050919050565b7f596f7520646f6e74206f776e20746865206964656e7469747900000000000000600082015250565b60006111d160198361091d565b91506111dc8261119b565b602082019050919050565b60006020820190508181036000830152611200816111c4565b905091905056fea26469706673582212202c5ccd6913d117d8de8cd5ee1de699f1bb069cdf4347399cabc31030a7a0499764736f6c63430008120033",
					"opcodes": "PUSH1 0x80 PUSH1 0x40 MSTORE CALLVALUE DUP1 ISZERO PUSH2 0x10 JUMPI PUSH1 0x0 DUP1 REVERT JUMPDEST POP PUSH2 0x123D DUP1 PUSH2 0x20 PUSH1 0x0 CODECOPY PUSH1 0x0 RETURN INVALID PUSH1 0x80 PUSH1 0x40 MSTORE CALLVALUE DUP1 ISZERO PUSH2 0x10 JUMPI PUSH1 0x0 DUP1 REVERT JUMPDEST POP PUSH1 0x4 CALLDATASIZE LT PUSH2 0x57 JUMPI PUSH1 0x0 CALLDATALOAD PUSH1 0xE0 SHR DUP1 PUSH4 0x267C68E0 EQ PUSH2 0x5C JUMPI DUP1 PUSH4 0x85E3F058 EQ PUSH2 0x7A JUMPI DUP1 PUSH4 0xA309E6E1 EQ PUSH2 0xAC JUMPI DUP1 PUSH4 0xBABB55C5 EQ PUSH2 0xDC JUMPI DUP1 PUSH4 0xEAAF77E6 EQ PUSH2 0xF8 JUMPI JUMPDEST PUSH1 0x0 DUP1 REVERT JUMPDEST PUSH2 0x64 PUSH2 0x12D JUMP JUMPDEST PUSH1 0x40 MLOAD PUSH2 0x71 SWAP2 SWAP1 PUSH2 0x88A JUMP JUMPDEST PUSH1 0x40 MLOAD DUP1 SWAP2 SUB SWAP1 RETURN JUMPDEST PUSH2 0x94 PUSH1 0x4 DUP1 CALLDATASIZE SUB DUP2 ADD SWAP1 PUSH2 0x8F SWAP2 SWAP1 PUSH2 0x8E5 JUMP JUMPDEST PUSH2 0x133 JUMP JUMPDEST PUSH1 0x40 MLOAD PUSH2 0xA3 SWAP4 SWAP3 SWAP2 SWAP1 PUSH2 0x9BD JUMP JUMPDEST PUSH1 0x40 MLOAD DUP1 SWAP2 SUB SWAP1 RETURN JUMPDEST PUSH2 0xC6 PUSH1 0x4 DUP1 CALLDATASIZE SUB DUP2 ADD SWAP1 PUSH2 0xC1 SWAP2 SWAP1 PUSH2 0xB37 JUMP JUMPDEST PUSH2 0x30C JUMP JUMPDEST PUSH1 0x40 MLOAD PUSH2 0xD3 SWAP2 SWAP1 PUSH2 0x88A JUMP JUMPDEST PUSH1 0x40 MLOAD DUP1 SWAP2 SUB SWAP1 RETURN JUMPDEST PUSH2 0xF6 PUSH1 0x4 DUP1 CALLDATASIZE SUB DUP2 ADD SWAP1 PUSH2 0xF1 SWAP2 SWAP1 PUSH2 0x8E5 JUMP JUMPDEST PUSH2 0x526 JUMP JUMPDEST STOP JUMPDEST PUSH2 0x112 PUSH1 0x4 DUP1 CALLDATASIZE SUB DUP2 ADD SWAP1 PUSH2 0x10D SWAP2 SWAP1 PUSH2 0x8E5 JUMP JUMPDEST PUSH2 0x6EB JUMP JUMPDEST PUSH1 0x40 MLOAD PUSH2 0x124 SWAP7 SWAP6 SWAP5 SWAP4 SWAP3 SWAP2 SWAP1 PUSH2 0xBF0 JUMP JUMPDEST PUSH1 0x40 MLOAD DUP1 SWAP2 SUB SWAP1 RETURN JUMPDEST PUSH1 0x1 SLOAD DUP2 JUMP JUMPDEST PUSH1 0x60 DUP1 PUSH1 0x0 DUP1 PUSH1 0x0 DUP6 DUP2 MSTORE PUSH1 0x20 ADD SWAP1 DUP2 MSTORE PUSH1 0x20 ADD PUSH1 0x0 KECCAK256 PUSH1 0x3 ADD PUSH1 0x1 SWAP1 SLOAD SWAP1 PUSH2 0x100 EXP SWAP1 DIV PUSH1 0xFF AND PUSH2 0x19A JUMPI PUSH1 0x40 MLOAD PUSH32 0x8C379A000000000000000000000000000000000000000000000000000000000 DUP2 MSTORE PUSH1 0x4 ADD PUSH2 0x191 SWAP1 PUSH2 0xCAB JUMP JUMPDEST PUSH1 0x40 MLOAD DUP1 SWAP2 SUB SWAP1 REVERT JUMPDEST PUSH1 0x0 DUP1 DUP6 DUP2 MSTORE PUSH1 0x20 ADD SWAP1 DUP2 MSTORE PUSH1 0x20 ADD PUSH1 0x0 KECCAK256 PUSH1 0x1 ADD PUSH1 0x0 DUP1 DUP7 DUP2 MSTORE PUSH1 0x20 ADD SWAP1 DUP2 MSTORE PUSH1 0x20 ADD PUSH1 0x0 KECCAK256 PUSH1 0x2 ADD PUSH1 0x0 DUP1 DUP8 DUP2 MSTORE PUSH1 0x20 ADD SWAP1 DUP2 MSTORE PUSH1 0x20 ADD PUSH1 0x0 KECCAK256 PUSH1 0x3 ADD PUSH1 0x0 SWAP1 SLOAD SWAP1 PUSH2 0x100 EXP SWAP1 DIV PUSH1 0xFF AND DUP3 DUP1 SLOAD PUSH2 0x1F3 SWAP1 PUSH2 0xCFA JUMP JUMPDEST DUP1 PUSH1 0x1F ADD PUSH1 0x20 DUP1 SWAP2 DIV MUL PUSH1 0x20 ADD PUSH1 0x40 MLOAD SWAP1 DUP2 ADD PUSH1 0x40 MSTORE DUP1 SWAP3 SWAP2 SWAP1 DUP2 DUP2 MSTORE PUSH1 0x20 ADD DUP3 DUP1 SLOAD PUSH2 0x21F SWAP1 PUSH2 0xCFA JUMP JUMPDEST DUP1 ISZERO PUSH2 0x26C JUMPI DUP1 PUSH1 0x1F LT PUSH2 0x241 JUMPI PUSH2 0x100 DUP1 DUP4 SLOAD DIV MUL DUP4 MSTORE SWAP2 PUSH1 0x20 ADD SWAP2 PUSH2 0x26C JUMP JUMPDEST DUP3 ADD SWAP2 SWAP1 PUSH1 0x0 MSTORE PUSH1 0x20 PUSH1 0x0 KECCAK256 SWAP1 JUMPDEST DUP2 SLOAD DUP2 MSTORE SWAP1 PUSH1 0x1 ADD SWAP1 PUSH1 0x20 ADD DUP1 DUP4 GT PUSH2 0x24F JUMPI DUP3 SWAP1 SUB PUSH1 0x1F AND DUP3 ADD SWAP2 JUMPDEST POP POP POP POP POP SWAP3 POP DUP2 DUP1 SLOAD PUSH2 0x27F SWAP1 PUSH2 0xCFA JUMP JUMPDEST DUP1 PUSH1 0x1F ADD PUSH1 0x20 DUP1 SWAP2 DIV MUL PUSH1 0x20 ADD PUSH1 0x40 MLOAD SWAP1 DUP2 ADD PUSH1 0x40 MSTORE DUP1 SWAP3 SWAP2 SWAP1 DUP2 DUP2 MSTORE PUSH1 0x20 ADD DUP3 DUP1 SLOAD PUSH2 0x2AB SWAP1 PUSH2 0xCFA JUMP JUMPDEST DUP1 ISZERO PUSH2 0x2F8 JUMPI DUP1 PUSH1 0x1F LT PUSH2 0x2CD JUMPI PUSH2 0x100 DUP1 DUP4 SLOAD DIV MUL DUP4 MSTORE SWAP2 PUSH1 0x20 ADD SWAP2 PUSH2 0x2F8 JUMP JUMPDEST DUP3 ADD SWAP2 SWAP1 PUSH1 0x0 MSTORE PUSH1 0x20 PUSH1 0x0 KECCAK256 SWAP1 JUMPDEST DUP2 SLOAD DUP2 MSTORE SWAP1 PUSH1 0x1 ADD SWAP1 PUSH1 0x20 ADD DUP1 DUP4 GT PUSH2 0x2DB JUMPI DUP3 SWAP1 SUB PUSH1 0x1F AND DUP3 ADD SWAP2 JUMPDEST POP POP POP POP POP SWAP2 POP SWAP3 POP SWAP3 POP SWAP3 POP SWAP2 SWAP4 SWAP1 SWAP3 POP JUMP JUMPDEST PUSH1 0x0 DUP1 DUP4 MLOAD GT PUSH2 0x351 JUMPI PUSH1 0x40 MLOAD PUSH32 0x8C379A000000000000000000000000000000000000000000000000000000000 DUP2 MSTORE PUSH1 0x4 ADD PUSH2 0x348 SWAP1 PUSH2 0xD77 JUMP JUMPDEST PUSH1 0x40 MLOAD DUP1 SWAP2 SUB SWAP1 REVERT JUMPDEST PUSH1 0x0 DUP3 MLOAD GT PUSH2 0x395 JUMPI PUSH1 0x40 MLOAD PUSH32 0x8C379A000000000000000000000000000000000000000000000000000000000 DUP2 MSTORE PUSH1 0x4 ADD PUSH2 0x38C SWAP1 PUSH2 0xDE3 JUMP JUMPDEST PUSH1 0x40 MLOAD DUP1 SWAP2 SUB SWAP1 REVERT JUMPDEST PUSH1 0x0 PUSH1 0x1 PUSH1 0x0 DUP2 SLOAD DUP1 SWAP3 SWAP2 SWAP1 PUSH2 0x3AA SWAP1 PUSH2 0xE32 JUMP JUMPDEST SWAP2 SWAP1 POP SSTORE SWAP1 POP PUSH1 0x40 MLOAD DUP1 PUSH1 0xC0 ADD PUSH1 0x40 MSTORE DUP1 DUP3 DUP2 MSTORE PUSH1 0x20 ADD DUP6 DUP2 MSTORE PUSH1 0x20 ADD DUP5 DUP2 MSTORE PUSH1 0x20 ADD PUSH1 0x0 ISZERO ISZERO DUP2 MSTORE PUSH1 0x20 ADD PUSH1 0x1 ISZERO ISZERO DUP2 MSTORE PUSH1 0x20 ADD CALLER PUSH20 0xFFFFFFFFFFFFFFFFFFFFFFFFFFFFFFFFFFFFFFFF AND DUP2 MSTORE POP PUSH1 0x0 DUP1 DUP4 DUP2 MSTORE PUSH1 0x20 ADD SWAP1 DUP2 MSTORE PUSH1 0x20 ADD PUSH1 0x0 KECCAK256 PUSH1 0x0 DUP3 ADD MLOAD DUP2 PUSH1 0x0 ADD SSTORE PUSH1 0x20 DUP3 ADD MLOAD DUP2 PUSH1 0x1 ADD SWAP1 DUP2 PUSH2 0x42A SWAP2 SWAP1 PUSH2 0x1026 JUMP JUMPDEST POP PUSH1 0x40 DUP3 ADD MLOAD DUP2 PUSH1 0x2 ADD SWAP1 DUP2 PUSH2 0x440 SWAP2 SWAP1 PUSH2 0x1026 JUMP JUMPDEST POP PUSH1 0x60 DUP3 ADD MLOAD DUP2 PUSH1 0x3 ADD PUSH1 0x0 PUSH2 0x100 EXP DUP2 SLOAD DUP2 PUSH1 0xFF MUL NOT AND SWAP1 DUP4 ISZERO ISZERO MUL OR SWAP1 SSTORE POP PUSH1 0x80 DUP3 ADD MLOAD DUP2 PUSH1 0x3 ADD PUSH1 0x1 PUSH2 0x100 EXP DUP2 SLOAD DUP2 PUSH1 0xFF MUL NOT AND SWAP1 DUP4 ISZERO ISZERO MUL OR SWAP1 SSTORE POP PUSH1 0xA0 DUP3 ADD MLOAD DUP2 PUSH1 0x3 ADD PUSH1 0x2 PUSH2 0x100 EXP DUP2 SLOAD DUP2 PUSH20 0xFFFFFFFFFFFFFFFFFFFFFFFFFFFFFFFFFFFFFFFF MUL NOT AND SWAP1 DUP4 PUSH20 0xFFFFFFFFFFFFFFFFFFFFFFFFFFFFFFFFFFFFFFFF AND MUL OR SWAP1 SSTORE POP SWAP1 POP POP CALLER PUSH20 0xFFFFFFFFFFFFFFFFFFFFFFFFFFFFFFFFFFFFFFFF AND DUP2 PUSH32 0x93FD7B271DF828339EB5D8DB632864A85D51B69B2C7A9108AC04ED17CF5C3BA2 DUP7 DUP7 PUSH1 0x40 MLOAD PUSH2 0x514 SWAP3 SWAP2 SWAP1 PUSH2 0x10F8 JUMP JUMPDEST PUSH1 0x40 MLOAD DUP1 SWAP2 SUB SWAP1 LOG3 DUP1 SWAP2 POP POP SWAP3 SWAP2 POP POP JUMP JUMPDEST PUSH1 0x0 DUP1 DUP3 DUP2 MSTORE PUSH1 0x20 ADD SWAP1 DUP2 MSTORE PUSH1 0x20 ADD PUSH1 0x0 KECCAK256 PUSH1 0x3 ADD PUSH1 0x1 SWAP1 SLOAD SWAP1 PUSH2 0x100 EXP SWAP1 DIV PUSH1 0xFF AND PUSH2 0x588 JUMPI PUSH1 0x40 MLOAD PUSH32 0x8C379A000000000000000000000000000000000000000000000000000000000 DUP2 MSTORE PUSH1 0x4 ADD PUSH2 0x57F SWAP1 PUSH2 0xCAB JUMP JUMPDEST PUSH1 0x40 MLOAD DUP1 SWAP2 SUB SWAP1 REVERT JUMPDEST PUSH1 0x0 DUP1 DUP3 DUP2 MSTORE PUSH1 0x20 ADD SWAP1 DUP2 MSTORE PUSH1 0x20 ADD PUSH1 0x0 KECCAK256 PUSH1 0x3 ADD PUSH1 0x0 SWAP1 SLOAD SWAP1 PUSH2 0x100 EXP SWAP1 DIV PUSH1 0xFF AND PUSH2 0x5EA JUMPI PUSH1 0x40 MLOAD PUSH32 0x8C379A000000000000000000000000000000000000000000000000000000000 DUP2 MSTORE PUSH1 0x4 ADD PUSH2 0x5E1 SWAP1 PUSH2 0x117B JUMP JUMPDEST PUSH1 0x40 MLOAD DUP1 SWAP2 SUB SWAP1 REVERT JUMPDEST CALLER PUSH20 0xFFFFFFFFFFFFFFFFFFFFFFFFFFFFFFFFFFFFFFFF AND PUSH1 0x0 DUP1 DUP4 DUP2 MSTORE PUSH1 0x20 ADD SWAP1 DUP2 MSTORE PUSH1 0x20 ADD PUSH1 0x0 KECCAK256 PUSH1 0x3 ADD PUSH1 0x2 SWAP1 SLOAD SWAP1 PUSH2 0x100 EXP SWAP1 DIV PUSH20 0xFFFFFFFFFFFFFFFFFFFFFFFFFFFFFFFFFFFFFFFF AND PUSH20 0xFFFFFFFFFFFFFFFFFFFFFFFFFFFFFFFFFFFFFFFF AND EQ PUSH2 0x68D JUMPI PUSH1 0x40 MLOAD PUSH32 0x8C379A000000000000000000000000000000000000000000000000000000000 DUP2 MSTORE PUSH1 0x4 ADD PUSH2 0x684 SWAP1 PUSH2 0x11E7 JUMP JUMPDEST PUSH1 0x40 MLOAD DUP1 SWAP2 SUB SWAP1 REVERT JUMPDEST PUSH1 0x1 PUSH1 0x0 DUP1 DUP4 DUP2 MSTORE PUSH1 0x20 ADD SWAP1 DUP2 MSTORE PUSH1 0x20 ADD PUSH1 0x0 KECCAK256 PUSH1 0x3 ADD PUSH1 0x0 PUSH2 0x100 EXP DUP2 SLOAD DUP2 PUSH1 0xFF MUL NOT AND SWAP1 DUP4 ISZERO ISZERO MUL OR SWAP1 SSTORE POP DUP1 PUSH32 0xD0E15AD158568C0BCB8FBDEFF1C6D441585C291A83235B65D40401994E1F5304 PUSH1 0x40 MLOAD PUSH1 0x40 MLOAD DUP1 SWAP2 SUB SWAP1 LOG2 POP JUMP JUMPDEST PUSH1 0x0 PUSH1 0x20 MSTORE DUP1 PUSH1 0x0 MSTORE PUSH1 0x40 PUSH1 0x0 KECCAK256 PUSH1 0x0 SWAP2 POP SWAP1 POP DUP1 PUSH1 0x0 ADD SLOAD SWAP1 DUP1 PUSH1 0x1 ADD DUP1 SLOAD PUSH2 0x714 SWAP1 PUSH2 0xCFA JUMP JUMPDEST DUP1 PUSH1 0x1F ADD PUSH1 0x20 DUP1 SWAP2 DIV MUL PUSH1 0x20 ADD PUSH1 0x40 MLOAD SWAP1 DUP2 ADD PUSH1 0x40 MSTORE DUP1 SWAP3 SWAP2 SWAP1 DUP2 DUP2 MSTORE PUSH1 0x20 ADD DUP3 DUP1 SLOAD PUSH2 0x740 SWAP1 PUSH2 0xCFA JUMP JUMPDEST DUP1 ISZERO PUSH2 0x78D JUMPI DUP1 PUSH1 0x1F LT PUSH2 0x762 JUMPI PUSH2 0x100 DUP1 DUP4 SLOAD DIV MUL DUP4 MSTORE SWAP2 PUSH1 0x20 ADD SWAP2 PUSH2 0x78D JUMP JUMPDEST DUP3 ADD SWAP2 SWAP1 PUSH1 0x0 MSTORE PUSH1 0x20 PUSH1 0x0 KECCAK256 SWAP1 JUMPDEST DUP2 SLOAD DUP2 MSTORE SWAP1 PUSH1 0x1 ADD SWAP1 PUSH1 0x20 ADD DUP1 DUP4 GT PUSH2 0x770 JUMPI DUP3 SWAP1 SUB PUSH1 0x1F AND DUP3 ADD SWAP2 JUMPDEST POP POP POP POP POP SWAP1 DUP1 PUSH1 0x2 ADD DUP1 SLOAD PUSH2 0x7A2 SWAP1 PUSH2 0xCFA JUMP JUMPDEST DUP1 PUSH1 0x1F ADD PUSH1 0x20 DUP1 SWAP2 DIV MUL PUSH1 0x20 ADD PUSH1 0x40 MLOAD SWAP1 DUP2 ADD PUSH1 0x40 MSTORE DUP1 SWAP3 SWAP2 SWAP1 DUP2 DUP2 MSTORE PUSH1 0x20 ADD DUP3 DUP1 SLOAD PUSH2 0x7CE SWAP1 PUSH2 0xCFA JUMP JUMPDEST DUP1 ISZERO PUSH2 0x81B JUMPI DUP1 PUSH1 0x1F LT PUSH2 0x7F0 JUMPI PUSH2 0x100 DUP1 DUP4 SLOAD DIV MUL DUP4 MSTORE SWAP2 PUSH1 0x20 ADD SWAP2 PUSH2 0x81B JUMP JUMPDEST DUP3 ADD SWAP2 SWAP1 PUSH1 0x0 MSTORE PUSH1 0x20 PUSH1 0x0 KECCAK256 SWAP1 JUMPDEST DUP2 SLOAD DUP2 MSTORE SWAP1 PUSH1 0x1 ADD SWAP1 PUSH1 0x20 ADD DUP1 DUP4 GT PUSH2 0x7FE JUMPI DUP3 SWAP1 SUB PUSH1 0x1F AND DUP3 ADD SWAP2 JUMPDEST POP POP POP POP POP SWAP1 DUP1 PUSH1 0x3 ADD PUSH1 0x0 SWAP1 SLOAD SWAP1 PUSH2 0x100 EXP SWAP1 DIV PUSH1 0xFF AND SWAP1 DUP1 PUSH1 0x3 ADD PUSH1 0x1 SWAP1 SLOAD SWAP1 PUSH2 0x100 EXP SWAP1 DIV PUSH1 0xFF AND SWAP1 DUP1 PUSH1 0x3 ADD PUSH1 0x2 SWAP1 SLOAD SWAP1 PUSH2 0x100 EXP SWAP1 DIV PUSH20 0xFFFFFFFFFFFFFFFFFFFFFFFFFFFFFFFFFFFFFFFF AND SWAP1 POP DUP7 JUMP JUMPDEST PUSH1 0x0 DUP2 SWAP1 POP SWAP2 SWAP1 POP JUMP JUMPDEST PUSH2 0x884 DUP2 PUSH2 0x871 JUMP JUMPDEST DUP3 MSTORE POP POP JUMP JUMPDEST PUSH1 0x0 PUSH1 0x20 DUP3 ADD SWAP1 POP PUSH2 0x89F PUSH1 0x0 DUP4 ADD DUP5 PUSH2 0x87B JUMP JUMPDEST SWAP3 SWAP2 POP POP JUMP JUMPDEST PUSH1 0x0 PUSH1 0x40 MLOAD SWAP1 POP SWAP1 JUMP JUMPDEST PUSH1 0x0 DUP1 REVERT JUMPDEST PUSH1 0x0 DUP1 REVERT JUMPDEST PUSH2 0x8C2 DUP2 PUSH2 0x871 JUMP JUMPDEST DUP2 EQ PUSH2 0x8CD JUMPI PUSH1 0x0 DUP1 REVERT JUMPDEST POP JUMP JUMPDEST PUSH1 0x0 DUP2 CALLDATALOAD SWAP1 POP PUSH2 0x8DF DUP2 PUSH2 0x8B9 JUMP JUMPDEST SWAP3 SWAP2 POP POP JUMP JUMPDEST PUSH1 0x0 PUSH1 0x20 DUP3 DUP5 SUB SLT ISZERO PUSH2 0x8FB JUMPI PUSH2 0x8FA PUSH2 0x8AF JUMP JUMPDEST JUMPDEST PUSH1 0x0 PUSH2 0x909 DUP5 DUP3 DUP6 ADD PUSH2 0x8D0 JUMP JUMPDEST SWAP2 POP POP SWAP3 SWAP2 POP POP JUMP JUMPDEST PUSH1 0x0 DUP2 MLOAD SWAP1 POP SWAP2 SWAP1 POP JUMP JUMPDEST PUSH1 0x0 DUP3 DUP3 MSTORE PUSH1 0x20 DUP3 ADD SWAP1 POP SWAP3 SWAP2 POP POP JUMP JUMPDEST PUSH1 0x0 JUMPDEST DUP4 DUP2 LT ISZERO PUSH2 0x94C JUMPI DUP1 DUP3 ADD MLOAD DUP2 DUP5 ADD MSTORE PUSH1 0x20 DUP2 ADD SWAP1 POP PUSH2 0x931 JUMP JUMPDEST PUSH1 0x0 DUP5 DUP5 ADD MSTORE POP POP POP POP JUMP JUMPDEST PUSH1 0x0 PUSH1 0x1F NOT PUSH1 0x1F DUP4 ADD AND SWAP1 POP SWAP2 SWAP1 POP JUMP JUMPDEST PUSH1 0x0 PUSH2 0x974 DUP3 PUSH2 0x912 JUMP JUMPDEST PUSH2 0x97E DUP2 DUP6 PUSH2 0x91D JUMP JUMPDEST SWAP4 POP PUSH2 0x98E DUP2 DUP6 PUSH1 0x20 DUP7 ADD PUSH2 0x92E JUMP JUMPDEST PUSH2 0x997 DUP2 PUSH2 0x958 JUMP JUMPDEST DUP5 ADD SWAP2 POP POP SWAP3 SWAP2 POP POP JUMP JUMPDEST PUSH1 0x0 DUP2 ISZERO ISZERO SWAP1 POP SWAP2 SWAP1 POP JUMP JUMPDEST PUSH2 0x9B7 DUP2 PUSH2 0x9A2 JUMP JUMPDEST DUP3 MSTORE POP POP JUMP JUMPDEST PUSH1 0x0 PUSH1 0x60 DUP3 ADD SWAP1 POP DUP2 DUP2 SUB PUSH1 0x0 DUP4 ADD MSTORE PUSH2 0x9D7 DUP2 DUP7 PUSH2 0x969 JUMP JUMPDEST SWAP1 POP DUP2 DUP2 SUB PUSH1 0x20 DUP4 ADD MSTORE PUSH2 0x9EB DUP2 DUP6 PUSH2 0x969 JUMP JUMPDEST SWAP1 POP PUSH2 0x9FA PUSH1 0x40 DUP4 ADD DUP5 PUSH2 0x9AE JUMP JUMPDEST SWAP5 SWAP4 POP POP POP POP JUMP JUMPDEST PUSH1 0x0 DUP1 REVERT JUMPDEST PUSH1 0x0 DUP1 REVERT JUMPDEST PUSH32 0x4E487B7100000000000000000000000000000000000000000000000000000000 PUSH1 0x0 MSTORE PUSH1 0x41 PUSH1 0x4 MSTORE PUSH1 0x24 PUSH1 0x0 REVERT JUMPDEST PUSH2 0xA44 DUP3 PUSH2 0x958 JUMP JUMPDEST DUP2 ADD DUP2 DUP2 LT PUSH8 0xFFFFFFFFFFFFFFFF DUP3 GT OR ISZERO PUSH2 0xA63 JUMPI PUSH2 0xA62 PUSH2 0xA0C JUMP JUMPDEST JUMPDEST DUP1 PUSH1 0x40 MSTORE POP POP POP JUMP JUMPDEST PUSH1 0x0 PUSH2 0xA76 PUSH2 0x8A5 JUMP JUMPDEST SWAP1 POP PUSH2 0xA82 DUP3 DUP3 PUSH2 0xA3B JUMP JUMPDEST SWAP2 SWAP1 POP JUMP JUMPDEST PUSH1 0x0 PUSH8 0xFFFFFFFFFFFFFFFF DUP3 GT ISZERO PUSH2 0xAA2 JUMPI PUSH2 0xAA1 PUSH2 0xA0C JUMP JUMPDEST JUMPDEST PUSH2 0xAAB DUP3 PUSH2 0x958 JUMP JUMPDEST SWAP1 POP PUSH1 0x20 DUP2 ADD SWAP1 POP SWAP2 SWAP1 POP JUMP JUMPDEST DUP3 DUP2 DUP4 CALLDATACOPY PUSH1 0x0 DUP4 DUP4 ADD MSTORE POP POP POP JUMP JUMPDEST PUSH1 0x0 PUSH2 0xADA PUSH2 0xAD5 DUP5 PUSH2 0xA87 JUMP JUMPDEST PUSH2 0xA6C JUMP JUMPDEST SWAP1 POP DUP3 DUP2 MSTORE PUSH1 0x20 DUP2 ADD DUP5 DUP5 DUP5 ADD GT ISZERO PUSH2 0xAF6 JUMPI PUSH2 0xAF5 PUSH2 0xA07 JUMP JUMPDEST JUMPDEST PUSH2 0xB01 DUP5 DUP3 DUP6 PUSH2 0xAB8 JUMP JUMPDEST POP SWAP4 SWAP3 POP POP POP JUMP JUMPDEST PUSH1 0x0 DUP3 PUSH1 0x1F DUP4 ADD SLT PUSH2 0xB1E JUMPI PUSH2 0xB1D PUSH2 0xA02 JUMP JUMPDEST JUMPDEST DUP2 CALLDATALOAD PUSH2 0xB2E DUP5 DUP3 PUSH1 0x20 DUP7 ADD PUSH2 0xAC7 JUMP JUMPDEST SWAP2 POP POP SWAP3 SWAP2 POP POP JUMP JUMPDEST PUSH1 0x0 DUP1 PUSH1 0x40 DUP4 DUP6 SUB SLT ISZERO PUSH2 0xB4E JUMPI PUSH2 0xB4D PUSH2 0x8AF JUMP JUMPDEST JUMPDEST PUSH1 0x0 DUP4 ADD CALLDATALOAD PUSH8 0xFFFFFFFFFFFFFFFF DUP2 GT ISZERO PUSH2 0xB6C JUMPI PUSH2 0xB6B PUSH2 0x8B4 JUMP JUMPDEST JUMPDEST PUSH2 0xB78 DUP6 DUP3 DUP7 ADD PUSH2 0xB09 JUMP JUMPDEST SWAP3 POP POP PUSH1 0x20 DUP4 ADD CALLDATALOAD PUSH8 0xFFFFFFFFFFFFFFFF DUP2 GT ISZERO PUSH2 0xB99 JUMPI PUSH2 0xB98 PUSH2 0x8B4 JUMP JUMPDEST JUMPDEST PUSH2 0xBA5 DUP6 DUP3 DUP7 ADD PUSH2 0xB09 JUMP JUMPDEST SWAP2 POP POP SWAP3 POP SWAP3 SWAP1 POP JUMP JUMPDEST PUSH1 0x0 PUSH20 0xFFFFFFFFFFFFFFFFFFFFFFFFFFFFFFFFFFFFFFFF DUP3 AND SWAP1 POP SWAP2 SWAP1 POP JUMP JUMPDEST PUSH1 0x0 PUSH2 0xBDA DUP3 PUSH2 0xBAF JUMP JUMPDEST SWAP1 POP SWAP2 SWAP1 POP JUMP JUMPDEST PUSH2 0xBEA DUP2 PUSH2 0xBCF JUMP JUMPDEST DUP3 MSTORE POP POP JUMP JUMPDEST PUSH1 0x0 PUSH1 0xC0 DUP3 ADD SWAP1 POP PUSH2 0xC05 PUSH1 0x0 DUP4 ADD DUP10 PUSH2 0x87B JUMP JUMPDEST DUP2 DUP2 SUB PUSH1 0x20 DUP4 ADD MSTORE PUSH2 0xC17 DUP2 DUP9 PUSH2 0x969 JUMP JUMPDEST SWAP1 POP DUP2 DUP2 SUB PUSH1 0x40 DUP4 ADD MSTORE PUSH2 0xC2B DUP2 DUP8 PUSH2 0x969 JUMP JUMPDEST SWAP1 POP PUSH2 0xC3A PUSH1 0x60 DUP4 ADD DUP7 PUSH2 0x9AE JUMP JUMPDEST PUSH2 0xC47 PUSH1 0x80 DUP4 ADD DUP6 PUSH2 0x9AE JUMP JUMPDEST PUSH2 0xC54 PUSH1 0xA0 DUP4 ADD DUP5 PUSH2 0xBE1 JUMP JUMPDEST SWAP8 SWAP7 POP POP POP POP POP POP POP JUMP JUMPDEST PUSH32 0x4964656E7469747920646F65736E6F7420457869737473000000000000000000 PUSH1 0x0 DUP3 ADD MSTORE POP JUMP JUMPDEST PUSH1 0x0 PUSH2 0xC95 PUSH1 0x17 DUP4 PUSH2 0x91D JUMP JUMPDEST SWAP2 POP PUSH2 0xCA0 DUP3 PUSH2 0xC5F JUMP JUMPDEST PUSH1 0x20 DUP3 ADD SWAP1 POP SWAP2 SWAP1 POP JUMP JUMPDEST PUSH1 0x0 PUSH1 0x20 DUP3 ADD SWAP1 POP DUP2 DUP2 SUB PUSH1 0x0 DUP4 ADD MSTORE PUSH2 0xCC4 DUP2 PUSH2 0xC88 JUMP JUMPDEST SWAP1 POP SWAP2 SWAP1 POP JUMP JUMPDEST PUSH32 0x4E487B7100000000000000000000000000000000000000000000000000000000 PUSH1 0x0 MSTORE PUSH1 0x22 PUSH1 0x4 MSTORE PUSH1 0x24 PUSH1 0x0 REVERT JUMPDEST PUSH1 0x0 PUSH1 0x2 DUP3 DIV SWAP1 POP PUSH1 0x1 DUP3 AND DUP1 PUSH2 0xD12 JUMPI PUSH1 0x7F DUP3 AND SWAP2 POP JUMPDEST PUSH1 0x20 DUP3 LT DUP2 SUB PUSH2 0xD25 JUMPI PUSH2 0xD24 PUSH2 0xCCB JUMP JUMPDEST JUMPDEST POP SWAP2 SWAP1 POP JUMP JUMPDEST PUSH32 0x4E616D6520697320726571756972656400000000000000000000000000000000 PUSH1 0x0 DUP3 ADD MSTORE POP JUMP JUMPDEST PUSH1 0x0 PUSH2 0xD61 PUSH1 0x10 DUP4 PUSH2 0x91D JUMP JUMPDEST SWAP2 POP PUSH2 0xD6C DUP3 PUSH2 0xD2B JUMP JUMPDEST PUSH1 0x20 DUP3 ADD SWAP1 POP SWAP2 SWAP1 POP JUMP JUMPDEST PUSH1 0x0 PUSH1 0x20 DUP3 ADD SWAP1 POP DUP2 DUP2 SUB PUSH1 0x0 DUP4 ADD MSTORE PUSH2 0xD90 DUP2 PUSH2 0xD54 JUMP JUMPDEST SWAP1 POP SWAP2 SWAP1 POP JUMP JUMPDEST PUSH32 0x456D61696C206973207265717569726564000000000000000000000000000000 PUSH1 0x0 DUP3 ADD MSTORE POP JUMP JUMPDEST PUSH1 0x0 PUSH2 0xDCD PUSH1 0x11 DUP4 PUSH2 0x91D JUMP JUMPDEST SWAP2 POP PUSH2 0xDD8 DUP3 PUSH2 0xD97 JUMP JUMPDEST PUSH1 0x20 DUP3 ADD SWAP1 POP SWAP2 SWAP1 POP JUMP JUMPDEST PUSH1 0x0 PUSH1 0x20 DUP3 ADD SWAP1 POP DUP2 DUP2 SUB PUSH1 0x0 DUP4 ADD MSTORE PUSH2 0xDFC DUP2 PUSH2 0xDC0 JUMP JUMPDEST SWAP1 POP SWAP2 SWAP1 POP JUMP JUMPDEST PUSH32 0x4E487B7100000000000000000000000000000000000000000000000000000000 PUSH1 0x0 MSTORE PUSH1 0x11 PUSH1 0x4 MSTORE PUSH1 0x24 PUSH1 0x0 REVERT JUMPDEST PUSH1 0x0 PUSH2 0xE3D DUP3 PUSH2 0x871 JUMP JUMPDEST SWAP2 POP PUSH32 0xFFFFFFFFFFFFFFFFFFFFFFFFFFFFFFFFFFFFFFFFFFFFFFFFFFFFFFFFFFFFFFFF DUP3 SUB PUSH2 0xE6F JUMPI PUSH2 0xE6E PUSH2 0xE03 JUMP JUMPDEST JUMPDEST PUSH1 0x1 DUP3 ADD SWAP1 POP SWAP2 SWAP1 POP JUMP JUMPDEST PUSH1 0x0 DUP2 SWAP1 POP DUP2 PUSH1 0x0 MSTORE PUSH1 0x20 PUSH1 0x0 KECCAK256 SWAP1 POP SWAP2 SWAP1 POP JUMP JUMPDEST PUSH1 0x0 PUSH1 0x20 PUSH1 0x1F DUP4 ADD DIV SWAP1 POP SWAP2 SWAP1 POP JUMP JUMPDEST PUSH1 0x0 DUP3 DUP3 SHL SWAP1 POP SWAP3 SWAP2 POP POP JUMP JUMPDEST PUSH1 0x0 PUSH1 0x8 DUP4 MUL PUSH2 0xEDC PUSH32 0xFFFFFFFFFFFFFFFFFFFFFFFFFFFFFFFFFFFFFFFFFFFFFFFFFFFFFFFFFFFFFFFF DUP3 PUSH2 0xE9F JUMP JUMPDEST PUSH2 0xEE6 DUP7 DUP4 PUSH2 0xE9F JUMP JUMPDEST SWAP6 POP DUP1 NOT DUP5 AND SWAP4 POP DUP1 DUP7 AND DUP5 OR SWAP3 POP POP POP SWAP4 SWAP3 POP POP POP JUMP JUMPDEST PUSH1 0x0 DUP2 SWAP1 POP SWAP2 SWAP1 POP JUMP JUMPDEST PUSH1 0x0 PUSH2 0xF23 PUSH2 0xF1E PUSH2 0xF19 DUP5 PUSH2 0x871 JUMP JUMPDEST PUSH2 0xEFE JUMP JUMPDEST PUSH2 0x871 JUMP JUMPDEST SWAP1 POP SWAP2 SWAP1 POP JUMP JUMPDEST PUSH1 0x0 DUP2 SWAP1 POP SWAP2 SWAP1 POP JUMP JUMPDEST PUSH2 0xF3D DUP4 PUSH2 0xF08 JUMP JUMPDEST PUSH2 0xF51 PUSH2 0xF49 DUP3 PUSH2 0xF2A JUMP JUMPDEST DUP5 DUP5 SLOAD PUSH2 0xEAC JUMP JUMPDEST DUP3 SSTORE POP POP POP POP JUMP JUMPDEST PUSH1 0x0 SWAP1 JUMP JUMPDEST PUSH2 0xF66 PUSH2 0xF59 JUMP JUMPDEST PUSH2 0xF71 DUP2 DUP5 DUP5 PUSH2 0xF34 JUMP JUMPDEST POP POP POP JUMP JUMPDEST JUMPDEST DUP2 DUP2 LT ISZERO PUSH2 0xF95 JUMPI PUSH2 0xF8A PUSH1 0x0 DUP3 PUSH2 0xF5E JUMP JUMPDEST PUSH1 0x1 DUP2 ADD SWAP1 POP PUSH2 0xF77 JUMP JUMPDEST POP POP JUMP JUMPDEST PUSH1 0x1F DUP3 GT ISZERO PUSH2 0xFDA JUMPI PUSH2 0xFAB DUP2 PUSH2 0xE7A JUMP JUMPDEST PUSH2 0xFB4 DUP5 PUSH2 0xE8F JUMP JUMPDEST DUP2 ADD PUSH1 0x20 DUP6 LT ISZERO PUSH2 0xFC3 JUMPI DUP2 SWAP1 POP JUMPDEST PUSH2 0xFD7 PUSH2 0xFCF DUP6 PUSH2 0xE8F JUMP JUMPDEST DUP4 ADD DUP3 PUSH2 0xF76 JUMP JUMPDEST POP POP JUMPDEST POP POP POP JUMP JUMPDEST PUSH1 0x0 DUP3 DUP3 SHR SWAP1 POP SWAP3 SWAP2 POP POP JUMP JUMPDEST PUSH1 0x0 PUSH2 0xFFD PUSH1 0x0 NOT DUP5 PUSH1 0x8 MUL PUSH2 0xFDF JUMP JUMPDEST NOT DUP1 DUP4 AND SWAP2 POP POP SWAP3 SWAP2 POP POP JUMP JUMPDEST PUSH1 0x0 PUSH2 0x1016 DUP4 DUP4 PUSH2 0xFEC JUMP JUMPDEST SWAP2 POP DUP3 PUSH1 0x2 MUL DUP3 OR SWAP1 POP SWAP3 SWAP2 POP POP JUMP JUMPDEST PUSH2 0x102F DUP3 PUSH2 0x912 JUMP JUMPDEST PUSH8 0xFFFFFFFFFFFFFFFF DUP2 GT ISZERO PUSH2 0x1048 JUMPI PUSH2 0x1047 PUSH2 0xA0C JUMP JUMPDEST JUMPDEST PUSH2 0x1052 DUP3 SLOAD PUSH2 0xCFA JUMP JUMPDEST PUSH2 0x105D DUP3 DUP3 DUP6 PUSH2 0xF99 JUMP JUMPDEST PUSH1 0x0 PUSH1 0x20 SWAP1 POP PUSH1 0x1F DUP4 GT PUSH1 0x1 DUP2 EQ PUSH2 0x1090 JUMPI PUSH1 0x0 DUP5 ISZERO PUSH2 0x107E JUMPI DUP3 DUP8 ADD MLOAD SWAP1 POP JUMPDEST PUSH2 0x1088 DUP6 DUP3 PUSH2 0x100A JUMP JUMPDEST DUP7 SSTORE POP PUSH2 0x10F0 JUMP JUMPDEST PUSH1 0x1F NOT DUP5 AND PUSH2 0x109E DUP7 PUSH2 0xE7A JUMP JUMPDEST PUSH1 0x0 JUMPDEST DUP3 DUP2 LT ISZERO PUSH2 0x10C6 JUMPI DUP5 DUP10 ADD MLOAD DUP3 SSTORE PUSH1 0x1 DUP3 ADD SWAP2 POP PUSH1 0x20 DUP6 ADD SWAP5 POP PUSH1 0x20 DUP2 ADD SWAP1 POP PUSH2 0x10A1 JUMP JUMPDEST DUP7 DUP4 LT ISZERO PUSH2 0x10E3 JUMPI DUP5 DUP10 ADD MLOAD PUSH2 0x10DF PUSH1 0x1F DUP10 AND DUP3 PUSH2 0xFEC JUMP JUMPDEST DUP4 SSTORE POP JUMPDEST PUSH1 0x1 PUSH1 0x2 DUP9 MUL ADD DUP9 SSTORE POP POP POP JUMPDEST POP POP POP POP POP POP JUMP JUMPDEST PUSH1 0x0 PUSH1 0x40 DUP3 ADD SWAP1 POP DUP2 DUP2 SUB PUSH1 0x0 DUP4 ADD MSTORE PUSH2 0x1112 DUP2 DUP6 PUSH2 0x969 JUMP JUMPDEST SWAP1 POP DUP2 DUP2 SUB PUSH1 0x20 DUP4 ADD MSTORE PUSH2 0x1126 DUP2 DUP5 PUSH2 0x969 JUMP JUMPDEST SWAP1 POP SWAP4 SWAP3 POP POP POP JUMP JUMPDEST PUSH32 0x416C726561647920566572696669656400000000000000000000000000000000 PUSH1 0x0 DUP3 ADD MSTORE POP JUMP JUMPDEST PUSH1 0x0 PUSH2 0x1165 PUSH1 0x10 DUP4 PUSH2 0x91D JUMP JUMPDEST SWAP2 POP PUSH2 0x1170 DUP3 PUSH2 0x112F JUMP JUMPDEST PUSH1 0x20 DUP3 ADD SWAP1 POP SWAP2 SWAP1 POP JUMP JUMPDEST PUSH1 0x0 PUSH1 0x20 DUP3 ADD SWAP1 POP DUP2 DUP2 SUB PUSH1 0x0 DUP4 ADD MSTORE PUSH2 0x1194 DUP2 PUSH2 0x1158 JUMP JUMPDEST SWAP1 POP SWAP2 SWAP1 POP JUMP JUMPDEST PUSH32 0x596F7520646F6E74206F776E20746865206964656E7469747900000000000000 PUSH1 0x0 DUP3 ADD MSTORE POP JUMP JUMPDEST PUSH1 0x0 PUSH2 0x11D1 PUSH1 0x19 DUP4 PUSH2 0x91D JUMP JUMPDEST SWAP2 POP PUSH2 0x11DC DUP3 PUSH2 0x119B JUMP JUMPDEST PUSH1 0x20 DUP3 ADD SWAP1 POP SWAP2 SWAP1 POP JUMP JUMPDEST PUSH1 0x0 PUSH1 0x20 DUP3 ADD SWAP1 POP DUP2 DUP2 SUB PUSH1 0x0 DUP4 ADD MSTORE PUSH2 0x1200 DUP2 PUSH2 0x11C4 JUMP JUMPDEST SWAP1 POP SWAP2 SWAP1 POP JUMP INVALID LOG2 PUSH5 0x6970667358 0x22 SLT KECCAK256 0x2C 0x5C 0xCD PUSH10 0x13D117D8DE8CD5EE1DE6 SWAP10 CALL 0xBB MOD SWAP13 0xDF NUMBER SELFBALANCE CODECOPY SWAP13 0xAB 0xC3 LT ADDRESS 0xA7 LOG0 0x49 SWAP8 PUSH5 0x736F6C6343 STOP ADDMOD SLT STOP CALLER "
				},
				"gasEstimates": {
					"creation": {
						"codeDepositCost": "933800",
						"executionCost": "968",
						"totalCost": "934768"
					},
					"external": {
						"createIdentity(string,string)": "infinite",
						"getIdentity(uint256)": "infinite",
						"identities(uint256)": "infinite",
						"peopleCount()": "2407",
						"verifyIdentity(uint256)": "32784"
					}
				},
				"methodIdentifiers": {
					"createIdentity(string,string)": "a309e6e1",
					"getIdentity(uint256)": "85e3f058",
					"identities(uint256)": "eaaf77e6",
					"peopleCount()": "267c68e0",
					"verifyIdentity(uint256)": "babb55c5"
				}
			},
			"storageLayout": {
				"storage": [
					{
						"astId": 19,
						"contract": "contracts/15-D_Identity/d_identity.sol:DID",
						"label": "identities",
						"offset": 0,
						"slot": "0",
						"type": "t_mapping(t_uint256,t_struct(Id)14_storage)"
					},
					{
						"astId": 21,
						"contract": "contracts/15-D_Identity/d_identity.sol:DID",
						"label": "peopleCount",
						"offset": 0,
						"slot": "1",
						"type": "t_uint256"
					}
				],
				"types": {
					"t_address": {
						"encoding": "inplace",
						"label": "address",
						"numberOfBytes": "20"
					},
					"t_bool": {
						"encoding": "inplace",
						"label": "bool",
						"numberOfBytes": "1"
					},
					"t_mapping(t_uint256,t_struct(Id)14_storage)": {
						"encoding": "mapping",
						"key": "t_uint256",
						"label": "mapping(uint256 => struct DID.Id)",
						"numberOfBytes": "32",
						"value": "t_struct(Id)14_storage"
					},
					"t_string_storage": {
						"encoding": "bytes",
						"label": "string",
						"numberOfBytes": "32"
					},
					"t_struct(Id)14_storage": {
						"encoding": "inplace",
						"label": "struct DID.Id",
						"members": [
							{
								"astId": 3,
								"contract": "contracts/15-D_Identity/d_identity.sol:DID",
								"label": "cnic",
								"offset": 0,
								"slot": "0",
								"type": "t_uint256"
							},
							{
								"astId": 5,
								"contract": "contracts/15-D_Identity/d_identity.sol:DID",
								"label": "user_name",
								"offset": 0,
								"slot": "1",
								"type": "t_string_storage"
							},
							{
								"astId": 7,
								"contract": "contracts/15-D_Identity/d_identity.sol:DID",
								"label": "user_email",
								"offset": 0,
								"slot": "2",
								"type": "t_string_storage"
							},
							{
								"astId": 9,
								"contract": "contracts/15-D_Identity/d_identity.sol:DID",
								"label": "verified",
								"offset": 0,
								"slot": "3",
								"type": "t_bool"
							},
							{
								"astId": 11,
								"contract": "contracts/15-D_Identity/d_identity.sol:DID",
								"label": "exists",
								"offset": 1,
								"slot": "3",
								"type": "t_bool"
							},
							{
								"astId": 13,
								"contract": "contracts/15-D_Identity/d_identity.sol:DID",
								"label": "owner",
								"offset": 2,
								"slot": "3",
								"type": "t_address"
							}
						],
						"numberOfBytes": "128"
					},
					"t_uint256": {
						"encoding": "inplace",
						"label": "uint256",
						"numberOfBytes": "32"
					}
				}
			},
			"userdoc": {
				"kind": "user",
				"methods": {},
				"version": 1
			}
		}
	}
}