{
	"contracts/4-Inheritence/Inherit.sol": {
		"Inheritence_Contract": {
			"abi": [
				{
					"inputs": [
						{
							"internalType": "string",
							"name": "_secret",
							"type": "string"
						}
					],
					"stateMutability": "nonpayable",
					"type": "constructor"
				},
				{
					"inputs": [],
					"name": "getSecret",
					"outputs": [
						{
							"internalType": "string",
							"name": "",
							"type": "string"
						}
					],
					"stateMutability": "view",
					"type": "function"
				}
			],
			"devdoc": {
				"kind": "dev",
				"methods": {},
				"version": 1
			},
			"evm": {
				"assembly": "    /* \"contracts/4-Inheritence/Inherit.sol\":559:1057  contract Inheritence_Contract is Ownable {... */\n  mstore(0x40, 0x80)\n    /* \"contracts/4-Inheritence/Inherit.sol\":634:849  constructor(string memory _secret)  {... */\n  callvalue\n  dup1\n  iszero\n  tag_1\n  jumpi\n  0x00\n  dup1\n  revert\ntag_1:\n  pop\n  mload(0x40)\n  sub(codesize, bytecodeSize)\n  dup1\n  bytecodeSize\n  dup4\n  codecopy\n  dup2\n  dup2\n  add\n  0x40\n  mstore\n  dup2\n  add\n  swap1\n  tag_2\n  swap2\n  swap1\n  tag_3\n  jump\t// in\ntag_2:\n    /* \"contracts/4-Inheritence/Inherit.sol\":233:243  msg.sender */\n  caller\n    /* \"contracts/4-Inheritence/Inherit.sol\":225:230  owner */\n  0x00\n  dup1\n    /* \"contracts/4-Inheritence/Inherit.sol\":225:243  owner = msg.sender */\n  0x0100\n  exp\n  dup2\n  sload\n  dup2\n  0xffffffffffffffffffffffffffffffffffffffff\n  mul\n  not\n  and\n  swap1\n  dup4\n  0xffffffffffffffffffffffffffffffffffffffff\n  and\n  mul\n  or\n  swap1\n  sstore\n  pop\n    /* \"contracts/4-Inheritence/Inherit.sol\":680:705  SecretVault localVariable */\n  0x00\n    /* \"contracts/4-Inheritence/Inherit.sol\":724:731  _secret */\n  dup2\n    /* \"contracts/4-Inheritence/Inherit.sol\":708:732  new SecretVault(_secret) */\n  mload(0x40)\n  tag_8\n  swap1\n  tag_9\n  jump\t// in\ntag_8:\n  tag_10\n  swap2\n  swap1\n  tag_11\n  jump\t// in\ntag_10:\n  mload(0x40)\n  dup1\n  swap2\n  sub\n  swap1\n  0x00\n  create\n  dup1\n  iszero\n  dup1\n  iszero\n  tag_12\n  jumpi\n  returndatasize\n  0x00\n  dup1\n  returndatacopy\n  revert(0x00, returndatasize)\ntag_12:\n  pop\n    /* \"contracts/4-Inheritence/Inherit.sol\":680:732  SecretVault localVariable = new SecretVault(_secret) */\n  swap1\n  pop\n    /* \"contracts/4-Inheritence/Inherit.sol\":767:780  localVariable */\n  dup1\n    /* \"contracts/4-Inheritence/Inherit.sol\":742:756  newSecretVault */\n  0x01\n  0x00\n    /* \"contracts/4-Inheritence/Inherit.sol\":742:781  newSecretVault = address(localVariable) */\n  0x0100\n  exp\n  dup2\n  sload\n  dup2\n  0xffffffffffffffffffffffffffffffffffffffff\n  mul\n  not\n  and\n  swap1\n  dup4\n  0xffffffffffffffffffffffffffffffffffffffff\n  and\n  mul\n  or\n  swap1\n  sstore\n  pop\n    /* \"contracts/4-Inheritence/Inherit.sol\":670:849  {... */\n  pop\n    /* \"contracts/4-Inheritence/Inherit.sol\":634:849  constructor(string memory _secret)  {... */\n  pop\n    /* \"contracts/4-Inheritence/Inherit.sol\":559:1057  contract Inheritence_Contract is Ownable {... */\n  jump(tag_13)\ntag_9:\n  dataSize(sub_1)\n  dup1\n  dataOffset(sub_1)\n  dup4\n  codecopy\n  add\n  swap1\n  jump\t// out\n    /* \"#utility.yul\":7:82   */\ntag_14:\n    /* \"#utility.yul\":40:46   */\n  0x00\n    /* \"#utility.yul\":73:75   */\n  0x40\n    /* \"#utility.yul\":67:76   */\n  mload\n    /* \"#utility.yul\":57:76   */\n  swap1\n  pop\n    /* \"#utility.yul\":7:82   */\n  swap1\n  jump\t// out\n    /* \"#utility.yul\":88:205   */\ntag_15:\n    /* \"#utility.yul\":197:198   */\n  0x00\n    /* \"#utility.yul\":194:195   */\n  dup1\n    /* \"#utility.yul\":187:199   */\n  revert\n    /* \"#utility.yul\":211:328   */\ntag_16:\n    /* \"#utility.yul\":320:321   */\n  0x00\n    /* \"#utility.yul\":317:318   */\n  dup1\n    /* \"#utility.yul\":310:322   */\n  revert\n    /* \"#utility.yul\":334:451   */\ntag_17:\n    /* \"#utility.yul\":443:444   */\n  0x00\n    /* \"#utility.yul\":440:441   */\n  dup1\n    /* \"#utility.yul\":433:445   */\n  revert\n    /* \"#utility.yul\":457:574   */\ntag_18:\n    /* \"#utility.yul\":566:567   */\n  0x00\n    /* \"#utility.yul\":563:564   */\n  dup1\n    /* \"#utility.yul\":556:568   */\n  revert\n    /* \"#utility.yul\":580:682   */\ntag_19:\n    /* \"#utility.yul\":621:627   */\n  0x00\n    /* \"#utility.yul\":672:674   */\n  0x1f\n    /* \"#utility.yul\":668:675   */\n  not\n    /* \"#utility.yul\":663:665   */\n  0x1f\n    /* \"#utility.yul\":656:661   */\n  dup4\n    /* \"#utility.yul\":652:666   */\n  add\n    /* \"#utility.yul\":648:676   */\n  and\n    /* \"#utility.yul\":638:676   */\n  swap1\n  pop\n    /* \"#utility.yul\":580:682   */\n  swap2\n  swap1\n  pop\n  jump\t// out\n    /* \"#utility.yul\":688:868   */\ntag_20:\n    /* \"#utility.yul\":736:813   */\n  0x4e487b7100000000000000000000000000000000000000000000000000000000\n    /* \"#utility.yul\":733:734   */\n  0x00\n    /* \"#utility.yul\":726:814   */\n  mstore\n    /* \"#utility.yul\":833:837   */\n  0x41\n    /* \"#utility.yul\":830:831   */\n  0x04\n    /* \"#utility.yul\":823:838   */\n  mstore\n    /* \"#utility.yul\":857:861   */\n  0x24\n    /* \"#utility.yul\":854:855   */\n  0x00\n    /* \"#utility.yul\":847:862   */\n  revert\n    /* \"#utility.yul\":874:1155   */\ntag_21:\n    /* \"#utility.yul\":957:984   */\n  tag_39\n    /* \"#utility.yul\":979:983   */\n  dup3\n    /* \"#utility.yul\":957:984   */\n  tag_19\n  jump\t// in\ntag_39:\n    /* \"#utility.yul\":949:955   */\n  dup2\n    /* \"#utility.yul\":945:985   */\n  add\n    /* \"#utility.yul\":1087:1093   */\n  dup2\n    /* \"#utility.yul\":1075:1085   */\n  dup2\n    /* \"#utility.yul\":1072:1094   */\n  lt\n    /* \"#utility.yul\":1051:1069   */\n  0xffffffffffffffff\n    /* \"#utility.yul\":1039:1049   */\n  dup3\n    /* \"#utility.yul\":1036:1070   */\n  gt\n    /* \"#utility.yul\":1033:1095   */\n  or\n    /* \"#utility.yul\":1030:1118   */\n  iszero\n  tag_40\n  jumpi\n    /* \"#utility.yul\":1098:1116   */\n  tag_41\n  tag_20\n  jump\t// in\ntag_41:\n    /* \"#utility.yul\":1030:1118   */\ntag_40:\n    /* \"#utility.yul\":1138:1148   */\n  dup1\n    /* \"#utility.yul\":1134:1136   */\n  0x40\n    /* \"#utility.yul\":1127:1149   */\n  mstore\n    /* \"#utility.yul\":917:1155   */\n  pop\n    /* \"#utility.yul\":874:1155   */\n  pop\n  pop\n  jump\t// out\n    /* \"#utility.yul\":1161:1290   */\ntag_22:\n    /* \"#utility.yul\":1195:1201   */\n  0x00\n    /* \"#utility.yul\":1222:1242   */\n  tag_43\n  tag_14\n  jump\t// in\ntag_43:\n    /* \"#utility.yul\":1212:1242   */\n  swap1\n  pop\n    /* \"#utility.yul\":1251:1284   */\n  tag_44\n    /* \"#utility.yul\":1279:1283   */\n  dup3\n    /* \"#utility.yul\":1271:1277   */\n  dup3\n    /* \"#utility.yul\":1251:1284   */\n  tag_21\n  jump\t// in\ntag_44:\n    /* \"#utility.yul\":1161:1290   */\n  swap2\n  swap1\n  pop\n  jump\t// out\n    /* \"#utility.yul\":1296:1604   */\ntag_23:\n    /* \"#utility.yul\":1358:1362   */\n  0x00\n    /* \"#utility.yul\":1448:1466   */\n  0xffffffffffffffff\n    /* \"#utility.yul\":1440:1446   */\n  dup3\n    /* \"#utility.yul\":1437:1467   */\n  gt\n    /* \"#utility.yul\":1434:1490   */\n  iszero\n  tag_46\n  jumpi\n    /* \"#utility.yul\":1470:1488   */\n  tag_47\n  tag_20\n  jump\t// in\ntag_47:\n    /* \"#utility.yul\":1434:1490   */\ntag_46:\n    /* \"#utility.yul\":1508:1537   */\n  tag_48\n    /* \"#utility.yul\":1530:1536   */\n  dup3\n    /* \"#utility.yul\":1508:1537   */\n  tag_19\n  jump\t// in\ntag_48:\n    /* \"#utility.yul\":1500:1537   */\n  swap1\n  pop\n    /* \"#utility.yul\":1592:1596   */\n  0x20\n    /* \"#utility.yul\":1586:1590   */\n  dup2\n    /* \"#utility.yul\":1582:1597   */\n  add\n    /* \"#utility.yul\":1574:1597   */\n  swap1\n  pop\n    /* \"#utility.yul\":1296:1604   */\n  swap2\n  swap1\n  pop\n  jump\t// out\n    /* \"#utility.yul\":1610:1856   */\ntag_24:\n    /* \"#utility.yul\":1691:1692   */\n  0x00\n    /* \"#utility.yul\":1701:1814   */\ntag_50:\n    /* \"#utility.yul\":1715:1721   */\n  dup4\n    /* \"#utility.yul\":1712:1713   */\n  dup2\n    /* \"#utility.yul\":1709:1722   */\n  lt\n    /* \"#utility.yul\":1701:1814   */\n  iszero\n  tag_52\n  jumpi\n    /* \"#utility.yul\":1800:1801   */\n  dup1\n    /* \"#utility.yul\":1795:1798   */\n  dup3\n    /* \"#utility.yul\":1791:1802   */\n  add\n    /* \"#utility.yul\":1785:1803   */\n  mload\n    /* \"#utility.yul\":1781:1782   */\n  dup2\n    /* \"#utility.yul\":1776:1779   */\n  dup5\n    /* \"#utility.yul\":1772:1783   */\n  add\n    /* \"#utility.yul\":1765:1804   */\n  mstore\n    /* \"#utility.yul\":1737:1739   */\n  0x20\n    /* \"#utility.yul\":1734:1735   */\n  dup2\n    /* \"#utility.yul\":1730:1740   */\n  add\n    /* \"#utility.yul\":1725:1740   */\n  swap1\n  pop\n    /* \"#utility.yul\":1701:1814   */\n  jump(tag_50)\ntag_52:\n    /* \"#utility.yul\":1848:1849   */\n  0x00\n    /* \"#utility.yul\":1839:1845   */\n  dup5\n    /* \"#utility.yul\":1834:1837   */\n  dup5\n    /* \"#utility.yul\":1830:1846   */\n  add\n    /* \"#utility.yul\":1823:1850   */\n  mstore\n    /* \"#utility.yul\":1672:1856   */\n  pop\n    /* \"#utility.yul\":1610:1856   */\n  pop\n  pop\n  pop\n  jump\t// out\n    /* \"#utility.yul\":1862:2296   */\ntag_25:\n    /* \"#utility.yul\":1951:1956   */\n  0x00\n    /* \"#utility.yul\":1976:2042   */\n  tag_54\n    /* \"#utility.yul\":1992:2041   */\n  tag_55\n    /* \"#utility.yul\":2034:2040   */\n  dup5\n    /* \"#utility.yul\":1992:2041   */\n  tag_23\n  jump\t// in\ntag_55:\n    /* \"#utility.yul\":1976:2042   */\n  tag_22\n  jump\t// in\ntag_54:\n    /* \"#utility.yul\":1967:2042   */\n  swap1\n  pop\n    /* \"#utility.yul\":2065:2071   */\n  dup3\n    /* \"#utility.yul\":2058:2063   */\n  dup2\n    /* \"#utility.yul\":2051:2072   */\n  mstore\n    /* \"#utility.yul\":2103:2107   */\n  0x20\n    /* \"#utility.yul\":2096:2101   */\n  dup2\n    /* \"#utility.yul\":2092:2108   */\n  add\n    /* \"#utility.yul\":2141:2144   */\n  dup5\n    /* \"#utility.yul\":2132:2138   */\n  dup5\n    /* \"#utility.yul\":2127:2130   */\n  dup5\n    /* \"#utility.yul\":2123:2139   */\n  add\n    /* \"#utility.yul\":2120:2145   */\n  gt\n    /* \"#utility.yul\":2117:2229   */\n  iszero\n  tag_56\n  jumpi\n    /* \"#utility.yul\":2148:2227   */\n  tag_57\n  tag_18\n  jump\t// in\ntag_57:\n    /* \"#utility.yul\":2117:2229   */\ntag_56:\n    /* \"#utility.yul\":2238:2290   */\n  tag_58\n    /* \"#utility.yul\":2283:2289   */\n  dup5\n    /* \"#utility.yul\":2278:2281   */\n  dup3\n    /* \"#utility.yul\":2273:2276   */\n  dup6\n    /* \"#utility.yul\":2238:2290   */\n  tag_24\n  jump\t// in\ntag_58:\n    /* \"#utility.yul\":1957:2296   */\n  pop\n    /* \"#utility.yul\":1862:2296   */\n  swap4\n  swap3\n  pop\n  pop\n  pop\n  jump\t// out\n    /* \"#utility.yul\":2316:2671   */\ntag_26:\n    /* \"#utility.yul\":2383:2388   */\n  0x00\n    /* \"#utility.yul\":2432:2435   */\n  dup3\n    /* \"#utility.yul\":2425:2429   */\n  0x1f\n    /* \"#utility.yul\":2417:2423   */\n  dup4\n    /* \"#utility.yul\":2413:2430   */\n  add\n    /* \"#utility.yul\":2409:2436   */\n  slt\n    /* \"#utility.yul\":2399:2521   */\n  tag_60\n  jumpi\n    /* \"#utility.yul\":2440:2519   */\n  tag_61\n  tag_17\n  jump\t// in\ntag_61:\n    /* \"#utility.yul\":2399:2521   */\ntag_60:\n    /* \"#utility.yul\":2550:2556   */\n  dup2\n    /* \"#utility.yul\":2544:2557   */\n  mload\n    /* \"#utility.yul\":2575:2665   */\n  tag_62\n    /* \"#utility.yul\":2661:2664   */\n  dup5\n    /* \"#utility.yul\":2653:2659   */\n  dup3\n    /* \"#utility.yul\":2646:2650   */\n  0x20\n    /* \"#utility.yul\":2638:2644   */\n  dup7\n    /* \"#utility.yul\":2634:2651   */\n  add\n    /* \"#utility.yul\":2575:2665   */\n  tag_25\n  jump\t// in\ntag_62:\n    /* \"#utility.yul\":2566:2665   */\n  swap2\n  pop\n    /* \"#utility.yul\":2389:2671   */\n  pop\n    /* \"#utility.yul\":2316:2671   */\n  swap3\n  swap2\n  pop\n  pop\n  jump\t// out\n    /* \"#utility.yul\":2677:3201   */\ntag_3:\n    /* \"#utility.yul\":2757:2763   */\n  0x00\n    /* \"#utility.yul\":2806:2808   */\n  0x20\n    /* \"#utility.yul\":2794:2803   */\n  dup3\n    /* \"#utility.yul\":2785:2792   */\n  dup5\n    /* \"#utility.yul\":2781:2804   */\n  sub\n    /* \"#utility.yul\":2777:2809   */\n  slt\n    /* \"#utility.yul\":2774:2893   */\n  iszero\n  tag_64\n  jumpi\n    /* \"#utility.yul\":2812:2891   */\n  tag_65\n  tag_15\n  jump\t// in\ntag_65:\n    /* \"#utility.yul\":2774:2893   */\ntag_64:\n    /* \"#utility.yul\":2953:2954   */\n  0x00\n    /* \"#utility.yul\":2942:2951   */\n  dup3\n    /* \"#utility.yul\":2938:2955   */\n  add\n    /* \"#utility.yul\":2932:2956   */\n  mload\n    /* \"#utility.yul\":2983:3001   */\n  0xffffffffffffffff\n    /* \"#utility.yul\":2975:2981   */\n  dup2\n    /* \"#utility.yul\":2972:3002   */\n  gt\n    /* \"#utility.yul\":2969:3086   */\n  iszero\n  tag_66\n  jumpi\n    /* \"#utility.yul\":3005:3084   */\n  tag_67\n  tag_16\n  jump\t// in\ntag_67:\n    /* \"#utility.yul\":2969:3086   */\ntag_66:\n    /* \"#utility.yul\":3110:3184   */\n  tag_68\n    /* \"#utility.yul\":3176:3183   */\n  dup5\n    /* \"#utility.yul\":3167:3173   */\n  dup3\n    /* \"#utility.yul\":3156:3165   */\n  dup6\n    /* \"#utility.yul\":3152:3174   */\n  add\n    /* \"#utility.yul\":3110:3184   */\n  tag_26\n  jump\t// in\ntag_68:\n    /* \"#utility.yul\":3100:3184   */\n  swap2\n  pop\n    /* \"#utility.yul\":2903:3194   */\n  pop\n    /* \"#utility.yul\":2677:3201   */\n  swap3\n  swap2\n  pop\n  pop\n  jump\t// out\n    /* \"#utility.yul\":3207:3306   */\ntag_27:\n    /* \"#utility.yul\":3259:3265   */\n  0x00\n    /* \"#utility.yul\":3293:3298   */\n  dup2\n    /* \"#utility.yul\":3287:3299   */\n  mload\n    /* \"#utility.yul\":3277:3299   */\n  swap1\n  pop\n    /* \"#utility.yul\":3207:3306   */\n  swap2\n  swap1\n  pop\n  jump\t// out\n    /* \"#utility.yul\":3312:3481   */\ntag_28:\n    /* \"#utility.yul\":3396:3407   */\n  0x00\n    /* \"#utility.yul\":3430:3436   */\n  dup3\n    /* \"#utility.yul\":3425:3428   */\n  dup3\n    /* \"#utility.yul\":3418:3437   */\n  mstore\n    /* \"#utility.yul\":3470:3474   */\n  0x20\n    /* \"#utility.yul\":3465:3468   */\n  dup3\n    /* \"#utility.yul\":3461:3475   */\n  add\n    /* \"#utility.yul\":3446:3475   */\n  swap1\n  pop\n    /* \"#utility.yul\":3312:3481   */\n  swap3\n  swap2\n  pop\n  pop\n  jump\t// out\n    /* \"#utility.yul\":3487:3864   */\ntag_29:\n    /* \"#utility.yul\":3575:3578   */\n  0x00\n    /* \"#utility.yul\":3603:3642   */\n  tag_72\n    /* \"#utility.yul\":3636:3641   */\n  dup3\n    /* \"#utility.yul\":3603:3642   */\n  tag_27\n  jump\t// in\ntag_72:\n    /* \"#utility.yul\":3658:3729   */\n  tag_73\n    /* \"#utility.yul\":3722:3728   */\n  dup2\n    /* \"#utility.yul\":3717:3720   */\n  dup6\n    /* \"#utility.yul\":3658:3729   */\n  tag_28\n  jump\t// in\ntag_73:\n    /* \"#utility.yul\":3651:3729   */\n  swap4\n  pop\n    /* \"#utility.yul\":3738:3803   */\n  tag_74\n    /* \"#utility.yul\":3796:3802   */\n  dup2\n    /* \"#utility.yul\":3791:3794   */\n  dup6\n    /* \"#utility.yul\":3784:3788   */\n  0x20\n    /* \"#utility.yul\":3777:3782   */\n  dup7\n    /* \"#utility.yul\":3773:3789   */\n  add\n    /* \"#utility.yul\":3738:3803   */\n  tag_24\n  jump\t// in\ntag_74:\n    /* \"#utility.yul\":3828:3857   */\n  tag_75\n    /* \"#utility.yul\":3850:3856   */\n  dup2\n    /* \"#utility.yul\":3828:3857   */\n  tag_19\n  jump\t// in\ntag_75:\n    /* \"#utility.yul\":3823:3826   */\n  dup5\n    /* \"#utility.yul\":3819:3858   */\n  add\n    /* \"#utility.yul\":3812:3858   */\n  swap2\n  pop\n    /* \"#utility.yul\":3579:3864   */\n  pop\n    /* \"#utility.yul\":3487:3864   */\n  swap3\n  swap2\n  pop\n  pop\n  jump\t// out\n    /* \"#utility.yul\":3870:4183   */\ntag_11:\n    /* \"#utility.yul\":3983:3987   */\n  0x00\n    /* \"#utility.yul\":4021:4023   */\n  0x20\n    /* \"#utility.yul\":4010:4019   */\n  dup3\n    /* \"#utility.yul\":4006:4024   */\n  add\n    /* \"#utility.yul\":3998:4024   */\n  swap1\n  pop\n    /* \"#utility.yul\":4070:4079   */\n  dup2\n    /* \"#utility.yul\":4064:4068   */\n  dup2\n    /* \"#utility.yul\":4060:4080   */\n  sub\n    /* \"#utility.yul\":4056:4057   */\n  0x00\n    /* \"#utility.yul\":4045:4054   */\n  dup4\n    /* \"#utility.yul\":4041:4058   */\n  add\n    /* \"#utility.yul\":4034:4081   */\n  mstore\n    /* \"#utility.yul\":4098:4176   */\n  tag_77\n    /* \"#utility.yul\":4171:4175   */\n  dup2\n    /* \"#utility.yul\":4162:4168   */\n  dup5\n    /* \"#utility.yul\":4098:4176   */\n  tag_29\n  jump\t// in\ntag_77:\n    /* \"#utility.yul\":4090:4176   */\n  swap1\n  pop\n    /* \"#utility.yul\":3870:4183   */\n  swap3\n  swap2\n  pop\n  pop\n  jump\t// out\n    /* \"contracts/4-Inheritence/Inherit.sol\":559:1057  contract Inheritence_Contract is Ownable {... */\ntag_13:\n  dataSize(sub_0)\n  dup1\n  dataOffset(sub_0)\n  0x00\n  codecopy\n  0x00\n  return\nstop\n\nsub_0: assembly {\n        /* \"contracts/4-Inheritence/Inherit.sol\":559:1057  contract Inheritence_Contract is Ownable {... */\n      mstore(0x40, 0x80)\n      callvalue\n      dup1\n      iszero\n      tag_1\n      jumpi\n      0x00\n      dup1\n      revert\n    tag_1:\n      pop\n      jumpi(tag_2, lt(calldatasize, 0x04))\n      shr(0xe0, calldataload(0x00))\n      dup1\n      0x5b9fdc30\n      eq\n      tag_3\n      jumpi\n    tag_2:\n      0x00\n      dup1\n      revert\n        /* \"contracts/4-Inheritence/Inherit.sol\":854:1055  function getSecret() public view onlyOwner returns (string memory) {... */\n    tag_3:\n      tag_4\n      tag_5\n      jump\t// in\n    tag_4:\n      mload(0x40)\n      tag_6\n      swap2\n      swap1\n      tag_7\n      jump\t// in\n    tag_6:\n      mload(0x40)\n      dup1\n      swap2\n      sub\n      swap1\n      return\n    tag_5:\n        /* \"contracts/4-Inheritence/Inherit.sol\":906:919  string memory */\n      0x60\n        /* \"contracts/4-Inheritence/Inherit.sol\":153:158  owner */\n      0x00\n      dup1\n      sload\n      swap1\n      0x0100\n      exp\n      swap1\n      div\n      0xffffffffffffffffffffffffffffffffffffffff\n      and\n        /* \"contracts/4-Inheritence/Inherit.sol\":139:158  msg.sender == owner */\n      0xffffffffffffffffffffffffffffffffffffffff\n      and\n        /* \"contracts/4-Inheritence/Inherit.sol\":139:149  msg.sender */\n      caller\n        /* \"contracts/4-Inheritence/Inherit.sol\":139:158  msg.sender == owner */\n      0xffffffffffffffffffffffffffffffffffffffff\n      and\n      eq\n        /* \"contracts/4-Inheritence/Inherit.sol\":131:176  require(msg.sender == owner, \"must be owner\") */\n      tag_9\n      jumpi\n      mload(0x40)\n      0x08c379a000000000000000000000000000000000000000000000000000000000\n      dup2\n      mstore\n      0x04\n      add\n      tag_10\n      swap1\n      tag_11\n      jump\t// in\n    tag_10:\n      mload(0x40)\n      dup1\n      swap2\n      sub\n      swap1\n      revert\n    tag_9:\n        /* \"contracts/4-Inheritence/Inherit.sol\":950:964  newSecretVault */\n      0x01\n      0x00\n      swap1\n      sload\n      swap1\n      0x0100\n      exp\n      swap1\n      div\n      0xffffffffffffffffffffffffffffffffffffffff\n      and\n        /* \"contracts/4-Inheritence/Inherit.sol\":938:975  SecretVault(newSecretVault).getSecret */\n      0xffffffffffffffffffffffffffffffffffffffff\n      and\n      0x5b9fdc30\n        /* \"contracts/4-Inheritence/Inherit.sol\":938:977  SecretVault(newSecretVault).getSecret() */\n      mload(0x40)\n      dup2\n      0xffffffff\n      and\n      0xe0\n      shl\n      dup2\n      mstore\n      0x04\n      add\n      0x00\n      mload(0x40)\n      dup1\n      dup4\n      sub\n      dup2\n      dup7\n      gas\n      staticcall\n      iszero\n      dup1\n      iszero\n      tag_14\n      jumpi\n      returndatasize\n      0x00\n      dup1\n      returndatacopy\n      revert(0x00, returndatasize)\n    tag_14:\n      pop\n      pop\n      pop\n      pop\n      mload(0x40)\n      returndatasize\n      0x00\n      dup3\n      returndatacopy\n      returndatasize\n      not(0x1f)\n      0x1f\n      dup3\n      add\n      and\n      dup3\n      add\n      dup1\n      0x40\n      mstore\n      pop\n      dup2\n      add\n      swap1\n      tag_15\n      swap2\n      swap1\n      tag_16\n      jump\t// in\n    tag_15:\n        /* \"contracts/4-Inheritence/Inherit.sol\":931:977  return SecretVault(newSecretVault).getSecret() */\n      swap1\n      pop\n        /* \"contracts/4-Inheritence/Inherit.sol\":854:1055  function getSecret() public view onlyOwner returns (string memory) {... */\n      swap1\n      jump\t// out\n        /* \"#utility.yul\":7:106   */\n    tag_17:\n        /* \"#utility.yul\":59:65   */\n      0x00\n        /* \"#utility.yul\":93:98   */\n      dup2\n        /* \"#utility.yul\":87:99   */\n      mload\n        /* \"#utility.yul\":77:99   */\n      swap1\n      pop\n        /* \"#utility.yul\":7:106   */\n      swap2\n      swap1\n      pop\n      jump\t// out\n        /* \"#utility.yul\":112:281   */\n    tag_18:\n        /* \"#utility.yul\":196:207   */\n      0x00\n        /* \"#utility.yul\":230:236   */\n      dup3\n        /* \"#utility.yul\":225:228   */\n      dup3\n        /* \"#utility.yul\":218:237   */\n      mstore\n        /* \"#utility.yul\":270:274   */\n      0x20\n        /* \"#utility.yul\":265:268   */\n      dup3\n        /* \"#utility.yul\":261:275   */\n      add\n        /* \"#utility.yul\":246:275   */\n      swap1\n      pop\n        /* \"#utility.yul\":112:281   */\n      swap3\n      swap2\n      pop\n      pop\n      jump\t// out\n        /* \"#utility.yul\":287:533   */\n    tag_19:\n        /* \"#utility.yul\":368:369   */\n      0x00\n        /* \"#utility.yul\":378:491   */\n    tag_39:\n        /* \"#utility.yul\":392:398   */\n      dup4\n        /* \"#utility.yul\":389:390   */\n      dup2\n        /* \"#utility.yul\":386:399   */\n      lt\n        /* \"#utility.yul\":378:491   */\n      iszero\n      tag_41\n      jumpi\n        /* \"#utility.yul\":477:478   */\n      dup1\n        /* \"#utility.yul\":472:475   */\n      dup3\n        /* \"#utility.yul\":468:479   */\n      add\n        /* \"#utility.yul\":462:480   */\n      mload\n        /* \"#utility.yul\":458:459   */\n      dup2\n        /* \"#utility.yul\":453:456   */\n      dup5\n        /* \"#utility.yul\":449:460   */\n      add\n        /* \"#utility.yul\":442:481   */\n      mstore\n        /* \"#utility.yul\":414:416   */\n      0x20\n        /* \"#utility.yul\":411:412   */\n      dup2\n        /* \"#utility.yul\":407:417   */\n      add\n        /* \"#utility.yul\":402:417   */\n      swap1\n      pop\n        /* \"#utility.yul\":378:491   */\n      jump(tag_39)\n    tag_41:\n        /* \"#utility.yul\":525:526   */\n      0x00\n        /* \"#utility.yul\":516:522   */\n      dup5\n        /* \"#utility.yul\":511:514   */\n      dup5\n        /* \"#utility.yul\":507:523   */\n      add\n        /* \"#utility.yul\":500:527   */\n      mstore\n        /* \"#utility.yul\":349:533   */\n      pop\n        /* \"#utility.yul\":287:533   */\n      pop\n      pop\n      pop\n      jump\t// out\n        /* \"#utility.yul\":539:641   */\n    tag_20:\n        /* \"#utility.yul\":580:586   */\n      0x00\n        /* \"#utility.yul\":631:633   */\n      0x1f\n        /* \"#utility.yul\":627:634   */\n      not\n        /* \"#utility.yul\":622:624   */\n      0x1f\n        /* \"#utility.yul\":615:620   */\n      dup4\n        /* \"#utility.yul\":611:625   */\n      add\n        /* \"#utility.yul\":607:635   */\n      and\n        /* \"#utility.yul\":597:635   */\n      swap1\n      pop\n        /* \"#utility.yul\":539:641   */\n      swap2\n      swap1\n      pop\n      jump\t// out\n        /* \"#utility.yul\":647:1024   */\n    tag_21:\n        /* \"#utility.yul\":735:738   */\n      0x00\n        /* \"#utility.yul\":763:802   */\n      tag_44\n        /* \"#utility.yul\":796:801   */\n      dup3\n        /* \"#utility.yul\":763:802   */\n      tag_17\n      jump\t// in\n    tag_44:\n        /* \"#utility.yul\":818:889   */\n      tag_45\n        /* \"#utility.yul\":882:888   */\n      dup2\n        /* \"#utility.yul\":877:880   */\n      dup6\n        /* \"#utility.yul\":818:889   */\n      tag_18\n      jump\t// in\n    tag_45:\n        /* \"#utility.yul\":811:889   */\n      swap4\n      pop\n        /* \"#utility.yul\":898:963   */\n      tag_46\n        /* \"#utility.yul\":956:962   */\n      dup2\n        /* \"#utility.yul\":951:954   */\n      dup6\n        /* \"#utility.yul\":944:948   */\n      0x20\n        /* \"#utility.yul\":937:942   */\n      dup7\n        /* \"#utility.yul\":933:949   */\n      add\n        /* \"#utility.yul\":898:963   */\n      tag_19\n      jump\t// in\n    tag_46:\n        /* \"#utility.yul\":988:1017   */\n      tag_47\n        /* \"#utility.yul\":1010:1016   */\n      dup2\n        /* \"#utility.yul\":988:1017   */\n      tag_20\n      jump\t// in\n    tag_47:\n        /* \"#utility.yul\":983:986   */\n      dup5\n        /* \"#utility.yul\":979:1018   */\n      add\n        /* \"#utility.yul\":972:1018   */\n      swap2\n      pop\n        /* \"#utility.yul\":739:1024   */\n      pop\n        /* \"#utility.yul\":647:1024   */\n      swap3\n      swap2\n      pop\n      pop\n      jump\t// out\n        /* \"#utility.yul\":1030:1343   */\n    tag_7:\n        /* \"#utility.yul\":1143:1147   */\n      0x00\n        /* \"#utility.yul\":1181:1183   */\n      0x20\n        /* \"#utility.yul\":1170:1179   */\n      dup3\n        /* \"#utility.yul\":1166:1184   */\n      add\n        /* \"#utility.yul\":1158:1184   */\n      swap1\n      pop\n        /* \"#utility.yul\":1230:1239   */\n      dup2\n        /* \"#utility.yul\":1224:1228   */\n      dup2\n        /* \"#utility.yul\":1220:1240   */\n      sub\n        /* \"#utility.yul\":1216:1217   */\n      0x00\n        /* \"#utility.yul\":1205:1214   */\n      dup4\n        /* \"#utility.yul\":1201:1218   */\n      add\n        /* \"#utility.yul\":1194:1241   */\n      mstore\n        /* \"#utility.yul\":1258:1336   */\n      tag_49\n        /* \"#utility.yul\":1331:1335   */\n      dup2\n        /* \"#utility.yul\":1322:1328   */\n      dup5\n        /* \"#utility.yul\":1258:1336   */\n      tag_21\n      jump\t// in\n    tag_49:\n        /* \"#utility.yul\":1250:1336   */\n      swap1\n      pop\n        /* \"#utility.yul\":1030:1343   */\n      swap3\n      swap2\n      pop\n      pop\n      jump\t// out\n        /* \"#utility.yul\":1349:1512   */\n    tag_22:\n        /* \"#utility.yul\":1489:1504   */\n      0x6d757374206265206f776e657200000000000000000000000000000000000000\n        /* \"#utility.yul\":1485:1486   */\n      0x00\n        /* \"#utility.yul\":1477:1483   */\n      dup3\n        /* \"#utility.yul\":1473:1487   */\n      add\n        /* \"#utility.yul\":1466:1505   */\n      mstore\n        /* \"#utility.yul\":1349:1512   */\n      pop\n      jump\t// out\n        /* \"#utility.yul\":1518:1884   */\n    tag_23:\n        /* \"#utility.yul\":1660:1663   */\n      0x00\n        /* \"#utility.yul\":1681:1748   */\n      tag_52\n        /* \"#utility.yul\":1745:1747   */\n      0x0d\n        /* \"#utility.yul\":1740:1743   */\n      dup4\n        /* \"#utility.yul\":1681:1748   */\n      tag_18\n      jump\t// in\n    tag_52:\n        /* \"#utility.yul\":1674:1748   */\n      swap2\n      pop\n        /* \"#utility.yul\":1757:1850   */\n      tag_53\n        /* \"#utility.yul\":1846:1849   */\n      dup3\n        /* \"#utility.yul\":1757:1850   */\n      tag_22\n      jump\t// in\n    tag_53:\n        /* \"#utility.yul\":1875:1877   */\n      0x20\n        /* \"#utility.yul\":1870:1873   */\n      dup3\n        /* \"#utility.yul\":1866:1878   */\n      add\n        /* \"#utility.yul\":1859:1878   */\n      swap1\n      pop\n        /* \"#utility.yul\":1518:1884   */\n      swap2\n      swap1\n      pop\n      jump\t// out\n        /* \"#utility.yul\":1890:2309   */\n    tag_11:\n        /* \"#utility.yul\":2056:2060   */\n      0x00\n        /* \"#utility.yul\":2094:2096   */\n      0x20\n        /* \"#utility.yul\":2083:2092   */\n      dup3\n        /* \"#utility.yul\":2079:2097   */\n      add\n        /* \"#utility.yul\":2071:2097   */\n      swap1\n      pop\n        /* \"#utility.yul\":2143:2152   */\n      dup2\n        /* \"#utility.yul\":2137:2141   */\n      dup2\n        /* \"#utility.yul\":2133:2153   */\n      sub\n        /* \"#utility.yul\":2129:2130   */\n      0x00\n        /* \"#utility.yul\":2118:2127   */\n      dup4\n        /* \"#utility.yul\":2114:2131   */\n      add\n        /* \"#utility.yul\":2107:2154   */\n      mstore\n        /* \"#utility.yul\":2171:2302   */\n      tag_55\n        /* \"#utility.yul\":2297:2301   */\n      dup2\n        /* \"#utility.yul\":2171:2302   */\n      tag_23\n      jump\t// in\n    tag_55:\n        /* \"#utility.yul\":2163:2302   */\n      swap1\n      pop\n        /* \"#utility.yul\":1890:2309   */\n      swap2\n      swap1\n      pop\n      jump\t// out\n        /* \"#utility.yul\":2315:2390   */\n    tag_24:\n        /* \"#utility.yul\":2348:2354   */\n      0x00\n        /* \"#utility.yul\":2381:2383   */\n      0x40\n        /* \"#utility.yul\":2375:2384   */\n      mload\n        /* \"#utility.yul\":2365:2384   */\n      swap1\n      pop\n        /* \"#utility.yul\":2315:2390   */\n      swap1\n      jump\t// out\n        /* \"#utility.yul\":2396:2513   */\n    tag_25:\n        /* \"#utility.yul\":2505:2506   */\n      0x00\n        /* \"#utility.yul\":2502:2503   */\n      dup1\n        /* \"#utility.yul\":2495:2507   */\n      revert\n        /* \"#utility.yul\":2519:2636   */\n    tag_26:\n        /* \"#utility.yul\":2628:2629   */\n      0x00\n        /* \"#utility.yul\":2625:2626   */\n      dup1\n        /* \"#utility.yul\":2618:2630   */\n      revert\n        /* \"#utility.yul\":2642:2759   */\n    tag_27:\n        /* \"#utility.yul\":2751:2752   */\n      0x00\n        /* \"#utility.yul\":2748:2749   */\n      dup1\n        /* \"#utility.yul\":2741:2753   */\n      revert\n        /* \"#utility.yul\":2765:2882   */\n    tag_28:\n        /* \"#utility.yul\":2874:2875   */\n      0x00\n        /* \"#utility.yul\":2871:2872   */\n      dup1\n        /* \"#utility.yul\":2864:2876   */\n      revert\n        /* \"#utility.yul\":2888:3068   */\n    tag_29:\n        /* \"#utility.yul\":2936:3013   */\n      0x4e487b7100000000000000000000000000000000000000000000000000000000\n        /* \"#utility.yul\":2933:2934   */\n      0x00\n        /* \"#utility.yul\":2926:3014   */\n      mstore\n        /* \"#utility.yul\":3033:3037   */\n      0x41\n        /* \"#utility.yul\":3030:3031   */\n      0x04\n        /* \"#utility.yul\":3023:3038   */\n      mstore\n        /* \"#utility.yul\":3057:3061   */\n      0x24\n        /* \"#utility.yul\":3054:3055   */\n      0x00\n        /* \"#utility.yul\":3047:3062   */\n      revert\n        /* \"#utility.yul\":3074:3355   */\n    tag_30:\n        /* \"#utility.yul\":3157:3184   */\n      tag_63\n        /* \"#utility.yul\":3179:3183   */\n      dup3\n        /* \"#utility.yul\":3157:3184   */\n      tag_20\n      jump\t// in\n    tag_63:\n        /* \"#utility.yul\":3149:3155   */\n      dup2\n        /* \"#utility.yul\":3145:3185   */\n      add\n        /* \"#utility.yul\":3287:3293   */\n      dup2\n        /* \"#utility.yul\":3275:3285   */\n      dup2\n        /* \"#utility.yul\":3272:3294   */\n      lt\n        /* \"#utility.yul\":3251:3269   */\n      0xffffffffffffffff\n        /* \"#utility.yul\":3239:3249   */\n      dup3\n        /* \"#utility.yul\":3236:3270   */\n      gt\n        /* \"#utility.yul\":3233:3295   */\n      or\n        /* \"#utility.yul\":3230:3318   */\n      iszero\n      tag_64\n      jumpi\n        /* \"#utility.yul\":3298:3316   */\n      tag_65\n      tag_29\n      jump\t// in\n    tag_65:\n        /* \"#utility.yul\":3230:3318   */\n    tag_64:\n        /* \"#utility.yul\":3338:3348   */\n      dup1\n        /* \"#utility.yul\":3334:3336   */\n      0x40\n        /* \"#utility.yul\":3327:3349   */\n      mstore\n        /* \"#utility.yul\":3117:3355   */\n      pop\n        /* \"#utility.yul\":3074:3355   */\n      pop\n      pop\n      jump\t// out\n        /* \"#utility.yul\":3361:3490   */\n    tag_31:\n        /* \"#utility.yul\":3395:3401   */\n      0x00\n        /* \"#utility.yul\":3422:3442   */\n      tag_67\n      tag_24\n      jump\t// in\n    tag_67:\n        /* \"#utility.yul\":3412:3442   */\n      swap1\n      pop\n        /* \"#utility.yul\":3451:3484   */\n      tag_68\n        /* \"#utility.yul\":3479:3483   */\n      dup3\n        /* \"#utility.yul\":3471:3477   */\n      dup3\n        /* \"#utility.yul\":3451:3484   */\n      tag_30\n      jump\t// in\n    tag_68:\n        /* \"#utility.yul\":3361:3490   */\n      swap2\n      swap1\n      pop\n      jump\t// out\n        /* \"#utility.yul\":3496:3804   */\n    tag_32:\n        /* \"#utility.yul\":3558:3562   */\n      0x00\n        /* \"#utility.yul\":3648:3666   */\n      0xffffffffffffffff\n        /* \"#utility.yul\":3640:3646   */\n      dup3\n        /* \"#utility.yul\":3637:3667   */\n      gt\n        /* \"#utility.yul\":3634:3690   */\n      iszero\n      tag_70\n      jumpi\n        /* \"#utility.yul\":3670:3688   */\n      tag_71\n      tag_29\n      jump\t// in\n    tag_71:\n        /* \"#utility.yul\":3634:3690   */\n    tag_70:\n        /* \"#utility.yul\":3708:3737   */\n      tag_72\n        /* \"#utility.yul\":3730:3736   */\n      dup3\n        /* \"#utility.yul\":3708:3737   */\n      tag_20\n      jump\t// in\n    tag_72:\n        /* \"#utility.yul\":3700:3737   */\n      swap1\n      pop\n        /* \"#utility.yul\":3792:3796   */\n      0x20\n        /* \"#utility.yul\":3786:3790   */\n      dup2\n        /* \"#utility.yul\":3782:3797   */\n      add\n        /* \"#utility.yul\":3774:3797   */\n      swap1\n      pop\n        /* \"#utility.yul\":3496:3804   */\n      swap2\n      swap1\n      pop\n      jump\t// out\n        /* \"#utility.yul\":3810:4244   */\n    tag_33:\n        /* \"#utility.yul\":3899:3904   */\n      0x00\n        /* \"#utility.yul\":3924:3990   */\n      tag_74\n        /* \"#utility.yul\":3940:3989   */\n      tag_75\n        /* \"#utility.yul\":3982:3988   */\n      dup5\n        /* \"#utility.yul\":3940:3989   */\n      tag_32\n      jump\t// in\n    tag_75:\n        /* \"#utility.yul\":3924:3990   */\n      tag_31\n      jump\t// in\n    tag_74:\n        /* \"#utility.yul\":3915:3990   */\n      swap1\n      pop\n        /* \"#utility.yul\":4013:4019   */\n      dup3\n        /* \"#utility.yul\":4006:4011   */\n      dup2\n        /* \"#utility.yul\":3999:4020   */\n      mstore\n        /* \"#utility.yul\":4051:4055   */\n      0x20\n        /* \"#utility.yul\":4044:4049   */\n      dup2\n        /* \"#utility.yul\":4040:4056   */\n      add\n        /* \"#utility.yul\":4089:4092   */\n      dup5\n        /* \"#utility.yul\":4080:4086   */\n      dup5\n        /* \"#utility.yul\":4075:4078   */\n      dup5\n        /* \"#utility.yul\":4071:4087   */\n      add\n        /* \"#utility.yul\":4068:4093   */\n      gt\n        /* \"#utility.yul\":4065:4177   */\n      iszero\n      tag_76\n      jumpi\n        /* \"#utility.yul\":4096:4175   */\n      tag_77\n      tag_28\n      jump\t// in\n    tag_77:\n        /* \"#utility.yul\":4065:4177   */\n    tag_76:\n        /* \"#utility.yul\":4186:4238   */\n      tag_78\n        /* \"#utility.yul\":4231:4237   */\n      dup5\n        /* \"#utility.yul\":4226:4229   */\n      dup3\n        /* \"#utility.yul\":4221:4224   */\n      dup6\n        /* \"#utility.yul\":4186:4238   */\n      tag_19\n      jump\t// in\n    tag_78:\n        /* \"#utility.yul\":3905:4244   */\n      pop\n        /* \"#utility.yul\":3810:4244   */\n      swap4\n      swap3\n      pop\n      pop\n      pop\n      jump\t// out\n        /* \"#utility.yul\":4264:4619   */\n    tag_34:\n        /* \"#utility.yul\":4331:4336   */\n      0x00\n        /* \"#utility.yul\":4380:4383   */\n      dup3\n        /* \"#utility.yul\":4373:4377   */\n      0x1f\n        /* \"#utility.yul\":4365:4371   */\n      dup4\n        /* \"#utility.yul\":4361:4378   */\n      add\n        /* \"#utility.yul\":4357:4384   */\n      slt\n        /* \"#utility.yul\":4347:4469   */\n      tag_80\n      jumpi\n        /* \"#utility.yul\":4388:4467   */\n      tag_81\n      tag_27\n      jump\t// in\n    tag_81:\n        /* \"#utility.yul\":4347:4469   */\n    tag_80:\n        /* \"#utility.yul\":4498:4504   */\n      dup2\n        /* \"#utility.yul\":4492:4505   */\n      mload\n        /* \"#utility.yul\":4523:4613   */\n      tag_82\n        /* \"#utility.yul\":4609:4612   */\n      dup5\n        /* \"#utility.yul\":4601:4607   */\n      dup3\n        /* \"#utility.yul\":4594:4598   */\n      0x20\n        /* \"#utility.yul\":4586:4592   */\n      dup7\n        /* \"#utility.yul\":4582:4599   */\n      add\n        /* \"#utility.yul\":4523:4613   */\n      tag_33\n      jump\t// in\n    tag_82:\n        /* \"#utility.yul\":4514:4613   */\n      swap2\n      pop\n        /* \"#utility.yul\":4337:4619   */\n      pop\n        /* \"#utility.yul\":4264:4619   */\n      swap3\n      swap2\n      pop\n      pop\n      jump\t// out\n        /* \"#utility.yul\":4625:5149   */\n    tag_16:\n        /* \"#utility.yul\":4705:4711   */\n      0x00\n        /* \"#utility.yul\":4754:4756   */\n      0x20\n        /* \"#utility.yul\":4742:4751   */\n      dup3\n        /* \"#utility.yul\":4733:4740   */\n      dup5\n        /* \"#utility.yul\":4729:4752   */\n      sub\n        /* \"#utility.yul\":4725:4757   */\n      slt\n        /* \"#utility.yul\":4722:4841   */\n      iszero\n      tag_84\n      jumpi\n        /* \"#utility.yul\":4760:4839   */\n      tag_85\n      tag_25\n      jump\t// in\n    tag_85:\n        /* \"#utility.yul\":4722:4841   */\n    tag_84:\n        /* \"#utility.yul\":4901:4902   */\n      0x00\n        /* \"#utility.yul\":4890:4899   */\n      dup3\n        /* \"#utility.yul\":4886:4903   */\n      add\n        /* \"#utility.yul\":4880:4904   */\n      mload\n        /* \"#utility.yul\":4931:4949   */\n      0xffffffffffffffff\n        /* \"#utility.yul\":4923:4929   */\n      dup2\n        /* \"#utility.yul\":4920:4950   */\n      gt\n        /* \"#utility.yul\":4917:5034   */\n      iszero\n      tag_86\n      jumpi\n        /* \"#utility.yul\":4953:5032   */\n      tag_87\n      tag_26\n      jump\t// in\n    tag_87:\n        /* \"#utility.yul\":4917:5034   */\n    tag_86:\n        /* \"#utility.yul\":5058:5132   */\n      tag_88\n        /* \"#utility.yul\":5124:5131   */\n      dup5\n        /* \"#utility.yul\":5115:5121   */\n      dup3\n        /* \"#utility.yul\":5104:5113   */\n      dup6\n        /* \"#utility.yul\":5100:5122   */\n      add\n        /* \"#utility.yul\":5058:5132   */\n      tag_34\n      jump\t// in\n    tag_88:\n        /* \"#utility.yul\":5048:5132   */\n      swap2\n      pop\n        /* \"#utility.yul\":4851:5142   */\n      pop\n        /* \"#utility.yul\":4625:5149   */\n      swap3\n      swap2\n      pop\n      pop\n      jump\t// out\n\n    auxdata: 0xa2646970667358221220eab505adf56527cb7786ecdc6cf90e3eeba5df2e0f51c1c89289f6e1281818ed64736f6c63430008120033\n}\n\nsub_1: assembly {\n        /* \"contracts/4-Inheritence/Inherit.sol\":253:465  contract SecretVault {... */\n      mstore(0x40, 0x80)\n        /* \"contracts/4-Inheritence/Inherit.sol\":301:370  constructor(string memory _secret)  {... */\n      callvalue\n      dup1\n      iszero\n      tag_1\n      jumpi\n      0x00\n      dup1\n      revert\n    tag_1:\n      pop\n      mload(0x40)\n      sub(codesize, bytecodeSize)\n      dup1\n      bytecodeSize\n      dup4\n      codecopy\n      dup2\n      dup2\n      add\n      0x40\n      mstore\n      dup2\n      add\n      swap1\n      tag_2\n      swap2\n      swap1\n      tag_3\n      jump\t// in\n    tag_2:\n        /* \"contracts/4-Inheritence/Inherit.sol\":356:363  _secret */\n      dup1\n        /* \"contracts/4-Inheritence/Inherit.sol\":347:353  secret */\n      0x00\n        /* \"contracts/4-Inheritence/Inherit.sol\":347:363  secret = _secret */\n      swap1\n      dup2\n      tag_6\n      swap2\n      swap1\n      tag_7\n      jump\t// in\n    tag_6:\n      pop\n        /* \"contracts/4-Inheritence/Inherit.sol\":301:370  constructor(string memory _secret)  {... */\n      pop\n        /* \"contracts/4-Inheritence/Inherit.sol\":253:465  contract SecretVault {... */\n      jump(tag_8)\n        /* \"#utility.yul\":7:82   */\n    tag_9:\n        /* \"#utility.yul\":40:46   */\n      0x00\n        /* \"#utility.yul\":73:75   */\n      0x40\n        /* \"#utility.yul\":67:76   */\n      mload\n        /* \"#utility.yul\":57:76   */\n      swap1\n      pop\n        /* \"#utility.yul\":7:82   */\n      swap1\n      jump\t// out\n        /* \"#utility.yul\":88:205   */\n    tag_10:\n        /* \"#utility.yul\":197:198   */\n      0x00\n        /* \"#utility.yul\":194:195   */\n      dup1\n        /* \"#utility.yul\":187:199   */\n      revert\n        /* \"#utility.yul\":211:328   */\n    tag_11:\n        /* \"#utility.yul\":320:321   */\n      0x00\n        /* \"#utility.yul\":317:318   */\n      dup1\n        /* \"#utility.yul\":310:322   */\n      revert\n        /* \"#utility.yul\":334:451   */\n    tag_12:\n        /* \"#utility.yul\":443:444   */\n      0x00\n        /* \"#utility.yul\":440:441   */\n      dup1\n        /* \"#utility.yul\":433:445   */\n      revert\n        /* \"#utility.yul\":457:574   */\n    tag_13:\n        /* \"#utility.yul\":566:567   */\n      0x00\n        /* \"#utility.yul\":563:564   */\n      dup1\n        /* \"#utility.yul\":556:568   */\n      revert\n        /* \"#utility.yul\":580:682   */\n    tag_14:\n        /* \"#utility.yul\":621:627   */\n      0x00\n        /* \"#utility.yul\":672:674   */\n      0x1f\n        /* \"#utility.yul\":668:675   */\n      not\n        /* \"#utility.yul\":663:665   */\n      0x1f\n        /* \"#utility.yul\":656:661   */\n      dup4\n        /* \"#utility.yul\":652:666   */\n      add\n        /* \"#utility.yul\":648:676   */\n      and\n        /* \"#utility.yul\":638:676   */\n      swap1\n      pop\n        /* \"#utility.yul\":580:682   */\n      swap2\n      swap1\n      pop\n      jump\t// out\n        /* \"#utility.yul\":688:868   */\n    tag_15:\n        /* \"#utility.yul\":736:813   */\n      0x4e487b7100000000000000000000000000000000000000000000000000000000\n        /* \"#utility.yul\":733:734   */\n      0x00\n        /* \"#utility.yul\":726:814   */\n      mstore\n        /* \"#utility.yul\":833:837   */\n      0x41\n        /* \"#utility.yul\":830:831   */\n      0x04\n        /* \"#utility.yul\":823:838   */\n      mstore\n        /* \"#utility.yul\":857:861   */\n      0x24\n        /* \"#utility.yul\":854:855   */\n      0x00\n        /* \"#utility.yul\":847:862   */\n      revert\n        /* \"#utility.yul\":874:1155   */\n    tag_16:\n        /* \"#utility.yul\":957:984   */\n      tag_50\n        /* \"#utility.yul\":979:983   */\n      dup3\n        /* \"#utility.yul\":957:984   */\n      tag_14\n      jump\t// in\n    tag_50:\n        /* \"#utility.yul\":949:955   */\n      dup2\n        /* \"#utility.yul\":945:985   */\n      add\n        /* \"#utility.yul\":1087:1093   */\n      dup2\n        /* \"#utility.yul\":1075:1085   */\n      dup2\n        /* \"#utility.yul\":1072:1094   */\n      lt\n        /* \"#utility.yul\":1051:1069   */\n      0xffffffffffffffff\n        /* \"#utility.yul\":1039:1049   */\n      dup3\n        /* \"#utility.yul\":1036:1070   */\n      gt\n        /* \"#utility.yul\":1033:1095   */\n      or\n        /* \"#utility.yul\":1030:1118   */\n      iszero\n      tag_51\n      jumpi\n        /* \"#utility.yul\":1098:1116   */\n      tag_52\n      tag_15\n      jump\t// in\n    tag_52:\n        /* \"#utility.yul\":1030:1118   */\n    tag_51:\n        /* \"#utility.yul\":1138:1148   */\n      dup1\n        /* \"#utility.yul\":1134:1136   */\n      0x40\n        /* \"#utility.yul\":1127:1149   */\n      mstore\n        /* \"#utility.yul\":917:1155   */\n      pop\n        /* \"#utility.yul\":874:1155   */\n      pop\n      pop\n      jump\t// out\n        /* \"#utility.yul\":1161:1290   */\n    tag_17:\n        /* \"#utility.yul\":1195:1201   */\n      0x00\n        /* \"#utility.yul\":1222:1242   */\n      tag_54\n      tag_9\n      jump\t// in\n    tag_54:\n        /* \"#utility.yul\":1212:1242   */\n      swap1\n      pop\n        /* \"#utility.yul\":1251:1284   */\n      tag_55\n        /* \"#utility.yul\":1279:1283   */\n      dup3\n        /* \"#utility.yul\":1271:1277   */\n      dup3\n        /* \"#utility.yul\":1251:1284   */\n      tag_16\n      jump\t// in\n    tag_55:\n        /* \"#utility.yul\":1161:1290   */\n      swap2\n      swap1\n      pop\n      jump\t// out\n        /* \"#utility.yul\":1296:1604   */\n    tag_18:\n        /* \"#utility.yul\":1358:1362   */\n      0x00\n        /* \"#utility.yul\":1448:1466   */\n      0xffffffffffffffff\n        /* \"#utility.yul\":1440:1446   */\n      dup3\n        /* \"#utility.yul\":1437:1467   */\n      gt\n        /* \"#utility.yul\":1434:1490   */\n      iszero\n      tag_57\n      jumpi\n        /* \"#utility.yul\":1470:1488   */\n      tag_58\n      tag_15\n      jump\t// in\n    tag_58:\n        /* \"#utility.yul\":1434:1490   */\n    tag_57:\n        /* \"#utility.yul\":1508:1537   */\n      tag_59\n        /* \"#utility.yul\":1530:1536   */\n      dup3\n        /* \"#utility.yul\":1508:1537   */\n      tag_14\n      jump\t// in\n    tag_59:\n        /* \"#utility.yul\":1500:1537   */\n      swap1\n      pop\n        /* \"#utility.yul\":1592:1596   */\n      0x20\n        /* \"#utility.yul\":1586:1590   */\n      dup2\n        /* \"#utility.yul\":1582:1597   */\n      add\n        /* \"#utility.yul\":1574:1597   */\n      swap1\n      pop\n        /* \"#utility.yul\":1296:1604   */\n      swap2\n      swap1\n      pop\n      jump\t// out\n        /* \"#utility.yul\":1610:1856   */\n    tag_19:\n        /* \"#utility.yul\":1691:1692   */\n      0x00\n        /* \"#utility.yul\":1701:1814   */\n    tag_61:\n        /* \"#utility.yul\":1715:1721   */\n      dup4\n        /* \"#utility.yul\":1712:1713   */\n      dup2\n        /* \"#utility.yul\":1709:1722   */\n      lt\n        /* \"#utility.yul\":1701:1814   */\n      iszero\n      tag_63\n      jumpi\n        /* \"#utility.yul\":1800:1801   */\n      dup1\n        /* \"#utility.yul\":1795:1798   */\n      dup3\n        /* \"#utility.yul\":1791:1802   */\n      add\n        /* \"#utility.yul\":1785:1803   */\n      mload\n        /* \"#utility.yul\":1781:1782   */\n      dup2\n        /* \"#utility.yul\":1776:1779   */\n      dup5\n        /* \"#utility.yul\":1772:1783   */\n      add\n        /* \"#utility.yul\":1765:1804   */\n      mstore\n        /* \"#utility.yul\":1737:1739   */\n      0x20\n        /* \"#utility.yul\":1734:1735   */\n      dup2\n        /* \"#utility.yul\":1730:1740   */\n      add\n        /* \"#utility.yul\":1725:1740   */\n      swap1\n      pop\n        /* \"#utility.yul\":1701:1814   */\n      jump(tag_61)\n    tag_63:\n        /* \"#utility.yul\":1848:1849   */\n      0x00\n        /* \"#utility.yul\":1839:1845   */\n      dup5\n        /* \"#utility.yul\":1834:1837   */\n      dup5\n        /* \"#utility.yul\":1830:1846   */\n      add\n        /* \"#utility.yul\":1823:1850   */\n      mstore\n        /* \"#utility.yul\":1672:1856   */\n      pop\n        /* \"#utility.yul\":1610:1856   */\n      pop\n      pop\n      pop\n      jump\t// out\n        /* \"#utility.yul\":1862:2296   */\n    tag_20:\n        /* \"#utility.yul\":1951:1956   */\n      0x00\n        /* \"#utility.yul\":1976:2042   */\n      tag_65\n        /* \"#utility.yul\":1992:2041   */\n      tag_66\n        /* \"#utility.yul\":2034:2040   */\n      dup5\n        /* \"#utility.yul\":1992:2041   */\n      tag_18\n      jump\t// in\n    tag_66:\n        /* \"#utility.yul\":1976:2042   */\n      tag_17\n      jump\t// in\n    tag_65:\n        /* \"#utility.yul\":1967:2042   */\n      swap1\n      pop\n        /* \"#utility.yul\":2065:2071   */\n      dup3\n        /* \"#utility.yul\":2058:2063   */\n      dup2\n        /* \"#utility.yul\":2051:2072   */\n      mstore\n        /* \"#utility.yul\":2103:2107   */\n      0x20\n        /* \"#utility.yul\":2096:2101   */\n      dup2\n        /* \"#utility.yul\":2092:2108   */\n      add\n        /* \"#utility.yul\":2141:2144   */\n      dup5\n        /* \"#utility.yul\":2132:2138   */\n      dup5\n        /* \"#utility.yul\":2127:2130   */\n      dup5\n        /* \"#utility.yul\":2123:2139   */\n      add\n        /* \"#utility.yul\":2120:2145   */\n      gt\n        /* \"#utility.yul\":2117:2229   */\n      iszero\n      tag_67\n      jumpi\n        /* \"#utility.yul\":2148:2227   */\n      tag_68\n      tag_13\n      jump\t// in\n    tag_68:\n        /* \"#utility.yul\":2117:2229   */\n    tag_67:\n        /* \"#utility.yul\":2238:2290   */\n      tag_69\n        /* \"#utility.yul\":2283:2289   */\n      dup5\n        /* \"#utility.yul\":2278:2281   */\n      dup3\n        /* \"#utility.yul\":2273:2276   */\n      dup6\n        /* \"#utility.yul\":2238:2290   */\n      tag_19\n      jump\t// in\n    tag_69:\n        /* \"#utility.yul\":1957:2296   */\n      pop\n        /* \"#utility.yul\":1862:2296   */\n      swap4\n      swap3\n      pop\n      pop\n      pop\n      jump\t// out\n        /* \"#utility.yul\":2316:2671   */\n    tag_21:\n        /* \"#utility.yul\":2383:2388   */\n      0x00\n        /* \"#utility.yul\":2432:2435   */\n      dup3\n        /* \"#utility.yul\":2425:2429   */\n      0x1f\n        /* \"#utility.yul\":2417:2423   */\n      dup4\n        /* \"#utility.yul\":2413:2430   */\n      add\n        /* \"#utility.yul\":2409:2436   */\n      slt\n        /* \"#utility.yul\":2399:2521   */\n      tag_71\n      jumpi\n        /* \"#utility.yul\":2440:2519   */\n      tag_72\n      tag_12\n      jump\t// in\n    tag_72:\n        /* \"#utility.yul\":2399:2521   */\n    tag_71:\n        /* \"#utility.yul\":2550:2556   */\n      dup2\n        /* \"#utility.yul\":2544:2557   */\n      mload\n        /* \"#utility.yul\":2575:2665   */\n      tag_73\n        /* \"#utility.yul\":2661:2664   */\n      dup5\n        /* \"#utility.yul\":2653:2659   */\n      dup3\n        /* \"#utility.yul\":2646:2650   */\n      0x20\n        /* \"#utility.yul\":2638:2644   */\n      dup7\n        /* \"#utility.yul\":2634:2651   */\n      add\n        /* \"#utility.yul\":2575:2665   */\n      tag_20\n      jump\t// in\n    tag_73:\n        /* \"#utility.yul\":2566:2665   */\n      swap2\n      pop\n        /* \"#utility.yul\":2389:2671   */\n      pop\n        /* \"#utility.yul\":2316:2671   */\n      swap3\n      swap2\n      pop\n      pop\n      jump\t// out\n        /* \"#utility.yul\":2677:3201   */\n    tag_3:\n        /* \"#utility.yul\":2757:2763   */\n      0x00\n        /* \"#utility.yul\":2806:2808   */\n      0x20\n        /* \"#utility.yul\":2794:2803   */\n      dup3\n        /* \"#utility.yul\":2785:2792   */\n      dup5\n        /* \"#utility.yul\":2781:2804   */\n      sub\n        /* \"#utility.yul\":2777:2809   */\n      slt\n        /* \"#utility.yul\":2774:2893   */\n      iszero\n      tag_75\n      jumpi\n        /* \"#utility.yul\":2812:2891   */\n      tag_76\n      tag_10\n      jump\t// in\n    tag_76:\n        /* \"#utility.yul\":2774:2893   */\n    tag_75:\n        /* \"#utility.yul\":2953:2954   */\n      0x00\n        /* \"#utility.yul\":2942:2951   */\n      dup3\n        /* \"#utility.yul\":2938:2955   */\n      add\n        /* \"#utility.yul\":2932:2956   */\n      mload\n        /* \"#utility.yul\":2983:3001   */\n      0xffffffffffffffff\n        /* \"#utility.yul\":2975:2981   */\n      dup2\n        /* \"#utility.yul\":2972:3002   */\n      gt\n        /* \"#utility.yul\":2969:3086   */\n      iszero\n      tag_77\n      jumpi\n        /* \"#utility.yul\":3005:3084   */\n      tag_78\n      tag_11\n      jump\t// in\n    tag_78:\n        /* \"#utility.yul\":2969:3086   */\n    tag_77:\n        /* \"#utility.yul\":3110:3184   */\n      tag_79\n        /* \"#utility.yul\":3176:3183   */\n      dup5\n        /* \"#utility.yul\":3167:3173   */\n      dup3\n        /* \"#utility.yul\":3156:3165   */\n      dup6\n        /* \"#utility.yul\":3152:3174   */\n      add\n        /* \"#utility.yul\":3110:3184   */\n      tag_21\n      jump\t// in\n    tag_79:\n        /* \"#utility.yul\":3100:3184   */\n      swap2\n      pop\n        /* \"#utility.yul\":2903:3194   */\n      pop\n        /* \"#utility.yul\":2677:3201   */\n      swap3\n      swap2\n      pop\n      pop\n      jump\t// out\n        /* \"#utility.yul\":3207:3306   */\n    tag_22:\n        /* \"#utility.yul\":3259:3265   */\n      0x00\n        /* \"#utility.yul\":3293:3298   */\n      dup2\n        /* \"#utility.yul\":3287:3299   */\n      mload\n        /* \"#utility.yul\":3277:3299   */\n      swap1\n      pop\n        /* \"#utility.yul\":3207:3306   */\n      swap2\n      swap1\n      pop\n      jump\t// out\n        /* \"#utility.yul\":3312:3492   */\n    tag_23:\n        /* \"#utility.yul\":3360:3437   */\n      0x4e487b7100000000000000000000000000000000000000000000000000000000\n        /* \"#utility.yul\":3357:3358   */\n      0x00\n        /* \"#utility.yul\":3350:3438   */\n      mstore\n        /* \"#utility.yul\":3457:3461   */\n      0x22\n        /* \"#utility.yul\":3454:3455   */\n      0x04\n        /* \"#utility.yul\":3447:3462   */\n      mstore\n        /* \"#utility.yul\":3481:3485   */\n      0x24\n        /* \"#utility.yul\":3478:3479   */\n      0x00\n        /* \"#utility.yul\":3471:3486   */\n      revert\n        /* \"#utility.yul\":3498:3818   */\n    tag_24:\n        /* \"#utility.yul\":3542:3548   */\n      0x00\n        /* \"#utility.yul\":3579:3580   */\n      0x02\n        /* \"#utility.yul\":3573:3577   */\n      dup3\n        /* \"#utility.yul\":3569:3581   */\n      div\n        /* \"#utility.yul\":3559:3581   */\n      swap1\n      pop\n        /* \"#utility.yul\":3626:3627   */\n      0x01\n        /* \"#utility.yul\":3620:3624   */\n      dup3\n        /* \"#utility.yul\":3616:3628   */\n      and\n        /* \"#utility.yul\":3647:3665   */\n      dup1\n        /* \"#utility.yul\":3637:3718   */\n      tag_83\n      jumpi\n        /* \"#utility.yul\":3703:3707   */\n      0x7f\n        /* \"#utility.yul\":3695:3701   */\n      dup3\n        /* \"#utility.yul\":3691:3708   */\n      and\n        /* \"#utility.yul\":3681:3708   */\n      swap2\n      pop\n        /* \"#utility.yul\":3637:3718   */\n    tag_83:\n        /* \"#utility.yul\":3765:3767   */\n      0x20\n        /* \"#utility.yul\":3757:3763   */\n      dup3\n        /* \"#utility.yul\":3754:3768   */\n      lt\n        /* \"#utility.yul\":3734:3752   */\n      dup2\n        /* \"#utility.yul\":3731:3769   */\n      sub\n        /* \"#utility.yul\":3728:3812   */\n      tag_84\n      jumpi\n        /* \"#utility.yul\":3784:3802   */\n      tag_85\n      tag_23\n      jump\t// in\n    tag_85:\n        /* \"#utility.yul\":3728:3812   */\n    tag_84:\n        /* \"#utility.yul\":3549:3818   */\n      pop\n        /* \"#utility.yul\":3498:3818   */\n      swap2\n      swap1\n      pop\n      jump\t// out\n        /* \"#utility.yul\":3824:3965   */\n    tag_25:\n        /* \"#utility.yul\":3873:3877   */\n      0x00\n        /* \"#utility.yul\":3896:3899   */\n      dup2\n        /* \"#utility.yul\":3888:3899   */\n      swap1\n      pop\n        /* \"#utility.yul\":3919:3922   */\n      dup2\n        /* \"#utility.yul\":3916:3917   */\n      0x00\n        /* \"#utility.yul\":3909:3923   */\n      mstore\n        /* \"#utility.yul\":3953:3957   */\n      0x20\n        /* \"#utility.yul\":3950:3951   */\n      0x00\n        /* \"#utility.yul\":3940:3958   */\n      keccak256\n        /* \"#utility.yul\":3932:3958   */\n      swap1\n      pop\n        /* \"#utility.yul\":3824:3965   */\n      swap2\n      swap1\n      pop\n      jump\t// out\n        /* \"#utility.yul\":3971:4064   */\n    tag_26:\n        /* \"#utility.yul\":4008:4014   */\n      0x00\n        /* \"#utility.yul\":4055:4057   */\n      0x20\n        /* \"#utility.yul\":4050:4052   */\n      0x1f\n        /* \"#utility.yul\":4043:4048   */\n      dup4\n        /* \"#utility.yul\":4039:4053   */\n      add\n        /* \"#utility.yul\":4035:4058   */\n      div\n        /* \"#utility.yul\":4025:4058   */\n      swap1\n      pop\n        /* \"#utility.yul\":3971:4064   */\n      swap2\n      swap1\n      pop\n      jump\t// out\n        /* \"#utility.yul\":4070:4177   */\n    tag_27:\n        /* \"#utility.yul\":4114:4122   */\n      0x00\n        /* \"#utility.yul\":4164:4169   */\n      dup3\n        /* \"#utility.yul\":4158:4162   */\n      dup3\n        /* \"#utility.yul\":4154:4170   */\n      shl\n        /* \"#utility.yul\":4133:4170   */\n      swap1\n      pop\n        /* \"#utility.yul\":4070:4177   */\n      swap3\n      swap2\n      pop\n      pop\n      jump\t// out\n        /* \"#utility.yul\":4183:4576   */\n    tag_28:\n        /* \"#utility.yul\":4252:4258   */\n      0x00\n        /* \"#utility.yul\":4302:4303   */\n      0x08\n        /* \"#utility.yul\":4290:4300   */\n      dup4\n        /* \"#utility.yul\":4286:4304   */\n      mul\n        /* \"#utility.yul\":4325:4422   */\n      tag_90\n        /* \"#utility.yul\":4355:4421   */\n      0xffffffffffffffffffffffffffffffffffffffffffffffffffffffffffffffff\n        /* \"#utility.yul\":4344:4353   */\n      dup3\n        /* \"#utility.yul\":4325:4422   */\n      tag_27\n      jump\t// in\n    tag_90:\n        /* \"#utility.yul\":4443:4482   */\n      tag_91\n        /* \"#utility.yul\":4473:4481   */\n      dup7\n        /* \"#utility.yul\":4462:4471   */\n      dup4\n        /* \"#utility.yul\":4443:4482   */\n      tag_27\n      jump\t// in\n    tag_91:\n        /* \"#utility.yul\":4431:4482   */\n      swap6\n      pop\n        /* \"#utility.yul\":4515:4519   */\n      dup1\n        /* \"#utility.yul\":4511:4520   */\n      not\n        /* \"#utility.yul\":4504:4509   */\n      dup5\n        /* \"#utility.yul\":4500:4521   */\n      and\n        /* \"#utility.yul\":4491:4521   */\n      swap4\n      pop\n        /* \"#utility.yul\":4564:4568   */\n      dup1\n        /* \"#utility.yul\":4554:4562   */\n      dup7\n        /* \"#utility.yul\":4550:4569   */\n      and\n        /* \"#utility.yul\":4543:4548   */\n      dup5\n        /* \"#utility.yul\":4540:4570   */\n      or\n        /* \"#utility.yul\":4530:4570   */\n      swap3\n      pop\n        /* \"#utility.yul\":4259:4576   */\n      pop\n      pop\n        /* \"#utility.yul\":4183:4576   */\n      swap4\n      swap3\n      pop\n      pop\n      pop\n      jump\t// out\n        /* \"#utility.yul\":4582:4659   */\n    tag_29:\n        /* \"#utility.yul\":4619:4626   */\n      0x00\n        /* \"#utility.yul\":4648:4653   */\n      dup2\n        /* \"#utility.yul\":4637:4653   */\n      swap1\n      pop\n        /* \"#utility.yul\":4582:4659   */\n      swap2\n      swap1\n      pop\n      jump\t// out\n        /* \"#utility.yul\":4665:4725   */\n    tag_30:\n        /* \"#utility.yul\":4693:4696   */\n      0x00\n        /* \"#utility.yul\":4714:4719   */\n      dup2\n        /* \"#utility.yul\":4707:4719   */\n      swap1\n      pop\n        /* \"#utility.yul\":4665:4725   */\n      swap2\n      swap1\n      pop\n      jump\t// out\n        /* \"#utility.yul\":4731:4873   */\n    tag_31:\n        /* \"#utility.yul\":4781:4790   */\n      0x00\n        /* \"#utility.yul\":4814:4867   */\n      tag_95\n        /* \"#utility.yul\":4832:4866   */\n      tag_96\n        /* \"#utility.yul\":4841:4865   */\n      tag_97\n        /* \"#utility.yul\":4859:4864   */\n      dup5\n        /* \"#utility.yul\":4841:4865   */\n      tag_29\n      jump\t// in\n    tag_97:\n        /* \"#utility.yul\":4832:4866   */\n      tag_30\n      jump\t// in\n    tag_96:\n        /* \"#utility.yul\":4814:4867   */\n      tag_29\n      jump\t// in\n    tag_95:\n        /* \"#utility.yul\":4801:4867   */\n      swap1\n      pop\n        /* \"#utility.yul\":4731:4873   */\n      swap2\n      swap1\n      pop\n      jump\t// out\n        /* \"#utility.yul\":4879:4954   */\n    tag_32:\n        /* \"#utility.yul\":4922:4925   */\n      0x00\n        /* \"#utility.yul\":4943:4948   */\n      dup2\n        /* \"#utility.yul\":4936:4948   */\n      swap1\n      pop\n        /* \"#utility.yul\":4879:4954   */\n      swap2\n      swap1\n      pop\n      jump\t// out\n        /* \"#utility.yul\":4960:5229   */\n    tag_33:\n        /* \"#utility.yul\":5070:5109   */\n      tag_100\n        /* \"#utility.yul\":5101:5108   */\n      dup4\n        /* \"#utility.yul\":5070:5109   */\n      tag_31\n      jump\t// in\n    tag_100:\n        /* \"#utility.yul\":5131:5222   */\n      tag_101\n        /* \"#utility.yul\":5180:5221   */\n      tag_102\n        /* \"#utility.yul\":5204:5220   */\n      dup3\n        /* \"#utility.yul\":5180:5221   */\n      tag_32\n      jump\t// in\n    tag_102:\n        /* \"#utility.yul\":5172:5178   */\n      dup5\n        /* \"#utility.yul\":5165:5169   */\n      dup5\n        /* \"#utility.yul\":5159:5170   */\n      sload\n        /* \"#utility.yul\":5131:5222   */\n      tag_28\n      jump\t// in\n    tag_101:\n        /* \"#utility.yul\":5125:5129   */\n      dup3\n        /* \"#utility.yul\":5118:5223   */\n      sstore\n        /* \"#utility.yul\":5036:5229   */\n      pop\n        /* \"#utility.yul\":4960:5229   */\n      pop\n      pop\n      pop\n      jump\t// out\n        /* \"#utility.yul\":5235:5308   */\n    tag_34:\n        /* \"#utility.yul\":5280:5283   */\n      0x00\n        /* \"#utility.yul\":5235:5308   */\n      swap1\n      jump\t// out\n        /* \"#utility.yul\":5314:5503   */\n    tag_35:\n        /* \"#utility.yul\":5391:5423   */\n      tag_105\n      tag_34\n      jump\t// in\n    tag_105:\n        /* \"#utility.yul\":5432:5497   */\n      tag_106\n        /* \"#utility.yul\":5490:5496   */\n      dup2\n        /* \"#utility.yul\":5482:5488   */\n      dup5\n        /* \"#utility.yul\":5476:5480   */\n      dup5\n        /* \"#utility.yul\":5432:5497   */\n      tag_33\n      jump\t// in\n    tag_106:\n        /* \"#utility.yul\":5367:5503   */\n      pop\n        /* \"#utility.yul\":5314:5503   */\n      pop\n      pop\n      jump\t// out\n        /* \"#utility.yul\":5509:5695   */\n    tag_36:\n        /* \"#utility.yul\":5569:5689   */\n    tag_108:\n        /* \"#utility.yul\":5586:5589   */\n      dup2\n        /* \"#utility.yul\":5579:5584   */\n      dup2\n        /* \"#utility.yul\":5576:5590   */\n      lt\n        /* \"#utility.yul\":5569:5689   */\n      iszero\n      tag_110\n      jumpi\n        /* \"#utility.yul\":5640:5679   */\n      tag_111\n        /* \"#utility.yul\":5677:5678   */\n      0x00\n        /* \"#utility.yul\":5670:5675   */\n      dup3\n        /* \"#utility.yul\":5640:5679   */\n      tag_35\n      jump\t// in\n    tag_111:\n        /* \"#utility.yul\":5613:5614   */\n      0x01\n        /* \"#utility.yul\":5606:5611   */\n      dup2\n        /* \"#utility.yul\":5602:5615   */\n      add\n        /* \"#utility.yul\":5593:5615   */\n      swap1\n      pop\n        /* \"#utility.yul\":5569:5689   */\n      jump(tag_108)\n    tag_110:\n        /* \"#utility.yul\":5509:5695   */\n      pop\n      pop\n      jump\t// out\n        /* \"#utility.yul\":5701:6244   */\n    tag_37:\n        /* \"#utility.yul\":5802:5804   */\n      0x1f\n        /* \"#utility.yul\":5797:5800   */\n      dup3\n        /* \"#utility.yul\":5794:5805   */\n      gt\n        /* \"#utility.yul\":5791:6237   */\n      iszero\n      tag_113\n      jumpi\n        /* \"#utility.yul\":5836:5874   */\n      tag_114\n        /* \"#utility.yul\":5868:5873   */\n      dup2\n        /* \"#utility.yul\":5836:5874   */\n      tag_25\n      jump\t// in\n    tag_114:\n        /* \"#utility.yul\":5920:5949   */\n      tag_115\n        /* \"#utility.yul\":5938:5948   */\n      dup5\n        /* \"#utility.yul\":5920:5949   */\n      tag_26\n      jump\t// in\n    tag_115:\n        /* \"#utility.yul\":5910:5918   */\n      dup2\n        /* \"#utility.yul\":5906:5950   */\n      add\n        /* \"#utility.yul\":6103:6105   */\n      0x20\n        /* \"#utility.yul\":6091:6101   */\n      dup6\n        /* \"#utility.yul\":6088:6106   */\n      lt\n        /* \"#utility.yul\":6085:6134   */\n      iszero\n      tag_116\n      jumpi\n        /* \"#utility.yul\":6124:6132   */\n      dup2\n        /* \"#utility.yul\":6109:6132   */\n      swap1\n      pop\n        /* \"#utility.yul\":6085:6134   */\n    tag_116:\n        /* \"#utility.yul\":6147:6227   */\n      tag_117\n        /* \"#utility.yul\":6203:6225   */\n      tag_118\n        /* \"#utility.yul\":6221:6224   */\n      dup6\n        /* \"#utility.yul\":6203:6225   */\n      tag_26\n      jump\t// in\n    tag_118:\n        /* \"#utility.yul\":6193:6201   */\n      dup4\n        /* \"#utility.yul\":6189:6226   */\n      add\n        /* \"#utility.yul\":6176:6187   */\n      dup3\n        /* \"#utility.yul\":6147:6227   */\n      tag_36\n      jump\t// in\n    tag_117:\n        /* \"#utility.yul\":5806:6237   */\n      pop\n      pop\n        /* \"#utility.yul\":5791:6237   */\n    tag_113:\n        /* \"#utility.yul\":5701:6244   */\n      pop\n      pop\n      pop\n      jump\t// out\n        /* \"#utility.yul\":6250:6367   */\n    tag_38:\n        /* \"#utility.yul\":6304:6312   */\n      0x00\n        /* \"#utility.yul\":6354:6359   */\n      dup3\n        /* \"#utility.yul\":6348:6352   */\n      dup3\n        /* \"#utility.yul\":6344:6360   */\n      shr\n        /* \"#utility.yul\":6323:6360   */\n      swap1\n      pop\n        /* \"#utility.yul\":6250:6367   */\n      swap3\n      swap2\n      pop\n      pop\n      jump\t// out\n        /* \"#utility.yul\":6373:6542   */\n    tag_39:\n        /* \"#utility.yul\":6417:6423   */\n      0x00\n        /* \"#utility.yul\":6450:6501   */\n      tag_121\n        /* \"#utility.yul\":6498:6499   */\n      0x00\n        /* \"#utility.yul\":6494:6500   */\n      not\n        /* \"#utility.yul\":6486:6491   */\n      dup5\n        /* \"#utility.yul\":6483:6484   */\n      0x08\n        /* \"#utility.yul\":6479:6492   */\n      mul\n        /* \"#utility.yul\":6450:6501   */\n      tag_38\n      jump\t// in\n    tag_121:\n        /* \"#utility.yul\":6446:6502   */\n      not\n        /* \"#utility.yul\":6531:6535   */\n      dup1\n        /* \"#utility.yul\":6525:6529   */\n      dup4\n        /* \"#utility.yul\":6521:6536   */\n      and\n        /* \"#utility.yul\":6511:6536   */\n      swap2\n      pop\n        /* \"#utility.yul\":6424:6542   */\n      pop\n        /* \"#utility.yul\":6373:6542   */\n      swap3\n      swap2\n      pop\n      pop\n      jump\t// out\n        /* \"#utility.yul\":6547:6842   */\n    tag_40:\n        /* \"#utility.yul\":6623:6627   */\n      0x00\n        /* \"#utility.yul\":6769:6798   */\n      tag_123\n        /* \"#utility.yul\":6794:6797   */\n      dup4\n        /* \"#utility.yul\":6788:6792   */\n      dup4\n        /* \"#utility.yul\":6769:6798   */\n      tag_39\n      jump\t// in\n    tag_123:\n        /* \"#utility.yul\":6761:6798   */\n      swap2\n      pop\n        /* \"#utility.yul\":6831:6834   */\n      dup3\n        /* \"#utility.yul\":6828:6829   */\n      0x02\n        /* \"#utility.yul\":6824:6835   */\n      mul\n        /* \"#utility.yul\":6818:6822   */\n      dup3\n        /* \"#utility.yul\":6815:6836   */\n      or\n        /* \"#utility.yul\":6807:6836   */\n      swap1\n      pop\n        /* \"#utility.yul\":6547:6842   */\n      swap3\n      swap2\n      pop\n      pop\n      jump\t// out\n        /* \"#utility.yul\":6847:8242   */\n    tag_7:\n        /* \"#utility.yul\":6964:7001   */\n      tag_125\n        /* \"#utility.yul\":6997:7000   */\n      dup3\n        /* \"#utility.yul\":6964:7001   */\n      tag_22\n      jump\t// in\n    tag_125:\n        /* \"#utility.yul\":7066:7084   */\n      0xffffffffffffffff\n        /* \"#utility.yul\":7058:7064   */\n      dup2\n        /* \"#utility.yul\":7055:7085   */\n      gt\n        /* \"#utility.yul\":7052:7108   */\n      iszero\n      tag_126\n      jumpi\n        /* \"#utility.yul\":7088:7106   */\n      tag_127\n      tag_15\n      jump\t// in\n    tag_127:\n        /* \"#utility.yul\":7052:7108   */\n    tag_126:\n        /* \"#utility.yul\":7132:7170   */\n      tag_128\n        /* \"#utility.yul\":7164:7168   */\n      dup3\n        /* \"#utility.yul\":7158:7169   */\n      sload\n        /* \"#utility.yul\":7132:7170   */\n      tag_24\n      jump\t// in\n    tag_128:\n        /* \"#utility.yul\":7217:7284   */\n      tag_129\n        /* \"#utility.yul\":7277:7283   */\n      dup3\n        /* \"#utility.yul\":7269:7275   */\n      dup3\n        /* \"#utility.yul\":7263:7267   */\n      dup6\n        /* \"#utility.yul\":7217:7284   */\n      tag_37\n      jump\t// in\n    tag_129:\n        /* \"#utility.yul\":7311:7312   */\n      0x00\n        /* \"#utility.yul\":7335:7339   */\n      0x20\n        /* \"#utility.yul\":7322:7339   */\n      swap1\n      pop\n        /* \"#utility.yul\":7367:7369   */\n      0x1f\n        /* \"#utility.yul\":7359:7365   */\n      dup4\n        /* \"#utility.yul\":7356:7370   */\n      gt\n        /* \"#utility.yul\":7384:7385   */\n      0x01\n        /* \"#utility.yul\":7379:7997   */\n      dup2\n      eq\n      tag_131\n      jumpi\n        /* \"#utility.yul\":8041:8042   */\n      0x00\n        /* \"#utility.yul\":8058:8064   */\n      dup5\n        /* \"#utility.yul\":8055:8132   */\n      iszero\n      tag_132\n      jumpi\n        /* \"#utility.yul\":8107:8116   */\n      dup3\n        /* \"#utility.yul\":8102:8105   */\n      dup8\n        /* \"#utility.yul\":8098:8117   */\n      add\n        /* \"#utility.yul\":8092:8118   */\n      mload\n        /* \"#utility.yul\":8083:8118   */\n      swap1\n      pop\n        /* \"#utility.yul\":8055:8132   */\n    tag_132:\n        /* \"#utility.yul\":8158:8225   */\n      tag_133\n        /* \"#utility.yul\":8218:8224   */\n      dup6\n        /* \"#utility.yul\":8211:8216   */\n      dup3\n        /* \"#utility.yul\":8158:8225   */\n      tag_40\n      jump\t// in\n    tag_133:\n        /* \"#utility.yul\":8152:8156   */\n      dup7\n        /* \"#utility.yul\":8145:8226   */\n      sstore\n        /* \"#utility.yul\":8014:8236   */\n      pop\n        /* \"#utility.yul\":7349:8236   */\n      jump(tag_130)\n        /* \"#utility.yul\":7379:7997   */\n    tag_131:\n        /* \"#utility.yul\":7431:7435   */\n      0x1f\n        /* \"#utility.yul\":7427:7436   */\n      not\n        /* \"#utility.yul\":7419:7425   */\n      dup5\n        /* \"#utility.yul\":7415:7437   */\n      and\n        /* \"#utility.yul\":7465:7502   */\n      tag_134\n        /* \"#utility.yul\":7497:7501   */\n      dup7\n        /* \"#utility.yul\":7465:7502   */\n      tag_25\n      jump\t// in\n    tag_134:\n        /* \"#utility.yul\":7524:7525   */\n      0x00\n        /* \"#utility.yul\":7538:7746   */\n    tag_135:\n        /* \"#utility.yul\":7552:7559   */\n      dup3\n        /* \"#utility.yul\":7549:7550   */\n      dup2\n        /* \"#utility.yul\":7546:7560   */\n      lt\n        /* \"#utility.yul\":7538:7746   */\n      iszero\n      tag_137\n      jumpi\n        /* \"#utility.yul\":7631:7640   */\n      dup5\n        /* \"#utility.yul\":7626:7629   */\n      dup10\n        /* \"#utility.yul\":7622:7641   */\n      add\n        /* \"#utility.yul\":7616:7642   */\n      mload\n        /* \"#utility.yul\":7608:7614   */\n      dup3\n        /* \"#utility.yul\":7601:7643   */\n      sstore\n        /* \"#utility.yul\":7682:7683   */\n      0x01\n        /* \"#utility.yul\":7674:7680   */\n      dup3\n        /* \"#utility.yul\":7670:7684   */\n      add\n        /* \"#utility.yul\":7660:7684   */\n      swap2\n      pop\n        /* \"#utility.yul\":7729:7731   */\n      0x20\n        /* \"#utility.yul\":7718:7727   */\n      dup6\n        /* \"#utility.yul\":7714:7732   */\n      add\n        /* \"#utility.yul\":7701:7732   */\n      swap5\n      pop\n        /* \"#utility.yul\":7575:7579   */\n      0x20\n        /* \"#utility.yul\":7572:7573   */\n      dup2\n        /* \"#utility.yul\":7568:7580   */\n      add\n        /* \"#utility.yul\":7563:7580   */\n      swap1\n      pop\n        /* \"#utility.yul\":7538:7746   */\n      jump(tag_135)\n    tag_137:\n        /* \"#utility.yul\":7774:7780   */\n      dup7\n        /* \"#utility.yul\":7765:7772   */\n      dup4\n        /* \"#utility.yul\":7762:7781   */\n      lt\n        /* \"#utility.yul\":7759:7938   */\n      iszero\n      tag_138\n      jumpi\n        /* \"#utility.yul\":7832:7841   */\n      dup5\n        /* \"#utility.yul\":7827:7830   */\n      dup10\n        /* \"#utility.yul\":7823:7842   */\n      add\n        /* \"#utility.yul\":7817:7843   */\n      mload\n        /* \"#utility.yul\":7875:7923   */\n      tag_139\n        /* \"#utility.yul\":7917:7921   */\n      0x1f\n        /* \"#utility.yul\":7909:7915   */\n      dup10\n        /* \"#utility.yul\":7905:7922   */\n      and\n        /* \"#utility.yul\":7894:7903   */\n      dup3\n        /* \"#utility.yul\":7875:7923   */\n      tag_39\n      jump\t// in\n    tag_139:\n        /* \"#utility.yul\":7867:7873   */\n      dup4\n        /* \"#utility.yul\":7860:7924   */\n      sstore\n        /* \"#utility.yul\":7782:7938   */\n      pop\n        /* \"#utility.yul\":7759:7938   */\n    tag_138:\n        /* \"#utility.yul\":7984:7985   */\n      0x01\n        /* \"#utility.yul\":7980:7981   */\n      0x02\n        /* \"#utility.yul\":7972:7978   */\n      dup9\n        /* \"#utility.yul\":7968:7982   */\n      mul\n        /* \"#utility.yul\":7964:7986   */\n      add\n        /* \"#utility.yul\":7958:7962   */\n      dup9\n        /* \"#utility.yul\":7951:7987   */\n      sstore\n        /* \"#utility.yul\":7386:7997   */\n      pop\n      pop\n      pop\n        /* \"#utility.yul\":7349:8236   */\n    tag_130:\n      pop\n        /* \"#utility.yul\":6939:8242   */\n      pop\n      pop\n      pop\n        /* \"#utility.yul\":6847:8242   */\n      pop\n      pop\n      jump\t// out\n        /* \"contracts/4-Inheritence/Inherit.sol\":253:465  contract SecretVault {... */\n    tag_8:\n      dataSize(sub_0)\n      dup1\n      dataOffset(sub_0)\n      0x00\n      codecopy\n      0x00\n      return\n    stop\n\n    sub_0: assembly {\n            /* \"contracts/4-Inheritence/Inherit.sol\":253:465  contract SecretVault {... */\n          mstore(0x40, 0x80)\n          callvalue\n          dup1\n          iszero\n          tag_1\n          jumpi\n          0x00\n          dup1\n          revert\n        tag_1:\n          pop\n          jumpi(tag_2, lt(calldatasize, 0x04))\n          shr(0xe0, calldataload(0x00))\n          dup1\n          0x5b9fdc30\n          eq\n          tag_3\n          jumpi\n        tag_2:\n          0x00\n          dup1\n          revert\n            /* \"contracts/4-Inheritence/Inherit.sol\":376:463  function getSecret() public view returns (string memory) {... */\n        tag_3:\n          tag_4\n          tag_5\n          jump\t// in\n        tag_4:\n          mload(0x40)\n          tag_6\n          swap2\n          swap1\n          tag_7\n          jump\t// in\n        tag_6:\n          mload(0x40)\n          dup1\n          swap2\n          sub\n          swap1\n          return\n        tag_5:\n            /* \"contracts/4-Inheritence/Inherit.sol\":418:431  string memory */\n          0x60\n            /* \"contracts/4-Inheritence/Inherit.sol\":450:456  secret */\n          0x00\n            /* \"contracts/4-Inheritence/Inherit.sol\":443:456  return secret */\n          dup1\n          sload\n          tag_9\n          swap1\n          tag_10\n          jump\t// in\n        tag_9:\n          dup1\n          0x1f\n          add\n          0x20\n          dup1\n          swap2\n          div\n          mul\n          0x20\n          add\n          mload(0x40)\n          swap1\n          dup2\n          add\n          0x40\n          mstore\n          dup1\n          swap3\n          swap2\n          swap1\n          dup2\n          dup2\n          mstore\n          0x20\n          add\n          dup3\n          dup1\n          sload\n          tag_11\n          swap1\n          tag_10\n          jump\t// in\n        tag_11:\n          dup1\n          iszero\n          tag_12\n          jumpi\n          dup1\n          0x1f\n          lt\n          tag_13\n          jumpi\n          0x0100\n          dup1\n          dup4\n          sload\n          div\n          mul\n          dup4\n          mstore\n          swap2\n          0x20\n          add\n          swap2\n          jump(tag_12)\n        tag_13:\n          dup3\n          add\n          swap2\n          swap1\n          0x00\n          mstore\n          keccak256(0x00, 0x20)\n          swap1\n        tag_14:\n          dup2\n          sload\n          dup2\n          mstore\n          swap1\n          0x01\n          add\n          swap1\n          0x20\n          add\n          dup1\n          dup4\n          gt\n          tag_14\n          jumpi\n          dup3\n          swap1\n          sub\n          0x1f\n          and\n          dup3\n          add\n          swap2\n        tag_12:\n          pop\n          pop\n          pop\n          pop\n          pop\n          swap1\n          pop\n            /* \"contracts/4-Inheritence/Inherit.sol\":376:463  function getSecret() public view returns (string memory) {... */\n          swap1\n          jump\t// out\n            /* \"#utility.yul\":7:106   */\n        tag_15:\n            /* \"#utility.yul\":59:65   */\n          0x00\n            /* \"#utility.yul\":93:98   */\n          dup2\n            /* \"#utility.yul\":87:99   */\n          mload\n            /* \"#utility.yul\":77:99   */\n          swap1\n          pop\n            /* \"#utility.yul\":7:106   */\n          swap2\n          swap1\n          pop\n          jump\t// out\n            /* \"#utility.yul\":112:281   */\n        tag_16:\n            /* \"#utility.yul\":196:207   */\n          0x00\n            /* \"#utility.yul\":230:236   */\n          dup3\n            /* \"#utility.yul\":225:228   */\n          dup3\n            /* \"#utility.yul\":218:237   */\n          mstore\n            /* \"#utility.yul\":270:274   */\n          0x20\n            /* \"#utility.yul\":265:268   */\n          dup3\n            /* \"#utility.yul\":261:275   */\n          add\n            /* \"#utility.yul\":246:275   */\n          swap1\n          pop\n            /* \"#utility.yul\":112:281   */\n          swap3\n          swap2\n          pop\n          pop\n          jump\t// out\n            /* \"#utility.yul\":287:533   */\n        tag_17:\n            /* \"#utility.yul\":368:369   */\n          0x00\n            /* \"#utility.yul\":378:491   */\n        tag_25:\n            /* \"#utility.yul\":392:398   */\n          dup4\n            /* \"#utility.yul\":389:390   */\n          dup2\n            /* \"#utility.yul\":386:399   */\n          lt\n            /* \"#utility.yul\":378:491   */\n          iszero\n          tag_27\n          jumpi\n            /* \"#utility.yul\":477:478   */\n          dup1\n            /* \"#utility.yul\":472:475   */\n          dup3\n            /* \"#utility.yul\":468:479   */\n          add\n            /* \"#utility.yul\":462:480   */\n          mload\n            /* \"#utility.yul\":458:459   */\n          dup2\n            /* \"#utility.yul\":453:456   */\n          dup5\n            /* \"#utility.yul\":449:460   */\n          add\n            /* \"#utility.yul\":442:481   */\n          mstore\n            /* \"#utility.yul\":414:416   */\n          0x20\n            /* \"#utility.yul\":411:412   */\n          dup2\n            /* \"#utility.yul\":407:417   */\n          add\n            /* \"#utility.yul\":402:417   */\n          swap1\n          pop\n            /* \"#utility.yul\":378:491   */\n          jump(tag_25)\n        tag_27:\n            /* \"#utility.yul\":525:526   */\n          0x00\n            /* \"#utility.yul\":516:522   */\n          dup5\n            /* \"#utility.yul\":511:514   */\n          dup5\n            /* \"#utility.yul\":507:523   */\n          add\n            /* \"#utility.yul\":500:527   */\n          mstore\n            /* \"#utility.yul\":349:533   */\n          pop\n            /* \"#utility.yul\":287:533   */\n          pop\n          pop\n          pop\n          jump\t// out\n            /* \"#utility.yul\":539:641   */\n        tag_18:\n            /* \"#utility.yul\":580:586   */\n          0x00\n            /* \"#utility.yul\":631:633   */\n          0x1f\n            /* \"#utility.yul\":627:634   */\n          not\n            /* \"#utility.yul\":622:624   */\n          0x1f\n            /* \"#utility.yul\":615:620   */\n          dup4\n            /* \"#utility.yul\":611:625   */\n          add\n            /* \"#utility.yul\":607:635   */\n          and\n            /* \"#utility.yul\":597:635   */\n          swap1\n          pop\n            /* \"#utility.yul\":539:641   */\n          swap2\n          swap1\n          pop\n          jump\t// out\n            /* \"#utility.yul\":647:1024   */\n        tag_19:\n            /* \"#utility.yul\":735:738   */\n          0x00\n            /* \"#utility.yul\":763:802   */\n          tag_30\n            /* \"#utility.yul\":796:801   */\n          dup3\n            /* \"#utility.yul\":763:802   */\n          tag_15\n          jump\t// in\n        tag_30:\n            /* \"#utility.yul\":818:889   */\n          tag_31\n            /* \"#utility.yul\":882:888   */\n          dup2\n            /* \"#utility.yul\":877:880   */\n          dup6\n            /* \"#utility.yul\":818:889   */\n          tag_16\n          jump\t// in\n        tag_31:\n            /* \"#utility.yul\":811:889   */\n          swap4\n          pop\n            /* \"#utility.yul\":898:963   */\n          tag_32\n            /* \"#utility.yul\":956:962   */\n          dup2\n            /* \"#utility.yul\":951:954   */\n          dup6\n            /* \"#utility.yul\":944:948   */\n          0x20\n            /* \"#utility.yul\":937:942   */\n          dup7\n            /* \"#utility.yul\":933:949   */\n          add\n            /* \"#utility.yul\":898:963   */\n          tag_17\n          jump\t// in\n        tag_32:\n            /* \"#utility.yul\":988:1017   */\n          tag_33\n            /* \"#utility.yul\":1010:1016   */\n          dup2\n            /* \"#utility.yul\":988:1017   */\n          tag_18\n          jump\t// in\n        tag_33:\n            /* \"#utility.yul\":983:986   */\n          dup5\n            /* \"#utility.yul\":979:1018   */\n          add\n            /* \"#utility.yul\":972:1018   */\n          swap2\n          pop\n            /* \"#utility.yul\":739:1024   */\n          pop\n            /* \"#utility.yul\":647:1024   */\n          swap3\n          swap2\n          pop\n          pop\n          jump\t// out\n            /* \"#utility.yul\":1030:1343   */\n        tag_7:\n            /* \"#utility.yul\":1143:1147   */\n          0x00\n            /* \"#utility.yul\":1181:1183   */\n          0x20\n            /* \"#utility.yul\":1170:1179   */\n          dup3\n            /* \"#utility.yul\":1166:1184   */\n          add\n            /* \"#utility.yul\":1158:1184   */\n          swap1\n          pop\n            /* \"#utility.yul\":1230:1239   */\n          dup2\n            /* \"#utility.yul\":1224:1228   */\n          dup2\n            /* \"#utility.yul\":1220:1240   */\n          sub\n            /* \"#utility.yul\":1216:1217   */\n          0x00\n            /* \"#utility.yul\":1205:1214   */\n          dup4\n            /* \"#utility.yul\":1201:1218   */\n          add\n            /* \"#utility.yul\":1194:1241   */\n          mstore\n            /* \"#utility.yul\":1258:1336   */\n          tag_35\n            /* \"#utility.yul\":1331:1335   */\n          dup2\n            /* \"#utility.yul\":1322:1328   */\n          dup5\n            /* \"#utility.yul\":1258:1336   */\n          tag_19\n          jump\t// in\n        tag_35:\n            /* \"#utility.yul\":1250:1336   */\n          swap1\n          pop\n            /* \"#utility.yul\":1030:1343   */\n          swap3\n          swap2\n          pop\n          pop\n          jump\t// out\n            /* \"#utility.yul\":1349:1529   */\n        tag_20:\n            /* \"#utility.yul\":1397:1474   */\n          0x4e487b7100000000000000000000000000000000000000000000000000000000\n            /* \"#utility.yul\":1394:1395   */\n          0x00\n            /* \"#utility.yul\":1387:1475   */\n          mstore\n            /* \"#utility.yul\":1494:1498   */\n          0x22\n            /* \"#utility.yul\":1491:1492   */\n          0x04\n            /* \"#utility.yul\":1484:1499   */\n          mstore\n            /* \"#utility.yul\":1518:1522   */\n          0x24\n            /* \"#utility.yul\":1515:1516   */\n          0x00\n            /* \"#utility.yul\":1508:1523   */\n          revert\n            /* \"#utility.yul\":1535:1855   */\n        tag_10:\n            /* \"#utility.yul\":1579:1585   */\n          0x00\n            /* \"#utility.yul\":1616:1617   */\n          0x02\n            /* \"#utility.yul\":1610:1614   */\n          dup3\n            /* \"#utility.yul\":1606:1618   */\n          div\n            /* \"#utility.yul\":1596:1618   */\n          swap1\n          pop\n            /* \"#utility.yul\":1663:1664   */\n          0x01\n            /* \"#utility.yul\":1657:1661   */\n          dup3\n            /* \"#utility.yul\":1653:1665   */\n          and\n            /* \"#utility.yul\":1684:1702   */\n          dup1\n            /* \"#utility.yul\":1674:1755   */\n          tag_38\n          jumpi\n            /* \"#utility.yul\":1740:1744   */\n          0x7f\n            /* \"#utility.yul\":1732:1738   */\n          dup3\n            /* \"#utility.yul\":1728:1745   */\n          and\n            /* \"#utility.yul\":1718:1745   */\n          swap2\n          pop\n            /* \"#utility.yul\":1674:1755   */\n        tag_38:\n            /* \"#utility.yul\":1802:1804   */\n          0x20\n            /* \"#utility.yul\":1794:1800   */\n          dup3\n            /* \"#utility.yul\":1791:1805   */\n          lt\n            /* \"#utility.yul\":1771:1789   */\n          dup2\n            /* \"#utility.yul\":1768:1806   */\n          sub\n            /* \"#utility.yul\":1765:1849   */\n          tag_39\n          jumpi\n            /* \"#utility.yul\":1821:1839   */\n          tag_40\n          tag_20\n          jump\t// in\n        tag_40:\n            /* \"#utility.yul\":1765:1849   */\n        tag_39:\n            /* \"#utility.yul\":1586:1855   */\n          pop\n            /* \"#utility.yul\":1535:1855   */\n          swap2\n          swap1\n          pop\n          jump\t// out\n\n        auxdata: 0xa2646970667358221220acb30115507c71639ce2dc50a8ceb9b02a238d69ab56a985765da6d079abc07064736f6c63430008120033\n    }\n}\n",
				"bytecode": {
					"linkReferences": {},
					"object": "60806040523480156200001157600080fd5b5060405162000f0038038062000f0083398181016040528101906200003791906200029e565b336000806101000a81548173ffffffffffffffffffffffffffffffffffffffff021916908373ffffffffffffffffffffffffffffffffffffffff1602179055506000816040516200008890620000fd565b6200009491906200034c565b604051809103906000f080158015620000b1573d6000803e3d6000fd5b50905080600160006101000a81548173ffffffffffffffffffffffffffffffffffffffff021916908373ffffffffffffffffffffffffffffffffffffffff160217905550505062000370565b61073080620007d083390190565b6000604051905090565b600080fd5b600080fd5b600080fd5b600080fd5b6000601f19601f8301169050919050565b7f4e487b7100000000000000000000000000000000000000000000000000000000600052604160045260246000fd5b620001748262000129565b810181811067ffffffffffffffff821117156200019657620001956200013a565b5b80604052505050565b6000620001ab6200010b565b9050620001b9828262000169565b919050565b600067ffffffffffffffff821115620001dc57620001db6200013a565b5b620001e78262000129565b9050602081019050919050565b60005b8381101562000214578082015181840152602081019050620001f7565b60008484015250505050565b6000620002376200023184620001be565b6200019f565b90508281526020810184848401111562000256576200025562000124565b5b62000263848285620001f4565b509392505050565b600082601f8301126200028357620002826200011f565b5b81516200029584826020860162000220565b91505092915050565b600060208284031215620002b757620002b662000115565b5b600082015167ffffffffffffffff811115620002d857620002d76200011a565b5b620002e6848285016200026b565b91505092915050565b600081519050919050565b600082825260208201905092915050565b60006200031882620002ef565b620003248185620002fa565b935062000336818560208601620001f4565b620003418162000129565b840191505092915050565b600060208201905081810360008301526200036881846200030b565b905092915050565b61045080620003806000396000f3fe608060405234801561001057600080fd5b506004361061002b5760003560e01c80635b9fdc3014610030575b600080fd5b61003861004e565b6040516100459190610209565b60405180910390f35b606060008054906101000a900473ffffffffffffffffffffffffffffffffffffffff1673ffffffffffffffffffffffffffffffffffffffff163373ffffffffffffffffffffffffffffffffffffffff16146100de576040517f08c379a00000000000000000000000000000000000000000000000000000000081526004016100d590610277565b60405180910390fd5b600160009054906101000a900473ffffffffffffffffffffffffffffffffffffffff1673ffffffffffffffffffffffffffffffffffffffff16635b9fdc306040518163ffffffff1660e01b8152600401600060405180830381865afa15801561014b573d6000803e3d6000fd5b505050506040513d6000823e3d601f19601f8201168201806040525081019061017491906103d1565b905090565b600081519050919050565b600082825260208201905092915050565b60005b838110156101b3578082015181840152602081019050610198565b60008484015250505050565b6000601f19601f8301169050919050565b60006101db82610179565b6101e58185610184565b93506101f5818560208601610195565b6101fe816101bf565b840191505092915050565b6000602082019050818103600083015261022381846101d0565b905092915050565b7f6d757374206265206f776e657200000000000000000000000000000000000000600082015250565b6000610261600d83610184565b915061026c8261022b565b602082019050919050565b6000602082019050818103600083015261029081610254565b9050919050565b6000604051905090565b600080fd5b600080fd5b600080fd5b600080fd5b7f4e487b7100000000000000000000000000000000000000000000000000000000600052604160045260246000fd5b6102ed826101bf565b810181811067ffffffffffffffff8211171561030c5761030b6102b5565b5b80604052505050565b600061031f610297565b905061032b82826102e4565b919050565b600067ffffffffffffffff82111561034b5761034a6102b5565b5b610354826101bf565b9050602081019050919050565b600061037461036f84610330565b610315565b9050828152602081018484840111156103905761038f6102b0565b5b61039b848285610195565b509392505050565b600082601f8301126103b8576103b76102ab565b5b81516103c8848260208601610361565b91505092915050565b6000602082840312156103e7576103e66102a1565b5b600082015167ffffffffffffffff811115610405576104046102a6565b5b610411848285016103a3565b9150509291505056fea2646970667358221220eab505adf56527cb7786ecdc6cf90e3eeba5df2e0f51c1c89289f6e1281818ed64736f6c63430008120033608060405234801561001057600080fd5b50604051610730380380610730833981810160405281019061003291906101bd565b80600090816100419190610427565b50506104f9565b6000604051905090565b600080fd5b600080fd5b600080fd5b600080fd5b6000601f19601f8301169050919050565b7f4e487b7100000000000000000000000000000000000000000000000000000000600052604160045260246000fd5b6100af82610066565b810181811067ffffffffffffffff821117156100ce576100cd610077565b5b80604052505050565b60006100e1610048565b90506100ed82826100a6565b919050565b600067ffffffffffffffff82111561010d5761010c610077565b5b61011682610066565b9050602081019050919050565b60005b83811015610141578082015181840152602081019050610126565b60008484015250505050565b600061016061015b846100f2565b6100d7565b90508281526020810184848401111561017c5761017b610061565b5b610187848285610123565b509392505050565b600082601f8301126101a4576101a361005c565b5b81516101b484826020860161014d565b91505092915050565b6000602082840312156101d3576101d2610052565b5b600082015167ffffffffffffffff8111156101f1576101f0610057565b5b6101fd8482850161018f565b91505092915050565b600081519050919050565b7f4e487b7100000000000000000000000000000000000000000000000000000000600052602260045260246000fd5b6000600282049050600182168061025857607f821691505b60208210810361026b5761026a610211565b5b50919050565b60008190508160005260206000209050919050565b60006020601f8301049050919050565b600082821b905092915050565b6000600883026102d37fffffffffffffffffffffffffffffffffffffffffffffffffffffffffffffffff82610296565b6102dd8683610296565b95508019841693508086168417925050509392505050565b6000819050919050565b6000819050919050565b600061032461031f61031a846102f5565b6102ff565b6102f5565b9050919050565b6000819050919050565b61033e83610309565b61035261034a8261032b565b8484546102a3565b825550505050565b600090565b61036761035a565b610372818484610335565b505050565b5b818110156103965761038b60008261035f565b600181019050610378565b5050565b601f8211156103db576103ac81610271565b6103b584610286565b810160208510156103c4578190505b6103d86103d085610286565b830182610377565b50505b505050565b600082821c905092915050565b60006103fe600019846008026103e0565b1980831691505092915050565b600061041783836103ed565b9150826002028217905092915050565b61043082610206565b67ffffffffffffffff81111561044957610448610077565b5b6104538254610240565b61045e82828561039a565b600060209050601f831160018114610491576000841561047f578287015190505b610489858261040b565b8655506104f1565b601f19841661049f86610271565b60005b828110156104c7578489015182556001820191506020850194506020810190506104a2565b868310156104e457848901516104e0601f8916826103ed565b8355505b6001600288020188555050505b505050505050565b610228806105086000396000f3fe608060405234801561001057600080fd5b506004361061002b5760003560e01c80635b9fdc3014610030575b600080fd5b61003861004e565b6040516100459190610170565b60405180910390f35b60606000805461005d906101c1565b80601f0160208091040260200160405190810160405280929190818152602001828054610089906101c1565b80156100d65780601f106100ab576101008083540402835291602001916100d6565b820191906000526020600020905b8154815290600101906020018083116100b957829003601f168201915b5050505050905090565b600081519050919050565b600082825260208201905092915050565b60005b8381101561011a5780820151818401526020810190506100ff565b60008484015250505050565b6000601f19601f8301169050919050565b6000610142826100e0565b61014c81856100eb565b935061015c8185602086016100fc565b61016581610126565b840191505092915050565b6000602082019050818103600083015261018a8184610137565b905092915050565b7f4e487b7100000000000000000000000000000000000000000000000000000000600052602260045260246000fd5b600060028204905060018216806101d957607f821691505b6020821081036101ec576101eb610192565b5b5091905056fea2646970667358221220acb30115507c71639ce2dc50a8ceb9b02a238d69ab56a985765da6d079abc07064736f6c63430008120033",
					"opcodes": "PUSH1 0x80 PUSH1 0x40 MSTORE CALLVALUE DUP1 ISZERO PUSH3 0x11 JUMPI PUSH1 0x0 DUP1 REVERT JUMPDEST POP PUSH1 0x40 MLOAD PUSH3 0xF00 CODESIZE SUB DUP1 PUSH3 0xF00 DUP4 CODECOPY DUP2 DUP2 ADD PUSH1 0x40 MSTORE DUP2 ADD SWAP1 PUSH3 0x37 SWAP2 SWAP1 PUSH3 0x29E JUMP JUMPDEST CALLER PUSH1 0x0 DUP1 PUSH2 0x100 EXP DUP2 SLOAD DUP2 PUSH20 0xFFFFFFFFFFFFFFFFFFFFFFFFFFFFFFFFFFFFFFFF MUL NOT AND SWAP1 DUP4 PUSH20 0xFFFFFFFFFFFFFFFFFFFFFFFFFFFFFFFFFFFFFFFF AND MUL OR SWAP1 SSTORE POP PUSH1 0x0 DUP2 PUSH1 0x40 MLOAD PUSH3 0x88 SWAP1 PUSH3 0xFD JUMP JUMPDEST PUSH3 0x94 SWAP2 SWAP1 PUSH3 0x34C JUMP JUMPDEST PUSH1 0x40 MLOAD DUP1 SWAP2 SUB SWAP1 PUSH1 0x0 CREATE DUP1 ISZERO DUP1 ISZERO PUSH3 0xB1 JUMPI RETURNDATASIZE PUSH1 0x0 DUP1 RETURNDATACOPY RETURNDATASIZE PUSH1 0x0 REVERT JUMPDEST POP SWAP1 POP DUP1 PUSH1 0x1 PUSH1 0x0 PUSH2 0x100 EXP DUP2 SLOAD DUP2 PUSH20 0xFFFFFFFFFFFFFFFFFFFFFFFFFFFFFFFFFFFFFFFF MUL NOT AND SWAP1 DUP4 PUSH20 0xFFFFFFFFFFFFFFFFFFFFFFFFFFFFFFFFFFFFFFFF AND MUL OR SWAP1 SSTORE POP POP POP PUSH3 0x370 JUMP JUMPDEST PUSH2 0x730 DUP1 PUSH3 0x7D0 DUP4 CODECOPY ADD SWAP1 JUMP JUMPDEST PUSH1 0x0 PUSH1 0x40 MLOAD SWAP1 POP SWAP1 JUMP JUMPDEST PUSH1 0x0 DUP1 REVERT JUMPDEST PUSH1 0x0 DUP1 REVERT JUMPDEST PUSH1 0x0 DUP1 REVERT JUMPDEST PUSH1 0x0 DUP1 REVERT JUMPDEST PUSH1 0x0 PUSH1 0x1F NOT PUSH1 0x1F DUP4 ADD AND SWAP1 POP SWAP2 SWAP1 POP JUMP JUMPDEST PUSH32 0x4E487B7100000000000000000000000000000000000000000000000000000000 PUSH1 0x0 MSTORE PUSH1 0x41 PUSH1 0x4 MSTORE PUSH1 0x24 PUSH1 0x0 REVERT JUMPDEST PUSH3 0x174 DUP3 PUSH3 0x129 JUMP JUMPDEST DUP2 ADD DUP2 DUP2 LT PUSH8 0xFFFFFFFFFFFFFFFF DUP3 GT OR ISZERO PUSH3 0x196 JUMPI PUSH3 0x195 PUSH3 0x13A JUMP JUMPDEST JUMPDEST DUP1 PUSH1 0x40 MSTORE POP POP POP JUMP JUMPDEST PUSH1 0x0 PUSH3 0x1AB PUSH3 0x10B JUMP JUMPDEST SWAP1 POP PUSH3 0x1B9 DUP3 DUP3 PUSH3 0x169 JUMP JUMPDEST SWAP2 SWAP1 POP JUMP JUMPDEST PUSH1 0x0 PUSH8 0xFFFFFFFFFFFFFFFF DUP3 GT ISZERO PUSH3 0x1DC JUMPI PUSH3 0x1DB PUSH3 0x13A JUMP JUMPDEST JUMPDEST PUSH3 0x1E7 DUP3 PUSH3 0x129 JUMP JUMPDEST SWAP1 POP PUSH1 0x20 DUP2 ADD SWAP1 POP SWAP2 SWAP1 POP JUMP JUMPDEST PUSH1 0x0 JUMPDEST DUP4 DUP2 LT ISZERO PUSH3 0x214 JUMPI DUP1 DUP3 ADD MLOAD DUP2 DUP5 ADD MSTORE PUSH1 0x20 DUP2 ADD SWAP1 POP PUSH3 0x1F7 JUMP JUMPDEST PUSH1 0x0 DUP5 DUP5 ADD MSTORE POP POP POP POP JUMP JUMPDEST PUSH1 0x0 PUSH3 0x237 PUSH3 0x231 DUP5 PUSH3 0x1BE JUMP JUMPDEST PUSH3 0x19F JUMP JUMPDEST SWAP1 POP DUP3 DUP2 MSTORE PUSH1 0x20 DUP2 ADD DUP5 DUP5 DUP5 ADD GT ISZERO PUSH3 0x256 JUMPI PUSH3 0x255 PUSH3 0x124 JUMP JUMPDEST JUMPDEST PUSH3 0x263 DUP5 DUP3 DUP6 PUSH3 0x1F4 JUMP JUMPDEST POP SWAP4 SWAP3 POP POP POP JUMP JUMPDEST PUSH1 0x0 DUP3 PUSH1 0x1F DUP4 ADD SLT PUSH3 0x283 JUMPI PUSH3 0x282 PUSH3 0x11F JUMP JUMPDEST JUMPDEST DUP2 MLOAD PUSH3 0x295 DUP5 DUP3 PUSH1 0x20 DUP7 ADD PUSH3 0x220 JUMP JUMPDEST SWAP2 POP POP SWAP3 SWAP2 POP POP JUMP JUMPDEST PUSH1 0x0 PUSH1 0x20 DUP3 DUP5 SUB SLT ISZERO PUSH3 0x2B7 JUMPI PUSH3 0x2B6 PUSH3 0x115 JUMP JUMPDEST JUMPDEST PUSH1 0x0 DUP3 ADD MLOAD PUSH8 0xFFFFFFFFFFFFFFFF DUP2 GT ISZERO PUSH3 0x2D8 JUMPI PUSH3 0x2D7 PUSH3 0x11A JUMP JUMPDEST JUMPDEST PUSH3 0x2E6 DUP5 DUP3 DUP6 ADD PUSH3 0x26B JUMP JUMPDEST SWAP2 POP POP SWAP3 SWAP2 POP POP JUMP JUMPDEST PUSH1 0x0 DUP2 MLOAD SWAP1 POP SWAP2 SWAP1 POP JUMP JUMPDEST PUSH1 0x0 DUP3 DUP3 MSTORE PUSH1 0x20 DUP3 ADD SWAP1 POP SWAP3 SWAP2 POP POP JUMP JUMPDEST PUSH1 0x0 PUSH3 0x318 DUP3 PUSH3 0x2EF JUMP JUMPDEST PUSH3 0x324 DUP2 DUP6 PUSH3 0x2FA JUMP JUMPDEST SWAP4 POP PUSH3 0x336 DUP2 DUP6 PUSH1 0x20 DUP7 ADD PUSH3 0x1F4 JUMP JUMPDEST PUSH3 0x341 DUP2 PUSH3 0x129 JUMP JUMPDEST DUP5 ADD SWAP2 POP POP SWAP3 SWAP2 POP POP JUMP JUMPDEST PUSH1 0x0 PUSH1 0x20 DUP3 ADD SWAP1 POP DUP2 DUP2 SUB PUSH1 0x0 DUP4 ADD MSTORE PUSH3 0x368 DUP2 DUP5 PUSH3 0x30B JUMP JUMPDEST SWAP1 POP SWAP3 SWAP2 POP POP JUMP JUMPDEST PUSH2 0x450 DUP1 PUSH3 0x380 PUSH1 0x0 CODECOPY PUSH1 0x0 RETURN INVALID PUSH1 0x80 PUSH1 0x40 MSTORE CALLVALUE DUP1 ISZERO PUSH2 0x10 JUMPI PUSH1 0x0 DUP1 REVERT JUMPDEST POP PUSH1 0x4 CALLDATASIZE LT PUSH2 0x2B JUMPI PUSH1 0x0 CALLDATALOAD PUSH1 0xE0 SHR DUP1 PUSH4 0x5B9FDC30 EQ PUSH2 0x30 JUMPI JUMPDEST PUSH1 0x0 DUP1 REVERT JUMPDEST PUSH2 0x38 PUSH2 0x4E JUMP JUMPDEST PUSH1 0x40 MLOAD PUSH2 0x45 SWAP2 SWAP1 PUSH2 0x209 JUMP JUMPDEST PUSH1 0x40 MLOAD DUP1 SWAP2 SUB SWAP1 RETURN JUMPDEST PUSH1 0x60 PUSH1 0x0 DUP1 SLOAD SWAP1 PUSH2 0x100 EXP SWAP1 DIV PUSH20 0xFFFFFFFFFFFFFFFFFFFFFFFFFFFFFFFFFFFFFFFF AND PUSH20 0xFFFFFFFFFFFFFFFFFFFFFFFFFFFFFFFFFFFFFFFF AND CALLER PUSH20 0xFFFFFFFFFFFFFFFFFFFFFFFFFFFFFFFFFFFFFFFF AND EQ PUSH2 0xDE JUMPI PUSH1 0x40 MLOAD PUSH32 0x8C379A000000000000000000000000000000000000000000000000000000000 DUP2 MSTORE PUSH1 0x4 ADD PUSH2 0xD5 SWAP1 PUSH2 0x277 JUMP JUMPDEST PUSH1 0x40 MLOAD DUP1 SWAP2 SUB SWAP1 REVERT JUMPDEST PUSH1 0x1 PUSH1 0x0 SWAP1 SLOAD SWAP1 PUSH2 0x100 EXP SWAP1 DIV PUSH20 0xFFFFFFFFFFFFFFFFFFFFFFFFFFFFFFFFFFFFFFFF AND PUSH20 0xFFFFFFFFFFFFFFFFFFFFFFFFFFFFFFFFFFFFFFFF AND PUSH4 0x5B9FDC30 PUSH1 0x40 MLOAD DUP2 PUSH4 0xFFFFFFFF AND PUSH1 0xE0 SHL DUP2 MSTORE PUSH1 0x4 ADD PUSH1 0x0 PUSH1 0x40 MLOAD DUP1 DUP4 SUB DUP2 DUP7 GAS STATICCALL ISZERO DUP1 ISZERO PUSH2 0x14B JUMPI RETURNDATASIZE PUSH1 0x0 DUP1 RETURNDATACOPY RETURNDATASIZE PUSH1 0x0 REVERT JUMPDEST POP POP POP POP PUSH1 0x40 MLOAD RETURNDATASIZE PUSH1 0x0 DUP3 RETURNDATACOPY RETURNDATASIZE PUSH1 0x1F NOT PUSH1 0x1F DUP3 ADD AND DUP3 ADD DUP1 PUSH1 0x40 MSTORE POP DUP2 ADD SWAP1 PUSH2 0x174 SWAP2 SWAP1 PUSH2 0x3D1 JUMP JUMPDEST SWAP1 POP SWAP1 JUMP JUMPDEST PUSH1 0x0 DUP2 MLOAD SWAP1 POP SWAP2 SWAP1 POP JUMP JUMPDEST PUSH1 0x0 DUP3 DUP3 MSTORE PUSH1 0x20 DUP3 ADD SWAP1 POP SWAP3 SWAP2 POP POP JUMP JUMPDEST PUSH1 0x0 JUMPDEST DUP4 DUP2 LT ISZERO PUSH2 0x1B3 JUMPI DUP1 DUP3 ADD MLOAD DUP2 DUP5 ADD MSTORE PUSH1 0x20 DUP2 ADD SWAP1 POP PUSH2 0x198 JUMP JUMPDEST PUSH1 0x0 DUP5 DUP5 ADD MSTORE POP POP POP POP JUMP JUMPDEST PUSH1 0x0 PUSH1 0x1F NOT PUSH1 0x1F DUP4 ADD AND SWAP1 POP SWAP2 SWAP1 POP JUMP JUMPDEST PUSH1 0x0 PUSH2 0x1DB DUP3 PUSH2 0x179 JUMP JUMPDEST PUSH2 0x1E5 DUP2 DUP6 PUSH2 0x184 JUMP JUMPDEST SWAP4 POP PUSH2 0x1F5 DUP2 DUP6 PUSH1 0x20 DUP7 ADD PUSH2 0x195 JUMP JUMPDEST PUSH2 0x1FE DUP2 PUSH2 0x1BF JUMP JUMPDEST DUP5 ADD SWAP2 POP POP SWAP3 SWAP2 POP POP JUMP JUMPDEST PUSH1 0x0 PUSH1 0x20 DUP3 ADD SWAP1 POP DUP2 DUP2 SUB PUSH1 0x0 DUP4 ADD MSTORE PUSH2 0x223 DUP2 DUP5 PUSH2 0x1D0 JUMP JUMPDEST SWAP1 POP SWAP3 SWAP2 POP POP JUMP JUMPDEST PUSH32 0x6D757374206265206F776E657200000000000000000000000000000000000000 PUSH1 0x0 DUP3 ADD MSTORE POP JUMP JUMPDEST PUSH1 0x0 PUSH2 0x261 PUSH1 0xD DUP4 PUSH2 0x184 JUMP JUMPDEST SWAP2 POP PUSH2 0x26C DUP3 PUSH2 0x22B JUMP JUMPDEST PUSH1 0x20 DUP3 ADD SWAP1 POP SWAP2 SWAP1 POP JUMP JUMPDEST PUSH1 0x0 PUSH1 0x20 DUP3 ADD SWAP1 POP DUP2 DUP2 SUB PUSH1 0x0 DUP4 ADD MSTORE PUSH2 0x290 DUP2 PUSH2 0x254 JUMP JUMPDEST SWAP1 POP SWAP2 SWAP1 POP JUMP JUMPDEST PUSH1 0x0 PUSH1 0x40 MLOAD SWAP1 POP SWAP1 JUMP JUMPDEST PUSH1 0x0 DUP1 REVERT JUMPDEST PUSH1 0x0 DUP1 REVERT JUMPDEST PUSH1 0x0 DUP1 REVERT JUMPDEST PUSH1 0x0 DUP1 REVERT JUMPDEST PUSH32 0x4E487B7100000000000000000000000000000000000000000000000000000000 PUSH1 0x0 MSTORE PUSH1 0x41 PUSH1 0x4 MSTORE PUSH1 0x24 PUSH1 0x0 REVERT JUMPDEST PUSH2 0x2ED DUP3 PUSH2 0x1BF JUMP JUMPDEST DUP2 ADD DUP2 DUP2 LT PUSH8 0xFFFFFFFFFFFFFFFF DUP3 GT OR ISZERO PUSH2 0x30C JUMPI PUSH2 0x30B PUSH2 0x2B5 JUMP JUMPDEST JUMPDEST DUP1 PUSH1 0x40 MSTORE POP POP POP JUMP JUMPDEST PUSH1 0x0 PUSH2 0x31F PUSH2 0x297 JUMP JUMPDEST SWAP1 POP PUSH2 0x32B DUP3 DUP3 PUSH2 0x2E4 JUMP JUMPDEST SWAP2 SWAP1 POP JUMP JUMPDEST PUSH1 0x0 PUSH8 0xFFFFFFFFFFFFFFFF DUP3 GT ISZERO PUSH2 0x34B JUMPI PUSH2 0x34A PUSH2 0x2B5 JUMP JUMPDEST JUMPDEST PUSH2 0x354 DUP3 PUSH2 0x1BF JUMP JUMPDEST SWAP1 POP PUSH1 0x20 DUP2 ADD SWAP1 POP SWAP2 SWAP1 POP JUMP JUMPDEST PUSH1 0x0 PUSH2 0x374 PUSH2 0x36F DUP5 PUSH2 0x330 JUMP JUMPDEST PUSH2 0x315 JUMP JUMPDEST SWAP1 POP DUP3 DUP2 MSTORE PUSH1 0x20 DUP2 ADD DUP5 DUP5 DUP5 ADD GT ISZERO PUSH2 0x390 JUMPI PUSH2 0x38F PUSH2 0x2B0 JUMP JUMPDEST JUMPDEST PUSH2 0x39B DUP5 DUP3 DUP6 PUSH2 0x195 JUMP JUMPDEST POP SWAP4 SWAP3 POP POP POP JUMP JUMPDEST PUSH1 0x0 DUP3 PUSH1 0x1F DUP4 ADD SLT PUSH2 0x3B8 JUMPI PUSH2 0x3B7 PUSH2 0x2AB JUMP JUMPDEST JUMPDEST DUP2 MLOAD PUSH2 0x3C8 DUP5 DUP3 PUSH1 0x20 DUP7 ADD PUSH2 0x361 JUMP JUMPDEST SWAP2 POP POP SWAP3 SWAP2 POP POP JUMP JUMPDEST PUSH1 0x0 PUSH1 0x20 DUP3 DUP5 SUB SLT ISZERO PUSH2 0x3E7 JUMPI PUSH2 0x3E6 PUSH2 0x2A1 JUMP JUMPDEST JUMPDEST PUSH1 0x0 DUP3 ADD MLOAD PUSH8 0xFFFFFFFFFFFFFFFF DUP2 GT ISZERO PUSH2 0x405 JUMPI PUSH2 0x404 PUSH2 0x2A6 JUMP JUMPDEST JUMPDEST PUSH2 0x411 DUP5 DUP3 DUP6 ADD PUSH2 0x3A3 JUMP JUMPDEST SWAP2 POP POP SWAP3 SWAP2 POP POP JUMP INVALID LOG2 PUSH5 0x6970667358 0x22 SLT KECCAK256 0xEA 0xB5 SDIV 0xAD CREATE2 PUSH6 0x27CB7786ECDC PUSH13 0xF90E3EEBA5DF2E0F51C1C89289 0xF6 0xE1 0x28 XOR XOR 0xED PUSH5 0x736F6C6343 STOP ADDMOD SLT STOP CALLER PUSH1 0x80 PUSH1 0x40 MSTORE CALLVALUE DUP1 ISZERO PUSH2 0x10 JUMPI PUSH1 0x0 DUP1 REVERT JUMPDEST POP PUSH1 0x40 MLOAD PUSH2 0x730 CODESIZE SUB DUP1 PUSH2 0x730 DUP4 CODECOPY DUP2 DUP2 ADD PUSH1 0x40 MSTORE DUP2 ADD SWAP1 PUSH2 0x32 SWAP2 SWAP1 PUSH2 0x1BD JUMP JUMPDEST DUP1 PUSH1 0x0 SWAP1 DUP2 PUSH2 0x41 SWAP2 SWAP1 PUSH2 0x427 JUMP JUMPDEST POP POP PUSH2 0x4F9 JUMP JUMPDEST PUSH1 0x0 PUSH1 0x40 MLOAD SWAP1 POP SWAP1 JUMP JUMPDEST PUSH1 0x0 DUP1 REVERT JUMPDEST PUSH1 0x0 DUP1 REVERT JUMPDEST PUSH1 0x0 DUP1 REVERT JUMPDEST PUSH1 0x0 DUP1 REVERT JUMPDEST PUSH1 0x0 PUSH1 0x1F NOT PUSH1 0x1F DUP4 ADD AND SWAP1 POP SWAP2 SWAP1 POP JUMP JUMPDEST PUSH32 0x4E487B7100000000000000000000000000000000000000000000000000000000 PUSH1 0x0 MSTORE PUSH1 0x41 PUSH1 0x4 MSTORE PUSH1 0x24 PUSH1 0x0 REVERT JUMPDEST PUSH2 0xAF DUP3 PUSH2 0x66 JUMP JUMPDEST DUP2 ADD DUP2 DUP2 LT PUSH8 0xFFFFFFFFFFFFFFFF DUP3 GT OR ISZERO PUSH2 0xCE JUMPI PUSH2 0xCD PUSH2 0x77 JUMP JUMPDEST JUMPDEST DUP1 PUSH1 0x40 MSTORE POP POP POP JUMP JUMPDEST PUSH1 0x0 PUSH2 0xE1 PUSH2 0x48 JUMP JUMPDEST SWAP1 POP PUSH2 0xED DUP3 DUP3 PUSH2 0xA6 JUMP JUMPDEST SWAP2 SWAP1 POP JUMP JUMPDEST PUSH1 0x0 PUSH8 0xFFFFFFFFFFFFFFFF DUP3 GT ISZERO PUSH2 0x10D JUMPI PUSH2 0x10C PUSH2 0x77 JUMP JUMPDEST JUMPDEST PUSH2 0x116 DUP3 PUSH2 0x66 JUMP JUMPDEST SWAP1 POP PUSH1 0x20 DUP2 ADD SWAP1 POP SWAP2 SWAP1 POP JUMP JUMPDEST PUSH1 0x0 JUMPDEST DUP4 DUP2 LT ISZERO PUSH2 0x141 JUMPI DUP1 DUP3 ADD MLOAD DUP2 DUP5 ADD MSTORE PUSH1 0x20 DUP2 ADD SWAP1 POP PUSH2 0x126 JUMP JUMPDEST PUSH1 0x0 DUP5 DUP5 ADD MSTORE POP POP POP POP JUMP JUMPDEST PUSH1 0x0 PUSH2 0x160 PUSH2 0x15B DUP5 PUSH2 0xF2 JUMP JUMPDEST PUSH2 0xD7 JUMP JUMPDEST SWAP1 POP DUP3 DUP2 MSTORE PUSH1 0x20 DUP2 ADD DUP5 DUP5 DUP5 ADD GT ISZERO PUSH2 0x17C JUMPI PUSH2 0x17B PUSH2 0x61 JUMP JUMPDEST JUMPDEST PUSH2 0x187 DUP5 DUP3 DUP6 PUSH2 0x123 JUMP JUMPDEST POP SWAP4 SWAP3 POP POP POP JUMP JUMPDEST PUSH1 0x0 DUP3 PUSH1 0x1F DUP4 ADD SLT PUSH2 0x1A4 JUMPI PUSH2 0x1A3 PUSH2 0x5C JUMP JUMPDEST JUMPDEST DUP2 MLOAD PUSH2 0x1B4 DUP5 DUP3 PUSH1 0x20 DUP7 ADD PUSH2 0x14D JUMP JUMPDEST SWAP2 POP POP SWAP3 SWAP2 POP POP JUMP JUMPDEST PUSH1 0x0 PUSH1 0x20 DUP3 DUP5 SUB SLT ISZERO PUSH2 0x1D3 JUMPI PUSH2 0x1D2 PUSH2 0x52 JUMP JUMPDEST JUMPDEST PUSH1 0x0 DUP3 ADD MLOAD PUSH8 0xFFFFFFFFFFFFFFFF DUP2 GT ISZERO PUSH2 0x1F1 JUMPI PUSH2 0x1F0 PUSH2 0x57 JUMP JUMPDEST JUMPDEST PUSH2 0x1FD DUP5 DUP3 DUP6 ADD PUSH2 0x18F JUMP JUMPDEST SWAP2 POP POP SWAP3 SWAP2 POP POP JUMP JUMPDEST PUSH1 0x0 DUP2 MLOAD SWAP1 POP SWAP2 SWAP1 POP JUMP JUMPDEST PUSH32 0x4E487B7100000000000000000000000000000000000000000000000000000000 PUSH1 0x0 MSTORE PUSH1 0x22 PUSH1 0x4 MSTORE PUSH1 0x24 PUSH1 0x0 REVERT JUMPDEST PUSH1 0x0 PUSH1 0x2 DUP3 DIV SWAP1 POP PUSH1 0x1 DUP3 AND DUP1 PUSH2 0x258 JUMPI PUSH1 0x7F DUP3 AND SWAP2 POP JUMPDEST PUSH1 0x20 DUP3 LT DUP2 SUB PUSH2 0x26B JUMPI PUSH2 0x26A PUSH2 0x211 JUMP JUMPDEST JUMPDEST POP SWAP2 SWAP1 POP JUMP JUMPDEST PUSH1 0x0 DUP2 SWAP1 POP DUP2 PUSH1 0x0 MSTORE PUSH1 0x20 PUSH1 0x0 KECCAK256 SWAP1 POP SWAP2 SWAP1 POP JUMP JUMPDEST PUSH1 0x0 PUSH1 0x20 PUSH1 0x1F DUP4 ADD DIV SWAP1 POP SWAP2 SWAP1 POP JUMP JUMPDEST PUSH1 0x0 DUP3 DUP3 SHL SWAP1 POP SWAP3 SWAP2 POP POP JUMP JUMPDEST PUSH1 0x0 PUSH1 0x8 DUP4 MUL PUSH2 0x2D3 PUSH32 0xFFFFFFFFFFFFFFFFFFFFFFFFFFFFFFFFFFFFFFFFFFFFFFFFFFFFFFFFFFFFFFFF DUP3 PUSH2 0x296 JUMP JUMPDEST PUSH2 0x2DD DUP7 DUP4 PUSH2 0x296 JUMP JUMPDEST SWAP6 POP DUP1 NOT DUP5 AND SWAP4 POP DUP1 DUP7 AND DUP5 OR SWAP3 POP POP POP SWAP4 SWAP3 POP POP POP JUMP JUMPDEST PUSH1 0x0 DUP2 SWAP1 POP SWAP2 SWAP1 POP JUMP JUMPDEST PUSH1 0x0 DUP2 SWAP1 POP SWAP2 SWAP1 POP JUMP JUMPDEST PUSH1 0x0 PUSH2 0x324 PUSH2 0x31F PUSH2 0x31A DUP5 PUSH2 0x2F5 JUMP JUMPDEST PUSH2 0x2FF JUMP JUMPDEST PUSH2 0x2F5 JUMP JUMPDEST SWAP1 POP SWAP2 SWAP1 POP JUMP JUMPDEST PUSH1 0x0 DUP2 SWAP1 POP SWAP2 SWAP1 POP JUMP JUMPDEST PUSH2 0x33E DUP4 PUSH2 0x309 JUMP JUMPDEST PUSH2 0x352 PUSH2 0x34A DUP3 PUSH2 0x32B JUMP JUMPDEST DUP5 DUP5 SLOAD PUSH2 0x2A3 JUMP JUMPDEST DUP3 SSTORE POP POP POP POP JUMP JUMPDEST PUSH1 0x0 SWAP1 JUMP JUMPDEST PUSH2 0x367 PUSH2 0x35A JUMP JUMPDEST PUSH2 0x372 DUP2 DUP5 DUP5 PUSH2 0x335 JUMP JUMPDEST POP POP POP JUMP JUMPDEST JUMPDEST DUP2 DUP2 LT ISZERO PUSH2 0x396 JUMPI PUSH2 0x38B PUSH1 0x0 DUP3 PUSH2 0x35F JUMP JUMPDEST PUSH1 0x1 DUP2 ADD SWAP1 POP PUSH2 0x378 JUMP JUMPDEST POP POP JUMP JUMPDEST PUSH1 0x1F DUP3 GT ISZERO PUSH2 0x3DB JUMPI PUSH2 0x3AC DUP2 PUSH2 0x271 JUMP JUMPDEST PUSH2 0x3B5 DUP5 PUSH2 0x286 JUMP JUMPDEST DUP2 ADD PUSH1 0x20 DUP6 LT ISZERO PUSH2 0x3C4 JUMPI DUP2 SWAP1 POP JUMPDEST PUSH2 0x3D8 PUSH2 0x3D0 DUP6 PUSH2 0x286 JUMP JUMPDEST DUP4 ADD DUP3 PUSH2 0x377 JUMP JUMPDEST POP POP JUMPDEST POP POP POP JUMP JUMPDEST PUSH1 0x0 DUP3 DUP3 SHR SWAP1 POP SWAP3 SWAP2 POP POP JUMP JUMPDEST PUSH1 0x0 PUSH2 0x3FE PUSH1 0x0 NOT DUP5 PUSH1 0x8 MUL PUSH2 0x3E0 JUMP JUMPDEST NOT DUP1 DUP4 AND SWAP2 POP POP SWAP3 SWAP2 POP POP JUMP JUMPDEST PUSH1 0x0 PUSH2 0x417 DUP4 DUP4 PUSH2 0x3ED JUMP JUMPDEST SWAP2 POP DUP3 PUSH1 0x2 MUL DUP3 OR SWAP1 POP SWAP3 SWAP2 POP POP JUMP JUMPDEST PUSH2 0x430 DUP3 PUSH2 0x206 JUMP JUMPDEST PUSH8 0xFFFFFFFFFFFFFFFF DUP2 GT ISZERO PUSH2 0x449 JUMPI PUSH2 0x448 PUSH2 0x77 JUMP JUMPDEST JUMPDEST PUSH2 0x453 DUP3 SLOAD PUSH2 0x240 JUMP JUMPDEST PUSH2 0x45E DUP3 DUP3 DUP6 PUSH2 0x39A JUMP JUMPDEST PUSH1 0x0 PUSH1 0x20 SWAP1 POP PUSH1 0x1F DUP4 GT PUSH1 0x1 DUP2 EQ PUSH2 0x491 JUMPI PUSH1 0x0 DUP5 ISZERO PUSH2 0x47F JUMPI DUP3 DUP8 ADD MLOAD SWAP1 POP JUMPDEST PUSH2 0x489 DUP6 DUP3 PUSH2 0x40B JUMP JUMPDEST DUP7 SSTORE POP PUSH2 0x4F1 JUMP JUMPDEST PUSH1 0x1F NOT DUP5 AND PUSH2 0x49F DUP7 PUSH2 0x271 JUMP JUMPDEST PUSH1 0x0 JUMPDEST DUP3 DUP2 LT ISZERO PUSH2 0x4C7 JUMPI DUP5 DUP10 ADD MLOAD DUP3 SSTORE PUSH1 0x1 DUP3 ADD SWAP2 POP PUSH1 0x20 DUP6 ADD SWAP5 POP PUSH1 0x20 DUP2 ADD SWAP1 POP PUSH2 0x4A2 JUMP JUMPDEST DUP7 DUP4 LT ISZERO PUSH2 0x4E4 JUMPI DUP5 DUP10 ADD MLOAD PUSH2 0x4E0 PUSH1 0x1F DUP10 AND DUP3 PUSH2 0x3ED JUMP JUMPDEST DUP4 SSTORE POP JUMPDEST PUSH1 0x1 PUSH1 0x2 DUP9 MUL ADD DUP9 SSTORE POP POP POP JUMPDEST POP POP POP POP POP POP JUMP JUMPDEST PUSH2 0x228 DUP1 PUSH2 0x508 PUSH1 0x0 CODECOPY PUSH1 0x0 RETURN INVALID PUSH1 0x80 PUSH1 0x40 MSTORE CALLVALUE DUP1 ISZERO PUSH2 0x10 JUMPI PUSH1 0x0 DUP1 REVERT JUMPDEST POP PUSH1 0x4 CALLDATASIZE LT PUSH2 0x2B JUMPI PUSH1 0x0 CALLDATALOAD PUSH1 0xE0 SHR DUP1 PUSH4 0x5B9FDC30 EQ PUSH2 0x30 JUMPI JUMPDEST PUSH1 0x0 DUP1 REVERT JUMPDEST PUSH2 0x38 PUSH2 0x4E JUMP JUMPDEST PUSH1 0x40 MLOAD PUSH2 0x45 SWAP2 SWAP1 PUSH2 0x170 JUMP JUMPDEST PUSH1 0x40 MLOAD DUP1 SWAP2 SUB SWAP1 RETURN JUMPDEST PUSH1 0x60 PUSH1 0x0 DUP1 SLOAD PUSH2 0x5D SWAP1 PUSH2 0x1C1 JUMP JUMPDEST DUP1 PUSH1 0x1F ADD PUSH1 0x20 DUP1 SWAP2 DIV MUL PUSH1 0x20 ADD PUSH1 0x40 MLOAD SWAP1 DUP2 ADD PUSH1 0x40 MSTORE DUP1 SWAP3 SWAP2 SWAP1 DUP2 DUP2 MSTORE PUSH1 0x20 ADD DUP3 DUP1 SLOAD PUSH2 0x89 SWAP1 PUSH2 0x1C1 JUMP JUMPDEST DUP1 ISZERO PUSH2 0xD6 JUMPI DUP1 PUSH1 0x1F LT PUSH2 0xAB JUMPI PUSH2 0x100 DUP1 DUP4 SLOAD DIV MUL DUP4 MSTORE SWAP2 PUSH1 0x20 ADD SWAP2 PUSH2 0xD6 JUMP JUMPDEST DUP3 ADD SWAP2 SWAP1 PUSH1 0x0 MSTORE PUSH1 0x20 PUSH1 0x0 KECCAK256 SWAP1 JUMPDEST DUP2 SLOAD DUP2 MSTORE SWAP1 PUSH1 0x1 ADD SWAP1 PUSH1 0x20 ADD DUP1 DUP4 GT PUSH2 0xB9 JUMPI DUP3 SWAP1 SUB PUSH1 0x1F AND DUP3 ADD SWAP2 JUMPDEST POP POP POP POP POP SWAP1 POP SWAP1 JUMP JUMPDEST PUSH1 0x0 DUP2 MLOAD SWAP1 POP SWAP2 SWAP1 POP JUMP JUMPDEST PUSH1 0x0 DUP3 DUP3 MSTORE PUSH1 0x20 DUP3 ADD SWAP1 POP SWAP3 SWAP2 POP POP JUMP JUMPDEST PUSH1 0x0 JUMPDEST DUP4 DUP2 LT ISZERO PUSH2 0x11A JUMPI DUP1 DUP3 ADD MLOAD DUP2 DUP5 ADD MSTORE PUSH1 0x20 DUP2 ADD SWAP1 POP PUSH2 0xFF JUMP JUMPDEST PUSH1 0x0 DUP5 DUP5 ADD MSTORE POP POP POP POP JUMP JUMPDEST PUSH1 0x0 PUSH1 0x1F NOT PUSH1 0x1F DUP4 ADD AND SWAP1 POP SWAP2 SWAP1 POP JUMP JUMPDEST PUSH1 0x0 PUSH2 0x142 DUP3 PUSH2 0xE0 JUMP JUMPDEST PUSH2 0x14C DUP2 DUP6 PUSH2 0xEB JUMP JUMPDEST SWAP4 POP PUSH2 0x15C DUP2 DUP6 PUSH1 0x20 DUP7 ADD PUSH2 0xFC JUMP JUMPDEST PUSH2 0x165 DUP2 PUSH2 0x126 JUMP JUMPDEST DUP5 ADD SWAP2 POP POP SWAP3 SWAP2 POP POP JUMP JUMPDEST PUSH1 0x0 PUSH1 0x20 DUP3 ADD SWAP1 POP DUP2 DUP2 SUB PUSH1 0x0 DUP4 ADD MSTORE PUSH2 0x18A DUP2 DUP5 PUSH2 0x137 JUMP JUMPDEST SWAP1 POP SWAP3 SWAP2 POP POP JUMP JUMPDEST PUSH32 0x4E487B7100000000000000000000000000000000000000000000000000000000 PUSH1 0x0 MSTORE PUSH1 0x22 PUSH1 0x4 MSTORE PUSH1 0x24 PUSH1 0x0 REVERT JUMPDEST PUSH1 0x0 PUSH1 0x2 DUP3 DIV SWAP1 POP PUSH1 0x1 DUP3 AND DUP1 PUSH2 0x1D9 JUMPI PUSH1 0x7F DUP3 AND SWAP2 POP JUMPDEST PUSH1 0x20 DUP3 LT DUP2 SUB PUSH2 0x1EC JUMPI PUSH2 0x1EB PUSH2 0x192 JUMP JUMPDEST JUMPDEST POP SWAP2 SWAP1 POP JUMP INVALID LOG2 PUSH5 0x6970667358 0x22 SLT KECCAK256 0xAC 0xB3 ADD ISZERO POP PUSH29 0x71639CE2DC50A8CEB9B02A238D69AB56A985765DA6D079ABC07064736F PUSH13 0x63430008120033000000000000 "
				},
				"gasEstimates": {
					"creation": {
						"codeDepositCost": "220800",
						"executionCost": "infinite",
						"totalCost": "infinite"
					},
					"external": {
						"getSecret()": "infinite"
					}
				},
				"methodIdentifiers": {
					"getSecret()": "5b9fdc30"
				}
			},
			"storageLayout": {
				"storage": [
					{
						"astId": 3,
						"contract": "contracts/4-Inheritence/Inherit.sol:Inheritence_Contract",
						"label": "owner",
						"offset": 0,
						"slot": "0",
						"type": "t_address"
					},
					{
						"astId": 50,
						"contract": "contracts/4-Inheritence/Inherit.sol:Inheritence_Contract",
						"label": "newSecretVault",
						"offset": 0,
						"slot": "1",
						"type": "t_address"
					}
				],
				"types": {
					"t_address": {
						"encoding": "inplace",
						"label": "address",
						"numberOfBytes": "20"
					}
				}
			},
			"userdoc": {
				"kind": "user",
				"methods": {},
				"version": 1
			}
		}
	}
}