{
	"contracts/14-MultiSignatureVault/multiSignatureVault.sol": {
		"MultiSigWallet": {
			"abi": [
				{
					"inputs": [
						{
							"internalType": "address[]",
							"name": "_owners",
							"type": "address[]"
						},
						{
							"internalType": "uint256",
							"name": "_threshold",
							"type": "uint256"
						}
					],
					"stateMutability": "nonpayable",
					"type": "constructor"
				},
				{
					"inputs": [
						{
							"internalType": "address",
							"name": "to",
							"type": "address"
						},
						{
							"internalType": "uint256",
							"name": "value",
							"type": "uint256"
						},
						{
							"internalType": "bytes",
							"name": "data",
							"type": "bytes"
						},
						{
							"internalType": "uint8[]",
							"name": "sigV",
							"type": "uint8[]"
						},
						{
							"internalType": "bytes32[]",
							"name": "sigR",
							"type": "bytes32[]"
						},
						{
							"internalType": "bytes32[]",
							"name": "sigS",
							"type": "bytes32[]"
						}
					],
					"name": "execute",
					"outputs": [],
					"stateMutability": "nonpayable",
					"type": "function"
				},
				{
					"inputs": [
						{
							"internalType": "address",
							"name": "",
							"type": "address"
						}
					],
					"name": "isOwner",
					"outputs": [
						{
							"internalType": "bool",
							"name": "",
							"type": "bool"
						}
					],
					"stateMutability": "view",
					"type": "function"
				},
				{
					"inputs": [],
					"name": "nonce",
					"outputs": [
						{
							"internalType": "uint256",
							"name": "",
							"type": "uint256"
						}
					],
					"stateMutability": "view",
					"type": "function"
				},
				{
					"inputs": [
						{
							"internalType": "uint256",
							"name": "",
							"type": "uint256"
						}
					],
					"name": "owners",
					"outputs": [
						{
							"internalType": "address",
							"name": "",
							"type": "address"
						}
					],
					"stateMutability": "view",
					"type": "function"
				},
				{
					"inputs": [],
					"name": "threshold",
					"outputs": [
						{
							"internalType": "uint256",
							"name": "",
							"type": "uint256"
						}
					],
					"stateMutability": "view",
					"type": "function"
				}
			],
			"devdoc": {
				"kind": "dev",
				"methods": {},
				"version": 1
			},
			"evm": {
				"assembly": "    /* \"contracts/14-MultiSignatureVault/multiSignatureVault.sol\":25:1798  contract MultiSigWallet {... */\n  mstore(0x40, 0x80)\n    /* \"contracts/14-MultiSignatureVault/multiSignatureVault.sol\":186:574  constructor(address[] memory _owners, uint256 _threshold) {... */\n  callvalue\n  dup1\n  iszero\n  tag_1\n  jumpi\n  0x00\n  dup1\n  revert\ntag_1:\n  pop\n  mload(0x40)\n  sub(codesize, bytecodeSize)\n  dup1\n  bytecodeSize\n  dup4\n  codecopy\n  dup2\n  dup2\n  add\n  0x40\n  mstore\n  dup2\n  add\n  swap1\n  tag_2\n  swap2\n  swap1\n  tag_3\n  jump\t// in\ntag_2:\n    /* \"contracts/14-MultiSignatureVault/multiSignatureVault.sol\":275:276  0 */\n  0x00\n    /* \"contracts/14-MultiSignatureVault/multiSignatureVault.sol\":262:272  _threshold */\n  dup2\n    /* \"contracts/14-MultiSignatureVault/multiSignatureVault.sol\":262:276  _threshold > 0 */\n  gt\n    /* \"contracts/14-MultiSignatureVault/multiSignatureVault.sol\":262:308  _threshold > 0 && _owners.length >= _threshold */\n  dup1\n  iszero\n  tag_6\n  jumpi\n  pop\n    /* \"contracts/14-MultiSignatureVault/multiSignatureVault.sol\":298:308  _threshold */\n  dup1\n    /* \"contracts/14-MultiSignatureVault/multiSignatureVault.sol\":280:287  _owners */\n  dup3\n    /* \"contracts/14-MultiSignatureVault/multiSignatureVault.sol\":280:294  _owners.length */\n  mload\n    /* \"contracts/14-MultiSignatureVault/multiSignatureVault.sol\":280:308  _owners.length >= _threshold */\n  lt\n  iszero\n    /* \"contracts/14-MultiSignatureVault/multiSignatureVault.sol\":262:308  _threshold > 0 && _owners.length >= _threshold */\ntag_6:\n    /* \"contracts/14-MultiSignatureVault/multiSignatureVault.sol\":254:331  require(_threshold > 0 && _owners.length >= _threshold, \"Invalid parameters\") */\n  tag_7\n  jumpi\n  mload(0x40)\n  0x08c379a000000000000000000000000000000000000000000000000000000000\n  dup2\n  mstore\n  0x04\n  add\n  tag_8\n  swap1\n  tag_9\n  jump\t// in\ntag_8:\n  mload(0x40)\n  dup1\n  swap2\n  sub\n  swap1\n  revert\ntag_7:\n    /* \"contracts/14-MultiSignatureVault/multiSignatureVault.sol\":346:355  uint256 i */\n  0x00\n    /* \"contracts/14-MultiSignatureVault/multiSignatureVault.sol\":341:536  for (uint256 i = 0; i < _owners.length; i++) {... */\ntag_10:\n    /* \"contracts/14-MultiSignatureVault/multiSignatureVault.sol\":365:372  _owners */\n  dup3\n    /* \"contracts/14-MultiSignatureVault/multiSignatureVault.sol\":365:379  _owners.length */\n  mload\n    /* \"contracts/14-MultiSignatureVault/multiSignatureVault.sol\":361:362  i */\n  dup2\n    /* \"contracts/14-MultiSignatureVault/multiSignatureVault.sol\":361:379  i < _owners.length */\n  lt\n    /* \"contracts/14-MultiSignatureVault/multiSignatureVault.sol\":341:536  for (uint256 i = 0; i < _owners.length; i++) {... */\n  iszero\n  tag_11\n  jumpi\n    /* \"contracts/14-MultiSignatureVault/multiSignatureVault.sol\":409:416  isOwner */\n  0x01\n    /* \"contracts/14-MultiSignatureVault/multiSignatureVault.sol\":409:428  isOwner[_owners[i]] */\n  0x00\n    /* \"contracts/14-MultiSignatureVault/multiSignatureVault.sol\":417:424  _owners */\n  dup5\n    /* \"contracts/14-MultiSignatureVault/multiSignatureVault.sol\":425:426  i */\n  dup4\n    /* \"contracts/14-MultiSignatureVault/multiSignatureVault.sol\":417:427  _owners[i] */\n  dup2\n  mload\n  dup2\n  lt\n  tag_13\n  jumpi\n  tag_14\n  tag_15\n  jump\t// in\ntag_14:\ntag_13:\n  0x20\n  mul\n  0x20\n  add\n  add\n  mload\n    /* \"contracts/14-MultiSignatureVault/multiSignatureVault.sol\":409:428  isOwner[_owners[i]] */\n  0xffffffffffffffffffffffffffffffffffffffff\n  and\n  0xffffffffffffffffffffffffffffffffffffffff\n  and\n  dup2\n  mstore\n  0x20\n  add\n  swap1\n  dup2\n  mstore\n  0x20\n  add\n  0x00\n  keccak256\n  0x00\n  swap1\n  sload\n  swap1\n  0x0100\n  exp\n  swap1\n  div\n  0xff\n  and\n    /* \"contracts/14-MultiSignatureVault/multiSignatureVault.sol\":408:428  !isOwner[_owners[i]] */\n  iszero\n    /* \"contracts/14-MultiSignatureVault/multiSignatureVault.sol\":400:448  require(!isOwner[_owners[i]], \"Duplicate owner\") */\n  tag_16\n  jumpi\n  mload(0x40)\n  0x08c379a000000000000000000000000000000000000000000000000000000000\n  dup2\n  mstore\n  0x04\n  add\n  tag_17\n  swap1\n  tag_18\n  jump\t// in\ntag_17:\n  mload(0x40)\n  dup1\n  swap2\n  sub\n  swap1\n  revert\ntag_16:\n    /* \"contracts/14-MultiSignatureVault/multiSignatureVault.sol\":484:488  true */\n  0x01\n    /* \"contracts/14-MultiSignatureVault/multiSignatureVault.sol\":462:469  isOwner */\n  dup1\n    /* \"contracts/14-MultiSignatureVault/multiSignatureVault.sol\":462:481  isOwner[_owners[i]] */\n  0x00\n    /* \"contracts/14-MultiSignatureVault/multiSignatureVault.sol\":470:477  _owners */\n  dup6\n    /* \"contracts/14-MultiSignatureVault/multiSignatureVault.sol\":478:479  i */\n  dup5\n    /* \"contracts/14-MultiSignatureVault/multiSignatureVault.sol\":470:480  _owners[i] */\n  dup2\n  mload\n  dup2\n  lt\n  tag_19\n  jumpi\n  tag_20\n  tag_15\n  jump\t// in\ntag_20:\ntag_19:\n  0x20\n  mul\n  0x20\n  add\n  add\n  mload\n    /* \"contracts/14-MultiSignatureVault/multiSignatureVault.sol\":462:481  isOwner[_owners[i]] */\n  0xffffffffffffffffffffffffffffffffffffffff\n  and\n  0xffffffffffffffffffffffffffffffffffffffff\n  and\n  dup2\n  mstore\n  0x20\n  add\n  swap1\n  dup2\n  mstore\n  0x20\n  add\n  0x00\n  keccak256\n  0x00\n    /* \"contracts/14-MultiSignatureVault/multiSignatureVault.sol\":462:488  isOwner[_owners[i]] = true */\n  0x0100\n  exp\n  dup2\n  sload\n  dup2\n  0xff\n  mul\n  not\n  and\n  swap1\n  dup4\n  iszero\n  iszero\n  mul\n  or\n  swap1\n  sstore\n  pop\n    /* \"contracts/14-MultiSignatureVault/multiSignatureVault.sol\":502:508  owners */\n  0x02\n    /* \"contracts/14-MultiSignatureVault/multiSignatureVault.sol\":514:521  _owners */\n  dup4\n    /* \"contracts/14-MultiSignatureVault/multiSignatureVault.sol\":522:523  i */\n  dup3\n    /* \"contracts/14-MultiSignatureVault/multiSignatureVault.sol\":514:524  _owners[i] */\n  dup2\n  mload\n  dup2\n  lt\n  tag_21\n  jumpi\n  tag_22\n  tag_15\n  jump\t// in\ntag_22:\ntag_21:\n  0x20\n  mul\n  0x20\n  add\n  add\n  mload\n    /* \"contracts/14-MultiSignatureVault/multiSignatureVault.sol\":502:525  owners.push(_owners[i]) */\n  swap1\n  dup1\n  0x01\n  dup2\n  sload\n  add\n  dup1\n  dup3\n  sstore\n  dup1\n  swap2\n  pop\n  pop\n  0x01\n  swap1\n  sub\n  swap1\n  0x00\n  mstore\n  keccak256(0x00, 0x20)\n  add\n  0x00\n  swap1\n  swap2\n  swap1\n  swap2\n  swap1\n  swap2\n  0x0100\n  exp\n  dup2\n  sload\n  dup2\n  0xffffffffffffffffffffffffffffffffffffffff\n  mul\n  not\n  and\n  swap1\n  dup4\n  0xffffffffffffffffffffffffffffffffffffffff\n  and\n  mul\n  or\n  swap1\n  sstore\n  pop\n    /* \"contracts/14-MultiSignatureVault/multiSignatureVault.sol\":381:384  i++ */\n  dup1\n  dup1\n  tag_24\n  swap1\n  tag_25\n  jump\t// in\ntag_24:\n  swap2\n  pop\n  pop\n    /* \"contracts/14-MultiSignatureVault/multiSignatureVault.sol\":341:536  for (uint256 i = 0; i < _owners.length; i++) {... */\n  jump(tag_10)\ntag_11:\n  pop\n    /* \"contracts/14-MultiSignatureVault/multiSignatureVault.sol\":557:567  _threshold */\n  dup1\n    /* \"contracts/14-MultiSignatureVault/multiSignatureVault.sol\":545:554  threshold */\n  0x03\n    /* \"contracts/14-MultiSignatureVault/multiSignatureVault.sol\":545:567  threshold = _threshold */\n  dup2\n  swap1\n  sstore\n  pop\n    /* \"contracts/14-MultiSignatureVault/multiSignatureVault.sol\":186:574  constructor(address[] memory _owners, uint256 _threshold) {... */\n  pop\n  pop\n    /* \"contracts/14-MultiSignatureVault/multiSignatureVault.sol\":25:1798  contract MultiSigWallet {... */\n  jump(tag_26)\n    /* \"#utility.yul\":7:82   */\ntag_27:\n    /* \"#utility.yul\":40:46   */\n  0x00\n    /* \"#utility.yul\":73:75   */\n  0x40\n    /* \"#utility.yul\":67:76   */\n  mload\n    /* \"#utility.yul\":57:76   */\n  swap1\n  pop\n    /* \"#utility.yul\":7:82   */\n  swap1\n  jump\t// out\n    /* \"#utility.yul\":88:205   */\ntag_28:\n    /* \"#utility.yul\":197:198   */\n  0x00\n    /* \"#utility.yul\":194:195   */\n  dup1\n    /* \"#utility.yul\":187:199   */\n  revert\n    /* \"#utility.yul\":211:328   */\ntag_29:\n    /* \"#utility.yul\":320:321   */\n  0x00\n    /* \"#utility.yul\":317:318   */\n  dup1\n    /* \"#utility.yul\":310:322   */\n  revert\n    /* \"#utility.yul\":334:451   */\ntag_30:\n    /* \"#utility.yul\":443:444   */\n  0x00\n    /* \"#utility.yul\":440:441   */\n  dup1\n    /* \"#utility.yul\":433:445   */\n  revert\n    /* \"#utility.yul\":457:559   */\ntag_31:\n    /* \"#utility.yul\":498:504   */\n  0x00\n    /* \"#utility.yul\":549:551   */\n  0x1f\n    /* \"#utility.yul\":545:552   */\n  not\n    /* \"#utility.yul\":540:542   */\n  0x1f\n    /* \"#utility.yul\":533:538   */\n  dup4\n    /* \"#utility.yul\":529:543   */\n  add\n    /* \"#utility.yul\":525:553   */\n  and\n    /* \"#utility.yul\":515:553   */\n  swap1\n  pop\n    /* \"#utility.yul\":457:559   */\n  swap2\n  swap1\n  pop\n  jump\t// out\n    /* \"#utility.yul\":565:745   */\ntag_32:\n    /* \"#utility.yul\":613:690   */\n  0x4e487b7100000000000000000000000000000000000000000000000000000000\n    /* \"#utility.yul\":610:611   */\n  0x00\n    /* \"#utility.yul\":603:691   */\n  mstore\n    /* \"#utility.yul\":710:714   */\n  0x41\n    /* \"#utility.yul\":707:708   */\n  0x04\n    /* \"#utility.yul\":700:715   */\n  mstore\n    /* \"#utility.yul\":734:738   */\n  0x24\n    /* \"#utility.yul\":731:732   */\n  0x00\n    /* \"#utility.yul\":724:739   */\n  revert\n    /* \"#utility.yul\":751:1032   */\ntag_33:\n    /* \"#utility.yul\":834:861   */\n  tag_60\n    /* \"#utility.yul\":856:860   */\n  dup3\n    /* \"#utility.yul\":834:861   */\n  tag_31\n  jump\t// in\ntag_60:\n    /* \"#utility.yul\":826:832   */\n  dup2\n    /* \"#utility.yul\":822:862   */\n  add\n    /* \"#utility.yul\":964:970   */\n  dup2\n    /* \"#utility.yul\":952:962   */\n  dup2\n    /* \"#utility.yul\":949:971   */\n  lt\n    /* \"#utility.yul\":928:946   */\n  0xffffffffffffffff\n    /* \"#utility.yul\":916:926   */\n  dup3\n    /* \"#utility.yul\":913:947   */\n  gt\n    /* \"#utility.yul\":910:972   */\n  or\n    /* \"#utility.yul\":907:995   */\n  iszero\n  tag_61\n  jumpi\n    /* \"#utility.yul\":975:993   */\n  tag_62\n  tag_32\n  jump\t// in\ntag_62:\n    /* \"#utility.yul\":907:995   */\ntag_61:\n    /* \"#utility.yul\":1015:1025   */\n  dup1\n    /* \"#utility.yul\":1011:1013   */\n  0x40\n    /* \"#utility.yul\":1004:1026   */\n  mstore\n    /* \"#utility.yul\":794:1032   */\n  pop\n    /* \"#utility.yul\":751:1032   */\n  pop\n  pop\n  jump\t// out\n    /* \"#utility.yul\":1038:1167   */\ntag_34:\n    /* \"#utility.yul\":1072:1078   */\n  0x00\n    /* \"#utility.yul\":1099:1119   */\n  tag_64\n  tag_27\n  jump\t// in\ntag_64:\n    /* \"#utility.yul\":1089:1119   */\n  swap1\n  pop\n    /* \"#utility.yul\":1128:1161   */\n  tag_65\n    /* \"#utility.yul\":1156:1160   */\n  dup3\n    /* \"#utility.yul\":1148:1154   */\n  dup3\n    /* \"#utility.yul\":1128:1161   */\n  tag_33\n  jump\t// in\ntag_65:\n    /* \"#utility.yul\":1038:1167   */\n  swap2\n  swap1\n  pop\n  jump\t// out\n    /* \"#utility.yul\":1173:1484   */\ntag_35:\n    /* \"#utility.yul\":1250:1254   */\n  0x00\n    /* \"#utility.yul\":1340:1358   */\n  0xffffffffffffffff\n    /* \"#utility.yul\":1332:1338   */\n  dup3\n    /* \"#utility.yul\":1329:1359   */\n  gt\n    /* \"#utility.yul\":1326:1382   */\n  iszero\n  tag_67\n  jumpi\n    /* \"#utility.yul\":1362:1380   */\n  tag_68\n  tag_32\n  jump\t// in\ntag_68:\n    /* \"#utility.yul\":1326:1382   */\ntag_67:\n    /* \"#utility.yul\":1412:1416   */\n  0x20\n    /* \"#utility.yul\":1404:1410   */\n  dup3\n    /* \"#utility.yul\":1400:1417   */\n  mul\n    /* \"#utility.yul\":1392:1417   */\n  swap1\n  pop\n    /* \"#utility.yul\":1472:1476   */\n  0x20\n    /* \"#utility.yul\":1466:1470   */\n  dup2\n    /* \"#utility.yul\":1462:1477   */\n  add\n    /* \"#utility.yul\":1454:1477   */\n  swap1\n  pop\n    /* \"#utility.yul\":1173:1484   */\n  swap2\n  swap1\n  pop\n  jump\t// out\n    /* \"#utility.yul\":1490:1607   */\ntag_36:\n    /* \"#utility.yul\":1599:1600   */\n  0x00\n    /* \"#utility.yul\":1596:1597   */\n  dup1\n    /* \"#utility.yul\":1589:1601   */\n  revert\n    /* \"#utility.yul\":1613:1739   */\ntag_37:\n    /* \"#utility.yul\":1650:1657   */\n  0x00\n    /* \"#utility.yul\":1690:1732   */\n  0xffffffffffffffffffffffffffffffffffffffff\n    /* \"#utility.yul\":1683:1688   */\n  dup3\n    /* \"#utility.yul\":1679:1733   */\n  and\n    /* \"#utility.yul\":1668:1733   */\n  swap1\n  pop\n    /* \"#utility.yul\":1613:1739   */\n  swap2\n  swap1\n  pop\n  jump\t// out\n    /* \"#utility.yul\":1745:1841   */\ntag_38:\n    /* \"#utility.yul\":1782:1789   */\n  0x00\n    /* \"#utility.yul\":1811:1835   */\n  tag_72\n    /* \"#utility.yul\":1829:1834   */\n  dup3\n    /* \"#utility.yul\":1811:1835   */\n  tag_37\n  jump\t// in\ntag_72:\n    /* \"#utility.yul\":1800:1835   */\n  swap1\n  pop\n    /* \"#utility.yul\":1745:1841   */\n  swap2\n  swap1\n  pop\n  jump\t// out\n    /* \"#utility.yul\":1847:1969   */\ntag_39:\n    /* \"#utility.yul\":1920:1944   */\n  tag_74\n    /* \"#utility.yul\":1938:1943   */\n  dup2\n    /* \"#utility.yul\":1920:1944   */\n  tag_38\n  jump\t// in\ntag_74:\n    /* \"#utility.yul\":1913:1918   */\n  dup2\n    /* \"#utility.yul\":1910:1945   */\n  eq\n    /* \"#utility.yul\":1900:1963   */\n  tag_75\n  jumpi\n    /* \"#utility.yul\":1959:1960   */\n  0x00\n    /* \"#utility.yul\":1956:1957   */\n  dup1\n    /* \"#utility.yul\":1949:1961   */\n  revert\n    /* \"#utility.yul\":1900:1963   */\ntag_75:\n    /* \"#utility.yul\":1847:1969   */\n  pop\n  jump\t// out\n    /* \"#utility.yul\":1975:2118   */\ntag_40:\n    /* \"#utility.yul\":2032:2037   */\n  0x00\n    /* \"#utility.yul\":2063:2069   */\n  dup2\n    /* \"#utility.yul\":2057:2070   */\n  mload\n    /* \"#utility.yul\":2048:2070   */\n  swap1\n  pop\n    /* \"#utility.yul\":2079:2112   */\n  tag_77\n    /* \"#utility.yul\":2106:2111   */\n  dup2\n    /* \"#utility.yul\":2079:2112   */\n  tag_39\n  jump\t// in\ntag_77:\n    /* \"#utility.yul\":1975:2118   */\n  swap3\n  swap2\n  pop\n  pop\n  jump\t// out\n    /* \"#utility.yul\":2141:2873   */\ntag_41:\n    /* \"#utility.yul\":2248:2253   */\n  0x00\n    /* \"#utility.yul\":2273:2354   */\n  tag_79\n    /* \"#utility.yul\":2289:2353   */\n  tag_80\n    /* \"#utility.yul\":2346:2352   */\n  dup5\n    /* \"#utility.yul\":2289:2353   */\n  tag_35\n  jump\t// in\ntag_80:\n    /* \"#utility.yul\":2273:2354   */\n  tag_34\n  jump\t// in\ntag_79:\n    /* \"#utility.yul\":2264:2354   */\n  swap1\n  pop\n    /* \"#utility.yul\":2374:2379   */\n  dup1\n    /* \"#utility.yul\":2403:2409   */\n  dup4\n    /* \"#utility.yul\":2396:2401   */\n  dup3\n    /* \"#utility.yul\":2389:2410   */\n  mstore\n    /* \"#utility.yul\":2437:2441   */\n  0x20\n    /* \"#utility.yul\":2430:2435   */\n  dup3\n    /* \"#utility.yul\":2426:2442   */\n  add\n    /* \"#utility.yul\":2419:2442   */\n  swap1\n  pop\n    /* \"#utility.yul\":2490:2494   */\n  0x20\n    /* \"#utility.yul\":2482:2488   */\n  dup5\n    /* \"#utility.yul\":2478:2495   */\n  mul\n    /* \"#utility.yul\":2470:2476   */\n  dup4\n    /* \"#utility.yul\":2466:2496   */\n  add\n    /* \"#utility.yul\":2519:2522   */\n  dup6\n    /* \"#utility.yul\":2511:2517   */\n  dup2\n    /* \"#utility.yul\":2508:2523   */\n  gt\n    /* \"#utility.yul\":2505:2627   */\n  iszero\n  tag_81\n  jumpi\n    /* \"#utility.yul\":2538:2617   */\n  tag_82\n  tag_36\n  jump\t// in\ntag_82:\n    /* \"#utility.yul\":2505:2627   */\ntag_81:\n    /* \"#utility.yul\":2653:2659   */\n  dup4\n    /* \"#utility.yul\":2636:2867   */\ntag_83:\n    /* \"#utility.yul\":2670:2676   */\n  dup2\n    /* \"#utility.yul\":2665:2668   */\n  dup2\n    /* \"#utility.yul\":2662:2677   */\n  lt\n    /* \"#utility.yul\":2636:2867   */\n  iszero\n  tag_85\n  jumpi\n    /* \"#utility.yul\":2745:2748   */\n  dup1\n    /* \"#utility.yul\":2774:2822   */\n  tag_86\n    /* \"#utility.yul\":2818:2821   */\n  dup9\n    /* \"#utility.yul\":2806:2816   */\n  dup3\n    /* \"#utility.yul\":2774:2822   */\n  tag_40\n  jump\t// in\ntag_86:\n    /* \"#utility.yul\":2769:2772   */\n  dup5\n    /* \"#utility.yul\":2762:2823   */\n  mstore\n    /* \"#utility.yul\":2852:2856   */\n  0x20\n    /* \"#utility.yul\":2847:2850   */\n  dup5\n    /* \"#utility.yul\":2843:2857   */\n  add\n    /* \"#utility.yul\":2836:2857   */\n  swap4\n  pop\n    /* \"#utility.yul\":2712:2867   */\n  pop\n    /* \"#utility.yul\":2696:2700   */\n  0x20\n    /* \"#utility.yul\":2691:2694   */\n  dup2\n    /* \"#utility.yul\":2687:2701   */\n  add\n    /* \"#utility.yul\":2680:2701   */\n  swap1\n  pop\n    /* \"#utility.yul\":2636:2867   */\n  jump(tag_83)\ntag_85:\n    /* \"#utility.yul\":2640:2661   */\n  pop\n    /* \"#utility.yul\":2254:2873   */\n  pop\n  pop\n    /* \"#utility.yul\":2141:2873   */\n  swap4\n  swap3\n  pop\n  pop\n  pop\n  jump\t// out\n    /* \"#utility.yul\":2896:3281   */\ntag_42:\n    /* \"#utility.yul\":2978:2983   */\n  0x00\n    /* \"#utility.yul\":3027:3030   */\n  dup3\n    /* \"#utility.yul\":3020:3024   */\n  0x1f\n    /* \"#utility.yul\":3012:3018   */\n  dup4\n    /* \"#utility.yul\":3008:3025   */\n  add\n    /* \"#utility.yul\":3004:3031   */\n  slt\n    /* \"#utility.yul\":2994:3116   */\n  tag_88\n  jumpi\n    /* \"#utility.yul\":3035:3114   */\n  tag_89\n  tag_30\n  jump\t// in\ntag_89:\n    /* \"#utility.yul\":2994:3116   */\ntag_88:\n    /* \"#utility.yul\":3145:3151   */\n  dup2\n    /* \"#utility.yul\":3139:3152   */\n  mload\n    /* \"#utility.yul\":3170:3275   */\n  tag_90\n    /* \"#utility.yul\":3271:3274   */\n  dup5\n    /* \"#utility.yul\":3263:3269   */\n  dup3\n    /* \"#utility.yul\":3256:3260   */\n  0x20\n    /* \"#utility.yul\":3248:3254   */\n  dup7\n    /* \"#utility.yul\":3244:3261   */\n  add\n    /* \"#utility.yul\":3170:3275   */\n  tag_41\n  jump\t// in\ntag_90:\n    /* \"#utility.yul\":3161:3275   */\n  swap2\n  pop\n    /* \"#utility.yul\":2984:3281   */\n  pop\n    /* \"#utility.yul\":2896:3281   */\n  swap3\n  swap2\n  pop\n  pop\n  jump\t// out\n    /* \"#utility.yul\":3287:3364   */\ntag_43:\n    /* \"#utility.yul\":3324:3331   */\n  0x00\n    /* \"#utility.yul\":3353:3358   */\n  dup2\n    /* \"#utility.yul\":3342:3358   */\n  swap1\n  pop\n    /* \"#utility.yul\":3287:3364   */\n  swap2\n  swap1\n  pop\n  jump\t// out\n    /* \"#utility.yul\":3370:3492   */\ntag_44:\n    /* \"#utility.yul\":3443:3467   */\n  tag_93\n    /* \"#utility.yul\":3461:3466   */\n  dup2\n    /* \"#utility.yul\":3443:3467   */\n  tag_43\n  jump\t// in\ntag_93:\n    /* \"#utility.yul\":3436:3441   */\n  dup2\n    /* \"#utility.yul\":3433:3468   */\n  eq\n    /* \"#utility.yul\":3423:3486   */\n  tag_94\n  jumpi\n    /* \"#utility.yul\":3482:3483   */\n  0x00\n    /* \"#utility.yul\":3479:3480   */\n  dup1\n    /* \"#utility.yul\":3472:3484   */\n  revert\n    /* \"#utility.yul\":3423:3486   */\ntag_94:\n    /* \"#utility.yul\":3370:3492   */\n  pop\n  jump\t// out\n    /* \"#utility.yul\":3498:3641   */\ntag_45:\n    /* \"#utility.yul\":3555:3560   */\n  0x00\n    /* \"#utility.yul\":3586:3592   */\n  dup2\n    /* \"#utility.yul\":3580:3593   */\n  mload\n    /* \"#utility.yul\":3571:3593   */\n  swap1\n  pop\n    /* \"#utility.yul\":3602:3635   */\n  tag_96\n    /* \"#utility.yul\":3629:3634   */\n  dup2\n    /* \"#utility.yul\":3602:3635   */\n  tag_44\n  jump\t// in\ntag_96:\n    /* \"#utility.yul\":3498:3641   */\n  swap3\n  swap2\n  pop\n  pop\n  jump\t// out\n    /* \"#utility.yul\":3647:4357   */\ntag_3:\n    /* \"#utility.yul\":3751:3757   */\n  0x00\n    /* \"#utility.yul\":3759:3765   */\n  dup1\n    /* \"#utility.yul\":3808:3810   */\n  0x40\n    /* \"#utility.yul\":3796:3805   */\n  dup4\n    /* \"#utility.yul\":3787:3794   */\n  dup6\n    /* \"#utility.yul\":3783:3806   */\n  sub\n    /* \"#utility.yul\":3779:3811   */\n  slt\n    /* \"#utility.yul\":3776:3895   */\n  iszero\n  tag_98\n  jumpi\n    /* \"#utility.yul\":3814:3893   */\n  tag_99\n  tag_28\n  jump\t// in\ntag_99:\n    /* \"#utility.yul\":3776:3895   */\ntag_98:\n    /* \"#utility.yul\":3955:3956   */\n  0x00\n    /* \"#utility.yul\":3944:3953   */\n  dup4\n    /* \"#utility.yul\":3940:3957   */\n  add\n    /* \"#utility.yul\":3934:3958   */\n  mload\n    /* \"#utility.yul\":3985:4003   */\n  0xffffffffffffffff\n    /* \"#utility.yul\":3977:3983   */\n  dup2\n    /* \"#utility.yul\":3974:4004   */\n  gt\n    /* \"#utility.yul\":3971:4088   */\n  iszero\n  tag_100\n  jumpi\n    /* \"#utility.yul\":4007:4086   */\n  tag_101\n  tag_29\n  jump\t// in\ntag_101:\n    /* \"#utility.yul\":3971:4088   */\ntag_100:\n    /* \"#utility.yul\":4112:4201   */\n  tag_102\n    /* \"#utility.yul\":4193:4200   */\n  dup6\n    /* \"#utility.yul\":4184:4190   */\n  dup3\n    /* \"#utility.yul\":4173:4182   */\n  dup7\n    /* \"#utility.yul\":4169:4191   */\n  add\n    /* \"#utility.yul\":4112:4201   */\n  tag_42\n  jump\t// in\ntag_102:\n    /* \"#utility.yul\":4102:4201   */\n  swap3\n  pop\n    /* \"#utility.yul\":3905:4211   */\n  pop\n    /* \"#utility.yul\":4250:4252   */\n  0x20\n    /* \"#utility.yul\":4276:4340   */\n  tag_103\n    /* \"#utility.yul\":4332:4339   */\n  dup6\n    /* \"#utility.yul\":4323:4329   */\n  dup3\n    /* \"#utility.yul\":4312:4321   */\n  dup7\n    /* \"#utility.yul\":4308:4330   */\n  add\n    /* \"#utility.yul\":4276:4340   */\n  tag_45\n  jump\t// in\ntag_103:\n    /* \"#utility.yul\":4266:4340   */\n  swap2\n  pop\n    /* \"#utility.yul\":4221:4350   */\n  pop\n    /* \"#utility.yul\":3647:4357   */\n  swap3\n  pop\n  swap3\n  swap1\n  pop\n  jump\t// out\n    /* \"#utility.yul\":4363:4532   */\ntag_46:\n    /* \"#utility.yul\":4447:4458   */\n  0x00\n    /* \"#utility.yul\":4481:4487   */\n  dup3\n    /* \"#utility.yul\":4476:4479   */\n  dup3\n    /* \"#utility.yul\":4469:4488   */\n  mstore\n    /* \"#utility.yul\":4521:4525   */\n  0x20\n    /* \"#utility.yul\":4516:4519   */\n  dup3\n    /* \"#utility.yul\":4512:4526   */\n  add\n    /* \"#utility.yul\":4497:4526   */\n  swap1\n  pop\n    /* \"#utility.yul\":4363:4532   */\n  swap3\n  swap2\n  pop\n  pop\n  jump\t// out\n    /* \"#utility.yul\":4538:4706   */\ntag_47:\n    /* \"#utility.yul\":4678:4698   */\n  0x496e76616c696420706172616d65746572730000000000000000000000000000\n    /* \"#utility.yul\":4674:4675   */\n  0x00\n    /* \"#utility.yul\":4666:4672   */\n  dup3\n    /* \"#utility.yul\":4662:4676   */\n  add\n    /* \"#utility.yul\":4655:4699   */\n  mstore\n    /* \"#utility.yul\":4538:4706   */\n  pop\n  jump\t// out\n    /* \"#utility.yul\":4712:5078   */\ntag_48:\n    /* \"#utility.yul\":4854:4857   */\n  0x00\n    /* \"#utility.yul\":4875:4942   */\n  tag_107\n    /* \"#utility.yul\":4939:4941   */\n  0x12\n    /* \"#utility.yul\":4934:4937   */\n  dup4\n    /* \"#utility.yul\":4875:4942   */\n  tag_46\n  jump\t// in\ntag_107:\n    /* \"#utility.yul\":4868:4942   */\n  swap2\n  pop\n    /* \"#utility.yul\":4951:5044   */\n  tag_108\n    /* \"#utility.yul\":5040:5043   */\n  dup3\n    /* \"#utility.yul\":4951:5044   */\n  tag_47\n  jump\t// in\ntag_108:\n    /* \"#utility.yul\":5069:5071   */\n  0x20\n    /* \"#utility.yul\":5064:5067   */\n  dup3\n    /* \"#utility.yul\":5060:5072   */\n  add\n    /* \"#utility.yul\":5053:5072   */\n  swap1\n  pop\n    /* \"#utility.yul\":4712:5078   */\n  swap2\n  swap1\n  pop\n  jump\t// out\n    /* \"#utility.yul\":5084:5503   */\ntag_9:\n    /* \"#utility.yul\":5250:5254   */\n  0x00\n    /* \"#utility.yul\":5288:5290   */\n  0x20\n    /* \"#utility.yul\":5277:5286   */\n  dup3\n    /* \"#utility.yul\":5273:5291   */\n  add\n    /* \"#utility.yul\":5265:5291   */\n  swap1\n  pop\n    /* \"#utility.yul\":5337:5346   */\n  dup2\n    /* \"#utility.yul\":5331:5335   */\n  dup2\n    /* \"#utility.yul\":5327:5347   */\n  sub\n    /* \"#utility.yul\":5323:5324   */\n  0x00\n    /* \"#utility.yul\":5312:5321   */\n  dup4\n    /* \"#utility.yul\":5308:5325   */\n  add\n    /* \"#utility.yul\":5301:5348   */\n  mstore\n    /* \"#utility.yul\":5365:5496   */\n  tag_110\n    /* \"#utility.yul\":5491:5495   */\n  dup2\n    /* \"#utility.yul\":5365:5496   */\n  tag_48\n  jump\t// in\ntag_110:\n    /* \"#utility.yul\":5357:5496   */\n  swap1\n  pop\n    /* \"#utility.yul\":5084:5503   */\n  swap2\n  swap1\n  pop\n  jump\t// out\n    /* \"#utility.yul\":5509:5689   */\ntag_15:\n    /* \"#utility.yul\":5557:5634   */\n  0x4e487b7100000000000000000000000000000000000000000000000000000000\n    /* \"#utility.yul\":5554:5555   */\n  0x00\n    /* \"#utility.yul\":5547:5635   */\n  mstore\n    /* \"#utility.yul\":5654:5658   */\n  0x32\n    /* \"#utility.yul\":5651:5652   */\n  0x04\n    /* \"#utility.yul\":5644:5659   */\n  mstore\n    /* \"#utility.yul\":5678:5682   */\n  0x24\n    /* \"#utility.yul\":5675:5676   */\n  0x00\n    /* \"#utility.yul\":5668:5683   */\n  revert\n    /* \"#utility.yul\":5695:5860   */\ntag_49:\n    /* \"#utility.yul\":5835:5852   */\n  0x4475706c6963617465206f776e65720000000000000000000000000000000000\n    /* \"#utility.yul\":5831:5832   */\n  0x00\n    /* \"#utility.yul\":5823:5829   */\n  dup3\n    /* \"#utility.yul\":5819:5833   */\n  add\n    /* \"#utility.yul\":5812:5853   */\n  mstore\n    /* \"#utility.yul\":5695:5860   */\n  pop\n  jump\t// out\n    /* \"#utility.yul\":5866:6232   */\ntag_50:\n    /* \"#utility.yul\":6008:6011   */\n  0x00\n    /* \"#utility.yul\":6029:6096   */\n  tag_114\n    /* \"#utility.yul\":6093:6095   */\n  0x0f\n    /* \"#utility.yul\":6088:6091   */\n  dup4\n    /* \"#utility.yul\":6029:6096   */\n  tag_46\n  jump\t// in\ntag_114:\n    /* \"#utility.yul\":6022:6096   */\n  swap2\n  pop\n    /* \"#utility.yul\":6105:6198   */\n  tag_115\n    /* \"#utility.yul\":6194:6197   */\n  dup3\n    /* \"#utility.yul\":6105:6198   */\n  tag_49\n  jump\t// in\ntag_115:\n    /* \"#utility.yul\":6223:6225   */\n  0x20\n    /* \"#utility.yul\":6218:6221   */\n  dup3\n    /* \"#utility.yul\":6214:6226   */\n  add\n    /* \"#utility.yul\":6207:6226   */\n  swap1\n  pop\n    /* \"#utility.yul\":5866:6232   */\n  swap2\n  swap1\n  pop\n  jump\t// out\n    /* \"#utility.yul\":6238:6657   */\ntag_18:\n    /* \"#utility.yul\":6404:6408   */\n  0x00\n    /* \"#utility.yul\":6442:6444   */\n  0x20\n    /* \"#utility.yul\":6431:6440   */\n  dup3\n    /* \"#utility.yul\":6427:6445   */\n  add\n    /* \"#utility.yul\":6419:6445   */\n  swap1\n  pop\n    /* \"#utility.yul\":6491:6500   */\n  dup2\n    /* \"#utility.yul\":6485:6489   */\n  dup2\n    /* \"#utility.yul\":6481:6501   */\n  sub\n    /* \"#utility.yul\":6477:6478   */\n  0x00\n    /* \"#utility.yul\":6466:6475   */\n  dup4\n    /* \"#utility.yul\":6462:6479   */\n  add\n    /* \"#utility.yul\":6455:6502   */\n  mstore\n    /* \"#utility.yul\":6519:6650   */\n  tag_117\n    /* \"#utility.yul\":6645:6649   */\n  dup2\n    /* \"#utility.yul\":6519:6650   */\n  tag_50\n  jump\t// in\ntag_117:\n    /* \"#utility.yul\":6511:6650   */\n  swap1\n  pop\n    /* \"#utility.yul\":6238:6657   */\n  swap2\n  swap1\n  pop\n  jump\t// out\n    /* \"#utility.yul\":6663:6843   */\ntag_51:\n    /* \"#utility.yul\":6711:6788   */\n  0x4e487b7100000000000000000000000000000000000000000000000000000000\n    /* \"#utility.yul\":6708:6709   */\n  0x00\n    /* \"#utility.yul\":6701:6789   */\n  mstore\n    /* \"#utility.yul\":6808:6812   */\n  0x11\n    /* \"#utility.yul\":6805:6806   */\n  0x04\n    /* \"#utility.yul\":6798:6813   */\n  mstore\n    /* \"#utility.yul\":6832:6836   */\n  0x24\n    /* \"#utility.yul\":6829:6830   */\n  0x00\n    /* \"#utility.yul\":6822:6837   */\n  revert\n    /* \"#utility.yul\":6849:7082   */\ntag_25:\n    /* \"#utility.yul\":6888:6891   */\n  0x00\n    /* \"#utility.yul\":6911:6935   */\n  tag_120\n    /* \"#utility.yul\":6929:6934   */\n  dup3\n    /* \"#utility.yul\":6911:6935   */\n  tag_43\n  jump\t// in\ntag_120:\n    /* \"#utility.yul\":6902:6935   */\n  swap2\n  pop\n    /* \"#utility.yul\":6957:7023   */\n  0xffffffffffffffffffffffffffffffffffffffffffffffffffffffffffffffff\n    /* \"#utility.yul\":6950:6955   */\n  dup3\n    /* \"#utility.yul\":6947:7024   */\n  sub\n    /* \"#utility.yul\":6944:7047   */\n  tag_121\n  jumpi\n    /* \"#utility.yul\":7027:7045   */\n  tag_122\n  tag_51\n  jump\t// in\ntag_122:\n    /* \"#utility.yul\":6944:7047   */\ntag_121:\n    /* \"#utility.yul\":7074:7075   */\n  0x01\n    /* \"#utility.yul\":7067:7072   */\n  dup3\n    /* \"#utility.yul\":7063:7076   */\n  add\n    /* \"#utility.yul\":7056:7076   */\n  swap1\n  pop\n    /* \"#utility.yul\":6849:7082   */\n  swap2\n  swap1\n  pop\n  jump\t// out\n    /* \"contracts/14-MultiSignatureVault/multiSignatureVault.sol\":25:1798  contract MultiSigWallet {... */\ntag_26:\n  dataSize(sub_0)\n  dup1\n  dataOffset(sub_0)\n  0x00\n  codecopy\n  0x00\n  return\nstop\n\nsub_0: assembly {\n        /* \"contracts/14-MultiSignatureVault/multiSignatureVault.sol\":25:1798  contract MultiSigWallet {... */\n      mstore(0x40, 0x80)\n      callvalue\n      dup1\n      iszero\n      tag_1\n      jumpi\n      0x00\n      dup1\n      revert\n    tag_1:\n      pop\n      jumpi(tag_2, lt(calldatasize, 0x04))\n      shr(0xe0, calldataload(0x00))\n      dup1\n      0x025e7c27\n      eq\n      tag_3\n      jumpi\n      dup1\n      0x2f54bf6e\n      eq\n      tag_4\n      jumpi\n      dup1\n      0x3a49183e\n      eq\n      tag_5\n      jumpi\n      dup1\n      0x42cde4e8\n      eq\n      tag_6\n      jumpi\n      dup1\n      0xaffed0e0\n      eq\n      tag_7\n      jumpi\n    tag_2:\n      0x00\n      dup1\n      revert\n        /* \"contracts/14-MultiSignatureVault/multiSignatureVault.sol\":126:149  address[] public owners */\n    tag_3:\n      tag_8\n      0x04\n      dup1\n      calldatasize\n      sub\n      dup2\n      add\n      swap1\n      tag_9\n      swap2\n      swap1\n      tag_10\n      jump\t// in\n    tag_9:\n      tag_11\n      jump\t// in\n    tag_8:\n      mload(0x40)\n      tag_12\n      swap2\n      swap1\n      tag_13\n      jump\t// in\n    tag_12:\n      mload(0x40)\n      dup1\n      swap2\n      sub\n      swap1\n      return\n        /* \"contracts/14-MultiSignatureVault/multiSignatureVault.sol\":81:120  mapping(address => bool) public isOwner */\n    tag_4:\n      tag_14\n      0x04\n      dup1\n      calldatasize\n      sub\n      dup2\n      add\n      swap1\n      tag_15\n      swap2\n      swap1\n      tag_16\n      jump\t// in\n    tag_15:\n      tag_17\n      jump\t// in\n    tag_14:\n      mload(0x40)\n      tag_18\n      swap2\n      swap1\n      tag_19\n      jump\t// in\n    tag_18:\n      mload(0x40)\n      dup1\n      swap2\n      sub\n      swap1\n      return\n        /* \"contracts/14-MultiSignatureVault/multiSignatureVault.sol\":580:1593  function execute(address to, uint256 value, bytes memory data, uint8[] memory sigV, bytes32[] memory sigR, bytes32[] memory sigS) public {... */\n    tag_5:\n      tag_20\n      0x04\n      dup1\n      calldatasize\n      sub\n      dup2\n      add\n      swap1\n      tag_21\n      swap2\n      swap1\n      tag_22\n      jump\t// in\n    tag_21:\n      tag_23\n      jump\t// in\n    tag_20:\n      stop\n        /* \"contracts/14-MultiSignatureVault/multiSignatureVault.sol\":155:179  uint256 public threshold */\n    tag_6:\n      tag_24\n      tag_25\n      jump\t// in\n    tag_24:\n      mload(0x40)\n      tag_26\n      swap2\n      swap1\n      tag_27\n      jump\t// in\n    tag_26:\n      mload(0x40)\n      dup1\n      swap2\n      sub\n      swap1\n      return\n        /* \"contracts/14-MultiSignatureVault/multiSignatureVault.sol\":55:75  uint256 public nonce */\n    tag_7:\n      tag_28\n      tag_29\n      jump\t// in\n    tag_28:\n      mload(0x40)\n      tag_30\n      swap2\n      swap1\n      tag_27\n      jump\t// in\n    tag_30:\n      mload(0x40)\n      dup1\n      swap2\n      sub\n      swap1\n      return\n        /* \"contracts/14-MultiSignatureVault/multiSignatureVault.sol\":126:149  address[] public owners */\n    tag_11:\n      0x02\n      dup2\n      dup2\n      sload\n      dup2\n      lt\n      tag_31\n      jumpi\n      0x00\n      dup1\n      revert\n    tag_31:\n      swap1\n      0x00\n      mstore\n      keccak256(0x00, 0x20)\n      add\n      0x00\n      swap2\n      pop\n      sload\n      swap1\n      0x0100\n      exp\n      swap1\n      div\n      0xffffffffffffffffffffffffffffffffffffffff\n      and\n      dup2\n      jump\t// out\n        /* \"contracts/14-MultiSignatureVault/multiSignatureVault.sol\":81:120  mapping(address => bool) public isOwner */\n    tag_17:\n      mstore(0x20, 0x01)\n      dup1\n      0x00\n      mstore\n      keccak256(0x00, 0x40)\n      0x00\n      swap2\n      pop\n      sload\n      swap1\n      0x0100\n      exp\n      swap1\n      div\n      0xff\n      and\n      dup2\n      jump\t// out\n        /* \"contracts/14-MultiSignatureVault/multiSignatureVault.sol\":580:1593  function execute(address to, uint256 value, bytes memory data, uint8[] memory sigV, bytes32[] memory sigR, bytes32[] memory sigS) public {... */\n    tag_23:\n        /* \"contracts/14-MultiSignatureVault/multiSignatureVault.sol\":750:759  threshold */\n      sload(0x03)\n        /* \"contracts/14-MultiSignatureVault/multiSignatureVault.sol\":735:739  sigR */\n      dup3\n        /* \"contracts/14-MultiSignatureVault/multiSignatureVault.sol\":735:746  sigR.length */\n      mload\n        /* \"contracts/14-MultiSignatureVault/multiSignatureVault.sol\":735:759  sigR.length >= threshold */\n      lt\n      iszero\n        /* \"contracts/14-MultiSignatureVault/multiSignatureVault.sol\":727:794  require(sigR.length >= threshold, \"Not enough signatures provided\") */\n      tag_34\n      jumpi\n      mload(0x40)\n      0x08c379a000000000000000000000000000000000000000000000000000000000\n      dup2\n      mstore\n      0x04\n      add\n      tag_35\n      swap1\n      tag_36\n      jump\t// in\n    tag_35:\n      mload(0x40)\n      dup1\n      swap2\n      sub\n      swap1\n      revert\n    tag_34:\n        /* \"contracts/14-MultiSignatureVault/multiSignatureVault.sol\":805:819  bytes32 txHash */\n      0x00\n        /* \"contracts/14-MultiSignatureVault/multiSignatureVault.sol\":822:864  getTransactionHash(to, value, data, nonce) */\n      tag_37\n        /* \"contracts/14-MultiSignatureVault/multiSignatureVault.sol\":841:843  to */\n      dup8\n        /* \"contracts/14-MultiSignatureVault/multiSignatureVault.sol\":845:850  value */\n      dup8\n        /* \"contracts/14-MultiSignatureVault/multiSignatureVault.sol\":852:856  data */\n      dup8\n        /* \"contracts/14-MultiSignatureVault/multiSignatureVault.sol\":858:863  nonce */\n      sload(0x00)\n        /* \"contracts/14-MultiSignatureVault/multiSignatureVault.sol\":822:840  getTransactionHash */\n      tag_38\n        /* \"contracts/14-MultiSignatureVault/multiSignatureVault.sol\":822:864  getTransactionHash(to, value, data, nonce) */\n      jump\t// in\n    tag_37:\n        /* \"contracts/14-MultiSignatureVault/multiSignatureVault.sol\":805:864  bytes32 txHash = getTransactionHash(to, value, data, nonce) */\n      swap1\n      pop\n        /* \"contracts/14-MultiSignatureVault/multiSignatureVault.sol\":874:892  address lastSigner */\n      0x00\n        /* \"contracts/14-MultiSignatureVault/multiSignatureVault.sol\":915:938  uint256 validSignatures */\n      dup1\n        /* \"contracts/14-MultiSignatureVault/multiSignatureVault.sol\":958:967  uint256 i */\n      0x00\n        /* \"contracts/14-MultiSignatureVault/multiSignatureVault.sol\":953:1379  for (uint256 i = 0; i < sigR.length; i++) {... */\n    tag_39:\n        /* \"contracts/14-MultiSignatureVault/multiSignatureVault.sol\":977:981  sigR */\n      dup6\n        /* \"contracts/14-MultiSignatureVault/multiSignatureVault.sol\":977:988  sigR.length */\n      mload\n        /* \"contracts/14-MultiSignatureVault/multiSignatureVault.sol\":973:974  i */\n      dup2\n        /* \"contracts/14-MultiSignatureVault/multiSignatureVault.sol\":973:988  i < sigR.length */\n      lt\n        /* \"contracts/14-MultiSignatureVault/multiSignatureVault.sol\":953:1379  for (uint256 i = 0; i < sigR.length; i++) {... */\n      iszero\n      tag_40\n      jumpi\n        /* \"contracts/14-MultiSignatureVault/multiSignatureVault.sol\":1009:1023  address signer */\n      0x00\n        /* \"contracts/14-MultiSignatureVault/multiSignatureVault.sol\":1026:1070  ecrecover(txHash, sigV[i], sigR[i], sigS[i]) */\n      0x01\n        /* \"contracts/14-MultiSignatureVault/multiSignatureVault.sol\":1036:1042  txHash */\n      dup6\n        /* \"contracts/14-MultiSignatureVault/multiSignatureVault.sol\":1044:1048  sigV */\n      dup10\n        /* \"contracts/14-MultiSignatureVault/multiSignatureVault.sol\":1049:1050  i */\n      dup5\n        /* \"contracts/14-MultiSignatureVault/multiSignatureVault.sol\":1044:1051  sigV[i] */\n      dup2\n      mload\n      dup2\n      lt\n      tag_42\n      jumpi\n      tag_43\n      tag_44\n      jump\t// in\n    tag_43:\n    tag_42:\n      0x20\n      mul\n      0x20\n      add\n      add\n      mload\n        /* \"contracts/14-MultiSignatureVault/multiSignatureVault.sol\":1053:1057  sigR */\n      dup10\n        /* \"contracts/14-MultiSignatureVault/multiSignatureVault.sol\":1058:1059  i */\n      dup6\n        /* \"contracts/14-MultiSignatureVault/multiSignatureVault.sol\":1053:1060  sigR[i] */\n      dup2\n      mload\n      dup2\n      lt\n      tag_45\n      jumpi\n      tag_46\n      tag_44\n      jump\t// in\n    tag_46:\n    tag_45:\n      0x20\n      mul\n      0x20\n      add\n      add\n      mload\n        /* \"contracts/14-MultiSignatureVault/multiSignatureVault.sol\":1062:1066  sigS */\n      dup10\n        /* \"contracts/14-MultiSignatureVault/multiSignatureVault.sol\":1067:1068  i */\n      dup7\n        /* \"contracts/14-MultiSignatureVault/multiSignatureVault.sol\":1062:1069  sigS[i] */\n      dup2\n      mload\n      dup2\n      lt\n      tag_47\n      jumpi\n      tag_48\n      tag_44\n      jump\t// in\n    tag_48:\n    tag_47:\n      0x20\n      mul\n      0x20\n      add\n      add\n      mload\n        /* \"contracts/14-MultiSignatureVault/multiSignatureVault.sol\":1026:1070  ecrecover(txHash, sigV[i], sigR[i], sigS[i]) */\n      mload(0x40)\n      0x00\n      dup2\n      mstore\n      0x20\n      add\n      0x40\n      mstore\n      mload(0x40)\n      tag_49\n      swap5\n      swap4\n      swap3\n      swap2\n      swap1\n      tag_50\n      jump\t// in\n    tag_49:\n      0x20\n      mload(0x40)\n      0x20\n      dup2\n      sub\n      swap1\n      dup1\n      dup5\n      sub\n      swap1\n      dup6\n      gas\n      staticcall\n      iszero\n      dup1\n      iszero\n      tag_52\n      jumpi\n      returndatasize\n      0x00\n      dup1\n      returndatacopy\n      revert(0x00, returndatasize)\n    tag_52:\n      pop\n      pop\n      pop\n      mload(sub(mload(0x40), 0x20))\n        /* \"contracts/14-MultiSignatureVault/multiSignatureVault.sol\":1009:1070  address signer = ecrecover(txHash, sigV[i], sigR[i], sigS[i]) */\n      swap1\n      pop\n        /* \"contracts/14-MultiSignatureVault/multiSignatureVault.sol\":1092:1099  isOwner */\n      0x01\n        /* \"contracts/14-MultiSignatureVault/multiSignatureVault.sol\":1092:1107  isOwner[signer] */\n      0x00\n        /* \"contracts/14-MultiSignatureVault/multiSignatureVault.sol\":1100:1106  signer */\n      dup3\n        /* \"contracts/14-MultiSignatureVault/multiSignatureVault.sol\":1092:1107  isOwner[signer] */\n      0xffffffffffffffffffffffffffffffffffffffff\n      and\n      0xffffffffffffffffffffffffffffffffffffffff\n      and\n      dup2\n      mstore\n      0x20\n      add\n      swap1\n      dup2\n      mstore\n      0x20\n      add\n      0x00\n      keccak256\n      0x00\n      swap1\n      sload\n      swap1\n      0x0100\n      exp\n      swap1\n      div\n      0xff\n      and\n        /* \"contracts/14-MultiSignatureVault/multiSignatureVault.sol\":1084:1126  require(isOwner[signer], \"Invalid signer\") */\n      tag_53\n      jumpi\n      mload(0x40)\n      0x08c379a000000000000000000000000000000000000000000000000000000000\n      dup2\n      mstore\n      0x04\n      add\n      tag_54\n      swap1\n      tag_55\n      jump\t// in\n    tag_54:\n      mload(0x40)\n      dup1\n      swap2\n      sub\n      swap1\n      revert\n    tag_53:\n        /* \"contracts/14-MultiSignatureVault/multiSignatureVault.sol\":1158:1168  lastSigner */\n      dup4\n        /* \"contracts/14-MultiSignatureVault/multiSignatureVault.sol\":1149:1168  signer > lastSigner */\n      0xffffffffffffffffffffffffffffffffffffffff\n      and\n        /* \"contracts/14-MultiSignatureVault/multiSignatureVault.sol\":1149:1155  signer */\n      dup2\n        /* \"contracts/14-MultiSignatureVault/multiSignatureVault.sol\":1149:1168  signer > lastSigner */\n      0xffffffffffffffffffffffffffffffffffffffff\n      and\n      gt\n        /* \"contracts/14-MultiSignatureVault/multiSignatureVault.sol\":1141:1218  require(signer > lastSigner, \"Signers must be unique and in ascending order\") */\n      tag_56\n      jumpi\n      mload(0x40)\n      0x08c379a000000000000000000000000000000000000000000000000000000000\n      dup2\n      mstore\n      0x04\n      add\n      tag_57\n      swap1\n      tag_58\n      jump\t// in\n    tag_57:\n      mload(0x40)\n      dup1\n      swap2\n      sub\n      swap1\n      revert\n    tag_56:\n        /* \"contracts/14-MultiSignatureVault/multiSignatureVault.sol\":1245:1251  signer */\n      dup1\n        /* \"contracts/14-MultiSignatureVault/multiSignatureVault.sol\":1232:1251  lastSigner = signer */\n      swap4\n      pop\n        /* \"contracts/14-MultiSignatureVault/multiSignatureVault.sol\":1266:1283  validSignatures++ */\n      dup3\n      dup1\n      tag_59\n      swap1\n      tag_60\n      jump\t// in\n    tag_59:\n      swap4\n      pop\n      pop\n        /* \"contracts/14-MultiSignatureVault/multiSignatureVault.sol\":1320:1329  threshold */\n      sload(0x03)\n        /* \"contracts/14-MultiSignatureVault/multiSignatureVault.sol\":1301:1316  validSignatures */\n      dup4\n        /* \"contracts/14-MultiSignatureVault/multiSignatureVault.sol\":1301:1329  validSignatures == threshold */\n      sub\n        /* \"contracts/14-MultiSignatureVault/multiSignatureVault.sol\":1297:1369  if (validSignatures == threshold) {... */\n      tag_61\n      jumpi\n        /* \"contracts/14-MultiSignatureVault/multiSignatureVault.sol\":1349:1354  break */\n      pop\n      jump(tag_40)\n        /* \"contracts/14-MultiSignatureVault/multiSignatureVault.sol\":1297:1369  if (validSignatures == threshold) {... */\n    tag_61:\n        /* \"contracts/14-MultiSignatureVault/multiSignatureVault.sol\":995:1379  {... */\n      pop\n        /* \"contracts/14-MultiSignatureVault/multiSignatureVault.sol\":990:993  i++ */\n      dup1\n      dup1\n      tag_62\n      swap1\n      tag_60\n      jump\t// in\n    tag_62:\n      swap2\n      pop\n      pop\n        /* \"contracts/14-MultiSignatureVault/multiSignatureVault.sol\":953:1379  for (uint256 i = 0; i < sigR.length; i++) {... */\n      jump(tag_39)\n    tag_40:\n      pop\n        /* \"contracts/14-MultiSignatureVault/multiSignatureVault.sol\":1416:1425  threshold */\n      sload(0x03)\n        /* \"contracts/14-MultiSignatureVault/multiSignatureVault.sol\":1397:1412  validSignatures */\n      dup2\n        /* \"contracts/14-MultiSignatureVault/multiSignatureVault.sol\":1397:1425  validSignatures == threshold */\n      eq\n        /* \"contracts/14-MultiSignatureVault/multiSignatureVault.sol\":1389:1466  require(validSignatures == threshold, \"Not enough valid signatures provided\") */\n      tag_63\n      jumpi\n      mload(0x40)\n      0x08c379a000000000000000000000000000000000000000000000000000000000\n      dup2\n      mstore\n      0x04\n      add\n      tag_64\n      swap1\n      tag_65\n      jump\t// in\n    tag_64:\n      mload(0x40)\n      dup1\n      swap2\n      sub\n      swap1\n      revert\n    tag_63:\n        /* \"contracts/14-MultiSignatureVault/multiSignatureVault.sol\":1477:1482  nonce */\n      0x00\n      dup1\n        /* \"contracts/14-MultiSignatureVault/multiSignatureVault.sol\":1477:1484  nonce++ */\n      dup2\n      sload\n      dup1\n      swap3\n      swap2\n      swap1\n      tag_66\n      swap1\n      tag_60\n      jump\t// in\n    tag_66:\n      swap2\n      swap1\n      pop\n      sstore\n      pop\n        /* \"contracts/14-MultiSignatureVault/multiSignatureVault.sol\":1495:1507  bool success */\n      0x00\n        /* \"contracts/14-MultiSignatureVault/multiSignatureVault.sol\":1513:1515  to */\n      dup10\n        /* \"contracts/14-MultiSignatureVault/multiSignatureVault.sol\":1513:1520  to.call */\n      0xffffffffffffffffffffffffffffffffffffffff\n      and\n        /* \"contracts/14-MultiSignatureVault/multiSignatureVault.sol\":1528:1533  value */\n      dup10\n        /* \"contracts/14-MultiSignatureVault/multiSignatureVault.sol\":1535:1539  data */\n      dup10\n        /* \"contracts/14-MultiSignatureVault/multiSignatureVault.sol\":1513:1540  to.call{value: value}(data) */\n      mload(0x40)\n      tag_67\n      swap2\n      swap1\n      tag_68\n      jump\t// in\n    tag_67:\n      0x00\n      mload(0x40)\n      dup1\n      dup4\n      sub\n      dup2\n      dup6\n      dup8\n      gas\n      call\n      swap3\n      pop\n      pop\n      pop\n      returndatasize\n      dup1\n      0x00\n      dup2\n      eq\n      tag_71\n      jumpi\n      mload(0x40)\n      swap2\n      pop\n      and(add(returndatasize, 0x3f), not(0x1f))\n      dup3\n      add\n      0x40\n      mstore\n      returndatasize\n      dup3\n      mstore\n      returndatasize\n      0x00\n      0x20\n      dup5\n      add\n      returndatacopy\n      jump(tag_70)\n    tag_71:\n      0x60\n      swap2\n      pop\n    tag_70:\n      pop\n        /* \"contracts/14-MultiSignatureVault/multiSignatureVault.sol\":1494:1540  (bool success, ) = to.call{value: value}(data) */\n      pop\n      swap1\n      pop\n        /* \"contracts/14-MultiSignatureVault/multiSignatureVault.sol\":1558:1565  success */\n      dup1\n        /* \"contracts/14-MultiSignatureVault/multiSignatureVault.sol\":1550:1586  require(success, \"Execution failed\") */\n      tag_72\n      jumpi\n      mload(0x40)\n      0x08c379a000000000000000000000000000000000000000000000000000000000\n      dup2\n      mstore\n      0x04\n      add\n      tag_73\n      swap1\n      tag_74\n      jump\t// in\n    tag_73:\n      mload(0x40)\n      dup1\n      swap2\n      sub\n      swap1\n      revert\n    tag_72:\n        /* \"contracts/14-MultiSignatureVault/multiSignatureVault.sol\":717:1593  {... */\n      pop\n      pop\n      pop\n      pop\n        /* \"contracts/14-MultiSignatureVault/multiSignatureVault.sol\":580:1593  function execute(address to, uint256 value, bytes memory data, uint8[] memory sigV, bytes32[] memory sigR, bytes32[] memory sigS) public {... */\n      pop\n      pop\n      pop\n      pop\n      pop\n      pop\n      jump\t// out\n        /* \"contracts/14-MultiSignatureVault/multiSignatureVault.sol\":155:179  uint256 public threshold */\n    tag_25:\n      sload(0x03)\n      dup2\n      jump\t// out\n        /* \"contracts/14-MultiSignatureVault/multiSignatureVault.sol\":55:75  uint256 public nonce */\n    tag_29:\n      sload(0x00)\n      dup2\n      jump\t// out\n        /* \"contracts/14-MultiSignatureVault/multiSignatureVault.sol\":1601:1796  function getTransactionHash(address to, uint256 value, bytes memory data, uint256 nonce) private pure returns (bytes32) {... */\n    tag_38:\n        /* \"contracts/14-MultiSignatureVault/multiSignatureVault.sol\":1712:1719  bytes32 */\n      0x00\n        /* \"contracts/14-MultiSignatureVault/multiSignatureVault.sol\":1765:1767  to */\n      dup5\n        /* \"contracts/14-MultiSignatureVault/multiSignatureVault.sol\":1769:1774  value */\n      dup5\n        /* \"contracts/14-MultiSignatureVault/multiSignatureVault.sol\":1776:1780  data */\n      dup5\n        /* \"contracts/14-MultiSignatureVault/multiSignatureVault.sol\":1782:1787  nonce */\n      dup5\n        /* \"contracts/14-MultiSignatureVault/multiSignatureVault.sol\":1748:1788  abi.encodePacked(to, value, data, nonce) */\n      add(0x20, mload(0x40))\n      tag_76\n      swap5\n      swap4\n      swap3\n      swap2\n      swap1\n      tag_77\n      jump\t// in\n    tag_76:\n      mload(0x40)\n      0x20\n      dup2\n      dup4\n      sub\n      sub\n      dup2\n      mstore\n      swap1\n      0x40\n      mstore\n        /* \"contracts/14-MultiSignatureVault/multiSignatureVault.sol\":1738:1789  keccak256(abi.encodePacked(to, value, data, nonce)) */\n      dup1\n      mload\n      swap1\n      0x20\n      add\n      keccak256\n        /* \"contracts/14-MultiSignatureVault/multiSignatureVault.sol\":1731:1789  return keccak256(abi.encodePacked(to, value, data, nonce)) */\n      swap1\n      pop\n        /* \"contracts/14-MultiSignatureVault/multiSignatureVault.sol\":1601:1796  function getTransactionHash(address to, uint256 value, bytes memory data, uint256 nonce) private pure returns (bytes32) {... */\n      swap5\n      swap4\n      pop\n      pop\n      pop\n      pop\n      jump\t// out\n        /* \"#utility.yul\":7:82   */\n    tag_78:\n        /* \"#utility.yul\":40:46   */\n      0x00\n        /* \"#utility.yul\":73:75   */\n      0x40\n        /* \"#utility.yul\":67:76   */\n      mload\n        /* \"#utility.yul\":57:76   */\n      swap1\n      pop\n        /* \"#utility.yul\":7:82   */\n      swap1\n      jump\t// out\n        /* \"#utility.yul\":88:205   */\n    tag_79:\n        /* \"#utility.yul\":197:198   */\n      0x00\n        /* \"#utility.yul\":194:195   */\n      dup1\n        /* \"#utility.yul\":187:199   */\n      revert\n        /* \"#utility.yul\":211:328   */\n    tag_80:\n        /* \"#utility.yul\":320:321   */\n      0x00\n        /* \"#utility.yul\":317:318   */\n      dup1\n        /* \"#utility.yul\":310:322   */\n      revert\n        /* \"#utility.yul\":334:411   */\n    tag_81:\n        /* \"#utility.yul\":371:378   */\n      0x00\n        /* \"#utility.yul\":400:405   */\n      dup2\n        /* \"#utility.yul\":389:405   */\n      swap1\n      pop\n        /* \"#utility.yul\":334:411   */\n      swap2\n      swap1\n      pop\n      jump\t// out\n        /* \"#utility.yul\":417:539   */\n    tag_82:\n        /* \"#utility.yul\":490:514   */\n      tag_145\n        /* \"#utility.yul\":508:513   */\n      dup2\n        /* \"#utility.yul\":490:514   */\n      tag_81\n      jump\t// in\n    tag_145:\n        /* \"#utility.yul\":483:488   */\n      dup2\n        /* \"#utility.yul\":480:515   */\n      eq\n        /* \"#utility.yul\":470:533   */\n      tag_146\n      jumpi\n        /* \"#utility.yul\":529:530   */\n      0x00\n        /* \"#utility.yul\":526:527   */\n      dup1\n        /* \"#utility.yul\":519:531   */\n      revert\n        /* \"#utility.yul\":470:533   */\n    tag_146:\n        /* \"#utility.yul\":417:539   */\n      pop\n      jump\t// out\n        /* \"#utility.yul\":545:684   */\n    tag_83:\n        /* \"#utility.yul\":591:596   */\n      0x00\n        /* \"#utility.yul\":629:635   */\n      dup2\n        /* \"#utility.yul\":616:636   */\n      calldataload\n        /* \"#utility.yul\":607:636   */\n      swap1\n      pop\n        /* \"#utility.yul\":645:678   */\n      tag_148\n        /* \"#utility.yul\":672:677   */\n      dup2\n        /* \"#utility.yul\":645:678   */\n      tag_82\n      jump\t// in\n    tag_148:\n        /* \"#utility.yul\":545:684   */\n      swap3\n      swap2\n      pop\n      pop\n      jump\t// out\n        /* \"#utility.yul\":690:1019   */\n    tag_10:\n        /* \"#utility.yul\":749:755   */\n      0x00\n        /* \"#utility.yul\":798:800   */\n      0x20\n        /* \"#utility.yul\":786:795   */\n      dup3\n        /* \"#utility.yul\":777:784   */\n      dup5\n        /* \"#utility.yul\":773:796   */\n      sub\n        /* \"#utility.yul\":769:801   */\n      slt\n        /* \"#utility.yul\":766:885   */\n      iszero\n      tag_150\n      jumpi\n        /* \"#utility.yul\":804:883   */\n      tag_151\n      tag_79\n      jump\t// in\n    tag_151:\n        /* \"#utility.yul\":766:885   */\n    tag_150:\n        /* \"#utility.yul\":924:925   */\n      0x00\n        /* \"#utility.yul\":949:1002   */\n      tag_152\n        /* \"#utility.yul\":994:1001   */\n      dup5\n        /* \"#utility.yul\":985:991   */\n      dup3\n        /* \"#utility.yul\":974:983   */\n      dup6\n        /* \"#utility.yul\":970:992   */\n      add\n        /* \"#utility.yul\":949:1002   */\n      tag_83\n      jump\t// in\n    tag_152:\n        /* \"#utility.yul\":939:1002   */\n      swap2\n      pop\n        /* \"#utility.yul\":895:1012   */\n      pop\n        /* \"#utility.yul\":690:1019   */\n      swap3\n      swap2\n      pop\n      pop\n      jump\t// out\n        /* \"#utility.yul\":1025:1151   */\n    tag_84:\n        /* \"#utility.yul\":1062:1069   */\n      0x00\n        /* \"#utility.yul\":1102:1144   */\n      0xffffffffffffffffffffffffffffffffffffffff\n        /* \"#utility.yul\":1095:1100   */\n      dup3\n        /* \"#utility.yul\":1091:1145   */\n      and\n        /* \"#utility.yul\":1080:1145   */\n      swap1\n      pop\n        /* \"#utility.yul\":1025:1151   */\n      swap2\n      swap1\n      pop\n      jump\t// out\n        /* \"#utility.yul\":1157:1253   */\n    tag_85:\n        /* \"#utility.yul\":1194:1201   */\n      0x00\n        /* \"#utility.yul\":1223:1247   */\n      tag_155\n        /* \"#utility.yul\":1241:1246   */\n      dup3\n        /* \"#utility.yul\":1223:1247   */\n      tag_84\n      jump\t// in\n    tag_155:\n        /* \"#utility.yul\":1212:1247   */\n      swap1\n      pop\n        /* \"#utility.yul\":1157:1253   */\n      swap2\n      swap1\n      pop\n      jump\t// out\n        /* \"#utility.yul\":1259:1377   */\n    tag_86:\n        /* \"#utility.yul\":1346:1370   */\n      tag_157\n        /* \"#utility.yul\":1364:1369   */\n      dup2\n        /* \"#utility.yul\":1346:1370   */\n      tag_85\n      jump\t// in\n    tag_157:\n        /* \"#utility.yul\":1341:1344   */\n      dup3\n        /* \"#utility.yul\":1334:1371   */\n      mstore\n        /* \"#utility.yul\":1259:1377   */\n      pop\n      pop\n      jump\t// out\n        /* \"#utility.yul\":1383:1605   */\n    tag_13:\n        /* \"#utility.yul\":1476:1480   */\n      0x00\n        /* \"#utility.yul\":1514:1516   */\n      0x20\n        /* \"#utility.yul\":1503:1512   */\n      dup3\n        /* \"#utility.yul\":1499:1517   */\n      add\n        /* \"#utility.yul\":1491:1517   */\n      swap1\n      pop\n        /* \"#utility.yul\":1527:1598   */\n      tag_159\n        /* \"#utility.yul\":1595:1596   */\n      0x00\n        /* \"#utility.yul\":1584:1593   */\n      dup4\n        /* \"#utility.yul\":1580:1597   */\n      add\n        /* \"#utility.yul\":1571:1577   */\n      dup5\n        /* \"#utility.yul\":1527:1598   */\n      tag_86\n      jump\t// in\n    tag_159:\n        /* \"#utility.yul\":1383:1605   */\n      swap3\n      swap2\n      pop\n      pop\n      jump\t// out\n        /* \"#utility.yul\":1611:1733   */\n    tag_87:\n        /* \"#utility.yul\":1684:1708   */\n      tag_161\n        /* \"#utility.yul\":1702:1707   */\n      dup2\n        /* \"#utility.yul\":1684:1708   */\n      tag_85\n      jump\t// in\n    tag_161:\n        /* \"#utility.yul\":1677:1682   */\n      dup2\n        /* \"#utility.yul\":1674:1709   */\n      eq\n        /* \"#utility.yul\":1664:1727   */\n      tag_162\n      jumpi\n        /* \"#utility.yul\":1723:1724   */\n      0x00\n        /* \"#utility.yul\":1720:1721   */\n      dup1\n        /* \"#utility.yul\":1713:1725   */\n      revert\n        /* \"#utility.yul\":1664:1727   */\n    tag_162:\n        /* \"#utility.yul\":1611:1733   */\n      pop\n      jump\t// out\n        /* \"#utility.yul\":1739:1878   */\n    tag_88:\n        /* \"#utility.yul\":1785:1790   */\n      0x00\n        /* \"#utility.yul\":1823:1829   */\n      dup2\n        /* \"#utility.yul\":1810:1830   */\n      calldataload\n        /* \"#utility.yul\":1801:1830   */\n      swap1\n      pop\n        /* \"#utility.yul\":1839:1872   */\n      tag_164\n        /* \"#utility.yul\":1866:1871   */\n      dup2\n        /* \"#utility.yul\":1839:1872   */\n      tag_87\n      jump\t// in\n    tag_164:\n        /* \"#utility.yul\":1739:1878   */\n      swap3\n      swap2\n      pop\n      pop\n      jump\t// out\n        /* \"#utility.yul\":1884:2213   */\n    tag_16:\n        /* \"#utility.yul\":1943:1949   */\n      0x00\n        /* \"#utility.yul\":1992:1994   */\n      0x20\n        /* \"#utility.yul\":1980:1989   */\n      dup3\n        /* \"#utility.yul\":1971:1978   */\n      dup5\n        /* \"#utility.yul\":1967:1990   */\n      sub\n        /* \"#utility.yul\":1963:1995   */\n      slt\n        /* \"#utility.yul\":1960:2079   */\n      iszero\n      tag_166\n      jumpi\n        /* \"#utility.yul\":1998:2077   */\n      tag_167\n      tag_79\n      jump\t// in\n    tag_167:\n        /* \"#utility.yul\":1960:2079   */\n    tag_166:\n        /* \"#utility.yul\":2118:2119   */\n      0x00\n        /* \"#utility.yul\":2143:2196   */\n      tag_168\n        /* \"#utility.yul\":2188:2195   */\n      dup5\n        /* \"#utility.yul\":2179:2185   */\n      dup3\n        /* \"#utility.yul\":2168:2177   */\n      dup6\n        /* \"#utility.yul\":2164:2186   */\n      add\n        /* \"#utility.yul\":2143:2196   */\n      tag_88\n      jump\t// in\n    tag_168:\n        /* \"#utility.yul\":2133:2196   */\n      swap2\n      pop\n        /* \"#utility.yul\":2089:2206   */\n      pop\n        /* \"#utility.yul\":1884:2213   */\n      swap3\n      swap2\n      pop\n      pop\n      jump\t// out\n        /* \"#utility.yul\":2219:2309   */\n    tag_89:\n        /* \"#utility.yul\":2253:2260   */\n      0x00\n        /* \"#utility.yul\":2296:2301   */\n      dup2\n        /* \"#utility.yul\":2289:2302   */\n      iszero\n        /* \"#utility.yul\":2282:2303   */\n      iszero\n        /* \"#utility.yul\":2271:2303   */\n      swap1\n      pop\n        /* \"#utility.yul\":2219:2309   */\n      swap2\n      swap1\n      pop\n      jump\t// out\n        /* \"#utility.yul\":2315:2424   */\n    tag_90:\n        /* \"#utility.yul\":2396:2417   */\n      tag_171\n        /* \"#utility.yul\":2411:2416   */\n      dup2\n        /* \"#utility.yul\":2396:2417   */\n      tag_89\n      jump\t// in\n    tag_171:\n        /* \"#utility.yul\":2391:2394   */\n      dup3\n        /* \"#utility.yul\":2384:2418   */\n      mstore\n        /* \"#utility.yul\":2315:2424   */\n      pop\n      pop\n      jump\t// out\n        /* \"#utility.yul\":2430:2640   */\n    tag_19:\n        /* \"#utility.yul\":2517:2521   */\n      0x00\n        /* \"#utility.yul\":2555:2557   */\n      0x20\n        /* \"#utility.yul\":2544:2553   */\n      dup3\n        /* \"#utility.yul\":2540:2558   */\n      add\n        /* \"#utility.yul\":2532:2558   */\n      swap1\n      pop\n        /* \"#utility.yul\":2568:2633   */\n      tag_173\n        /* \"#utility.yul\":2630:2631   */\n      0x00\n        /* \"#utility.yul\":2619:2628   */\n      dup4\n        /* \"#utility.yul\":2615:2632   */\n      add\n        /* \"#utility.yul\":2606:2612   */\n      dup5\n        /* \"#utility.yul\":2568:2633   */\n      tag_90\n      jump\t// in\n    tag_173:\n        /* \"#utility.yul\":2430:2640   */\n      swap3\n      swap2\n      pop\n      pop\n      jump\t// out\n        /* \"#utility.yul\":2646:2763   */\n    tag_91:\n        /* \"#utility.yul\":2755:2756   */\n      0x00\n        /* \"#utility.yul\":2752:2753   */\n      dup1\n        /* \"#utility.yul\":2745:2757   */\n      revert\n        /* \"#utility.yul\":2769:2886   */\n    tag_92:\n        /* \"#utility.yul\":2878:2879   */\n      0x00\n        /* \"#utility.yul\":2875:2876   */\n      dup1\n        /* \"#utility.yul\":2868:2880   */\n      revert\n        /* \"#utility.yul\":2892:2994   */\n    tag_93:\n        /* \"#utility.yul\":2933:2939   */\n      0x00\n        /* \"#utility.yul\":2984:2986   */\n      0x1f\n        /* \"#utility.yul\":2980:2987   */\n      not\n        /* \"#utility.yul\":2975:2977   */\n      0x1f\n        /* \"#utility.yul\":2968:2973   */\n      dup4\n        /* \"#utility.yul\":2964:2978   */\n      add\n        /* \"#utility.yul\":2960:2988   */\n      and\n        /* \"#utility.yul\":2950:2988   */\n      swap1\n      pop\n        /* \"#utility.yul\":2892:2994   */\n      swap2\n      swap1\n      pop\n      jump\t// out\n        /* \"#utility.yul\":3000:3180   */\n    tag_94:\n        /* \"#utility.yul\":3048:3125   */\n      0x4e487b7100000000000000000000000000000000000000000000000000000000\n        /* \"#utility.yul\":3045:3046   */\n      0x00\n        /* \"#utility.yul\":3038:3126   */\n      mstore\n        /* \"#utility.yul\":3145:3149   */\n      0x41\n        /* \"#utility.yul\":3142:3143   */\n      0x04\n        /* \"#utility.yul\":3135:3150   */\n      mstore\n        /* \"#utility.yul\":3169:3173   */\n      0x24\n        /* \"#utility.yul\":3166:3167   */\n      0x00\n        /* \"#utility.yul\":3159:3174   */\n      revert\n        /* \"#utility.yul\":3186:3467   */\n    tag_95:\n        /* \"#utility.yul\":3269:3296   */\n      tag_179\n        /* \"#utility.yul\":3291:3295   */\n      dup3\n        /* \"#utility.yul\":3269:3296   */\n      tag_93\n      jump\t// in\n    tag_179:\n        /* \"#utility.yul\":3261:3267   */\n      dup2\n        /* \"#utility.yul\":3257:3297   */\n      add\n        /* \"#utility.yul\":3399:3405   */\n      dup2\n        /* \"#utility.yul\":3387:3397   */\n      dup2\n        /* \"#utility.yul\":3384:3406   */\n      lt\n        /* \"#utility.yul\":3363:3381   */\n      0xffffffffffffffff\n        /* \"#utility.yul\":3351:3361   */\n      dup3\n        /* \"#utility.yul\":3348:3382   */\n      gt\n        /* \"#utility.yul\":3345:3407   */\n      or\n        /* \"#utility.yul\":3342:3430   */\n      iszero\n      tag_180\n      jumpi\n        /* \"#utility.yul\":3410:3428   */\n      tag_181\n      tag_94\n      jump\t// in\n    tag_181:\n        /* \"#utility.yul\":3342:3430   */\n    tag_180:\n        /* \"#utility.yul\":3450:3460   */\n      dup1\n        /* \"#utility.yul\":3446:3448   */\n      0x40\n        /* \"#utility.yul\":3439:3461   */\n      mstore\n        /* \"#utility.yul\":3229:3467   */\n      pop\n        /* \"#utility.yul\":3186:3467   */\n      pop\n      pop\n      jump\t// out\n        /* \"#utility.yul\":3473:3602   */\n    tag_96:\n        /* \"#utility.yul\":3507:3513   */\n      0x00\n        /* \"#utility.yul\":3534:3554   */\n      tag_183\n      tag_78\n      jump\t// in\n    tag_183:\n        /* \"#utility.yul\":3524:3554   */\n      swap1\n      pop\n        /* \"#utility.yul\":3563:3596   */\n      tag_184\n        /* \"#utility.yul\":3591:3595   */\n      dup3\n        /* \"#utility.yul\":3583:3589   */\n      dup3\n        /* \"#utility.yul\":3563:3596   */\n      tag_95\n      jump\t// in\n    tag_184:\n        /* \"#utility.yul\":3473:3602   */\n      swap2\n      swap1\n      pop\n      jump\t// out\n        /* \"#utility.yul\":3608:3915   */\n    tag_97:\n        /* \"#utility.yul\":3669:3673   */\n      0x00\n        /* \"#utility.yul\":3759:3777   */\n      0xffffffffffffffff\n        /* \"#utility.yul\":3751:3757   */\n      dup3\n        /* \"#utility.yul\":3748:3778   */\n      gt\n        /* \"#utility.yul\":3745:3801   */\n      iszero\n      tag_186\n      jumpi\n        /* \"#utility.yul\":3781:3799   */\n      tag_187\n      tag_94\n      jump\t// in\n    tag_187:\n        /* \"#utility.yul\":3745:3801   */\n    tag_186:\n        /* \"#utility.yul\":3819:3848   */\n      tag_188\n        /* \"#utility.yul\":3841:3847   */\n      dup3\n        /* \"#utility.yul\":3819:3848   */\n      tag_93\n      jump\t// in\n    tag_188:\n        /* \"#utility.yul\":3811:3848   */\n      swap1\n      pop\n        /* \"#utility.yul\":3903:3907   */\n      0x20\n        /* \"#utility.yul\":3897:3901   */\n      dup2\n        /* \"#utility.yul\":3893:3908   */\n      add\n        /* \"#utility.yul\":3885:3908   */\n      swap1\n      pop\n        /* \"#utility.yul\":3608:3915   */\n      swap2\n      swap1\n      pop\n      jump\t// out\n        /* \"#utility.yul\":3921:4067   */\n    tag_98:\n        /* \"#utility.yul\":4018:4024   */\n      dup3\n        /* \"#utility.yul\":4013:4016   */\n      dup2\n        /* \"#utility.yul\":4008:4011   */\n      dup4\n        /* \"#utility.yul\":3995:4025   */\n      calldatacopy\n        /* \"#utility.yul\":4059:4060   */\n      0x00\n        /* \"#utility.yul\":4050:4056   */\n      dup4\n        /* \"#utility.yul\":4045:4048   */\n      dup4\n        /* \"#utility.yul\":4041:4057   */\n      add\n        /* \"#utility.yul\":4034:4061   */\n      mstore\n        /* \"#utility.yul\":3921:4067   */\n      pop\n      pop\n      pop\n      jump\t// out\n        /* \"#utility.yul\":4073:4496   */\n    tag_99:\n        /* \"#utility.yul\":4150:4155   */\n      0x00\n        /* \"#utility.yul\":4175:4240   */\n      tag_191\n        /* \"#utility.yul\":4191:4239   */\n      tag_192\n        /* \"#utility.yul\":4232:4238   */\n      dup5\n        /* \"#utility.yul\":4191:4239   */\n      tag_97\n      jump\t// in\n    tag_192:\n        /* \"#utility.yul\":4175:4240   */\n      tag_96\n      jump\t// in\n    tag_191:\n        /* \"#utility.yul\":4166:4240   */\n      swap1\n      pop\n        /* \"#utility.yul\":4263:4269   */\n      dup3\n        /* \"#utility.yul\":4256:4261   */\n      dup2\n        /* \"#utility.yul\":4249:4270   */\n      mstore\n        /* \"#utility.yul\":4301:4305   */\n      0x20\n        /* \"#utility.yul\":4294:4299   */\n      dup2\n        /* \"#utility.yul\":4290:4306   */\n      add\n        /* \"#utility.yul\":4339:4342   */\n      dup5\n        /* \"#utility.yul\":4330:4336   */\n      dup5\n        /* \"#utility.yul\":4325:4328   */\n      dup5\n        /* \"#utility.yul\":4321:4337   */\n      add\n        /* \"#utility.yul\":4318:4343   */\n      gt\n        /* \"#utility.yul\":4315:4427   */\n      iszero\n      tag_193\n      jumpi\n        /* \"#utility.yul\":4346:4425   */\n      tag_194\n      tag_92\n      jump\t// in\n    tag_194:\n        /* \"#utility.yul\":4315:4427   */\n    tag_193:\n        /* \"#utility.yul\":4436:4490   */\n      tag_195\n        /* \"#utility.yul\":4483:4489   */\n      dup5\n        /* \"#utility.yul\":4478:4481   */\n      dup3\n        /* \"#utility.yul\":4473:4476   */\n      dup6\n        /* \"#utility.yul\":4436:4490   */\n      tag_98\n      jump\t// in\n    tag_195:\n        /* \"#utility.yul\":4156:4496   */\n      pop\n        /* \"#utility.yul\":4073:4496   */\n      swap4\n      swap3\n      pop\n      pop\n      pop\n      jump\t// out\n        /* \"#utility.yul\":4515:4853   */\n    tag_100:\n        /* \"#utility.yul\":4570:4575   */\n      0x00\n        /* \"#utility.yul\":4619:4622   */\n      dup3\n        /* \"#utility.yul\":4612:4616   */\n      0x1f\n        /* \"#utility.yul\":4604:4610   */\n      dup4\n        /* \"#utility.yul\":4600:4617   */\n      add\n        /* \"#utility.yul\":4596:4623   */\n      slt\n        /* \"#utility.yul\":4586:4708   */\n      tag_197\n      jumpi\n        /* \"#utility.yul\":4627:4706   */\n      tag_198\n      tag_91\n      jump\t// in\n    tag_198:\n        /* \"#utility.yul\":4586:4708   */\n    tag_197:\n        /* \"#utility.yul\":4744:4750   */\n      dup2\n        /* \"#utility.yul\":4731:4751   */\n      calldataload\n        /* \"#utility.yul\":4769:4847   */\n      tag_199\n        /* \"#utility.yul\":4843:4846   */\n      dup5\n        /* \"#utility.yul\":4835:4841   */\n      dup3\n        /* \"#utility.yul\":4828:4832   */\n      0x20\n        /* \"#utility.yul\":4820:4826   */\n      dup7\n        /* \"#utility.yul\":4816:4833   */\n      add\n        /* \"#utility.yul\":4769:4847   */\n      tag_99\n      jump\t// in\n    tag_199:\n        /* \"#utility.yul\":4760:4847   */\n      swap2\n      pop\n        /* \"#utility.yul\":4576:4853   */\n      pop\n        /* \"#utility.yul\":4515:4853   */\n      swap3\n      swap2\n      pop\n      pop\n      jump\t// out\n        /* \"#utility.yul\":4859:5168   */\n    tag_101:\n        /* \"#utility.yul\":4934:4938   */\n      0x00\n        /* \"#utility.yul\":5024:5042   */\n      0xffffffffffffffff\n        /* \"#utility.yul\":5016:5022   */\n      dup3\n        /* \"#utility.yul\":5013:5043   */\n      gt\n        /* \"#utility.yul\":5010:5066   */\n      iszero\n      tag_201\n      jumpi\n        /* \"#utility.yul\":5046:5064   */\n      tag_202\n      tag_94\n      jump\t// in\n    tag_202:\n        /* \"#utility.yul\":5010:5066   */\n    tag_201:\n        /* \"#utility.yul\":5096:5100   */\n      0x20\n        /* \"#utility.yul\":5088:5094   */\n      dup3\n        /* \"#utility.yul\":5084:5101   */\n      mul\n        /* \"#utility.yul\":5076:5101   */\n      swap1\n      pop\n        /* \"#utility.yul\":5156:5160   */\n      0x20\n        /* \"#utility.yul\":5150:5154   */\n      dup2\n        /* \"#utility.yul\":5146:5161   */\n      add\n        /* \"#utility.yul\":5138:5161   */\n      swap1\n      pop\n        /* \"#utility.yul\":4859:5168   */\n      swap2\n      swap1\n      pop\n      jump\t// out\n        /* \"#utility.yul\":5174:5291   */\n    tag_102:\n        /* \"#utility.yul\":5283:5284   */\n      0x00\n        /* \"#utility.yul\":5280:5281   */\n      dup1\n        /* \"#utility.yul\":5273:5285   */\n      revert\n        /* \"#utility.yul\":5297:5383   */\n    tag_103:\n        /* \"#utility.yul\":5332:5339   */\n      0x00\n        /* \"#utility.yul\":5372:5376   */\n      0xff\n        /* \"#utility.yul\":5365:5370   */\n      dup3\n        /* \"#utility.yul\":5361:5377   */\n      and\n        /* \"#utility.yul\":5350:5377   */\n      swap1\n      pop\n        /* \"#utility.yul\":5297:5383   */\n      swap2\n      swap1\n      pop\n      jump\t// out\n        /* \"#utility.yul\":5389:5507   */\n    tag_104:\n        /* \"#utility.yul\":5460:5482   */\n      tag_206\n        /* \"#utility.yul\":5476:5481   */\n      dup2\n        /* \"#utility.yul\":5460:5482   */\n      tag_103\n      jump\t// in\n    tag_206:\n        /* \"#utility.yul\":5453:5458   */\n      dup2\n        /* \"#utility.yul\":5450:5483   */\n      eq\n        /* \"#utility.yul\":5440:5501   */\n      tag_207\n      jumpi\n        /* \"#utility.yul\":5497:5498   */\n      0x00\n        /* \"#utility.yul\":5494:5495   */\n      dup1\n        /* \"#utility.yul\":5487:5499   */\n      revert\n        /* \"#utility.yul\":5440:5501   */\n    tag_207:\n        /* \"#utility.yul\":5389:5507   */\n      pop\n      jump\t// out\n        /* \"#utility.yul\":5513:5648   */\n    tag_105:\n        /* \"#utility.yul\":5557:5562   */\n      0x00\n        /* \"#utility.yul\":5595:5601   */\n      dup2\n        /* \"#utility.yul\":5582:5602   */\n      calldataload\n        /* \"#utility.yul\":5573:5602   */\n      swap1\n      pop\n        /* \"#utility.yul\":5611:5642   */\n      tag_209\n        /* \"#utility.yul\":5636:5641   */\n      dup2\n        /* \"#utility.yul\":5611:5642   */\n      tag_104\n      jump\t// in\n    tag_209:\n        /* \"#utility.yul\":5513:5648   */\n      swap3\n      swap2\n      pop\n      pop\n      jump\t// out\n        /* \"#utility.yul\":5669:6373   */\n    tag_106:\n        /* \"#utility.yul\":5763:5768   */\n      0x00\n        /* \"#utility.yul\":5788:5867   */\n      tag_211\n        /* \"#utility.yul\":5804:5866   */\n      tag_212\n        /* \"#utility.yul\":5859:5865   */\n      dup5\n        /* \"#utility.yul\":5804:5866   */\n      tag_101\n      jump\t// in\n    tag_212:\n        /* \"#utility.yul\":5788:5867   */\n      tag_96\n      jump\t// in\n    tag_211:\n        /* \"#utility.yul\":5779:5867   */\n      swap1\n      pop\n        /* \"#utility.yul\":5887:5892   */\n      dup1\n        /* \"#utility.yul\":5916:5922   */\n      dup4\n        /* \"#utility.yul\":5909:5914   */\n      dup3\n        /* \"#utility.yul\":5902:5923   */\n      mstore\n        /* \"#utility.yul\":5950:5954   */\n      0x20\n        /* \"#utility.yul\":5943:5948   */\n      dup3\n        /* \"#utility.yul\":5939:5955   */\n      add\n        /* \"#utility.yul\":5932:5955   */\n      swap1\n      pop\n        /* \"#utility.yul\":6003:6007   */\n      0x20\n        /* \"#utility.yul\":5995:6001   */\n      dup5\n        /* \"#utility.yul\":5991:6008   */\n      mul\n        /* \"#utility.yul\":5983:5989   */\n      dup4\n        /* \"#utility.yul\":5979:6009   */\n      add\n        /* \"#utility.yul\":6032:6035   */\n      dup6\n        /* \"#utility.yul\":6024:6030   */\n      dup2\n        /* \"#utility.yul\":6021:6036   */\n      gt\n        /* \"#utility.yul\":6018:6140   */\n      iszero\n      tag_213\n      jumpi\n        /* \"#utility.yul\":6051:6130   */\n      tag_214\n      tag_102\n      jump\t// in\n    tag_214:\n        /* \"#utility.yul\":6018:6140   */\n    tag_213:\n        /* \"#utility.yul\":6166:6172   */\n      dup4\n        /* \"#utility.yul\":6149:6367   */\n    tag_215:\n        /* \"#utility.yul\":6183:6189   */\n      dup2\n        /* \"#utility.yul\":6178:6181   */\n      dup2\n        /* \"#utility.yul\":6175:6190   */\n      lt\n        /* \"#utility.yul\":6149:6367   */\n      iszero\n      tag_217\n      jumpi\n        /* \"#utility.yul\":6258:6261   */\n      dup1\n        /* \"#utility.yul\":6287:6322   */\n      tag_218\n        /* \"#utility.yul\":6318:6321   */\n      dup9\n        /* \"#utility.yul\":6306:6316   */\n      dup3\n        /* \"#utility.yul\":6287:6322   */\n      tag_105\n      jump\t// in\n    tag_218:\n        /* \"#utility.yul\":6282:6285   */\n      dup5\n        /* \"#utility.yul\":6275:6323   */\n      mstore\n        /* \"#utility.yul\":6352:6356   */\n      0x20\n        /* \"#utility.yul\":6347:6350   */\n      dup5\n        /* \"#utility.yul\":6343:6357   */\n      add\n        /* \"#utility.yul\":6336:6357   */\n      swap4\n      pop\n        /* \"#utility.yul\":6225:6367   */\n      pop\n        /* \"#utility.yul\":6209:6213   */\n      0x20\n        /* \"#utility.yul\":6204:6207   */\n      dup2\n        /* \"#utility.yul\":6200:6214   */\n      add\n        /* \"#utility.yul\":6193:6214   */\n      swap1\n      pop\n        /* \"#utility.yul\":6149:6367   */\n      jump(tag_215)\n    tag_217:\n        /* \"#utility.yul\":6153:6174   */\n      pop\n        /* \"#utility.yul\":5769:6373   */\n      pop\n      pop\n        /* \"#utility.yul\":5669:6373   */\n      swap4\n      swap3\n      pop\n      pop\n      pop\n      jump\t// out\n        /* \"#utility.yul\":6394:6760   */\n    tag_107:\n        /* \"#utility.yul\":6463:6468   */\n      0x00\n        /* \"#utility.yul\":6512:6515   */\n      dup3\n        /* \"#utility.yul\":6505:6509   */\n      0x1f\n        /* \"#utility.yul\":6497:6503   */\n      dup4\n        /* \"#utility.yul\":6493:6510   */\n      add\n        /* \"#utility.yul\":6489:6516   */\n      slt\n        /* \"#utility.yul\":6479:6601   */\n      tag_220\n      jumpi\n        /* \"#utility.yul\":6520:6599   */\n      tag_221\n      tag_91\n      jump\t// in\n    tag_221:\n        /* \"#utility.yul\":6479:6601   */\n    tag_220:\n        /* \"#utility.yul\":6637:6643   */\n      dup2\n        /* \"#utility.yul\":6624:6644   */\n      calldataload\n        /* \"#utility.yul\":6662:6754   */\n      tag_222\n        /* \"#utility.yul\":6750:6753   */\n      dup5\n        /* \"#utility.yul\":6742:6748   */\n      dup3\n        /* \"#utility.yul\":6735:6739   */\n      0x20\n        /* \"#utility.yul\":6727:6733   */\n      dup7\n        /* \"#utility.yul\":6723:6740   */\n      add\n        /* \"#utility.yul\":6662:6754   */\n      tag_106\n      jump\t// in\n    tag_222:\n        /* \"#utility.yul\":6653:6754   */\n      swap2\n      pop\n        /* \"#utility.yul\":6469:6760   */\n      pop\n        /* \"#utility.yul\":6394:6760   */\n      swap3\n      swap2\n      pop\n      pop\n      jump\t// out\n        /* \"#utility.yul\":6766:7077   */\n    tag_108:\n        /* \"#utility.yul\":6843:6847   */\n      0x00\n        /* \"#utility.yul\":6933:6951   */\n      0xffffffffffffffff\n        /* \"#utility.yul\":6925:6931   */\n      dup3\n        /* \"#utility.yul\":6922:6952   */\n      gt\n        /* \"#utility.yul\":6919:6975   */\n      iszero\n      tag_224\n      jumpi\n        /* \"#utility.yul\":6955:6973   */\n      tag_225\n      tag_94\n      jump\t// in\n    tag_225:\n        /* \"#utility.yul\":6919:6975   */\n    tag_224:\n        /* \"#utility.yul\":7005:7009   */\n      0x20\n        /* \"#utility.yul\":6997:7003   */\n      dup3\n        /* \"#utility.yul\":6993:7010   */\n      mul\n        /* \"#utility.yul\":6985:7010   */\n      swap1\n      pop\n        /* \"#utility.yul\":7065:7069   */\n      0x20\n        /* \"#utility.yul\":7059:7063   */\n      dup2\n        /* \"#utility.yul\":7055:7070   */\n      add\n        /* \"#utility.yul\":7047:7070   */\n      swap1\n      pop\n        /* \"#utility.yul\":6766:7077   */\n      swap2\n      swap1\n      pop\n      jump\t// out\n        /* \"#utility.yul\":7083:7160   */\n    tag_109:\n        /* \"#utility.yul\":7120:7127   */\n      0x00\n        /* \"#utility.yul\":7149:7154   */\n      dup2\n        /* \"#utility.yul\":7138:7154   */\n      swap1\n      pop\n        /* \"#utility.yul\":7083:7160   */\n      swap2\n      swap1\n      pop\n      jump\t// out\n        /* \"#utility.yul\":7166:7288   */\n    tag_110:\n        /* \"#utility.yul\":7239:7263   */\n      tag_228\n        /* \"#utility.yul\":7257:7262   */\n      dup2\n        /* \"#utility.yul\":7239:7263   */\n      tag_109\n      jump\t// in\n    tag_228:\n        /* \"#utility.yul\":7232:7237   */\n      dup2\n        /* \"#utility.yul\":7229:7264   */\n      eq\n        /* \"#utility.yul\":7219:7282   */\n      tag_229\n      jumpi\n        /* \"#utility.yul\":7278:7279   */\n      0x00\n        /* \"#utility.yul\":7275:7276   */\n      dup1\n        /* \"#utility.yul\":7268:7280   */\n      revert\n        /* \"#utility.yul\":7219:7282   */\n    tag_229:\n        /* \"#utility.yul\":7166:7288   */\n      pop\n      jump\t// out\n        /* \"#utility.yul\":7294:7433   */\n    tag_111:\n        /* \"#utility.yul\":7340:7345   */\n      0x00\n        /* \"#utility.yul\":7378:7384   */\n      dup2\n        /* \"#utility.yul\":7365:7385   */\n      calldataload\n        /* \"#utility.yul\":7356:7385   */\n      swap1\n      pop\n        /* \"#utility.yul\":7394:7427   */\n      tag_231\n        /* \"#utility.yul\":7421:7426   */\n      dup2\n        /* \"#utility.yul\":7394:7427   */\n      tag_110\n      jump\t// in\n    tag_231:\n        /* \"#utility.yul\":7294:7433   */\n      swap3\n      swap2\n      pop\n      pop\n      jump\t// out\n        /* \"#utility.yul\":7456:8166   */\n    tag_112:\n        /* \"#utility.yul\":7552:7557   */\n      0x00\n        /* \"#utility.yul\":7577:7658   */\n      tag_233\n        /* \"#utility.yul\":7593:7657   */\n      tag_234\n        /* \"#utility.yul\":7650:7656   */\n      dup5\n        /* \"#utility.yul\":7593:7657   */\n      tag_108\n      jump\t// in\n    tag_234:\n        /* \"#utility.yul\":7577:7658   */\n      tag_96\n      jump\t// in\n    tag_233:\n        /* \"#utility.yul\":7568:7658   */\n      swap1\n      pop\n        /* \"#utility.yul\":7678:7683   */\n      dup1\n        /* \"#utility.yul\":7707:7713   */\n      dup4\n        /* \"#utility.yul\":7700:7705   */\n      dup3\n        /* \"#utility.yul\":7693:7714   */\n      mstore\n        /* \"#utility.yul\":7741:7745   */\n      0x20\n        /* \"#utility.yul\":7734:7739   */\n      dup3\n        /* \"#utility.yul\":7730:7746   */\n      add\n        /* \"#utility.yul\":7723:7746   */\n      swap1\n      pop\n        /* \"#utility.yul\":7794:7798   */\n      0x20\n        /* \"#utility.yul\":7786:7792   */\n      dup5\n        /* \"#utility.yul\":7782:7799   */\n      mul\n        /* \"#utility.yul\":7774:7780   */\n      dup4\n        /* \"#utility.yul\":7770:7800   */\n      add\n        /* \"#utility.yul\":7823:7826   */\n      dup6\n        /* \"#utility.yul\":7815:7821   */\n      dup2\n        /* \"#utility.yul\":7812:7827   */\n      gt\n        /* \"#utility.yul\":7809:7931   */\n      iszero\n      tag_235\n      jumpi\n        /* \"#utility.yul\":7842:7921   */\n      tag_236\n      tag_102\n      jump\t// in\n    tag_236:\n        /* \"#utility.yul\":7809:7931   */\n    tag_235:\n        /* \"#utility.yul\":7957:7963   */\n      dup4\n        /* \"#utility.yul\":7940:8160   */\n    tag_237:\n        /* \"#utility.yul\":7974:7980   */\n      dup2\n        /* \"#utility.yul\":7969:7972   */\n      dup2\n        /* \"#utility.yul\":7966:7981   */\n      lt\n        /* \"#utility.yul\":7940:8160   */\n      iszero\n      tag_239\n      jumpi\n        /* \"#utility.yul\":8049:8052   */\n      dup1\n        /* \"#utility.yul\":8078:8115   */\n      tag_240\n        /* \"#utility.yul\":8111:8114   */\n      dup9\n        /* \"#utility.yul\":8099:8109   */\n      dup3\n        /* \"#utility.yul\":8078:8115   */\n      tag_111\n      jump\t// in\n    tag_240:\n        /* \"#utility.yul\":8073:8076   */\n      dup5\n        /* \"#utility.yul\":8066:8116   */\n      mstore\n        /* \"#utility.yul\":8145:8149   */\n      0x20\n        /* \"#utility.yul\":8140:8143   */\n      dup5\n        /* \"#utility.yul\":8136:8150   */\n      add\n        /* \"#utility.yul\":8129:8150   */\n      swap4\n      pop\n        /* \"#utility.yul\":8016:8160   */\n      pop\n        /* \"#utility.yul\":8000:8004   */\n      0x20\n        /* \"#utility.yul\":7995:7998   */\n      dup2\n        /* \"#utility.yul\":7991:8005   */\n      add\n        /* \"#utility.yul\":7984:8005   */\n      swap1\n      pop\n        /* \"#utility.yul\":7940:8160   */\n      jump(tag_237)\n    tag_239:\n        /* \"#utility.yul\":7944:7965   */\n      pop\n        /* \"#utility.yul\":7558:8166   */\n      pop\n      pop\n        /* \"#utility.yul\":7456:8166   */\n      swap4\n      swap3\n      pop\n      pop\n      pop\n      jump\t// out\n        /* \"#utility.yul\":8189:8559   */\n    tag_113:\n        /* \"#utility.yul\":8260:8265   */\n      0x00\n        /* \"#utility.yul\":8309:8312   */\n      dup3\n        /* \"#utility.yul\":8302:8306   */\n      0x1f\n        /* \"#utility.yul\":8294:8300   */\n      dup4\n        /* \"#utility.yul\":8290:8307   */\n      add\n        /* \"#utility.yul\":8286:8313   */\n      slt\n        /* \"#utility.yul\":8276:8398   */\n      tag_242\n      jumpi\n        /* \"#utility.yul\":8317:8396   */\n      tag_243\n      tag_91\n      jump\t// in\n    tag_243:\n        /* \"#utility.yul\":8276:8398   */\n    tag_242:\n        /* \"#utility.yul\":8434:8440   */\n      dup2\n        /* \"#utility.yul\":8421:8441   */\n      calldataload\n        /* \"#utility.yul\":8459:8553   */\n      tag_244\n        /* \"#utility.yul\":8549:8552   */\n      dup5\n        /* \"#utility.yul\":8541:8547   */\n      dup3\n        /* \"#utility.yul\":8534:8538   */\n      0x20\n        /* \"#utility.yul\":8526:8532   */\n      dup7\n        /* \"#utility.yul\":8522:8539   */\n      add\n        /* \"#utility.yul\":8459:8553   */\n      tag_112\n      jump\t// in\n    tag_244:\n        /* \"#utility.yul\":8450:8553   */\n      swap2\n      pop\n        /* \"#utility.yul\":8266:8559   */\n      pop\n        /* \"#utility.yul\":8189:8559   */\n      swap3\n      swap2\n      pop\n      pop\n      jump\t// out\n        /* \"#utility.yul\":8565:10426   */\n    tag_22:\n        /* \"#utility.yul\":8751:8757   */\n      0x00\n        /* \"#utility.yul\":8759:8765   */\n      dup1\n        /* \"#utility.yul\":8767:8773   */\n      0x00\n        /* \"#utility.yul\":8775:8781   */\n      dup1\n        /* \"#utility.yul\":8783:8789   */\n      0x00\n        /* \"#utility.yul\":8791:8797   */\n      dup1\n        /* \"#utility.yul\":8840:8843   */\n      0xc0\n        /* \"#utility.yul\":8828:8837   */\n      dup8\n        /* \"#utility.yul\":8819:8826   */\n      dup10\n        /* \"#utility.yul\":8815:8838   */\n      sub\n        /* \"#utility.yul\":8811:8844   */\n      slt\n        /* \"#utility.yul\":8808:8928   */\n      iszero\n      tag_246\n      jumpi\n        /* \"#utility.yul\":8847:8926   */\n      tag_247\n      tag_79\n      jump\t// in\n    tag_247:\n        /* \"#utility.yul\":8808:8928   */\n    tag_246:\n        /* \"#utility.yul\":8967:8968   */\n      0x00\n        /* \"#utility.yul\":8992:9045   */\n      tag_248\n        /* \"#utility.yul\":9037:9044   */\n      dup10\n        /* \"#utility.yul\":9028:9034   */\n      dup3\n        /* \"#utility.yul\":9017:9026   */\n      dup11\n        /* \"#utility.yul\":9013:9035   */\n      add\n        /* \"#utility.yul\":8992:9045   */\n      tag_88\n      jump\t// in\n    tag_248:\n        /* \"#utility.yul\":8982:9045   */\n      swap7\n      pop\n        /* \"#utility.yul\":8938:9055   */\n      pop\n        /* \"#utility.yul\":9094:9096   */\n      0x20\n        /* \"#utility.yul\":9120:9173   */\n      tag_249\n        /* \"#utility.yul\":9165:9172   */\n      dup10\n        /* \"#utility.yul\":9156:9162   */\n      dup3\n        /* \"#utility.yul\":9145:9154   */\n      dup11\n        /* \"#utility.yul\":9141:9163   */\n      add\n        /* \"#utility.yul\":9120:9173   */\n      tag_83\n      jump\t// in\n    tag_249:\n        /* \"#utility.yul\":9110:9173   */\n      swap6\n      pop\n        /* \"#utility.yul\":9065:9183   */\n      pop\n        /* \"#utility.yul\":9250:9252   */\n      0x40\n        /* \"#utility.yul\":9239:9248   */\n      dup8\n        /* \"#utility.yul\":9235:9253   */\n      add\n        /* \"#utility.yul\":9222:9254   */\n      calldataload\n        /* \"#utility.yul\":9281:9299   */\n      0xffffffffffffffff\n        /* \"#utility.yul\":9273:9279   */\n      dup2\n        /* \"#utility.yul\":9270:9300   */\n      gt\n        /* \"#utility.yul\":9267:9384   */\n      iszero\n      tag_250\n      jumpi\n        /* \"#utility.yul\":9303:9382   */\n      tag_251\n      tag_80\n      jump\t// in\n    tag_251:\n        /* \"#utility.yul\":9267:9384   */\n    tag_250:\n        /* \"#utility.yul\":9408:9470   */\n      tag_252\n        /* \"#utility.yul\":9462:9469   */\n      dup10\n        /* \"#utility.yul\":9453:9459   */\n      dup3\n        /* \"#utility.yul\":9442:9451   */\n      dup11\n        /* \"#utility.yul\":9438:9460   */\n      add\n        /* \"#utility.yul\":9408:9470   */\n      tag_100\n      jump\t// in\n    tag_252:\n        /* \"#utility.yul\":9398:9470   */\n      swap5\n      pop\n        /* \"#utility.yul\":9193:9480   */\n      pop\n        /* \"#utility.yul\":9547:9549   */\n      0x60\n        /* \"#utility.yul\":9536:9545   */\n      dup8\n        /* \"#utility.yul\":9532:9550   */\n      add\n        /* \"#utility.yul\":9519:9551   */\n      calldataload\n        /* \"#utility.yul\":9578:9596   */\n      0xffffffffffffffff\n        /* \"#utility.yul\":9570:9576   */\n      dup2\n        /* \"#utility.yul\":9567:9597   */\n      gt\n        /* \"#utility.yul\":9564:9681   */\n      iszero\n      tag_253\n      jumpi\n        /* \"#utility.yul\":9600:9679   */\n      tag_254\n      tag_80\n      jump\t// in\n    tag_254:\n        /* \"#utility.yul\":9564:9681   */\n    tag_253:\n        /* \"#utility.yul\":9705:9781   */\n      tag_255\n        /* \"#utility.yul\":9773:9780   */\n      dup10\n        /* \"#utility.yul\":9764:9770   */\n      dup3\n        /* \"#utility.yul\":9753:9762   */\n      dup11\n        /* \"#utility.yul\":9749:9771   */\n      add\n        /* \"#utility.yul\":9705:9781   */\n      tag_107\n      jump\t// in\n    tag_255:\n        /* \"#utility.yul\":9695:9781   */\n      swap4\n      pop\n        /* \"#utility.yul\":9490:9791   */\n      pop\n        /* \"#utility.yul\":9858:9861   */\n      0x80\n        /* \"#utility.yul\":9847:9856   */\n      dup8\n        /* \"#utility.yul\":9843:9862   */\n      add\n        /* \"#utility.yul\":9830:9863   */\n      calldataload\n        /* \"#utility.yul\":9890:9908   */\n      0xffffffffffffffff\n        /* \"#utility.yul\":9882:9888   */\n      dup2\n        /* \"#utility.yul\":9879:9909   */\n      gt\n        /* \"#utility.yul\":9876:9993   */\n      iszero\n      tag_256\n      jumpi\n        /* \"#utility.yul\":9912:9991   */\n      tag_257\n      tag_80\n      jump\t// in\n    tag_257:\n        /* \"#utility.yul\":9876:9993   */\n    tag_256:\n        /* \"#utility.yul\":10017:10095   */\n      tag_258\n        /* \"#utility.yul\":10087:10094   */\n      dup10\n        /* \"#utility.yul\":10078:10084   */\n      dup3\n        /* \"#utility.yul\":10067:10076   */\n      dup11\n        /* \"#utility.yul\":10063:10085   */\n      add\n        /* \"#utility.yul\":10017:10095   */\n      tag_113\n      jump\t// in\n    tag_258:\n        /* \"#utility.yul\":10007:10095   */\n      swap3\n      pop\n        /* \"#utility.yul\":9801:10105   */\n      pop\n        /* \"#utility.yul\":10172:10175   */\n      0xa0\n        /* \"#utility.yul\":10161:10170   */\n      dup8\n        /* \"#utility.yul\":10157:10176   */\n      add\n        /* \"#utility.yul\":10144:10177   */\n      calldataload\n        /* \"#utility.yul\":10204:10222   */\n      0xffffffffffffffff\n        /* \"#utility.yul\":10196:10202   */\n      dup2\n        /* \"#utility.yul\":10193:10223   */\n      gt\n        /* \"#utility.yul\":10190:10307   */\n      iszero\n      tag_259\n      jumpi\n        /* \"#utility.yul\":10226:10305   */\n      tag_260\n      tag_80\n      jump\t// in\n    tag_260:\n        /* \"#utility.yul\":10190:10307   */\n    tag_259:\n        /* \"#utility.yul\":10331:10409   */\n      tag_261\n        /* \"#utility.yul\":10401:10408   */\n      dup10\n        /* \"#utility.yul\":10392:10398   */\n      dup3\n        /* \"#utility.yul\":10381:10390   */\n      dup11\n        /* \"#utility.yul\":10377:10399   */\n      add\n        /* \"#utility.yul\":10331:10409   */\n      tag_113\n      jump\t// in\n    tag_261:\n        /* \"#utility.yul\":10321:10409   */\n      swap2\n      pop\n        /* \"#utility.yul\":10115:10419   */\n      pop\n        /* \"#utility.yul\":8565:10426   */\n      swap3\n      swap6\n      pop\n      swap3\n      swap6\n      pop\n      swap3\n      swap6\n      jump\t// out\n        /* \"#utility.yul\":10432:10550   */\n    tag_114:\n        /* \"#utility.yul\":10519:10543   */\n      tag_263\n        /* \"#utility.yul\":10537:10542   */\n      dup2\n        /* \"#utility.yul\":10519:10543   */\n      tag_81\n      jump\t// in\n    tag_263:\n        /* \"#utility.yul\":10514:10517   */\n      dup3\n        /* \"#utility.yul\":10507:10544   */\n      mstore\n        /* \"#utility.yul\":10432:10550   */\n      pop\n      pop\n      jump\t// out\n        /* \"#utility.yul\":10556:10778   */\n    tag_27:\n        /* \"#utility.yul\":10649:10653   */\n      0x00\n        /* \"#utility.yul\":10687:10689   */\n      0x20\n        /* \"#utility.yul\":10676:10685   */\n      dup3\n        /* \"#utility.yul\":10672:10690   */\n      add\n        /* \"#utility.yul\":10664:10690   */\n      swap1\n      pop\n        /* \"#utility.yul\":10700:10771   */\n      tag_265\n        /* \"#utility.yul\":10768:10769   */\n      0x00\n        /* \"#utility.yul\":10757:10766   */\n      dup4\n        /* \"#utility.yul\":10753:10770   */\n      add\n        /* \"#utility.yul\":10744:10750   */\n      dup5\n        /* \"#utility.yul\":10700:10771   */\n      tag_114\n      jump\t// in\n    tag_265:\n        /* \"#utility.yul\":10556:10778   */\n      swap3\n      swap2\n      pop\n      pop\n      jump\t// out\n        /* \"#utility.yul\":10784:10953   */\n    tag_115:\n        /* \"#utility.yul\":10868:10879   */\n      0x00\n        /* \"#utility.yul\":10902:10908   */\n      dup3\n        /* \"#utility.yul\":10897:10900   */\n      dup3\n        /* \"#utility.yul\":10890:10909   */\n      mstore\n        /* \"#utility.yul\":10942:10946   */\n      0x20\n        /* \"#utility.yul\":10937:10940   */\n      dup3\n        /* \"#utility.yul\":10933:10947   */\n      add\n        /* \"#utility.yul\":10918:10947   */\n      swap1\n      pop\n        /* \"#utility.yul\":10784:10953   */\n      swap3\n      swap2\n      pop\n      pop\n      jump\t// out\n        /* \"#utility.yul\":10959:11139   */\n    tag_116:\n        /* \"#utility.yul\":11099:11131   */\n      0x4e6f7420656e6f756768207369676e6174757265732070726f76696465640000\n        /* \"#utility.yul\":11095:11096   */\n      0x00\n        /* \"#utility.yul\":11087:11093   */\n      dup3\n        /* \"#utility.yul\":11083:11097   */\n      add\n        /* \"#utility.yul\":11076:11132   */\n      mstore\n        /* \"#utility.yul\":10959:11139   */\n      pop\n      jump\t// out\n        /* \"#utility.yul\":11145:11511   */\n    tag_117:\n        /* \"#utility.yul\":11287:11290   */\n      0x00\n        /* \"#utility.yul\":11308:11375   */\n      tag_269\n        /* \"#utility.yul\":11372:11374   */\n      0x1e\n        /* \"#utility.yul\":11367:11370   */\n      dup4\n        /* \"#utility.yul\":11308:11375   */\n      tag_115\n      jump\t// in\n    tag_269:\n        /* \"#utility.yul\":11301:11375   */\n      swap2\n      pop\n        /* \"#utility.yul\":11384:11477   */\n      tag_270\n        /* \"#utility.yul\":11473:11476   */\n      dup3\n        /* \"#utility.yul\":11384:11477   */\n      tag_116\n      jump\t// in\n    tag_270:\n        /* \"#utility.yul\":11502:11504   */\n      0x20\n        /* \"#utility.yul\":11497:11500   */\n      dup3\n        /* \"#utility.yul\":11493:11505   */\n      add\n        /* \"#utility.yul\":11486:11505   */\n      swap1\n      pop\n        /* \"#utility.yul\":11145:11511   */\n      swap2\n      swap1\n      pop\n      jump\t// out\n        /* \"#utility.yul\":11517:11936   */\n    tag_36:\n        /* \"#utility.yul\":11683:11687   */\n      0x00\n        /* \"#utility.yul\":11721:11723   */\n      0x20\n        /* \"#utility.yul\":11710:11719   */\n      dup3\n        /* \"#utility.yul\":11706:11724   */\n      add\n        /* \"#utility.yul\":11698:11724   */\n      swap1\n      pop\n        /* \"#utility.yul\":11770:11779   */\n      dup2\n        /* \"#utility.yul\":11764:11768   */\n      dup2\n        /* \"#utility.yul\":11760:11780   */\n      sub\n        /* \"#utility.yul\":11756:11757   */\n      0x00\n        /* \"#utility.yul\":11745:11754   */\n      dup4\n        /* \"#utility.yul\":11741:11758   */\n      add\n        /* \"#utility.yul\":11734:11781   */\n      mstore\n        /* \"#utility.yul\":11798:11929   */\n      tag_272\n        /* \"#utility.yul\":11924:11928   */\n      dup2\n        /* \"#utility.yul\":11798:11929   */\n      tag_117\n      jump\t// in\n    tag_272:\n        /* \"#utility.yul\":11790:11929   */\n      swap1\n      pop\n        /* \"#utility.yul\":11517:11936   */\n      swap2\n      swap1\n      pop\n      jump\t// out\n        /* \"#utility.yul\":11942:12122   */\n    tag_44:\n        /* \"#utility.yul\":11990:12067   */\n      0x4e487b7100000000000000000000000000000000000000000000000000000000\n        /* \"#utility.yul\":11987:11988   */\n      0x00\n        /* \"#utility.yul\":11980:12068   */\n      mstore\n        /* \"#utility.yul\":12087:12091   */\n      0x32\n        /* \"#utility.yul\":12084:12085   */\n      0x04\n        /* \"#utility.yul\":12077:12092   */\n      mstore\n        /* \"#utility.yul\":12111:12115   */\n      0x24\n        /* \"#utility.yul\":12108:12109   */\n      0x00\n        /* \"#utility.yul\":12101:12116   */\n      revert\n        /* \"#utility.yul\":12128:12246   */\n    tag_118:\n        /* \"#utility.yul\":12215:12239   */\n      tag_275\n        /* \"#utility.yul\":12233:12238   */\n      dup2\n        /* \"#utility.yul\":12215:12239   */\n      tag_109\n      jump\t// in\n    tag_275:\n        /* \"#utility.yul\":12210:12213   */\n      dup3\n        /* \"#utility.yul\":12203:12240   */\n      mstore\n        /* \"#utility.yul\":12128:12246   */\n      pop\n      pop\n      jump\t// out\n        /* \"#utility.yul\":12252:12364   */\n    tag_119:\n        /* \"#utility.yul\":12335:12357   */\n      tag_277\n        /* \"#utility.yul\":12351:12356   */\n      dup2\n        /* \"#utility.yul\":12335:12357   */\n      tag_103\n      jump\t// in\n    tag_277:\n        /* \"#utility.yul\":12330:12333   */\n      dup3\n        /* \"#utility.yul\":12323:12358   */\n      mstore\n        /* \"#utility.yul\":12252:12364   */\n      pop\n      pop\n      jump\t// out\n        /* \"#utility.yul\":12370:12915   */\n    tag_50:\n        /* \"#utility.yul\":12543:12547   */\n      0x00\n        /* \"#utility.yul\":12581:12584   */\n      0x80\n        /* \"#utility.yul\":12570:12579   */\n      dup3\n        /* \"#utility.yul\":12566:12585   */\n      add\n        /* \"#utility.yul\":12558:12585   */\n      swap1\n      pop\n        /* \"#utility.yul\":12595:12666   */\n      tag_279\n        /* \"#utility.yul\":12663:12664   */\n      0x00\n        /* \"#utility.yul\":12652:12661   */\n      dup4\n        /* \"#utility.yul\":12648:12665   */\n      add\n        /* \"#utility.yul\":12639:12645   */\n      dup8\n        /* \"#utility.yul\":12595:12666   */\n      tag_118\n      jump\t// in\n    tag_279:\n        /* \"#utility.yul\":12676:12744   */\n      tag_280\n        /* \"#utility.yul\":12740:12742   */\n      0x20\n        /* \"#utility.yul\":12729:12738   */\n      dup4\n        /* \"#utility.yul\":12725:12743   */\n      add\n        /* \"#utility.yul\":12716:12722   */\n      dup7\n        /* \"#utility.yul\":12676:12744   */\n      tag_119\n      jump\t// in\n    tag_280:\n        /* \"#utility.yul\":12754:12826   */\n      tag_281\n        /* \"#utility.yul\":12822:12824   */\n      0x40\n        /* \"#utility.yul\":12811:12820   */\n      dup4\n        /* \"#utility.yul\":12807:12825   */\n      add\n        /* \"#utility.yul\":12798:12804   */\n      dup6\n        /* \"#utility.yul\":12754:12826   */\n      tag_118\n      jump\t// in\n    tag_281:\n        /* \"#utility.yul\":12836:12908   */\n      tag_282\n        /* \"#utility.yul\":12904:12906   */\n      0x60\n        /* \"#utility.yul\":12893:12902   */\n      dup4\n        /* \"#utility.yul\":12889:12907   */\n      add\n        /* \"#utility.yul\":12880:12886   */\n      dup5\n        /* \"#utility.yul\":12836:12908   */\n      tag_118\n      jump\t// in\n    tag_282:\n        /* \"#utility.yul\":12370:12915   */\n      swap6\n      swap5\n      pop\n      pop\n      pop\n      pop\n      pop\n      jump\t// out\n        /* \"#utility.yul\":12921:13085   */\n    tag_120:\n        /* \"#utility.yul\":13061:13077   */\n      0x496e76616c6964207369676e6572000000000000000000000000000000000000\n        /* \"#utility.yul\":13057:13058   */\n      0x00\n        /* \"#utility.yul\":13049:13055   */\n      dup3\n        /* \"#utility.yul\":13045:13059   */\n      add\n        /* \"#utility.yul\":13038:13078   */\n      mstore\n        /* \"#utility.yul\":12921:13085   */\n      pop\n      jump\t// out\n        /* \"#utility.yul\":13091:13457   */\n    tag_121:\n        /* \"#utility.yul\":13233:13236   */\n      0x00\n        /* \"#utility.yul\":13254:13321   */\n      tag_285\n        /* \"#utility.yul\":13318:13320   */\n      0x0e\n        /* \"#utility.yul\":13313:13316   */\n      dup4\n        /* \"#utility.yul\":13254:13321   */\n      tag_115\n      jump\t// in\n    tag_285:\n        /* \"#utility.yul\":13247:13321   */\n      swap2\n      pop\n        /* \"#utility.yul\":13330:13423   */\n      tag_286\n        /* \"#utility.yul\":13419:13422   */\n      dup3\n        /* \"#utility.yul\":13330:13423   */\n      tag_120\n      jump\t// in\n    tag_286:\n        /* \"#utility.yul\":13448:13450   */\n      0x20\n        /* \"#utility.yul\":13443:13446   */\n      dup3\n        /* \"#utility.yul\":13439:13451   */\n      add\n        /* \"#utility.yul\":13432:13451   */\n      swap1\n      pop\n        /* \"#utility.yul\":13091:13457   */\n      swap2\n      swap1\n      pop\n      jump\t// out\n        /* \"#utility.yul\":13463:13882   */\n    tag_55:\n        /* \"#utility.yul\":13629:13633   */\n      0x00\n        /* \"#utility.yul\":13667:13669   */\n      0x20\n        /* \"#utility.yul\":13656:13665   */\n      dup3\n        /* \"#utility.yul\":13652:13670   */\n      add\n        /* \"#utility.yul\":13644:13670   */\n      swap1\n      pop\n        /* \"#utility.yul\":13716:13725   */\n      dup2\n        /* \"#utility.yul\":13710:13714   */\n      dup2\n        /* \"#utility.yul\":13706:13726   */\n      sub\n        /* \"#utility.yul\":13702:13703   */\n      0x00\n        /* \"#utility.yul\":13691:13700   */\n      dup4\n        /* \"#utility.yul\":13687:13704   */\n      add\n        /* \"#utility.yul\":13680:13727   */\n      mstore\n        /* \"#utility.yul\":13744:13875   */\n      tag_288\n        /* \"#utility.yul\":13870:13874   */\n      dup2\n        /* \"#utility.yul\":13744:13875   */\n      tag_121\n      jump\t// in\n    tag_288:\n        /* \"#utility.yul\":13736:13875   */\n      swap1\n      pop\n        /* \"#utility.yul\":13463:13882   */\n      swap2\n      swap1\n      pop\n      jump\t// out\n        /* \"#utility.yul\":13888:14120   */\n    tag_122:\n        /* \"#utility.yul\":14028:14062   */\n      0x5369676e657273206d75737420626520756e6971756520616e6420696e206173\n        /* \"#utility.yul\":14024:14025   */\n      0x00\n        /* \"#utility.yul\":14016:14022   */\n      dup3\n        /* \"#utility.yul\":14012:14026   */\n      add\n        /* \"#utility.yul\":14005:14063   */\n      mstore\n        /* \"#utility.yul\":14097:14112   */\n      0x63656e64696e67206f7264657200000000000000000000000000000000000000\n        /* \"#utility.yul\":14092:14094   */\n      0x20\n        /* \"#utility.yul\":14084:14090   */\n      dup3\n        /* \"#utility.yul\":14080:14095   */\n      add\n        /* \"#utility.yul\":14073:14113   */\n      mstore\n        /* \"#utility.yul\":13888:14120   */\n      pop\n      jump\t// out\n        /* \"#utility.yul\":14126:14492   */\n    tag_123:\n        /* \"#utility.yul\":14268:14271   */\n      0x00\n        /* \"#utility.yul\":14289:14356   */\n      tag_291\n        /* \"#utility.yul\":14353:14355   */\n      0x2d\n        /* \"#utility.yul\":14348:14351   */\n      dup4\n        /* \"#utility.yul\":14289:14356   */\n      tag_115\n      jump\t// in\n    tag_291:\n        /* \"#utility.yul\":14282:14356   */\n      swap2\n      pop\n        /* \"#utility.yul\":14365:14458   */\n      tag_292\n        /* \"#utility.yul\":14454:14457   */\n      dup3\n        /* \"#utility.yul\":14365:14458   */\n      tag_122\n      jump\t// in\n    tag_292:\n        /* \"#utility.yul\":14483:14485   */\n      0x40\n        /* \"#utility.yul\":14478:14481   */\n      dup3\n        /* \"#utility.yul\":14474:14486   */\n      add\n        /* \"#utility.yul\":14467:14486   */\n      swap1\n      pop\n        /* \"#utility.yul\":14126:14492   */\n      swap2\n      swap1\n      pop\n      jump\t// out\n        /* \"#utility.yul\":14498:14917   */\n    tag_58:\n        /* \"#utility.yul\":14664:14668   */\n      0x00\n        /* \"#utility.yul\":14702:14704   */\n      0x20\n        /* \"#utility.yul\":14691:14700   */\n      dup3\n        /* \"#utility.yul\":14687:14705   */\n      add\n        /* \"#utility.yul\":14679:14705   */\n      swap1\n      pop\n        /* \"#utility.yul\":14751:14760   */\n      dup2\n        /* \"#utility.yul\":14745:14749   */\n      dup2\n        /* \"#utility.yul\":14741:14761   */\n      sub\n        /* \"#utility.yul\":14737:14738   */\n      0x00\n        /* \"#utility.yul\":14726:14735   */\n      dup4\n        /* \"#utility.yul\":14722:14739   */\n      add\n        /* \"#utility.yul\":14715:14762   */\n      mstore\n        /* \"#utility.yul\":14779:14910   */\n      tag_294\n        /* \"#utility.yul\":14905:14909   */\n      dup2\n        /* \"#utility.yul\":14779:14910   */\n      tag_123\n      jump\t// in\n    tag_294:\n        /* \"#utility.yul\":14771:14910   */\n      swap1\n      pop\n        /* \"#utility.yul\":14498:14917   */\n      swap2\n      swap1\n      pop\n      jump\t// out\n        /* \"#utility.yul\":14923:15103   */\n    tag_124:\n        /* \"#utility.yul\":14971:15048   */\n      0x4e487b7100000000000000000000000000000000000000000000000000000000\n        /* \"#utility.yul\":14968:14969   */\n      0x00\n        /* \"#utility.yul\":14961:15049   */\n      mstore\n        /* \"#utility.yul\":15068:15072   */\n      0x11\n        /* \"#utility.yul\":15065:15066   */\n      0x04\n        /* \"#utility.yul\":15058:15073   */\n      mstore\n        /* \"#utility.yul\":15092:15096   */\n      0x24\n        /* \"#utility.yul\":15089:15090   */\n      0x00\n        /* \"#utility.yul\":15082:15097   */\n      revert\n        /* \"#utility.yul\":15109:15342   */\n    tag_60:\n        /* \"#utility.yul\":15148:15151   */\n      0x00\n        /* \"#utility.yul\":15171:15195   */\n      tag_297\n        /* \"#utility.yul\":15189:15194   */\n      dup3\n        /* \"#utility.yul\":15171:15195   */\n      tag_81\n      jump\t// in\n    tag_297:\n        /* \"#utility.yul\":15162:15195   */\n      swap2\n      pop\n        /* \"#utility.yul\":15217:15283   */\n      0xffffffffffffffffffffffffffffffffffffffffffffffffffffffffffffffff\n        /* \"#utility.yul\":15210:15215   */\n      dup3\n        /* \"#utility.yul\":15207:15284   */\n      sub\n        /* \"#utility.yul\":15204:15307   */\n      tag_298\n      jumpi\n        /* \"#utility.yul\":15287:15305   */\n      tag_299\n      tag_124\n      jump\t// in\n    tag_299:\n        /* \"#utility.yul\":15204:15307   */\n    tag_298:\n        /* \"#utility.yul\":15334:15335   */\n      0x01\n        /* \"#utility.yul\":15327:15332   */\n      dup3\n        /* \"#utility.yul\":15323:15336   */\n      add\n        /* \"#utility.yul\":15316:15336   */\n      swap1\n      pop\n        /* \"#utility.yul\":15109:15342   */\n      swap2\n      swap1\n      pop\n      jump\t// out\n        /* \"#utility.yul\":15348:15571   */\n    tag_125:\n        /* \"#utility.yul\":15488:15522   */\n      0x4e6f7420656e6f7567682076616c6964207369676e6174757265732070726f76\n        /* \"#utility.yul\":15484:15485   */\n      0x00\n        /* \"#utility.yul\":15476:15482   */\n      dup3\n        /* \"#utility.yul\":15472:15486   */\n      add\n        /* \"#utility.yul\":15465:15523   */\n      mstore\n        /* \"#utility.yul\":15557:15563   */\n      0x6964656400000000000000000000000000000000000000000000000000000000\n        /* \"#utility.yul\":15552:15554   */\n      0x20\n        /* \"#utility.yul\":15544:15550   */\n      dup3\n        /* \"#utility.yul\":15540:15555   */\n      add\n        /* \"#utility.yul\":15533:15564   */\n      mstore\n        /* \"#utility.yul\":15348:15571   */\n      pop\n      jump\t// out\n        /* \"#utility.yul\":15577:15943   */\n    tag_126:\n        /* \"#utility.yul\":15719:15722   */\n      0x00\n        /* \"#utility.yul\":15740:15807   */\n      tag_302\n        /* \"#utility.yul\":15804:15806   */\n      0x24\n        /* \"#utility.yul\":15799:15802   */\n      dup4\n        /* \"#utility.yul\":15740:15807   */\n      tag_115\n      jump\t// in\n    tag_302:\n        /* \"#utility.yul\":15733:15807   */\n      swap2\n      pop\n        /* \"#utility.yul\":15816:15909   */\n      tag_303\n        /* \"#utility.yul\":15905:15908   */\n      dup3\n        /* \"#utility.yul\":15816:15909   */\n      tag_125\n      jump\t// in\n    tag_303:\n        /* \"#utility.yul\":15934:15936   */\n      0x40\n        /* \"#utility.yul\":15929:15932   */\n      dup3\n        /* \"#utility.yul\":15925:15937   */\n      add\n        /* \"#utility.yul\":15918:15937   */\n      swap1\n      pop\n        /* \"#utility.yul\":15577:15943   */\n      swap2\n      swap1\n      pop\n      jump\t// out\n        /* \"#utility.yul\":15949:16368   */\n    tag_65:\n        /* \"#utility.yul\":16115:16119   */\n      0x00\n        /* \"#utility.yul\":16153:16155   */\n      0x20\n        /* \"#utility.yul\":16142:16151   */\n      dup3\n        /* \"#utility.yul\":16138:16156   */\n      add\n        /* \"#utility.yul\":16130:16156   */\n      swap1\n      pop\n        /* \"#utility.yul\":16202:16211   */\n      dup2\n        /* \"#utility.yul\":16196:16200   */\n      dup2\n        /* \"#utility.yul\":16192:16212   */\n      sub\n        /* \"#utility.yul\":16188:16189   */\n      0x00\n        /* \"#utility.yul\":16177:16186   */\n      dup4\n        /* \"#utility.yul\":16173:16190   */\n      add\n        /* \"#utility.yul\":16166:16213   */\n      mstore\n        /* \"#utility.yul\":16230:16361   */\n      tag_305\n        /* \"#utility.yul\":16356:16360   */\n      dup2\n        /* \"#utility.yul\":16230:16361   */\n      tag_126\n      jump\t// in\n    tag_305:\n        /* \"#utility.yul\":16222:16361   */\n      swap1\n      pop\n        /* \"#utility.yul\":15949:16368   */\n      swap2\n      swap1\n      pop\n      jump\t// out\n        /* \"#utility.yul\":16374:16472   */\n    tag_127:\n        /* \"#utility.yul\":16425:16431   */\n      0x00\n        /* \"#utility.yul\":16459:16464   */\n      dup2\n        /* \"#utility.yul\":16453:16465   */\n      mload\n        /* \"#utility.yul\":16443:16465   */\n      swap1\n      pop\n        /* \"#utility.yul\":16374:16472   */\n      swap2\n      swap1\n      pop\n      jump\t// out\n        /* \"#utility.yul\":16478:16625   */\n    tag_128:\n        /* \"#utility.yul\":16579:16590   */\n      0x00\n        /* \"#utility.yul\":16616:16619   */\n      dup2\n        /* \"#utility.yul\":16601:16619   */\n      swap1\n      pop\n        /* \"#utility.yul\":16478:16625   */\n      swap3\n      swap2\n      pop\n      pop\n      jump\t// out\n        /* \"#utility.yul\":16631:16877   */\n    tag_129:\n        /* \"#utility.yul\":16712:16713   */\n      0x00\n        /* \"#utility.yul\":16722:16835   */\n    tag_309:\n        /* \"#utility.yul\":16736:16742   */\n      dup4\n        /* \"#utility.yul\":16733:16734   */\n      dup2\n        /* \"#utility.yul\":16730:16743   */\n      lt\n        /* \"#utility.yul\":16722:16835   */\n      iszero\n      tag_311\n      jumpi\n        /* \"#utility.yul\":16821:16822   */\n      dup1\n        /* \"#utility.yul\":16816:16819   */\n      dup3\n        /* \"#utility.yul\":16812:16823   */\n      add\n        /* \"#utility.yul\":16806:16824   */\n      mload\n        /* \"#utility.yul\":16802:16803   */\n      dup2\n        /* \"#utility.yul\":16797:16800   */\n      dup5\n        /* \"#utility.yul\":16793:16804   */\n      add\n        /* \"#utility.yul\":16786:16825   */\n      mstore\n        /* \"#utility.yul\":16758:16760   */\n      0x20\n        /* \"#utility.yul\":16755:16756   */\n      dup2\n        /* \"#utility.yul\":16751:16761   */\n      add\n        /* \"#utility.yul\":16746:16761   */\n      swap1\n      pop\n        /* \"#utility.yul\":16722:16835   */\n      jump(tag_309)\n    tag_311:\n        /* \"#utility.yul\":16869:16870   */\n      0x00\n        /* \"#utility.yul\":16860:16866   */\n      dup5\n        /* \"#utility.yul\":16855:16858   */\n      dup5\n        /* \"#utility.yul\":16851:16867   */\n      add\n        /* \"#utility.yul\":16844:16871   */\n      mstore\n        /* \"#utility.yul\":16693:16877   */\n      pop\n        /* \"#utility.yul\":16631:16877   */\n      pop\n      pop\n      pop\n      jump\t// out\n        /* \"#utility.yul\":16883:17269   */\n    tag_130:\n        /* \"#utility.yul\":16987:16990   */\n      0x00\n        /* \"#utility.yul\":17015:17053   */\n      tag_313\n        /* \"#utility.yul\":17047:17052   */\n      dup3\n        /* \"#utility.yul\":17015:17053   */\n      tag_127\n      jump\t// in\n    tag_313:\n        /* \"#utility.yul\":17069:17157   */\n      tag_314\n        /* \"#utility.yul\":17150:17156   */\n      dup2\n        /* \"#utility.yul\":17145:17148   */\n      dup6\n        /* \"#utility.yul\":17069:17157   */\n      tag_128\n      jump\t// in\n    tag_314:\n        /* \"#utility.yul\":17062:17157   */\n      swap4\n      pop\n        /* \"#utility.yul\":17166:17231   */\n      tag_315\n        /* \"#utility.yul\":17224:17230   */\n      dup2\n        /* \"#utility.yul\":17219:17222   */\n      dup6\n        /* \"#utility.yul\":17212:17216   */\n      0x20\n        /* \"#utility.yul\":17205:17210   */\n      dup7\n        /* \"#utility.yul\":17201:17217   */\n      add\n        /* \"#utility.yul\":17166:17231   */\n      tag_129\n      jump\t// in\n    tag_315:\n        /* \"#utility.yul\":17256:17262   */\n      dup1\n        /* \"#utility.yul\":17251:17254   */\n      dup5\n        /* \"#utility.yul\":17247:17263   */\n      add\n        /* \"#utility.yul\":17240:17263   */\n      swap2\n      pop\n        /* \"#utility.yul\":16991:17269   */\n      pop\n        /* \"#utility.yul\":16883:17269   */\n      swap3\n      swap2\n      pop\n      pop\n      jump\t// out\n        /* \"#utility.yul\":17275:17546   */\n    tag_68:\n        /* \"#utility.yul\":17405:17408   */\n      0x00\n        /* \"#utility.yul\":17427:17520   */\n      tag_317\n        /* \"#utility.yul\":17516:17519   */\n      dup3\n        /* \"#utility.yul\":17507:17513   */\n      dup5\n        /* \"#utility.yul\":17427:17520   */\n      tag_130\n      jump\t// in\n    tag_317:\n        /* \"#utility.yul\":17420:17520   */\n      swap2\n      pop\n        /* \"#utility.yul\":17537:17540   */\n      dup2\n        /* \"#utility.yul\":17530:17540   */\n      swap1\n      pop\n        /* \"#utility.yul\":17275:17546   */\n      swap3\n      swap2\n      pop\n      pop\n      jump\t// out\n        /* \"#utility.yul\":17552:17718   */\n    tag_131:\n        /* \"#utility.yul\":17692:17710   */\n      0x457865637574696f6e206661696c656400000000000000000000000000000000\n        /* \"#utility.yul\":17688:17689   */\n      0x00\n        /* \"#utility.yul\":17680:17686   */\n      dup3\n        /* \"#utility.yul\":17676:17690   */\n      add\n        /* \"#utility.yul\":17669:17711   */\n      mstore\n        /* \"#utility.yul\":17552:17718   */\n      pop\n      jump\t// out\n        /* \"#utility.yul\":17724:18090   */\n    tag_132:\n        /* \"#utility.yul\":17866:17869   */\n      0x00\n        /* \"#utility.yul\":17887:17954   */\n      tag_320\n        /* \"#utility.yul\":17951:17953   */\n      0x10\n        /* \"#utility.yul\":17946:17949   */\n      dup4\n        /* \"#utility.yul\":17887:17954   */\n      tag_115\n      jump\t// in\n    tag_320:\n        /* \"#utility.yul\":17880:17954   */\n      swap2\n      pop\n        /* \"#utility.yul\":17963:18056   */\n      tag_321\n        /* \"#utility.yul\":18052:18055   */\n      dup3\n        /* \"#utility.yul\":17963:18056   */\n      tag_131\n      jump\t// in\n    tag_321:\n        /* \"#utility.yul\":18081:18083   */\n      0x20\n        /* \"#utility.yul\":18076:18079   */\n      dup3\n        /* \"#utility.yul\":18072:18084   */\n      add\n        /* \"#utility.yul\":18065:18084   */\n      swap1\n      pop\n        /* \"#utility.yul\":17724:18090   */\n      swap2\n      swap1\n      pop\n      jump\t// out\n        /* \"#utility.yul\":18096:18515   */\n    tag_74:\n        /* \"#utility.yul\":18262:18266   */\n      0x00\n        /* \"#utility.yul\":18300:18302   */\n      0x20\n        /* \"#utility.yul\":18289:18298   */\n      dup3\n        /* \"#utility.yul\":18285:18303   */\n      add\n        /* \"#utility.yul\":18277:18303   */\n      swap1\n      pop\n        /* \"#utility.yul\":18349:18358   */\n      dup2\n        /* \"#utility.yul\":18343:18347   */\n      dup2\n        /* \"#utility.yul\":18339:18359   */\n      sub\n        /* \"#utility.yul\":18335:18336   */\n      0x00\n        /* \"#utility.yul\":18324:18333   */\n      dup4\n        /* \"#utility.yul\":18320:18337   */\n      add\n        /* \"#utility.yul\":18313:18360   */\n      mstore\n        /* \"#utility.yul\":18377:18508   */\n      tag_323\n        /* \"#utility.yul\":18503:18507   */\n      dup2\n        /* \"#utility.yul\":18377:18508   */\n      tag_132\n      jump\t// in\n    tag_323:\n        /* \"#utility.yul\":18369:18508   */\n      swap1\n      pop\n        /* \"#utility.yul\":18096:18515   */\n      swap2\n      swap1\n      pop\n      jump\t// out\n        /* \"#utility.yul\":18521:18615   */\n    tag_133:\n        /* \"#utility.yul\":18554:18562   */\n      0x00\n        /* \"#utility.yul\":18602:18607   */\n      dup2\n        /* \"#utility.yul\":18598:18600   */\n      0x60\n        /* \"#utility.yul\":18594:18608   */\n      shl\n        /* \"#utility.yul\":18573:18608   */\n      swap1\n      pop\n        /* \"#utility.yul\":18521:18615   */\n      swap2\n      swap1\n      pop\n      jump\t// out\n        /* \"#utility.yul\":18621:18715   */\n    tag_134:\n        /* \"#utility.yul\":18660:18667   */\n      0x00\n        /* \"#utility.yul\":18689:18709   */\n      tag_326\n        /* \"#utility.yul\":18703:18708   */\n      dup3\n        /* \"#utility.yul\":18689:18709   */\n      tag_133\n      jump\t// in\n    tag_326:\n        /* \"#utility.yul\":18678:18709   */\n      swap1\n      pop\n        /* \"#utility.yul\":18621:18715   */\n      swap2\n      swap1\n      pop\n      jump\t// out\n        /* \"#utility.yul\":18721:18821   */\n    tag_135:\n        /* \"#utility.yul\":18760:18767   */\n      0x00\n        /* \"#utility.yul\":18789:18815   */\n      tag_328\n        /* \"#utility.yul\":18809:18814   */\n      dup3\n        /* \"#utility.yul\":18789:18815   */\n      tag_134\n      jump\t// in\n    tag_328:\n        /* \"#utility.yul\":18778:18815   */\n      swap1\n      pop\n        /* \"#utility.yul\":18721:18821   */\n      swap2\n      swap1\n      pop\n      jump\t// out\n        /* \"#utility.yul\":18827:18984   */\n    tag_136:\n        /* \"#utility.yul\":18932:18977   */\n      tag_330\n        /* \"#utility.yul\":18952:18976   */\n      tag_331\n        /* \"#utility.yul\":18970:18975   */\n      dup3\n        /* \"#utility.yul\":18952:18976   */\n      tag_85\n      jump\t// in\n    tag_331:\n        /* \"#utility.yul\":18932:18977   */\n      tag_135\n      jump\t// in\n    tag_330:\n        /* \"#utility.yul\":18927:18930   */\n      dup3\n        /* \"#utility.yul\":18920:18978   */\n      mstore\n        /* \"#utility.yul\":18827:18984   */\n      pop\n      pop\n      jump\t// out\n        /* \"#utility.yul\":18990:19069   */\n    tag_137:\n        /* \"#utility.yul\":19029:19036   */\n      0x00\n        /* \"#utility.yul\":19058:19063   */\n      dup2\n        /* \"#utility.yul\":19047:19063   */\n      swap1\n      pop\n        /* \"#utility.yul\":18990:19069   */\n      swap2\n      swap1\n      pop\n      jump\t// out\n        /* \"#utility.yul\":19075:19232   */\n    tag_138:\n        /* \"#utility.yul\":19180:19225   */\n      tag_334\n        /* \"#utility.yul\":19200:19224   */\n      tag_335\n        /* \"#utility.yul\":19218:19223   */\n      dup3\n        /* \"#utility.yul\":19200:19224   */\n      tag_81\n      jump\t// in\n    tag_335:\n        /* \"#utility.yul\":19180:19225   */\n      tag_137\n      jump\t// in\n    tag_334:\n        /* \"#utility.yul\":19175:19178   */\n      dup3\n        /* \"#utility.yul\":19168:19226   */\n      mstore\n        /* \"#utility.yul\":19075:19232   */\n      pop\n      pop\n      jump\t// out\n        /* \"#utility.yul\":19238:19932   */\n    tag_77:\n        /* \"#utility.yul\":19452:19455   */\n      0x00\n        /* \"#utility.yul\":19467:19542   */\n      tag_337\n        /* \"#utility.yul\":19538:19541   */\n      dup3\n        /* \"#utility.yul\":19529:19535   */\n      dup8\n        /* \"#utility.yul\":19467:19542   */\n      tag_136\n      jump\t// in\n    tag_337:\n        /* \"#utility.yul\":19567:19569   */\n      0x14\n        /* \"#utility.yul\":19562:19565   */\n      dup3\n        /* \"#utility.yul\":19558:19570   */\n      add\n        /* \"#utility.yul\":19551:19570   */\n      swap2\n      pop\n        /* \"#utility.yul\":19580:19655   */\n      tag_338\n        /* \"#utility.yul\":19651:19654   */\n      dup3\n        /* \"#utility.yul\":19642:19648   */\n      dup7\n        /* \"#utility.yul\":19580:19655   */\n      tag_138\n      jump\t// in\n    tag_338:\n        /* \"#utility.yul\":19680:19682   */\n      0x20\n        /* \"#utility.yul\":19675:19678   */\n      dup3\n        /* \"#utility.yul\":19671:19683   */\n      add\n        /* \"#utility.yul\":19664:19683   */\n      swap2\n      pop\n        /* \"#utility.yul\":19700:19793   */\n      tag_339\n        /* \"#utility.yul\":19789:19792   */\n      dup3\n        /* \"#utility.yul\":19780:19786   */\n      dup6\n        /* \"#utility.yul\":19700:19793   */\n      tag_130\n      jump\t// in\n    tag_339:\n        /* \"#utility.yul\":19693:19793   */\n      swap2\n      pop\n        /* \"#utility.yul\":19803:19878   */\n      tag_340\n        /* \"#utility.yul\":19874:19877   */\n      dup3\n        /* \"#utility.yul\":19865:19871   */\n      dup5\n        /* \"#utility.yul\":19803:19878   */\n      tag_138\n      jump\t// in\n    tag_340:\n        /* \"#utility.yul\":19903:19905   */\n      0x20\n        /* \"#utility.yul\":19898:19901   */\n      dup3\n        /* \"#utility.yul\":19894:19906   */\n      add\n        /* \"#utility.yul\":19887:19906   */\n      swap2\n      pop\n        /* \"#utility.yul\":19923:19926   */\n      dup2\n        /* \"#utility.yul\":19916:19926   */\n      swap1\n      pop\n        /* \"#utility.yul\":19238:19932   */\n      swap6\n      swap5\n      pop\n      pop\n      pop\n      pop\n      pop\n      jump\t// out\n\n    auxdata: 0xa2646970667358221220e4f7b0f7c83773757369c5ec5affa4f8148bc7d6311da346afa156de16b6900664736f6c63430008120033\n}\n",
				"bytecode": {
					"linkReferences": {},
					"object": "60806040523480156200001157600080fd5b506040516200165e3803806200165e833981810160405281019062000037919062000488565b60008111801562000049575080825110155b6200008b576040517f08c379a000000000000000000000000000000000000000000000000000000000815260040162000082906200054f565b60405180910390fd5b60005b82518110156200024f5760016000848381518110620000b257620000b162000571565b5b602002602001015173ffffffffffffffffffffffffffffffffffffffff1673ffffffffffffffffffffffffffffffffffffffff16815260200190815260200160002060009054906101000a900460ff161562000145576040517f08c379a00000000000000000000000000000000000000000000000000000000081526004016200013c90620005f0565b60405180910390fd5b600180600085848151811062000160576200015f62000571565b5b602002602001015173ffffffffffffffffffffffffffffffffffffffff1673ffffffffffffffffffffffffffffffffffffffff16815260200190815260200160002060006101000a81548160ff0219169083151502179055506002838281518110620001d157620001d062000571565b5b60200260200101519080600181540180825580915050600190039060005260206000200160009091909190916101000a81548173ffffffffffffffffffffffffffffffffffffffff021916908373ffffffffffffffffffffffffffffffffffffffff1602179055508080620002469062000641565b9150506200008e565b508060038190555050506200068e565b6000604051905090565b600080fd5b600080fd5b600080fd5b6000601f19601f8301169050919050565b7f4e487b7100000000000000000000000000000000000000000000000000000000600052604160045260246000fd5b620002c38262000278565b810181811067ffffffffffffffff82111715620002e557620002e462000289565b5b80604052505050565b6000620002fa6200025f565b9050620003088282620002b8565b919050565b600067ffffffffffffffff8211156200032b576200032a62000289565b5b602082029050602081019050919050565b600080fd5b600073ffffffffffffffffffffffffffffffffffffffff82169050919050565b60006200036e8262000341565b9050919050565b620003808162000361565b81146200038c57600080fd5b50565b600081519050620003a08162000375565b92915050565b6000620003bd620003b7846200030d565b620002ee565b90508083825260208201905060208402830185811115620003e357620003e26200033c565b5b835b81811015620004105780620003fb88826200038f565b845260208401935050602081019050620003e5565b5050509392505050565b600082601f83011262000432576200043162000273565b5b815162000444848260208601620003a6565b91505092915050565b6000819050919050565b62000462816200044d565b81146200046e57600080fd5b50565b600081519050620004828162000457565b92915050565b60008060408385031215620004a257620004a162000269565b5b600083015167ffffffffffffffff811115620004c357620004c26200026e565b5b620004d1858286016200041a565b9250506020620004e48582860162000471565b9150509250929050565b600082825260208201905092915050565b7f496e76616c696420706172616d65746572730000000000000000000000000000600082015250565b600062000537601283620004ee565b91506200054482620004ff565b602082019050919050565b600060208201905081810360008301526200056a8162000528565b9050919050565b7f4e487b7100000000000000000000000000000000000000000000000000000000600052603260045260246000fd5b7f4475706c6963617465206f776e65720000000000000000000000000000000000600082015250565b6000620005d8600f83620004ee565b9150620005e582620005a0565b602082019050919050565b600060208201905081810360008301526200060b81620005c9565b9050919050565b7f4e487b7100000000000000000000000000000000000000000000000000000000600052601160045260246000fd5b60006200064e826200044d565b91507fffffffffffffffffffffffffffffffffffffffffffffffffffffffffffffffff820362000683576200068262000612565b5b600182019050919050565b610fc0806200069e6000396000f3fe608060405234801561001057600080fd5b50600436106100575760003560e01c8063025e7c271461005c5780632f54bf6e1461008c5780633a49183e146100bc57806342cde4e8146100d8578063affed0e0146100f6575b600080fd5b6100766004803603810190610071919061054e565b610114565b60405161008391906105bc565b60405180910390f35b6100a660048036038101906100a19190610603565b610153565b6040516100b3919061064b565b60405180910390f35b6100d660048036038101906100d191906109a6565b610173565b005b6100e06104bf565b6040516100ed9190610ab2565b60405180910390f35b6100fe6104c5565b60405161010b9190610ab2565b60405180910390f35b6002818154811061012457600080fd5b906000526020600020016000915054906101000a900473ffffffffffffffffffffffffffffffffffffffff1681565b60016020528060005260406000206000915054906101000a900460ff1681565b600354825110156101b9576040517f08c379a00000000000000000000000000000000000000000000000000000000081526004016101b090610b2a565b60405180910390fd5b60006101c98787876000546104cb565b905060008060005b85518110156103a95760006001858984815181106101f2576101f1610b4a565b5b602002602001015189858151811061020d5761020c610b4a565b5b602002602001015189868151811061022857610227610b4a565b5b60200260200101516040516000815260200160405260405161024d9493929190610b97565b6020604051602081039080840390855afa15801561026f573d6000803e3d6000fd5b505050602060405103519050600160008273ffffffffffffffffffffffffffffffffffffffff1673ffffffffffffffffffffffffffffffffffffffff16815260200190815260200160002060009054906101000a900460ff16610307576040517f08c379a00000000000000000000000000000000000000000000000000000000081526004016102fe90610c28565b60405180910390fd5b8373ffffffffffffffffffffffffffffffffffffffff168173ffffffffffffffffffffffffffffffffffffffff1611610375576040517f08c379a000000000000000000000000000000000000000000000000000000000815260040161036c90610cba565b60405180910390fd5b809350828061038390610d09565b935050600354830361039557506103a9565b5080806103a190610d09565b9150506101d1565b5060035481146103ee576040517f08c379a00000000000000000000000000000000000000000000000000000000081526004016103e590610dc3565b60405180910390fd5b60008081548092919061040090610d09565b919050555060008973ffffffffffffffffffffffffffffffffffffffff16898960405161042d9190610e54565b60006040518083038185875af1925050503d806000811461046a576040519150601f19603f3d011682016040523d82523d6000602084013e61046f565b606091505b50509050806104b3576040517f08c379a00000000000000000000000000000000000000000000000000000000081526004016104aa90610eb7565b60405180910390fd5b50505050505050505050565b60035481565b60005481565b6000848484846040516020016104e49493929190610f40565b604051602081830303815290604052805190602001209050949350505050565b6000604051905090565b600080fd5b600080fd5b6000819050919050565b61052b81610518565b811461053657600080fd5b50565b60008135905061054881610522565b92915050565b6000602082840312156105645761056361050e565b5b600061057284828501610539565b91505092915050565b600073ffffffffffffffffffffffffffffffffffffffff82169050919050565b60006105a68261057b565b9050919050565b6105b68161059b565b82525050565b60006020820190506105d160008301846105ad565b92915050565b6105e08161059b565b81146105eb57600080fd5b50565b6000813590506105fd816105d7565b92915050565b6000602082840312156106195761061861050e565b5b6000610627848285016105ee565b91505092915050565b60008115159050919050565b61064581610630565b82525050565b6000602082019050610660600083018461063c565b92915050565b600080fd5b600080fd5b6000601f19601f8301169050919050565b7f4e487b7100000000000000000000000000000000000000000000000000000000600052604160045260246000fd5b6106b982610670565b810181811067ffffffffffffffff821117156106d8576106d7610681565b5b80604052505050565b60006106eb610504565b90506106f782826106b0565b919050565b600067ffffffffffffffff82111561071757610716610681565b5b61072082610670565b9050602081019050919050565b82818337600083830152505050565b600061074f61074a846106fc565b6106e1565b90508281526020810184848401111561076b5761076a61066b565b5b61077684828561072d565b509392505050565b600082601f83011261079357610792610666565b5b81356107a384826020860161073c565b91505092915050565b600067ffffffffffffffff8211156107c7576107c6610681565b5b602082029050602081019050919050565b600080fd5b600060ff82169050919050565b6107f3816107dd565b81146107fe57600080fd5b50565b600081359050610810816107ea565b92915050565b6000610829610824846107ac565b6106e1565b9050808382526020820190506020840283018581111561084c5761084b6107d8565b5b835b8181101561087557806108618882610801565b84526020840193505060208101905061084e565b5050509392505050565b600082601f83011261089457610893610666565b5b81356108a4848260208601610816565b91505092915050565b600067ffffffffffffffff8211156108c8576108c7610681565b5b602082029050602081019050919050565b6000819050919050565b6108ec816108d9565b81146108f757600080fd5b50565b600081359050610909816108e3565b92915050565b600061092261091d846108ad565b6106e1565b90508083825260208201905060208402830185811115610945576109446107d8565b5b835b8181101561096e578061095a88826108fa565b845260208401935050602081019050610947565b5050509392505050565b600082601f83011261098d5761098c610666565b5b813561099d84826020860161090f565b91505092915050565b60008060008060008060c087890312156109c3576109c261050e565b5b60006109d189828a016105ee565b96505060206109e289828a01610539565b955050604087013567ffffffffffffffff811115610a0357610a02610513565b5b610a0f89828a0161077e565b945050606087013567ffffffffffffffff811115610a3057610a2f610513565b5b610a3c89828a0161087f565b935050608087013567ffffffffffffffff811115610a5d57610a5c610513565b5b610a6989828a01610978565b92505060a087013567ffffffffffffffff811115610a8a57610a89610513565b5b610a9689828a01610978565b9150509295509295509295565b610aac81610518565b82525050565b6000602082019050610ac76000830184610aa3565b92915050565b600082825260208201905092915050565b7f4e6f7420656e6f756768207369676e6174757265732070726f76696465640000600082015250565b6000610b14601e83610acd565b9150610b1f82610ade565b602082019050919050565b60006020820190508181036000830152610b4381610b07565b9050919050565b7f4e487b7100000000000000000000000000000000000000000000000000000000600052603260045260246000fd5b610b82816108d9565b82525050565b610b91816107dd565b82525050565b6000608082019050610bac6000830187610b79565b610bb96020830186610b88565b610bc66040830185610b79565b610bd36060830184610b79565b95945050505050565b7f496e76616c6964207369676e6572000000000000000000000000000000000000600082015250565b6000610c12600e83610acd565b9150610c1d82610bdc565b602082019050919050565b60006020820190508181036000830152610c4181610c05565b9050919050565b7f5369676e657273206d75737420626520756e6971756520616e6420696e20617360008201527f63656e64696e67206f7264657200000000000000000000000000000000000000602082015250565b6000610ca4602d83610acd565b9150610caf82610c48565b604082019050919050565b60006020820190508181036000830152610cd381610c97565b9050919050565b7f4e487b7100000000000000000000000000000000000000000000000000000000600052601160045260246000fd5b6000610d1482610518565b91507fffffffffffffffffffffffffffffffffffffffffffffffffffffffffffffffff8203610d4657610d45610cda565b5b600182019050919050565b7f4e6f7420656e6f7567682076616c6964207369676e6174757265732070726f7660008201527f6964656400000000000000000000000000000000000000000000000000000000602082015250565b6000610dad602483610acd565b9150610db882610d51565b604082019050919050565b60006020820190508181036000830152610ddc81610da0565b9050919050565b600081519050919050565b600081905092915050565b60005b83811015610e17578082015181840152602081019050610dfc565b60008484015250505050565b6000610e2e82610de3565b610e388185610dee565b9350610e48818560208601610df9565b80840191505092915050565b6000610e608284610e23565b915081905092915050565b7f457865637574696f6e206661696c656400000000000000000000000000000000600082015250565b6000610ea1601083610acd565b9150610eac82610e6b565b602082019050919050565b60006020820190508181036000830152610ed081610e94565b9050919050565b60008160601b9050919050565b6000610eef82610ed7565b9050919050565b6000610f0182610ee4565b9050919050565b610f19610f148261059b565b610ef6565b82525050565b6000819050919050565b610f3a610f3582610518565b610f1f565b82525050565b6000610f4c8287610f08565b601482019150610f5c8286610f29565b602082019150610f6c8285610e23565b9150610f788284610f29565b6020820191508190509594505050505056fea2646970667358221220e4f7b0f7c83773757369c5ec5affa4f8148bc7d6311da346afa156de16b6900664736f6c63430008120033",
					"opcodes": "PUSH1 0x80 PUSH1 0x40 MSTORE CALLVALUE DUP1 ISZERO PUSH3 0x11 JUMPI PUSH1 0x0 DUP1 REVERT JUMPDEST POP PUSH1 0x40 MLOAD PUSH3 0x165E CODESIZE SUB DUP1 PUSH3 0x165E DUP4 CODECOPY DUP2 DUP2 ADD PUSH1 0x40 MSTORE DUP2 ADD SWAP1 PUSH3 0x37 SWAP2 SWAP1 PUSH3 0x488 JUMP JUMPDEST PUSH1 0x0 DUP2 GT DUP1 ISZERO PUSH3 0x49 JUMPI POP DUP1 DUP3 MLOAD LT ISZERO JUMPDEST PUSH3 0x8B JUMPI PUSH1 0x40 MLOAD PUSH32 0x8C379A000000000000000000000000000000000000000000000000000000000 DUP2 MSTORE PUSH1 0x4 ADD PUSH3 0x82 SWAP1 PUSH3 0x54F JUMP JUMPDEST PUSH1 0x40 MLOAD DUP1 SWAP2 SUB SWAP1 REVERT JUMPDEST PUSH1 0x0 JUMPDEST DUP3 MLOAD DUP2 LT ISZERO PUSH3 0x24F JUMPI PUSH1 0x1 PUSH1 0x0 DUP5 DUP4 DUP2 MLOAD DUP2 LT PUSH3 0xB2 JUMPI PUSH3 0xB1 PUSH3 0x571 JUMP JUMPDEST JUMPDEST PUSH1 0x20 MUL PUSH1 0x20 ADD ADD MLOAD PUSH20 0xFFFFFFFFFFFFFFFFFFFFFFFFFFFFFFFFFFFFFFFF AND PUSH20 0xFFFFFFFFFFFFFFFFFFFFFFFFFFFFFFFFFFFFFFFF AND DUP2 MSTORE PUSH1 0x20 ADD SWAP1 DUP2 MSTORE PUSH1 0x20 ADD PUSH1 0x0 KECCAK256 PUSH1 0x0 SWAP1 SLOAD SWAP1 PUSH2 0x100 EXP SWAP1 DIV PUSH1 0xFF AND ISZERO PUSH3 0x145 JUMPI PUSH1 0x40 MLOAD PUSH32 0x8C379A000000000000000000000000000000000000000000000000000000000 DUP2 MSTORE PUSH1 0x4 ADD PUSH3 0x13C SWAP1 PUSH3 0x5F0 JUMP JUMPDEST PUSH1 0x40 MLOAD DUP1 SWAP2 SUB SWAP1 REVERT JUMPDEST PUSH1 0x1 DUP1 PUSH1 0x0 DUP6 DUP5 DUP2 MLOAD DUP2 LT PUSH3 0x160 JUMPI PUSH3 0x15F PUSH3 0x571 JUMP JUMPDEST JUMPDEST PUSH1 0x20 MUL PUSH1 0x20 ADD ADD MLOAD PUSH20 0xFFFFFFFFFFFFFFFFFFFFFFFFFFFFFFFFFFFFFFFF AND PUSH20 0xFFFFFFFFFFFFFFFFFFFFFFFFFFFFFFFFFFFFFFFF AND DUP2 MSTORE PUSH1 0x20 ADD SWAP1 DUP2 MSTORE PUSH1 0x20 ADD PUSH1 0x0 KECCAK256 PUSH1 0x0 PUSH2 0x100 EXP DUP2 SLOAD DUP2 PUSH1 0xFF MUL NOT AND SWAP1 DUP4 ISZERO ISZERO MUL OR SWAP1 SSTORE POP PUSH1 0x2 DUP4 DUP3 DUP2 MLOAD DUP2 LT PUSH3 0x1D1 JUMPI PUSH3 0x1D0 PUSH3 0x571 JUMP JUMPDEST JUMPDEST PUSH1 0x20 MUL PUSH1 0x20 ADD ADD MLOAD SWAP1 DUP1 PUSH1 0x1 DUP2 SLOAD ADD DUP1 DUP3 SSTORE DUP1 SWAP2 POP POP PUSH1 0x1 SWAP1 SUB SWAP1 PUSH1 0x0 MSTORE PUSH1 0x20 PUSH1 0x0 KECCAK256 ADD PUSH1 0x0 SWAP1 SWAP2 SWAP1 SWAP2 SWAP1 SWAP2 PUSH2 0x100 EXP DUP2 SLOAD DUP2 PUSH20 0xFFFFFFFFFFFFFFFFFFFFFFFFFFFFFFFFFFFFFFFF MUL NOT AND SWAP1 DUP4 PUSH20 0xFFFFFFFFFFFFFFFFFFFFFFFFFFFFFFFFFFFFFFFF AND MUL OR SWAP1 SSTORE POP DUP1 DUP1 PUSH3 0x246 SWAP1 PUSH3 0x641 JUMP JUMPDEST SWAP2 POP POP PUSH3 0x8E JUMP JUMPDEST POP DUP1 PUSH1 0x3 DUP2 SWAP1 SSTORE POP POP POP PUSH3 0x68E JUMP JUMPDEST PUSH1 0x0 PUSH1 0x40 MLOAD SWAP1 POP SWAP1 JUMP JUMPDEST PUSH1 0x0 DUP1 REVERT JUMPDEST PUSH1 0x0 DUP1 REVERT JUMPDEST PUSH1 0x0 DUP1 REVERT JUMPDEST PUSH1 0x0 PUSH1 0x1F NOT PUSH1 0x1F DUP4 ADD AND SWAP1 POP SWAP2 SWAP1 POP JUMP JUMPDEST PUSH32 0x4E487B7100000000000000000000000000000000000000000000000000000000 PUSH1 0x0 MSTORE PUSH1 0x41 PUSH1 0x4 MSTORE PUSH1 0x24 PUSH1 0x0 REVERT JUMPDEST PUSH3 0x2C3 DUP3 PUSH3 0x278 JUMP JUMPDEST DUP2 ADD DUP2 DUP2 LT PUSH8 0xFFFFFFFFFFFFFFFF DUP3 GT OR ISZERO PUSH3 0x2E5 JUMPI PUSH3 0x2E4 PUSH3 0x289 JUMP JUMPDEST JUMPDEST DUP1 PUSH1 0x40 MSTORE POP POP POP JUMP JUMPDEST PUSH1 0x0 PUSH3 0x2FA PUSH3 0x25F JUMP JUMPDEST SWAP1 POP PUSH3 0x308 DUP3 DUP3 PUSH3 0x2B8 JUMP JUMPDEST SWAP2 SWAP1 POP JUMP JUMPDEST PUSH1 0x0 PUSH8 0xFFFFFFFFFFFFFFFF DUP3 GT ISZERO PUSH3 0x32B JUMPI PUSH3 0x32A PUSH3 0x289 JUMP JUMPDEST JUMPDEST PUSH1 0x20 DUP3 MUL SWAP1 POP PUSH1 0x20 DUP2 ADD SWAP1 POP SWAP2 SWAP1 POP JUMP JUMPDEST PUSH1 0x0 DUP1 REVERT JUMPDEST PUSH1 0x0 PUSH20 0xFFFFFFFFFFFFFFFFFFFFFFFFFFFFFFFFFFFFFFFF DUP3 AND SWAP1 POP SWAP2 SWAP1 POP JUMP JUMPDEST PUSH1 0x0 PUSH3 0x36E DUP3 PUSH3 0x341 JUMP JUMPDEST SWAP1 POP SWAP2 SWAP1 POP JUMP JUMPDEST PUSH3 0x380 DUP2 PUSH3 0x361 JUMP JUMPDEST DUP2 EQ PUSH3 0x38C JUMPI PUSH1 0x0 DUP1 REVERT JUMPDEST POP JUMP JUMPDEST PUSH1 0x0 DUP2 MLOAD SWAP1 POP PUSH3 0x3A0 DUP2 PUSH3 0x375 JUMP JUMPDEST SWAP3 SWAP2 POP POP JUMP JUMPDEST PUSH1 0x0 PUSH3 0x3BD PUSH3 0x3B7 DUP5 PUSH3 0x30D JUMP JUMPDEST PUSH3 0x2EE JUMP JUMPDEST SWAP1 POP DUP1 DUP4 DUP3 MSTORE PUSH1 0x20 DUP3 ADD SWAP1 POP PUSH1 0x20 DUP5 MUL DUP4 ADD DUP6 DUP2 GT ISZERO PUSH3 0x3E3 JUMPI PUSH3 0x3E2 PUSH3 0x33C JUMP JUMPDEST JUMPDEST DUP4 JUMPDEST DUP2 DUP2 LT ISZERO PUSH3 0x410 JUMPI DUP1 PUSH3 0x3FB DUP9 DUP3 PUSH3 0x38F JUMP JUMPDEST DUP5 MSTORE PUSH1 0x20 DUP5 ADD SWAP4 POP POP PUSH1 0x20 DUP2 ADD SWAP1 POP PUSH3 0x3E5 JUMP JUMPDEST POP POP POP SWAP4 SWAP3 POP POP POP JUMP JUMPDEST PUSH1 0x0 DUP3 PUSH1 0x1F DUP4 ADD SLT PUSH3 0x432 JUMPI PUSH3 0x431 PUSH3 0x273 JUMP JUMPDEST JUMPDEST DUP2 MLOAD PUSH3 0x444 DUP5 DUP3 PUSH1 0x20 DUP7 ADD PUSH3 0x3A6 JUMP JUMPDEST SWAP2 POP POP SWAP3 SWAP2 POP POP JUMP JUMPDEST PUSH1 0x0 DUP2 SWAP1 POP SWAP2 SWAP1 POP JUMP JUMPDEST PUSH3 0x462 DUP2 PUSH3 0x44D JUMP JUMPDEST DUP2 EQ PUSH3 0x46E JUMPI PUSH1 0x0 DUP1 REVERT JUMPDEST POP JUMP JUMPDEST PUSH1 0x0 DUP2 MLOAD SWAP1 POP PUSH3 0x482 DUP2 PUSH3 0x457 JUMP JUMPDEST SWAP3 SWAP2 POP POP JUMP JUMPDEST PUSH1 0x0 DUP1 PUSH1 0x40 DUP4 DUP6 SUB SLT ISZERO PUSH3 0x4A2 JUMPI PUSH3 0x4A1 PUSH3 0x269 JUMP JUMPDEST JUMPDEST PUSH1 0x0 DUP4 ADD MLOAD PUSH8 0xFFFFFFFFFFFFFFFF DUP2 GT ISZERO PUSH3 0x4C3 JUMPI PUSH3 0x4C2 PUSH3 0x26E JUMP JUMPDEST JUMPDEST PUSH3 0x4D1 DUP6 DUP3 DUP7 ADD PUSH3 0x41A JUMP JUMPDEST SWAP3 POP POP PUSH1 0x20 PUSH3 0x4E4 DUP6 DUP3 DUP7 ADD PUSH3 0x471 JUMP JUMPDEST SWAP2 POP POP SWAP3 POP SWAP3 SWAP1 POP JUMP JUMPDEST PUSH1 0x0 DUP3 DUP3 MSTORE PUSH1 0x20 DUP3 ADD SWAP1 POP SWAP3 SWAP2 POP POP JUMP JUMPDEST PUSH32 0x496E76616C696420706172616D65746572730000000000000000000000000000 PUSH1 0x0 DUP3 ADD MSTORE POP JUMP JUMPDEST PUSH1 0x0 PUSH3 0x537 PUSH1 0x12 DUP4 PUSH3 0x4EE JUMP JUMPDEST SWAP2 POP PUSH3 0x544 DUP3 PUSH3 0x4FF JUMP JUMPDEST PUSH1 0x20 DUP3 ADD SWAP1 POP SWAP2 SWAP1 POP JUMP JUMPDEST PUSH1 0x0 PUSH1 0x20 DUP3 ADD SWAP1 POP DUP2 DUP2 SUB PUSH1 0x0 DUP4 ADD MSTORE PUSH3 0x56A DUP2 PUSH3 0x528 JUMP JUMPDEST SWAP1 POP SWAP2 SWAP1 POP JUMP JUMPDEST PUSH32 0x4E487B7100000000000000000000000000000000000000000000000000000000 PUSH1 0x0 MSTORE PUSH1 0x32 PUSH1 0x4 MSTORE PUSH1 0x24 PUSH1 0x0 REVERT JUMPDEST PUSH32 0x4475706C6963617465206F776E65720000000000000000000000000000000000 PUSH1 0x0 DUP3 ADD MSTORE POP JUMP JUMPDEST PUSH1 0x0 PUSH3 0x5D8 PUSH1 0xF DUP4 PUSH3 0x4EE JUMP JUMPDEST SWAP2 POP PUSH3 0x5E5 DUP3 PUSH3 0x5A0 JUMP JUMPDEST PUSH1 0x20 DUP3 ADD SWAP1 POP SWAP2 SWAP1 POP JUMP JUMPDEST PUSH1 0x0 PUSH1 0x20 DUP3 ADD SWAP1 POP DUP2 DUP2 SUB PUSH1 0x0 DUP4 ADD MSTORE PUSH3 0x60B DUP2 PUSH3 0x5C9 JUMP JUMPDEST SWAP1 POP SWAP2 SWAP1 POP JUMP JUMPDEST PUSH32 0x4E487B7100000000000000000000000000000000000000000000000000000000 PUSH1 0x0 MSTORE PUSH1 0x11 PUSH1 0x4 MSTORE PUSH1 0x24 PUSH1 0x0 REVERT JUMPDEST PUSH1 0x0 PUSH3 0x64E DUP3 PUSH3 0x44D JUMP JUMPDEST SWAP2 POP PUSH32 0xFFFFFFFFFFFFFFFFFFFFFFFFFFFFFFFFFFFFFFFFFFFFFFFFFFFFFFFFFFFFFFFF DUP3 SUB PUSH3 0x683 JUMPI PUSH3 0x682 PUSH3 0x612 JUMP JUMPDEST JUMPDEST PUSH1 0x1 DUP3 ADD SWAP1 POP SWAP2 SWAP1 POP JUMP JUMPDEST PUSH2 0xFC0 DUP1 PUSH3 0x69E PUSH1 0x0 CODECOPY PUSH1 0x0 RETURN INVALID PUSH1 0x80 PUSH1 0x40 MSTORE CALLVALUE DUP1 ISZERO PUSH2 0x10 JUMPI PUSH1 0x0 DUP1 REVERT JUMPDEST POP PUSH1 0x4 CALLDATASIZE LT PUSH2 0x57 JUMPI PUSH1 0x0 CALLDATALOAD PUSH1 0xE0 SHR DUP1 PUSH4 0x25E7C27 EQ PUSH2 0x5C JUMPI DUP1 PUSH4 0x2F54BF6E EQ PUSH2 0x8C JUMPI DUP1 PUSH4 0x3A49183E EQ PUSH2 0xBC JUMPI DUP1 PUSH4 0x42CDE4E8 EQ PUSH2 0xD8 JUMPI DUP1 PUSH4 0xAFFED0E0 EQ PUSH2 0xF6 JUMPI JUMPDEST PUSH1 0x0 DUP1 REVERT JUMPDEST PUSH2 0x76 PUSH1 0x4 DUP1 CALLDATASIZE SUB DUP2 ADD SWAP1 PUSH2 0x71 SWAP2 SWAP1 PUSH2 0x54E JUMP JUMPDEST PUSH2 0x114 JUMP JUMPDEST PUSH1 0x40 MLOAD PUSH2 0x83 SWAP2 SWAP1 PUSH2 0x5BC JUMP JUMPDEST PUSH1 0x40 MLOAD DUP1 SWAP2 SUB SWAP1 RETURN JUMPDEST PUSH2 0xA6 PUSH1 0x4 DUP1 CALLDATASIZE SUB DUP2 ADD SWAP1 PUSH2 0xA1 SWAP2 SWAP1 PUSH2 0x603 JUMP JUMPDEST PUSH2 0x153 JUMP JUMPDEST PUSH1 0x40 MLOAD PUSH2 0xB3 SWAP2 SWAP1 PUSH2 0x64B JUMP JUMPDEST PUSH1 0x40 MLOAD DUP1 SWAP2 SUB SWAP1 RETURN JUMPDEST PUSH2 0xD6 PUSH1 0x4 DUP1 CALLDATASIZE SUB DUP2 ADD SWAP1 PUSH2 0xD1 SWAP2 SWAP1 PUSH2 0x9A6 JUMP JUMPDEST PUSH2 0x173 JUMP JUMPDEST STOP JUMPDEST PUSH2 0xE0 PUSH2 0x4BF JUMP JUMPDEST PUSH1 0x40 MLOAD PUSH2 0xED SWAP2 SWAP1 PUSH2 0xAB2 JUMP JUMPDEST PUSH1 0x40 MLOAD DUP1 SWAP2 SUB SWAP1 RETURN JUMPDEST PUSH2 0xFE PUSH2 0x4C5 JUMP JUMPDEST PUSH1 0x40 MLOAD PUSH2 0x10B SWAP2 SWAP1 PUSH2 0xAB2 JUMP JUMPDEST PUSH1 0x40 MLOAD DUP1 SWAP2 SUB SWAP1 RETURN JUMPDEST PUSH1 0x2 DUP2 DUP2 SLOAD DUP2 LT PUSH2 0x124 JUMPI PUSH1 0x0 DUP1 REVERT JUMPDEST SWAP1 PUSH1 0x0 MSTORE PUSH1 0x20 PUSH1 0x0 KECCAK256 ADD PUSH1 0x0 SWAP2 POP SLOAD SWAP1 PUSH2 0x100 EXP SWAP1 DIV PUSH20 0xFFFFFFFFFFFFFFFFFFFFFFFFFFFFFFFFFFFFFFFF AND DUP2 JUMP JUMPDEST PUSH1 0x1 PUSH1 0x20 MSTORE DUP1 PUSH1 0x0 MSTORE PUSH1 0x40 PUSH1 0x0 KECCAK256 PUSH1 0x0 SWAP2 POP SLOAD SWAP1 PUSH2 0x100 EXP SWAP1 DIV PUSH1 0xFF AND DUP2 JUMP JUMPDEST PUSH1 0x3 SLOAD DUP3 MLOAD LT ISZERO PUSH2 0x1B9 JUMPI PUSH1 0x40 MLOAD PUSH32 0x8C379A000000000000000000000000000000000000000000000000000000000 DUP2 MSTORE PUSH1 0x4 ADD PUSH2 0x1B0 SWAP1 PUSH2 0xB2A JUMP JUMPDEST PUSH1 0x40 MLOAD DUP1 SWAP2 SUB SWAP1 REVERT JUMPDEST PUSH1 0x0 PUSH2 0x1C9 DUP8 DUP8 DUP8 PUSH1 0x0 SLOAD PUSH2 0x4CB JUMP JUMPDEST SWAP1 POP PUSH1 0x0 DUP1 PUSH1 0x0 JUMPDEST DUP6 MLOAD DUP2 LT ISZERO PUSH2 0x3A9 JUMPI PUSH1 0x0 PUSH1 0x1 DUP6 DUP10 DUP5 DUP2 MLOAD DUP2 LT PUSH2 0x1F2 JUMPI PUSH2 0x1F1 PUSH2 0xB4A JUMP JUMPDEST JUMPDEST PUSH1 0x20 MUL PUSH1 0x20 ADD ADD MLOAD DUP10 DUP6 DUP2 MLOAD DUP2 LT PUSH2 0x20D JUMPI PUSH2 0x20C PUSH2 0xB4A JUMP JUMPDEST JUMPDEST PUSH1 0x20 MUL PUSH1 0x20 ADD ADD MLOAD DUP10 DUP7 DUP2 MLOAD DUP2 LT PUSH2 0x228 JUMPI PUSH2 0x227 PUSH2 0xB4A JUMP JUMPDEST JUMPDEST PUSH1 0x20 MUL PUSH1 0x20 ADD ADD MLOAD PUSH1 0x40 MLOAD PUSH1 0x0 DUP2 MSTORE PUSH1 0x20 ADD PUSH1 0x40 MSTORE PUSH1 0x40 MLOAD PUSH2 0x24D SWAP5 SWAP4 SWAP3 SWAP2 SWAP1 PUSH2 0xB97 JUMP JUMPDEST PUSH1 0x20 PUSH1 0x40 MLOAD PUSH1 0x20 DUP2 SUB SWAP1 DUP1 DUP5 SUB SWAP1 DUP6 GAS STATICCALL ISZERO DUP1 ISZERO PUSH2 0x26F JUMPI RETURNDATASIZE PUSH1 0x0 DUP1 RETURNDATACOPY RETURNDATASIZE PUSH1 0x0 REVERT JUMPDEST POP POP POP PUSH1 0x20 PUSH1 0x40 MLOAD SUB MLOAD SWAP1 POP PUSH1 0x1 PUSH1 0x0 DUP3 PUSH20 0xFFFFFFFFFFFFFFFFFFFFFFFFFFFFFFFFFFFFFFFF AND PUSH20 0xFFFFFFFFFFFFFFFFFFFFFFFFFFFFFFFFFFFFFFFF AND DUP2 MSTORE PUSH1 0x20 ADD SWAP1 DUP2 MSTORE PUSH1 0x20 ADD PUSH1 0x0 KECCAK256 PUSH1 0x0 SWAP1 SLOAD SWAP1 PUSH2 0x100 EXP SWAP1 DIV PUSH1 0xFF AND PUSH2 0x307 JUMPI PUSH1 0x40 MLOAD PUSH32 0x8C379A000000000000000000000000000000000000000000000000000000000 DUP2 MSTORE PUSH1 0x4 ADD PUSH2 0x2FE SWAP1 PUSH2 0xC28 JUMP JUMPDEST PUSH1 0x40 MLOAD DUP1 SWAP2 SUB SWAP1 REVERT JUMPDEST DUP4 PUSH20 0xFFFFFFFFFFFFFFFFFFFFFFFFFFFFFFFFFFFFFFFF AND DUP2 PUSH20 0xFFFFFFFFFFFFFFFFFFFFFFFFFFFFFFFFFFFFFFFF AND GT PUSH2 0x375 JUMPI PUSH1 0x40 MLOAD PUSH32 0x8C379A000000000000000000000000000000000000000000000000000000000 DUP2 MSTORE PUSH1 0x4 ADD PUSH2 0x36C SWAP1 PUSH2 0xCBA JUMP JUMPDEST PUSH1 0x40 MLOAD DUP1 SWAP2 SUB SWAP1 REVERT JUMPDEST DUP1 SWAP4 POP DUP3 DUP1 PUSH2 0x383 SWAP1 PUSH2 0xD09 JUMP JUMPDEST SWAP4 POP POP PUSH1 0x3 SLOAD DUP4 SUB PUSH2 0x395 JUMPI POP PUSH2 0x3A9 JUMP JUMPDEST POP DUP1 DUP1 PUSH2 0x3A1 SWAP1 PUSH2 0xD09 JUMP JUMPDEST SWAP2 POP POP PUSH2 0x1D1 JUMP JUMPDEST POP PUSH1 0x3 SLOAD DUP2 EQ PUSH2 0x3EE JUMPI PUSH1 0x40 MLOAD PUSH32 0x8C379A000000000000000000000000000000000000000000000000000000000 DUP2 MSTORE PUSH1 0x4 ADD PUSH2 0x3E5 SWAP1 PUSH2 0xDC3 JUMP JUMPDEST PUSH1 0x40 MLOAD DUP1 SWAP2 SUB SWAP1 REVERT JUMPDEST PUSH1 0x0 DUP1 DUP2 SLOAD DUP1 SWAP3 SWAP2 SWAP1 PUSH2 0x400 SWAP1 PUSH2 0xD09 JUMP JUMPDEST SWAP2 SWAP1 POP SSTORE POP PUSH1 0x0 DUP10 PUSH20 0xFFFFFFFFFFFFFFFFFFFFFFFFFFFFFFFFFFFFFFFF AND DUP10 DUP10 PUSH1 0x40 MLOAD PUSH2 0x42D SWAP2 SWAP1 PUSH2 0xE54 JUMP JUMPDEST PUSH1 0x0 PUSH1 0x40 MLOAD DUP1 DUP4 SUB DUP2 DUP6 DUP8 GAS CALL SWAP3 POP POP POP RETURNDATASIZE DUP1 PUSH1 0x0 DUP2 EQ PUSH2 0x46A JUMPI PUSH1 0x40 MLOAD SWAP2 POP PUSH1 0x1F NOT PUSH1 0x3F RETURNDATASIZE ADD AND DUP3 ADD PUSH1 0x40 MSTORE RETURNDATASIZE DUP3 MSTORE RETURNDATASIZE PUSH1 0x0 PUSH1 0x20 DUP5 ADD RETURNDATACOPY PUSH2 0x46F JUMP JUMPDEST PUSH1 0x60 SWAP2 POP JUMPDEST POP POP SWAP1 POP DUP1 PUSH2 0x4B3 JUMPI PUSH1 0x40 MLOAD PUSH32 0x8C379A000000000000000000000000000000000000000000000000000000000 DUP2 MSTORE PUSH1 0x4 ADD PUSH2 0x4AA SWAP1 PUSH2 0xEB7 JUMP JUMPDEST PUSH1 0x40 MLOAD DUP1 SWAP2 SUB SWAP1 REVERT JUMPDEST POP POP POP POP POP POP POP POP POP POP JUMP JUMPDEST PUSH1 0x3 SLOAD DUP2 JUMP JUMPDEST PUSH1 0x0 SLOAD DUP2 JUMP JUMPDEST PUSH1 0x0 DUP5 DUP5 DUP5 DUP5 PUSH1 0x40 MLOAD PUSH1 0x20 ADD PUSH2 0x4E4 SWAP5 SWAP4 SWAP3 SWAP2 SWAP1 PUSH2 0xF40 JUMP JUMPDEST PUSH1 0x40 MLOAD PUSH1 0x20 DUP2 DUP4 SUB SUB DUP2 MSTORE SWAP1 PUSH1 0x40 MSTORE DUP1 MLOAD SWAP1 PUSH1 0x20 ADD KECCAK256 SWAP1 POP SWAP5 SWAP4 POP POP POP POP JUMP JUMPDEST PUSH1 0x0 PUSH1 0x40 MLOAD SWAP1 POP SWAP1 JUMP JUMPDEST PUSH1 0x0 DUP1 REVERT JUMPDEST PUSH1 0x0 DUP1 REVERT JUMPDEST PUSH1 0x0 DUP2 SWAP1 POP SWAP2 SWAP1 POP JUMP JUMPDEST PUSH2 0x52B DUP2 PUSH2 0x518 JUMP JUMPDEST DUP2 EQ PUSH2 0x536 JUMPI PUSH1 0x0 DUP1 REVERT JUMPDEST POP JUMP JUMPDEST PUSH1 0x0 DUP2 CALLDATALOAD SWAP1 POP PUSH2 0x548 DUP2 PUSH2 0x522 JUMP JUMPDEST SWAP3 SWAP2 POP POP JUMP JUMPDEST PUSH1 0x0 PUSH1 0x20 DUP3 DUP5 SUB SLT ISZERO PUSH2 0x564 JUMPI PUSH2 0x563 PUSH2 0x50E JUMP JUMPDEST JUMPDEST PUSH1 0x0 PUSH2 0x572 DUP5 DUP3 DUP6 ADD PUSH2 0x539 JUMP JUMPDEST SWAP2 POP POP SWAP3 SWAP2 POP POP JUMP JUMPDEST PUSH1 0x0 PUSH20 0xFFFFFFFFFFFFFFFFFFFFFFFFFFFFFFFFFFFFFFFF DUP3 AND SWAP1 POP SWAP2 SWAP1 POP JUMP JUMPDEST PUSH1 0x0 PUSH2 0x5A6 DUP3 PUSH2 0x57B JUMP JUMPDEST SWAP1 POP SWAP2 SWAP1 POP JUMP JUMPDEST PUSH2 0x5B6 DUP2 PUSH2 0x59B JUMP JUMPDEST DUP3 MSTORE POP POP JUMP JUMPDEST PUSH1 0x0 PUSH1 0x20 DUP3 ADD SWAP1 POP PUSH2 0x5D1 PUSH1 0x0 DUP4 ADD DUP5 PUSH2 0x5AD JUMP JUMPDEST SWAP3 SWAP2 POP POP JUMP JUMPDEST PUSH2 0x5E0 DUP2 PUSH2 0x59B JUMP JUMPDEST DUP2 EQ PUSH2 0x5EB JUMPI PUSH1 0x0 DUP1 REVERT JUMPDEST POP JUMP JUMPDEST PUSH1 0x0 DUP2 CALLDATALOAD SWAP1 POP PUSH2 0x5FD DUP2 PUSH2 0x5D7 JUMP JUMPDEST SWAP3 SWAP2 POP POP JUMP JUMPDEST PUSH1 0x0 PUSH1 0x20 DUP3 DUP5 SUB SLT ISZERO PUSH2 0x619 JUMPI PUSH2 0x618 PUSH2 0x50E JUMP JUMPDEST JUMPDEST PUSH1 0x0 PUSH2 0x627 DUP5 DUP3 DUP6 ADD PUSH2 0x5EE JUMP JUMPDEST SWAP2 POP POP SWAP3 SWAP2 POP POP JUMP JUMPDEST PUSH1 0x0 DUP2 ISZERO ISZERO SWAP1 POP SWAP2 SWAP1 POP JUMP JUMPDEST PUSH2 0x645 DUP2 PUSH2 0x630 JUMP JUMPDEST DUP3 MSTORE POP POP JUMP JUMPDEST PUSH1 0x0 PUSH1 0x20 DUP3 ADD SWAP1 POP PUSH2 0x660 PUSH1 0x0 DUP4 ADD DUP5 PUSH2 0x63C JUMP JUMPDEST SWAP3 SWAP2 POP POP JUMP JUMPDEST PUSH1 0x0 DUP1 REVERT JUMPDEST PUSH1 0x0 DUP1 REVERT JUMPDEST PUSH1 0x0 PUSH1 0x1F NOT PUSH1 0x1F DUP4 ADD AND SWAP1 POP SWAP2 SWAP1 POP JUMP JUMPDEST PUSH32 0x4E487B7100000000000000000000000000000000000000000000000000000000 PUSH1 0x0 MSTORE PUSH1 0x41 PUSH1 0x4 MSTORE PUSH1 0x24 PUSH1 0x0 REVERT JUMPDEST PUSH2 0x6B9 DUP3 PUSH2 0x670 JUMP JUMPDEST DUP2 ADD DUP2 DUP2 LT PUSH8 0xFFFFFFFFFFFFFFFF DUP3 GT OR ISZERO PUSH2 0x6D8 JUMPI PUSH2 0x6D7 PUSH2 0x681 JUMP JUMPDEST JUMPDEST DUP1 PUSH1 0x40 MSTORE POP POP POP JUMP JUMPDEST PUSH1 0x0 PUSH2 0x6EB PUSH2 0x504 JUMP JUMPDEST SWAP1 POP PUSH2 0x6F7 DUP3 DUP3 PUSH2 0x6B0 JUMP JUMPDEST SWAP2 SWAP1 POP JUMP JUMPDEST PUSH1 0x0 PUSH8 0xFFFFFFFFFFFFFFFF DUP3 GT ISZERO PUSH2 0x717 JUMPI PUSH2 0x716 PUSH2 0x681 JUMP JUMPDEST JUMPDEST PUSH2 0x720 DUP3 PUSH2 0x670 JUMP JUMPDEST SWAP1 POP PUSH1 0x20 DUP2 ADD SWAP1 POP SWAP2 SWAP1 POP JUMP JUMPDEST DUP3 DUP2 DUP4 CALLDATACOPY PUSH1 0x0 DUP4 DUP4 ADD MSTORE POP POP POP JUMP JUMPDEST PUSH1 0x0 PUSH2 0x74F PUSH2 0x74A DUP5 PUSH2 0x6FC JUMP JUMPDEST PUSH2 0x6E1 JUMP JUMPDEST SWAP1 POP DUP3 DUP2 MSTORE PUSH1 0x20 DUP2 ADD DUP5 DUP5 DUP5 ADD GT ISZERO PUSH2 0x76B JUMPI PUSH2 0x76A PUSH2 0x66B JUMP JUMPDEST JUMPDEST PUSH2 0x776 DUP5 DUP3 DUP6 PUSH2 0x72D JUMP JUMPDEST POP SWAP4 SWAP3 POP POP POP JUMP JUMPDEST PUSH1 0x0 DUP3 PUSH1 0x1F DUP4 ADD SLT PUSH2 0x793 JUMPI PUSH2 0x792 PUSH2 0x666 JUMP JUMPDEST JUMPDEST DUP2 CALLDATALOAD PUSH2 0x7A3 DUP5 DUP3 PUSH1 0x20 DUP7 ADD PUSH2 0x73C JUMP JUMPDEST SWAP2 POP POP SWAP3 SWAP2 POP POP JUMP JUMPDEST PUSH1 0x0 PUSH8 0xFFFFFFFFFFFFFFFF DUP3 GT ISZERO PUSH2 0x7C7 JUMPI PUSH2 0x7C6 PUSH2 0x681 JUMP JUMPDEST JUMPDEST PUSH1 0x20 DUP3 MUL SWAP1 POP PUSH1 0x20 DUP2 ADD SWAP1 POP SWAP2 SWAP1 POP JUMP JUMPDEST PUSH1 0x0 DUP1 REVERT JUMPDEST PUSH1 0x0 PUSH1 0xFF DUP3 AND SWAP1 POP SWAP2 SWAP1 POP JUMP JUMPDEST PUSH2 0x7F3 DUP2 PUSH2 0x7DD JUMP JUMPDEST DUP2 EQ PUSH2 0x7FE JUMPI PUSH1 0x0 DUP1 REVERT JUMPDEST POP JUMP JUMPDEST PUSH1 0x0 DUP2 CALLDATALOAD SWAP1 POP PUSH2 0x810 DUP2 PUSH2 0x7EA JUMP JUMPDEST SWAP3 SWAP2 POP POP JUMP JUMPDEST PUSH1 0x0 PUSH2 0x829 PUSH2 0x824 DUP5 PUSH2 0x7AC JUMP JUMPDEST PUSH2 0x6E1 JUMP JUMPDEST SWAP1 POP DUP1 DUP4 DUP3 MSTORE PUSH1 0x20 DUP3 ADD SWAP1 POP PUSH1 0x20 DUP5 MUL DUP4 ADD DUP6 DUP2 GT ISZERO PUSH2 0x84C JUMPI PUSH2 0x84B PUSH2 0x7D8 JUMP JUMPDEST JUMPDEST DUP4 JUMPDEST DUP2 DUP2 LT ISZERO PUSH2 0x875 JUMPI DUP1 PUSH2 0x861 DUP9 DUP3 PUSH2 0x801 JUMP JUMPDEST DUP5 MSTORE PUSH1 0x20 DUP5 ADD SWAP4 POP POP PUSH1 0x20 DUP2 ADD SWAP1 POP PUSH2 0x84E JUMP JUMPDEST POP POP POP SWAP4 SWAP3 POP POP POP JUMP JUMPDEST PUSH1 0x0 DUP3 PUSH1 0x1F DUP4 ADD SLT PUSH2 0x894 JUMPI PUSH2 0x893 PUSH2 0x666 JUMP JUMPDEST JUMPDEST DUP2 CALLDATALOAD PUSH2 0x8A4 DUP5 DUP3 PUSH1 0x20 DUP7 ADD PUSH2 0x816 JUMP JUMPDEST SWAP2 POP POP SWAP3 SWAP2 POP POP JUMP JUMPDEST PUSH1 0x0 PUSH8 0xFFFFFFFFFFFFFFFF DUP3 GT ISZERO PUSH2 0x8C8 JUMPI PUSH2 0x8C7 PUSH2 0x681 JUMP JUMPDEST JUMPDEST PUSH1 0x20 DUP3 MUL SWAP1 POP PUSH1 0x20 DUP2 ADD SWAP1 POP SWAP2 SWAP1 POP JUMP JUMPDEST PUSH1 0x0 DUP2 SWAP1 POP SWAP2 SWAP1 POP JUMP JUMPDEST PUSH2 0x8EC DUP2 PUSH2 0x8D9 JUMP JUMPDEST DUP2 EQ PUSH2 0x8F7 JUMPI PUSH1 0x0 DUP1 REVERT JUMPDEST POP JUMP JUMPDEST PUSH1 0x0 DUP2 CALLDATALOAD SWAP1 POP PUSH2 0x909 DUP2 PUSH2 0x8E3 JUMP JUMPDEST SWAP3 SWAP2 POP POP JUMP JUMPDEST PUSH1 0x0 PUSH2 0x922 PUSH2 0x91D DUP5 PUSH2 0x8AD JUMP JUMPDEST PUSH2 0x6E1 JUMP JUMPDEST SWAP1 POP DUP1 DUP4 DUP3 MSTORE PUSH1 0x20 DUP3 ADD SWAP1 POP PUSH1 0x20 DUP5 MUL DUP4 ADD DUP6 DUP2 GT ISZERO PUSH2 0x945 JUMPI PUSH2 0x944 PUSH2 0x7D8 JUMP JUMPDEST JUMPDEST DUP4 JUMPDEST DUP2 DUP2 LT ISZERO PUSH2 0x96E JUMPI DUP1 PUSH2 0x95A DUP9 DUP3 PUSH2 0x8FA JUMP JUMPDEST DUP5 MSTORE PUSH1 0x20 DUP5 ADD SWAP4 POP POP PUSH1 0x20 DUP2 ADD SWAP1 POP PUSH2 0x947 JUMP JUMPDEST POP POP POP SWAP4 SWAP3 POP POP POP JUMP JUMPDEST PUSH1 0x0 DUP3 PUSH1 0x1F DUP4 ADD SLT PUSH2 0x98D JUMPI PUSH2 0x98C PUSH2 0x666 JUMP JUMPDEST JUMPDEST DUP2 CALLDATALOAD PUSH2 0x99D DUP5 DUP3 PUSH1 0x20 DUP7 ADD PUSH2 0x90F JUMP JUMPDEST SWAP2 POP POP SWAP3 SWAP2 POP POP JUMP JUMPDEST PUSH1 0x0 DUP1 PUSH1 0x0 DUP1 PUSH1 0x0 DUP1 PUSH1 0xC0 DUP8 DUP10 SUB SLT ISZERO PUSH2 0x9C3 JUMPI PUSH2 0x9C2 PUSH2 0x50E JUMP JUMPDEST JUMPDEST PUSH1 0x0 PUSH2 0x9D1 DUP10 DUP3 DUP11 ADD PUSH2 0x5EE JUMP JUMPDEST SWAP7 POP POP PUSH1 0x20 PUSH2 0x9E2 DUP10 DUP3 DUP11 ADD PUSH2 0x539 JUMP JUMPDEST SWAP6 POP POP PUSH1 0x40 DUP8 ADD CALLDATALOAD PUSH8 0xFFFFFFFFFFFFFFFF DUP2 GT ISZERO PUSH2 0xA03 JUMPI PUSH2 0xA02 PUSH2 0x513 JUMP JUMPDEST JUMPDEST PUSH2 0xA0F DUP10 DUP3 DUP11 ADD PUSH2 0x77E JUMP JUMPDEST SWAP5 POP POP PUSH1 0x60 DUP8 ADD CALLDATALOAD PUSH8 0xFFFFFFFFFFFFFFFF DUP2 GT ISZERO PUSH2 0xA30 JUMPI PUSH2 0xA2F PUSH2 0x513 JUMP JUMPDEST JUMPDEST PUSH2 0xA3C DUP10 DUP3 DUP11 ADD PUSH2 0x87F JUMP JUMPDEST SWAP4 POP POP PUSH1 0x80 DUP8 ADD CALLDATALOAD PUSH8 0xFFFFFFFFFFFFFFFF DUP2 GT ISZERO PUSH2 0xA5D JUMPI PUSH2 0xA5C PUSH2 0x513 JUMP JUMPDEST JUMPDEST PUSH2 0xA69 DUP10 DUP3 DUP11 ADD PUSH2 0x978 JUMP JUMPDEST SWAP3 POP POP PUSH1 0xA0 DUP8 ADD CALLDATALOAD PUSH8 0xFFFFFFFFFFFFFFFF DUP2 GT ISZERO PUSH2 0xA8A JUMPI PUSH2 0xA89 PUSH2 0x513 JUMP JUMPDEST JUMPDEST PUSH2 0xA96 DUP10 DUP3 DUP11 ADD PUSH2 0x978 JUMP JUMPDEST SWAP2 POP POP SWAP3 SWAP6 POP SWAP3 SWAP6 POP SWAP3 SWAP6 JUMP JUMPDEST PUSH2 0xAAC DUP2 PUSH2 0x518 JUMP JUMPDEST DUP3 MSTORE POP POP JUMP JUMPDEST PUSH1 0x0 PUSH1 0x20 DUP3 ADD SWAP1 POP PUSH2 0xAC7 PUSH1 0x0 DUP4 ADD DUP5 PUSH2 0xAA3 JUMP JUMPDEST SWAP3 SWAP2 POP POP JUMP JUMPDEST PUSH1 0x0 DUP3 DUP3 MSTORE PUSH1 0x20 DUP3 ADD SWAP1 POP SWAP3 SWAP2 POP POP JUMP JUMPDEST PUSH32 0x4E6F7420656E6F756768207369676E6174757265732070726F76696465640000 PUSH1 0x0 DUP3 ADD MSTORE POP JUMP JUMPDEST PUSH1 0x0 PUSH2 0xB14 PUSH1 0x1E DUP4 PUSH2 0xACD JUMP JUMPDEST SWAP2 POP PUSH2 0xB1F DUP3 PUSH2 0xADE JUMP JUMPDEST PUSH1 0x20 DUP3 ADD SWAP1 POP SWAP2 SWAP1 POP JUMP JUMPDEST PUSH1 0x0 PUSH1 0x20 DUP3 ADD SWAP1 POP DUP2 DUP2 SUB PUSH1 0x0 DUP4 ADD MSTORE PUSH2 0xB43 DUP2 PUSH2 0xB07 JUMP JUMPDEST SWAP1 POP SWAP2 SWAP1 POP JUMP JUMPDEST PUSH32 0x4E487B7100000000000000000000000000000000000000000000000000000000 PUSH1 0x0 MSTORE PUSH1 0x32 PUSH1 0x4 MSTORE PUSH1 0x24 PUSH1 0x0 REVERT JUMPDEST PUSH2 0xB82 DUP2 PUSH2 0x8D9 JUMP JUMPDEST DUP3 MSTORE POP POP JUMP JUMPDEST PUSH2 0xB91 DUP2 PUSH2 0x7DD JUMP JUMPDEST DUP3 MSTORE POP POP JUMP JUMPDEST PUSH1 0x0 PUSH1 0x80 DUP3 ADD SWAP1 POP PUSH2 0xBAC PUSH1 0x0 DUP4 ADD DUP8 PUSH2 0xB79 JUMP JUMPDEST PUSH2 0xBB9 PUSH1 0x20 DUP4 ADD DUP7 PUSH2 0xB88 JUMP JUMPDEST PUSH2 0xBC6 PUSH1 0x40 DUP4 ADD DUP6 PUSH2 0xB79 JUMP JUMPDEST PUSH2 0xBD3 PUSH1 0x60 DUP4 ADD DUP5 PUSH2 0xB79 JUMP JUMPDEST SWAP6 SWAP5 POP POP POP POP POP JUMP JUMPDEST PUSH32 0x496E76616C6964207369676E6572000000000000000000000000000000000000 PUSH1 0x0 DUP3 ADD MSTORE POP JUMP JUMPDEST PUSH1 0x0 PUSH2 0xC12 PUSH1 0xE DUP4 PUSH2 0xACD JUMP JUMPDEST SWAP2 POP PUSH2 0xC1D DUP3 PUSH2 0xBDC JUMP JUMPDEST PUSH1 0x20 DUP3 ADD SWAP1 POP SWAP2 SWAP1 POP JUMP JUMPDEST PUSH1 0x0 PUSH1 0x20 DUP3 ADD SWAP1 POP DUP2 DUP2 SUB PUSH1 0x0 DUP4 ADD MSTORE PUSH2 0xC41 DUP2 PUSH2 0xC05 JUMP JUMPDEST SWAP1 POP SWAP2 SWAP1 POP JUMP JUMPDEST PUSH32 0x5369676E657273206D75737420626520756E6971756520616E6420696E206173 PUSH1 0x0 DUP3 ADD MSTORE PUSH32 0x63656E64696E67206F7264657200000000000000000000000000000000000000 PUSH1 0x20 DUP3 ADD MSTORE POP JUMP JUMPDEST PUSH1 0x0 PUSH2 0xCA4 PUSH1 0x2D DUP4 PUSH2 0xACD JUMP JUMPDEST SWAP2 POP PUSH2 0xCAF DUP3 PUSH2 0xC48 JUMP JUMPDEST PUSH1 0x40 DUP3 ADD SWAP1 POP SWAP2 SWAP1 POP JUMP JUMPDEST PUSH1 0x0 PUSH1 0x20 DUP3 ADD SWAP1 POP DUP2 DUP2 SUB PUSH1 0x0 DUP4 ADD MSTORE PUSH2 0xCD3 DUP2 PUSH2 0xC97 JUMP JUMPDEST SWAP1 POP SWAP2 SWAP1 POP JUMP JUMPDEST PUSH32 0x4E487B7100000000000000000000000000000000000000000000000000000000 PUSH1 0x0 MSTORE PUSH1 0x11 PUSH1 0x4 MSTORE PUSH1 0x24 PUSH1 0x0 REVERT JUMPDEST PUSH1 0x0 PUSH2 0xD14 DUP3 PUSH2 0x518 JUMP JUMPDEST SWAP2 POP PUSH32 0xFFFFFFFFFFFFFFFFFFFFFFFFFFFFFFFFFFFFFFFFFFFFFFFFFFFFFFFFFFFFFFFF DUP3 SUB PUSH2 0xD46 JUMPI PUSH2 0xD45 PUSH2 0xCDA JUMP JUMPDEST JUMPDEST PUSH1 0x1 DUP3 ADD SWAP1 POP SWAP2 SWAP1 POP JUMP JUMPDEST PUSH32 0x4E6F7420656E6F7567682076616C6964207369676E6174757265732070726F76 PUSH1 0x0 DUP3 ADD MSTORE PUSH32 0x6964656400000000000000000000000000000000000000000000000000000000 PUSH1 0x20 DUP3 ADD MSTORE POP JUMP JUMPDEST PUSH1 0x0 PUSH2 0xDAD PUSH1 0x24 DUP4 PUSH2 0xACD JUMP JUMPDEST SWAP2 POP PUSH2 0xDB8 DUP3 PUSH2 0xD51 JUMP JUMPDEST PUSH1 0x40 DUP3 ADD SWAP1 POP SWAP2 SWAP1 POP JUMP JUMPDEST PUSH1 0x0 PUSH1 0x20 DUP3 ADD SWAP1 POP DUP2 DUP2 SUB PUSH1 0x0 DUP4 ADD MSTORE PUSH2 0xDDC DUP2 PUSH2 0xDA0 JUMP JUMPDEST SWAP1 POP SWAP2 SWAP1 POP JUMP JUMPDEST PUSH1 0x0 DUP2 MLOAD SWAP1 POP SWAP2 SWAP1 POP JUMP JUMPDEST PUSH1 0x0 DUP2 SWAP1 POP SWAP3 SWAP2 POP POP JUMP JUMPDEST PUSH1 0x0 JUMPDEST DUP4 DUP2 LT ISZERO PUSH2 0xE17 JUMPI DUP1 DUP3 ADD MLOAD DUP2 DUP5 ADD MSTORE PUSH1 0x20 DUP2 ADD SWAP1 POP PUSH2 0xDFC JUMP JUMPDEST PUSH1 0x0 DUP5 DUP5 ADD MSTORE POP POP POP POP JUMP JUMPDEST PUSH1 0x0 PUSH2 0xE2E DUP3 PUSH2 0xDE3 JUMP JUMPDEST PUSH2 0xE38 DUP2 DUP6 PUSH2 0xDEE JUMP JUMPDEST SWAP4 POP PUSH2 0xE48 DUP2 DUP6 PUSH1 0x20 DUP7 ADD PUSH2 0xDF9 JUMP JUMPDEST DUP1 DUP5 ADD SWAP2 POP POP SWAP3 SWAP2 POP POP JUMP JUMPDEST PUSH1 0x0 PUSH2 0xE60 DUP3 DUP5 PUSH2 0xE23 JUMP JUMPDEST SWAP2 POP DUP2 SWAP1 POP SWAP3 SWAP2 POP POP JUMP JUMPDEST PUSH32 0x457865637574696F6E206661696C656400000000000000000000000000000000 PUSH1 0x0 DUP3 ADD MSTORE POP JUMP JUMPDEST PUSH1 0x0 PUSH2 0xEA1 PUSH1 0x10 DUP4 PUSH2 0xACD JUMP JUMPDEST SWAP2 POP PUSH2 0xEAC DUP3 PUSH2 0xE6B JUMP JUMPDEST PUSH1 0x20 DUP3 ADD SWAP1 POP SWAP2 SWAP1 POP JUMP JUMPDEST PUSH1 0x0 PUSH1 0x20 DUP3 ADD SWAP1 POP DUP2 DUP2 SUB PUSH1 0x0 DUP4 ADD MSTORE PUSH2 0xED0 DUP2 PUSH2 0xE94 JUMP JUMPDEST SWAP1 POP SWAP2 SWAP1 POP JUMP JUMPDEST PUSH1 0x0 DUP2 PUSH1 0x60 SHL SWAP1 POP SWAP2 SWAP1 POP JUMP JUMPDEST PUSH1 0x0 PUSH2 0xEEF DUP3 PUSH2 0xED7 JUMP JUMPDEST SWAP1 POP SWAP2 SWAP1 POP JUMP JUMPDEST PUSH1 0x0 PUSH2 0xF01 DUP3 PUSH2 0xEE4 JUMP JUMPDEST SWAP1 POP SWAP2 SWAP1 POP JUMP JUMPDEST PUSH2 0xF19 PUSH2 0xF14 DUP3 PUSH2 0x59B JUMP JUMPDEST PUSH2 0xEF6 JUMP JUMPDEST DUP3 MSTORE POP POP JUMP JUMPDEST PUSH1 0x0 DUP2 SWAP1 POP SWAP2 SWAP1 POP JUMP JUMPDEST PUSH2 0xF3A PUSH2 0xF35 DUP3 PUSH2 0x518 JUMP JUMPDEST PUSH2 0xF1F JUMP JUMPDEST DUP3 MSTORE POP POP JUMP JUMPDEST PUSH1 0x0 PUSH2 0xF4C DUP3 DUP8 PUSH2 0xF08 JUMP JUMPDEST PUSH1 0x14 DUP3 ADD SWAP2 POP PUSH2 0xF5C DUP3 DUP7 PUSH2 0xF29 JUMP JUMPDEST PUSH1 0x20 DUP3 ADD SWAP2 POP PUSH2 0xF6C DUP3 DUP6 PUSH2 0xE23 JUMP JUMPDEST SWAP2 POP PUSH2 0xF78 DUP3 DUP5 PUSH2 0xF29 JUMP JUMPDEST PUSH1 0x20 DUP3 ADD SWAP2 POP DUP2 SWAP1 POP SWAP6 SWAP5 POP POP POP POP POP JUMP INVALID LOG2 PUSH5 0x6970667358 0x22 SLT KECCAK256 0xE4 0xF7 0xB0 0xF7 0xC8 CALLDATACOPY PUSH20 0x757369C5EC5AFFA4F8148BC7D6311DA346AFA156 0xDE AND 0xB6 SWAP1 MOD PUSH5 0x736F6C6343 STOP ADDMOD SLT STOP CALLER "
				},
				"gasEstimates": {
					"creation": {
						"codeDepositCost": "806400",
						"executionCost": "infinite",
						"totalCost": "infinite"
					},
					"external": {
						"execute(address,uint256,bytes,uint8[],bytes32[],bytes32[])": "infinite",
						"isOwner(address)": "2845",
						"nonce()": "2495",
						"owners(uint256)": "4934",
						"threshold()": "2473"
					},
					"internal": {
						"getTransactionHash(address,uint256,bytes memory,uint256)": "infinite"
					}
				},
				"methodIdentifiers": {
					"execute(address,uint256,bytes,uint8[],bytes32[],bytes32[])": "3a49183e",
					"isOwner(address)": "2f54bf6e",
					"nonce()": "affed0e0",
					"owners(uint256)": "025e7c27",
					"threshold()": "42cde4e8"
				}
			},
			"storageLayout": {
				"storage": [
					{
						"astId": 3,
						"contract": "contracts/14-MultiSignatureVault/multiSignatureVault.sol:MultiSigWallet",
						"label": "nonce",
						"offset": 0,
						"slot": "0",
						"type": "t_uint256"
					},
					{
						"astId": 7,
						"contract": "contracts/14-MultiSignatureVault/multiSignatureVault.sol:MultiSigWallet",
						"label": "isOwner",
						"offset": 0,
						"slot": "1",
						"type": "t_mapping(t_address,t_bool)"
					},
					{
						"astId": 10,
						"contract": "contracts/14-MultiSignatureVault/multiSignatureVault.sol:MultiSigWallet",
						"label": "owners",
						"offset": 0,
						"slot": "2",
						"type": "t_array(t_address)dyn_storage"
					},
					{
						"astId": 12,
						"contract": "contracts/14-MultiSignatureVault/multiSignatureVault.sol:MultiSigWallet",
						"label": "threshold",
						"offset": 0,
						"slot": "3",
						"type": "t_uint256"
					}
				],
				"types": {
					"t_address": {
						"encoding": "inplace",
						"label": "address",
						"numberOfBytes": "20"
					},
					"t_array(t_address)dyn_storage": {
						"base": "t_address",
						"encoding": "dynamic_array",
						"label": "address[]",
						"numberOfBytes": "32"
					},
					"t_bool": {
						"encoding": "inplace",
						"label": "bool",
						"numberOfBytes": "1"
					},
					"t_mapping(t_address,t_bool)": {
						"encoding": "mapping",
						"key": "t_address",
						"label": "mapping(address => bool)",
						"numberOfBytes": "32",
						"value": "t_bool"
					},
					"t_uint256": {
						"encoding": "inplace",
						"label": "uint256",
						"numberOfBytes": "32"
					}
				}
			},
			"userdoc": {
				"kind": "user",
				"methods": {},
				"version": 1
			}
		}
	}
}