{
	"contracts/7-Withdraw_Funds/funds_to_recepients.sol": {
		"Withdrawable": {
			"abi": [
				{
					"inputs": [],
					"stateMutability": "payable",
					"type": "constructor"
				},
				{
					"inputs": [],
					"name": "getBalance",
					"outputs": [
						{
							"internalType": "uint256",
							"name": "",
							"type": "uint256"
						}
					],
					"stateMutability": "view",
					"type": "function"
				},
				{
					"inputs": [],
					"name": "owner",
					"outputs": [
						{
							"internalType": "address payable",
							"name": "",
							"type": "address"
						}
					],
					"stateMutability": "view",
					"type": "function"
				},
				{
					"inputs": [
						{
							"internalType": "address payable",
							"name": "recipient",
							"type": "address"
						},
						{
							"internalType": "uint256",
							"name": "amount",
							"type": "uint256"
						}
					],
					"name": "withdraw",
					"outputs": [],
					"stateMutability": "nonpayable",
					"type": "function"
				}
			],
			"devdoc": {
				"kind": "dev",
				"methods": {},
				"version": 1
			},
			"evm": {
				"assembly": "    /* \"contracts/7-Withdraw_Funds/funds_to_recepients.sol\":57:873  contract Withdrawable {... */\n  mstore(0x40, 0x80)\n    /* \"contracts/7-Withdraw_Funds/funds_to_recepients.sol\":176:185  0.1 ether */\n  0x016345785d8a0000\n    /* \"contracts/7-Withdraw_Funds/funds_to_recepients.sol\":163:172  msg.value */\n  callvalue\n    /* \"contracts/7-Withdraw_Funds/funds_to_recepients.sol\":163:185  msg.value >= 0.1 ether */\n  lt\n  iszero\n    /* \"contracts/7-Withdraw_Funds/funds_to_recepients.sol\":155:242  require(msg.value >= 0.1 ether, \"Contract requires at least 0.1 ether to be deployed.\") */\n  tag_3\n  jumpi\n  mload(0x40)\n  0x08c379a000000000000000000000000000000000000000000000000000000000\n  dup2\n  mstore\n  0x04\n  add\n  tag_4\n  swap1\n  tag_5\n  jump\t// in\ntag_4:\n  mload(0x40)\n  dup1\n  swap2\n  sub\n  swap1\n  revert\ntag_3:\n    /* \"contracts/7-Withdraw_Funds/funds_to_recepients.sol\":328:338  msg.sender */\n  caller\n    /* \"contracts/7-Withdraw_Funds/funds_to_recepients.sol\":312:317  owner */\n  0x00\n  dup1\n    /* \"contracts/7-Withdraw_Funds/funds_to_recepients.sol\":312:339  owner = payable(msg.sender) */\n  0x0100\n  exp\n  dup2\n  sload\n  dup2\n  0xffffffffffffffffffffffffffffffffffffffff\n  mul\n  not\n  and\n  swap1\n  dup4\n  0xffffffffffffffffffffffffffffffffffffffff\n  and\n  mul\n  or\n  swap1\n  sstore\n  pop\n    /* \"contracts/7-Withdraw_Funds/funds_to_recepients.sol\":57:873  contract Withdrawable {... */\n  jump(tag_6)\n    /* \"#utility.yul\":7:176   */\ntag_7:\n    /* \"#utility.yul\":91:102   */\n  0x00\n    /* \"#utility.yul\":125:131   */\n  dup3\n    /* \"#utility.yul\":120:123   */\n  dup3\n    /* \"#utility.yul\":113:132   */\n  mstore\n    /* \"#utility.yul\":165:169   */\n  0x20\n    /* \"#utility.yul\":160:163   */\n  dup3\n    /* \"#utility.yul\":156:170   */\n  add\n    /* \"#utility.yul\":141:170   */\n  swap1\n  pop\n    /* \"#utility.yul\":7:176   */\n  swap3\n  swap2\n  pop\n  pop\n  jump\t// out\n    /* \"#utility.yul\":182:421   */\ntag_8:\n    /* \"#utility.yul\":322:356   */\n  0x436f6e7472616374207265717569726573206174206c6561737420302e312065\n    /* \"#utility.yul\":318:319   */\n  0x00\n    /* \"#utility.yul\":310:316   */\n  dup3\n    /* \"#utility.yul\":306:320   */\n  add\n    /* \"#utility.yul\":299:357   */\n  mstore\n    /* \"#utility.yul\":391:413   */\n  0x7468657220746f206265206465706c6f7965642e000000000000000000000000\n    /* \"#utility.yul\":386:388   */\n  0x20\n    /* \"#utility.yul\":378:384   */\n  dup3\n    /* \"#utility.yul\":374:389   */\n  add\n    /* \"#utility.yul\":367:414   */\n  mstore\n    /* \"#utility.yul\":182:421   */\n  pop\n  jump\t// out\n    /* \"#utility.yul\":427:793   */\ntag_9:\n    /* \"#utility.yul\":569:572   */\n  0x00\n    /* \"#utility.yul\":590:657   */\n  tag_14\n    /* \"#utility.yul\":654:656   */\n  0x34\n    /* \"#utility.yul\":649:652   */\n  dup4\n    /* \"#utility.yul\":590:657   */\n  tag_7\n  jump\t// in\ntag_14:\n    /* \"#utility.yul\":583:657   */\n  swap2\n  pop\n    /* \"#utility.yul\":666:759   */\n  tag_15\n    /* \"#utility.yul\":755:758   */\n  dup3\n    /* \"#utility.yul\":666:759   */\n  tag_8\n  jump\t// in\ntag_15:\n    /* \"#utility.yul\":784:786   */\n  0x40\n    /* \"#utility.yul\":779:782   */\n  dup3\n    /* \"#utility.yul\":775:787   */\n  add\n    /* \"#utility.yul\":768:787   */\n  swap1\n  pop\n    /* \"#utility.yul\":427:793   */\n  swap2\n  swap1\n  pop\n  jump\t// out\n    /* \"#utility.yul\":799:1218   */\ntag_5:\n    /* \"#utility.yul\":965:969   */\n  0x00\n    /* \"#utility.yul\":1003:1005   */\n  0x20\n    /* \"#utility.yul\":992:1001   */\n  dup3\n    /* \"#utility.yul\":988:1006   */\n  add\n    /* \"#utility.yul\":980:1006   */\n  swap1\n  pop\n    /* \"#utility.yul\":1052:1061   */\n  dup2\n    /* \"#utility.yul\":1046:1050   */\n  dup2\n    /* \"#utility.yul\":1042:1062   */\n  sub\n    /* \"#utility.yul\":1038:1039   */\n  0x00\n    /* \"#utility.yul\":1027:1036   */\n  dup4\n    /* \"#utility.yul\":1023:1040   */\n  add\n    /* \"#utility.yul\":1016:1063   */\n  mstore\n    /* \"#utility.yul\":1080:1211   */\n  tag_17\n    /* \"#utility.yul\":1206:1210   */\n  dup2\n    /* \"#utility.yul\":1080:1211   */\n  tag_9\n  jump\t// in\ntag_17:\n    /* \"#utility.yul\":1072:1211   */\n  swap1\n  pop\n    /* \"#utility.yul\":799:1218   */\n  swap2\n  swap1\n  pop\n  jump\t// out\n    /* \"contracts/7-Withdraw_Funds/funds_to_recepients.sol\":57:873  contract Withdrawable {... */\ntag_6:\n  dataSize(sub_0)\n  dup1\n  dataOffset(sub_0)\n  0x00\n  codecopy\n  0x00\n  return\nstop\n\nsub_0: assembly {\n        /* \"contracts/7-Withdraw_Funds/funds_to_recepients.sol\":57:873  contract Withdrawable {... */\n      mstore(0x40, 0x80)\n      callvalue\n      dup1\n      iszero\n      tag_1\n      jumpi\n      0x00\n      dup1\n      revert\n    tag_1:\n      pop\n      jumpi(tag_2, lt(calldatasize, 0x04))\n      shr(0xe0, calldataload(0x00))\n      dup1\n      0x12065fe0\n      eq\n      tag_3\n      jumpi\n      dup1\n      0x8da5cb5b\n      eq\n      tag_4\n      jumpi\n      dup1\n      0xf3fef3a3\n      eq\n      tag_5\n      jumpi\n    tag_2:\n      0x00\n      dup1\n      revert\n        /* \"contracts/7-Withdraw_Funds/funds_to_recepients.sol\":351:448  function getBalance() public view returns (uint256) {... */\n    tag_3:\n      tag_6\n      tag_7\n      jump\t// in\n    tag_6:\n      mload(0x40)\n      tag_8\n      swap2\n      swap1\n      tag_9\n      jump\t// in\n    tag_8:\n      mload(0x40)\n      dup1\n      swap2\n      sub\n      swap1\n      return\n        /* \"contracts/7-Withdraw_Funds/funds_to_recepients.sol\":85:113  address payable public owner */\n    tag_4:\n      tag_10\n      tag_11\n      jump\t// in\n    tag_10:\n      mload(0x40)\n      tag_12\n      swap2\n      swap1\n      tag_13\n      jump\t// in\n    tag_12:\n      mload(0x40)\n      dup1\n      swap2\n      sub\n      swap1\n      return\n        /* \"contracts/7-Withdraw_Funds/funds_to_recepients.sol\":453:731  function withdraw(address payable recipient, uint256 amount) public onlyOwner {... */\n    tag_5:\n      tag_14\n      0x04\n      dup1\n      calldatasize\n      sub\n      dup2\n      add\n      swap1\n      tag_15\n      swap2\n      swap1\n      tag_16\n      jump\t// in\n    tag_15:\n      tag_17\n      jump\t// in\n    tag_14:\n      stop\n        /* \"contracts/7-Withdraw_Funds/funds_to_recepients.sol\":351:448  function getBalance() public view returns (uint256) {... */\n    tag_7:\n        /* \"contracts/7-Withdraw_Funds/funds_to_recepients.sol\":394:401  uint256 */\n      0x00\n        /* \"contracts/7-Withdraw_Funds/funds_to_recepients.sol\":420:441  address(this).balance */\n      selfbalance\n        /* \"contracts/7-Withdraw_Funds/funds_to_recepients.sol\":413:441  return address(this).balance */\n      swap1\n      pop\n        /* \"contracts/7-Withdraw_Funds/funds_to_recepients.sol\":351:448  function getBalance() public view returns (uint256) {... */\n      swap1\n      jump\t// out\n        /* \"contracts/7-Withdraw_Funds/funds_to_recepients.sol\":85:113  address payable public owner */\n    tag_11:\n      0x00\n      dup1\n      sload\n      swap1\n      0x0100\n      exp\n      swap1\n      div\n      0xffffffffffffffffffffffffffffffffffffffff\n      and\n      dup2\n      jump\t// out\n        /* \"contracts/7-Withdraw_Funds/funds_to_recepients.sol\":453:731  function withdraw(address payable recipient, uint256 amount) public onlyOwner {... */\n    tag_17:\n        /* \"contracts/7-Withdraw_Funds/funds_to_recepients.sol\":792:797  owner */\n      0x00\n      dup1\n      sload\n      swap1\n      0x0100\n      exp\n      swap1\n      div\n      0xffffffffffffffffffffffffffffffffffffffff\n      and\n        /* \"contracts/7-Withdraw_Funds/funds_to_recepients.sol\":778:797  msg.sender == owner */\n      0xffffffffffffffffffffffffffffffffffffffff\n      and\n        /* \"contracts/7-Withdraw_Funds/funds_to_recepients.sol\":778:788  msg.sender */\n      caller\n        /* \"contracts/7-Withdraw_Funds/funds_to_recepients.sol\":778:797  msg.sender == owner */\n      0xffffffffffffffffffffffffffffffffffffffff\n      and\n      eq\n        /* \"contracts/7-Withdraw_Funds/funds_to_recepients.sol\":770:848  require(msg.sender == owner, \"Only the contract owner can call this function\") */\n      tag_20\n      jumpi\n      mload(0x40)\n      0x08c379a000000000000000000000000000000000000000000000000000000000\n      dup2\n      mstore\n      0x04\n      add\n      tag_21\n      swap1\n      tag_22\n      jump\t// in\n    tag_21:\n      mload(0x40)\n      dup1\n      swap2\n      sub\n      swap1\n      revert\n    tag_20:\n        /* \"contracts/7-Withdraw_Funds/funds_to_recepients.sol\":574:580  amount */\n      dup1\n        /* \"contracts/7-Withdraw_Funds/funds_to_recepients.sol\":549:570  address(this).balance */\n      selfbalance\n        /* \"contracts/7-Withdraw_Funds/funds_to_recepients.sol\":549:580  address(this).balance >= amount */\n      lt\n      iszero\n        /* \"contracts/7-Withdraw_Funds/funds_to_recepients.sol\":541:617  require(address(this).balance >= amount, \"Not enough funds in the contract\") */\n      tag_24\n      jumpi\n      mload(0x40)\n      0x08c379a000000000000000000000000000000000000000000000000000000000\n      dup2\n      mstore\n      0x04\n      add\n      tag_25\n      swap1\n      tag_26\n      jump\t// in\n    tag_25:\n      mload(0x40)\n      dup1\n      swap2\n      sub\n      swap1\n      revert\n    tag_24:\n        /* \"contracts/7-Withdraw_Funds/funds_to_recepients.sol\":656:657  0 */\n      0x00\n        /* \"contracts/7-Withdraw_Funds/funds_to_recepients.sol\":635:658  recipient != address(0) */\n      0xffffffffffffffffffffffffffffffffffffffff\n      and\n        /* \"contracts/7-Withdraw_Funds/funds_to_recepients.sol\":635:644  recipient */\n      dup3\n        /* \"contracts/7-Withdraw_Funds/funds_to_recepients.sol\":635:658  recipient != address(0) */\n      0xffffffffffffffffffffffffffffffffffffffff\n      and\n      sub\n        /* \"contracts/7-Withdraw_Funds/funds_to_recepients.sol\":627:688  require(recipient != address(0), \"Invalid recipient address\") */\n      tag_27\n      jumpi\n      mload(0x40)\n      0x08c379a000000000000000000000000000000000000000000000000000000000\n      dup2\n      mstore\n      0x04\n      add\n      tag_28\n      swap1\n      tag_29\n      jump\t// in\n    tag_28:\n      mload(0x40)\n      dup1\n      swap2\n      sub\n      swap1\n      revert\n    tag_27:\n        /* \"contracts/7-Withdraw_Funds/funds_to_recepients.sol\":698:707  recipient */\n      dup2\n        /* \"contracts/7-Withdraw_Funds/funds_to_recepients.sol\":698:716  recipient.transfer */\n      0xffffffffffffffffffffffffffffffffffffffff\n      and\n        /* \"contracts/7-Withdraw_Funds/funds_to_recepients.sol\":698:724  recipient.transfer(amount) */\n      0x08fc\n        /* \"contracts/7-Withdraw_Funds/funds_to_recepients.sol\":717:723  amount */\n      dup3\n        /* \"contracts/7-Withdraw_Funds/funds_to_recepients.sol\":698:724  recipient.transfer(amount) */\n      swap1\n      dup2\n      iszero\n      mul\n      swap1\n      mload(0x40)\n      0x00\n      mload(0x40)\n      dup1\n      dup4\n      sub\n      dup2\n      dup6\n      dup9\n      dup9\n      call\n      swap4\n      pop\n      pop\n      pop\n      pop\n      iszero\n      dup1\n      iszero\n      tag_31\n      jumpi\n      returndatasize\n      0x00\n      dup1\n      returndatacopy\n      revert(0x00, returndatasize)\n    tag_31:\n      pop\n        /* \"contracts/7-Withdraw_Funds/funds_to_recepients.sol\":453:731  function withdraw(address payable recipient, uint256 amount) public onlyOwner {... */\n      pop\n      pop\n      jump\t// out\n        /* \"#utility.yul\":7:84   */\n    tag_32:\n        /* \"#utility.yul\":44:51   */\n      0x00\n        /* \"#utility.yul\":73:78   */\n      dup2\n        /* \"#utility.yul\":62:78   */\n      swap1\n      pop\n        /* \"#utility.yul\":7:84   */\n      swap2\n      swap1\n      pop\n      jump\t// out\n        /* \"#utility.yul\":90:208   */\n    tag_33:\n        /* \"#utility.yul\":177:201   */\n      tag_54\n        /* \"#utility.yul\":195:200   */\n      dup2\n        /* \"#utility.yul\":177:201   */\n      tag_32\n      jump\t// in\n    tag_54:\n        /* \"#utility.yul\":172:175   */\n      dup3\n        /* \"#utility.yul\":165:202   */\n      mstore\n        /* \"#utility.yul\":90:208   */\n      pop\n      pop\n      jump\t// out\n        /* \"#utility.yul\":214:436   */\n    tag_9:\n        /* \"#utility.yul\":307:311   */\n      0x00\n        /* \"#utility.yul\":345:347   */\n      0x20\n        /* \"#utility.yul\":334:343   */\n      dup3\n        /* \"#utility.yul\":330:348   */\n      add\n        /* \"#utility.yul\":322:348   */\n      swap1\n      pop\n        /* \"#utility.yul\":358:429   */\n      tag_56\n        /* \"#utility.yul\":426:427   */\n      0x00\n        /* \"#utility.yul\":415:424   */\n      dup4\n        /* \"#utility.yul\":411:428   */\n      add\n        /* \"#utility.yul\":402:408   */\n      dup5\n        /* \"#utility.yul\":358:429   */\n      tag_33\n      jump\t// in\n    tag_56:\n        /* \"#utility.yul\":214:436   */\n      swap3\n      swap2\n      pop\n      pop\n      jump\t// out\n        /* \"#utility.yul\":442:568   */\n    tag_34:\n        /* \"#utility.yul\":479:486   */\n      0x00\n        /* \"#utility.yul\":519:561   */\n      0xffffffffffffffffffffffffffffffffffffffff\n        /* \"#utility.yul\":512:517   */\n      dup3\n        /* \"#utility.yul\":508:562   */\n      and\n        /* \"#utility.yul\":497:562   */\n      swap1\n      pop\n        /* \"#utility.yul\":442:568   */\n      swap2\n      swap1\n      pop\n      jump\t// out\n        /* \"#utility.yul\":574:678   */\n    tag_35:\n        /* \"#utility.yul\":619:626   */\n      0x00\n        /* \"#utility.yul\":648:672   */\n      tag_59\n        /* \"#utility.yul\":666:671   */\n      dup3\n        /* \"#utility.yul\":648:672   */\n      tag_34\n      jump\t// in\n    tag_59:\n        /* \"#utility.yul\":637:672   */\n      swap1\n      pop\n        /* \"#utility.yul\":574:678   */\n      swap2\n      swap1\n      pop\n      jump\t// out\n        /* \"#utility.yul\":684:826   */\n    tag_36:\n        /* \"#utility.yul\":787:819   */\n      tag_61\n        /* \"#utility.yul\":813:818   */\n      dup2\n        /* \"#utility.yul\":787:819   */\n      tag_35\n      jump\t// in\n    tag_61:\n        /* \"#utility.yul\":782:785   */\n      dup3\n        /* \"#utility.yul\":775:820   */\n      mstore\n        /* \"#utility.yul\":684:826   */\n      pop\n      pop\n      jump\t// out\n        /* \"#utility.yul\":832:1086   */\n    tag_13:\n        /* \"#utility.yul\":941:945   */\n      0x00\n        /* \"#utility.yul\":979:981   */\n      0x20\n        /* \"#utility.yul\":968:977   */\n      dup3\n        /* \"#utility.yul\":964:982   */\n      add\n        /* \"#utility.yul\":956:982   */\n      swap1\n      pop\n        /* \"#utility.yul\":992:1079   */\n      tag_63\n        /* \"#utility.yul\":1076:1077   */\n      0x00\n        /* \"#utility.yul\":1065:1074   */\n      dup4\n        /* \"#utility.yul\":1061:1078   */\n      add\n        /* \"#utility.yul\":1052:1058   */\n      dup5\n        /* \"#utility.yul\":992:1079   */\n      tag_36\n      jump\t// in\n    tag_63:\n        /* \"#utility.yul\":832:1086   */\n      swap3\n      swap2\n      pop\n      pop\n      jump\t// out\n        /* \"#utility.yul\":1173:1290   */\n    tag_38:\n        /* \"#utility.yul\":1282:1283   */\n      0x00\n        /* \"#utility.yul\":1279:1280   */\n      dup1\n        /* \"#utility.yul\":1272:1284   */\n      revert\n        /* \"#utility.yul\":1419:1557   */\n    tag_40:\n        /* \"#utility.yul\":1500:1532   */\n      tag_68\n        /* \"#utility.yul\":1526:1531   */\n      dup2\n        /* \"#utility.yul\":1500:1532   */\n      tag_35\n      jump\t// in\n    tag_68:\n        /* \"#utility.yul\":1493:1498   */\n      dup2\n        /* \"#utility.yul\":1490:1533   */\n      eq\n        /* \"#utility.yul\":1480:1551   */\n      tag_69\n      jumpi\n        /* \"#utility.yul\":1547:1548   */\n      0x00\n        /* \"#utility.yul\":1544:1545   */\n      dup1\n        /* \"#utility.yul\":1537:1549   */\n      revert\n        /* \"#utility.yul\":1480:1551   */\n    tag_69:\n        /* \"#utility.yul\":1419:1557   */\n      pop\n      jump\t// out\n        /* \"#utility.yul\":1563:1718   */\n    tag_41:\n        /* \"#utility.yul\":1617:1622   */\n      0x00\n        /* \"#utility.yul\":1655:1661   */\n      dup2\n        /* \"#utility.yul\":1642:1662   */\n      calldataload\n        /* \"#utility.yul\":1633:1662   */\n      swap1\n      pop\n        /* \"#utility.yul\":1671:1712   */\n      tag_71\n        /* \"#utility.yul\":1706:1711   */\n      dup2\n        /* \"#utility.yul\":1671:1712   */\n      tag_40\n      jump\t// in\n    tag_71:\n        /* \"#utility.yul\":1563:1718   */\n      swap3\n      swap2\n      pop\n      pop\n      jump\t// out\n        /* \"#utility.yul\":1724:1846   */\n    tag_42:\n        /* \"#utility.yul\":1797:1821   */\n      tag_73\n        /* \"#utility.yul\":1815:1820   */\n      dup2\n        /* \"#utility.yul\":1797:1821   */\n      tag_32\n      jump\t// in\n    tag_73:\n        /* \"#utility.yul\":1790:1795   */\n      dup2\n        /* \"#utility.yul\":1787:1822   */\n      eq\n        /* \"#utility.yul\":1777:1840   */\n      tag_74\n      jumpi\n        /* \"#utility.yul\":1836:1837   */\n      0x00\n        /* \"#utility.yul\":1833:1834   */\n      dup1\n        /* \"#utility.yul\":1826:1838   */\n      revert\n        /* \"#utility.yul\":1777:1840   */\n    tag_74:\n        /* \"#utility.yul\":1724:1846   */\n      pop\n      jump\t// out\n        /* \"#utility.yul\":1852:1991   */\n    tag_43:\n        /* \"#utility.yul\":1898:1903   */\n      0x00\n        /* \"#utility.yul\":1936:1942   */\n      dup2\n        /* \"#utility.yul\":1923:1943   */\n      calldataload\n        /* \"#utility.yul\":1914:1943   */\n      swap1\n      pop\n        /* \"#utility.yul\":1952:1985   */\n      tag_76\n        /* \"#utility.yul\":1979:1984   */\n      dup2\n        /* \"#utility.yul\":1952:1985   */\n      tag_42\n      jump\t// in\n    tag_76:\n        /* \"#utility.yul\":1852:1991   */\n      swap3\n      swap2\n      pop\n      pop\n      jump\t// out\n        /* \"#utility.yul\":1997:2487   */\n    tag_16:\n        /* \"#utility.yul\":2073:2079   */\n      0x00\n        /* \"#utility.yul\":2081:2087   */\n      dup1\n        /* \"#utility.yul\":2130:2132   */\n      0x40\n        /* \"#utility.yul\":2118:2127   */\n      dup4\n        /* \"#utility.yul\":2109:2116   */\n      dup6\n        /* \"#utility.yul\":2105:2128   */\n      sub\n        /* \"#utility.yul\":2101:2133   */\n      slt\n        /* \"#utility.yul\":2098:2217   */\n      iszero\n      tag_78\n      jumpi\n        /* \"#utility.yul\":2136:2215   */\n      tag_79\n      tag_38\n      jump\t// in\n    tag_79:\n        /* \"#utility.yul\":2098:2217   */\n    tag_78:\n        /* \"#utility.yul\":2256:2257   */\n      0x00\n        /* \"#utility.yul\":2281:2342   */\n      tag_80\n        /* \"#utility.yul\":2334:2341   */\n      dup6\n        /* \"#utility.yul\":2325:2331   */\n      dup3\n        /* \"#utility.yul\":2314:2323   */\n      dup7\n        /* \"#utility.yul\":2310:2332   */\n      add\n        /* \"#utility.yul\":2281:2342   */\n      tag_41\n      jump\t// in\n    tag_80:\n        /* \"#utility.yul\":2271:2342   */\n      swap3\n      pop\n        /* \"#utility.yul\":2227:2352   */\n      pop\n        /* \"#utility.yul\":2391:2393   */\n      0x20\n        /* \"#utility.yul\":2417:2470   */\n      tag_81\n        /* \"#utility.yul\":2462:2469   */\n      dup6\n        /* \"#utility.yul\":2453:2459   */\n      dup3\n        /* \"#utility.yul\":2442:2451   */\n      dup7\n        /* \"#utility.yul\":2438:2460   */\n      add\n        /* \"#utility.yul\":2417:2470   */\n      tag_43\n      jump\t// in\n    tag_81:\n        /* \"#utility.yul\":2407:2470   */\n      swap2\n      pop\n        /* \"#utility.yul\":2362:2480   */\n      pop\n        /* \"#utility.yul\":1997:2487   */\n      swap3\n      pop\n      swap3\n      swap1\n      pop\n      jump\t// out\n        /* \"#utility.yul\":2493:2662   */\n    tag_44:\n        /* \"#utility.yul\":2577:2588   */\n      0x00\n        /* \"#utility.yul\":2611:2617   */\n      dup3\n        /* \"#utility.yul\":2606:2609   */\n      dup3\n        /* \"#utility.yul\":2599:2618   */\n      mstore\n        /* \"#utility.yul\":2651:2655   */\n      0x20\n        /* \"#utility.yul\":2646:2649   */\n      dup3\n        /* \"#utility.yul\":2642:2656   */\n      add\n        /* \"#utility.yul\":2627:2656   */\n      swap1\n      pop\n        /* \"#utility.yul\":2493:2662   */\n      swap3\n      swap2\n      pop\n      pop\n      jump\t// out\n        /* \"#utility.yul\":2668:2901   */\n    tag_45:\n        /* \"#utility.yul\":2808:2842   */\n      0x4f6e6c792074686520636f6e7472616374206f776e65722063616e2063616c6c\n        /* \"#utility.yul\":2804:2805   */\n      0x00\n        /* \"#utility.yul\":2796:2802   */\n      dup3\n        /* \"#utility.yul\":2792:2806   */\n      add\n        /* \"#utility.yul\":2785:2843   */\n      mstore\n        /* \"#utility.yul\":2877:2893   */\n      0x20746869732066756e6374696f6e000000000000000000000000000000000000\n        /* \"#utility.yul\":2872:2874   */\n      0x20\n        /* \"#utility.yul\":2864:2870   */\n      dup3\n        /* \"#utility.yul\":2860:2875   */\n      add\n        /* \"#utility.yul\":2853:2894   */\n      mstore\n        /* \"#utility.yul\":2668:2901   */\n      pop\n      jump\t// out\n        /* \"#utility.yul\":2907:3273   */\n    tag_46:\n        /* \"#utility.yul\":3049:3052   */\n      0x00\n        /* \"#utility.yul\":3070:3137   */\n      tag_85\n        /* \"#utility.yul\":3134:3136   */\n      0x2e\n        /* \"#utility.yul\":3129:3132   */\n      dup4\n        /* \"#utility.yul\":3070:3137   */\n      tag_44\n      jump\t// in\n    tag_85:\n        /* \"#utility.yul\":3063:3137   */\n      swap2\n      pop\n        /* \"#utility.yul\":3146:3239   */\n      tag_86\n        /* \"#utility.yul\":3235:3238   */\n      dup3\n        /* \"#utility.yul\":3146:3239   */\n      tag_45\n      jump\t// in\n    tag_86:\n        /* \"#utility.yul\":3264:3266   */\n      0x40\n        /* \"#utility.yul\":3259:3262   */\n      dup3\n        /* \"#utility.yul\":3255:3267   */\n      add\n        /* \"#utility.yul\":3248:3267   */\n      swap1\n      pop\n        /* \"#utility.yul\":2907:3273   */\n      swap2\n      swap1\n      pop\n      jump\t// out\n        /* \"#utility.yul\":3279:3698   */\n    tag_22:\n        /* \"#utility.yul\":3445:3449   */\n      0x00\n        /* \"#utility.yul\":3483:3485   */\n      0x20\n        /* \"#utility.yul\":3472:3481   */\n      dup3\n        /* \"#utility.yul\":3468:3486   */\n      add\n        /* \"#utility.yul\":3460:3486   */\n      swap1\n      pop\n        /* \"#utility.yul\":3532:3541   */\n      dup2\n        /* \"#utility.yul\":3526:3530   */\n      dup2\n        /* \"#utility.yul\":3522:3542   */\n      sub\n        /* \"#utility.yul\":3518:3519   */\n      0x00\n        /* \"#utility.yul\":3507:3516   */\n      dup4\n        /* \"#utility.yul\":3503:3520   */\n      add\n        /* \"#utility.yul\":3496:3543   */\n      mstore\n        /* \"#utility.yul\":3560:3691   */\n      tag_88\n        /* \"#utility.yul\":3686:3690   */\n      dup2\n        /* \"#utility.yul\":3560:3691   */\n      tag_46\n      jump\t// in\n    tag_88:\n        /* \"#utility.yul\":3552:3691   */\n      swap1\n      pop\n        /* \"#utility.yul\":3279:3698   */\n      swap2\n      swap1\n      pop\n      jump\t// out\n        /* \"#utility.yul\":3704:3886   */\n    tag_47:\n        /* \"#utility.yul\":3844:3878   */\n      0x4e6f7420656e6f7567682066756e647320696e2074686520636f6e7472616374\n        /* \"#utility.yul\":3840:3841   */\n      0x00\n        /* \"#utility.yul\":3832:3838   */\n      dup3\n        /* \"#utility.yul\":3828:3842   */\n      add\n        /* \"#utility.yul\":3821:3879   */\n      mstore\n        /* \"#utility.yul\":3704:3886   */\n      pop\n      jump\t// out\n        /* \"#utility.yul\":3892:4258   */\n    tag_48:\n        /* \"#utility.yul\":4034:4037   */\n      0x00\n        /* \"#utility.yul\":4055:4122   */\n      tag_91\n        /* \"#utility.yul\":4119:4121   */\n      0x20\n        /* \"#utility.yul\":4114:4117   */\n      dup4\n        /* \"#utility.yul\":4055:4122   */\n      tag_44\n      jump\t// in\n    tag_91:\n        /* \"#utility.yul\":4048:4122   */\n      swap2\n      pop\n        /* \"#utility.yul\":4131:4224   */\n      tag_92\n        /* \"#utility.yul\":4220:4223   */\n      dup3\n        /* \"#utility.yul\":4131:4224   */\n      tag_47\n      jump\t// in\n    tag_92:\n        /* \"#utility.yul\":4249:4251   */\n      0x20\n        /* \"#utility.yul\":4244:4247   */\n      dup3\n        /* \"#utility.yul\":4240:4252   */\n      add\n        /* \"#utility.yul\":4233:4252   */\n      swap1\n      pop\n        /* \"#utility.yul\":3892:4258   */\n      swap2\n      swap1\n      pop\n      jump\t// out\n        /* \"#utility.yul\":4264:4683   */\n    tag_26:\n        /* \"#utility.yul\":4430:4434   */\n      0x00\n        /* \"#utility.yul\":4468:4470   */\n      0x20\n        /* \"#utility.yul\":4457:4466   */\n      dup3\n        /* \"#utility.yul\":4453:4471   */\n      add\n        /* \"#utility.yul\":4445:4471   */\n      swap1\n      pop\n        /* \"#utility.yul\":4517:4526   */\n      dup2\n        /* \"#utility.yul\":4511:4515   */\n      dup2\n        /* \"#utility.yul\":4507:4527   */\n      sub\n        /* \"#utility.yul\":4503:4504   */\n      0x00\n        /* \"#utility.yul\":4492:4501   */\n      dup4\n        /* \"#utility.yul\":4488:4505   */\n      add\n        /* \"#utility.yul\":4481:4528   */\n      mstore\n        /* \"#utility.yul\":4545:4676   */\n      tag_94\n        /* \"#utility.yul\":4671:4675   */\n      dup2\n        /* \"#utility.yul\":4545:4676   */\n      tag_48\n      jump\t// in\n    tag_94:\n        /* \"#utility.yul\":4537:4676   */\n      swap1\n      pop\n        /* \"#utility.yul\":4264:4683   */\n      swap2\n      swap1\n      pop\n      jump\t// out\n        /* \"#utility.yul\":4689:4864   */\n    tag_49:\n        /* \"#utility.yul\":4829:4856   */\n      0x496e76616c696420726563697069656e74206164647265737300000000000000\n        /* \"#utility.yul\":4825:4826   */\n      0x00\n        /* \"#utility.yul\":4817:4823   */\n      dup3\n        /* \"#utility.yul\":4813:4827   */\n      add\n        /* \"#utility.yul\":4806:4857   */\n      mstore\n        /* \"#utility.yul\":4689:4864   */\n      pop\n      jump\t// out\n        /* \"#utility.yul\":4870:5236   */\n    tag_50:\n        /* \"#utility.yul\":5012:5015   */\n      0x00\n        /* \"#utility.yul\":5033:5100   */\n      tag_97\n        /* \"#utility.yul\":5097:5099   */\n      0x19\n        /* \"#utility.yul\":5092:5095   */\n      dup4\n        /* \"#utility.yul\":5033:5100   */\n      tag_44\n      jump\t// in\n    tag_97:\n        /* \"#utility.yul\":5026:5100   */\n      swap2\n      pop\n        /* \"#utility.yul\":5109:5202   */\n      tag_98\n        /* \"#utility.yul\":5198:5201   */\n      dup3\n        /* \"#utility.yul\":5109:5202   */\n      tag_49\n      jump\t// in\n    tag_98:\n        /* \"#utility.yul\":5227:5229   */\n      0x20\n        /* \"#utility.yul\":5222:5225   */\n      dup3\n        /* \"#utility.yul\":5218:5230   */\n      add\n        /* \"#utility.yul\":5211:5230   */\n      swap1\n      pop\n        /* \"#utility.yul\":4870:5236   */\n      swap2\n      swap1\n      pop\n      jump\t// out\n        /* \"#utility.yul\":5242:5661   */\n    tag_29:\n        /* \"#utility.yul\":5408:5412   */\n      0x00\n        /* \"#utility.yul\":5446:5448   */\n      0x20\n        /* \"#utility.yul\":5435:5444   */\n      dup3\n        /* \"#utility.yul\":5431:5449   */\n      add\n        /* \"#utility.yul\":5423:5449   */\n      swap1\n      pop\n        /* \"#utility.yul\":5495:5504   */\n      dup2\n        /* \"#utility.yul\":5489:5493   */\n      dup2\n        /* \"#utility.yul\":5485:5505   */\n      sub\n        /* \"#utility.yul\":5481:5482   */\n      0x00\n        /* \"#utility.yul\":5470:5479   */\n      dup4\n        /* \"#utility.yul\":5466:5483   */\n      add\n        /* \"#utility.yul\":5459:5506   */\n      mstore\n        /* \"#utility.yul\":5523:5654   */\n      tag_100\n        /* \"#utility.yul\":5649:5653   */\n      dup2\n        /* \"#utility.yul\":5523:5654   */\n      tag_50\n      jump\t// in\n    tag_100:\n        /* \"#utility.yul\":5515:5654   */\n      swap1\n      pop\n        /* \"#utility.yul\":5242:5661   */\n      swap2\n      swap1\n      pop\n      jump\t// out\n\n    auxdata: 0xa2646970667358221220f0dbeb8778681909a4ab0507040a522b8b574320f667524e6cefe40369281ab264736f6c63430008120033\n}\n",
				"bytecode": {
					"linkReferences": {},
					"object": "608060405267016345785d8a000034101561004f576040517f08c379a000000000000000000000000000000000000000000000000000000000815260040161004690610117565b60405180910390fd5b336000806101000a81548173ffffffffffffffffffffffffffffffffffffffff021916908373ffffffffffffffffffffffffffffffffffffffff160217905550610137565b600082825260208201905092915050565b7f436f6e7472616374207265717569726573206174206c6561737420302e31206560008201527f7468657220746f206265206465706c6f7965642e000000000000000000000000602082015250565b6000610101603483610094565b915061010c826100a5565b604082019050919050565b60006020820190508181036000830152610130816100f4565b9050919050565b610533806101466000396000f3fe608060405234801561001057600080fd5b50600436106100415760003560e01c806312065fe0146100465780638da5cb5b14610064578063f3fef3a314610082575b600080fd5b61004e61009e565b60405161005b919061026e565b60405180910390f35b61006c6100a6565b60405161007991906102ca565b60405180910390f35b61009c60048036038101906100979190610342565b6100ca565b005b600047905090565b60008054906101000a900473ffffffffffffffffffffffffffffffffffffffff1681565b60008054906101000a900473ffffffffffffffffffffffffffffffffffffffff1673ffffffffffffffffffffffffffffffffffffffff163373ffffffffffffffffffffffffffffffffffffffff1614610158576040517f08c379a000000000000000000000000000000000000000000000000000000000815260040161014f90610405565b60405180910390fd5b8047101561019b576040517f08c379a000000000000000000000000000000000000000000000000000000000815260040161019290610471565b60405180910390fd5b600073ffffffffffffffffffffffffffffffffffffffff168273ffffffffffffffffffffffffffffffffffffffff160361020a576040517f08c379a0000000000000000000000000000000000000000000000000000000008152600401610201906104dd565b60405180910390fd5b8173ffffffffffffffffffffffffffffffffffffffff166108fc829081150290604051600060405180830381858888f19350505050158015610250573d6000803e3d6000fd5b505050565b6000819050919050565b61026881610255565b82525050565b6000602082019050610283600083018461025f565b92915050565b600073ffffffffffffffffffffffffffffffffffffffff82169050919050565b60006102b482610289565b9050919050565b6102c4816102a9565b82525050565b60006020820190506102df60008301846102bb565b92915050565b600080fd5b6102f3816102a9565b81146102fe57600080fd5b50565b600081359050610310816102ea565b92915050565b61031f81610255565b811461032a57600080fd5b50565b60008135905061033c81610316565b92915050565b60008060408385031215610359576103586102e5565b5b600061036785828601610301565b92505060206103788582860161032d565b9150509250929050565b600082825260208201905092915050565b7f4f6e6c792074686520636f6e7472616374206f776e65722063616e2063616c6c60008201527f20746869732066756e6374696f6e000000000000000000000000000000000000602082015250565b60006103ef602e83610382565b91506103fa82610393565b604082019050919050565b6000602082019050818103600083015261041e816103e2565b9050919050565b7f4e6f7420656e6f7567682066756e647320696e2074686520636f6e7472616374600082015250565b600061045b602083610382565b915061046682610425565b602082019050919050565b6000602082019050818103600083015261048a8161044e565b9050919050565b7f496e76616c696420726563697069656e74206164647265737300000000000000600082015250565b60006104c7601983610382565b91506104d282610491565b602082019050919050565b600060208201905081810360008301526104f6816104ba565b905091905056fea2646970667358221220f0dbeb8778681909a4ab0507040a522b8b574320f667524e6cefe40369281ab264736f6c63430008120033",
					"opcodes": "PUSH1 0x80 PUSH1 0x40 MSTORE PUSH8 0x16345785D8A0000 CALLVALUE LT ISZERO PUSH2 0x4F JUMPI PUSH1 0x40 MLOAD PUSH32 0x8C379A000000000000000000000000000000000000000000000000000000000 DUP2 MSTORE PUSH1 0x4 ADD PUSH2 0x46 SWAP1 PUSH2 0x117 JUMP JUMPDEST PUSH1 0x40 MLOAD DUP1 SWAP2 SUB SWAP1 REVERT JUMPDEST CALLER PUSH1 0x0 DUP1 PUSH2 0x100 EXP DUP2 SLOAD DUP2 PUSH20 0xFFFFFFFFFFFFFFFFFFFFFFFFFFFFFFFFFFFFFFFF MUL NOT AND SWAP1 DUP4 PUSH20 0xFFFFFFFFFFFFFFFFFFFFFFFFFFFFFFFFFFFFFFFF AND MUL OR SWAP1 SSTORE POP PUSH2 0x137 JUMP JUMPDEST PUSH1 0x0 DUP3 DUP3 MSTORE PUSH1 0x20 DUP3 ADD SWAP1 POP SWAP3 SWAP2 POP POP JUMP JUMPDEST PUSH32 0x436F6E7472616374207265717569726573206174206C6561737420302E312065 PUSH1 0x0 DUP3 ADD MSTORE PUSH32 0x7468657220746F206265206465706C6F7965642E000000000000000000000000 PUSH1 0x20 DUP3 ADD MSTORE POP JUMP JUMPDEST PUSH1 0x0 PUSH2 0x101 PUSH1 0x34 DUP4 PUSH2 0x94 JUMP JUMPDEST SWAP2 POP PUSH2 0x10C DUP3 PUSH2 0xA5 JUMP JUMPDEST PUSH1 0x40 DUP3 ADD SWAP1 POP SWAP2 SWAP1 POP JUMP JUMPDEST PUSH1 0x0 PUSH1 0x20 DUP3 ADD SWAP1 POP DUP2 DUP2 SUB PUSH1 0x0 DUP4 ADD MSTORE PUSH2 0x130 DUP2 PUSH2 0xF4 JUMP JUMPDEST SWAP1 POP SWAP2 SWAP1 POP JUMP JUMPDEST PUSH2 0x533 DUP1 PUSH2 0x146 PUSH1 0x0 CODECOPY PUSH1 0x0 RETURN INVALID PUSH1 0x80 PUSH1 0x40 MSTORE CALLVALUE DUP1 ISZERO PUSH2 0x10 JUMPI PUSH1 0x0 DUP1 REVERT JUMPDEST POP PUSH1 0x4 CALLDATASIZE LT PUSH2 0x41 JUMPI PUSH1 0x0 CALLDATALOAD PUSH1 0xE0 SHR DUP1 PUSH4 0x12065FE0 EQ PUSH2 0x46 JUMPI DUP1 PUSH4 0x8DA5CB5B EQ PUSH2 0x64 JUMPI DUP1 PUSH4 0xF3FEF3A3 EQ PUSH2 0x82 JUMPI JUMPDEST PUSH1 0x0 DUP1 REVERT JUMPDEST PUSH2 0x4E PUSH2 0x9E JUMP JUMPDEST PUSH1 0x40 MLOAD PUSH2 0x5B SWAP2 SWAP1 PUSH2 0x26E JUMP JUMPDEST PUSH1 0x40 MLOAD DUP1 SWAP2 SUB SWAP1 RETURN JUMPDEST PUSH2 0x6C PUSH2 0xA6 JUMP JUMPDEST PUSH1 0x40 MLOAD PUSH2 0x79 SWAP2 SWAP1 PUSH2 0x2CA JUMP JUMPDEST PUSH1 0x40 MLOAD DUP1 SWAP2 SUB SWAP1 RETURN JUMPDEST PUSH2 0x9C PUSH1 0x4 DUP1 CALLDATASIZE SUB DUP2 ADD SWAP1 PUSH2 0x97 SWAP2 SWAP1 PUSH2 0x342 JUMP JUMPDEST PUSH2 0xCA JUMP JUMPDEST STOP JUMPDEST PUSH1 0x0 SELFBALANCE SWAP1 POP SWAP1 JUMP JUMPDEST PUSH1 0x0 DUP1 SLOAD SWAP1 PUSH2 0x100 EXP SWAP1 DIV PUSH20 0xFFFFFFFFFFFFFFFFFFFFFFFFFFFFFFFFFFFFFFFF AND DUP2 JUMP JUMPDEST PUSH1 0x0 DUP1 SLOAD SWAP1 PUSH2 0x100 EXP SWAP1 DIV PUSH20 0xFFFFFFFFFFFFFFFFFFFFFFFFFFFFFFFFFFFFFFFF AND PUSH20 0xFFFFFFFFFFFFFFFFFFFFFFFFFFFFFFFFFFFFFFFF AND CALLER PUSH20 0xFFFFFFFFFFFFFFFFFFFFFFFFFFFFFFFFFFFFFFFF AND EQ PUSH2 0x158 JUMPI PUSH1 0x40 MLOAD PUSH32 0x8C379A000000000000000000000000000000000000000000000000000000000 DUP2 MSTORE PUSH1 0x4 ADD PUSH2 0x14F SWAP1 PUSH2 0x405 JUMP JUMPDEST PUSH1 0x40 MLOAD DUP1 SWAP2 SUB SWAP1 REVERT JUMPDEST DUP1 SELFBALANCE LT ISZERO PUSH2 0x19B JUMPI PUSH1 0x40 MLOAD PUSH32 0x8C379A000000000000000000000000000000000000000000000000000000000 DUP2 MSTORE PUSH1 0x4 ADD PUSH2 0x192 SWAP1 PUSH2 0x471 JUMP JUMPDEST PUSH1 0x40 MLOAD DUP1 SWAP2 SUB SWAP1 REVERT JUMPDEST PUSH1 0x0 PUSH20 0xFFFFFFFFFFFFFFFFFFFFFFFFFFFFFFFFFFFFFFFF AND DUP3 PUSH20 0xFFFFFFFFFFFFFFFFFFFFFFFFFFFFFFFFFFFFFFFF AND SUB PUSH2 0x20A JUMPI PUSH1 0x40 MLOAD PUSH32 0x8C379A000000000000000000000000000000000000000000000000000000000 DUP2 MSTORE PUSH1 0x4 ADD PUSH2 0x201 SWAP1 PUSH2 0x4DD JUMP JUMPDEST PUSH1 0x40 MLOAD DUP1 SWAP2 SUB SWAP1 REVERT JUMPDEST DUP2 PUSH20 0xFFFFFFFFFFFFFFFFFFFFFFFFFFFFFFFFFFFFFFFF AND PUSH2 0x8FC DUP3 SWAP1 DUP2 ISZERO MUL SWAP1 PUSH1 0x40 MLOAD PUSH1 0x0 PUSH1 0x40 MLOAD DUP1 DUP4 SUB DUP2 DUP6 DUP9 DUP9 CALL SWAP4 POP POP POP POP ISZERO DUP1 ISZERO PUSH2 0x250 JUMPI RETURNDATASIZE PUSH1 0x0 DUP1 RETURNDATACOPY RETURNDATASIZE PUSH1 0x0 REVERT JUMPDEST POP POP POP JUMP JUMPDEST PUSH1 0x0 DUP2 SWAP1 POP SWAP2 SWAP1 POP JUMP JUMPDEST PUSH2 0x268 DUP2 PUSH2 0x255 JUMP JUMPDEST DUP3 MSTORE POP POP JUMP JUMPDEST PUSH1 0x0 PUSH1 0x20 DUP3 ADD SWAP1 POP PUSH2 0x283 PUSH1 0x0 DUP4 ADD DUP5 PUSH2 0x25F JUMP JUMPDEST SWAP3 SWAP2 POP POP JUMP JUMPDEST PUSH1 0x0 PUSH20 0xFFFFFFFFFFFFFFFFFFFFFFFFFFFFFFFFFFFFFFFF DUP3 AND SWAP1 POP SWAP2 SWAP1 POP JUMP JUMPDEST PUSH1 0x0 PUSH2 0x2B4 DUP3 PUSH2 0x289 JUMP JUMPDEST SWAP1 POP SWAP2 SWAP1 POP JUMP JUMPDEST PUSH2 0x2C4 DUP2 PUSH2 0x2A9 JUMP JUMPDEST DUP3 MSTORE POP POP JUMP JUMPDEST PUSH1 0x0 PUSH1 0x20 DUP3 ADD SWAP1 POP PUSH2 0x2DF PUSH1 0x0 DUP4 ADD DUP5 PUSH2 0x2BB JUMP JUMPDEST SWAP3 SWAP2 POP POP JUMP JUMPDEST PUSH1 0x0 DUP1 REVERT JUMPDEST PUSH2 0x2F3 DUP2 PUSH2 0x2A9 JUMP JUMPDEST DUP2 EQ PUSH2 0x2FE JUMPI PUSH1 0x0 DUP1 REVERT JUMPDEST POP JUMP JUMPDEST PUSH1 0x0 DUP2 CALLDATALOAD SWAP1 POP PUSH2 0x310 DUP2 PUSH2 0x2EA JUMP JUMPDEST SWAP3 SWAP2 POP POP JUMP JUMPDEST PUSH2 0x31F DUP2 PUSH2 0x255 JUMP JUMPDEST DUP2 EQ PUSH2 0x32A JUMPI PUSH1 0x0 DUP1 REVERT JUMPDEST POP JUMP JUMPDEST PUSH1 0x0 DUP2 CALLDATALOAD SWAP1 POP PUSH2 0x33C DUP2 PUSH2 0x316 JUMP JUMPDEST SWAP3 SWAP2 POP POP JUMP JUMPDEST PUSH1 0x0 DUP1 PUSH1 0x40 DUP4 DUP6 SUB SLT ISZERO PUSH2 0x359 JUMPI PUSH2 0x358 PUSH2 0x2E5 JUMP JUMPDEST JUMPDEST PUSH1 0x0 PUSH2 0x367 DUP6 DUP3 DUP7 ADD PUSH2 0x301 JUMP JUMPDEST SWAP3 POP POP PUSH1 0x20 PUSH2 0x378 DUP6 DUP3 DUP7 ADD PUSH2 0x32D JUMP JUMPDEST SWAP2 POP POP SWAP3 POP SWAP3 SWAP1 POP JUMP JUMPDEST PUSH1 0x0 DUP3 DUP3 MSTORE PUSH1 0x20 DUP3 ADD SWAP1 POP SWAP3 SWAP2 POP POP JUMP JUMPDEST PUSH32 0x4F6E6C792074686520636F6E7472616374206F776E65722063616E2063616C6C PUSH1 0x0 DUP3 ADD MSTORE PUSH32 0x20746869732066756E6374696F6E000000000000000000000000000000000000 PUSH1 0x20 DUP3 ADD MSTORE POP JUMP JUMPDEST PUSH1 0x0 PUSH2 0x3EF PUSH1 0x2E DUP4 PUSH2 0x382 JUMP JUMPDEST SWAP2 POP PUSH2 0x3FA DUP3 PUSH2 0x393 JUMP JUMPDEST PUSH1 0x40 DUP3 ADD SWAP1 POP SWAP2 SWAP1 POP JUMP JUMPDEST PUSH1 0x0 PUSH1 0x20 DUP3 ADD SWAP1 POP DUP2 DUP2 SUB PUSH1 0x0 DUP4 ADD MSTORE PUSH2 0x41E DUP2 PUSH2 0x3E2 JUMP JUMPDEST SWAP1 POP SWAP2 SWAP1 POP JUMP JUMPDEST PUSH32 0x4E6F7420656E6F7567682066756E647320696E2074686520636F6E7472616374 PUSH1 0x0 DUP3 ADD MSTORE POP JUMP JUMPDEST PUSH1 0x0 PUSH2 0x45B PUSH1 0x20 DUP4 PUSH2 0x382 JUMP JUMPDEST SWAP2 POP PUSH2 0x466 DUP3 PUSH2 0x425 JUMP JUMPDEST PUSH1 0x20 DUP3 ADD SWAP1 POP SWAP2 SWAP1 POP JUMP JUMPDEST PUSH1 0x0 PUSH1 0x20 DUP3 ADD SWAP1 POP DUP2 DUP2 SUB PUSH1 0x0 DUP4 ADD MSTORE PUSH2 0x48A DUP2 PUSH2 0x44E JUMP JUMPDEST SWAP1 POP SWAP2 SWAP1 POP JUMP JUMPDEST PUSH32 0x496E76616C696420726563697069656E74206164647265737300000000000000 PUSH1 0x0 DUP3 ADD MSTORE POP JUMP JUMPDEST PUSH1 0x0 PUSH2 0x4C7 PUSH1 0x19 DUP4 PUSH2 0x382 JUMP JUMPDEST SWAP2 POP PUSH2 0x4D2 DUP3 PUSH2 0x491 JUMP JUMPDEST PUSH1 0x20 DUP3 ADD SWAP1 POP SWAP2 SWAP1 POP JUMP JUMPDEST PUSH1 0x0 PUSH1 0x20 DUP3 ADD SWAP1 POP DUP2 DUP2 SUB PUSH1 0x0 DUP4 ADD MSTORE PUSH2 0x4F6 DUP2 PUSH2 0x4BA JUMP JUMPDEST SWAP1 POP SWAP2 SWAP1 POP JUMP INVALID LOG2 PUSH5 0x6970667358 0x22 SLT KECCAK256 CREATE 0xDB 0xEB DUP8 PUSH25 0x681909A4AB0507040A522B8B574320F667524E6CEFE4036928 BYTE 0xB2 PUSH5 0x736F6C6343 STOP ADDMOD SLT STOP CALLER "
				},
				"gasEstimates": {
					"creation": {
						"codeDepositCost": "266200",
						"executionCost": "24585",
						"totalCost": "290785"
					},
					"external": {
						"getBalance()": "317",
						"owner()": "2511",
						"withdraw(address,uint256)": "infinite"
					}
				},
				"methodIdentifiers": {
					"getBalance()": "12065fe0",
					"owner()": "8da5cb5b",
					"withdraw(address,uint256)": "f3fef3a3"
				}
			},
			"storageLayout": {
				"storage": [
					{
						"astId": 3,
						"contract": "contracts/7-Withdraw_Funds/funds_to_recepients.sol:Withdrawable",
						"label": "owner",
						"offset": 0,
						"slot": "0",
						"type": "t_address_payable"
					}
				],
				"types": {
					"t_address_payable": {
						"encoding": "inplace",
						"label": "address payable",
						"numberOfBytes": "20"
					}
				}
			},
			"userdoc": {
				"kind": "user",
				"methods": {},
				"version": 1
			}
		}
	}
}