{
	"contracts/Arrays.sol": {
		"Arrays": {
			"abi": [
				{
					"inputs": [
						{
							"internalType": "string",
							"name": "_value",
							"type": "string"
						}
					],
					"name": "addValue",
					"outputs": [],
					"stateMutability": "nonpayable",
					"type": "function"
				},
				{
					"inputs": [
						{
							"internalType": "uint256",
							"name": "",
							"type": "uint256"
						},
						{
							"internalType": "uint256",
							"name": "",
							"type": "uint256"
						}
					],
					"name": "array2D",
					"outputs": [
						{
							"internalType": "uint256",
							"name": "",
							"type": "uint256"
						}
					],
					"stateMutability": "view",
					"type": "function"
				},
				{
					"inputs": [
						{
							"internalType": "uint256",
							"name": "",
							"type": "uint256"
						}
					],
					"name": "stringArray",
					"outputs": [
						{
							"internalType": "string",
							"name": "",
							"type": "string"
						}
					],
					"stateMutability": "view",
					"type": "function"
				},
				{
					"inputs": [
						{
							"internalType": "uint256",
							"name": "",
							"type": "uint256"
						}
					],
					"name": "uintArray",
					"outputs": [
						{
							"internalType": "uint256",
							"name": "",
							"type": "uint256"
						}
					],
					"stateMutability": "view",
					"type": "function"
				},
				{
					"inputs": [],
					"name": "valueCount",
					"outputs": [
						{
							"internalType": "uint256",
							"name": "",
							"type": "uint256"
						}
					],
					"stateMutability": "view",
					"type": "function"
				},
				{
					"inputs": [
						{
							"internalType": "uint256",
							"name": "",
							"type": "uint256"
						}
					],
					"name": "values",
					"outputs": [
						{
							"internalType": "string",
							"name": "",
							"type": "string"
						}
					],
					"stateMutability": "view",
					"type": "function"
				}
			],
			"devdoc": {
				"kind": "dev",
				"methods": {},
				"version": 1
			},
			"evm": {
				"assembly": "    /* \"contracts/Arrays.sol\":57:569  contract Arrays{... */\n  mstore(0x40, 0x80)\n    /* \"contracts/Arrays.sol\":104:137  uint[] public uintArray = [1,2,3] */\n  mload(0x40)\n  dup1\n  0x60\n  add\n  0x40\n  mstore\n  dup1\n    /* \"contracts/Arrays.sol\":131:132  1 */\n  0x01\n    /* \"contracts/Arrays.sol\":104:137  uint[] public uintArray = [1,2,3] */\n  0xff\n  and\n  dup2\n  mstore\n  0x20\n  add\n    /* \"contracts/Arrays.sol\":133:134  2 */\n  0x02\n    /* \"contracts/Arrays.sol\":104:137  uint[] public uintArray = [1,2,3] */\n  0xff\n  and\n  dup2\n  mstore\n  0x20\n  add\n    /* \"contracts/Arrays.sol\":135:136  3 */\n  0x03\n    /* \"contracts/Arrays.sol\":104:137  uint[] public uintArray = [1,2,3] */\n  0xff\n  and\n  dup2\n  mstore\n  pop\n  0x00\n  swap1\n  0x03\n  tag_1\n  swap3\n  swap2\n  swap1\n  tag_2\n  jump\t// in\ntag_1:\n  pop\n    /* \"contracts/Arrays.sol\":143:203  string [] public stringArray = [\"apple\", \"banana\", \"carrot\"] */\n  mload(0x40)\n  dup1\n  0x60\n  add\n  0x40\n  mstore\n  dup1\n  mload(0x40)\n  dup1\n  0x40\n  add\n  0x40\n  mstore\n  dup1\n  0x05\n  dup2\n  mstore\n  0x20\n  add\n  0x6170706c65000000000000000000000000000000000000000000000000000000\n  dup2\n  mstore\n  pop\n  dup2\n  mstore\n  0x20\n  add\n  mload(0x40)\n  dup1\n  0x40\n  add\n  0x40\n  mstore\n  dup1\n  0x06\n  dup2\n  mstore\n  0x20\n  add\n  0x62616e616e610000000000000000000000000000000000000000000000000000\n  dup2\n  mstore\n  pop\n  dup2\n  mstore\n  0x20\n  add\n  mload(0x40)\n  dup1\n  0x40\n  add\n  0x40\n  mstore\n  dup1\n  0x06\n  dup2\n  mstore\n  0x20\n  add\n  0x636172726f740000000000000000000000000000000000000000000000000000\n  dup2\n  mstore\n  pop\n  dup2\n  mstore\n  pop\n  0x01\n  swap1\n  0x03\n  tag_3\n  swap3\n  swap2\n  swap1\n  tag_4\n  jump\t// in\ntag_3:\n  pop\n    /* \"contracts/Arrays.sol\":263:305  uint[][] public array2D =[[1,2,3],[4,5,6]] */\n  mload(0x40)\n  dup1\n  0x40\n  add\n  0x40\n  mstore\n  dup1\n  mload(0x40)\n  dup1\n  0x60\n  add\n  0x40\n  mstore\n  dup1\n    /* \"contracts/Arrays.sol\":290:291  1 */\n  0x01\n    /* \"contracts/Arrays.sol\":263:305  uint[][] public array2D =[[1,2,3],[4,5,6]] */\n  0xff\n  and\n  dup2\n  mstore\n  0x20\n  add\n    /* \"contracts/Arrays.sol\":292:293  2 */\n  0x02\n    /* \"contracts/Arrays.sol\":263:305  uint[][] public array2D =[[1,2,3],[4,5,6]] */\n  0xff\n  and\n  dup2\n  mstore\n  0x20\n  add\n    /* \"contracts/Arrays.sol\":294:295  3 */\n  0x03\n    /* \"contracts/Arrays.sol\":263:305  uint[][] public array2D =[[1,2,3],[4,5,6]] */\n  0xff\n  and\n  dup2\n  mstore\n  pop\n  dup2\n  mstore\n  0x20\n  add\n  mload(0x40)\n  dup1\n  0x60\n  add\n  0x40\n  mstore\n  dup1\n    /* \"contracts/Arrays.sol\":298:299  4 */\n  0x04\n    /* \"contracts/Arrays.sol\":263:305  uint[][] public array2D =[[1,2,3],[4,5,6]] */\n  0xff\n  and\n  dup2\n  mstore\n  0x20\n  add\n    /* \"contracts/Arrays.sol\":300:301  5 */\n  0x05\n    /* \"contracts/Arrays.sol\":263:305  uint[][] public array2D =[[1,2,3],[4,5,6]] */\n  0xff\n  and\n  dup2\n  mstore\n  0x20\n  add\n    /* \"contracts/Arrays.sol\":302:303  6 */\n  0x06\n    /* \"contracts/Arrays.sol\":263:305  uint[][] public array2D =[[1,2,3],[4,5,6]] */\n  0xff\n  and\n  dup2\n  mstore\n  pop\n  dup2\n  mstore\n  pop\n  0x03\n  swap1\n  0x02\n  tag_5\n  swap3\n  swap2\n  swap1\n  tag_6\n  jump\t// in\ntag_5:\n  pop\n    /* \"contracts/Arrays.sol\":57:569  contract Arrays{... */\n  callvalue\n  dup1\n  iszero\n  tag_7\n  jumpi\n  0x00\n  dup1\n  revert\ntag_7:\n  pop\n  jump(tag_8)\ntag_2:\n  dup3\n  dup1\n  sload\n  dup3\n  dup3\n  sstore\n  swap1\n  0x00\n  mstore\n  keccak256(0x00, 0x20)\n  swap1\n  dup2\n  add\n  swap3\n  dup3\n  iszero\n  tag_9\n  jumpi\n  swap2\n  0x20\n  mul\n  dup3\n  add\ntag_10:\n  dup3\n  dup2\n  gt\n  iszero\n  tag_11\n  jumpi\n  dup3\n  mload\n  dup3\n  swap1\n  0xff\n  and\n  swap1\n  sstore\n  swap2\n  0x20\n  add\n  swap2\n  swap1\n  0x01\n  add\n  swap1\n  jump(tag_10)\ntag_11:\ntag_9:\n  pop\n  swap1\n  pop\n  tag_12\n  swap2\n  swap1\n  tag_13\n  jump\t// in\ntag_12:\n  pop\n  swap1\n  jump\t// out\ntag_4:\n  dup3\n  dup1\n  sload\n  dup3\n  dup3\n  sstore\n  swap1\n  0x00\n  mstore\n  keccak256(0x00, 0x20)\n  swap1\n  dup2\n  add\n  swap3\n  dup3\n  iszero\n  tag_14\n  jumpi\n  swap2\n  0x20\n  mul\n  dup3\n  add\ntag_15:\n  dup3\n  dup2\n  gt\n  iszero\n  tag_16\n  jumpi\n  dup3\n  mload\n  dup3\n  swap1\n  dup2\n  tag_17\n  swap2\n  swap1\n  tag_18\n  jump\t// in\ntag_17:\n  pop\n  swap2\n  0x20\n  add\n  swap2\n  swap1\n  0x01\n  add\n  swap1\n  jump(tag_15)\ntag_16:\ntag_14:\n  pop\n  swap1\n  pop\n  tag_19\n  swap2\n  swap1\n  tag_20\n  jump\t// in\ntag_19:\n  pop\n  swap1\n  jump\t// out\ntag_6:\n  dup3\n  dup1\n  sload\n  dup3\n  dup3\n  sstore\n  swap1\n  0x00\n  mstore\n  keccak256(0x00, 0x20)\n  swap1\n  dup2\n  add\n  swap3\n  dup3\n  iszero\n  tag_21\n  jumpi\n  swap2\n  0x20\n  mul\n  dup3\n  add\ntag_22:\n  dup3\n  dup2\n  gt\n  iszero\n  tag_23\n  jumpi\n  dup3\n  mload\n  dup3\n  swap1\n  0x03\n  tag_24\n  swap3\n  swap2\n  swap1\n  tag_2\n  jump\t// in\ntag_24:\n  pop\n  swap2\n  0x20\n  add\n  swap2\n  swap1\n  0x01\n  add\n  swap1\n  jump(tag_22)\ntag_23:\ntag_21:\n  pop\n  swap1\n  pop\n  tag_25\n  swap2\n  swap1\n  tag_26\n  jump\t// in\ntag_25:\n  pop\n  swap1\n  jump\t// out\ntag_13:\ntag_27:\n  dup1\n  dup3\n  gt\n  iszero\n  tag_28\n  jumpi\n  0x00\n  dup2\n  0x00\n  swap1\n  sstore\n  pop\n  0x01\n  add\n  jump(tag_27)\ntag_28:\n  pop\n  swap1\n  jump\t// out\ntag_20:\ntag_29:\n  dup1\n  dup3\n  gt\n  iszero\n  tag_30\n  jumpi\n  0x00\n  dup2\n  dup2\n  tag_31\n  swap2\n  swap1\n  tag_32\n  jump\t// in\ntag_31:\n  pop\n  0x01\n  add\n  jump(tag_29)\ntag_30:\n  pop\n  swap1\n  jump\t// out\ntag_26:\ntag_33:\n  dup1\n  dup3\n  gt\n  iszero\n  tag_34\n  jumpi\n  0x00\n  dup2\n  dup2\n  tag_35\n  swap2\n  swap1\n  tag_36\n  jump\t// in\ntag_35:\n  pop\n  0x01\n  add\n  jump(tag_33)\ntag_34:\n  pop\n  swap1\n  jump\t// out\ntag_32:\n  pop\n  dup1\n  sload\n  tag_37\n  swap1\n  tag_38\n  jump\t// in\ntag_37:\n  0x00\n  dup3\n  sstore\n  dup1\n  0x1f\n  lt\n  tag_40\n  jumpi\n  pop\n  jump(tag_39)\ntag_40:\n  0x1f\n  add\n  0x20\n  swap1\n  div\n  swap1\n  0x00\n  mstore\n  keccak256(0x00, 0x20)\n  swap1\n  dup2\n  add\n  swap1\n  tag_41\n  swap2\n  swap1\n  tag_13\n  jump\t// in\ntag_41:\ntag_39:\n  pop\n  jump\t// out\ntag_36:\n  pop\n  dup1\n  sload\n  0x00\n  dup3\n  sstore\n  swap1\n  0x00\n  mstore\n  keccak256(0x00, 0x20)\n  swap1\n  dup2\n  add\n  swap1\n  tag_43\n  swap2\n  swap1\n  tag_13\n  jump\t// in\ntag_43:\n  pop\n  jump\t// out\n    /* \"#utility.yul\":7:106   */\ntag_44:\n    /* \"#utility.yul\":59:65   */\n  0x00\n    /* \"#utility.yul\":93:98   */\n  dup2\n    /* \"#utility.yul\":87:99   */\n  mload\n    /* \"#utility.yul\":77:99   */\n  swap1\n  pop\n    /* \"#utility.yul\":7:106   */\n  swap2\n  swap1\n  pop\n  jump\t// out\n    /* \"#utility.yul\":112:292   */\ntag_45:\n    /* \"#utility.yul\":160:237   */\n  0x4e487b7100000000000000000000000000000000000000000000000000000000\n    /* \"#utility.yul\":157:158   */\n  0x00\n    /* \"#utility.yul\":150:238   */\n  mstore\n    /* \"#utility.yul\":257:261   */\n  0x41\n    /* \"#utility.yul\":254:255   */\n  0x04\n    /* \"#utility.yul\":247:262   */\n  mstore\n    /* \"#utility.yul\":281:285   */\n  0x24\n    /* \"#utility.yul\":278:279   */\n  0x00\n    /* \"#utility.yul\":271:286   */\n  revert\n    /* \"#utility.yul\":298:478   */\ntag_46:\n    /* \"#utility.yul\":346:423   */\n  0x4e487b7100000000000000000000000000000000000000000000000000000000\n    /* \"#utility.yul\":343:344   */\n  0x00\n    /* \"#utility.yul\":336:424   */\n  mstore\n    /* \"#utility.yul\":443:447   */\n  0x22\n    /* \"#utility.yul\":440:441   */\n  0x04\n    /* \"#utility.yul\":433:448   */\n  mstore\n    /* \"#utility.yul\":467:471   */\n  0x24\n    /* \"#utility.yul\":464:465   */\n  0x00\n    /* \"#utility.yul\":457:472   */\n  revert\n    /* \"#utility.yul\":484:804   */\ntag_38:\n    /* \"#utility.yul\":528:534   */\n  0x00\n    /* \"#utility.yul\":565:566   */\n  0x02\n    /* \"#utility.yul\":559:563   */\n  dup3\n    /* \"#utility.yul\":555:567   */\n  div\n    /* \"#utility.yul\":545:567   */\n  swap1\n  pop\n    /* \"#utility.yul\":612:613   */\n  0x01\n    /* \"#utility.yul\":606:610   */\n  dup3\n    /* \"#utility.yul\":602:614   */\n  and\n    /* \"#utility.yul\":633:651   */\n  dup1\n    /* \"#utility.yul\":623:704   */\n  tag_68\n  jumpi\n    /* \"#utility.yul\":689:693   */\n  0x7f\n    /* \"#utility.yul\":681:687   */\n  dup3\n    /* \"#utility.yul\":677:694   */\n  and\n    /* \"#utility.yul\":667:694   */\n  swap2\n  pop\n    /* \"#utility.yul\":623:704   */\ntag_68:\n    /* \"#utility.yul\":751:753   */\n  0x20\n    /* \"#utility.yul\":743:749   */\n  dup3\n    /* \"#utility.yul\":740:754   */\n  lt\n    /* \"#utility.yul\":720:738   */\n  dup2\n    /* \"#utility.yul\":717:755   */\n  sub\n    /* \"#utility.yul\":714:798   */\n  tag_69\n  jumpi\n    /* \"#utility.yul\":770:788   */\n  tag_70\n  tag_46\n  jump\t// in\ntag_70:\n    /* \"#utility.yul\":714:798   */\ntag_69:\n    /* \"#utility.yul\":535:804   */\n  pop\n    /* \"#utility.yul\":484:804   */\n  swap2\n  swap1\n  pop\n  jump\t// out\n    /* \"#utility.yul\":810:951   */\ntag_47:\n    /* \"#utility.yul\":859:863   */\n  0x00\n    /* \"#utility.yul\":882:885   */\n  dup2\n    /* \"#utility.yul\":874:885   */\n  swap1\n  pop\n    /* \"#utility.yul\":905:908   */\n  dup2\n    /* \"#utility.yul\":902:903   */\n  0x00\n    /* \"#utility.yul\":895:909   */\n  mstore\n    /* \"#utility.yul\":939:943   */\n  0x20\n    /* \"#utility.yul\":936:937   */\n  0x00\n    /* \"#utility.yul\":926:944   */\n  keccak256\n    /* \"#utility.yul\":918:944   */\n  swap1\n  pop\n    /* \"#utility.yul\":810:951   */\n  swap2\n  swap1\n  pop\n  jump\t// out\n    /* \"#utility.yul\":957:1050   */\ntag_48:\n    /* \"#utility.yul\":994:1000   */\n  0x00\n    /* \"#utility.yul\":1041:1043   */\n  0x20\n    /* \"#utility.yul\":1036:1038   */\n  0x1f\n    /* \"#utility.yul\":1029:1034   */\n  dup4\n    /* \"#utility.yul\":1025:1039   */\n  add\n    /* \"#utility.yul\":1021:1044   */\n  div\n    /* \"#utility.yul\":1011:1044   */\n  swap1\n  pop\n    /* \"#utility.yul\":957:1050   */\n  swap2\n  swap1\n  pop\n  jump\t// out\n    /* \"#utility.yul\":1056:1163   */\ntag_49:\n    /* \"#utility.yul\":1100:1108   */\n  0x00\n    /* \"#utility.yul\":1150:1155   */\n  dup3\n    /* \"#utility.yul\":1144:1148   */\n  dup3\n    /* \"#utility.yul\":1140:1156   */\n  shl\n    /* \"#utility.yul\":1119:1156   */\n  swap1\n  pop\n    /* \"#utility.yul\":1056:1163   */\n  swap3\n  swap2\n  pop\n  pop\n  jump\t// out\n    /* \"#utility.yul\":1169:1562   */\ntag_50:\n    /* \"#utility.yul\":1238:1244   */\n  0x00\n    /* \"#utility.yul\":1288:1289   */\n  0x08\n    /* \"#utility.yul\":1276:1286   */\n  dup4\n    /* \"#utility.yul\":1272:1290   */\n  mul\n    /* \"#utility.yul\":1311:1408   */\n  tag_75\n    /* \"#utility.yul\":1341:1407   */\n  0xffffffffffffffffffffffffffffffffffffffffffffffffffffffffffffffff\n    /* \"#utility.yul\":1330:1339   */\n  dup3\n    /* \"#utility.yul\":1311:1408   */\n  tag_49\n  jump\t// in\ntag_75:\n    /* \"#utility.yul\":1429:1468   */\n  tag_76\n    /* \"#utility.yul\":1459:1467   */\n  dup7\n    /* \"#utility.yul\":1448:1457   */\n  dup4\n    /* \"#utility.yul\":1429:1468   */\n  tag_49\n  jump\t// in\ntag_76:\n    /* \"#utility.yul\":1417:1468   */\n  swap6\n  pop\n    /* \"#utility.yul\":1501:1505   */\n  dup1\n    /* \"#utility.yul\":1497:1506   */\n  not\n    /* \"#utility.yul\":1490:1495   */\n  dup5\n    /* \"#utility.yul\":1486:1507   */\n  and\n    /* \"#utility.yul\":1477:1507   */\n  swap4\n  pop\n    /* \"#utility.yul\":1550:1554   */\n  dup1\n    /* \"#utility.yul\":1540:1548   */\n  dup7\n    /* \"#utility.yul\":1536:1555   */\n  and\n    /* \"#utility.yul\":1529:1534   */\n  dup5\n    /* \"#utility.yul\":1526:1556   */\n  or\n    /* \"#utility.yul\":1516:1556   */\n  swap3\n  pop\n    /* \"#utility.yul\":1245:1562   */\n  pop\n  pop\n    /* \"#utility.yul\":1169:1562   */\n  swap4\n  swap3\n  pop\n  pop\n  pop\n  jump\t// out\n    /* \"#utility.yul\":1568:1645   */\ntag_51:\n    /* \"#utility.yul\":1605:1612   */\n  0x00\n    /* \"#utility.yul\":1634:1639   */\n  dup2\n    /* \"#utility.yul\":1623:1639   */\n  swap1\n  pop\n    /* \"#utility.yul\":1568:1645   */\n  swap2\n  swap1\n  pop\n  jump\t// out\n    /* \"#utility.yul\":1651:1711   */\ntag_52:\n    /* \"#utility.yul\":1679:1682   */\n  0x00\n    /* \"#utility.yul\":1700:1705   */\n  dup2\n    /* \"#utility.yul\":1693:1705   */\n  swap1\n  pop\n    /* \"#utility.yul\":1651:1711   */\n  swap2\n  swap1\n  pop\n  jump\t// out\n    /* \"#utility.yul\":1717:1859   */\ntag_53:\n    /* \"#utility.yul\":1767:1776   */\n  0x00\n    /* \"#utility.yul\":1800:1853   */\n  tag_80\n    /* \"#utility.yul\":1818:1852   */\n  tag_81\n    /* \"#utility.yul\":1827:1851   */\n  tag_82\n    /* \"#utility.yul\":1845:1850   */\n  dup5\n    /* \"#utility.yul\":1827:1851   */\n  tag_51\n  jump\t// in\ntag_82:\n    /* \"#utility.yul\":1818:1852   */\n  tag_52\n  jump\t// in\ntag_81:\n    /* \"#utility.yul\":1800:1853   */\n  tag_51\n  jump\t// in\ntag_80:\n    /* \"#utility.yul\":1787:1853   */\n  swap1\n  pop\n    /* \"#utility.yul\":1717:1859   */\n  swap2\n  swap1\n  pop\n  jump\t// out\n    /* \"#utility.yul\":1865:1940   */\ntag_54:\n    /* \"#utility.yul\":1908:1911   */\n  0x00\n    /* \"#utility.yul\":1929:1934   */\n  dup2\n    /* \"#utility.yul\":1922:1934   */\n  swap1\n  pop\n    /* \"#utility.yul\":1865:1940   */\n  swap2\n  swap1\n  pop\n  jump\t// out\n    /* \"#utility.yul\":1946:2215   */\ntag_55:\n    /* \"#utility.yul\":2056:2095   */\n  tag_85\n    /* \"#utility.yul\":2087:2094   */\n  dup4\n    /* \"#utility.yul\":2056:2095   */\n  tag_53\n  jump\t// in\ntag_85:\n    /* \"#utility.yul\":2117:2208   */\n  tag_86\n    /* \"#utility.yul\":2166:2207   */\n  tag_87\n    /* \"#utility.yul\":2190:2206   */\n  dup3\n    /* \"#utility.yul\":2166:2207   */\n  tag_54\n  jump\t// in\ntag_87:\n    /* \"#utility.yul\":2158:2164   */\n  dup5\n    /* \"#utility.yul\":2151:2155   */\n  dup5\n    /* \"#utility.yul\":2145:2156   */\n  sload\n    /* \"#utility.yul\":2117:2208   */\n  tag_50\n  jump\t// in\ntag_86:\n    /* \"#utility.yul\":2111:2115   */\n  dup3\n    /* \"#utility.yul\":2104:2209   */\n  sstore\n    /* \"#utility.yul\":2022:2215   */\n  pop\n    /* \"#utility.yul\":1946:2215   */\n  pop\n  pop\n  pop\n  jump\t// out\n    /* \"#utility.yul\":2221:2294   */\ntag_56:\n    /* \"#utility.yul\":2266:2269   */\n  0x00\n    /* \"#utility.yul\":2221:2294   */\n  swap1\n  jump\t// out\n    /* \"#utility.yul\":2300:2489   */\ntag_57:\n    /* \"#utility.yul\":2377:2409   */\n  tag_90\n  tag_56\n  jump\t// in\ntag_90:\n    /* \"#utility.yul\":2418:2483   */\n  tag_91\n    /* \"#utility.yul\":2476:2482   */\n  dup2\n    /* \"#utility.yul\":2468:2474   */\n  dup5\n    /* \"#utility.yul\":2462:2466   */\n  dup5\n    /* \"#utility.yul\":2418:2483   */\n  tag_55\n  jump\t// in\ntag_91:\n    /* \"#utility.yul\":2353:2489   */\n  pop\n    /* \"#utility.yul\":2300:2489   */\n  pop\n  pop\n  jump\t// out\n    /* \"#utility.yul\":2495:2681   */\ntag_58:\n    /* \"#utility.yul\":2555:2675   */\ntag_93:\n    /* \"#utility.yul\":2572:2575   */\n  dup2\n    /* \"#utility.yul\":2565:2570   */\n  dup2\n    /* \"#utility.yul\":2562:2576   */\n  lt\n    /* \"#utility.yul\":2555:2675   */\n  iszero\n  tag_95\n  jumpi\n    /* \"#utility.yul\":2626:2665   */\n  tag_96\n    /* \"#utility.yul\":2663:2664   */\n  0x00\n    /* \"#utility.yul\":2656:2661   */\n  dup3\n    /* \"#utility.yul\":2626:2665   */\n  tag_57\n  jump\t// in\ntag_96:\n    /* \"#utility.yul\":2599:2600   */\n  0x01\n    /* \"#utility.yul\":2592:2597   */\n  dup2\n    /* \"#utility.yul\":2588:2601   */\n  add\n    /* \"#utility.yul\":2579:2601   */\n  swap1\n  pop\n    /* \"#utility.yul\":2555:2675   */\n  jump(tag_93)\ntag_95:\n    /* \"#utility.yul\":2495:2681   */\n  pop\n  pop\n  jump\t// out\n    /* \"#utility.yul\":2687:3230   */\ntag_59:\n    /* \"#utility.yul\":2788:2790   */\n  0x1f\n    /* \"#utility.yul\":2783:2786   */\n  dup3\n    /* \"#utility.yul\":2780:2791   */\n  gt\n    /* \"#utility.yul\":2777:3223   */\n  iszero\n  tag_98\n  jumpi\n    /* \"#utility.yul\":2822:2860   */\n  tag_99\n    /* \"#utility.yul\":2854:2859   */\n  dup2\n    /* \"#utility.yul\":2822:2860   */\n  tag_47\n  jump\t// in\ntag_99:\n    /* \"#utility.yul\":2906:2935   */\n  tag_100\n    /* \"#utility.yul\":2924:2934   */\n  dup5\n    /* \"#utility.yul\":2906:2935   */\n  tag_48\n  jump\t// in\ntag_100:\n    /* \"#utility.yul\":2896:2904   */\n  dup2\n    /* \"#utility.yul\":2892:2936   */\n  add\n    /* \"#utility.yul\":3089:3091   */\n  0x20\n    /* \"#utility.yul\":3077:3087   */\n  dup6\n    /* \"#utility.yul\":3074:3092   */\n  lt\n    /* \"#utility.yul\":3071:3120   */\n  iszero\n  tag_101\n  jumpi\n    /* \"#utility.yul\":3110:3118   */\n  dup2\n    /* \"#utility.yul\":3095:3118   */\n  swap1\n  pop\n    /* \"#utility.yul\":3071:3120   */\ntag_101:\n    /* \"#utility.yul\":3133:3213   */\n  tag_102\n    /* \"#utility.yul\":3189:3211   */\n  tag_103\n    /* \"#utility.yul\":3207:3210   */\n  dup6\n    /* \"#utility.yul\":3189:3211   */\n  tag_48\n  jump\t// in\ntag_103:\n    /* \"#utility.yul\":3179:3187   */\n  dup4\n    /* \"#utility.yul\":3175:3212   */\n  add\n    /* \"#utility.yul\":3162:3173   */\n  dup3\n    /* \"#utility.yul\":3133:3213   */\n  tag_58\n  jump\t// in\ntag_102:\n    /* \"#utility.yul\":2792:3223   */\n  pop\n  pop\n    /* \"#utility.yul\":2777:3223   */\ntag_98:\n    /* \"#utility.yul\":2687:3230   */\n  pop\n  pop\n  pop\n  jump\t// out\n    /* \"#utility.yul\":3236:3353   */\ntag_60:\n    /* \"#utility.yul\":3290:3298   */\n  0x00\n    /* \"#utility.yul\":3340:3345   */\n  dup3\n    /* \"#utility.yul\":3334:3338   */\n  dup3\n    /* \"#utility.yul\":3330:3346   */\n  shr\n    /* \"#utility.yul\":3309:3346   */\n  swap1\n  pop\n    /* \"#utility.yul\":3236:3353   */\n  swap3\n  swap2\n  pop\n  pop\n  jump\t// out\n    /* \"#utility.yul\":3359:3528   */\ntag_61:\n    /* \"#utility.yul\":3403:3409   */\n  0x00\n    /* \"#utility.yul\":3436:3487   */\n  tag_106\n    /* \"#utility.yul\":3484:3485   */\n  0x00\n    /* \"#utility.yul\":3480:3486   */\n  not\n    /* \"#utility.yul\":3472:3477   */\n  dup5\n    /* \"#utility.yul\":3469:3470   */\n  0x08\n    /* \"#utility.yul\":3465:3478   */\n  mul\n    /* \"#utility.yul\":3436:3487   */\n  tag_60\n  jump\t// in\ntag_106:\n    /* \"#utility.yul\":3432:3488   */\n  not\n    /* \"#utility.yul\":3517:3521   */\n  dup1\n    /* \"#utility.yul\":3511:3515   */\n  dup4\n    /* \"#utility.yul\":3507:3522   */\n  and\n    /* \"#utility.yul\":3497:3522   */\n  swap2\n  pop\n    /* \"#utility.yul\":3410:3528   */\n  pop\n    /* \"#utility.yul\":3359:3528   */\n  swap3\n  swap2\n  pop\n  pop\n  jump\t// out\n    /* \"#utility.yul\":3533:3828   */\ntag_62:\n    /* \"#utility.yul\":3609:3613   */\n  0x00\n    /* \"#utility.yul\":3755:3784   */\n  tag_108\n    /* \"#utility.yul\":3780:3783   */\n  dup4\n    /* \"#utility.yul\":3774:3778   */\n  dup4\n    /* \"#utility.yul\":3755:3784   */\n  tag_61\n  jump\t// in\ntag_108:\n    /* \"#utility.yul\":3747:3784   */\n  swap2\n  pop\n    /* \"#utility.yul\":3817:3820   */\n  dup3\n    /* \"#utility.yul\":3814:3815   */\n  0x02\n    /* \"#utility.yul\":3810:3821   */\n  mul\n    /* \"#utility.yul\":3804:3808   */\n  dup3\n    /* \"#utility.yul\":3801:3822   */\n  or\n    /* \"#utility.yul\":3793:3822   */\n  swap1\n  pop\n    /* \"#utility.yul\":3533:3828   */\n  swap3\n  swap2\n  pop\n  pop\n  jump\t// out\n    /* \"#utility.yul\":3833:5228   */\ntag_18:\n    /* \"#utility.yul\":3950:3987   */\n  tag_110\n    /* \"#utility.yul\":3983:3986   */\n  dup3\n    /* \"#utility.yul\":3950:3987   */\n  tag_44\n  jump\t// in\ntag_110:\n    /* \"#utility.yul\":4052:4070   */\n  0xffffffffffffffff\n    /* \"#utility.yul\":4044:4050   */\n  dup2\n    /* \"#utility.yul\":4041:4071   */\n  gt\n    /* \"#utility.yul\":4038:4094   */\n  iszero\n  tag_111\n  jumpi\n    /* \"#utility.yul\":4074:4092   */\n  tag_112\n  tag_45\n  jump\t// in\ntag_112:\n    /* \"#utility.yul\":4038:4094   */\ntag_111:\n    /* \"#utility.yul\":4118:4156   */\n  tag_113\n    /* \"#utility.yul\":4150:4154   */\n  dup3\n    /* \"#utility.yul\":4144:4155   */\n  sload\n    /* \"#utility.yul\":4118:4156   */\n  tag_38\n  jump\t// in\ntag_113:\n    /* \"#utility.yul\":4203:4270   */\n  tag_114\n    /* \"#utility.yul\":4263:4269   */\n  dup3\n    /* \"#utility.yul\":4255:4261   */\n  dup3\n    /* \"#utility.yul\":4249:4253   */\n  dup6\n    /* \"#utility.yul\":4203:4270   */\n  tag_59\n  jump\t// in\ntag_114:\n    /* \"#utility.yul\":4297:4298   */\n  0x00\n    /* \"#utility.yul\":4321:4325   */\n  0x20\n    /* \"#utility.yul\":4308:4325   */\n  swap1\n  pop\n    /* \"#utility.yul\":4353:4355   */\n  0x1f\n    /* \"#utility.yul\":4345:4351   */\n  dup4\n    /* \"#utility.yul\":4342:4356   */\n  gt\n    /* \"#utility.yul\":4370:4371   */\n  0x01\n    /* \"#utility.yul\":4365:4983   */\n  dup2\n  eq\n  tag_116\n  jumpi\n    /* \"#utility.yul\":5027:5028   */\n  0x00\n    /* \"#utility.yul\":5044:5050   */\n  dup5\n    /* \"#utility.yul\":5041:5118   */\n  iszero\n  tag_117\n  jumpi\n    /* \"#utility.yul\":5093:5102   */\n  dup3\n    /* \"#utility.yul\":5088:5091   */\n  dup8\n    /* \"#utility.yul\":5084:5103   */\n  add\n    /* \"#utility.yul\":5078:5104   */\n  mload\n    /* \"#utility.yul\":5069:5104   */\n  swap1\n  pop\n    /* \"#utility.yul\":5041:5118   */\ntag_117:\n    /* \"#utility.yul\":5144:5211   */\n  tag_118\n    /* \"#utility.yul\":5204:5210   */\n  dup6\n    /* \"#utility.yul\":5197:5202   */\n  dup3\n    /* \"#utility.yul\":5144:5211   */\n  tag_62\n  jump\t// in\ntag_118:\n    /* \"#utility.yul\":5138:5142   */\n  dup7\n    /* \"#utility.yul\":5131:5212   */\n  sstore\n    /* \"#utility.yul\":5000:5222   */\n  pop\n    /* \"#utility.yul\":4335:5222   */\n  jump(tag_115)\n    /* \"#utility.yul\":4365:4983   */\ntag_116:\n    /* \"#utility.yul\":4417:4421   */\n  0x1f\n    /* \"#utility.yul\":4413:4422   */\n  not\n    /* \"#utility.yul\":4405:4411   */\n  dup5\n    /* \"#utility.yul\":4401:4423   */\n  and\n    /* \"#utility.yul\":4451:4488   */\n  tag_119\n    /* \"#utility.yul\":4483:4487   */\n  dup7\n    /* \"#utility.yul\":4451:4488   */\n  tag_47\n  jump\t// in\ntag_119:\n    /* \"#utility.yul\":4510:4511   */\n  0x00\n    /* \"#utility.yul\":4524:4732   */\ntag_120:\n    /* \"#utility.yul\":4538:4545   */\n  dup3\n    /* \"#utility.yul\":4535:4536   */\n  dup2\n    /* \"#utility.yul\":4532:4546   */\n  lt\n    /* \"#utility.yul\":4524:4732   */\n  iszero\n  tag_122\n  jumpi\n    /* \"#utility.yul\":4617:4626   */\n  dup5\n    /* \"#utility.yul\":4612:4615   */\n  dup10\n    /* \"#utility.yul\":4608:4627   */\n  add\n    /* \"#utility.yul\":4602:4628   */\n  mload\n    /* \"#utility.yul\":4594:4600   */\n  dup3\n    /* \"#utility.yul\":4587:4629   */\n  sstore\n    /* \"#utility.yul\":4668:4669   */\n  0x01\n    /* \"#utility.yul\":4660:4666   */\n  dup3\n    /* \"#utility.yul\":4656:4670   */\n  add\n    /* \"#utility.yul\":4646:4670   */\n  swap2\n  pop\n    /* \"#utility.yul\":4715:4717   */\n  0x20\n    /* \"#utility.yul\":4704:4713   */\n  dup6\n    /* \"#utility.yul\":4700:4718   */\n  add\n    /* \"#utility.yul\":4687:4718   */\n  swap5\n  pop\n    /* \"#utility.yul\":4561:4565   */\n  0x20\n    /* \"#utility.yul\":4558:4559   */\n  dup2\n    /* \"#utility.yul\":4554:4566   */\n  add\n    /* \"#utility.yul\":4549:4566   */\n  swap1\n  pop\n    /* \"#utility.yul\":4524:4732   */\n  jump(tag_120)\ntag_122:\n    /* \"#utility.yul\":4760:4766   */\n  dup7\n    /* \"#utility.yul\":4751:4758   */\n  dup4\n    /* \"#utility.yul\":4748:4767   */\n  lt\n    /* \"#utility.yul\":4745:4924   */\n  iszero\n  tag_123\n  jumpi\n    /* \"#utility.yul\":4818:4827   */\n  dup5\n    /* \"#utility.yul\":4813:4816   */\n  dup10\n    /* \"#utility.yul\":4809:4828   */\n  add\n    /* \"#utility.yul\":4803:4829   */\n  mload\n    /* \"#utility.yul\":4861:4909   */\n  tag_124\n    /* \"#utility.yul\":4903:4907   */\n  0x1f\n    /* \"#utility.yul\":4895:4901   */\n  dup10\n    /* \"#utility.yul\":4891:4908   */\n  and\n    /* \"#utility.yul\":4880:4889   */\n  dup3\n    /* \"#utility.yul\":4861:4909   */\n  tag_61\n  jump\t// in\ntag_124:\n    /* \"#utility.yul\":4853:4859   */\n  dup4\n    /* \"#utility.yul\":4846:4910   */\n  sstore\n    /* \"#utility.yul\":4768:4924   */\n  pop\n    /* \"#utility.yul\":4745:4924   */\ntag_123:\n    /* \"#utility.yul\":4970:4971   */\n  0x01\n    /* \"#utility.yul\":4966:4967   */\n  0x02\n    /* \"#utility.yul\":4958:4964   */\n  dup9\n    /* \"#utility.yul\":4954:4968   */\n  mul\n    /* \"#utility.yul\":4950:4972   */\n  add\n    /* \"#utility.yul\":4944:4948   */\n  dup9\n    /* \"#utility.yul\":4937:4973   */\n  sstore\n    /* \"#utility.yul\":4372:4983   */\n  pop\n  pop\n  pop\n    /* \"#utility.yul\":4335:5222   */\ntag_115:\n  pop\n    /* \"#utility.yul\":3925:5228   */\n  pop\n  pop\n  pop\n    /* \"#utility.yul\":3833:5228   */\n  pop\n  pop\n  jump\t// out\n    /* \"contracts/Arrays.sol\":57:569  contract Arrays{... */\ntag_8:\n  dataSize(sub_0)\n  dup1\n  dataOffset(sub_0)\n  0x00\n  codecopy\n  0x00\n  return\nstop\n\nsub_0: assembly {\n        /* \"contracts/Arrays.sol\":57:569  contract Arrays{... */\n      mstore(0x40, 0x80)\n      callvalue\n      dup1\n      iszero\n      tag_1\n      jumpi\n      0x00\n      dup1\n      revert\n    tag_1:\n      pop\n      jumpi(tag_2, lt(calldatasize, 0x04))\n      shr(0xe0, calldataload(0x00))\n      dup1\n      0x26eb4dbb\n      eq\n      tag_3\n      jumpi\n      dup1\n      0x3a5fbaaa\n      eq\n      tag_4\n      jumpi\n      dup1\n      0x5e383d21\n      eq\n      tag_5\n      jumpi\n      dup1\n      0x6422c4c8\n      eq\n      tag_6\n      jumpi\n      dup1\n      0x9ae918c7\n      eq\n      tag_7\n      jumpi\n      dup1\n      0xd3268fc1\n      eq\n      tag_8\n      jumpi\n    tag_2:\n      0x00\n      dup1\n      revert\n        /* \"contracts/Arrays.sol\":482:567  function valueCount() public view returns (uint){... */\n    tag_3:\n      tag_9\n      tag_10\n      jump\t// in\n    tag_9:\n      mload(0x40)\n      tag_11\n      swap2\n      swap1\n      tag_12\n      jump\t// in\n    tag_11:\n      mload(0x40)\n      dup1\n      swap2\n      sub\n      swap1\n      return\n        /* \"contracts/Arrays.sol\":312:439  function addValue(string memory _value) public{... */\n    tag_4:\n      tag_13\n      0x04\n      dup1\n      calldatasize\n      sub\n      dup2\n      add\n      swap1\n      tag_14\n      swap2\n      swap1\n      tag_15\n      jump\t// in\n    tag_14:\n      tag_16\n      jump\t// in\n    tag_13:\n      stop\n        /* \"contracts/Arrays.sol\":209:232  string [] public values */\n    tag_5:\n      tag_17\n      0x04\n      dup1\n      calldatasize\n      sub\n      dup2\n      add\n      swap1\n      tag_18\n      swap2\n      swap1\n      tag_19\n      jump\t// in\n    tag_18:\n      tag_20\n      jump\t// in\n    tag_17:\n      mload(0x40)\n      tag_21\n      swap2\n      swap1\n      tag_22\n      jump\t// in\n    tag_21:\n      mload(0x40)\n      dup1\n      swap2\n      sub\n      swap1\n      return\n        /* \"contracts/Arrays.sol\":143:203  string [] public stringArray = [\"apple\", \"banana\", \"carrot\"] */\n    tag_6:\n      tag_23\n      0x04\n      dup1\n      calldatasize\n      sub\n      dup2\n      add\n      swap1\n      tag_24\n      swap2\n      swap1\n      tag_19\n      jump\t// in\n    tag_24:\n      tag_25\n      jump\t// in\n    tag_23:\n      mload(0x40)\n      tag_26\n      swap2\n      swap1\n      tag_22\n      jump\t// in\n    tag_26:\n      mload(0x40)\n      dup1\n      swap2\n      sub\n      swap1\n      return\n        /* \"contracts/Arrays.sol\":104:137  uint[] public uintArray = [1,2,3] */\n    tag_7:\n      tag_27\n      0x04\n      dup1\n      calldatasize\n      sub\n      dup2\n      add\n      swap1\n      tag_28\n      swap2\n      swap1\n      tag_19\n      jump\t// in\n    tag_28:\n      tag_29\n      jump\t// in\n    tag_27:\n      mload(0x40)\n      tag_30\n      swap2\n      swap1\n      tag_12\n      jump\t// in\n    tag_30:\n      mload(0x40)\n      dup1\n      swap2\n      sub\n      swap1\n      return\n        /* \"contracts/Arrays.sol\":263:305  uint[][] public array2D =[[1,2,3],[4,5,6]] */\n    tag_8:\n      tag_31\n      0x04\n      dup1\n      calldatasize\n      sub\n      dup2\n      add\n      swap1\n      tag_32\n      swap2\n      swap1\n      tag_33\n      jump\t// in\n    tag_32:\n      tag_34\n      jump\t// in\n    tag_31:\n      mload(0x40)\n      tag_35\n      swap2\n      swap1\n      tag_12\n      jump\t// in\n    tag_35:\n      mload(0x40)\n      dup1\n      swap2\n      sub\n      swap1\n      return\n        /* \"contracts/Arrays.sol\":482:567  function valueCount() public view returns (uint){... */\n    tag_10:\n        /* \"contracts/Arrays.sol\":525:529  uint */\n      0x00\n        /* \"contracts/Arrays.sol\":547:553  values */\n      0x02\n        /* \"contracts/Arrays.sol\":547:560  values.length */\n      dup1\n      sload\n      swap1\n      pop\n        /* \"contracts/Arrays.sol\":540:560  return values.length */\n      swap1\n      pop\n        /* \"contracts/Arrays.sol\":482:567  function valueCount() public view returns (uint){... */\n      swap1\n      jump\t// out\n        /* \"contracts/Arrays.sol\":312:439  function addValue(string memory _value) public{... */\n    tag_16:\n        /* \"contracts/Arrays.sol\":368:374  values */\n      0x02\n        /* \"contracts/Arrays.sol\":380:386  _value */\n      dup2\n        /* \"contracts/Arrays.sol\":368:387  values.push(_value) */\n      swap1\n      dup1\n      0x01\n      dup2\n      sload\n      add\n      dup1\n      dup3\n      sstore\n      dup1\n      swap2\n      pop\n      pop\n      0x01\n      swap1\n      sub\n      swap1\n      0x00\n      mstore\n      keccak256(0x00, 0x20)\n      add\n      0x00\n      swap1\n      swap2\n      swap1\n      swap2\n      swap1\n      swap2\n      pop\n      swap1\n      dup2\n      tag_39\n      swap2\n      swap1\n      tag_40\n      jump\t// in\n    tag_39:\n      pop\n        /* \"contracts/Arrays.sol\":312:439  function addValue(string memory _value) public{... */\n      pop\n      jump\t// out\n        /* \"contracts/Arrays.sol\":209:232  string [] public values */\n    tag_20:\n      0x02\n      dup2\n      dup2\n      sload\n      dup2\n      lt\n      tag_41\n      jumpi\n      0x00\n      dup1\n      revert\n    tag_41:\n      swap1\n      0x00\n      mstore\n      keccak256(0x00, 0x20)\n      add\n      0x00\n      swap2\n      pop\n      swap1\n      pop\n      dup1\n      sload\n      tag_43\n      swap1\n      tag_44\n      jump\t// in\n    tag_43:\n      dup1\n      0x1f\n      add\n      0x20\n      dup1\n      swap2\n      div\n      mul\n      0x20\n      add\n      mload(0x40)\n      swap1\n      dup2\n      add\n      0x40\n      mstore\n      dup1\n      swap3\n      swap2\n      swap1\n      dup2\n      dup2\n      mstore\n      0x20\n      add\n      dup3\n      dup1\n      sload\n      tag_45\n      swap1\n      tag_44\n      jump\t// in\n    tag_45:\n      dup1\n      iszero\n      tag_46\n      jumpi\n      dup1\n      0x1f\n      lt\n      tag_47\n      jumpi\n      0x0100\n      dup1\n      dup4\n      sload\n      div\n      mul\n      dup4\n      mstore\n      swap2\n      0x20\n      add\n      swap2\n      jump(tag_46)\n    tag_47:\n      dup3\n      add\n      swap2\n      swap1\n      0x00\n      mstore\n      keccak256(0x00, 0x20)\n      swap1\n    tag_48:\n      dup2\n      sload\n      dup2\n      mstore\n      swap1\n      0x01\n      add\n      swap1\n      0x20\n      add\n      dup1\n      dup4\n      gt\n      tag_48\n      jumpi\n      dup3\n      swap1\n      sub\n      0x1f\n      and\n      dup3\n      add\n      swap2\n    tag_46:\n      pop\n      pop\n      pop\n      pop\n      pop\n      dup2\n      jump\t// out\n        /* \"contracts/Arrays.sol\":143:203  string [] public stringArray = [\"apple\", \"banana\", \"carrot\"] */\n    tag_25:\n      0x01\n      dup2\n      dup2\n      sload\n      dup2\n      lt\n      tag_49\n      jumpi\n      0x00\n      dup1\n      revert\n    tag_49:\n      swap1\n      0x00\n      mstore\n      keccak256(0x00, 0x20)\n      add\n      0x00\n      swap2\n      pop\n      swap1\n      pop\n      dup1\n      sload\n      tag_51\n      swap1\n      tag_44\n      jump\t// in\n    tag_51:\n      dup1\n      0x1f\n      add\n      0x20\n      dup1\n      swap2\n      div\n      mul\n      0x20\n      add\n      mload(0x40)\n      swap1\n      dup2\n      add\n      0x40\n      mstore\n      dup1\n      swap3\n      swap2\n      swap1\n      dup2\n      dup2\n      mstore\n      0x20\n      add\n      dup3\n      dup1\n      sload\n      tag_52\n      swap1\n      tag_44\n      jump\t// in\n    tag_52:\n      dup1\n      iszero\n      tag_53\n      jumpi\n      dup1\n      0x1f\n      lt\n      tag_54\n      jumpi\n      0x0100\n      dup1\n      dup4\n      sload\n      div\n      mul\n      dup4\n      mstore\n      swap2\n      0x20\n      add\n      swap2\n      jump(tag_53)\n    tag_54:\n      dup3\n      add\n      swap2\n      swap1\n      0x00\n      mstore\n      keccak256(0x00, 0x20)\n      swap1\n    tag_55:\n      dup2\n      sload\n      dup2\n      mstore\n      swap1\n      0x01\n      add\n      swap1\n      0x20\n      add\n      dup1\n      dup4\n      gt\n      tag_55\n      jumpi\n      dup3\n      swap1\n      sub\n      0x1f\n      and\n      dup3\n      add\n      swap2\n    tag_53:\n      pop\n      pop\n      pop\n      pop\n      pop\n      dup2\n      jump\t// out\n        /* \"contracts/Arrays.sol\":104:137  uint[] public uintArray = [1,2,3] */\n    tag_29:\n      0x00\n      dup2\n      dup2\n      sload\n      dup2\n      lt\n      tag_56\n      jumpi\n      0x00\n      dup1\n      revert\n    tag_56:\n      swap1\n      0x00\n      mstore\n      keccak256(0x00, 0x20)\n      add\n      0x00\n      swap2\n      pop\n      swap1\n      pop\n      sload\n      dup2\n      jump\t// out\n        /* \"contracts/Arrays.sol\":263:305  uint[][] public array2D =[[1,2,3],[4,5,6]] */\n    tag_34:\n      0x03\n      dup3\n      dup2\n      sload\n      dup2\n      lt\n      tag_58\n      jumpi\n      0x00\n      dup1\n      revert\n    tag_58:\n      swap1\n      0x00\n      mstore\n      keccak256(0x00, 0x20)\n      add\n      dup2\n      dup2\n      sload\n      dup2\n      lt\n      tag_60\n      jumpi\n      0x00\n      dup1\n      revert\n    tag_60:\n      swap1\n      0x00\n      mstore\n      keccak256(0x00, 0x20)\n      add\n      0x00\n      swap2\n      pop\n      swap2\n      pop\n      pop\n      sload\n      dup2\n      jump\t// out\n        /* \"#utility.yul\":7:84   */\n    tag_62:\n        /* \"#utility.yul\":44:51   */\n      0x00\n        /* \"#utility.yul\":73:78   */\n      dup2\n        /* \"#utility.yul\":62:78   */\n      swap1\n      pop\n        /* \"#utility.yul\":7:84   */\n      swap2\n      swap1\n      pop\n      jump\t// out\n        /* \"#utility.yul\":90:208   */\n    tag_63:\n        /* \"#utility.yul\":177:201   */\n      tag_102\n        /* \"#utility.yul\":195:200   */\n      dup2\n        /* \"#utility.yul\":177:201   */\n      tag_62\n      jump\t// in\n    tag_102:\n        /* \"#utility.yul\":172:175   */\n      dup3\n        /* \"#utility.yul\":165:202   */\n      mstore\n        /* \"#utility.yul\":90:208   */\n      pop\n      pop\n      jump\t// out\n        /* \"#utility.yul\":214:436   */\n    tag_12:\n        /* \"#utility.yul\":307:311   */\n      0x00\n        /* \"#utility.yul\":345:347   */\n      0x20\n        /* \"#utility.yul\":334:343   */\n      dup3\n        /* \"#utility.yul\":330:348   */\n      add\n        /* \"#utility.yul\":322:348   */\n      swap1\n      pop\n        /* \"#utility.yul\":358:429   */\n      tag_104\n        /* \"#utility.yul\":426:427   */\n      0x00\n        /* \"#utility.yul\":415:424   */\n      dup4\n        /* \"#utility.yul\":411:428   */\n      add\n        /* \"#utility.yul\":402:408   */\n      dup5\n        /* \"#utility.yul\":358:429   */\n      tag_63\n      jump\t// in\n    tag_104:\n        /* \"#utility.yul\":214:436   */\n      swap3\n      swap2\n      pop\n      pop\n      jump\t// out\n        /* \"#utility.yul\":442:517   */\n    tag_64:\n        /* \"#utility.yul\":475:481   */\n      0x00\n        /* \"#utility.yul\":508:510   */\n      0x40\n        /* \"#utility.yul\":502:511   */\n      mload\n        /* \"#utility.yul\":492:511   */\n      swap1\n      pop\n        /* \"#utility.yul\":442:517   */\n      swap1\n      jump\t// out\n        /* \"#utility.yul\":523:640   */\n    tag_65:\n        /* \"#utility.yul\":632:633   */\n      0x00\n        /* \"#utility.yul\":629:630   */\n      dup1\n        /* \"#utility.yul\":622:634   */\n      revert\n        /* \"#utility.yul\":646:763   */\n    tag_66:\n        /* \"#utility.yul\":755:756   */\n      0x00\n        /* \"#utility.yul\":752:753   */\n      dup1\n        /* \"#utility.yul\":745:757   */\n      revert\n        /* \"#utility.yul\":769:886   */\n    tag_67:\n        /* \"#utility.yul\":878:879   */\n      0x00\n        /* \"#utility.yul\":875:876   */\n      dup1\n        /* \"#utility.yul\":868:880   */\n      revert\n        /* \"#utility.yul\":892:1009   */\n    tag_68:\n        /* \"#utility.yul\":1001:1002   */\n      0x00\n        /* \"#utility.yul\":998:999   */\n      dup1\n        /* \"#utility.yul\":991:1003   */\n      revert\n        /* \"#utility.yul\":1015:1117   */\n    tag_69:\n        /* \"#utility.yul\":1056:1062   */\n      0x00\n        /* \"#utility.yul\":1107:1109   */\n      0x1f\n        /* \"#utility.yul\":1103:1110   */\n      not\n        /* \"#utility.yul\":1098:1100   */\n      0x1f\n        /* \"#utility.yul\":1091:1096   */\n      dup4\n        /* \"#utility.yul\":1087:1101   */\n      add\n        /* \"#utility.yul\":1083:1111   */\n      and\n        /* \"#utility.yul\":1073:1111   */\n      swap1\n      pop\n        /* \"#utility.yul\":1015:1117   */\n      swap2\n      swap1\n      pop\n      jump\t// out\n        /* \"#utility.yul\":1123:1303   */\n    tag_70:\n        /* \"#utility.yul\":1171:1248   */\n      0x4e487b7100000000000000000000000000000000000000000000000000000000\n        /* \"#utility.yul\":1168:1169   */\n      0x00\n        /* \"#utility.yul\":1161:1249   */\n      mstore\n        /* \"#utility.yul\":1268:1272   */\n      0x41\n        /* \"#utility.yul\":1265:1266   */\n      0x04\n        /* \"#utility.yul\":1258:1273   */\n      mstore\n        /* \"#utility.yul\":1292:1296   */\n      0x24\n        /* \"#utility.yul\":1289:1290   */\n      0x00\n        /* \"#utility.yul\":1282:1297   */\n      revert\n        /* \"#utility.yul\":1309:1590   */\n    tag_71:\n        /* \"#utility.yul\":1392:1419   */\n      tag_113\n        /* \"#utility.yul\":1414:1418   */\n      dup3\n        /* \"#utility.yul\":1392:1419   */\n      tag_69\n      jump\t// in\n    tag_113:\n        /* \"#utility.yul\":1384:1390   */\n      dup2\n        /* \"#utility.yul\":1380:1420   */\n      add\n        /* \"#utility.yul\":1522:1528   */\n      dup2\n        /* \"#utility.yul\":1510:1520   */\n      dup2\n        /* \"#utility.yul\":1507:1529   */\n      lt\n        /* \"#utility.yul\":1486:1504   */\n      0xffffffffffffffff\n        /* \"#utility.yul\":1474:1484   */\n      dup3\n        /* \"#utility.yul\":1471:1505   */\n      gt\n        /* \"#utility.yul\":1468:1530   */\n      or\n        /* \"#utility.yul\":1465:1553   */\n      iszero\n      tag_114\n      jumpi\n        /* \"#utility.yul\":1533:1551   */\n      tag_115\n      tag_70\n      jump\t// in\n    tag_115:\n        /* \"#utility.yul\":1465:1553   */\n    tag_114:\n        /* \"#utility.yul\":1573:1583   */\n      dup1\n        /* \"#utility.yul\":1569:1571   */\n      0x40\n        /* \"#utility.yul\":1562:1584   */\n      mstore\n        /* \"#utility.yul\":1352:1590   */\n      pop\n        /* \"#utility.yul\":1309:1590   */\n      pop\n      pop\n      jump\t// out\n        /* \"#utility.yul\":1596:1725   */\n    tag_72:\n        /* \"#utility.yul\":1630:1636   */\n      0x00\n        /* \"#utility.yul\":1657:1677   */\n      tag_117\n      tag_64\n      jump\t// in\n    tag_117:\n        /* \"#utility.yul\":1647:1677   */\n      swap1\n      pop\n        /* \"#utility.yul\":1686:1719   */\n      tag_118\n        /* \"#utility.yul\":1714:1718   */\n      dup3\n        /* \"#utility.yul\":1706:1712   */\n      dup3\n        /* \"#utility.yul\":1686:1719   */\n      tag_71\n      jump\t// in\n    tag_118:\n        /* \"#utility.yul\":1596:1725   */\n      swap2\n      swap1\n      pop\n      jump\t// out\n        /* \"#utility.yul\":1731:2039   */\n    tag_73:\n        /* \"#utility.yul\":1793:1797   */\n      0x00\n        /* \"#utility.yul\":1883:1901   */\n      0xffffffffffffffff\n        /* \"#utility.yul\":1875:1881   */\n      dup3\n        /* \"#utility.yul\":1872:1902   */\n      gt\n        /* \"#utility.yul\":1869:1925   */\n      iszero\n      tag_120\n      jumpi\n        /* \"#utility.yul\":1905:1923   */\n      tag_121\n      tag_70\n      jump\t// in\n    tag_121:\n        /* \"#utility.yul\":1869:1925   */\n    tag_120:\n        /* \"#utility.yul\":1943:1972   */\n      tag_122\n        /* \"#utility.yul\":1965:1971   */\n      dup3\n        /* \"#utility.yul\":1943:1972   */\n      tag_69\n      jump\t// in\n    tag_122:\n        /* \"#utility.yul\":1935:1972   */\n      swap1\n      pop\n        /* \"#utility.yul\":2027:2031   */\n      0x20\n        /* \"#utility.yul\":2021:2025   */\n      dup2\n        /* \"#utility.yul\":2017:2032   */\n      add\n        /* \"#utility.yul\":2009:2032   */\n      swap1\n      pop\n        /* \"#utility.yul\":1731:2039   */\n      swap2\n      swap1\n      pop\n      jump\t// out\n        /* \"#utility.yul\":2045:2191   */\n    tag_74:\n        /* \"#utility.yul\":2142:2148   */\n      dup3\n        /* \"#utility.yul\":2137:2140   */\n      dup2\n        /* \"#utility.yul\":2132:2135   */\n      dup4\n        /* \"#utility.yul\":2119:2149   */\n      calldatacopy\n        /* \"#utility.yul\":2183:2184   */\n      0x00\n        /* \"#utility.yul\":2174:2180   */\n      dup4\n        /* \"#utility.yul\":2169:2172   */\n      dup4\n        /* \"#utility.yul\":2165:2181   */\n      add\n        /* \"#utility.yul\":2158:2185   */\n      mstore\n        /* \"#utility.yul\":2045:2191   */\n      pop\n      pop\n      pop\n      jump\t// out\n        /* \"#utility.yul\":2197:2622   */\n    tag_75:\n        /* \"#utility.yul\":2275:2280   */\n      0x00\n        /* \"#utility.yul\":2300:2366   */\n      tag_125\n        /* \"#utility.yul\":2316:2365   */\n      tag_126\n        /* \"#utility.yul\":2358:2364   */\n      dup5\n        /* \"#utility.yul\":2316:2365   */\n      tag_73\n      jump\t// in\n    tag_126:\n        /* \"#utility.yul\":2300:2366   */\n      tag_72\n      jump\t// in\n    tag_125:\n        /* \"#utility.yul\":2291:2366   */\n      swap1\n      pop\n        /* \"#utility.yul\":2389:2395   */\n      dup3\n        /* \"#utility.yul\":2382:2387   */\n      dup2\n        /* \"#utility.yul\":2375:2396   */\n      mstore\n        /* \"#utility.yul\":2427:2431   */\n      0x20\n        /* \"#utility.yul\":2420:2425   */\n      dup2\n        /* \"#utility.yul\":2416:2432   */\n      add\n        /* \"#utility.yul\":2465:2468   */\n      dup5\n        /* \"#utility.yul\":2456:2462   */\n      dup5\n        /* \"#utility.yul\":2451:2454   */\n      dup5\n        /* \"#utility.yul\":2447:2463   */\n      add\n        /* \"#utility.yul\":2444:2469   */\n      gt\n        /* \"#utility.yul\":2441:2553   */\n      iszero\n      tag_127\n      jumpi\n        /* \"#utility.yul\":2472:2551   */\n      tag_128\n      tag_68\n      jump\t// in\n    tag_128:\n        /* \"#utility.yul\":2441:2553   */\n    tag_127:\n        /* \"#utility.yul\":2562:2616   */\n      tag_129\n        /* \"#utility.yul\":2609:2615   */\n      dup5\n        /* \"#utility.yul\":2604:2607   */\n      dup3\n        /* \"#utility.yul\":2599:2602   */\n      dup6\n        /* \"#utility.yul\":2562:2616   */\n      tag_74\n      jump\t// in\n    tag_129:\n        /* \"#utility.yul\":2281:2622   */\n      pop\n        /* \"#utility.yul\":2197:2622   */\n      swap4\n      swap3\n      pop\n      pop\n      pop\n      jump\t// out\n        /* \"#utility.yul\":2642:2982   */\n    tag_76:\n        /* \"#utility.yul\":2698:2703   */\n      0x00\n        /* \"#utility.yul\":2747:2750   */\n      dup3\n        /* \"#utility.yul\":2740:2744   */\n      0x1f\n        /* \"#utility.yul\":2732:2738   */\n      dup4\n        /* \"#utility.yul\":2728:2745   */\n      add\n        /* \"#utility.yul\":2724:2751   */\n      slt\n        /* \"#utility.yul\":2714:2836   */\n      tag_131\n      jumpi\n        /* \"#utility.yul\":2755:2834   */\n      tag_132\n      tag_67\n      jump\t// in\n    tag_132:\n        /* \"#utility.yul\":2714:2836   */\n    tag_131:\n        /* \"#utility.yul\":2872:2878   */\n      dup2\n        /* \"#utility.yul\":2859:2879   */\n      calldataload\n        /* \"#utility.yul\":2897:2976   */\n      tag_133\n        /* \"#utility.yul\":2972:2975   */\n      dup5\n        /* \"#utility.yul\":2964:2970   */\n      dup3\n        /* \"#utility.yul\":2957:2961   */\n      0x20\n        /* \"#utility.yul\":2949:2955   */\n      dup7\n        /* \"#utility.yul\":2945:2962   */\n      add\n        /* \"#utility.yul\":2897:2976   */\n      tag_75\n      jump\t// in\n    tag_133:\n        /* \"#utility.yul\":2888:2976   */\n      swap2\n      pop\n        /* \"#utility.yul\":2704:2982   */\n      pop\n        /* \"#utility.yul\":2642:2982   */\n      swap3\n      swap2\n      pop\n      pop\n      jump\t// out\n        /* \"#utility.yul\":2988:3497   */\n    tag_15:\n        /* \"#utility.yul\":3057:3063   */\n      0x00\n        /* \"#utility.yul\":3106:3108   */\n      0x20\n        /* \"#utility.yul\":3094:3103   */\n      dup3\n        /* \"#utility.yul\":3085:3092   */\n      dup5\n        /* \"#utility.yul\":3081:3104   */\n      sub\n        /* \"#utility.yul\":3077:3109   */\n      slt\n        /* \"#utility.yul\":3074:3193   */\n      iszero\n      tag_135\n      jumpi\n        /* \"#utility.yul\":3112:3191   */\n      tag_136\n      tag_65\n      jump\t// in\n    tag_136:\n        /* \"#utility.yul\":3074:3193   */\n    tag_135:\n        /* \"#utility.yul\":3260:3261   */\n      0x00\n        /* \"#utility.yul\":3249:3258   */\n      dup3\n        /* \"#utility.yul\":3245:3262   */\n      add\n        /* \"#utility.yul\":3232:3263   */\n      calldataload\n        /* \"#utility.yul\":3290:3308   */\n      0xffffffffffffffff\n        /* \"#utility.yul\":3282:3288   */\n      dup2\n        /* \"#utility.yul\":3279:3309   */\n      gt\n        /* \"#utility.yul\":3276:3393   */\n      iszero\n      tag_137\n      jumpi\n        /* \"#utility.yul\":3312:3391   */\n      tag_138\n      tag_66\n      jump\t// in\n    tag_138:\n        /* \"#utility.yul\":3276:3393   */\n    tag_137:\n        /* \"#utility.yul\":3417:3480   */\n      tag_139\n        /* \"#utility.yul\":3472:3479   */\n      dup5\n        /* \"#utility.yul\":3463:3469   */\n      dup3\n        /* \"#utility.yul\":3452:3461   */\n      dup6\n        /* \"#utility.yul\":3448:3470   */\n      add\n        /* \"#utility.yul\":3417:3480   */\n      tag_76\n      jump\t// in\n    tag_139:\n        /* \"#utility.yul\":3407:3480   */\n      swap2\n      pop\n        /* \"#utility.yul\":3203:3490   */\n      pop\n        /* \"#utility.yul\":2988:3497   */\n      swap3\n      swap2\n      pop\n      pop\n      jump\t// out\n        /* \"#utility.yul\":3503:3625   */\n    tag_77:\n        /* \"#utility.yul\":3576:3600   */\n      tag_141\n        /* \"#utility.yul\":3594:3599   */\n      dup2\n        /* \"#utility.yul\":3576:3600   */\n      tag_62\n      jump\t// in\n    tag_141:\n        /* \"#utility.yul\":3569:3574   */\n      dup2\n        /* \"#utility.yul\":3566:3601   */\n      eq\n        /* \"#utility.yul\":3556:3619   */\n      tag_142\n      jumpi\n        /* \"#utility.yul\":3615:3616   */\n      0x00\n        /* \"#utility.yul\":3612:3613   */\n      dup1\n        /* \"#utility.yul\":3605:3617   */\n      revert\n        /* \"#utility.yul\":3556:3619   */\n    tag_142:\n        /* \"#utility.yul\":3503:3625   */\n      pop\n      jump\t// out\n        /* \"#utility.yul\":3631:3770   */\n    tag_78:\n        /* \"#utility.yul\":3677:3682   */\n      0x00\n        /* \"#utility.yul\":3715:3721   */\n      dup2\n        /* \"#utility.yul\":3702:3722   */\n      calldataload\n        /* \"#utility.yul\":3693:3722   */\n      swap1\n      pop\n        /* \"#utility.yul\":3731:3764   */\n      tag_144\n        /* \"#utility.yul\":3758:3763   */\n      dup2\n        /* \"#utility.yul\":3731:3764   */\n      tag_77\n      jump\t// in\n    tag_144:\n        /* \"#utility.yul\":3631:3770   */\n      swap3\n      swap2\n      pop\n      pop\n      jump\t// out\n        /* \"#utility.yul\":3776:4105   */\n    tag_19:\n        /* \"#utility.yul\":3835:3841   */\n      0x00\n        /* \"#utility.yul\":3884:3886   */\n      0x20\n        /* \"#utility.yul\":3872:3881   */\n      dup3\n        /* \"#utility.yul\":3863:3870   */\n      dup5\n        /* \"#utility.yul\":3859:3882   */\n      sub\n        /* \"#utility.yul\":3855:3887   */\n      slt\n        /* \"#utility.yul\":3852:3971   */\n      iszero\n      tag_146\n      jumpi\n        /* \"#utility.yul\":3890:3969   */\n      tag_147\n      tag_65\n      jump\t// in\n    tag_147:\n        /* \"#utility.yul\":3852:3971   */\n    tag_146:\n        /* \"#utility.yul\":4010:4011   */\n      0x00\n        /* \"#utility.yul\":4035:4088   */\n      tag_148\n        /* \"#utility.yul\":4080:4087   */\n      dup5\n        /* \"#utility.yul\":4071:4077   */\n      dup3\n        /* \"#utility.yul\":4060:4069   */\n      dup6\n        /* \"#utility.yul\":4056:4078   */\n      add\n        /* \"#utility.yul\":4035:4088   */\n      tag_78\n      jump\t// in\n    tag_148:\n        /* \"#utility.yul\":4025:4088   */\n      swap2\n      pop\n        /* \"#utility.yul\":3981:4098   */\n      pop\n        /* \"#utility.yul\":3776:4105   */\n      swap3\n      swap2\n      pop\n      pop\n      jump\t// out\n        /* \"#utility.yul\":4111:4210   */\n    tag_79:\n        /* \"#utility.yul\":4163:4169   */\n      0x00\n        /* \"#utility.yul\":4197:4202   */\n      dup2\n        /* \"#utility.yul\":4191:4203   */\n      mload\n        /* \"#utility.yul\":4181:4203   */\n      swap1\n      pop\n        /* \"#utility.yul\":4111:4210   */\n      swap2\n      swap1\n      pop\n      jump\t// out\n        /* \"#utility.yul\":4216:4385   */\n    tag_80:\n        /* \"#utility.yul\":4300:4311   */\n      0x00\n        /* \"#utility.yul\":4334:4340   */\n      dup3\n        /* \"#utility.yul\":4329:4332   */\n      dup3\n        /* \"#utility.yul\":4322:4341   */\n      mstore\n        /* \"#utility.yul\":4374:4378   */\n      0x20\n        /* \"#utility.yul\":4369:4372   */\n      dup3\n        /* \"#utility.yul\":4365:4379   */\n      add\n        /* \"#utility.yul\":4350:4379   */\n      swap1\n      pop\n        /* \"#utility.yul\":4216:4385   */\n      swap3\n      swap2\n      pop\n      pop\n      jump\t// out\n        /* \"#utility.yul\":4391:4637   */\n    tag_81:\n        /* \"#utility.yul\":4472:4473   */\n      0x00\n        /* \"#utility.yul\":4482:4595   */\n    tag_152:\n        /* \"#utility.yul\":4496:4502   */\n      dup4\n        /* \"#utility.yul\":4493:4494   */\n      dup2\n        /* \"#utility.yul\":4490:4503   */\n      lt\n        /* \"#utility.yul\":4482:4595   */\n      iszero\n      tag_154\n      jumpi\n        /* \"#utility.yul\":4581:4582   */\n      dup1\n        /* \"#utility.yul\":4576:4579   */\n      dup3\n        /* \"#utility.yul\":4572:4583   */\n      add\n        /* \"#utility.yul\":4566:4584   */\n      mload\n        /* \"#utility.yul\":4562:4563   */\n      dup2\n        /* \"#utility.yul\":4557:4560   */\n      dup5\n        /* \"#utility.yul\":4553:4564   */\n      add\n        /* \"#utility.yul\":4546:4585   */\n      mstore\n        /* \"#utility.yul\":4518:4520   */\n      0x20\n        /* \"#utility.yul\":4515:4516   */\n      dup2\n        /* \"#utility.yul\":4511:4521   */\n      add\n        /* \"#utility.yul\":4506:4521   */\n      swap1\n      pop\n        /* \"#utility.yul\":4482:4595   */\n      jump(tag_152)\n    tag_154:\n        /* \"#utility.yul\":4629:4630   */\n      0x00\n        /* \"#utility.yul\":4620:4626   */\n      dup5\n        /* \"#utility.yul\":4615:4618   */\n      dup5\n        /* \"#utility.yul\":4611:4627   */\n      add\n        /* \"#utility.yul\":4604:4631   */\n      mstore\n        /* \"#utility.yul\":4453:4637   */\n      pop\n        /* \"#utility.yul\":4391:4637   */\n      pop\n      pop\n      pop\n      jump\t// out\n        /* \"#utility.yul\":4643:5020   */\n    tag_82:\n        /* \"#utility.yul\":4731:4734   */\n      0x00\n        /* \"#utility.yul\":4759:4798   */\n      tag_156\n        /* \"#utility.yul\":4792:4797   */\n      dup3\n        /* \"#utility.yul\":4759:4798   */\n      tag_79\n      jump\t// in\n    tag_156:\n        /* \"#utility.yul\":4814:4885   */\n      tag_157\n        /* \"#utility.yul\":4878:4884   */\n      dup2\n        /* \"#utility.yul\":4873:4876   */\n      dup6\n        /* \"#utility.yul\":4814:4885   */\n      tag_80\n      jump\t// in\n    tag_157:\n        /* \"#utility.yul\":4807:4885   */\n      swap4\n      pop\n        /* \"#utility.yul\":4894:4959   */\n      tag_158\n        /* \"#utility.yul\":4952:4958   */\n      dup2\n        /* \"#utility.yul\":4947:4950   */\n      dup6\n        /* \"#utility.yul\":4940:4944   */\n      0x20\n        /* \"#utility.yul\":4933:4938   */\n      dup7\n        /* \"#utility.yul\":4929:4945   */\n      add\n        /* \"#utility.yul\":4894:4959   */\n      tag_81\n      jump\t// in\n    tag_158:\n        /* \"#utility.yul\":4984:5013   */\n      tag_159\n        /* \"#utility.yul\":5006:5012   */\n      dup2\n        /* \"#utility.yul\":4984:5013   */\n      tag_69\n      jump\t// in\n    tag_159:\n        /* \"#utility.yul\":4979:4982   */\n      dup5\n        /* \"#utility.yul\":4975:5014   */\n      add\n        /* \"#utility.yul\":4968:5014   */\n      swap2\n      pop\n        /* \"#utility.yul\":4735:5020   */\n      pop\n        /* \"#utility.yul\":4643:5020   */\n      swap3\n      swap2\n      pop\n      pop\n      jump\t// out\n        /* \"#utility.yul\":5026:5339   */\n    tag_22:\n        /* \"#utility.yul\":5139:5143   */\n      0x00\n        /* \"#utility.yul\":5177:5179   */\n      0x20\n        /* \"#utility.yul\":5166:5175   */\n      dup3\n        /* \"#utility.yul\":5162:5180   */\n      add\n        /* \"#utility.yul\":5154:5180   */\n      swap1\n      pop\n        /* \"#utility.yul\":5226:5235   */\n      dup2\n        /* \"#utility.yul\":5220:5224   */\n      dup2\n        /* \"#utility.yul\":5216:5236   */\n      sub\n        /* \"#utility.yul\":5212:5213   */\n      0x00\n        /* \"#utility.yul\":5201:5210   */\n      dup4\n        /* \"#utility.yul\":5197:5214   */\n      add\n        /* \"#utility.yul\":5190:5237   */\n      mstore\n        /* \"#utility.yul\":5254:5332   */\n      tag_161\n        /* \"#utility.yul\":5327:5331   */\n      dup2\n        /* \"#utility.yul\":5318:5324   */\n      dup5\n        /* \"#utility.yul\":5254:5332   */\n      tag_82\n      jump\t// in\n    tag_161:\n        /* \"#utility.yul\":5246:5332   */\n      swap1\n      pop\n        /* \"#utility.yul\":5026:5339   */\n      swap3\n      swap2\n      pop\n      pop\n      jump\t// out\n        /* \"#utility.yul\":5345:5819   */\n    tag_33:\n        /* \"#utility.yul\":5413:5419   */\n      0x00\n        /* \"#utility.yul\":5421:5427   */\n      dup1\n        /* \"#utility.yul\":5470:5472   */\n      0x40\n        /* \"#utility.yul\":5458:5467   */\n      dup4\n        /* \"#utility.yul\":5449:5456   */\n      dup6\n        /* \"#utility.yul\":5445:5468   */\n      sub\n        /* \"#utility.yul\":5441:5473   */\n      slt\n        /* \"#utility.yul\":5438:5557   */\n      iszero\n      tag_163\n      jumpi\n        /* \"#utility.yul\":5476:5555   */\n      tag_164\n      tag_65\n      jump\t// in\n    tag_164:\n        /* \"#utility.yul\":5438:5557   */\n    tag_163:\n        /* \"#utility.yul\":5596:5597   */\n      0x00\n        /* \"#utility.yul\":5621:5674   */\n      tag_165\n        /* \"#utility.yul\":5666:5673   */\n      dup6\n        /* \"#utility.yul\":5657:5663   */\n      dup3\n        /* \"#utility.yul\":5646:5655   */\n      dup7\n        /* \"#utility.yul\":5642:5664   */\n      add\n        /* \"#utility.yul\":5621:5674   */\n      tag_78\n      jump\t// in\n    tag_165:\n        /* \"#utility.yul\":5611:5674   */\n      swap3\n      pop\n        /* \"#utility.yul\":5567:5684   */\n      pop\n        /* \"#utility.yul\":5723:5725   */\n      0x20\n        /* \"#utility.yul\":5749:5802   */\n      tag_166\n        /* \"#utility.yul\":5794:5801   */\n      dup6\n        /* \"#utility.yul\":5785:5791   */\n      dup3\n        /* \"#utility.yul\":5774:5783   */\n      dup7\n        /* \"#utility.yul\":5770:5792   */\n      add\n        /* \"#utility.yul\":5749:5802   */\n      tag_78\n      jump\t// in\n    tag_166:\n        /* \"#utility.yul\":5739:5802   */\n      swap2\n      pop\n        /* \"#utility.yul\":5694:5812   */\n      pop\n        /* \"#utility.yul\":5345:5819   */\n      swap3\n      pop\n      swap3\n      swap1\n      pop\n      jump\t// out\n        /* \"#utility.yul\":5825:6005   */\n    tag_83:\n        /* \"#utility.yul\":5873:5950   */\n      0x4e487b7100000000000000000000000000000000000000000000000000000000\n        /* \"#utility.yul\":5870:5871   */\n      0x00\n        /* \"#utility.yul\":5863:5951   */\n      mstore\n        /* \"#utility.yul\":5970:5974   */\n      0x22\n        /* \"#utility.yul\":5967:5968   */\n      0x04\n        /* \"#utility.yul\":5960:5975   */\n      mstore\n        /* \"#utility.yul\":5994:5998   */\n      0x24\n        /* \"#utility.yul\":5991:5992   */\n      0x00\n        /* \"#utility.yul\":5984:5999   */\n      revert\n        /* \"#utility.yul\":6011:6331   */\n    tag_44:\n        /* \"#utility.yul\":6055:6061   */\n      0x00\n        /* \"#utility.yul\":6092:6093   */\n      0x02\n        /* \"#utility.yul\":6086:6090   */\n      dup3\n        /* \"#utility.yul\":6082:6094   */\n      div\n        /* \"#utility.yul\":6072:6094   */\n      swap1\n      pop\n        /* \"#utility.yul\":6139:6140   */\n      0x01\n        /* \"#utility.yul\":6133:6137   */\n      dup3\n        /* \"#utility.yul\":6129:6141   */\n      and\n        /* \"#utility.yul\":6160:6178   */\n      dup1\n        /* \"#utility.yul\":6150:6231   */\n      tag_169\n      jumpi\n        /* \"#utility.yul\":6216:6220   */\n      0x7f\n        /* \"#utility.yul\":6208:6214   */\n      dup3\n        /* \"#utility.yul\":6204:6221   */\n      and\n        /* \"#utility.yul\":6194:6221   */\n      swap2\n      pop\n        /* \"#utility.yul\":6150:6231   */\n    tag_169:\n        /* \"#utility.yul\":6278:6280   */\n      0x20\n        /* \"#utility.yul\":6270:6276   */\n      dup3\n        /* \"#utility.yul\":6267:6281   */\n      lt\n        /* \"#utility.yul\":6247:6265   */\n      dup2\n        /* \"#utility.yul\":6244:6282   */\n      sub\n        /* \"#utility.yul\":6241:6325   */\n      tag_170\n      jumpi\n        /* \"#utility.yul\":6297:6315   */\n      tag_171\n      tag_83\n      jump\t// in\n    tag_171:\n        /* \"#utility.yul\":6241:6325   */\n    tag_170:\n        /* \"#utility.yul\":6062:6331   */\n      pop\n        /* \"#utility.yul\":6011:6331   */\n      swap2\n      swap1\n      pop\n      jump\t// out\n        /* \"#utility.yul\":6337:6478   */\n    tag_84:\n        /* \"#utility.yul\":6386:6390   */\n      0x00\n        /* \"#utility.yul\":6409:6412   */\n      dup2\n        /* \"#utility.yul\":6401:6412   */\n      swap1\n      pop\n        /* \"#utility.yul\":6432:6435   */\n      dup2\n        /* \"#utility.yul\":6429:6430   */\n      0x00\n        /* \"#utility.yul\":6422:6436   */\n      mstore\n        /* \"#utility.yul\":6466:6470   */\n      0x20\n        /* \"#utility.yul\":6463:6464   */\n      0x00\n        /* \"#utility.yul\":6453:6471   */\n      keccak256\n        /* \"#utility.yul\":6445:6471   */\n      swap1\n      pop\n        /* \"#utility.yul\":6337:6478   */\n      swap2\n      swap1\n      pop\n      jump\t// out\n        /* \"#utility.yul\":6484:6577   */\n    tag_85:\n        /* \"#utility.yul\":6521:6527   */\n      0x00\n        /* \"#utility.yul\":6568:6570   */\n      0x20\n        /* \"#utility.yul\":6563:6565   */\n      0x1f\n        /* \"#utility.yul\":6556:6561   */\n      dup4\n        /* \"#utility.yul\":6552:6566   */\n      add\n        /* \"#utility.yul\":6548:6571   */\n      div\n        /* \"#utility.yul\":6538:6571   */\n      swap1\n      pop\n        /* \"#utility.yul\":6484:6577   */\n      swap2\n      swap1\n      pop\n      jump\t// out\n        /* \"#utility.yul\":6583:6690   */\n    tag_86:\n        /* \"#utility.yul\":6627:6635   */\n      0x00\n        /* \"#utility.yul\":6677:6682   */\n      dup3\n        /* \"#utility.yul\":6671:6675   */\n      dup3\n        /* \"#utility.yul\":6667:6683   */\n      shl\n        /* \"#utility.yul\":6646:6683   */\n      swap1\n      pop\n        /* \"#utility.yul\":6583:6690   */\n      swap3\n      swap2\n      pop\n      pop\n      jump\t// out\n        /* \"#utility.yul\":6696:7089   */\n    tag_87:\n        /* \"#utility.yul\":6765:6771   */\n      0x00\n        /* \"#utility.yul\":6815:6816   */\n      0x08\n        /* \"#utility.yul\":6803:6813   */\n      dup4\n        /* \"#utility.yul\":6799:6817   */\n      mul\n        /* \"#utility.yul\":6838:6935   */\n      tag_176\n        /* \"#utility.yul\":6868:6934   */\n      0xffffffffffffffffffffffffffffffffffffffffffffffffffffffffffffffff\n        /* \"#utility.yul\":6857:6866   */\n      dup3\n        /* \"#utility.yul\":6838:6935   */\n      tag_86\n      jump\t// in\n    tag_176:\n        /* \"#utility.yul\":6956:6995   */\n      tag_177\n        /* \"#utility.yul\":6986:6994   */\n      dup7\n        /* \"#utility.yul\":6975:6984   */\n      dup4\n        /* \"#utility.yul\":6956:6995   */\n      tag_86\n      jump\t// in\n    tag_177:\n        /* \"#utility.yul\":6944:6995   */\n      swap6\n      pop\n        /* \"#utility.yul\":7028:7032   */\n      dup1\n        /* \"#utility.yul\":7024:7033   */\n      not\n        /* \"#utility.yul\":7017:7022   */\n      dup5\n        /* \"#utility.yul\":7013:7034   */\n      and\n        /* \"#utility.yul\":7004:7034   */\n      swap4\n      pop\n        /* \"#utility.yul\":7077:7081   */\n      dup1\n        /* \"#utility.yul\":7067:7075   */\n      dup7\n        /* \"#utility.yul\":7063:7082   */\n      and\n        /* \"#utility.yul\":7056:7061   */\n      dup5\n        /* \"#utility.yul\":7053:7083   */\n      or\n        /* \"#utility.yul\":7043:7083   */\n      swap3\n      pop\n        /* \"#utility.yul\":6772:7089   */\n      pop\n      pop\n        /* \"#utility.yul\":6696:7089   */\n      swap4\n      swap3\n      pop\n      pop\n      pop\n      jump\t// out\n        /* \"#utility.yul\":7095:7155   */\n    tag_88:\n        /* \"#utility.yul\":7123:7126   */\n      0x00\n        /* \"#utility.yul\":7144:7149   */\n      dup2\n        /* \"#utility.yul\":7137:7149   */\n      swap1\n      pop\n        /* \"#utility.yul\":7095:7155   */\n      swap2\n      swap1\n      pop\n      jump\t// out\n        /* \"#utility.yul\":7161:7303   */\n    tag_89:\n        /* \"#utility.yul\":7211:7220   */\n      0x00\n        /* \"#utility.yul\":7244:7297   */\n      tag_180\n        /* \"#utility.yul\":7262:7296   */\n      tag_181\n        /* \"#utility.yul\":7271:7295   */\n      tag_182\n        /* \"#utility.yul\":7289:7294   */\n      dup5\n        /* \"#utility.yul\":7271:7295   */\n      tag_62\n      jump\t// in\n    tag_182:\n        /* \"#utility.yul\":7262:7296   */\n      tag_88\n      jump\t// in\n    tag_181:\n        /* \"#utility.yul\":7244:7297   */\n      tag_62\n      jump\t// in\n    tag_180:\n        /* \"#utility.yul\":7231:7297   */\n      swap1\n      pop\n        /* \"#utility.yul\":7161:7303   */\n      swap2\n      swap1\n      pop\n      jump\t// out\n        /* \"#utility.yul\":7309:7384   */\n    tag_90:\n        /* \"#utility.yul\":7352:7355   */\n      0x00\n        /* \"#utility.yul\":7373:7378   */\n      dup2\n        /* \"#utility.yul\":7366:7378   */\n      swap1\n      pop\n        /* \"#utility.yul\":7309:7384   */\n      swap2\n      swap1\n      pop\n      jump\t// out\n        /* \"#utility.yul\":7390:7659   */\n    tag_91:\n        /* \"#utility.yul\":7500:7539   */\n      tag_185\n        /* \"#utility.yul\":7531:7538   */\n      dup4\n        /* \"#utility.yul\":7500:7539   */\n      tag_89\n      jump\t// in\n    tag_185:\n        /* \"#utility.yul\":7561:7652   */\n      tag_186\n        /* \"#utility.yul\":7610:7651   */\n      tag_187\n        /* \"#utility.yul\":7634:7650   */\n      dup3\n        /* \"#utility.yul\":7610:7651   */\n      tag_90\n      jump\t// in\n    tag_187:\n        /* \"#utility.yul\":7602:7608   */\n      dup5\n        /* \"#utility.yul\":7595:7599   */\n      dup5\n        /* \"#utility.yul\":7589:7600   */\n      sload\n        /* \"#utility.yul\":7561:7652   */\n      tag_87\n      jump\t// in\n    tag_186:\n        /* \"#utility.yul\":7555:7559   */\n      dup3\n        /* \"#utility.yul\":7548:7653   */\n      sstore\n        /* \"#utility.yul\":7466:7659   */\n      pop\n        /* \"#utility.yul\":7390:7659   */\n      pop\n      pop\n      pop\n      jump\t// out\n        /* \"#utility.yul\":7665:7738   */\n    tag_92:\n        /* \"#utility.yul\":7710:7713   */\n      0x00\n        /* \"#utility.yul\":7665:7738   */\n      swap1\n      jump\t// out\n        /* \"#utility.yul\":7744:7933   */\n    tag_93:\n        /* \"#utility.yul\":7821:7853   */\n      tag_190\n      tag_92\n      jump\t// in\n    tag_190:\n        /* \"#utility.yul\":7862:7927   */\n      tag_191\n        /* \"#utility.yul\":7920:7926   */\n      dup2\n        /* \"#utility.yul\":7912:7918   */\n      dup5\n        /* \"#utility.yul\":7906:7910   */\n      dup5\n        /* \"#utility.yul\":7862:7927   */\n      tag_91\n      jump\t// in\n    tag_191:\n        /* \"#utility.yul\":7797:7933   */\n      pop\n        /* \"#utility.yul\":7744:7933   */\n      pop\n      pop\n      jump\t// out\n        /* \"#utility.yul\":7939:8125   */\n    tag_94:\n        /* \"#utility.yul\":7999:8119   */\n    tag_193:\n        /* \"#utility.yul\":8016:8019   */\n      dup2\n        /* \"#utility.yul\":8009:8014   */\n      dup2\n        /* \"#utility.yul\":8006:8020   */\n      lt\n        /* \"#utility.yul\":7999:8119   */\n      iszero\n      tag_195\n      jumpi\n        /* \"#utility.yul\":8070:8109   */\n      tag_196\n        /* \"#utility.yul\":8107:8108   */\n      0x00\n        /* \"#utility.yul\":8100:8105   */\n      dup3\n        /* \"#utility.yul\":8070:8109   */\n      tag_93\n      jump\t// in\n    tag_196:\n        /* \"#utility.yul\":8043:8044   */\n      0x01\n        /* \"#utility.yul\":8036:8041   */\n      dup2\n        /* \"#utility.yul\":8032:8045   */\n      add\n        /* \"#utility.yul\":8023:8045   */\n      swap1\n      pop\n        /* \"#utility.yul\":7999:8119   */\n      jump(tag_193)\n    tag_195:\n        /* \"#utility.yul\":7939:8125   */\n      pop\n      pop\n      jump\t// out\n        /* \"#utility.yul\":8131:8674   */\n    tag_95:\n        /* \"#utility.yul\":8232:8234   */\n      0x1f\n        /* \"#utility.yul\":8227:8230   */\n      dup3\n        /* \"#utility.yul\":8224:8235   */\n      gt\n        /* \"#utility.yul\":8221:8667   */\n      iszero\n      tag_198\n      jumpi\n        /* \"#utility.yul\":8266:8304   */\n      tag_199\n        /* \"#utility.yul\":8298:8303   */\n      dup2\n        /* \"#utility.yul\":8266:8304   */\n      tag_84\n      jump\t// in\n    tag_199:\n        /* \"#utility.yul\":8350:8379   */\n      tag_200\n        /* \"#utility.yul\":8368:8378   */\n      dup5\n        /* \"#utility.yul\":8350:8379   */\n      tag_85\n      jump\t// in\n    tag_200:\n        /* \"#utility.yul\":8340:8348   */\n      dup2\n        /* \"#utility.yul\":8336:8380   */\n      add\n        /* \"#utility.yul\":8533:8535   */\n      0x20\n        /* \"#utility.yul\":8521:8531   */\n      dup6\n        /* \"#utility.yul\":8518:8536   */\n      lt\n        /* \"#utility.yul\":8515:8564   */\n      iszero\n      tag_201\n      jumpi\n        /* \"#utility.yul\":8554:8562   */\n      dup2\n        /* \"#utility.yul\":8539:8562   */\n      swap1\n      pop\n        /* \"#utility.yul\":8515:8564   */\n    tag_201:\n        /* \"#utility.yul\":8577:8657   */\n      tag_202\n        /* \"#utility.yul\":8633:8655   */\n      tag_203\n        /* \"#utility.yul\":8651:8654   */\n      dup6\n        /* \"#utility.yul\":8633:8655   */\n      tag_85\n      jump\t// in\n    tag_203:\n        /* \"#utility.yul\":8623:8631   */\n      dup4\n        /* \"#utility.yul\":8619:8656   */\n      add\n        /* \"#utility.yul\":8606:8617   */\n      dup3\n        /* \"#utility.yul\":8577:8657   */\n      tag_94\n      jump\t// in\n    tag_202:\n        /* \"#utility.yul\":8236:8667   */\n      pop\n      pop\n        /* \"#utility.yul\":8221:8667   */\n    tag_198:\n        /* \"#utility.yul\":8131:8674   */\n      pop\n      pop\n      pop\n      jump\t// out\n        /* \"#utility.yul\":8680:8797   */\n    tag_96:\n        /* \"#utility.yul\":8734:8742   */\n      0x00\n        /* \"#utility.yul\":8784:8789   */\n      dup3\n        /* \"#utility.yul\":8778:8782   */\n      dup3\n        /* \"#utility.yul\":8774:8790   */\n      shr\n        /* \"#utility.yul\":8753:8790   */\n      swap1\n      pop\n        /* \"#utility.yul\":8680:8797   */\n      swap3\n      swap2\n      pop\n      pop\n      jump\t// out\n        /* \"#utility.yul\":8803:8972   */\n    tag_97:\n        /* \"#utility.yul\":8847:8853   */\n      0x00\n        /* \"#utility.yul\":8880:8931   */\n      tag_206\n        /* \"#utility.yul\":8928:8929   */\n      0x00\n        /* \"#utility.yul\":8924:8930   */\n      not\n        /* \"#utility.yul\":8916:8921   */\n      dup5\n        /* \"#utility.yul\":8913:8914   */\n      0x08\n        /* \"#utility.yul\":8909:8922   */\n      mul\n        /* \"#utility.yul\":8880:8931   */\n      tag_96\n      jump\t// in\n    tag_206:\n        /* \"#utility.yul\":8876:8932   */\n      not\n        /* \"#utility.yul\":8961:8965   */\n      dup1\n        /* \"#utility.yul\":8955:8959   */\n      dup4\n        /* \"#utility.yul\":8951:8966   */\n      and\n        /* \"#utility.yul\":8941:8966   */\n      swap2\n      pop\n        /* \"#utility.yul\":8854:8972   */\n      pop\n        /* \"#utility.yul\":8803:8972   */\n      swap3\n      swap2\n      pop\n      pop\n      jump\t// out\n        /* \"#utility.yul\":8977:9272   */\n    tag_98:\n        /* \"#utility.yul\":9053:9057   */\n      0x00\n        /* \"#utility.yul\":9199:9228   */\n      tag_208\n        /* \"#utility.yul\":9224:9227   */\n      dup4\n        /* \"#utility.yul\":9218:9222   */\n      dup4\n        /* \"#utility.yul\":9199:9228   */\n      tag_97\n      jump\t// in\n    tag_208:\n        /* \"#utility.yul\":9191:9228   */\n      swap2\n      pop\n        /* \"#utility.yul\":9261:9264   */\n      dup3\n        /* \"#utility.yul\":9258:9259   */\n      0x02\n        /* \"#utility.yul\":9254:9265   */\n      mul\n        /* \"#utility.yul\":9248:9252   */\n      dup3\n        /* \"#utility.yul\":9245:9266   */\n      or\n        /* \"#utility.yul\":9237:9266   */\n      swap1\n      pop\n        /* \"#utility.yul\":8977:9272   */\n      swap3\n      swap2\n      pop\n      pop\n      jump\t// out\n        /* \"#utility.yul\":9277:10672   */\n    tag_40:\n        /* \"#utility.yul\":9394:9431   */\n      tag_210\n        /* \"#utility.yul\":9427:9430   */\n      dup3\n        /* \"#utility.yul\":9394:9431   */\n      tag_79\n      jump\t// in\n    tag_210:\n        /* \"#utility.yul\":9496:9514   */\n      0xffffffffffffffff\n        /* \"#utility.yul\":9488:9494   */\n      dup2\n        /* \"#utility.yul\":9485:9515   */\n      gt\n        /* \"#utility.yul\":9482:9538   */\n      iszero\n      tag_211\n      jumpi\n        /* \"#utility.yul\":9518:9536   */\n      tag_212\n      tag_70\n      jump\t// in\n    tag_212:\n        /* \"#utility.yul\":9482:9538   */\n    tag_211:\n        /* \"#utility.yul\":9562:9600   */\n      tag_213\n        /* \"#utility.yul\":9594:9598   */\n      dup3\n        /* \"#utility.yul\":9588:9599   */\n      sload\n        /* \"#utility.yul\":9562:9600   */\n      tag_44\n      jump\t// in\n    tag_213:\n        /* \"#utility.yul\":9647:9714   */\n      tag_214\n        /* \"#utility.yul\":9707:9713   */\n      dup3\n        /* \"#utility.yul\":9699:9705   */\n      dup3\n        /* \"#utility.yul\":9693:9697   */\n      dup6\n        /* \"#utility.yul\":9647:9714   */\n      tag_95\n      jump\t// in\n    tag_214:\n        /* \"#utility.yul\":9741:9742   */\n      0x00\n        /* \"#utility.yul\":9765:9769   */\n      0x20\n        /* \"#utility.yul\":9752:9769   */\n      swap1\n      pop\n        /* \"#utility.yul\":9797:9799   */\n      0x1f\n        /* \"#utility.yul\":9789:9795   */\n      dup4\n        /* \"#utility.yul\":9786:9800   */\n      gt\n        /* \"#utility.yul\":9814:9815   */\n      0x01\n        /* \"#utility.yul\":9809:10427   */\n      dup2\n      eq\n      tag_216\n      jumpi\n        /* \"#utility.yul\":10471:10472   */\n      0x00\n        /* \"#utility.yul\":10488:10494   */\n      dup5\n        /* \"#utility.yul\":10485:10562   */\n      iszero\n      tag_217\n      jumpi\n        /* \"#utility.yul\":10537:10546   */\n      dup3\n        /* \"#utility.yul\":10532:10535   */\n      dup8\n        /* \"#utility.yul\":10528:10547   */\n      add\n        /* \"#utility.yul\":10522:10548   */\n      mload\n        /* \"#utility.yul\":10513:10548   */\n      swap1\n      pop\n        /* \"#utility.yul\":10485:10562   */\n    tag_217:\n        /* \"#utility.yul\":10588:10655   */\n      tag_218\n        /* \"#utility.yul\":10648:10654   */\n      dup6\n        /* \"#utility.yul\":10641:10646   */\n      dup3\n        /* \"#utility.yul\":10588:10655   */\n      tag_98\n      jump\t// in\n    tag_218:\n        /* \"#utility.yul\":10582:10586   */\n      dup7\n        /* \"#utility.yul\":10575:10656   */\n      sstore\n        /* \"#utility.yul\":10444:10666   */\n      pop\n        /* \"#utility.yul\":9779:10666   */\n      jump(tag_215)\n        /* \"#utility.yul\":9809:10427   */\n    tag_216:\n        /* \"#utility.yul\":9861:9865   */\n      0x1f\n        /* \"#utility.yul\":9857:9866   */\n      not\n        /* \"#utility.yul\":9849:9855   */\n      dup5\n        /* \"#utility.yul\":9845:9867   */\n      and\n        /* \"#utility.yul\":9895:9932   */\n      tag_219\n        /* \"#utility.yul\":9927:9931   */\n      dup7\n        /* \"#utility.yul\":9895:9932   */\n      tag_84\n      jump\t// in\n    tag_219:\n        /* \"#utility.yul\":9954:9955   */\n      0x00\n        /* \"#utility.yul\":9968:10176   */\n    tag_220:\n        /* \"#utility.yul\":9982:9989   */\n      dup3\n        /* \"#utility.yul\":9979:9980   */\n      dup2\n        /* \"#utility.yul\":9976:9990   */\n      lt\n        /* \"#utility.yul\":9968:10176   */\n      iszero\n      tag_222\n      jumpi\n        /* \"#utility.yul\":10061:10070   */\n      dup5\n        /* \"#utility.yul\":10056:10059   */\n      dup10\n        /* \"#utility.yul\":10052:10071   */\n      add\n        /* \"#utility.yul\":10046:10072   */\n      mload\n        /* \"#utility.yul\":10038:10044   */\n      dup3\n        /* \"#utility.yul\":10031:10073   */\n      sstore\n        /* \"#utility.yul\":10112:10113   */\n      0x01\n        /* \"#utility.yul\":10104:10110   */\n      dup3\n        /* \"#utility.yul\":10100:10114   */\n      add\n        /* \"#utility.yul\":10090:10114   */\n      swap2\n      pop\n        /* \"#utility.yul\":10159:10161   */\n      0x20\n        /* \"#utility.yul\":10148:10157   */\n      dup6\n        /* \"#utility.yul\":10144:10162   */\n      add\n        /* \"#utility.yul\":10131:10162   */\n      swap5\n      pop\n        /* \"#utility.yul\":10005:10009   */\n      0x20\n        /* \"#utility.yul\":10002:10003   */\n      dup2\n        /* \"#utility.yul\":9998:10010   */\n      add\n        /* \"#utility.yul\":9993:10010   */\n      swap1\n      pop\n        /* \"#utility.yul\":9968:10176   */\n      jump(tag_220)\n    tag_222:\n        /* \"#utility.yul\":10204:10210   */\n      dup7\n        /* \"#utility.yul\":10195:10202   */\n      dup4\n        /* \"#utility.yul\":10192:10211   */\n      lt\n        /* \"#utility.yul\":10189:10368   */\n      iszero\n      tag_223\n      jumpi\n        /* \"#utility.yul\":10262:10271   */\n      dup5\n        /* \"#utility.yul\":10257:10260   */\n      dup10\n        /* \"#utility.yul\":10253:10272   */\n      add\n        /* \"#utility.yul\":10247:10273   */\n      mload\n        /* \"#utility.yul\":10305:10353   */\n      tag_224\n        /* \"#utility.yul\":10347:10351   */\n      0x1f\n        /* \"#utility.yul\":10339:10345   */\n      dup10\n        /* \"#utility.yul\":10335:10352   */\n      and\n        /* \"#utility.yul\":10324:10333   */\n      dup3\n        /* \"#utility.yul\":10305:10353   */\n      tag_97\n      jump\t// in\n    tag_224:\n        /* \"#utility.yul\":10297:10303   */\n      dup4\n        /* \"#utility.yul\":10290:10354   */\n      sstore\n        /* \"#utility.yul\":10212:10368   */\n      pop\n        /* \"#utility.yul\":10189:10368   */\n    tag_223:\n        /* \"#utility.yul\":10414:10415   */\n      0x01\n        /* \"#utility.yul\":10410:10411   */\n      0x02\n        /* \"#utility.yul\":10402:10408   */\n      dup9\n        /* \"#utility.yul\":10398:10412   */\n      mul\n        /* \"#utility.yul\":10394:10416   */\n      add\n        /* \"#utility.yul\":10388:10392   */\n      dup9\n        /* \"#utility.yul\":10381:10417   */\n      sstore\n        /* \"#utility.yul\":9816:10427   */\n      pop\n      pop\n      pop\n        /* \"#utility.yul\":9779:10666   */\n    tag_215:\n      pop\n        /* \"#utility.yul\":9369:10672   */\n      pop\n      pop\n      pop\n        /* \"#utility.yul\":9277:10672   */\n      pop\n      pop\n      jump\t// out\n\n    auxdata: 0xa2646970667358221220f59bbcbdc0b2360a33802617c2e6dbdd6996e0c318abb14dec74e423e63f9e0764736f6c63430008120033\n}\n",
				"bytecode": {
					"linkReferences": {},
					"object": "60806040526040518060600160405280600160ff168152602001600260ff168152602001600360ff1681525060009060036200003d92919062000193565b5060405180606001604052806040518060400160405280600581526020017f6170706c6500000000000000000000000000000000000000000000000000000081525081526020016040518060400160405280600681526020017f62616e616e61000000000000000000000000000000000000000000000000000081525081526020016040518060400160405280600681526020017f636172726f74000000000000000000000000000000000000000000000000000081525081525060019060036200010a929190620001ea565b5060405180604001604052806040518060600160405280600160ff168152602001600260ff168152602001600360ff1681525081526020016040518060600160405280600460ff168152602001600560ff168152602001600660ff1681525081525060039060026200017e9291906200024a565b503480156200018c57600080fd5b50620006e5565b828054828255906000526020600020908101928215620001d7579160200282015b82811115620001d6578251829060ff16905591602001919060010190620001b4565b5b509050620001e69190620002ac565b5090565b82805482825590600052602060002090810192821562000237579160200282015b8281111562000236578251829081620002259190620005fe565b50916020019190600101906200020b565b5b509050620002469190620002cb565b5090565b82805482825590600052602060002090810192821562000299579160200282015b8281111562000298578251829060036200028792919062000193565b50916020019190600101906200026b565b5b509050620002a89190620002f3565b5090565b5b80821115620002c7576000816000905550600101620002ad565b5090565b5b80821115620002ef5760008181620002e591906200031b565b50600101620002cc565b5090565b5b808211156200031757600081816200030d919062000361565b50600101620002f4565b5090565b5080546200032990620003ed565b6000825580601f106200033d57506200035e565b601f0160209004906000526020600020908101906200035d9190620002ac565b5b50565b5080546000825590600052602060002090810190620003819190620002ac565b50565b600081519050919050565b7f4e487b7100000000000000000000000000000000000000000000000000000000600052604160045260246000fd5b7f4e487b7100000000000000000000000000000000000000000000000000000000600052602260045260246000fd5b600060028204905060018216806200040657607f821691505b6020821081036200041c576200041b620003be565b5b50919050565b60008190508160005260206000209050919050565b60006020601f8301049050919050565b600082821b905092915050565b600060088302620004867fffffffffffffffffffffffffffffffffffffffffffffffffffffffffffffffff8262000447565b62000492868362000447565b95508019841693508086168417925050509392505050565b6000819050919050565b6000819050919050565b6000620004df620004d9620004d384620004aa565b620004b4565b620004aa565b9050919050565b6000819050919050565b620004fb83620004be565b620005136200050a82620004e6565b84845462000454565b825550505050565b600090565b6200052a6200051b565b62000537818484620004f0565b505050565b5b818110156200055f576200055360008262000520565b6001810190506200053d565b5050565b601f821115620005ae57620005788162000422565b620005838462000437565b8101602085101562000593578190505b620005ab620005a28562000437565b8301826200053c565b50505b505050565b600082821c905092915050565b6000620005d360001984600802620005b3565b1980831691505092915050565b6000620005ee8383620005c0565b9150826002028217905092915050565b620006098262000384565b67ffffffffffffffff8111156200062557620006246200038f565b5b620006318254620003ed565b6200063e82828562000563565b600060209050601f83116001811462000676576000841562000661578287015190505b6200066d8582620005e0565b865550620006dd565b601f198416620006868662000422565b60005b82811015620006b05784890151825560018201915060208501945060208101905062000689565b86831015620006d05784890151620006cc601f891682620005c0565b8355505b6001600288020188555050505b505050505050565b61098480620006f56000396000f3fe608060405234801561001057600080fd5b50600436106100625760003560e01c806326eb4dbb146100675780633a5fbaaa146100855780635e383d21146100a15780636422c4c8146100d15780639ae918c714610101578063d3268fc114610131575b600080fd5b61006f610161565b60405161007c9190610378565b60405180910390f35b61009f600480360381019061009a91906104ed565b61016e565b005b6100bb60048036038101906100b69190610562565b6101a6565b6040516100c8919061060e565b60405180910390f35b6100eb60048036038101906100e69190610562565b610252565b6040516100f8919061060e565b60405180910390f35b61011b60048036038101906101169190610562565b6102fe565b6040516101289190610378565b60405180910390f35b61014b60048036038101906101469190610630565b610322565b6040516101589190610378565b60405180910390f35b6000600280549050905090565b6002819080600181540180825580915050600190039060005260206000200160009091909190915090816101a2919061087c565b5050565b600281815481106101b657600080fd5b9060005260206000200160009150905080546101d19061069f565b80601f01602080910402602001604051908101604052809291908181526020018280546101fd9061069f565b801561024a5780601f1061021f5761010080835404028352916020019161024a565b820191906000526020600020905b81548152906001019060200180831161022d57829003601f168201915b505050505081565b6001818154811061026257600080fd5b90600052602060002001600091509050805461027d9061069f565b80601f01602080910402602001604051908101604052809291908181526020018280546102a99061069f565b80156102f65780601f106102cb576101008083540402835291602001916102f6565b820191906000526020600020905b8154815290600101906020018083116102d957829003601f168201915b505050505081565b6000818154811061030e57600080fd5b906000526020600020016000915090505481565b6003828154811061033257600080fd5b90600052602060002001818154811061034a57600080fd5b90600052602060002001600091509150505481565b6000819050919050565b6103728161035f565b82525050565b600060208201905061038d6000830184610369565b92915050565b6000604051905090565b600080fd5b600080fd5b600080fd5b600080fd5b6000601f19601f8301169050919050565b7f4e487b7100000000000000000000000000000000000000000000000000000000600052604160045260246000fd5b6103fa826103b1565b810181811067ffffffffffffffff82111715610419576104186103c2565b5b80604052505050565b600061042c610393565b905061043882826103f1565b919050565b600067ffffffffffffffff821115610458576104576103c2565b5b610461826103b1565b9050602081019050919050565b82818337600083830152505050565b600061049061048b8461043d565b610422565b9050828152602081018484840111156104ac576104ab6103ac565b5b6104b784828561046e565b509392505050565b600082601f8301126104d4576104d36103a7565b5b81356104e484826020860161047d565b91505092915050565b6000602082840312156105035761050261039d565b5b600082013567ffffffffffffffff811115610521576105206103a2565b5b61052d848285016104bf565b91505092915050565b61053f8161035f565b811461054a57600080fd5b50565b60008135905061055c81610536565b92915050565b6000602082840312156105785761057761039d565b5b60006105868482850161054d565b91505092915050565b600081519050919050565b600082825260208201905092915050565b60005b838110156105c95780820151818401526020810190506105ae565b60008484015250505050565b60006105e08261058f565b6105ea818561059a565b93506105fa8185602086016105ab565b610603816103b1565b840191505092915050565b6000602082019050818103600083015261062881846105d5565b905092915050565b600080604083850312156106475761064661039d565b5b60006106558582860161054d565b92505060206106668582860161054d565b9150509250929050565b7f4e487b7100000000000000000000000000000000000000000000000000000000600052602260045260246000fd5b600060028204905060018216806106b757607f821691505b6020821081036106ca576106c9610670565b5b50919050565b60008190508160005260206000209050919050565b60006020601f8301049050919050565b600082821b905092915050565b6000600883026107327fffffffffffffffffffffffffffffffffffffffffffffffffffffffffffffffff826106f5565b61073c86836106f5565b95508019841693508086168417925050509392505050565b6000819050919050565b600061077961077461076f8461035f565b610754565b61035f565b9050919050565b6000819050919050565b6107938361075e565b6107a761079f82610780565b848454610702565b825550505050565b600090565b6107bc6107af565b6107c781848461078a565b505050565b5b818110156107eb576107e06000826107b4565b6001810190506107cd565b5050565b601f82111561083057610801816106d0565b61080a846106e5565b81016020851015610819578190505b61082d610825856106e5565b8301826107cc565b50505b505050565b600082821c905092915050565b600061085360001984600802610835565b1980831691505092915050565b600061086c8383610842565b9150826002028217905092915050565b6108858261058f565b67ffffffffffffffff81111561089e5761089d6103c2565b5b6108a8825461069f565b6108b38282856107ef565b600060209050601f8311600181146108e657600084156108d4578287015190505b6108de8582610860565b865550610946565b601f1984166108f4866106d0565b60005b8281101561091c578489015182556001820191506020850194506020810190506108f7565b868310156109395784890151610935601f891682610842565b8355505b6001600288020188555050505b50505050505056fea2646970667358221220f59bbcbdc0b2360a33802617c2e6dbdd6996e0c318abb14dec74e423e63f9e0764736f6c63430008120033",
					"opcodes": "PUSH1 0x80 PUSH1 0x40 MSTORE PUSH1 0x40 MLOAD DUP1 PUSH1 0x60 ADD PUSH1 0x40 MSTORE DUP1 PUSH1 0x1 PUSH1 0xFF AND DUP2 MSTORE PUSH1 0x20 ADD PUSH1 0x2 PUSH1 0xFF AND DUP2 MSTORE PUSH1 0x20 ADD PUSH1 0x3 PUSH1 0xFF AND DUP2 MSTORE POP PUSH1 0x0 SWAP1 PUSH1 0x3 PUSH3 0x3D SWAP3 SWAP2 SWAP1 PUSH3 0x193 JUMP JUMPDEST POP PUSH1 0x40 MLOAD DUP1 PUSH1 0x60 ADD PUSH1 0x40 MSTORE DUP1 PUSH1 0x40 MLOAD DUP1 PUSH1 0x40 ADD PUSH1 0x40 MSTORE DUP1 PUSH1 0x5 DUP2 MSTORE PUSH1 0x20 ADD PUSH32 0x6170706C65000000000000000000000000000000000000000000000000000000 DUP2 MSTORE POP DUP2 MSTORE PUSH1 0x20 ADD PUSH1 0x40 MLOAD DUP1 PUSH1 0x40 ADD PUSH1 0x40 MSTORE DUP1 PUSH1 0x6 DUP2 MSTORE PUSH1 0x20 ADD PUSH32 0x62616E616E610000000000000000000000000000000000000000000000000000 DUP2 MSTORE POP DUP2 MSTORE PUSH1 0x20 ADD PUSH1 0x40 MLOAD DUP1 PUSH1 0x40 ADD PUSH1 0x40 MSTORE DUP1 PUSH1 0x6 DUP2 MSTORE PUSH1 0x20 ADD PUSH32 0x636172726F740000000000000000000000000000000000000000000000000000 DUP2 MSTORE POP DUP2 MSTORE POP PUSH1 0x1 SWAP1 PUSH1 0x3 PUSH3 0x10A SWAP3 SWAP2 SWAP1 PUSH3 0x1EA JUMP JUMPDEST POP PUSH1 0x40 MLOAD DUP1 PUSH1 0x40 ADD PUSH1 0x40 MSTORE DUP1 PUSH1 0x40 MLOAD DUP1 PUSH1 0x60 ADD PUSH1 0x40 MSTORE DUP1 PUSH1 0x1 PUSH1 0xFF AND DUP2 MSTORE PUSH1 0x20 ADD PUSH1 0x2 PUSH1 0xFF AND DUP2 MSTORE PUSH1 0x20 ADD PUSH1 0x3 PUSH1 0xFF AND DUP2 MSTORE POP DUP2 MSTORE PUSH1 0x20 ADD PUSH1 0x40 MLOAD DUP1 PUSH1 0x60 ADD PUSH1 0x40 MSTORE DUP1 PUSH1 0x4 PUSH1 0xFF AND DUP2 MSTORE PUSH1 0x20 ADD PUSH1 0x5 PUSH1 0xFF AND DUP2 MSTORE PUSH1 0x20 ADD PUSH1 0x6 PUSH1 0xFF AND DUP2 MSTORE POP DUP2 MSTORE POP PUSH1 0x3 SWAP1 PUSH1 0x2 PUSH3 0x17E SWAP3 SWAP2 SWAP1 PUSH3 0x24A JUMP JUMPDEST POP CALLVALUE DUP1 ISZERO PUSH3 0x18C JUMPI PUSH1 0x0 DUP1 REVERT JUMPDEST POP PUSH3 0x6E5 JUMP JUMPDEST DUP3 DUP1 SLOAD DUP3 DUP3 SSTORE SWAP1 PUSH1 0x0 MSTORE PUSH1 0x20 PUSH1 0x0 KECCAK256 SWAP1 DUP2 ADD SWAP3 DUP3 ISZERO PUSH3 0x1D7 JUMPI SWAP2 PUSH1 0x20 MUL DUP3 ADD JUMPDEST DUP3 DUP2 GT ISZERO PUSH3 0x1D6 JUMPI DUP3 MLOAD DUP3 SWAP1 PUSH1 0xFF AND SWAP1 SSTORE SWAP2 PUSH1 0x20 ADD SWAP2 SWAP1 PUSH1 0x1 ADD SWAP1 PUSH3 0x1B4 JUMP JUMPDEST JUMPDEST POP SWAP1 POP PUSH3 0x1E6 SWAP2 SWAP1 PUSH3 0x2AC JUMP JUMPDEST POP SWAP1 JUMP JUMPDEST DUP3 DUP1 SLOAD DUP3 DUP3 SSTORE SWAP1 PUSH1 0x0 MSTORE PUSH1 0x20 PUSH1 0x0 KECCAK256 SWAP1 DUP2 ADD SWAP3 DUP3 ISZERO PUSH3 0x237 JUMPI SWAP2 PUSH1 0x20 MUL DUP3 ADD JUMPDEST DUP3 DUP2 GT ISZERO PUSH3 0x236 JUMPI DUP3 MLOAD DUP3 SWAP1 DUP2 PUSH3 0x225 SWAP2 SWAP1 PUSH3 0x5FE JUMP JUMPDEST POP SWAP2 PUSH1 0x20 ADD SWAP2 SWAP1 PUSH1 0x1 ADD SWAP1 PUSH3 0x20B JUMP JUMPDEST JUMPDEST POP SWAP1 POP PUSH3 0x246 SWAP2 SWAP1 PUSH3 0x2CB JUMP JUMPDEST POP SWAP1 JUMP JUMPDEST DUP3 DUP1 SLOAD DUP3 DUP3 SSTORE SWAP1 PUSH1 0x0 MSTORE PUSH1 0x20 PUSH1 0x0 KECCAK256 SWAP1 DUP2 ADD SWAP3 DUP3 ISZERO PUSH3 0x299 JUMPI SWAP2 PUSH1 0x20 MUL DUP3 ADD JUMPDEST DUP3 DUP2 GT ISZERO PUSH3 0x298 JUMPI DUP3 MLOAD DUP3 SWAP1 PUSH1 0x3 PUSH3 0x287 SWAP3 SWAP2 SWAP1 PUSH3 0x193 JUMP JUMPDEST POP SWAP2 PUSH1 0x20 ADD SWAP2 SWAP1 PUSH1 0x1 ADD SWAP1 PUSH3 0x26B JUMP JUMPDEST JUMPDEST POP SWAP1 POP PUSH3 0x2A8 SWAP2 SWAP1 PUSH3 0x2F3 JUMP JUMPDEST POP SWAP1 JUMP JUMPDEST JUMPDEST DUP1 DUP3 GT ISZERO PUSH3 0x2C7 JUMPI PUSH1 0x0 DUP2 PUSH1 0x0 SWAP1 SSTORE POP PUSH1 0x1 ADD PUSH3 0x2AD JUMP JUMPDEST POP SWAP1 JUMP JUMPDEST JUMPDEST DUP1 DUP3 GT ISZERO PUSH3 0x2EF JUMPI PUSH1 0x0 DUP2 DUP2 PUSH3 0x2E5 SWAP2 SWAP1 PUSH3 0x31B JUMP JUMPDEST POP PUSH1 0x1 ADD PUSH3 0x2CC JUMP JUMPDEST POP SWAP1 JUMP JUMPDEST JUMPDEST DUP1 DUP3 GT ISZERO PUSH3 0x317 JUMPI PUSH1 0x0 DUP2 DUP2 PUSH3 0x30D SWAP2 SWAP1 PUSH3 0x361 JUMP JUMPDEST POP PUSH1 0x1 ADD PUSH3 0x2F4 JUMP JUMPDEST POP SWAP1 JUMP JUMPDEST POP DUP1 SLOAD PUSH3 0x329 SWAP1 PUSH3 0x3ED JUMP JUMPDEST PUSH1 0x0 DUP3 SSTORE DUP1 PUSH1 0x1F LT PUSH3 0x33D JUMPI POP PUSH3 0x35E JUMP JUMPDEST PUSH1 0x1F ADD PUSH1 0x20 SWAP1 DIV SWAP1 PUSH1 0x0 MSTORE PUSH1 0x20 PUSH1 0x0 KECCAK256 SWAP1 DUP2 ADD SWAP1 PUSH3 0x35D SWAP2 SWAP1 PUSH3 0x2AC JUMP JUMPDEST JUMPDEST POP JUMP JUMPDEST POP DUP1 SLOAD PUSH1 0x0 DUP3 SSTORE SWAP1 PUSH1 0x0 MSTORE PUSH1 0x20 PUSH1 0x0 KECCAK256 SWAP1 DUP2 ADD SWAP1 PUSH3 0x381 SWAP2 SWAP1 PUSH3 0x2AC JUMP JUMPDEST POP JUMP JUMPDEST PUSH1 0x0 DUP2 MLOAD SWAP1 POP SWAP2 SWAP1 POP JUMP JUMPDEST PUSH32 0x4E487B7100000000000000000000000000000000000000000000000000000000 PUSH1 0x0 MSTORE PUSH1 0x41 PUSH1 0x4 MSTORE PUSH1 0x24 PUSH1 0x0 REVERT JUMPDEST PUSH32 0x4E487B7100000000000000000000000000000000000000000000000000000000 PUSH1 0x0 MSTORE PUSH1 0x22 PUSH1 0x4 MSTORE PUSH1 0x24 PUSH1 0x0 REVERT JUMPDEST PUSH1 0x0 PUSH1 0x2 DUP3 DIV SWAP1 POP PUSH1 0x1 DUP3 AND DUP1 PUSH3 0x406 JUMPI PUSH1 0x7F DUP3 AND SWAP2 POP JUMPDEST PUSH1 0x20 DUP3 LT DUP2 SUB PUSH3 0x41C JUMPI PUSH3 0x41B PUSH3 0x3BE JUMP JUMPDEST JUMPDEST POP SWAP2 SWAP1 POP JUMP JUMPDEST PUSH1 0x0 DUP2 SWAP1 POP DUP2 PUSH1 0x0 MSTORE PUSH1 0x20 PUSH1 0x0 KECCAK256 SWAP1 POP SWAP2 SWAP1 POP JUMP JUMPDEST PUSH1 0x0 PUSH1 0x20 PUSH1 0x1F DUP4 ADD DIV SWAP1 POP SWAP2 SWAP1 POP JUMP JUMPDEST PUSH1 0x0 DUP3 DUP3 SHL SWAP1 POP SWAP3 SWAP2 POP POP JUMP JUMPDEST PUSH1 0x0 PUSH1 0x8 DUP4 MUL PUSH3 0x486 PUSH32 0xFFFFFFFFFFFFFFFFFFFFFFFFFFFFFFFFFFFFFFFFFFFFFFFFFFFFFFFFFFFFFFFF DUP3 PUSH3 0x447 JUMP JUMPDEST PUSH3 0x492 DUP7 DUP4 PUSH3 0x447 JUMP JUMPDEST SWAP6 POP DUP1 NOT DUP5 AND SWAP4 POP DUP1 DUP7 AND DUP5 OR SWAP3 POP POP POP SWAP4 SWAP3 POP POP POP JUMP JUMPDEST PUSH1 0x0 DUP2 SWAP1 POP SWAP2 SWAP1 POP JUMP JUMPDEST PUSH1 0x0 DUP2 SWAP1 POP SWAP2 SWAP1 POP JUMP JUMPDEST PUSH1 0x0 PUSH3 0x4DF PUSH3 0x4D9 PUSH3 0x4D3 DUP5 PUSH3 0x4AA JUMP JUMPDEST PUSH3 0x4B4 JUMP JUMPDEST PUSH3 0x4AA JUMP JUMPDEST SWAP1 POP SWAP2 SWAP1 POP JUMP JUMPDEST PUSH1 0x0 DUP2 SWAP1 POP SWAP2 SWAP1 POP JUMP JUMPDEST PUSH3 0x4FB DUP4 PUSH3 0x4BE JUMP JUMPDEST PUSH3 0x513 PUSH3 0x50A DUP3 PUSH3 0x4E6 JUMP JUMPDEST DUP5 DUP5 SLOAD PUSH3 0x454 JUMP JUMPDEST DUP3 SSTORE POP POP POP POP JUMP JUMPDEST PUSH1 0x0 SWAP1 JUMP JUMPDEST PUSH3 0x52A PUSH3 0x51B JUMP JUMPDEST PUSH3 0x537 DUP2 DUP5 DUP5 PUSH3 0x4F0 JUMP JUMPDEST POP POP POP JUMP JUMPDEST JUMPDEST DUP2 DUP2 LT ISZERO PUSH3 0x55F JUMPI PUSH3 0x553 PUSH1 0x0 DUP3 PUSH3 0x520 JUMP JUMPDEST PUSH1 0x1 DUP2 ADD SWAP1 POP PUSH3 0x53D JUMP JUMPDEST POP POP JUMP JUMPDEST PUSH1 0x1F DUP3 GT ISZERO PUSH3 0x5AE JUMPI PUSH3 0x578 DUP2 PUSH3 0x422 JUMP JUMPDEST PUSH3 0x583 DUP5 PUSH3 0x437 JUMP JUMPDEST DUP2 ADD PUSH1 0x20 DUP6 LT ISZERO PUSH3 0x593 JUMPI DUP2 SWAP1 POP JUMPDEST PUSH3 0x5AB PUSH3 0x5A2 DUP6 PUSH3 0x437 JUMP JUMPDEST DUP4 ADD DUP3 PUSH3 0x53C JUMP JUMPDEST POP POP JUMPDEST POP POP POP JUMP JUMPDEST PUSH1 0x0 DUP3 DUP3 SHR SWAP1 POP SWAP3 SWAP2 POP POP JUMP JUMPDEST PUSH1 0x0 PUSH3 0x5D3 PUSH1 0x0 NOT DUP5 PUSH1 0x8 MUL PUSH3 0x5B3 JUMP JUMPDEST NOT DUP1 DUP4 AND SWAP2 POP POP SWAP3 SWAP2 POP POP JUMP JUMPDEST PUSH1 0x0 PUSH3 0x5EE DUP4 DUP4 PUSH3 0x5C0 JUMP JUMPDEST SWAP2 POP DUP3 PUSH1 0x2 MUL DUP3 OR SWAP1 POP SWAP3 SWAP2 POP POP JUMP JUMPDEST PUSH3 0x609 DUP3 PUSH3 0x384 JUMP JUMPDEST PUSH8 0xFFFFFFFFFFFFFFFF DUP2 GT ISZERO PUSH3 0x625 JUMPI PUSH3 0x624 PUSH3 0x38F JUMP JUMPDEST JUMPDEST PUSH3 0x631 DUP3 SLOAD PUSH3 0x3ED JUMP JUMPDEST PUSH3 0x63E DUP3 DUP3 DUP6 PUSH3 0x563 JUMP JUMPDEST PUSH1 0x0 PUSH1 0x20 SWAP1 POP PUSH1 0x1F DUP4 GT PUSH1 0x1 DUP2 EQ PUSH3 0x676 JUMPI PUSH1 0x0 DUP5 ISZERO PUSH3 0x661 JUMPI DUP3 DUP8 ADD MLOAD SWAP1 POP JUMPDEST PUSH3 0x66D DUP6 DUP3 PUSH3 0x5E0 JUMP JUMPDEST DUP7 SSTORE POP PUSH3 0x6DD JUMP JUMPDEST PUSH1 0x1F NOT DUP5 AND PUSH3 0x686 DUP7 PUSH3 0x422 JUMP JUMPDEST PUSH1 0x0 JUMPDEST DUP3 DUP2 LT ISZERO PUSH3 0x6B0 JUMPI DUP5 DUP10 ADD MLOAD DUP3 SSTORE PUSH1 0x1 DUP3 ADD SWAP2 POP PUSH1 0x20 DUP6 ADD SWAP5 POP PUSH1 0x20 DUP2 ADD SWAP1 POP PUSH3 0x689 JUMP JUMPDEST DUP7 DUP4 LT ISZERO PUSH3 0x6D0 JUMPI DUP5 DUP10 ADD MLOAD PUSH3 0x6CC PUSH1 0x1F DUP10 AND DUP3 PUSH3 0x5C0 JUMP JUMPDEST DUP4 SSTORE POP JUMPDEST PUSH1 0x1 PUSH1 0x2 DUP9 MUL ADD DUP9 SSTORE POP POP POP JUMPDEST POP POP POP POP POP POP JUMP JUMPDEST PUSH2 0x984 DUP1 PUSH3 0x6F5 PUSH1 0x0 CODECOPY PUSH1 0x0 RETURN INVALID PUSH1 0x80 PUSH1 0x40 MSTORE CALLVALUE DUP1 ISZERO PUSH2 0x10 JUMPI PUSH1 0x0 DUP1 REVERT JUMPDEST POP PUSH1 0x4 CALLDATASIZE LT PUSH2 0x62 JUMPI PUSH1 0x0 CALLDATALOAD PUSH1 0xE0 SHR DUP1 PUSH4 0x26EB4DBB EQ PUSH2 0x67 JUMPI DUP1 PUSH4 0x3A5FBAAA EQ PUSH2 0x85 JUMPI DUP1 PUSH4 0x5E383D21 EQ PUSH2 0xA1 JUMPI DUP1 PUSH4 0x6422C4C8 EQ PUSH2 0xD1 JUMPI DUP1 PUSH4 0x9AE918C7 EQ PUSH2 0x101 JUMPI DUP1 PUSH4 0xD3268FC1 EQ PUSH2 0x131 JUMPI JUMPDEST PUSH1 0x0 DUP1 REVERT JUMPDEST PUSH2 0x6F PUSH2 0x161 JUMP JUMPDEST PUSH1 0x40 MLOAD PUSH2 0x7C SWAP2 SWAP1 PUSH2 0x378 JUMP JUMPDEST PUSH1 0x40 MLOAD DUP1 SWAP2 SUB SWAP1 RETURN JUMPDEST PUSH2 0x9F PUSH1 0x4 DUP1 CALLDATASIZE SUB DUP2 ADD SWAP1 PUSH2 0x9A SWAP2 SWAP1 PUSH2 0x4ED JUMP JUMPDEST PUSH2 0x16E JUMP JUMPDEST STOP JUMPDEST PUSH2 0xBB PUSH1 0x4 DUP1 CALLDATASIZE SUB DUP2 ADD SWAP1 PUSH2 0xB6 SWAP2 SWAP1 PUSH2 0x562 JUMP JUMPDEST PUSH2 0x1A6 JUMP JUMPDEST PUSH1 0x40 MLOAD PUSH2 0xC8 SWAP2 SWAP1 PUSH2 0x60E JUMP JUMPDEST PUSH1 0x40 MLOAD DUP1 SWAP2 SUB SWAP1 RETURN JUMPDEST PUSH2 0xEB PUSH1 0x4 DUP1 CALLDATASIZE SUB DUP2 ADD SWAP1 PUSH2 0xE6 SWAP2 SWAP1 PUSH2 0x562 JUMP JUMPDEST PUSH2 0x252 JUMP JUMPDEST PUSH1 0x40 MLOAD PUSH2 0xF8 SWAP2 SWAP1 PUSH2 0x60E JUMP JUMPDEST PUSH1 0x40 MLOAD DUP1 SWAP2 SUB SWAP1 RETURN JUMPDEST PUSH2 0x11B PUSH1 0x4 DUP1 CALLDATASIZE SUB DUP2 ADD SWAP1 PUSH2 0x116 SWAP2 SWAP1 PUSH2 0x562 JUMP JUMPDEST PUSH2 0x2FE JUMP JUMPDEST PUSH1 0x40 MLOAD PUSH2 0x128 SWAP2 SWAP1 PUSH2 0x378 JUMP JUMPDEST PUSH1 0x40 MLOAD DUP1 SWAP2 SUB SWAP1 RETURN JUMPDEST PUSH2 0x14B PUSH1 0x4 DUP1 CALLDATASIZE SUB DUP2 ADD SWAP1 PUSH2 0x146 SWAP2 SWAP1 PUSH2 0x630 JUMP JUMPDEST PUSH2 0x322 JUMP JUMPDEST PUSH1 0x40 MLOAD PUSH2 0x158 SWAP2 SWAP1 PUSH2 0x378 JUMP JUMPDEST PUSH1 0x40 MLOAD DUP1 SWAP2 SUB SWAP1 RETURN JUMPDEST PUSH1 0x0 PUSH1 0x2 DUP1 SLOAD SWAP1 POP SWAP1 POP SWAP1 JUMP JUMPDEST PUSH1 0x2 DUP2 SWAP1 DUP1 PUSH1 0x1 DUP2 SLOAD ADD DUP1 DUP3 SSTORE DUP1 SWAP2 POP POP PUSH1 0x1 SWAP1 SUB SWAP1 PUSH1 0x0 MSTORE PUSH1 0x20 PUSH1 0x0 KECCAK256 ADD PUSH1 0x0 SWAP1 SWAP2 SWAP1 SWAP2 SWAP1 SWAP2 POP SWAP1 DUP2 PUSH2 0x1A2 SWAP2 SWAP1 PUSH2 0x87C JUMP JUMPDEST POP POP JUMP JUMPDEST PUSH1 0x2 DUP2 DUP2 SLOAD DUP2 LT PUSH2 0x1B6 JUMPI PUSH1 0x0 DUP1 REVERT JUMPDEST SWAP1 PUSH1 0x0 MSTORE PUSH1 0x20 PUSH1 0x0 KECCAK256 ADD PUSH1 0x0 SWAP2 POP SWAP1 POP DUP1 SLOAD PUSH2 0x1D1 SWAP1 PUSH2 0x69F JUMP JUMPDEST DUP1 PUSH1 0x1F ADD PUSH1 0x20 DUP1 SWAP2 DIV MUL PUSH1 0x20 ADD PUSH1 0x40 MLOAD SWAP1 DUP2 ADD PUSH1 0x40 MSTORE DUP1 SWAP3 SWAP2 SWAP1 DUP2 DUP2 MSTORE PUSH1 0x20 ADD DUP3 DUP1 SLOAD PUSH2 0x1FD SWAP1 PUSH2 0x69F JUMP JUMPDEST DUP1 ISZERO PUSH2 0x24A JUMPI DUP1 PUSH1 0x1F LT PUSH2 0x21F JUMPI PUSH2 0x100 DUP1 DUP4 SLOAD DIV MUL DUP4 MSTORE SWAP2 PUSH1 0x20 ADD SWAP2 PUSH2 0x24A JUMP JUMPDEST DUP3 ADD SWAP2 SWAP1 PUSH1 0x0 MSTORE PUSH1 0x20 PUSH1 0x0 KECCAK256 SWAP1 JUMPDEST DUP2 SLOAD DUP2 MSTORE SWAP1 PUSH1 0x1 ADD SWAP1 PUSH1 0x20 ADD DUP1 DUP4 GT PUSH2 0x22D JUMPI DUP3 SWAP1 SUB PUSH1 0x1F AND DUP3 ADD SWAP2 JUMPDEST POP POP POP POP POP DUP2 JUMP JUMPDEST PUSH1 0x1 DUP2 DUP2 SLOAD DUP2 LT PUSH2 0x262 JUMPI PUSH1 0x0 DUP1 REVERT JUMPDEST SWAP1 PUSH1 0x0 MSTORE PUSH1 0x20 PUSH1 0x0 KECCAK256 ADD PUSH1 0x0 SWAP2 POP SWAP1 POP DUP1 SLOAD PUSH2 0x27D SWAP1 PUSH2 0x69F JUMP JUMPDEST DUP1 PUSH1 0x1F ADD PUSH1 0x20 DUP1 SWAP2 DIV MUL PUSH1 0x20 ADD PUSH1 0x40 MLOAD SWAP1 DUP2 ADD PUSH1 0x40 MSTORE DUP1 SWAP3 SWAP2 SWAP1 DUP2 DUP2 MSTORE PUSH1 0x20 ADD DUP3 DUP1 SLOAD PUSH2 0x2A9 SWAP1 PUSH2 0x69F JUMP JUMPDEST DUP1 ISZERO PUSH2 0x2F6 JUMPI DUP1 PUSH1 0x1F LT PUSH2 0x2CB JUMPI PUSH2 0x100 DUP1 DUP4 SLOAD DIV MUL DUP4 MSTORE SWAP2 PUSH1 0x20 ADD SWAP2 PUSH2 0x2F6 JUMP JUMPDEST DUP3 ADD SWAP2 SWAP1 PUSH1 0x0 MSTORE PUSH1 0x20 PUSH1 0x0 KECCAK256 SWAP1 JUMPDEST DUP2 SLOAD DUP2 MSTORE SWAP1 PUSH1 0x1 ADD SWAP1 PUSH1 0x20 ADD DUP1 DUP4 GT PUSH2 0x2D9 JUMPI DUP3 SWAP1 SUB PUSH1 0x1F AND DUP3 ADD SWAP2 JUMPDEST POP POP POP POP POP DUP2 JUMP JUMPDEST PUSH1 0x0 DUP2 DUP2 SLOAD DUP2 LT PUSH2 0x30E JUMPI PUSH1 0x0 DUP1 REVERT JUMPDEST SWAP1 PUSH1 0x0 MSTORE PUSH1 0x20 PUSH1 0x0 KECCAK256 ADD PUSH1 0x0 SWAP2 POP SWAP1 POP SLOAD DUP2 JUMP JUMPDEST PUSH1 0x3 DUP3 DUP2 SLOAD DUP2 LT PUSH2 0x332 JUMPI PUSH1 0x0 DUP1 REVERT JUMPDEST SWAP1 PUSH1 0x0 MSTORE PUSH1 0x20 PUSH1 0x0 KECCAK256 ADD DUP2 DUP2 SLOAD DUP2 LT PUSH2 0x34A JUMPI PUSH1 0x0 DUP1 REVERT JUMPDEST SWAP1 PUSH1 0x0 MSTORE PUSH1 0x20 PUSH1 0x0 KECCAK256 ADD PUSH1 0x0 SWAP2 POP SWAP2 POP POP SLOAD DUP2 JUMP JUMPDEST PUSH1 0x0 DUP2 SWAP1 POP SWAP2 SWAP1 POP JUMP JUMPDEST PUSH2 0x372 DUP2 PUSH2 0x35F JUMP JUMPDEST DUP3 MSTORE POP POP JUMP JUMPDEST PUSH1 0x0 PUSH1 0x20 DUP3 ADD SWAP1 POP PUSH2 0x38D PUSH1 0x0 DUP4 ADD DUP5 PUSH2 0x369 JUMP JUMPDEST SWAP3 SWAP2 POP POP JUMP JUMPDEST PUSH1 0x0 PUSH1 0x40 MLOAD SWAP1 POP SWAP1 JUMP JUMPDEST PUSH1 0x0 DUP1 REVERT JUMPDEST PUSH1 0x0 DUP1 REVERT JUMPDEST PUSH1 0x0 DUP1 REVERT JUMPDEST PUSH1 0x0 DUP1 REVERT JUMPDEST PUSH1 0x0 PUSH1 0x1F NOT PUSH1 0x1F DUP4 ADD AND SWAP1 POP SWAP2 SWAP1 POP JUMP JUMPDEST PUSH32 0x4E487B7100000000000000000000000000000000000000000000000000000000 PUSH1 0x0 MSTORE PUSH1 0x41 PUSH1 0x4 MSTORE PUSH1 0x24 PUSH1 0x0 REVERT JUMPDEST PUSH2 0x3FA DUP3 PUSH2 0x3B1 JUMP JUMPDEST DUP2 ADD DUP2 DUP2 LT PUSH8 0xFFFFFFFFFFFFFFFF DUP3 GT OR ISZERO PUSH2 0x419 JUMPI PUSH2 0x418 PUSH2 0x3C2 JUMP JUMPDEST JUMPDEST DUP1 PUSH1 0x40 MSTORE POP POP POP JUMP JUMPDEST PUSH1 0x0 PUSH2 0x42C PUSH2 0x393 JUMP JUMPDEST SWAP1 POP PUSH2 0x438 DUP3 DUP3 PUSH2 0x3F1 JUMP JUMPDEST SWAP2 SWAP1 POP JUMP JUMPDEST PUSH1 0x0 PUSH8 0xFFFFFFFFFFFFFFFF DUP3 GT ISZERO PUSH2 0x458 JUMPI PUSH2 0x457 PUSH2 0x3C2 JUMP JUMPDEST JUMPDEST PUSH2 0x461 DUP3 PUSH2 0x3B1 JUMP JUMPDEST SWAP1 POP PUSH1 0x20 DUP2 ADD SWAP1 POP SWAP2 SWAP1 POP JUMP JUMPDEST DUP3 DUP2 DUP4 CALLDATACOPY PUSH1 0x0 DUP4 DUP4 ADD MSTORE POP POP POP JUMP JUMPDEST PUSH1 0x0 PUSH2 0x490 PUSH2 0x48B DUP5 PUSH2 0x43D JUMP JUMPDEST PUSH2 0x422 JUMP JUMPDEST SWAP1 POP DUP3 DUP2 MSTORE PUSH1 0x20 DUP2 ADD DUP5 DUP5 DUP5 ADD GT ISZERO PUSH2 0x4AC JUMPI PUSH2 0x4AB PUSH2 0x3AC JUMP JUMPDEST JUMPDEST PUSH2 0x4B7 DUP5 DUP3 DUP6 PUSH2 0x46E JUMP JUMPDEST POP SWAP4 SWAP3 POP POP POP JUMP JUMPDEST PUSH1 0x0 DUP3 PUSH1 0x1F DUP4 ADD SLT PUSH2 0x4D4 JUMPI PUSH2 0x4D3 PUSH2 0x3A7 JUMP JUMPDEST JUMPDEST DUP2 CALLDATALOAD PUSH2 0x4E4 DUP5 DUP3 PUSH1 0x20 DUP7 ADD PUSH2 0x47D JUMP JUMPDEST SWAP2 POP POP SWAP3 SWAP2 POP POP JUMP JUMPDEST PUSH1 0x0 PUSH1 0x20 DUP3 DUP5 SUB SLT ISZERO PUSH2 0x503 JUMPI PUSH2 0x502 PUSH2 0x39D JUMP JUMPDEST JUMPDEST PUSH1 0x0 DUP3 ADD CALLDATALOAD PUSH8 0xFFFFFFFFFFFFFFFF DUP2 GT ISZERO PUSH2 0x521 JUMPI PUSH2 0x520 PUSH2 0x3A2 JUMP JUMPDEST JUMPDEST PUSH2 0x52D DUP5 DUP3 DUP6 ADD PUSH2 0x4BF JUMP JUMPDEST SWAP2 POP POP SWAP3 SWAP2 POP POP JUMP JUMPDEST PUSH2 0x53F DUP2 PUSH2 0x35F JUMP JUMPDEST DUP2 EQ PUSH2 0x54A JUMPI PUSH1 0x0 DUP1 REVERT JUMPDEST POP JUMP JUMPDEST PUSH1 0x0 DUP2 CALLDATALOAD SWAP1 POP PUSH2 0x55C DUP2 PUSH2 0x536 JUMP JUMPDEST SWAP3 SWAP2 POP POP JUMP JUMPDEST PUSH1 0x0 PUSH1 0x20 DUP3 DUP5 SUB SLT ISZERO PUSH2 0x578 JUMPI PUSH2 0x577 PUSH2 0x39D JUMP JUMPDEST JUMPDEST PUSH1 0x0 PUSH2 0x586 DUP5 DUP3 DUP6 ADD PUSH2 0x54D JUMP JUMPDEST SWAP2 POP POP SWAP3 SWAP2 POP POP JUMP JUMPDEST PUSH1 0x0 DUP2 MLOAD SWAP1 POP SWAP2 SWAP1 POP JUMP JUMPDEST PUSH1 0x0 DUP3 DUP3 MSTORE PUSH1 0x20 DUP3 ADD SWAP1 POP SWAP3 SWAP2 POP POP JUMP JUMPDEST PUSH1 0x0 JUMPDEST DUP4 DUP2 LT ISZERO PUSH2 0x5C9 JUMPI DUP1 DUP3 ADD MLOAD DUP2 DUP5 ADD MSTORE PUSH1 0x20 DUP2 ADD SWAP1 POP PUSH2 0x5AE JUMP JUMPDEST PUSH1 0x0 DUP5 DUP5 ADD MSTORE POP POP POP POP JUMP JUMPDEST PUSH1 0x0 PUSH2 0x5E0 DUP3 PUSH2 0x58F JUMP JUMPDEST PUSH2 0x5EA DUP2 DUP6 PUSH2 0x59A JUMP JUMPDEST SWAP4 POP PUSH2 0x5FA DUP2 DUP6 PUSH1 0x20 DUP7 ADD PUSH2 0x5AB JUMP JUMPDEST PUSH2 0x603 DUP2 PUSH2 0x3B1 JUMP JUMPDEST DUP5 ADD SWAP2 POP POP SWAP3 SWAP2 POP POP JUMP JUMPDEST PUSH1 0x0 PUSH1 0x20 DUP3 ADD SWAP1 POP DUP2 DUP2 SUB PUSH1 0x0 DUP4 ADD MSTORE PUSH2 0x628 DUP2 DUP5 PUSH2 0x5D5 JUMP JUMPDEST SWAP1 POP SWAP3 SWAP2 POP POP JUMP JUMPDEST PUSH1 0x0 DUP1 PUSH1 0x40 DUP4 DUP6 SUB SLT ISZERO PUSH2 0x647 JUMPI PUSH2 0x646 PUSH2 0x39D JUMP JUMPDEST JUMPDEST PUSH1 0x0 PUSH2 0x655 DUP6 DUP3 DUP7 ADD PUSH2 0x54D JUMP JUMPDEST SWAP3 POP POP PUSH1 0x20 PUSH2 0x666 DUP6 DUP3 DUP7 ADD PUSH2 0x54D JUMP JUMPDEST SWAP2 POP POP SWAP3 POP SWAP3 SWAP1 POP JUMP JUMPDEST PUSH32 0x4E487B7100000000000000000000000000000000000000000000000000000000 PUSH1 0x0 MSTORE PUSH1 0x22 PUSH1 0x4 MSTORE PUSH1 0x24 PUSH1 0x0 REVERT JUMPDEST PUSH1 0x0 PUSH1 0x2 DUP3 DIV SWAP1 POP PUSH1 0x1 DUP3 AND DUP1 PUSH2 0x6B7 JUMPI PUSH1 0x7F DUP3 AND SWAP2 POP JUMPDEST PUSH1 0x20 DUP3 LT DUP2 SUB PUSH2 0x6CA JUMPI PUSH2 0x6C9 PUSH2 0x670 JUMP JUMPDEST JUMPDEST POP SWAP2 SWAP1 POP JUMP JUMPDEST PUSH1 0x0 DUP2 SWAP1 POP DUP2 PUSH1 0x0 MSTORE PUSH1 0x20 PUSH1 0x0 KECCAK256 SWAP1 POP SWAP2 SWAP1 POP JUMP JUMPDEST PUSH1 0x0 PUSH1 0x20 PUSH1 0x1F DUP4 ADD DIV SWAP1 POP SWAP2 SWAP1 POP JUMP JUMPDEST PUSH1 0x0 DUP3 DUP3 SHL SWAP1 POP SWAP3 SWAP2 POP POP JUMP JUMPDEST PUSH1 0x0 PUSH1 0x8 DUP4 MUL PUSH2 0x732 PUSH32 0xFFFFFFFFFFFFFFFFFFFFFFFFFFFFFFFFFFFFFFFFFFFFFFFFFFFFFFFFFFFFFFFF DUP3 PUSH2 0x6F5 JUMP JUMPDEST PUSH2 0x73C DUP7 DUP4 PUSH2 0x6F5 JUMP JUMPDEST SWAP6 POP DUP1 NOT DUP5 AND SWAP4 POP DUP1 DUP7 AND DUP5 OR SWAP3 POP POP POP SWAP4 SWAP3 POP POP POP JUMP JUMPDEST PUSH1 0x0 DUP2 SWAP1 POP SWAP2 SWAP1 POP JUMP JUMPDEST PUSH1 0x0 PUSH2 0x779 PUSH2 0x774 PUSH2 0x76F DUP5 PUSH2 0x35F JUMP JUMPDEST PUSH2 0x754 JUMP JUMPDEST PUSH2 0x35F JUMP JUMPDEST SWAP1 POP SWAP2 SWAP1 POP JUMP JUMPDEST PUSH1 0x0 DUP2 SWAP1 POP SWAP2 SWAP1 POP JUMP JUMPDEST PUSH2 0x793 DUP4 PUSH2 0x75E JUMP JUMPDEST PUSH2 0x7A7 PUSH2 0x79F DUP3 PUSH2 0x780 JUMP JUMPDEST DUP5 DUP5 SLOAD PUSH2 0x702 JUMP JUMPDEST DUP3 SSTORE POP POP POP POP JUMP JUMPDEST PUSH1 0x0 SWAP1 JUMP JUMPDEST PUSH2 0x7BC PUSH2 0x7AF JUMP JUMPDEST PUSH2 0x7C7 DUP2 DUP5 DUP5 PUSH2 0x78A JUMP JUMPDEST POP POP POP JUMP JUMPDEST JUMPDEST DUP2 DUP2 LT ISZERO PUSH2 0x7EB JUMPI PUSH2 0x7E0 PUSH1 0x0 DUP3 PUSH2 0x7B4 JUMP JUMPDEST PUSH1 0x1 DUP2 ADD SWAP1 POP PUSH2 0x7CD JUMP JUMPDEST POP POP JUMP JUMPDEST PUSH1 0x1F DUP3 GT ISZERO PUSH2 0x830 JUMPI PUSH2 0x801 DUP2 PUSH2 0x6D0 JUMP JUMPDEST PUSH2 0x80A DUP5 PUSH2 0x6E5 JUMP JUMPDEST DUP2 ADD PUSH1 0x20 DUP6 LT ISZERO PUSH2 0x819 JUMPI DUP2 SWAP1 POP JUMPDEST PUSH2 0x82D PUSH2 0x825 DUP6 PUSH2 0x6E5 JUMP JUMPDEST DUP4 ADD DUP3 PUSH2 0x7CC JUMP JUMPDEST POP POP JUMPDEST POP POP POP JUMP JUMPDEST PUSH1 0x0 DUP3 DUP3 SHR SWAP1 POP SWAP3 SWAP2 POP POP JUMP JUMPDEST PUSH1 0x0 PUSH2 0x853 PUSH1 0x0 NOT DUP5 PUSH1 0x8 MUL PUSH2 0x835 JUMP JUMPDEST NOT DUP1 DUP4 AND SWAP2 POP POP SWAP3 SWAP2 POP POP JUMP JUMPDEST PUSH1 0x0 PUSH2 0x86C DUP4 DUP4 PUSH2 0x842 JUMP JUMPDEST SWAP2 POP DUP3 PUSH1 0x2 MUL DUP3 OR SWAP1 POP SWAP3 SWAP2 POP POP JUMP JUMPDEST PUSH2 0x885 DUP3 PUSH2 0x58F JUMP JUMPDEST PUSH8 0xFFFFFFFFFFFFFFFF DUP2 GT ISZERO PUSH2 0x89E JUMPI PUSH2 0x89D PUSH2 0x3C2 JUMP JUMPDEST JUMPDEST PUSH2 0x8A8 DUP3 SLOAD PUSH2 0x69F JUMP JUMPDEST PUSH2 0x8B3 DUP3 DUP3 DUP6 PUSH2 0x7EF JUMP JUMPDEST PUSH1 0x0 PUSH1 0x20 SWAP1 POP PUSH1 0x1F DUP4 GT PUSH1 0x1 DUP2 EQ PUSH2 0x8E6 JUMPI PUSH1 0x0 DUP5 ISZERO PUSH2 0x8D4 JUMPI DUP3 DUP8 ADD MLOAD SWAP1 POP JUMPDEST PUSH2 0x8DE DUP6 DUP3 PUSH2 0x860 JUMP JUMPDEST DUP7 SSTORE POP PUSH2 0x946 JUMP JUMPDEST PUSH1 0x1F NOT DUP5 AND PUSH2 0x8F4 DUP7 PUSH2 0x6D0 JUMP JUMPDEST PUSH1 0x0 JUMPDEST DUP3 DUP2 LT ISZERO PUSH2 0x91C JUMPI DUP5 DUP10 ADD MLOAD DUP3 SSTORE PUSH1 0x1 DUP3 ADD SWAP2 POP PUSH1 0x20 DUP6 ADD SWAP5 POP PUSH1 0x20 DUP2 ADD SWAP1 POP PUSH2 0x8F7 JUMP JUMPDEST DUP7 DUP4 LT ISZERO PUSH2 0x939 JUMPI DUP5 DUP10 ADD MLOAD PUSH2 0x935 PUSH1 0x1F DUP10 AND DUP3 PUSH2 0x842 JUMP JUMPDEST DUP4 SSTORE POP JUMPDEST PUSH1 0x1 PUSH1 0x2 DUP9 MUL ADD DUP9 SSTORE POP POP POP JUMPDEST POP POP POP POP POP POP JUMP INVALID LOG2 PUSH5 0x6970667358 0x22 SLT KECCAK256 CREATE2 SWAP12 0xBC 0xBD 0xC0 0xB2 CALLDATASIZE EXP CALLER DUP1 0x26 OR 0xC2 0xE6 0xDB 0xDD PUSH10 0x96E0C318ABB14DEC74E4 0x23 0xE6 EXTCODEHASH SWAP15 SMOD PUSH5 0x736F6C6343 STOP ADDMOD SLT STOP CALLER "
				},
				"gasEstimates": {
					"creation": {
						"codeDepositCost": "487200",
						"executionCost": "infinite",
						"totalCost": "infinite"
					},
					"external": {
						"addValue(string)": "infinite",
						"array2D(uint256,uint256)": "infinite",
						"stringArray(uint256)": "infinite",
						"uintArray(uint256)": "infinite",
						"valueCount()": "2423",
						"values(uint256)": "infinite"
					}
				},
				"methodIdentifiers": {
					"addValue(string)": "3a5fbaaa",
					"array2D(uint256,uint256)": "d3268fc1",
					"stringArray(uint256)": "6422c4c8",
					"uintArray(uint256)": "9ae918c7",
					"valueCount()": "26eb4dbb",
					"values(uint256)": "5e383d21"
				}
			},
			"storageLayout": {
				"storage": [
					{
						"astId": 8,
						"contract": "contracts/Arrays.sol:Arrays",
						"label": "uintArray",
						"offset": 0,
						"slot": "0",
						"type": "t_array(t_uint256)dyn_storage"
					},
					{
						"astId": 15,
						"contract": "contracts/Arrays.sol:Arrays",
						"label": "stringArray",
						"offset": 0,
						"slot": "1",
						"type": "t_array(t_string_storage)dyn_storage"
					},
					{
						"astId": 18,
						"contract": "contracts/Arrays.sol:Arrays",
						"label": "values",
						"offset": 0,
						"slot": "2",
						"type": "t_array(t_string_storage)dyn_storage"
					},
					{
						"astId": 31,
						"contract": "contracts/Arrays.sol:Arrays",
						"label": "array2D",
						"offset": 0,
						"slot": "3",
						"type": "t_array(t_array(t_uint256)dyn_storage)dyn_storage"
					}
				],
				"types": {
					"t_array(t_array(t_uint256)dyn_storage)dyn_storage": {
						"base": "t_array(t_uint256)dyn_storage",
						"encoding": "dynamic_array",
						"label": "uint256[][]",
						"numberOfBytes": "32"
					},
					"t_array(t_string_storage)dyn_storage": {
						"base": "t_string_storage",
						"encoding": "dynamic_array",
						"label": "string[]",
						"numberOfBytes": "32"
					},
					"t_array(t_uint256)dyn_storage": {
						"base": "t_uint256",
						"encoding": "dynamic_array",
						"label": "uint256[]",
						"numberOfBytes": "32"
					},
					"t_string_storage": {
						"encoding": "bytes",
						"label": "string",
						"numberOfBytes": "32"
					},
					"t_uint256": {
						"encoding": "inplace",
						"label": "uint256",
						"numberOfBytes": "32"
					}
				}
			},
			"userdoc": {
				"kind": "user",
				"methods": {},
				"version": 1
			}
		}
	}
}