{
	"contracts/Loops&Conditions.sol": {
		"LoopsAndConditions": {
			"abi": [
				{
					"inputs": [],
					"name": "countEvenNums",
					"outputs": [
						{
							"internalType": "uint256",
							"name": "",
							"type": "uint256"
						}
					],
					"stateMutability": "view",
					"type": "function"
				},
				{
					"inputs": [
						{
							"internalType": "uint256",
							"name": "_nums",
							"type": "uint256"
						}
					],
					"name": "isEven",
					"outputs": [
						{
							"internalType": "bool",
							"name": "",
							"type": "bool"
						}
					],
					"stateMutability": "nonpayable",
					"type": "function"
				},
				{
					"inputs": [
						{
							"internalType": "uint256",
							"name": "",
							"type": "uint256"
						}
					],
					"name": "nums",
					"outputs": [
						{
							"internalType": "uint256",
							"name": "",
							"type": "uint256"
						}
					],
					"stateMutability": "view",
					"type": "function"
				}
			],
			"devdoc": {
				"kind": "dev",
				"methods": {},
				"version": 1
			},
			"evm": {
				"assembly": "    /* \"contracts/Loops&Conditions.sol\":57:452  contract LoopsAndConditions{... */\n  mstore(0x40, 0x80)\n    /* \"contracts/Loops&Conditions.sol\":91:134  uint[] public nums = [1,2,3,4,5,6,7,8,9,10] */\n  mload(0x40)\n  dup1\n  0x0140\n  add\n  0x40\n  mstore\n  dup1\n    /* \"contracts/Loops&Conditions.sol\":113:114  1 */\n  0x01\n    /* \"contracts/Loops&Conditions.sol\":91:134  uint[] public nums = [1,2,3,4,5,6,7,8,9,10] */\n  0xff\n  and\n  dup2\n  mstore\n  0x20\n  add\n    /* \"contracts/Loops&Conditions.sol\":115:116  2 */\n  0x02\n    /* \"contracts/Loops&Conditions.sol\":91:134  uint[] public nums = [1,2,3,4,5,6,7,8,9,10] */\n  0xff\n  and\n  dup2\n  mstore\n  0x20\n  add\n    /* \"contracts/Loops&Conditions.sol\":117:118  3 */\n  0x03\n    /* \"contracts/Loops&Conditions.sol\":91:134  uint[] public nums = [1,2,3,4,5,6,7,8,9,10] */\n  0xff\n  and\n  dup2\n  mstore\n  0x20\n  add\n    /* \"contracts/Loops&Conditions.sol\":119:120  4 */\n  0x04\n    /* \"contracts/Loops&Conditions.sol\":91:134  uint[] public nums = [1,2,3,4,5,6,7,8,9,10] */\n  0xff\n  and\n  dup2\n  mstore\n  0x20\n  add\n    /* \"contracts/Loops&Conditions.sol\":121:122  5 */\n  0x05\n    /* \"contracts/Loops&Conditions.sol\":91:134  uint[] public nums = [1,2,3,4,5,6,7,8,9,10] */\n  0xff\n  and\n  dup2\n  mstore\n  0x20\n  add\n    /* \"contracts/Loops&Conditions.sol\":123:124  6 */\n  0x06\n    /* \"contracts/Loops&Conditions.sol\":91:134  uint[] public nums = [1,2,3,4,5,6,7,8,9,10] */\n  0xff\n  and\n  dup2\n  mstore\n  0x20\n  add\n    /* \"contracts/Loops&Conditions.sol\":125:126  7 */\n  0x07\n    /* \"contracts/Loops&Conditions.sol\":91:134  uint[] public nums = [1,2,3,4,5,6,7,8,9,10] */\n  0xff\n  and\n  dup2\n  mstore\n  0x20\n  add\n    /* \"contracts/Loops&Conditions.sol\":127:128  8 */\n  0x08\n    /* \"contracts/Loops&Conditions.sol\":91:134  uint[] public nums = [1,2,3,4,5,6,7,8,9,10] */\n  0xff\n  and\n  dup2\n  mstore\n  0x20\n  add\n    /* \"contracts/Loops&Conditions.sol\":129:130  9 */\n  0x09\n    /* \"contracts/Loops&Conditions.sol\":91:134  uint[] public nums = [1,2,3,4,5,6,7,8,9,10] */\n  0xff\n  and\n  dup2\n  mstore\n  0x20\n  add\n    /* \"contracts/Loops&Conditions.sol\":131:133  10 */\n  0x0a\n    /* \"contracts/Loops&Conditions.sol\":91:134  uint[] public nums = [1,2,3,4,5,6,7,8,9,10] */\n  0xff\n  and\n  dup2\n  mstore\n  pop\n  0x00\n  swap1\n  0x0a\n  tag_1\n  swap3\n  swap2\n  swap1\n  tag_2\n  jump\t// in\ntag_1:\n  pop\n    /* \"contracts/Loops&Conditions.sol\":57:452  contract LoopsAndConditions{... */\n  callvalue\n  dup1\n  iszero\n  tag_3\n  jumpi\n  0x00\n  dup1\n  revert\ntag_3:\n  pop\n  jump(tag_4)\ntag_2:\n  dup3\n  dup1\n  sload\n  dup3\n  dup3\n  sstore\n  swap1\n  0x00\n  mstore\n  keccak256(0x00, 0x20)\n  swap1\n  dup2\n  add\n  swap3\n  dup3\n  iszero\n  tag_5\n  jumpi\n  swap2\n  0x20\n  mul\n  dup3\n  add\ntag_6:\n  dup3\n  dup2\n  gt\n  iszero\n  tag_7\n  jumpi\n  dup3\n  mload\n  dup3\n  swap1\n  0xff\n  and\n  swap1\n  sstore\n  swap2\n  0x20\n  add\n  swap2\n  swap1\n  0x01\n  add\n  swap1\n  jump(tag_6)\ntag_7:\ntag_5:\n  pop\n  swap1\n  pop\n  tag_8\n  swap2\n  swap1\n  tag_9\n  jump\t// in\ntag_8:\n  pop\n  swap1\n  jump\t// out\ntag_9:\ntag_10:\n  dup1\n  dup3\n  gt\n  iszero\n  tag_11\n  jumpi\n  0x00\n  dup2\n  0x00\n  swap1\n  sstore\n  pop\n  0x01\n  add\n  jump(tag_10)\ntag_11:\n  pop\n  swap1\n  jump\t// out\ntag_4:\n  dataSize(sub_0)\n  dup1\n  dataOffset(sub_0)\n  0x00\n  codecopy\n  0x00\n  return\nstop\n\nsub_0: assembly {\n        /* \"contracts/Loops&Conditions.sol\":57:452  contract LoopsAndConditions{... */\n      mstore(0x40, 0x80)\n      callvalue\n      dup1\n      iszero\n      tag_1\n      jumpi\n      0x00\n      dup1\n      revert\n    tag_1:\n      pop\n      jumpi(tag_2, lt(calldatasize, 0x04))\n      shr(0xe0, calldataload(0x00))\n      dup1\n      0x2a2e1320\n      eq\n      tag_3\n      jumpi\n      dup1\n      0x628ffaa9\n      eq\n      tag_4\n      jumpi\n      dup1\n      0xfd1ee54c\n      eq\n      tag_5\n      jumpi\n    tag_2:\n      0x00\n      dup1\n      revert\n        /* \"contracts/Loops&Conditions.sol\":142:302  function isEven(uint _nums) public returns (bool){... */\n    tag_3:\n      tag_6\n      0x04\n      dup1\n      calldatasize\n      sub\n      dup2\n      add\n      swap1\n      tag_7\n      swap2\n      swap1\n      tag_8\n      jump\t// in\n    tag_7:\n      tag_9\n      jump\t// in\n    tag_6:\n      mload(0x40)\n      tag_10\n      swap2\n      swap1\n      tag_11\n      jump\t// in\n    tag_10:\n      mload(0x40)\n      dup1\n      swap2\n      sub\n      swap1\n      return\n        /* \"contracts/Loops&Conditions.sol\":308:444  function countEvenNums() public view returns(uint){... */\n    tag_4:\n      tag_12\n      tag_13\n      jump\t// in\n    tag_12:\n      mload(0x40)\n      tag_14\n      swap2\n      swap1\n      tag_15\n      jump\t// in\n    tag_14:\n      mload(0x40)\n      dup1\n      swap2\n      sub\n      swap1\n      return\n        /* \"contracts/Loops&Conditions.sol\":91:134  uint[] public nums = [1,2,3,4,5,6,7,8,9,10] */\n    tag_5:\n      tag_16\n      0x04\n      dup1\n      calldatasize\n      sub\n      dup2\n      add\n      swap1\n      tag_17\n      swap2\n      swap1\n      tag_8\n      jump\t// in\n    tag_17:\n      tag_18\n      jump\t// in\n    tag_16:\n      mload(0x40)\n      tag_19\n      swap2\n      swap1\n      tag_15\n      jump\t// in\n    tag_19:\n      mload(0x40)\n      dup1\n      swap2\n      sub\n      swap1\n      return\n        /* \"contracts/Loops&Conditions.sol\":142:302  function isEven(uint _nums) public returns (bool){... */\n    tag_9:\n        /* \"contracts/Loops&Conditions.sol\":186:190  bool */\n      0x00\n        /* \"contracts/Loops&Conditions.sol\":217:218  0 */\n      dup1\n        /* \"contracts/Loops&Conditions.sol\":212:213  2 */\n      0x02\n        /* \"contracts/Loops&Conditions.sol\":204:209  _nums */\n      dup4\n        /* \"contracts/Loops&Conditions.sol\":204:213  _nums % 2 */\n      tag_21\n      swap2\n      swap1\n      tag_22\n      jump\t// in\n    tag_21:\n        /* \"contracts/Loops&Conditions.sol\":204:218  _nums % 2 == 0 */\n      sub\n        /* \"contracts/Loops&Conditions.sol\":201:296  if(_nums % 2 == 0){... */\n      tag_23\n      jumpi\n        /* \"contracts/Loops&Conditions.sol\":240:244  true */\n      0x01\n        /* \"contracts/Loops&Conditions.sol\":233:244  return true */\n      swap1\n      pop\n      jump(tag_20)\n        /* \"contracts/Loops&Conditions.sol\":201:296  if(_nums % 2 == 0){... */\n    tag_23:\n        /* \"contracts/Loops&Conditions.sol\":280:285  false */\n      0x00\n        /* \"contracts/Loops&Conditions.sol\":273:285  return false */\n      swap1\n      pop\n        /* \"contracts/Loops&Conditions.sol\":142:302  function isEven(uint _nums) public returns (bool){... */\n    tag_20:\n      swap2\n      swap1\n      pop\n      jump\t// out\n        /* \"contracts/Loops&Conditions.sol\":308:444  function countEvenNums() public view returns(uint){... */\n    tag_13:\n        /* \"contracts/Loops&Conditions.sol\":353:357  uint */\n      0x00\n        /* \"contracts/Loops&Conditions.sol\":368:378  uint count */\n      dup1\n        /* \"contracts/Loops&Conditions.sol\":379:380  0 */\n      0x00\n        /* \"contracts/Loops&Conditions.sol\":368:380  uint count=0 */\n      swap1\n      pop\n        /* \"contracts/Loops&Conditions.sol\":396:402  uint i */\n      0x00\n        /* \"contracts/Loops&Conditions.sol\":391:438  for (uint i = 0; i<nums.length;i++){... */\n    tag_26:\n        /* \"contracts/Loops&Conditions.sol\":410:414  nums */\n      0x00\n        /* \"contracts/Loops&Conditions.sol\":410:421  nums.length */\n      dup1\n      sload\n      swap1\n      pop\n        /* \"contracts/Loops&Conditions.sol\":408:409  i */\n      dup2\n        /* \"contracts/Loops&Conditions.sol\":408:421  i<nums.length */\n      lt\n        /* \"contracts/Loops&Conditions.sol\":391:438  for (uint i = 0; i<nums.length;i++){... */\n      iszero\n      tag_27\n      jumpi\n        /* \"contracts/Loops&Conditions.sol\":422:425  i++ */\n      dup1\n      dup1\n      tag_29\n      swap1\n      tag_30\n      jump\t// in\n    tag_29:\n      swap2\n      pop\n      pop\n        /* \"contracts/Loops&Conditions.sol\":391:438  for (uint i = 0; i<nums.length;i++){... */\n      jump(tag_26)\n    tag_27:\n      pop\n        /* \"contracts/Loops&Conditions.sol\":358:444  {... */\n      pop\n        /* \"contracts/Loops&Conditions.sol\":308:444  function countEvenNums() public view returns(uint){... */\n      swap1\n      jump\t// out\n        /* \"contracts/Loops&Conditions.sol\":91:134  uint[] public nums = [1,2,3,4,5,6,7,8,9,10] */\n    tag_18:\n      0x00\n      dup2\n      dup2\n      sload\n      dup2\n      lt\n      tag_31\n      jumpi\n      0x00\n      dup1\n      revert\n    tag_31:\n      swap1\n      0x00\n      mstore\n      keccak256(0x00, 0x20)\n      add\n      0x00\n      swap2\n      pop\n      swap1\n      pop\n      sload\n      dup2\n      jump\t// out\n        /* \"#utility.yul\":88:205   */\n    tag_34:\n        /* \"#utility.yul\":197:198   */\n      0x00\n        /* \"#utility.yul\":194:195   */\n      dup1\n        /* \"#utility.yul\":187:199   */\n      revert\n        /* \"#utility.yul\":334:411   */\n    tag_36:\n        /* \"#utility.yul\":371:378   */\n      0x00\n        /* \"#utility.yul\":400:405   */\n      dup2\n        /* \"#utility.yul\":389:405   */\n      swap1\n      pop\n        /* \"#utility.yul\":334:411   */\n      swap2\n      swap1\n      pop\n      jump\t// out\n        /* \"#utility.yul\":417:539   */\n    tag_37:\n        /* \"#utility.yul\":490:514   */\n      tag_50\n        /* \"#utility.yul\":508:513   */\n      dup2\n        /* \"#utility.yul\":490:514   */\n      tag_36\n      jump\t// in\n    tag_50:\n        /* \"#utility.yul\":483:488   */\n      dup2\n        /* \"#utility.yul\":480:515   */\n      eq\n        /* \"#utility.yul\":470:533   */\n      tag_51\n      jumpi\n        /* \"#utility.yul\":529:530   */\n      0x00\n        /* \"#utility.yul\":526:527   */\n      dup1\n        /* \"#utility.yul\":519:531   */\n      revert\n        /* \"#utility.yul\":470:533   */\n    tag_51:\n        /* \"#utility.yul\":417:539   */\n      pop\n      jump\t// out\n        /* \"#utility.yul\":545:684   */\n    tag_38:\n        /* \"#utility.yul\":591:596   */\n      0x00\n        /* \"#utility.yul\":629:635   */\n      dup2\n        /* \"#utility.yul\":616:636   */\n      calldataload\n        /* \"#utility.yul\":607:636   */\n      swap1\n      pop\n        /* \"#utility.yul\":645:678   */\n      tag_53\n        /* \"#utility.yul\":672:677   */\n      dup2\n        /* \"#utility.yul\":645:678   */\n      tag_37\n      jump\t// in\n    tag_53:\n        /* \"#utility.yul\":545:684   */\n      swap3\n      swap2\n      pop\n      pop\n      jump\t// out\n        /* \"#utility.yul\":690:1019   */\n    tag_8:\n        /* \"#utility.yul\":749:755   */\n      0x00\n        /* \"#utility.yul\":798:800   */\n      0x20\n        /* \"#utility.yul\":786:795   */\n      dup3\n        /* \"#utility.yul\":777:784   */\n      dup5\n        /* \"#utility.yul\":773:796   */\n      sub\n        /* \"#utility.yul\":769:801   */\n      slt\n        /* \"#utility.yul\":766:885   */\n      iszero\n      tag_55\n      jumpi\n        /* \"#utility.yul\":804:883   */\n      tag_56\n      tag_34\n      jump\t// in\n    tag_56:\n        /* \"#utility.yul\":766:885   */\n    tag_55:\n        /* \"#utility.yul\":924:925   */\n      0x00\n        /* \"#utility.yul\":949:1002   */\n      tag_57\n        /* \"#utility.yul\":994:1001   */\n      dup5\n        /* \"#utility.yul\":985:991   */\n      dup3\n        /* \"#utility.yul\":974:983   */\n      dup6\n        /* \"#utility.yul\":970:992   */\n      add\n        /* \"#utility.yul\":949:1002   */\n      tag_38\n      jump\t// in\n    tag_57:\n        /* \"#utility.yul\":939:1002   */\n      swap2\n      pop\n        /* \"#utility.yul\":895:1012   */\n      pop\n        /* \"#utility.yul\":690:1019   */\n      swap3\n      swap2\n      pop\n      pop\n      jump\t// out\n        /* \"#utility.yul\":1025:1115   */\n    tag_39:\n        /* \"#utility.yul\":1059:1066   */\n      0x00\n        /* \"#utility.yul\":1102:1107   */\n      dup2\n        /* \"#utility.yul\":1095:1108   */\n      iszero\n        /* \"#utility.yul\":1088:1109   */\n      iszero\n        /* \"#utility.yul\":1077:1109   */\n      swap1\n      pop\n        /* \"#utility.yul\":1025:1115   */\n      swap2\n      swap1\n      pop\n      jump\t// out\n        /* \"#utility.yul\":1121:1230   */\n    tag_40:\n        /* \"#utility.yul\":1202:1223   */\n      tag_60\n        /* \"#utility.yul\":1217:1222   */\n      dup2\n        /* \"#utility.yul\":1202:1223   */\n      tag_39\n      jump\t// in\n    tag_60:\n        /* \"#utility.yul\":1197:1200   */\n      dup3\n        /* \"#utility.yul\":1190:1224   */\n      mstore\n        /* \"#utility.yul\":1121:1230   */\n      pop\n      pop\n      jump\t// out\n        /* \"#utility.yul\":1236:1446   */\n    tag_11:\n        /* \"#utility.yul\":1323:1327   */\n      0x00\n        /* \"#utility.yul\":1361:1363   */\n      0x20\n        /* \"#utility.yul\":1350:1359   */\n      dup3\n        /* \"#utility.yul\":1346:1364   */\n      add\n        /* \"#utility.yul\":1338:1364   */\n      swap1\n      pop\n        /* \"#utility.yul\":1374:1439   */\n      tag_62\n        /* \"#utility.yul\":1436:1437   */\n      0x00\n        /* \"#utility.yul\":1425:1434   */\n      dup4\n        /* \"#utility.yul\":1421:1438   */\n      add\n        /* \"#utility.yul\":1412:1418   */\n      dup5\n        /* \"#utility.yul\":1374:1439   */\n      tag_40\n      jump\t// in\n    tag_62:\n        /* \"#utility.yul\":1236:1446   */\n      swap3\n      swap2\n      pop\n      pop\n      jump\t// out\n        /* \"#utility.yul\":1452:1570   */\n    tag_41:\n        /* \"#utility.yul\":1539:1563   */\n      tag_64\n        /* \"#utility.yul\":1557:1562   */\n      dup2\n        /* \"#utility.yul\":1539:1563   */\n      tag_36\n      jump\t// in\n    tag_64:\n        /* \"#utility.yul\":1534:1537   */\n      dup3\n        /* \"#utility.yul\":1527:1564   */\n      mstore\n        /* \"#utility.yul\":1452:1570   */\n      pop\n      pop\n      jump\t// out\n        /* \"#utility.yul\":1576:1798   */\n    tag_15:\n        /* \"#utility.yul\":1669:1673   */\n      0x00\n        /* \"#utility.yul\":1707:1709   */\n      0x20\n        /* \"#utility.yul\":1696:1705   */\n      dup3\n        /* \"#utility.yul\":1692:1710   */\n      add\n        /* \"#utility.yul\":1684:1710   */\n      swap1\n      pop\n        /* \"#utility.yul\":1720:1791   */\n      tag_66\n        /* \"#utility.yul\":1788:1789   */\n      0x00\n        /* \"#utility.yul\":1777:1786   */\n      dup4\n        /* \"#utility.yul\":1773:1790   */\n      add\n        /* \"#utility.yul\":1764:1770   */\n      dup5\n        /* \"#utility.yul\":1720:1791   */\n      tag_41\n      jump\t// in\n    tag_66:\n        /* \"#utility.yul\":1576:1798   */\n      swap3\n      swap2\n      pop\n      pop\n      jump\t// out\n        /* \"#utility.yul\":1804:1984   */\n    tag_42:\n        /* \"#utility.yul\":1852:1929   */\n      0x4e487b7100000000000000000000000000000000000000000000000000000000\n        /* \"#utility.yul\":1849:1850   */\n      0x00\n        /* \"#utility.yul\":1842:1930   */\n      mstore\n        /* \"#utility.yul\":1949:1953   */\n      0x12\n        /* \"#utility.yul\":1946:1947   */\n      0x04\n        /* \"#utility.yul\":1939:1954   */\n      mstore\n        /* \"#utility.yul\":1973:1977   */\n      0x24\n        /* \"#utility.yul\":1970:1971   */\n      0x00\n        /* \"#utility.yul\":1963:1978   */\n      revert\n        /* \"#utility.yul\":1990:2166   */\n    tag_22:\n        /* \"#utility.yul\":2022:2023   */\n      0x00\n        /* \"#utility.yul\":2039:2059   */\n      tag_69\n        /* \"#utility.yul\":2057:2058   */\n      dup3\n        /* \"#utility.yul\":2039:2059   */\n      tag_36\n      jump\t// in\n    tag_69:\n        /* \"#utility.yul\":2034:2059   */\n      swap2\n      pop\n        /* \"#utility.yul\":2073:2093   */\n      tag_70\n        /* \"#utility.yul\":2091:2092   */\n      dup4\n        /* \"#utility.yul\":2073:2093   */\n      tag_36\n      jump\t// in\n    tag_70:\n        /* \"#utility.yul\":2068:2093   */\n      swap3\n      pop\n        /* \"#utility.yul\":2112:2113   */\n      dup3\n        /* \"#utility.yul\":2102:2137   */\n      tag_71\n      jumpi\n        /* \"#utility.yul\":2117:2135   */\n      tag_72\n      tag_42\n      jump\t// in\n    tag_72:\n        /* \"#utility.yul\":2102:2137   */\n    tag_71:\n        /* \"#utility.yul\":2158:2159   */\n      dup3\n        /* \"#utility.yul\":2155:2156   */\n      dup3\n        /* \"#utility.yul\":2151:2160   */\n      mod\n        /* \"#utility.yul\":2146:2160   */\n      swap1\n      pop\n        /* \"#utility.yul\":1990:2166   */\n      swap3\n      swap2\n      pop\n      pop\n      jump\t// out\n        /* \"#utility.yul\":2172:2352   */\n    tag_43:\n        /* \"#utility.yul\":2220:2297   */\n      0x4e487b7100000000000000000000000000000000000000000000000000000000\n        /* \"#utility.yul\":2217:2218   */\n      0x00\n        /* \"#utility.yul\":2210:2298   */\n      mstore\n        /* \"#utility.yul\":2317:2321   */\n      0x11\n        /* \"#utility.yul\":2314:2315   */\n      0x04\n        /* \"#utility.yul\":2307:2322   */\n      mstore\n        /* \"#utility.yul\":2341:2345   */\n      0x24\n        /* \"#utility.yul\":2338:2339   */\n      0x00\n        /* \"#utility.yul\":2331:2346   */\n      revert\n        /* \"#utility.yul\":2358:2591   */\n    tag_30:\n        /* \"#utility.yul\":2397:2400   */\n      0x00\n        /* \"#utility.yul\":2420:2444   */\n      tag_75\n        /* \"#utility.yul\":2438:2443   */\n      dup3\n        /* \"#utility.yul\":2420:2444   */\n      tag_36\n      jump\t// in\n    tag_75:\n        /* \"#utility.yul\":2411:2444   */\n      swap2\n      pop\n        /* \"#utility.yul\":2466:2532   */\n      0xffffffffffffffffffffffffffffffffffffffffffffffffffffffffffffffff\n        /* \"#utility.yul\":2459:2464   */\n      dup3\n        /* \"#utility.yul\":2456:2533   */\n      sub\n        /* \"#utility.yul\":2453:2556   */\n      tag_76\n      jumpi\n        /* \"#utility.yul\":2536:2554   */\n      tag_77\n      tag_43\n      jump\t// in\n    tag_77:\n        /* \"#utility.yul\":2453:2556   */\n    tag_76:\n        /* \"#utility.yul\":2583:2584   */\n      0x01\n        /* \"#utility.yul\":2576:2581   */\n      dup3\n        /* \"#utility.yul\":2572:2585   */\n      add\n        /* \"#utility.yul\":2565:2585   */\n      swap1\n      pop\n        /* \"#utility.yul\":2358:2591   */\n      swap2\n      swap1\n      pop\n      jump\t// out\n\n    auxdata: 0xa26469706673582212208b79badcff7f162b13b67d746ca56ae07254ef8a92a6492fcb6a97799881539b64736f6c63430008120033\n}\n",
				"bytecode": {
					"linkReferences": {},
					"object": "6080604052604051806101400160405280600160ff168152602001600260ff168152602001600360ff168152602001600460ff168152602001600560ff168152602001600660ff168152602001600760ff168152602001600860ff168152602001600960ff168152602001600a60ff16815250600090600a610082929190610095565b5034801561008f57600080fd5b50610104565b8280548282559060005260206000209081019282156100d6579160200282015b828111156100d5578251829060ff169055916020019190600101906100b5565b5b5090506100e391906100e7565b5090565b5b808211156101005760008160009055506001016100e8565b5090565b610314806101136000396000f3fe608060405234801561001057600080fd5b50600436106100415760003560e01c80632a2e132014610046578063628ffaa914610076578063fd1ee54c14610094575b600080fd5b610060600480360381019061005b919061017a565b6100c4565b60405161006d91906101c2565b60405180910390f35b61007e6100ec565b60405161008b91906101ec565b60405180910390f35b6100ae60048036038101906100a9919061017a565b61011b565b6040516100bb91906101ec565b60405180910390f35b6000806002836100d49190610236565b036100e257600190506100e7565b600090505b919050565b6000806000905060005b60008054905081101561011657808061010e90610296565b9150506100f6565b505090565b6000818154811061012b57600080fd5b906000526020600020016000915090505481565b600080fd5b6000819050919050565b61015781610144565b811461016257600080fd5b50565b6000813590506101748161014e565b92915050565b6000602082840312156101905761018f61013f565b5b600061019e84828501610165565b91505092915050565b60008115159050919050565b6101bc816101a7565b82525050565b60006020820190506101d760008301846101b3565b92915050565b6101e681610144565b82525050565b600060208201905061020160008301846101dd565b92915050565b7f4e487b7100000000000000000000000000000000000000000000000000000000600052601260045260246000fd5b600061024182610144565b915061024c83610144565b92508261025c5761025b610207565b5b828206905092915050565b7f4e487b7100000000000000000000000000000000000000000000000000000000600052601160045260246000fd5b60006102a182610144565b91507fffffffffffffffffffffffffffffffffffffffffffffffffffffffffffffffff82036102d3576102d2610267565b5b60018201905091905056fea26469706673582212208b79badcff7f162b13b67d746ca56ae07254ef8a92a6492fcb6a97799881539b64736f6c63430008120033",
					"opcodes": "PUSH1 0x80 PUSH1 0x40 MSTORE PUSH1 0x40 MLOAD DUP1 PUSH2 0x140 ADD PUSH1 0x40 MSTORE DUP1 PUSH1 0x1 PUSH1 0xFF AND DUP2 MSTORE PUSH1 0x20 ADD PUSH1 0x2 PUSH1 0xFF AND DUP2 MSTORE PUSH1 0x20 ADD PUSH1 0x3 PUSH1 0xFF AND DUP2 MSTORE PUSH1 0x20 ADD PUSH1 0x4 PUSH1 0xFF AND DUP2 MSTORE PUSH1 0x20 ADD PUSH1 0x5 PUSH1 0xFF AND DUP2 MSTORE PUSH1 0x20 ADD PUSH1 0x6 PUSH1 0xFF AND DUP2 MSTORE PUSH1 0x20 ADD PUSH1 0x7 PUSH1 0xFF AND DUP2 MSTORE PUSH1 0x20 ADD PUSH1 0x8 PUSH1 0xFF AND DUP2 MSTORE PUSH1 0x20 ADD PUSH1 0x9 PUSH1 0xFF AND DUP2 MSTORE PUSH1 0x20 ADD PUSH1 0xA PUSH1 0xFF AND DUP2 MSTORE POP PUSH1 0x0 SWAP1 PUSH1 0xA PUSH2 0x82 SWAP3 SWAP2 SWAP1 PUSH2 0x95 JUMP JUMPDEST POP CALLVALUE DUP1 ISZERO PUSH2 0x8F JUMPI PUSH1 0x0 DUP1 REVERT JUMPDEST POP PUSH2 0x104 JUMP JUMPDEST DUP3 DUP1 SLOAD DUP3 DUP3 SSTORE SWAP1 PUSH1 0x0 MSTORE PUSH1 0x20 PUSH1 0x0 KECCAK256 SWAP1 DUP2 ADD SWAP3 DUP3 ISZERO PUSH2 0xD6 JUMPI SWAP2 PUSH1 0x20 MUL DUP3 ADD JUMPDEST DUP3 DUP2 GT ISZERO PUSH2 0xD5 JUMPI DUP3 MLOAD DUP3 SWAP1 PUSH1 0xFF AND SWAP1 SSTORE SWAP2 PUSH1 0x20 ADD SWAP2 SWAP1 PUSH1 0x1 ADD SWAP1 PUSH2 0xB5 JUMP JUMPDEST JUMPDEST POP SWAP1 POP PUSH2 0xE3 SWAP2 SWAP1 PUSH2 0xE7 JUMP JUMPDEST POP SWAP1 JUMP JUMPDEST JUMPDEST DUP1 DUP3 GT ISZERO PUSH2 0x100 JUMPI PUSH1 0x0 DUP2 PUSH1 0x0 SWAP1 SSTORE POP PUSH1 0x1 ADD PUSH2 0xE8 JUMP JUMPDEST POP SWAP1 JUMP JUMPDEST PUSH2 0x314 DUP1 PUSH2 0x113 PUSH1 0x0 CODECOPY PUSH1 0x0 RETURN INVALID PUSH1 0x80 PUSH1 0x40 MSTORE CALLVALUE DUP1 ISZERO PUSH2 0x10 JUMPI PUSH1 0x0 DUP1 REVERT JUMPDEST POP PUSH1 0x4 CALLDATASIZE LT PUSH2 0x41 JUMPI PUSH1 0x0 CALLDATALOAD PUSH1 0xE0 SHR DUP1 PUSH4 0x2A2E1320 EQ PUSH2 0x46 JUMPI DUP1 PUSH4 0x628FFAA9 EQ PUSH2 0x76 JUMPI DUP1 PUSH4 0xFD1EE54C EQ PUSH2 0x94 JUMPI JUMPDEST PUSH1 0x0 DUP1 REVERT JUMPDEST PUSH2 0x60 PUSH1 0x4 DUP1 CALLDATASIZE SUB DUP2 ADD SWAP1 PUSH2 0x5B SWAP2 SWAP1 PUSH2 0x17A JUMP JUMPDEST PUSH2 0xC4 JUMP JUMPDEST PUSH1 0x40 MLOAD PUSH2 0x6D SWAP2 SWAP1 PUSH2 0x1C2 JUMP JUMPDEST PUSH1 0x40 MLOAD DUP1 SWAP2 SUB SWAP1 RETURN JUMPDEST PUSH2 0x7E PUSH2 0xEC JUMP JUMPDEST PUSH1 0x40 MLOAD PUSH2 0x8B SWAP2 SWAP1 PUSH2 0x1EC JUMP JUMPDEST PUSH1 0x40 MLOAD DUP1 SWAP2 SUB SWAP1 RETURN JUMPDEST PUSH2 0xAE PUSH1 0x4 DUP1 CALLDATASIZE SUB DUP2 ADD SWAP1 PUSH2 0xA9 SWAP2 SWAP1 PUSH2 0x17A JUMP JUMPDEST PUSH2 0x11B JUMP JUMPDEST PUSH1 0x40 MLOAD PUSH2 0xBB SWAP2 SWAP1 PUSH2 0x1EC JUMP JUMPDEST PUSH1 0x40 MLOAD DUP1 SWAP2 SUB SWAP1 RETURN JUMPDEST PUSH1 0x0 DUP1 PUSH1 0x2 DUP4 PUSH2 0xD4 SWAP2 SWAP1 PUSH2 0x236 JUMP JUMPDEST SUB PUSH2 0xE2 JUMPI PUSH1 0x1 SWAP1 POP PUSH2 0xE7 JUMP JUMPDEST PUSH1 0x0 SWAP1 POP JUMPDEST SWAP2 SWAP1 POP JUMP JUMPDEST PUSH1 0x0 DUP1 PUSH1 0x0 SWAP1 POP PUSH1 0x0 JUMPDEST PUSH1 0x0 DUP1 SLOAD SWAP1 POP DUP2 LT ISZERO PUSH2 0x116 JUMPI DUP1 DUP1 PUSH2 0x10E SWAP1 PUSH2 0x296 JUMP JUMPDEST SWAP2 POP POP PUSH2 0xF6 JUMP JUMPDEST POP POP SWAP1 JUMP JUMPDEST PUSH1 0x0 DUP2 DUP2 SLOAD DUP2 LT PUSH2 0x12B JUMPI PUSH1 0x0 DUP1 REVERT JUMPDEST SWAP1 PUSH1 0x0 MSTORE PUSH1 0x20 PUSH1 0x0 KECCAK256 ADD PUSH1 0x0 SWAP2 POP SWAP1 POP SLOAD DUP2 JUMP JUMPDEST PUSH1 0x0 DUP1 REVERT JUMPDEST PUSH1 0x0 DUP2 SWAP1 POP SWAP2 SWAP1 POP JUMP JUMPDEST PUSH2 0x157 DUP2 PUSH2 0x144 JUMP JUMPDEST DUP2 EQ PUSH2 0x162 JUMPI PUSH1 0x0 DUP1 REVERT JUMPDEST POP JUMP JUMPDEST PUSH1 0x0 DUP2 CALLDATALOAD SWAP1 POP PUSH2 0x174 DUP2 PUSH2 0x14E JUMP JUMPDEST SWAP3 SWAP2 POP POP JUMP JUMPDEST PUSH1 0x0 PUSH1 0x20 DUP3 DUP5 SUB SLT ISZERO PUSH2 0x190 JUMPI PUSH2 0x18F PUSH2 0x13F JUMP JUMPDEST JUMPDEST PUSH1 0x0 PUSH2 0x19E DUP5 DUP3 DUP6 ADD PUSH2 0x165 JUMP JUMPDEST SWAP2 POP POP SWAP3 SWAP2 POP POP JUMP JUMPDEST PUSH1 0x0 DUP2 ISZERO ISZERO SWAP1 POP SWAP2 SWAP1 POP JUMP JUMPDEST PUSH2 0x1BC DUP2 PUSH2 0x1A7 JUMP JUMPDEST DUP3 MSTORE POP POP JUMP JUMPDEST PUSH1 0x0 PUSH1 0x20 DUP3 ADD SWAP1 POP PUSH2 0x1D7 PUSH1 0x0 DUP4 ADD DUP5 PUSH2 0x1B3 JUMP JUMPDEST SWAP3 SWAP2 POP POP JUMP JUMPDEST PUSH2 0x1E6 DUP2 PUSH2 0x144 JUMP JUMPDEST DUP3 MSTORE POP POP JUMP JUMPDEST PUSH1 0x0 PUSH1 0x20 DUP3 ADD SWAP1 POP PUSH2 0x201 PUSH1 0x0 DUP4 ADD DUP5 PUSH2 0x1DD JUMP JUMPDEST SWAP3 SWAP2 POP POP JUMP JUMPDEST PUSH32 0x4E487B7100000000000000000000000000000000000000000000000000000000 PUSH1 0x0 MSTORE PUSH1 0x12 PUSH1 0x4 MSTORE PUSH1 0x24 PUSH1 0x0 REVERT JUMPDEST PUSH1 0x0 PUSH2 0x241 DUP3 PUSH2 0x144 JUMP JUMPDEST SWAP2 POP PUSH2 0x24C DUP4 PUSH2 0x144 JUMP JUMPDEST SWAP3 POP DUP3 PUSH2 0x25C JUMPI PUSH2 0x25B PUSH2 0x207 JUMP JUMPDEST JUMPDEST DUP3 DUP3 MOD SWAP1 POP SWAP3 SWAP2 POP POP JUMP JUMPDEST PUSH32 0x4E487B7100000000000000000000000000000000000000000000000000000000 PUSH1 0x0 MSTORE PUSH1 0x11 PUSH1 0x4 MSTORE PUSH1 0x24 PUSH1 0x0 REVERT JUMPDEST PUSH1 0x0 PUSH2 0x2A1 DUP3 PUSH2 0x144 JUMP JUMPDEST SWAP2 POP PUSH32 0xFFFFFFFFFFFFFFFFFFFFFFFFFFFFFFFFFFFFFFFFFFFFFFFFFFFFFFFFFFFFFFFF DUP3 SUB PUSH2 0x2D3 JUMPI PUSH2 0x2D2 PUSH2 0x267 JUMP JUMPDEST JUMPDEST PUSH1 0x1 DUP3 ADD SWAP1 POP SWAP2 SWAP1 POP JUMP INVALID LOG2 PUSH5 0x6970667358 0x22 SLT KECCAK256 DUP12 PUSH26 0xBADCFF7F162B13B67D746CA56AE07254EF8A92A6492FCB6A9779 SWAP9 DUP2 MSTORE8 SWAP12 PUSH5 0x736F6C6343 STOP ADDMOD SLT STOP CALLER "
				},
				"gasEstimates": {
					"creation": {
						"codeDepositCost": "157600",
						"executionCost": "infinite",
						"totalCost": "infinite"
					},
					"external": {
						"countEvenNums()": "infinite",
						"isEven(uint256)": "infinite",
						"nums(uint256)": "infinite"
					}
				},
				"methodIdentifiers": {
					"countEvenNums()": "628ffaa9",
					"isEven(uint256)": "2a2e1320",
					"nums(uint256)": "fd1ee54c"
				}
			},
			"storageLayout": {
				"storage": [
					{
						"astId": 15,
						"contract": "contracts/Loops&Conditions.sol:LoopsAndConditions",
						"label": "nums",
						"offset": 0,
						"slot": "0",
						"type": "t_array(t_uint256)dyn_storage"
					}
				],
				"types": {
					"t_array(t_uint256)dyn_storage": {
						"base": "t_uint256",
						"encoding": "dynamic_array",
						"label": "uint256[]",
						"numberOfBytes": "32"
					},
					"t_uint256": {
						"encoding": "inplace",
						"label": "uint256",
						"numberOfBytes": "32"
					}
				}
			},
			"userdoc": {
				"kind": "user",
				"methods": {},
				"version": 1
			}
		}
	}
}