{
	"contracts/6-Transfer_Tokens/tokens.sol": {
		"TokenTransfer": {
			"abi": [
				{
					"inputs": [
						{
							"internalType": "address",
							"name": "_tokenAddress",
							"type": "address"
						}
					],
					"stateMutability": "nonpayable",
					"type": "constructor"
				},
				{
					"inputs": [
						{
							"internalType": "address",
							"name": "_account",
							"type": "address"
						}
					],
					"name": "getBalance",
					"outputs": [
						{
							"internalType": "uint256",
							"name": "",
							"type": "uint256"
						}
					],
					"stateMutability": "view",
					"type": "function"
				},
				{
					"inputs": [],
					"name": "token",
					"outputs": [
						{
							"internalType": "address",
							"name": "",
							"type": "address"
						}
					],
					"stateMutability": "view",
					"type": "function"
				},
				{
					"inputs": [
						{
							"internalType": "address",
							"name": "_from",
							"type": "address"
						},
						{
							"internalType": "address",
							"name": "_to",
							"type": "address"
						},
						{
							"internalType": "uint256",
							"name": "_amount",
							"type": "uint256"
						}
					],
					"name": "transfer",
					"outputs": [
						{
							"internalType": "bool",
							"name": "",
							"type": "bool"
						}
					],
					"stateMutability": "payable",
					"type": "function"
				}
			],
			"devdoc": {
				"kind": "dev",
				"methods": {},
				"version": 1
			},
			"evm": {
				"assembly": "    /* \"contracts/6-Transfer_Tokens/tokens.sol\":56:1112  contract TokenTransfer {... */\n  mstore(0x40, 0x80)\n    /* \"contracts/6-Transfer_Tokens/tokens.sol\":116:189  constructor(address _tokenAddress) {... */\n  callvalue\n  dup1\n  iszero\n  tag_1\n  jumpi\n  0x00\n  dup1\n  revert\ntag_1:\n  pop\n  mload(0x40)\n  sub(codesize, bytecodeSize)\n  dup1\n  bytecodeSize\n  dup4\n  codecopy\n  dup2\n  dup2\n  add\n  0x40\n  mstore\n  dup2\n  add\n  swap1\n  tag_2\n  swap2\n  swap1\n  tag_3\n  jump\t// in\ntag_2:\n    /* \"contracts/6-Transfer_Tokens/tokens.sol\":169:182  _tokenAddress */\n  dup1\n    /* \"contracts/6-Transfer_Tokens/tokens.sol\":161:166  token */\n  0x00\n  dup1\n    /* \"contracts/6-Transfer_Tokens/tokens.sol\":161:182  token = _tokenAddress */\n  0x0100\n  exp\n  dup2\n  sload\n  dup2\n  0xffffffffffffffffffffffffffffffffffffffff\n  mul\n  not\n  and\n  swap1\n  dup4\n  0xffffffffffffffffffffffffffffffffffffffff\n  and\n  mul\n  or\n  swap1\n  sstore\n  pop\n    /* \"contracts/6-Transfer_Tokens/tokens.sol\":116:189  constructor(address _tokenAddress) {... */\n  pop\n    /* \"contracts/6-Transfer_Tokens/tokens.sol\":56:1112  contract TokenTransfer {... */\n  jump(tag_6)\n    /* \"#utility.yul\":88:205   */\ntag_8:\n    /* \"#utility.yul\":197:198   */\n  0x00\n    /* \"#utility.yul\":194:195   */\n  dup1\n    /* \"#utility.yul\":187:199   */\n  revert\n    /* \"#utility.yul\":334:460   */\ntag_10:\n    /* \"#utility.yul\":371:378   */\n  0x00\n    /* \"#utility.yul\":411:453   */\n  0xffffffffffffffffffffffffffffffffffffffff\n    /* \"#utility.yul\":404:409   */\n  dup3\n    /* \"#utility.yul\":400:454   */\n  and\n    /* \"#utility.yul\":389:454   */\n  swap1\n  pop\n    /* \"#utility.yul\":334:460   */\n  swap2\n  swap1\n  pop\n  jump\t// out\n    /* \"#utility.yul\":466:562   */\ntag_11:\n    /* \"#utility.yul\":503:510   */\n  0x00\n    /* \"#utility.yul\":532:556   */\n  tag_20\n    /* \"#utility.yul\":550:555   */\n  dup3\n    /* \"#utility.yul\":532:556   */\n  tag_10\n  jump\t// in\ntag_20:\n    /* \"#utility.yul\":521:556   */\n  swap1\n  pop\n    /* \"#utility.yul\":466:562   */\n  swap2\n  swap1\n  pop\n  jump\t// out\n    /* \"#utility.yul\":568:690   */\ntag_12:\n    /* \"#utility.yul\":641:665   */\n  tag_22\n    /* \"#utility.yul\":659:664   */\n  dup2\n    /* \"#utility.yul\":641:665   */\n  tag_11\n  jump\t// in\ntag_22:\n    /* \"#utility.yul\":634:639   */\n  dup2\n    /* \"#utility.yul\":631:666   */\n  eq\n    /* \"#utility.yul\":621:684   */\n  tag_23\n  jumpi\n    /* \"#utility.yul\":680:681   */\n  0x00\n    /* \"#utility.yul\":677:678   */\n  dup1\n    /* \"#utility.yul\":670:682   */\n  revert\n    /* \"#utility.yul\":621:684   */\ntag_23:\n    /* \"#utility.yul\":568:690   */\n  pop\n  jump\t// out\n    /* \"#utility.yul\":696:839   */\ntag_13:\n    /* \"#utility.yul\":753:758   */\n  0x00\n    /* \"#utility.yul\":784:790   */\n  dup2\n    /* \"#utility.yul\":778:791   */\n  mload\n    /* \"#utility.yul\":769:791   */\n  swap1\n  pop\n    /* \"#utility.yul\":800:833   */\n  tag_25\n    /* \"#utility.yul\":827:832   */\n  dup2\n    /* \"#utility.yul\":800:833   */\n  tag_12\n  jump\t// in\ntag_25:\n    /* \"#utility.yul\":696:839   */\n  swap3\n  swap2\n  pop\n  pop\n  jump\t// out\n    /* \"#utility.yul\":845:1196   */\ntag_3:\n    /* \"#utility.yul\":915:921   */\n  0x00\n    /* \"#utility.yul\":964:966   */\n  0x20\n    /* \"#utility.yul\":952:961   */\n  dup3\n    /* \"#utility.yul\":943:950   */\n  dup5\n    /* \"#utility.yul\":939:962   */\n  sub\n    /* \"#utility.yul\":935:967   */\n  slt\n    /* \"#utility.yul\":932:1051   */\n  iszero\n  tag_27\n  jumpi\n    /* \"#utility.yul\":970:1049   */\n  tag_28\n  tag_8\n  jump\t// in\ntag_28:\n    /* \"#utility.yul\":932:1051   */\ntag_27:\n    /* \"#utility.yul\":1090:1091   */\n  0x00\n    /* \"#utility.yul\":1115:1179   */\n  tag_29\n    /* \"#utility.yul\":1171:1178   */\n  dup5\n    /* \"#utility.yul\":1162:1168   */\n  dup3\n    /* \"#utility.yul\":1151:1160   */\n  dup6\n    /* \"#utility.yul\":1147:1169   */\n  add\n    /* \"#utility.yul\":1115:1179   */\n  tag_13\n  jump\t// in\ntag_29:\n    /* \"#utility.yul\":1105:1179   */\n  swap2\n  pop\n    /* \"#utility.yul\":1061:1189   */\n  pop\n    /* \"#utility.yul\":845:1196   */\n  swap3\n  swap2\n  pop\n  pop\n  jump\t// out\n    /* \"contracts/6-Transfer_Tokens/tokens.sol\":56:1112  contract TokenTransfer {... */\ntag_6:\n  dataSize(sub_0)\n  dup1\n  dataOffset(sub_0)\n  0x00\n  codecopy\n  0x00\n  return\nstop\n\nsub_0: assembly {\n        /* \"contracts/6-Transfer_Tokens/tokens.sol\":56:1112  contract TokenTransfer {... */\n      mstore(0x40, 0x80)\n      jumpi(tag_1, lt(calldatasize, 0x04))\n      shr(0xe0, calldataload(0x00))\n      dup1\n      0xbeabacc8\n      eq\n      tag_2\n      jumpi\n      dup1\n      0xf8b2cb4f\n      eq\n      tag_3\n      jumpi\n      dup1\n      0xfc0c546a\n      eq\n      tag_4\n      jumpi\n    tag_1:\n      0x00\n      dup1\n      revert\n        /* \"contracts/6-Transfer_Tokens/tokens.sol\":195:729  function transfer(address _from, address _to, uint256 _amount) public payable returns (bool) {... */\n    tag_2:\n      tag_5\n      0x04\n      dup1\n      calldatasize\n      sub\n      dup2\n      add\n      swap1\n      tag_6\n      swap2\n      swap1\n      tag_7\n      jump\t// in\n    tag_6:\n      tag_8\n      jump\t// in\n    tag_5:\n      mload(0x40)\n      tag_9\n      swap2\n      swap1\n      tag_10\n      jump\t// in\n    tag_9:\n      mload(0x40)\n      dup1\n      swap2\n      sub\n      swap1\n      return\n        /* \"contracts/6-Transfer_Tokens/tokens.sol\":738:1110  function getBalance(address _account) public view returns (uint256) {... */\n    tag_3:\n      callvalue\n      dup1\n      iszero\n      tag_11\n      jumpi\n      0x00\n      dup1\n      revert\n    tag_11:\n      pop\n      tag_12\n      0x04\n      dup1\n      calldatasize\n      sub\n      dup2\n      add\n      swap1\n      tag_13\n      swap2\n      swap1\n      tag_14\n      jump\t// in\n    tag_13:\n      tag_15\n      jump\t// in\n    tag_12:\n      mload(0x40)\n      tag_16\n      swap2\n      swap1\n      tag_17\n      jump\t// in\n    tag_16:\n      mload(0x40)\n      dup1\n      swap2\n      sub\n      swap1\n      return\n        /* \"contracts/6-Transfer_Tokens/tokens.sol\":85:105  address public token */\n    tag_4:\n      callvalue\n      dup1\n      iszero\n      tag_18\n      jumpi\n      0x00\n      dup1\n      revert\n    tag_18:\n      pop\n      tag_19\n      tag_20\n      jump\t// in\n    tag_19:\n      mload(0x40)\n      tag_21\n      swap2\n      swap1\n      tag_22\n      jump\t// in\n    tag_21:\n      mload(0x40)\n      dup1\n      swap2\n      sub\n      swap1\n      return\n        /* \"contracts/6-Transfer_Tokens/tokens.sol\":195:729  function transfer(address _from, address _to, uint256 _amount) public payable returns (bool) {... */\n    tag_8:\n        /* \"contracts/6-Transfer_Tokens/tokens.sol\":282:286  bool */\n      0x00\n        /* \"contracts/6-Transfer_Tokens/tokens.sol\":323:324  0 */\n      dup1\n        /* \"contracts/6-Transfer_Tokens/tokens.sol\":306:325  _from != address(0) */\n      0xffffffffffffffffffffffffffffffffffffffff\n      and\n        /* \"contracts/6-Transfer_Tokens/tokens.sol\":306:311  _from */\n      dup5\n        /* \"contracts/6-Transfer_Tokens/tokens.sol\":306:325  _from != address(0) */\n      0xffffffffffffffffffffffffffffffffffffffff\n      and\n      sub\n        /* \"contracts/6-Transfer_Tokens/tokens.sol\":298:352  require(_from != address(0), \"Invalid sender address\") */\n      tag_24\n      jumpi\n      mload(0x40)\n      0x08c379a000000000000000000000000000000000000000000000000000000000\n      dup2\n      mstore\n      0x04\n      add\n      tag_25\n      swap1\n      tag_26\n      jump\t// in\n    tag_25:\n      mload(0x40)\n      dup1\n      swap2\n      sub\n      swap1\n      revert\n    tag_24:\n        /* \"contracts/6-Transfer_Tokens/tokens.sol\":385:386  0 */\n      0x00\n        /* \"contracts/6-Transfer_Tokens/tokens.sol\":370:387  _to != address(0) */\n      0xffffffffffffffffffffffffffffffffffffffff\n      and\n        /* \"contracts/6-Transfer_Tokens/tokens.sol\":370:373  _to */\n      dup4\n        /* \"contracts/6-Transfer_Tokens/tokens.sol\":370:387  _to != address(0) */\n      0xffffffffffffffffffffffffffffffffffffffff\n      and\n      sub\n        /* \"contracts/6-Transfer_Tokens/tokens.sol\":362:417  require(_to != address(0), \"Invalid recipient address\") */\n      tag_27\n      jumpi\n      mload(0x40)\n      0x08c379a000000000000000000000000000000000000000000000000000000000\n      dup2\n      mstore\n      0x04\n      add\n      tag_28\n      swap1\n      tag_29\n      jump\t// in\n    tag_28:\n      mload(0x40)\n      dup1\n      swap2\n      sub\n      swap1\n      revert\n    tag_27:\n        /* \"contracts/6-Transfer_Tokens/tokens.sol\":445:446  0 */\n      0x00\n        /* \"contracts/6-Transfer_Tokens/tokens.sol\":435:442  _amount */\n      dup3\n        /* \"contracts/6-Transfer_Tokens/tokens.sol\":435:446  _amount > 0 */\n      gt\n        /* \"contracts/6-Transfer_Tokens/tokens.sol\":427:474  require(_amount > 0, \"Invalid transfer amount\") */\n      tag_30\n      jumpi\n      mload(0x40)\n      0x08c379a000000000000000000000000000000000000000000000000000000000\n      dup2\n      mstore\n      0x04\n      add\n      tag_31\n      swap1\n      tag_32\n      jump\t// in\n    tag_31:\n      mload(0x40)\n      dup1\n      swap2\n      sub\n      swap1\n      revert\n    tag_30:\n        /* \"contracts/6-Transfer_Tokens/tokens.sol\":494:506  bool success */\n      0x00\n        /* \"contracts/6-Transfer_Tokens/tokens.sol\":508:525  bytes memory data */\n      dup1\n        /* \"contracts/6-Transfer_Tokens/tokens.sol\":529:534  token */\n      0x00\n      dup1\n      sload\n      swap1\n      0x0100\n      exp\n      swap1\n      div\n      0xffffffffffffffffffffffffffffffffffffffff\n      and\n        /* \"contracts/6-Transfer_Tokens/tokens.sol\":529:539  token.call */\n      0xffffffffffffffffffffffffffffffffffffffff\n      and\n        /* \"contracts/6-Transfer_Tokens/tokens.sol\":618:623  _from */\n      dup7\n        /* \"contracts/6-Transfer_Tokens/tokens.sol\":625:628  _to */\n      dup7\n        /* \"contracts/6-Transfer_Tokens/tokens.sol\":630:637  _amount */\n      dup7\n        /* \"contracts/6-Transfer_Tokens/tokens.sol\":553:638  abi.encodeWithSignature(\"transferFrom(address,address,uint256)\", _from, _to, _amount) */\n      add(0x24, mload(0x40))\n      tag_33\n      swap4\n      swap3\n      swap2\n      swap1\n      tag_34\n      jump\t// in\n    tag_33:\n      mload(0x40)\n      0x20\n      dup2\n      dup4\n      sub\n      sub\n      dup2\n      mstore\n      swap1\n      0x40\n      mstore\n      and(not(0xffffffffffffffffffffffffffffffffffffffffffffffffffffffff), 0x23b872dd00000000000000000000000000000000000000000000000000000000)\n      0x20\n      dup3\n      add\n      dup1\n      mload\n      0xffffffffffffffffffffffffffffffffffffffffffffffffffffffff\n      dup4\n      dup2\n      dup4\n      and\n      or\n      dup4\n      mstore\n      pop\n      pop\n      pop\n      pop\n        /* \"contracts/6-Transfer_Tokens/tokens.sol\":529:648  token.call(... */\n      mload(0x40)\n      tag_35\n      swap2\n      swap1\n      tag_36\n      jump\t// in\n    tag_35:\n      0x00\n      mload(0x40)\n      dup1\n      dup4\n      sub\n      dup2\n      0x00\n      dup7\n      gas\n      call\n      swap2\n      pop\n      pop\n      returndatasize\n      dup1\n      0x00\n      dup2\n      eq\n      tag_39\n      jumpi\n      mload(0x40)\n      swap2\n      pop\n      and(add(returndatasize, 0x3f), not(0x1f))\n      dup3\n      add\n      0x40\n      mstore\n      returndatasize\n      dup3\n      mstore\n      returndatasize\n      0x00\n      0x20\n      dup5\n      add\n      returndatacopy\n      jump(tag_38)\n    tag_39:\n      0x60\n      swap2\n      pop\n    tag_38:\n      pop\n        /* \"contracts/6-Transfer_Tokens/tokens.sol\":493:648  (bool success, bytes memory data) = token.call(... */\n      swap2\n      pop\n      swap2\n      pop\n        /* \"contracts/6-Transfer_Tokens/tokens.sol\":667:674  success */\n      dup2\n        /* \"contracts/6-Transfer_Tokens/tokens.sol\":659:700  require(success, \"Token transfer failed\") */\n      tag_40\n      jumpi\n      mload(0x40)\n      0x08c379a000000000000000000000000000000000000000000000000000000000\n      dup2\n      mstore\n      0x04\n      add\n      tag_41\n      swap1\n      tag_42\n      jump\t// in\n    tag_41:\n      mload(0x40)\n      dup1\n      swap2\n      sub\n      swap1\n      revert\n    tag_40:\n        /* \"contracts/6-Transfer_Tokens/tokens.sol\":718:722  true */\n      0x01\n        /* \"contracts/6-Transfer_Tokens/tokens.sol\":711:722  return true */\n      swap3\n      pop\n      pop\n      pop\n        /* \"contracts/6-Transfer_Tokens/tokens.sol\":195:729  function transfer(address _from, address _to, uint256 _amount) public payable returns (bool) {... */\n      swap4\n      swap3\n      pop\n      pop\n      pop\n      jump\t// out\n        /* \"contracts/6-Transfer_Tokens/tokens.sol\":738:1110  function getBalance(address _account) public view returns (uint256) {... */\n    tag_15:\n        /* \"contracts/6-Transfer_Tokens/tokens.sol\":797:804  uint256 */\n      0x00\n        /* \"contracts/6-Transfer_Tokens/tokens.sol\":817:829  bool success */\n      dup1\n        /* \"contracts/6-Transfer_Tokens/tokens.sol\":831:848  bytes memory data */\n      0x00\n        /* \"contracts/6-Transfer_Tokens/tokens.sol\":852:857  token */\n      dup1\n      0x00\n      swap1\n      sload\n      swap1\n      0x0100\n      exp\n      swap1\n      div\n      0xffffffffffffffffffffffffffffffffffffffff\n      and\n        /* \"contracts/6-Transfer_Tokens/tokens.sol\":852:868  token.staticcall */\n      0xffffffffffffffffffffffffffffffffffffffff\n      and\n        /* \"contracts/6-Transfer_Tokens/tokens.sol\":928:936  _account */\n      dup5\n        /* \"contracts/6-Transfer_Tokens/tokens.sol\":882:937  abi.encodeWithSignature(\"balanceOf(address)\", _account) */\n      add(0x24, mload(0x40))\n      tag_44\n      swap2\n      swap1\n      tag_22\n      jump\t// in\n    tag_44:\n      mload(0x40)\n      0x20\n      dup2\n      dup4\n      sub\n      sub\n      dup2\n      mstore\n      swap1\n      0x40\n      mstore\n      and(not(0xffffffffffffffffffffffffffffffffffffffffffffffffffffffff), 0x70a0823100000000000000000000000000000000000000000000000000000000)\n      0x20\n      dup3\n      add\n      dup1\n      mload\n      0xffffffffffffffffffffffffffffffffffffffffffffffffffffffff\n      dup4\n      dup2\n      dup4\n      and\n      or\n      dup4\n      mstore\n      pop\n      pop\n      pop\n      pop\n        /* \"contracts/6-Transfer_Tokens/tokens.sol\":852:947  token.staticcall(... */\n      mload(0x40)\n      tag_45\n      swap2\n      swap1\n      tag_36\n      jump\t// in\n    tag_45:\n      0x00\n      mload(0x40)\n      dup1\n      dup4\n      sub\n      dup2\n      dup6\n      gas\n      staticcall\n      swap2\n      pop\n      pop\n      returndatasize\n      dup1\n      0x00\n      dup2\n      eq\n      tag_48\n      jumpi\n      mload(0x40)\n      swap2\n      pop\n      and(add(returndatasize, 0x3f), not(0x1f))\n      dup3\n      add\n      0x40\n      mstore\n      returndatasize\n      dup3\n      mstore\n      returndatasize\n      0x00\n      0x20\n      dup5\n      add\n      returndatacopy\n      jump(tag_47)\n    tag_48:\n      0x60\n      swap2\n      pop\n    tag_47:\n      pop\n        /* \"contracts/6-Transfer_Tokens/tokens.sol\":816:947  (bool success, bytes memory data) = token.staticcall(... */\n      swap2\n      pop\n      swap2\n      pop\n        /* \"contracts/6-Transfer_Tokens/tokens.sol\":974:981  success */\n      dup2\n        /* \"contracts/6-Transfer_Tokens/tokens.sol\":966:1006  require(success, \"Balance check failed\") */\n      tag_49\n      jumpi\n      mload(0x40)\n      0x08c379a000000000000000000000000000000000000000000000000000000000\n      dup2\n      mstore\n      0x04\n      add\n      tag_50\n      swap1\n      tag_51\n      jump\t// in\n    tag_50:\n      mload(0x40)\n      dup1\n      swap2\n      sub\n      swap1\n      revert\n    tag_49:\n        /* \"contracts/6-Transfer_Tokens/tokens.sol\":1025:1040  uint256 balance */\n      0x00\n        /* \"contracts/6-Transfer_Tokens/tokens.sol\":1054:1058  data */\n      dup2\n        /* \"contracts/6-Transfer_Tokens/tokens.sol\":1043:1070  abi.decode(data, (uint256)) */\n      dup1\n      0x20\n      add\n      swap1\n      mload\n      dup2\n      add\n      swap1\n      tag_52\n      swap2\n      swap1\n      tag_53\n      jump\t// in\n    tag_52:\n        /* \"contracts/6-Transfer_Tokens/tokens.sol\":1025:1070  uint256 balance = abi.decode(data, (uint256)) */\n      swap1\n      pop\n        /* \"contracts/6-Transfer_Tokens/tokens.sol\":1096:1103  balance */\n      dup1\n        /* \"contracts/6-Transfer_Tokens/tokens.sol\":1089:1103  return balance */\n      swap4\n      pop\n      pop\n      pop\n      pop\n        /* \"contracts/6-Transfer_Tokens/tokens.sol\":738:1110  function getBalance(address _account) public view returns (uint256) {... */\n      swap2\n      swap1\n      pop\n      jump\t// out\n        /* \"contracts/6-Transfer_Tokens/tokens.sol\":85:105  address public token */\n    tag_20:\n      0x00\n      dup1\n      sload\n      swap1\n      0x0100\n      exp\n      swap1\n      div\n      0xffffffffffffffffffffffffffffffffffffffff\n      and\n      dup2\n      jump\t// out\n        /* \"#utility.yul\":88:205   */\n    tag_55:\n        /* \"#utility.yul\":197:198   */\n      0x00\n        /* \"#utility.yul\":194:195   */\n      dup1\n        /* \"#utility.yul\":187:199   */\n      revert\n        /* \"#utility.yul\":334:460   */\n    tag_57:\n        /* \"#utility.yul\":371:378   */\n      0x00\n        /* \"#utility.yul\":411:453   */\n      0xffffffffffffffffffffffffffffffffffffffff\n        /* \"#utility.yul\":404:409   */\n      dup3\n        /* \"#utility.yul\":400:454   */\n      and\n        /* \"#utility.yul\":389:454   */\n      swap1\n      pop\n        /* \"#utility.yul\":334:460   */\n      swap2\n      swap1\n      pop\n      jump\t// out\n        /* \"#utility.yul\":466:562   */\n    tag_58:\n        /* \"#utility.yul\":503:510   */\n      0x00\n        /* \"#utility.yul\":532:556   */\n      tag_90\n        /* \"#utility.yul\":550:555   */\n      dup3\n        /* \"#utility.yul\":532:556   */\n      tag_57\n      jump\t// in\n    tag_90:\n        /* \"#utility.yul\":521:556   */\n      swap1\n      pop\n        /* \"#utility.yul\":466:562   */\n      swap2\n      swap1\n      pop\n      jump\t// out\n        /* \"#utility.yul\":568:690   */\n    tag_59:\n        /* \"#utility.yul\":641:665   */\n      tag_92\n        /* \"#utility.yul\":659:664   */\n      dup2\n        /* \"#utility.yul\":641:665   */\n      tag_58\n      jump\t// in\n    tag_92:\n        /* \"#utility.yul\":634:639   */\n      dup2\n        /* \"#utility.yul\":631:666   */\n      eq\n        /* \"#utility.yul\":621:684   */\n      tag_93\n      jumpi\n        /* \"#utility.yul\":680:681   */\n      0x00\n        /* \"#utility.yul\":677:678   */\n      dup1\n        /* \"#utility.yul\":670:682   */\n      revert\n        /* \"#utility.yul\":621:684   */\n    tag_93:\n        /* \"#utility.yul\":568:690   */\n      pop\n      jump\t// out\n        /* \"#utility.yul\":696:835   */\n    tag_60:\n        /* \"#utility.yul\":742:747   */\n      0x00\n        /* \"#utility.yul\":780:786   */\n      dup2\n        /* \"#utility.yul\":767:787   */\n      calldataload\n        /* \"#utility.yul\":758:787   */\n      swap1\n      pop\n        /* \"#utility.yul\":796:829   */\n      tag_95\n        /* \"#utility.yul\":823:828   */\n      dup2\n        /* \"#utility.yul\":796:829   */\n      tag_59\n      jump\t// in\n    tag_95:\n        /* \"#utility.yul\":696:835   */\n      swap3\n      swap2\n      pop\n      pop\n      jump\t// out\n        /* \"#utility.yul\":841:918   */\n    tag_61:\n        /* \"#utility.yul\":878:885   */\n      0x00\n        /* \"#utility.yul\":907:912   */\n      dup2\n        /* \"#utility.yul\":896:912   */\n      swap1\n      pop\n        /* \"#utility.yul\":841:918   */\n      swap2\n      swap1\n      pop\n      jump\t// out\n        /* \"#utility.yul\":924:1046   */\n    tag_62:\n        /* \"#utility.yul\":997:1021   */\n      tag_98\n        /* \"#utility.yul\":1015:1020   */\n      dup2\n        /* \"#utility.yul\":997:1021   */\n      tag_61\n      jump\t// in\n    tag_98:\n        /* \"#utility.yul\":990:995   */\n      dup2\n        /* \"#utility.yul\":987:1022   */\n      eq\n        /* \"#utility.yul\":977:1040   */\n      tag_99\n      jumpi\n        /* \"#utility.yul\":1036:1037   */\n      0x00\n        /* \"#utility.yul\":1033:1034   */\n      dup1\n        /* \"#utility.yul\":1026:1038   */\n      revert\n        /* \"#utility.yul\":977:1040   */\n    tag_99:\n        /* \"#utility.yul\":924:1046   */\n      pop\n      jump\t// out\n        /* \"#utility.yul\":1052:1191   */\n    tag_63:\n        /* \"#utility.yul\":1098:1103   */\n      0x00\n        /* \"#utility.yul\":1136:1142   */\n      dup2\n        /* \"#utility.yul\":1123:1143   */\n      calldataload\n        /* \"#utility.yul\":1114:1143   */\n      swap1\n      pop\n        /* \"#utility.yul\":1152:1185   */\n      tag_101\n        /* \"#utility.yul\":1179:1184   */\n      dup2\n        /* \"#utility.yul\":1152:1185   */\n      tag_62\n      jump\t// in\n    tag_101:\n        /* \"#utility.yul\":1052:1191   */\n      swap3\n      swap2\n      pop\n      pop\n      jump\t// out\n        /* \"#utility.yul\":1197:1816   */\n    tag_7:\n        /* \"#utility.yul\":1274:1280   */\n      0x00\n        /* \"#utility.yul\":1282:1288   */\n      dup1\n        /* \"#utility.yul\":1290:1296   */\n      0x00\n        /* \"#utility.yul\":1339:1341   */\n      0x60\n        /* \"#utility.yul\":1327:1336   */\n      dup5\n        /* \"#utility.yul\":1318:1325   */\n      dup7\n        /* \"#utility.yul\":1314:1337   */\n      sub\n        /* \"#utility.yul\":1310:1342   */\n      slt\n        /* \"#utility.yul\":1307:1426   */\n      iszero\n      tag_103\n      jumpi\n        /* \"#utility.yul\":1345:1424   */\n      tag_104\n      tag_55\n      jump\t// in\n    tag_104:\n        /* \"#utility.yul\":1307:1426   */\n    tag_103:\n        /* \"#utility.yul\":1465:1466   */\n      0x00\n        /* \"#utility.yul\":1490:1543   */\n      tag_105\n        /* \"#utility.yul\":1535:1542   */\n      dup7\n        /* \"#utility.yul\":1526:1532   */\n      dup3\n        /* \"#utility.yul\":1515:1524   */\n      dup8\n        /* \"#utility.yul\":1511:1533   */\n      add\n        /* \"#utility.yul\":1490:1543   */\n      tag_60\n      jump\t// in\n    tag_105:\n        /* \"#utility.yul\":1480:1543   */\n      swap4\n      pop\n        /* \"#utility.yul\":1436:1553   */\n      pop\n        /* \"#utility.yul\":1592:1594   */\n      0x20\n        /* \"#utility.yul\":1618:1671   */\n      tag_106\n        /* \"#utility.yul\":1663:1670   */\n      dup7\n        /* \"#utility.yul\":1654:1660   */\n      dup3\n        /* \"#utility.yul\":1643:1652   */\n      dup8\n        /* \"#utility.yul\":1639:1661   */\n      add\n        /* \"#utility.yul\":1618:1671   */\n      tag_60\n      jump\t// in\n    tag_106:\n        /* \"#utility.yul\":1608:1671   */\n      swap3\n      pop\n        /* \"#utility.yul\":1563:1681   */\n      pop\n        /* \"#utility.yul\":1720:1722   */\n      0x40\n        /* \"#utility.yul\":1746:1799   */\n      tag_107\n        /* \"#utility.yul\":1791:1798   */\n      dup7\n        /* \"#utility.yul\":1782:1788   */\n      dup3\n        /* \"#utility.yul\":1771:1780   */\n      dup8\n        /* \"#utility.yul\":1767:1789   */\n      add\n        /* \"#utility.yul\":1746:1799   */\n      tag_63\n      jump\t// in\n    tag_107:\n        /* \"#utility.yul\":1736:1799   */\n      swap2\n      pop\n        /* \"#utility.yul\":1691:1809   */\n      pop\n        /* \"#utility.yul\":1197:1816   */\n      swap3\n      pop\n      swap3\n      pop\n      swap3\n      jump\t// out\n        /* \"#utility.yul\":1822:1912   */\n    tag_64:\n        /* \"#utility.yul\":1856:1863   */\n      0x00\n        /* \"#utility.yul\":1899:1904   */\n      dup2\n        /* \"#utility.yul\":1892:1905   */\n      iszero\n        /* \"#utility.yul\":1885:1906   */\n      iszero\n        /* \"#utility.yul\":1874:1906   */\n      swap1\n      pop\n        /* \"#utility.yul\":1822:1912   */\n      swap2\n      swap1\n      pop\n      jump\t// out\n        /* \"#utility.yul\":1918:2027   */\n    tag_65:\n        /* \"#utility.yul\":1999:2020   */\n      tag_110\n        /* \"#utility.yul\":2014:2019   */\n      dup2\n        /* \"#utility.yul\":1999:2020   */\n      tag_64\n      jump\t// in\n    tag_110:\n        /* \"#utility.yul\":1994:1997   */\n      dup3\n        /* \"#utility.yul\":1987:2021   */\n      mstore\n        /* \"#utility.yul\":1918:2027   */\n      pop\n      pop\n      jump\t// out\n        /* \"#utility.yul\":2033:2243   */\n    tag_10:\n        /* \"#utility.yul\":2120:2124   */\n      0x00\n        /* \"#utility.yul\":2158:2160   */\n      0x20\n        /* \"#utility.yul\":2147:2156   */\n      dup3\n        /* \"#utility.yul\":2143:2161   */\n      add\n        /* \"#utility.yul\":2135:2161   */\n      swap1\n      pop\n        /* \"#utility.yul\":2171:2236   */\n      tag_112\n        /* \"#utility.yul\":2233:2234   */\n      0x00\n        /* \"#utility.yul\":2222:2231   */\n      dup4\n        /* \"#utility.yul\":2218:2235   */\n      add\n        /* \"#utility.yul\":2209:2215   */\n      dup5\n        /* \"#utility.yul\":2171:2236   */\n      tag_65\n      jump\t// in\n    tag_112:\n        /* \"#utility.yul\":2033:2243   */\n      swap3\n      swap2\n      pop\n      pop\n      jump\t// out\n        /* \"#utility.yul\":2249:2578   */\n    tag_14:\n        /* \"#utility.yul\":2308:2314   */\n      0x00\n        /* \"#utility.yul\":2357:2359   */\n      0x20\n        /* \"#utility.yul\":2345:2354   */\n      dup3\n        /* \"#utility.yul\":2336:2343   */\n      dup5\n        /* \"#utility.yul\":2332:2355   */\n      sub\n        /* \"#utility.yul\":2328:2360   */\n      slt\n        /* \"#utility.yul\":2325:2444   */\n      iszero\n      tag_114\n      jumpi\n        /* \"#utility.yul\":2363:2442   */\n      tag_115\n      tag_55\n      jump\t// in\n    tag_115:\n        /* \"#utility.yul\":2325:2444   */\n    tag_114:\n        /* \"#utility.yul\":2483:2484   */\n      0x00\n        /* \"#utility.yul\":2508:2561   */\n      tag_116\n        /* \"#utility.yul\":2553:2560   */\n      dup5\n        /* \"#utility.yul\":2544:2550   */\n      dup3\n        /* \"#utility.yul\":2533:2542   */\n      dup6\n        /* \"#utility.yul\":2529:2551   */\n      add\n        /* \"#utility.yul\":2508:2561   */\n      tag_60\n      jump\t// in\n    tag_116:\n        /* \"#utility.yul\":2498:2561   */\n      swap2\n      pop\n        /* \"#utility.yul\":2454:2571   */\n      pop\n        /* \"#utility.yul\":2249:2578   */\n      swap3\n      swap2\n      pop\n      pop\n      jump\t// out\n        /* \"#utility.yul\":2584:2702   */\n    tag_66:\n        /* \"#utility.yul\":2671:2695   */\n      tag_118\n        /* \"#utility.yul\":2689:2694   */\n      dup2\n        /* \"#utility.yul\":2671:2695   */\n      tag_61\n      jump\t// in\n    tag_118:\n        /* \"#utility.yul\":2666:2669   */\n      dup3\n        /* \"#utility.yul\":2659:2696   */\n      mstore\n        /* \"#utility.yul\":2584:2702   */\n      pop\n      pop\n      jump\t// out\n        /* \"#utility.yul\":2708:2930   */\n    tag_17:\n        /* \"#utility.yul\":2801:2805   */\n      0x00\n        /* \"#utility.yul\":2839:2841   */\n      0x20\n        /* \"#utility.yul\":2828:2837   */\n      dup3\n        /* \"#utility.yul\":2824:2842   */\n      add\n        /* \"#utility.yul\":2816:2842   */\n      swap1\n      pop\n        /* \"#utility.yul\":2852:2923   */\n      tag_120\n        /* \"#utility.yul\":2920:2921   */\n      0x00\n        /* \"#utility.yul\":2909:2918   */\n      dup4\n        /* \"#utility.yul\":2905:2922   */\n      add\n        /* \"#utility.yul\":2896:2902   */\n      dup5\n        /* \"#utility.yul\":2852:2923   */\n      tag_66\n      jump\t// in\n    tag_120:\n        /* \"#utility.yul\":2708:2930   */\n      swap3\n      swap2\n      pop\n      pop\n      jump\t// out\n        /* \"#utility.yul\":2936:3054   */\n    tag_67:\n        /* \"#utility.yul\":3023:3047   */\n      tag_122\n        /* \"#utility.yul\":3041:3046   */\n      dup2\n        /* \"#utility.yul\":3023:3047   */\n      tag_58\n      jump\t// in\n    tag_122:\n        /* \"#utility.yul\":3018:3021   */\n      dup3\n        /* \"#utility.yul\":3011:3048   */\n      mstore\n        /* \"#utility.yul\":2936:3054   */\n      pop\n      pop\n      jump\t// out\n        /* \"#utility.yul\":3060:3282   */\n    tag_22:\n        /* \"#utility.yul\":3153:3157   */\n      0x00\n        /* \"#utility.yul\":3191:3193   */\n      0x20\n        /* \"#utility.yul\":3180:3189   */\n      dup3\n        /* \"#utility.yul\":3176:3194   */\n      add\n        /* \"#utility.yul\":3168:3194   */\n      swap1\n      pop\n        /* \"#utility.yul\":3204:3275   */\n      tag_124\n        /* \"#utility.yul\":3272:3273   */\n      0x00\n        /* \"#utility.yul\":3261:3270   */\n      dup4\n        /* \"#utility.yul\":3257:3274   */\n      add\n        /* \"#utility.yul\":3248:3254   */\n      dup5\n        /* \"#utility.yul\":3204:3275   */\n      tag_67\n      jump\t// in\n    tag_124:\n        /* \"#utility.yul\":3060:3282   */\n      swap3\n      swap2\n      pop\n      pop\n      jump\t// out\n        /* \"#utility.yul\":3288:3457   */\n    tag_68:\n        /* \"#utility.yul\":3372:3383   */\n      0x00\n        /* \"#utility.yul\":3406:3412   */\n      dup3\n        /* \"#utility.yul\":3401:3404   */\n      dup3\n        /* \"#utility.yul\":3394:3413   */\n      mstore\n        /* \"#utility.yul\":3446:3450   */\n      0x20\n        /* \"#utility.yul\":3441:3444   */\n      dup3\n        /* \"#utility.yul\":3437:3451   */\n      add\n        /* \"#utility.yul\":3422:3451   */\n      swap1\n      pop\n        /* \"#utility.yul\":3288:3457   */\n      swap3\n      swap2\n      pop\n      pop\n      jump\t// out\n        /* \"#utility.yul\":3463:3635   */\n    tag_69:\n        /* \"#utility.yul\":3603:3627   */\n      0x496e76616c69642073656e646572206164647265737300000000000000000000\n        /* \"#utility.yul\":3599:3600   */\n      0x00\n        /* \"#utility.yul\":3591:3597   */\n      dup3\n        /* \"#utility.yul\":3587:3601   */\n      add\n        /* \"#utility.yul\":3580:3628   */\n      mstore\n        /* \"#utility.yul\":3463:3635   */\n      pop\n      jump\t// out\n        /* \"#utility.yul\":3641:4007   */\n    tag_70:\n        /* \"#utility.yul\":3783:3786   */\n      0x00\n        /* \"#utility.yul\":3804:3871   */\n      tag_128\n        /* \"#utility.yul\":3868:3870   */\n      0x16\n        /* \"#utility.yul\":3863:3866   */\n      dup4\n        /* \"#utility.yul\":3804:3871   */\n      tag_68\n      jump\t// in\n    tag_128:\n        /* \"#utility.yul\":3797:3871   */\n      swap2\n      pop\n        /* \"#utility.yul\":3880:3973   */\n      tag_129\n        /* \"#utility.yul\":3969:3972   */\n      dup3\n        /* \"#utility.yul\":3880:3973   */\n      tag_69\n      jump\t// in\n    tag_129:\n        /* \"#utility.yul\":3998:4000   */\n      0x20\n        /* \"#utility.yul\":3993:3996   */\n      dup3\n        /* \"#utility.yul\":3989:4001   */\n      add\n        /* \"#utility.yul\":3982:4001   */\n      swap1\n      pop\n        /* \"#utility.yul\":3641:4007   */\n      swap2\n      swap1\n      pop\n      jump\t// out\n        /* \"#utility.yul\":4013:4432   */\n    tag_26:\n        /* \"#utility.yul\":4179:4183   */\n      0x00\n        /* \"#utility.yul\":4217:4219   */\n      0x20\n        /* \"#utility.yul\":4206:4215   */\n      dup3\n        /* \"#utility.yul\":4202:4220   */\n      add\n        /* \"#utility.yul\":4194:4220   */\n      swap1\n      pop\n        /* \"#utility.yul\":4266:4275   */\n      dup2\n        /* \"#utility.yul\":4260:4264   */\n      dup2\n        /* \"#utility.yul\":4256:4276   */\n      sub\n        /* \"#utility.yul\":4252:4253   */\n      0x00\n        /* \"#utility.yul\":4241:4250   */\n      dup4\n        /* \"#utility.yul\":4237:4254   */\n      add\n        /* \"#utility.yul\":4230:4277   */\n      mstore\n        /* \"#utility.yul\":4294:4425   */\n      tag_131\n        /* \"#utility.yul\":4420:4424   */\n      dup2\n        /* \"#utility.yul\":4294:4425   */\n      tag_70\n      jump\t// in\n    tag_131:\n        /* \"#utility.yul\":4286:4425   */\n      swap1\n      pop\n        /* \"#utility.yul\":4013:4432   */\n      swap2\n      swap1\n      pop\n      jump\t// out\n        /* \"#utility.yul\":4438:4613   */\n    tag_71:\n        /* \"#utility.yul\":4578:4605   */\n      0x496e76616c696420726563697069656e74206164647265737300000000000000\n        /* \"#utility.yul\":4574:4575   */\n      0x00\n        /* \"#utility.yul\":4566:4572   */\n      dup3\n        /* \"#utility.yul\":4562:4576   */\n      add\n        /* \"#utility.yul\":4555:4606   */\n      mstore\n        /* \"#utility.yul\":4438:4613   */\n      pop\n      jump\t// out\n        /* \"#utility.yul\":4619:4985   */\n    tag_72:\n        /* \"#utility.yul\":4761:4764   */\n      0x00\n        /* \"#utility.yul\":4782:4849   */\n      tag_134\n        /* \"#utility.yul\":4846:4848   */\n      0x19\n        /* \"#utility.yul\":4841:4844   */\n      dup4\n        /* \"#utility.yul\":4782:4849   */\n      tag_68\n      jump\t// in\n    tag_134:\n        /* \"#utility.yul\":4775:4849   */\n      swap2\n      pop\n        /* \"#utility.yul\":4858:4951   */\n      tag_135\n        /* \"#utility.yul\":4947:4950   */\n      dup3\n        /* \"#utility.yul\":4858:4951   */\n      tag_71\n      jump\t// in\n    tag_135:\n        /* \"#utility.yul\":4976:4978   */\n      0x20\n        /* \"#utility.yul\":4971:4974   */\n      dup3\n        /* \"#utility.yul\":4967:4979   */\n      add\n        /* \"#utility.yul\":4960:4979   */\n      swap1\n      pop\n        /* \"#utility.yul\":4619:4985   */\n      swap2\n      swap1\n      pop\n      jump\t// out\n        /* \"#utility.yul\":4991:5410   */\n    tag_29:\n        /* \"#utility.yul\":5157:5161   */\n      0x00\n        /* \"#utility.yul\":5195:5197   */\n      0x20\n        /* \"#utility.yul\":5184:5193   */\n      dup3\n        /* \"#utility.yul\":5180:5198   */\n      add\n        /* \"#utility.yul\":5172:5198   */\n      swap1\n      pop\n        /* \"#utility.yul\":5244:5253   */\n      dup2\n        /* \"#utility.yul\":5238:5242   */\n      dup2\n        /* \"#utility.yul\":5234:5254   */\n      sub\n        /* \"#utility.yul\":5230:5231   */\n      0x00\n        /* \"#utility.yul\":5219:5228   */\n      dup4\n        /* \"#utility.yul\":5215:5232   */\n      add\n        /* \"#utility.yul\":5208:5255   */\n      mstore\n        /* \"#utility.yul\":5272:5403   */\n      tag_137\n        /* \"#utility.yul\":5398:5402   */\n      dup2\n        /* \"#utility.yul\":5272:5403   */\n      tag_72\n      jump\t// in\n    tag_137:\n        /* \"#utility.yul\":5264:5403   */\n      swap1\n      pop\n        /* \"#utility.yul\":4991:5410   */\n      swap2\n      swap1\n      pop\n      jump\t// out\n        /* \"#utility.yul\":5416:5589   */\n    tag_73:\n        /* \"#utility.yul\":5556:5581   */\n      0x496e76616c6964207472616e7366657220616d6f756e74000000000000000000\n        /* \"#utility.yul\":5552:5553   */\n      0x00\n        /* \"#utility.yul\":5544:5550   */\n      dup3\n        /* \"#utility.yul\":5540:5554   */\n      add\n        /* \"#utility.yul\":5533:5582   */\n      mstore\n        /* \"#utility.yul\":5416:5589   */\n      pop\n      jump\t// out\n        /* \"#utility.yul\":5595:5961   */\n    tag_74:\n        /* \"#utility.yul\":5737:5740   */\n      0x00\n        /* \"#utility.yul\":5758:5825   */\n      tag_140\n        /* \"#utility.yul\":5822:5824   */\n      0x17\n        /* \"#utility.yul\":5817:5820   */\n      dup4\n        /* \"#utility.yul\":5758:5825   */\n      tag_68\n      jump\t// in\n    tag_140:\n        /* \"#utility.yul\":5751:5825   */\n      swap2\n      pop\n        /* \"#utility.yul\":5834:5927   */\n      tag_141\n        /* \"#utility.yul\":5923:5926   */\n      dup3\n        /* \"#utility.yul\":5834:5927   */\n      tag_73\n      jump\t// in\n    tag_141:\n        /* \"#utility.yul\":5952:5954   */\n      0x20\n        /* \"#utility.yul\":5947:5950   */\n      dup3\n        /* \"#utility.yul\":5943:5955   */\n      add\n        /* \"#utility.yul\":5936:5955   */\n      swap1\n      pop\n        /* \"#utility.yul\":5595:5961   */\n      swap2\n      swap1\n      pop\n      jump\t// out\n        /* \"#utility.yul\":5967:6386   */\n    tag_32:\n        /* \"#utility.yul\":6133:6137   */\n      0x00\n        /* \"#utility.yul\":6171:6173   */\n      0x20\n        /* \"#utility.yul\":6160:6169   */\n      dup3\n        /* \"#utility.yul\":6156:6174   */\n      add\n        /* \"#utility.yul\":6148:6174   */\n      swap1\n      pop\n        /* \"#utility.yul\":6220:6229   */\n      dup2\n        /* \"#utility.yul\":6214:6218   */\n      dup2\n        /* \"#utility.yul\":6210:6230   */\n      sub\n        /* \"#utility.yul\":6206:6207   */\n      0x00\n        /* \"#utility.yul\":6195:6204   */\n      dup4\n        /* \"#utility.yul\":6191:6208   */\n      add\n        /* \"#utility.yul\":6184:6231   */\n      mstore\n        /* \"#utility.yul\":6248:6379   */\n      tag_143\n        /* \"#utility.yul\":6374:6378   */\n      dup2\n        /* \"#utility.yul\":6248:6379   */\n      tag_74\n      jump\t// in\n    tag_143:\n        /* \"#utility.yul\":6240:6379   */\n      swap1\n      pop\n        /* \"#utility.yul\":5967:6386   */\n      swap2\n      swap1\n      pop\n      jump\t// out\n        /* \"#utility.yul\":6392:6834   */\n    tag_34:\n        /* \"#utility.yul\":6541:6545   */\n      0x00\n        /* \"#utility.yul\":6579:6581   */\n      0x60\n        /* \"#utility.yul\":6568:6577   */\n      dup3\n        /* \"#utility.yul\":6564:6582   */\n      add\n        /* \"#utility.yul\":6556:6582   */\n      swap1\n      pop\n        /* \"#utility.yul\":6592:6663   */\n      tag_145\n        /* \"#utility.yul\":6660:6661   */\n      0x00\n        /* \"#utility.yul\":6649:6658   */\n      dup4\n        /* \"#utility.yul\":6645:6662   */\n      add\n        /* \"#utility.yul\":6636:6642   */\n      dup7\n        /* \"#utility.yul\":6592:6663   */\n      tag_67\n      jump\t// in\n    tag_145:\n        /* \"#utility.yul\":6673:6745   */\n      tag_146\n        /* \"#utility.yul\":6741:6743   */\n      0x20\n        /* \"#utility.yul\":6730:6739   */\n      dup4\n        /* \"#utility.yul\":6726:6744   */\n      add\n        /* \"#utility.yul\":6717:6723   */\n      dup6\n        /* \"#utility.yul\":6673:6745   */\n      tag_67\n      jump\t// in\n    tag_146:\n        /* \"#utility.yul\":6755:6827   */\n      tag_147\n        /* \"#utility.yul\":6823:6825   */\n      0x40\n        /* \"#utility.yul\":6812:6821   */\n      dup4\n        /* \"#utility.yul\":6808:6826   */\n      add\n        /* \"#utility.yul\":6799:6805   */\n      dup5\n        /* \"#utility.yul\":6755:6827   */\n      tag_66\n      jump\t// in\n    tag_147:\n        /* \"#utility.yul\":6392:6834   */\n      swap5\n      swap4\n      pop\n      pop\n      pop\n      pop\n      jump\t// out\n        /* \"#utility.yul\":6840:6938   */\n    tag_75:\n        /* \"#utility.yul\":6891:6897   */\n      0x00\n        /* \"#utility.yul\":6925:6930   */\n      dup2\n        /* \"#utility.yul\":6919:6931   */\n      mload\n        /* \"#utility.yul\":6909:6931   */\n      swap1\n      pop\n        /* \"#utility.yul\":6840:6938   */\n      swap2\n      swap1\n      pop\n      jump\t// out\n        /* \"#utility.yul\":6944:7091   */\n    tag_76:\n        /* \"#utility.yul\":7045:7056   */\n      0x00\n        /* \"#utility.yul\":7082:7085   */\n      dup2\n        /* \"#utility.yul\":7067:7085   */\n      swap1\n      pop\n        /* \"#utility.yul\":6944:7091   */\n      swap3\n      swap2\n      pop\n      pop\n      jump\t// out\n        /* \"#utility.yul\":7097:7343   */\n    tag_77:\n        /* \"#utility.yul\":7178:7179   */\n      0x00\n        /* \"#utility.yul\":7188:7301   */\n    tag_151:\n        /* \"#utility.yul\":7202:7208   */\n      dup4\n        /* \"#utility.yul\":7199:7200   */\n      dup2\n        /* \"#utility.yul\":7196:7209   */\n      lt\n        /* \"#utility.yul\":7188:7301   */\n      iszero\n      tag_153\n      jumpi\n        /* \"#utility.yul\":7287:7288   */\n      dup1\n        /* \"#utility.yul\":7282:7285   */\n      dup3\n        /* \"#utility.yul\":7278:7289   */\n      add\n        /* \"#utility.yul\":7272:7290   */\n      mload\n        /* \"#utility.yul\":7268:7269   */\n      dup2\n        /* \"#utility.yul\":7263:7266   */\n      dup5\n        /* \"#utility.yul\":7259:7270   */\n      add\n        /* \"#utility.yul\":7252:7291   */\n      mstore\n        /* \"#utility.yul\":7224:7226   */\n      0x20\n        /* \"#utility.yul\":7221:7222   */\n      dup2\n        /* \"#utility.yul\":7217:7227   */\n      add\n        /* \"#utility.yul\":7212:7227   */\n      swap1\n      pop\n        /* \"#utility.yul\":7188:7301   */\n      jump(tag_151)\n    tag_153:\n        /* \"#utility.yul\":7335:7336   */\n      0x00\n        /* \"#utility.yul\":7326:7332   */\n      dup5\n        /* \"#utility.yul\":7321:7324   */\n      dup5\n        /* \"#utility.yul\":7317:7333   */\n      add\n        /* \"#utility.yul\":7310:7337   */\n      mstore\n        /* \"#utility.yul\":7159:7343   */\n      pop\n        /* \"#utility.yul\":7097:7343   */\n      pop\n      pop\n      pop\n      jump\t// out\n        /* \"#utility.yul\":7349:7735   */\n    tag_78:\n        /* \"#utility.yul\":7453:7456   */\n      0x00\n        /* \"#utility.yul\":7481:7519   */\n      tag_155\n        /* \"#utility.yul\":7513:7518   */\n      dup3\n        /* \"#utility.yul\":7481:7519   */\n      tag_75\n      jump\t// in\n    tag_155:\n        /* \"#utility.yul\":7535:7623   */\n      tag_156\n        /* \"#utility.yul\":7616:7622   */\n      dup2\n        /* \"#utility.yul\":7611:7614   */\n      dup6\n        /* \"#utility.yul\":7535:7623   */\n      tag_76\n      jump\t// in\n    tag_156:\n        /* \"#utility.yul\":7528:7623   */\n      swap4\n      pop\n        /* \"#utility.yul\":7632:7697   */\n      tag_157\n        /* \"#utility.yul\":7690:7696   */\n      dup2\n        /* \"#utility.yul\":7685:7688   */\n      dup6\n        /* \"#utility.yul\":7678:7682   */\n      0x20\n        /* \"#utility.yul\":7671:7676   */\n      dup7\n        /* \"#utility.yul\":7667:7683   */\n      add\n        /* \"#utility.yul\":7632:7697   */\n      tag_77\n      jump\t// in\n    tag_157:\n        /* \"#utility.yul\":7722:7728   */\n      dup1\n        /* \"#utility.yul\":7717:7720   */\n      dup5\n        /* \"#utility.yul\":7713:7729   */\n      add\n        /* \"#utility.yul\":7706:7729   */\n      swap2\n      pop\n        /* \"#utility.yul\":7457:7735   */\n      pop\n        /* \"#utility.yul\":7349:7735   */\n      swap3\n      swap2\n      pop\n      pop\n      jump\t// out\n        /* \"#utility.yul\":7741:8012   */\n    tag_36:\n        /* \"#utility.yul\":7871:7874   */\n      0x00\n        /* \"#utility.yul\":7893:7986   */\n      tag_159\n        /* \"#utility.yul\":7982:7985   */\n      dup3\n        /* \"#utility.yul\":7973:7979   */\n      dup5\n        /* \"#utility.yul\":7893:7986   */\n      tag_78\n      jump\t// in\n    tag_159:\n        /* \"#utility.yul\":7886:7986   */\n      swap2\n      pop\n        /* \"#utility.yul\":8003:8006   */\n      dup2\n        /* \"#utility.yul\":7996:8006   */\n      swap1\n      pop\n        /* \"#utility.yul\":7741:8012   */\n      swap3\n      swap2\n      pop\n      pop\n      jump\t// out\n        /* \"#utility.yul\":8018:8189   */\n    tag_79:\n        /* \"#utility.yul\":8158:8181   */\n      0x546f6b656e207472616e73666572206661696c65640000000000000000000000\n        /* \"#utility.yul\":8154:8155   */\n      0x00\n        /* \"#utility.yul\":8146:8152   */\n      dup3\n        /* \"#utility.yul\":8142:8156   */\n      add\n        /* \"#utility.yul\":8135:8182   */\n      mstore\n        /* \"#utility.yul\":8018:8189   */\n      pop\n      jump\t// out\n        /* \"#utility.yul\":8195:8561   */\n    tag_80:\n        /* \"#utility.yul\":8337:8340   */\n      0x00\n        /* \"#utility.yul\":8358:8425   */\n      tag_162\n        /* \"#utility.yul\":8422:8424   */\n      0x15\n        /* \"#utility.yul\":8417:8420   */\n      dup4\n        /* \"#utility.yul\":8358:8425   */\n      tag_68\n      jump\t// in\n    tag_162:\n        /* \"#utility.yul\":8351:8425   */\n      swap2\n      pop\n        /* \"#utility.yul\":8434:8527   */\n      tag_163\n        /* \"#utility.yul\":8523:8526   */\n      dup3\n        /* \"#utility.yul\":8434:8527   */\n      tag_79\n      jump\t// in\n    tag_163:\n        /* \"#utility.yul\":8552:8554   */\n      0x20\n        /* \"#utility.yul\":8547:8550   */\n      dup3\n        /* \"#utility.yul\":8543:8555   */\n      add\n        /* \"#utility.yul\":8536:8555   */\n      swap1\n      pop\n        /* \"#utility.yul\":8195:8561   */\n      swap2\n      swap1\n      pop\n      jump\t// out\n        /* \"#utility.yul\":8567:8986   */\n    tag_42:\n        /* \"#utility.yul\":8733:8737   */\n      0x00\n        /* \"#utility.yul\":8771:8773   */\n      0x20\n        /* \"#utility.yul\":8760:8769   */\n      dup3\n        /* \"#utility.yul\":8756:8774   */\n      add\n        /* \"#utility.yul\":8748:8774   */\n      swap1\n      pop\n        /* \"#utility.yul\":8820:8829   */\n      dup2\n        /* \"#utility.yul\":8814:8818   */\n      dup2\n        /* \"#utility.yul\":8810:8830   */\n      sub\n        /* \"#utility.yul\":8806:8807   */\n      0x00\n        /* \"#utility.yul\":8795:8804   */\n      dup4\n        /* \"#utility.yul\":8791:8808   */\n      add\n        /* \"#utility.yul\":8784:8831   */\n      mstore\n        /* \"#utility.yul\":8848:8979   */\n      tag_165\n        /* \"#utility.yul\":8974:8978   */\n      dup2\n        /* \"#utility.yul\":8848:8979   */\n      tag_80\n      jump\t// in\n    tag_165:\n        /* \"#utility.yul\":8840:8979   */\n      swap1\n      pop\n        /* \"#utility.yul\":8567:8986   */\n      swap2\n      swap1\n      pop\n      jump\t// out\n        /* \"#utility.yul\":8992:9162   */\n    tag_81:\n        /* \"#utility.yul\":9132:9154   */\n      0x42616c616e636520636865636b206661696c6564000000000000000000000000\n        /* \"#utility.yul\":9128:9129   */\n      0x00\n        /* \"#utility.yul\":9120:9126   */\n      dup3\n        /* \"#utility.yul\":9116:9130   */\n      add\n        /* \"#utility.yul\":9109:9155   */\n      mstore\n        /* \"#utility.yul\":8992:9162   */\n      pop\n      jump\t// out\n        /* \"#utility.yul\":9168:9534   */\n    tag_82:\n        /* \"#utility.yul\":9310:9313   */\n      0x00\n        /* \"#utility.yul\":9331:9398   */\n      tag_168\n        /* \"#utility.yul\":9395:9397   */\n      0x14\n        /* \"#utility.yul\":9390:9393   */\n      dup4\n        /* \"#utility.yul\":9331:9398   */\n      tag_68\n      jump\t// in\n    tag_168:\n        /* \"#utility.yul\":9324:9398   */\n      swap2\n      pop\n        /* \"#utility.yul\":9407:9500   */\n      tag_169\n        /* \"#utility.yul\":9496:9499   */\n      dup3\n        /* \"#utility.yul\":9407:9500   */\n      tag_81\n      jump\t// in\n    tag_169:\n        /* \"#utility.yul\":9525:9527   */\n      0x20\n        /* \"#utility.yul\":9520:9523   */\n      dup3\n        /* \"#utility.yul\":9516:9528   */\n      add\n        /* \"#utility.yul\":9509:9528   */\n      swap1\n      pop\n        /* \"#utility.yul\":9168:9534   */\n      swap2\n      swap1\n      pop\n      jump\t// out\n        /* \"#utility.yul\":9540:9959   */\n    tag_51:\n        /* \"#utility.yul\":9706:9710   */\n      0x00\n        /* \"#utility.yul\":9744:9746   */\n      0x20\n        /* \"#utility.yul\":9733:9742   */\n      dup3\n        /* \"#utility.yul\":9729:9747   */\n      add\n        /* \"#utility.yul\":9721:9747   */\n      swap1\n      pop\n        /* \"#utility.yul\":9793:9802   */\n      dup2\n        /* \"#utility.yul\":9787:9791   */\n      dup2\n        /* \"#utility.yul\":9783:9803   */\n      sub\n        /* \"#utility.yul\":9779:9780   */\n      0x00\n        /* \"#utility.yul\":9768:9777   */\n      dup4\n        /* \"#utility.yul\":9764:9781   */\n      add\n        /* \"#utility.yul\":9757:9804   */\n      mstore\n        /* \"#utility.yul\":9821:9952   */\n      tag_171\n        /* \"#utility.yul\":9947:9951   */\n      dup2\n        /* \"#utility.yul\":9821:9952   */\n      tag_82\n      jump\t// in\n    tag_171:\n        /* \"#utility.yul\":9813:9952   */\n      swap1\n      pop\n        /* \"#utility.yul\":9540:9959   */\n      swap2\n      swap1\n      pop\n      jump\t// out\n        /* \"#utility.yul\":9965:10108   */\n    tag_83:\n        /* \"#utility.yul\":10022:10027   */\n      0x00\n        /* \"#utility.yul\":10053:10059   */\n      dup2\n        /* \"#utility.yul\":10047:10060   */\n      mload\n        /* \"#utility.yul\":10038:10060   */\n      swap1\n      pop\n        /* \"#utility.yul\":10069:10102   */\n      tag_173\n        /* \"#utility.yul\":10096:10101   */\n      dup2\n        /* \"#utility.yul\":10069:10102   */\n      tag_62\n      jump\t// in\n    tag_173:\n        /* \"#utility.yul\":9965:10108   */\n      swap3\n      swap2\n      pop\n      pop\n      jump\t// out\n        /* \"#utility.yul\":10114:10465   */\n    tag_53:\n        /* \"#utility.yul\":10184:10190   */\n      0x00\n        /* \"#utility.yul\":10233:10235   */\n      0x20\n        /* \"#utility.yul\":10221:10230   */\n      dup3\n        /* \"#utility.yul\":10212:10219   */\n      dup5\n        /* \"#utility.yul\":10208:10231   */\n      sub\n        /* \"#utility.yul\":10204:10236   */\n      slt\n        /* \"#utility.yul\":10201:10320   */\n      iszero\n      tag_175\n      jumpi\n        /* \"#utility.yul\":10239:10318   */\n      tag_176\n      tag_55\n      jump\t// in\n    tag_176:\n        /* \"#utility.yul\":10201:10320   */\n    tag_175:\n        /* \"#utility.yul\":10359:10360   */\n      0x00\n        /* \"#utility.yul\":10384:10448   */\n      tag_177\n        /* \"#utility.yul\":10440:10447   */\n      dup5\n        /* \"#utility.yul\":10431:10437   */\n      dup3\n        /* \"#utility.yul\":10420:10429   */\n      dup6\n        /* \"#utility.yul\":10416:10438   */\n      add\n        /* \"#utility.yul\":10384:10448   */\n      tag_83\n      jump\t// in\n    tag_177:\n        /* \"#utility.yul\":10374:10448   */\n      swap2\n      pop\n        /* \"#utility.yul\":10330:10458   */\n      pop\n        /* \"#utility.yul\":10114:10465   */\n      swap3\n      swap2\n      pop\n      pop\n      jump\t// out\n\n    auxdata: 0xa26469706673582212203c1b0cca1daa2a784de81689f66b11f1e2e04c455249cb824c8505cab7b6b81064736f6c63430008120033\n}\n",
				"bytecode": {
					"linkReferences": {},
					"object": "608060405234801561001057600080fd5b50604051610b22380380610b22833981810160405281019061003291906100db565b806000806101000a81548173ffffffffffffffffffffffffffffffffffffffff021916908373ffffffffffffffffffffffffffffffffffffffff16021790555050610108565b600080fd5b600073ffffffffffffffffffffffffffffffffffffffff82169050919050565b60006100a88261007d565b9050919050565b6100b88161009d565b81146100c357600080fd5b50565b6000815190506100d5816100af565b92915050565b6000602082840312156100f1576100f0610078565b5b60006100ff848285016100c6565b91505092915050565b610a0b806101176000396000f3fe6080604052600436106100345760003560e01c8063beabacc814610039578063f8b2cb4f14610069578063fc0c546a146100a6575b600080fd5b610053600480360381019061004e919061059d565b6100d1565b604051610060919061060b565b60405180910390f35b34801561007557600080fd5b50610090600480360381019061008b9190610626565b610360565b60405161009d9190610662565b60405180910390f35b3480156100b257600080fd5b506100bb6104e0565b6040516100c8919061068c565b60405180910390f35b60008073ffffffffffffffffffffffffffffffffffffffff168473ffffffffffffffffffffffffffffffffffffffff1603610141576040517f08c379a000000000000000000000000000000000000000000000000000000000815260040161013890610704565b60405180910390fd5b600073ffffffffffffffffffffffffffffffffffffffff168373ffffffffffffffffffffffffffffffffffffffff16036101b0576040517f08c379a00000000000000000000000000000000000000000000000000000000081526004016101a790610770565b60405180910390fd5b600082116101f3576040517f08c379a00000000000000000000000000000000000000000000000000000000081526004016101ea906107dc565b60405180910390fd5b60008060008054906101000a900473ffffffffffffffffffffffffffffffffffffffff1673ffffffffffffffffffffffffffffffffffffffff16868686604051602401610242939291906107fc565b6040516020818303038152906040527f23b872dd000000000000000000000000000000000000000000000000000000007bffffffffffffffffffffffffffffffffffffffffffffffffffffffff19166020820180517bffffffffffffffffffffffffffffffffffffffffffffffffffffffff83818316178352505050506040516102cc91906108a4565b6000604051808303816000865af19150503d8060008114610309576040519150601f19603f3d011682016040523d82523d6000602084013e61030e565b606091505b509150915081610353576040517f08c379a000000000000000000000000000000000000000000000000000000000815260040161034a90610907565b60405180910390fd5b6001925050509392505050565b60008060008060009054906101000a900473ffffffffffffffffffffffffffffffffffffffff1673ffffffffffffffffffffffffffffffffffffffff16846040516024016103ae919061068c565b6040516020818303038152906040527f70a08231000000000000000000000000000000000000000000000000000000007bffffffffffffffffffffffffffffffffffffffffffffffffffffffff19166020820180517bffffffffffffffffffffffffffffffffffffffffffffffffffffffff838183161783525050505060405161043891906108a4565b600060405180830381855afa9150503d8060008114610473576040519150601f19603f3d011682016040523d82523d6000602084013e610478565b606091505b5091509150816104bd576040517f08c379a00000000000000000000000000000000000000000000000000000000081526004016104b490610973565b60405180910390fd5b6000818060200190518101906104d391906109a8565b9050809350505050919050565b60008054906101000a900473ffffffffffffffffffffffffffffffffffffffff1681565b600080fd5b600073ffffffffffffffffffffffffffffffffffffffff82169050919050565b600061053482610509565b9050919050565b61054481610529565b811461054f57600080fd5b50565b6000813590506105618161053b565b92915050565b6000819050919050565b61057a81610567565b811461058557600080fd5b50565b60008135905061059781610571565b92915050565b6000806000606084860312156105b6576105b5610504565b5b60006105c486828701610552565b93505060206105d586828701610552565b92505060406105e686828701610588565b9150509250925092565b60008115159050919050565b610605816105f0565b82525050565b600060208201905061062060008301846105fc565b92915050565b60006020828403121561063c5761063b610504565b5b600061064a84828501610552565b91505092915050565b61065c81610567565b82525050565b60006020820190506106776000830184610653565b92915050565b61068681610529565b82525050565b60006020820190506106a1600083018461067d565b92915050565b600082825260208201905092915050565b7f496e76616c69642073656e646572206164647265737300000000000000000000600082015250565b60006106ee6016836106a7565b91506106f9826106b8565b602082019050919050565b6000602082019050818103600083015261071d816106e1565b9050919050565b7f496e76616c696420726563697069656e74206164647265737300000000000000600082015250565b600061075a6019836106a7565b915061076582610724565b602082019050919050565b600060208201905081810360008301526107898161074d565b9050919050565b7f496e76616c6964207472616e7366657220616d6f756e74000000000000000000600082015250565b60006107c66017836106a7565b91506107d182610790565b602082019050919050565b600060208201905081810360008301526107f5816107b9565b9050919050565b6000606082019050610811600083018661067d565b61081e602083018561067d565b61082b6040830184610653565b949350505050565b600081519050919050565b600081905092915050565b60005b8381101561086757808201518184015260208101905061084c565b60008484015250505050565b600061087e82610833565b610888818561083e565b9350610898818560208601610849565b80840191505092915050565b60006108b08284610873565b915081905092915050565b7f546f6b656e207472616e73666572206661696c65640000000000000000000000600082015250565b60006108f16015836106a7565b91506108fc826108bb565b602082019050919050565b60006020820190508181036000830152610920816108e4565b9050919050565b7f42616c616e636520636865636b206661696c6564000000000000000000000000600082015250565b600061095d6014836106a7565b915061096882610927565b602082019050919050565b6000602082019050818103600083015261098c81610950565b9050919050565b6000815190506109a281610571565b92915050565b6000602082840312156109be576109bd610504565b5b60006109cc84828501610993565b9150509291505056fea26469706673582212203c1b0cca1daa2a784de81689f66b11f1e2e04c455249cb824c8505cab7b6b81064736f6c63430008120033",
					"opcodes": "PUSH1 0x80 PUSH1 0x40 MSTORE CALLVALUE DUP1 ISZERO PUSH2 0x10 JUMPI PUSH1 0x0 DUP1 REVERT JUMPDEST POP PUSH1 0x40 MLOAD PUSH2 0xB22 CODESIZE SUB DUP1 PUSH2 0xB22 DUP4 CODECOPY DUP2 DUP2 ADD PUSH1 0x40 MSTORE DUP2 ADD SWAP1 PUSH2 0x32 SWAP2 SWAP1 PUSH2 0xDB JUMP JUMPDEST DUP1 PUSH1 0x0 DUP1 PUSH2 0x100 EXP DUP2 SLOAD DUP2 PUSH20 0xFFFFFFFFFFFFFFFFFFFFFFFFFFFFFFFFFFFFFFFF MUL NOT AND SWAP1 DUP4 PUSH20 0xFFFFFFFFFFFFFFFFFFFFFFFFFFFFFFFFFFFFFFFF AND MUL OR SWAP1 SSTORE POP POP PUSH2 0x108 JUMP JUMPDEST PUSH1 0x0 DUP1 REVERT JUMPDEST PUSH1 0x0 PUSH20 0xFFFFFFFFFFFFFFFFFFFFFFFFFFFFFFFFFFFFFFFF DUP3 AND SWAP1 POP SWAP2 SWAP1 POP JUMP JUMPDEST PUSH1 0x0 PUSH2 0xA8 DUP3 PUSH2 0x7D JUMP JUMPDEST SWAP1 POP SWAP2 SWAP1 POP JUMP JUMPDEST PUSH2 0xB8 DUP2 PUSH2 0x9D JUMP JUMPDEST DUP2 EQ PUSH2 0xC3 JUMPI PUSH1 0x0 DUP1 REVERT JUMPDEST POP JUMP JUMPDEST PUSH1 0x0 DUP2 MLOAD SWAP1 POP PUSH2 0xD5 DUP2 PUSH2 0xAF JUMP JUMPDEST SWAP3 SWAP2 POP POP JUMP JUMPDEST PUSH1 0x0 PUSH1 0x20 DUP3 DUP5 SUB SLT ISZERO PUSH2 0xF1 JUMPI PUSH2 0xF0 PUSH2 0x78 JUMP JUMPDEST JUMPDEST PUSH1 0x0 PUSH2 0xFF DUP5 DUP3 DUP6 ADD PUSH2 0xC6 JUMP JUMPDEST SWAP2 POP POP SWAP3 SWAP2 POP POP JUMP JUMPDEST PUSH2 0xA0B DUP1 PUSH2 0x117 PUSH1 0x0 CODECOPY PUSH1 0x0 RETURN INVALID PUSH1 0x80 PUSH1 0x40 MSTORE PUSH1 0x4 CALLDATASIZE LT PUSH2 0x34 JUMPI PUSH1 0x0 CALLDATALOAD PUSH1 0xE0 SHR DUP1 PUSH4 0xBEABACC8 EQ PUSH2 0x39 JUMPI DUP1 PUSH4 0xF8B2CB4F EQ PUSH2 0x69 JUMPI DUP1 PUSH4 0xFC0C546A EQ PUSH2 0xA6 JUMPI JUMPDEST PUSH1 0x0 DUP1 REVERT JUMPDEST PUSH2 0x53 PUSH1 0x4 DUP1 CALLDATASIZE SUB DUP2 ADD SWAP1 PUSH2 0x4E SWAP2 SWAP1 PUSH2 0x59D JUMP JUMPDEST PUSH2 0xD1 JUMP JUMPDEST PUSH1 0x40 MLOAD PUSH2 0x60 SWAP2 SWAP1 PUSH2 0x60B JUMP JUMPDEST PUSH1 0x40 MLOAD DUP1 SWAP2 SUB SWAP1 RETURN JUMPDEST CALLVALUE DUP1 ISZERO PUSH2 0x75 JUMPI PUSH1 0x0 DUP1 REVERT JUMPDEST POP PUSH2 0x90 PUSH1 0x4 DUP1 CALLDATASIZE SUB DUP2 ADD SWAP1 PUSH2 0x8B SWAP2 SWAP1 PUSH2 0x626 JUMP JUMPDEST PUSH2 0x360 JUMP JUMPDEST PUSH1 0x40 MLOAD PUSH2 0x9D SWAP2 SWAP1 PUSH2 0x662 JUMP JUMPDEST PUSH1 0x40 MLOAD DUP1 SWAP2 SUB SWAP1 RETURN JUMPDEST CALLVALUE DUP1 ISZERO PUSH2 0xB2 JUMPI PUSH1 0x0 DUP1 REVERT JUMPDEST POP PUSH2 0xBB PUSH2 0x4E0 JUMP JUMPDEST PUSH1 0x40 MLOAD PUSH2 0xC8 SWAP2 SWAP1 PUSH2 0x68C JUMP JUMPDEST PUSH1 0x40 MLOAD DUP1 SWAP2 SUB SWAP1 RETURN JUMPDEST PUSH1 0x0 DUP1 PUSH20 0xFFFFFFFFFFFFFFFFFFFFFFFFFFFFFFFFFFFFFFFF AND DUP5 PUSH20 0xFFFFFFFFFFFFFFFFFFFFFFFFFFFFFFFFFFFFFFFF AND SUB PUSH2 0x141 JUMPI PUSH1 0x40 MLOAD PUSH32 0x8C379A000000000000000000000000000000000000000000000000000000000 DUP2 MSTORE PUSH1 0x4 ADD PUSH2 0x138 SWAP1 PUSH2 0x704 JUMP JUMPDEST PUSH1 0x40 MLOAD DUP1 SWAP2 SUB SWAP1 REVERT JUMPDEST PUSH1 0x0 PUSH20 0xFFFFFFFFFFFFFFFFFFFFFFFFFFFFFFFFFFFFFFFF AND DUP4 PUSH20 0xFFFFFFFFFFFFFFFFFFFFFFFFFFFFFFFFFFFFFFFF AND SUB PUSH2 0x1B0 JUMPI PUSH1 0x40 MLOAD PUSH32 0x8C379A000000000000000000000000000000000000000000000000000000000 DUP2 MSTORE PUSH1 0x4 ADD PUSH2 0x1A7 SWAP1 PUSH2 0x770 JUMP JUMPDEST PUSH1 0x40 MLOAD DUP1 SWAP2 SUB SWAP1 REVERT JUMPDEST PUSH1 0x0 DUP3 GT PUSH2 0x1F3 JUMPI PUSH1 0x40 MLOAD PUSH32 0x8C379A000000000000000000000000000000000000000000000000000000000 DUP2 MSTORE PUSH1 0x4 ADD PUSH2 0x1EA SWAP1 PUSH2 0x7DC JUMP JUMPDEST PUSH1 0x40 MLOAD DUP1 SWAP2 SUB SWAP1 REVERT JUMPDEST PUSH1 0x0 DUP1 PUSH1 0x0 DUP1 SLOAD SWAP1 PUSH2 0x100 EXP SWAP1 DIV PUSH20 0xFFFFFFFFFFFFFFFFFFFFFFFFFFFFFFFFFFFFFFFF AND PUSH20 0xFFFFFFFFFFFFFFFFFFFFFFFFFFFFFFFFFFFFFFFF AND DUP7 DUP7 DUP7 PUSH1 0x40 MLOAD PUSH1 0x24 ADD PUSH2 0x242 SWAP4 SWAP3 SWAP2 SWAP1 PUSH2 0x7FC JUMP JUMPDEST PUSH1 0x40 MLOAD PUSH1 0x20 DUP2 DUP4 SUB SUB DUP2 MSTORE SWAP1 PUSH1 0x40 MSTORE PUSH32 0x23B872DD00000000000000000000000000000000000000000000000000000000 PUSH28 0xFFFFFFFFFFFFFFFFFFFFFFFFFFFFFFFFFFFFFFFFFFFFFFFFFFFFFFFF NOT AND PUSH1 0x20 DUP3 ADD DUP1 MLOAD PUSH28 0xFFFFFFFFFFFFFFFFFFFFFFFFFFFFFFFFFFFFFFFFFFFFFFFFFFFFFFFF DUP4 DUP2 DUP4 AND OR DUP4 MSTORE POP POP POP POP PUSH1 0x40 MLOAD PUSH2 0x2CC SWAP2 SWAP1 PUSH2 0x8A4 JUMP JUMPDEST PUSH1 0x0 PUSH1 0x40 MLOAD DUP1 DUP4 SUB DUP2 PUSH1 0x0 DUP7 GAS CALL SWAP2 POP POP RETURNDATASIZE DUP1 PUSH1 0x0 DUP2 EQ PUSH2 0x309 JUMPI PUSH1 0x40 MLOAD SWAP2 POP PUSH1 0x1F NOT PUSH1 0x3F RETURNDATASIZE ADD AND DUP3 ADD PUSH1 0x40 MSTORE RETURNDATASIZE DUP3 MSTORE RETURNDATASIZE PUSH1 0x0 PUSH1 0x20 DUP5 ADD RETURNDATACOPY PUSH2 0x30E JUMP JUMPDEST PUSH1 0x60 SWAP2 POP JUMPDEST POP SWAP2 POP SWAP2 POP DUP2 PUSH2 0x353 JUMPI PUSH1 0x40 MLOAD PUSH32 0x8C379A000000000000000000000000000000000000000000000000000000000 DUP2 MSTORE PUSH1 0x4 ADD PUSH2 0x34A SWAP1 PUSH2 0x907 JUMP JUMPDEST PUSH1 0x40 MLOAD DUP1 SWAP2 SUB SWAP1 REVERT JUMPDEST PUSH1 0x1 SWAP3 POP POP POP SWAP4 SWAP3 POP POP POP JUMP JUMPDEST PUSH1 0x0 DUP1 PUSH1 0x0 DUP1 PUSH1 0x0 SWAP1 SLOAD SWAP1 PUSH2 0x100 EXP SWAP1 DIV PUSH20 0xFFFFFFFFFFFFFFFFFFFFFFFFFFFFFFFFFFFFFFFF AND PUSH20 0xFFFFFFFFFFFFFFFFFFFFFFFFFFFFFFFFFFFFFFFF AND DUP5 PUSH1 0x40 MLOAD PUSH1 0x24 ADD PUSH2 0x3AE SWAP2 SWAP1 PUSH2 0x68C JUMP JUMPDEST PUSH1 0x40 MLOAD PUSH1 0x20 DUP2 DUP4 SUB SUB DUP2 MSTORE SWAP1 PUSH1 0x40 MSTORE PUSH32 0x70A0823100000000000000000000000000000000000000000000000000000000 PUSH28 0xFFFFFFFFFFFFFFFFFFFFFFFFFFFFFFFFFFFFFFFFFFFFFFFFFFFFFFFF NOT AND PUSH1 0x20 DUP3 ADD DUP1 MLOAD PUSH28 0xFFFFFFFFFFFFFFFFFFFFFFFFFFFFFFFFFFFFFFFFFFFFFFFFFFFFFFFF DUP4 DUP2 DUP4 AND OR DUP4 MSTORE POP POP POP POP PUSH1 0x40 MLOAD PUSH2 0x438 SWAP2 SWAP1 PUSH2 0x8A4 JUMP JUMPDEST PUSH1 0x0 PUSH1 0x40 MLOAD DUP1 DUP4 SUB DUP2 DUP6 GAS STATICCALL SWAP2 POP POP RETURNDATASIZE DUP1 PUSH1 0x0 DUP2 EQ PUSH2 0x473 JUMPI PUSH1 0x40 MLOAD SWAP2 POP PUSH1 0x1F NOT PUSH1 0x3F RETURNDATASIZE ADD AND DUP3 ADD PUSH1 0x40 MSTORE RETURNDATASIZE DUP3 MSTORE RETURNDATASIZE PUSH1 0x0 PUSH1 0x20 DUP5 ADD RETURNDATACOPY PUSH2 0x478 JUMP JUMPDEST PUSH1 0x60 SWAP2 POP JUMPDEST POP SWAP2 POP SWAP2 POP DUP2 PUSH2 0x4BD JUMPI PUSH1 0x40 MLOAD PUSH32 0x8C379A000000000000000000000000000000000000000000000000000000000 DUP2 MSTORE PUSH1 0x4 ADD PUSH2 0x4B4 SWAP1 PUSH2 0x973 JUMP JUMPDEST PUSH1 0x40 MLOAD DUP1 SWAP2 SUB SWAP1 REVERT JUMPDEST PUSH1 0x0 DUP2 DUP1 PUSH1 0x20 ADD SWAP1 MLOAD DUP2 ADD SWAP1 PUSH2 0x4D3 SWAP2 SWAP1 PUSH2 0x9A8 JUMP JUMPDEST SWAP1 POP DUP1 SWAP4 POP POP POP POP SWAP2 SWAP1 POP JUMP JUMPDEST PUSH1 0x0 DUP1 SLOAD SWAP1 PUSH2 0x100 EXP SWAP1 DIV PUSH20 0xFFFFFFFFFFFFFFFFFFFFFFFFFFFFFFFFFFFFFFFF AND DUP2 JUMP JUMPDEST PUSH1 0x0 DUP1 REVERT JUMPDEST PUSH1 0x0 PUSH20 0xFFFFFFFFFFFFFFFFFFFFFFFFFFFFFFFFFFFFFFFF DUP3 AND SWAP1 POP SWAP2 SWAP1 POP JUMP JUMPDEST PUSH1 0x0 PUSH2 0x534 DUP3 PUSH2 0x509 JUMP JUMPDEST SWAP1 POP SWAP2 SWAP1 POP JUMP JUMPDEST PUSH2 0x544 DUP2 PUSH2 0x529 JUMP JUMPDEST DUP2 EQ PUSH2 0x54F JUMPI PUSH1 0x0 DUP1 REVERT JUMPDEST POP JUMP JUMPDEST PUSH1 0x0 DUP2 CALLDATALOAD SWAP1 POP PUSH2 0x561 DUP2 PUSH2 0x53B JUMP JUMPDEST SWAP3 SWAP2 POP POP JUMP JUMPDEST PUSH1 0x0 DUP2 SWAP1 POP SWAP2 SWAP1 POP JUMP JUMPDEST PUSH2 0x57A DUP2 PUSH2 0x567 JUMP JUMPDEST DUP2 EQ PUSH2 0x585 JUMPI PUSH1 0x0 DUP1 REVERT JUMPDEST POP JUMP JUMPDEST PUSH1 0x0 DUP2 CALLDATALOAD SWAP1 POP PUSH2 0x597 DUP2 PUSH2 0x571 JUMP JUMPDEST SWAP3 SWAP2 POP POP JUMP JUMPDEST PUSH1 0x0 DUP1 PUSH1 0x0 PUSH1 0x60 DUP5 DUP7 SUB SLT ISZERO PUSH2 0x5B6 JUMPI PUSH2 0x5B5 PUSH2 0x504 JUMP JUMPDEST JUMPDEST PUSH1 0x0 PUSH2 0x5C4 DUP7 DUP3 DUP8 ADD PUSH2 0x552 JUMP JUMPDEST SWAP4 POP POP PUSH1 0x20 PUSH2 0x5D5 DUP7 DUP3 DUP8 ADD PUSH2 0x552 JUMP JUMPDEST SWAP3 POP POP PUSH1 0x40 PUSH2 0x5E6 DUP7 DUP3 DUP8 ADD PUSH2 0x588 JUMP JUMPDEST SWAP2 POP POP SWAP3 POP SWAP3 POP SWAP3 JUMP JUMPDEST PUSH1 0x0 DUP2 ISZERO ISZERO SWAP1 POP SWAP2 SWAP1 POP JUMP JUMPDEST PUSH2 0x605 DUP2 PUSH2 0x5F0 JUMP JUMPDEST DUP3 MSTORE POP POP JUMP JUMPDEST PUSH1 0x0 PUSH1 0x20 DUP3 ADD SWAP1 POP PUSH2 0x620 PUSH1 0x0 DUP4 ADD DUP5 PUSH2 0x5FC JUMP JUMPDEST SWAP3 SWAP2 POP POP JUMP JUMPDEST PUSH1 0x0 PUSH1 0x20 DUP3 DUP5 SUB SLT ISZERO PUSH2 0x63C JUMPI PUSH2 0x63B PUSH2 0x504 JUMP JUMPDEST JUMPDEST PUSH1 0x0 PUSH2 0x64A DUP5 DUP3 DUP6 ADD PUSH2 0x552 JUMP JUMPDEST SWAP2 POP POP SWAP3 SWAP2 POP POP JUMP JUMPDEST PUSH2 0x65C DUP2 PUSH2 0x567 JUMP JUMPDEST DUP3 MSTORE POP POP JUMP JUMPDEST PUSH1 0x0 PUSH1 0x20 DUP3 ADD SWAP1 POP PUSH2 0x677 PUSH1 0x0 DUP4 ADD DUP5 PUSH2 0x653 JUMP JUMPDEST SWAP3 SWAP2 POP POP JUMP JUMPDEST PUSH2 0x686 DUP2 PUSH2 0x529 JUMP JUMPDEST DUP3 MSTORE POP POP JUMP JUMPDEST PUSH1 0x0 PUSH1 0x20 DUP3 ADD SWAP1 POP PUSH2 0x6A1 PUSH1 0x0 DUP4 ADD DUP5 PUSH2 0x67D JUMP JUMPDEST SWAP3 SWAP2 POP POP JUMP JUMPDEST PUSH1 0x0 DUP3 DUP3 MSTORE PUSH1 0x20 DUP3 ADD SWAP1 POP SWAP3 SWAP2 POP POP JUMP JUMPDEST PUSH32 0x496E76616C69642073656E646572206164647265737300000000000000000000 PUSH1 0x0 DUP3 ADD MSTORE POP JUMP JUMPDEST PUSH1 0x0 PUSH2 0x6EE PUSH1 0x16 DUP4 PUSH2 0x6A7 JUMP JUMPDEST SWAP2 POP PUSH2 0x6F9 DUP3 PUSH2 0x6B8 JUMP JUMPDEST PUSH1 0x20 DUP3 ADD SWAP1 POP SWAP2 SWAP1 POP JUMP JUMPDEST PUSH1 0x0 PUSH1 0x20 DUP3 ADD SWAP1 POP DUP2 DUP2 SUB PUSH1 0x0 DUP4 ADD MSTORE PUSH2 0x71D DUP2 PUSH2 0x6E1 JUMP JUMPDEST SWAP1 POP SWAP2 SWAP1 POP JUMP JUMPDEST PUSH32 0x496E76616C696420726563697069656E74206164647265737300000000000000 PUSH1 0x0 DUP3 ADD MSTORE POP JUMP JUMPDEST PUSH1 0x0 PUSH2 0x75A PUSH1 0x19 DUP4 PUSH2 0x6A7 JUMP JUMPDEST SWAP2 POP PUSH2 0x765 DUP3 PUSH2 0x724 JUMP JUMPDEST PUSH1 0x20 DUP3 ADD SWAP1 POP SWAP2 SWAP1 POP JUMP JUMPDEST PUSH1 0x0 PUSH1 0x20 DUP3 ADD SWAP1 POP DUP2 DUP2 SUB PUSH1 0x0 DUP4 ADD MSTORE PUSH2 0x789 DUP2 PUSH2 0x74D JUMP JUMPDEST SWAP1 POP SWAP2 SWAP1 POP JUMP JUMPDEST PUSH32 0x496E76616C6964207472616E7366657220616D6F756E74000000000000000000 PUSH1 0x0 DUP3 ADD MSTORE POP JUMP JUMPDEST PUSH1 0x0 PUSH2 0x7C6 PUSH1 0x17 DUP4 PUSH2 0x6A7 JUMP JUMPDEST SWAP2 POP PUSH2 0x7D1 DUP3 PUSH2 0x790 JUMP JUMPDEST PUSH1 0x20 DUP3 ADD SWAP1 POP SWAP2 SWAP1 POP JUMP JUMPDEST PUSH1 0x0 PUSH1 0x20 DUP3 ADD SWAP1 POP DUP2 DUP2 SUB PUSH1 0x0 DUP4 ADD MSTORE PUSH2 0x7F5 DUP2 PUSH2 0x7B9 JUMP JUMPDEST SWAP1 POP SWAP2 SWAP1 POP JUMP JUMPDEST PUSH1 0x0 PUSH1 0x60 DUP3 ADD SWAP1 POP PUSH2 0x811 PUSH1 0x0 DUP4 ADD DUP7 PUSH2 0x67D JUMP JUMPDEST PUSH2 0x81E PUSH1 0x20 DUP4 ADD DUP6 PUSH2 0x67D JUMP JUMPDEST PUSH2 0x82B PUSH1 0x40 DUP4 ADD DUP5 PUSH2 0x653 JUMP JUMPDEST SWAP5 SWAP4 POP POP POP POP JUMP JUMPDEST PUSH1 0x0 DUP2 MLOAD SWAP1 POP SWAP2 SWAP1 POP JUMP JUMPDEST PUSH1 0x0 DUP2 SWAP1 POP SWAP3 SWAP2 POP POP JUMP JUMPDEST PUSH1 0x0 JUMPDEST DUP4 DUP2 LT ISZERO PUSH2 0x867 JUMPI DUP1 DUP3 ADD MLOAD DUP2 DUP5 ADD MSTORE PUSH1 0x20 DUP2 ADD SWAP1 POP PUSH2 0x84C JUMP JUMPDEST PUSH1 0x0 DUP5 DUP5 ADD MSTORE POP POP POP POP JUMP JUMPDEST PUSH1 0x0 PUSH2 0x87E DUP3 PUSH2 0x833 JUMP JUMPDEST PUSH2 0x888 DUP2 DUP6 PUSH2 0x83E JUMP JUMPDEST SWAP4 POP PUSH2 0x898 DUP2 DUP6 PUSH1 0x20 DUP7 ADD PUSH2 0x849 JUMP JUMPDEST DUP1 DUP5 ADD SWAP2 POP POP SWAP3 SWAP2 POP POP JUMP JUMPDEST PUSH1 0x0 PUSH2 0x8B0 DUP3 DUP5 PUSH2 0x873 JUMP JUMPDEST SWAP2 POP DUP2 SWAP1 POP SWAP3 SWAP2 POP POP JUMP JUMPDEST PUSH32 0x546F6B656E207472616E73666572206661696C65640000000000000000000000 PUSH1 0x0 DUP3 ADD MSTORE POP JUMP JUMPDEST PUSH1 0x0 PUSH2 0x8F1 PUSH1 0x15 DUP4 PUSH2 0x6A7 JUMP JUMPDEST SWAP2 POP PUSH2 0x8FC DUP3 PUSH2 0x8BB JUMP JUMPDEST PUSH1 0x20 DUP3 ADD SWAP1 POP SWAP2 SWAP1 POP JUMP JUMPDEST PUSH1 0x0 PUSH1 0x20 DUP3 ADD SWAP1 POP DUP2 DUP2 SUB PUSH1 0x0 DUP4 ADD MSTORE PUSH2 0x920 DUP2 PUSH2 0x8E4 JUMP JUMPDEST SWAP1 POP SWAP2 SWAP1 POP JUMP JUMPDEST PUSH32 0x42616C616E636520636865636B206661696C6564000000000000000000000000 PUSH1 0x0 DUP3 ADD MSTORE POP JUMP JUMPDEST PUSH1 0x0 PUSH2 0x95D PUSH1 0x14 DUP4 PUSH2 0x6A7 JUMP JUMPDEST SWAP2 POP PUSH2 0x968 DUP3 PUSH2 0x927 JUMP JUMPDEST PUSH1 0x20 DUP3 ADD SWAP1 POP SWAP2 SWAP1 POP JUMP JUMPDEST PUSH1 0x0 PUSH1 0x20 DUP3 ADD SWAP1 POP DUP2 DUP2 SUB PUSH1 0x0 DUP4 ADD MSTORE PUSH2 0x98C DUP2 PUSH2 0x950 JUMP JUMPDEST SWAP1 POP SWAP2 SWAP1 POP JUMP JUMPDEST PUSH1 0x0 DUP2 MLOAD SWAP1 POP PUSH2 0x9A2 DUP2 PUSH2 0x571 JUMP JUMPDEST SWAP3 SWAP2 POP POP JUMP JUMPDEST PUSH1 0x0 PUSH1 0x20 DUP3 DUP5 SUB SLT ISZERO PUSH2 0x9BE JUMPI PUSH2 0x9BD PUSH2 0x504 JUMP JUMPDEST JUMPDEST PUSH1 0x0 PUSH2 0x9CC DUP5 DUP3 DUP6 ADD PUSH2 0x993 JUMP JUMPDEST SWAP2 POP POP SWAP3 SWAP2 POP POP JUMP INVALID LOG2 PUSH5 0x6970667358 0x22 SLT KECCAK256 EXTCODECOPY SHL 0xC 0xCA SAR 0xAA 0x2A PUSH25 0x4DE81689F66B11F1E2E04C455249CB824C8505CAB7B6B81064 PUSH20 0x6F6C634300081200330000000000000000000000 "
				},
				"gasEstimates": {
					"creation": {
						"codeDepositCost": "514200",
						"executionCost": "infinite",
						"totalCost": "infinite"
					},
					"external": {
						"getBalance(address)": "infinite",
						"token()": "2533",
						"transfer(address,address,uint256)": "infinite"
					}
				},
				"methodIdentifiers": {
					"getBalance(address)": "f8b2cb4f",
					"token()": "fc0c546a",
					"transfer(address,address,uint256)": "beabacc8"
				}
			},
			"storageLayout": {
				"storage": [
					{
						"astId": 3,
						"contract": "contracts/6-Transfer_Tokens/tokens.sol:TokenTransfer",
						"label": "token",
						"offset": 0,
						"slot": "0",
						"type": "t_address"
					}
				],
				"types": {
					"t_address": {
						"encoding": "inplace",
						"label": "address",
						"numberOfBytes": "20"
					}
				}
			},
			"userdoc": {
				"kind": "user",
				"methods": {},
				"version": 1
			}
		}
	}
}